{
  "contracts/OtterPadFund.sol": {
    "OtterPadFund": {
      "abi": [
        {
          "inputs": [
            {
              "internalType": "string",
              "name": "_title",
              "type": "string"
            },
            {
              "internalType": "string",
              "name": "_richInfoUrl",
              "type": "string"
            },
            {
              "internalType": "address",
              "name": "_saleToken",
              "type": "address"
            },
            {
              "internalType": "address",
              "name": "_paymentToken",
              "type": "address"
            },
            {
              "internalType": "address",
              "name": "_uniswapRouter",
              "type": "address"
            },
            {
              "internalType": "address",
              "name": "_uniswapFactory",
              "type": "address"
            },
            {
              "internalType": "uint256",
              "name": "_startPrice",
              "type": "uint256"
            },
            {
              "internalType": "uint256",
              "name": "_endPrice",
              "type": "uint256"
            },
            {
              "internalType": "uint256",
              "name": "_targetLiquidity",
              "type": "uint256"
            },
            {
              "internalType": "uint256",
              "name": "_upfrontRakeBPS",
              "type": "uint256"
            },
            {
              "internalType": "uint256",
              "name": "_escrowRakeBPS",
              "type": "uint256"
            },
            {
              "internalType": "address",
              "name": "_foundersWallet",
              "type": "address"
            },
            {
              "internalType": "address",
              "name": "_lockLPTokenWallet",
              "type": "address"
            }
          ],
          "stateMutability": "nonpayable",
          "type": "constructor"
        },
        {
          "inputs": [],
          "name": "ReentrancyGuardReentrantCall",
          "type": "error"
        },
        {
          "anonymous": false,
          "inputs": [
            {
              "indexed": false,
              "internalType": "address",
              "name": "pair",
              "type": "address"
            },
            {
              "indexed": false,
              "internalType": "uint256",
              "name": "liquidity",
              "type": "uint256"
            }
          ],
          "name": "DeployedToUniswap",
          "type": "event"
        },
        {
          "anonymous": false,
          "inputs": [
            {
              "indexed": false,
              "internalType": "uint256",
              "name": "amount",
              "type": "uint256"
            },
            {
              "indexed": false,
              "internalType": "address",
              "name": "foundersWallet",
              "type": "address"
            }
          ],
          "name": "EscrowReleased",
          "type": "event"
        },
        {
          "anonymous": false,
          "inputs": [
            {
              "indexed": true,
              "internalType": "address",
              "name": "purchaser",
              "type": "address"
            },
            {
              "indexed": false,
              "internalType": "uint256",
              "name": "totalAmount",
              "type": "uint256"
            },
            {
              "indexed": false,
              "internalType": "uint256",
              "name": "otterpadFee",
              "type": "uint256"
            },
            {
              "indexed": false,
              "internalType": "uint256",
              "name": "upfrontAmount",
              "type": "uint256"
            },
            {
              "indexed": false,
              "internalType": "uint256",
              "name": "escrowAmount",
              "type": "uint256"
            },
            {
              "indexed": false,
              "internalType": "uint256",
              "name": "contributionAmount",
              "type": "uint256"
            }
          ],
          "name": "PaymentReceived",
          "type": "event"
        },
        {
          "anonymous": false,
          "inputs": [
            {
              "indexed": true,
              "internalType": "address",
              "name": "purchaser",
              "type": "address"
            },
            {
              "indexed": false,
              "internalType": "uint256",
              "name": "contributionAmount",
              "type": "uint256"
            },
            {
              "indexed": true,
              "internalType": "uint256",
              "name": "orderIndex",
              "type": "uint256"
            },
            {
              "indexed": false,
              "internalType": "uint256",
              "name": "netActiveContributions",
              "type": "uint256"
            },
            {
              "indexed": false,
              "internalType": "uint256",
              "name": "timestamp",
              "type": "uint256"
            }
          ],
          "name": "Refunded",
          "type": "event"
        },
        {
          "anonymous": false,
          "inputs": [
            {
              "indexed": true,
              "internalType": "address",
              "name": "purchaser",
              "type": "address"
            },
            {
              "indexed": false,
              "internalType": "uint256",
              "name": "paymentAmount",
              "type": "uint256"
            },
            {
              "indexed": false,
              "internalType": "uint256",
              "name": "contributionAmount",
              "type": "uint256"
            },
            {
              "indexed": false,
              "internalType": "uint256",
              "name": "tokenAmount",
              "type": "uint256"
            },
            {
              "indexed": true,
              "internalType": "uint256",
              "name": "orderIndex",
              "type": "uint256"
            },
            {
              "indexed": false,
              "internalType": "uint256",
              "name": "netActiveContributions",
              "type": "uint256"
            },
            {
              "indexed": false,
              "internalType": "uint256",
              "name": "timestamp",
              "type": "uint256"
            }
          ],
          "name": "TokensPurchased",
          "type": "event"
        },
        {
          "anonymous": false,
          "inputs": [
            {
              "indexed": true,
              "internalType": "address",
              "name": "purchaser",
              "type": "address"
            },
            {
              "indexed": false,
              "internalType": "uint256",
              "name": "tokenAmount",
              "type": "uint256"
            },
            {
              "indexed": true,
              "internalType": "uint256",
              "name": "orderIndex",
              "type": "uint256"
            }
          ],
          "name": "TokensRedeemed",
          "type": "event"
        },
        {
          "inputs": [],
          "name": "OTTERPAD_DAO",
          "outputs": [
            {
              "internalType": "address",
              "name": "",
              "type": "address"
            }
          ],
          "stateMutability": "view",
          "type": "function"
        },
        {
          "inputs": [],
          "name": "OTTERPAD_FEE_BPS",
          "outputs": [
            {
              "internalType": "uint256",
              "name": "",
              "type": "uint256"
            }
          ],
          "stateMutability": "view",
          "type": "function"
        },
        {
          "inputs": [
            {
              "internalType": "uint256",
              "name": "paymentAmount",
              "type": "uint256"
            }
          ],
          "name": "buy",
          "outputs": [],
          "stateMutability": "nonpayable",
          "type": "function"
        },
        {
          "inputs": [
            {
              "internalType": "uint256",
              "name": "paymentAmount",
              "type": "uint256"
            }
          ],
          "name": "calculateTokensReceived",
          "outputs": [
            {
              "internalType": "uint256",
              "name": "",
              "type": "uint256"
            }
          ],
          "stateMutability": "view",
          "type": "function"
        },
        {
          "inputs": [],
          "name": "checkSaleTokensRequired",
          "outputs": [
            {
              "internalType": "uint256",
              "name": "",
              "type": "uint256"
            }
          ],
          "stateMutability": "view",
          "type": "function"
        },
        {
          "inputs": [],
          "name": "deployToUniswap",
          "outputs": [],
          "stateMutability": "nonpayable",
          "type": "function"
        },
        {
          "inputs": [],
          "name": "endPrice",
          "outputs": [
            {
              "internalType": "uint256",
              "name": "",
              "type": "uint256"
            }
          ],
          "stateMutability": "view",
          "type": "function"
        },
        {
          "inputs": [],
          "name": "escrowRakeBPS",
          "outputs": [
            {
              "internalType": "uint256",
              "name": "",
              "type": "uint256"
            }
          ],
          "stateMutability": "view",
          "type": "function"
        },
        {
          "inputs": [],
          "name": "foundersWallet",
          "outputs": [
            {
              "internalType": "address",
              "name": "",
              "type": "address"
            }
          ],
          "stateMutability": "view",
          "type": "function"
        },
        {
          "inputs": [
            {
              "internalType": "address",
              "name": "user",
              "type": "address"
            }
          ],
          "name": "getAllocation",
          "outputs": [
            {
              "internalType": "uint256",
              "name": "totalTokens",
              "type": "uint256"
            }
          ],
          "stateMutability": "view",
          "type": "function"
        },
        {
          "inputs": [],
          "name": "getCurrentPrice",
          "outputs": [
            {
              "internalType": "uint256",
              "name": "",
              "type": "uint256"
            }
          ],
          "stateMutability": "view",
          "type": "function"
        },
        {
          "inputs": [],
          "name": "getEscrowedAmount",
          "outputs": [
            {
              "internalType": "uint256",
              "name": "",
              "type": "uint256"
            }
          ],
          "stateMutability": "view",
          "type": "function"
        },
        {
          "inputs": [],
          "name": "getMinimumPurchase",
          "outputs": [
            {
              "internalType": "uint256",
              "name": "",
              "type": "uint256"
            }
          ],
          "stateMutability": "view",
          "type": "function"
        },
        {
          "inputs": [],
          "name": "getPaymentTokenBalance",
          "outputs": [
            {
              "internalType": "uint256",
              "name": "",
              "type": "uint256"
            }
          ],
          "stateMutability": "view",
          "type": "function"
        },
        {
          "inputs": [],
          "name": "getSaleTokenBalance",
          "outputs": [
            {
              "internalType": "uint256",
              "name": "",
              "type": "uint256"
            }
          ],
          "stateMutability": "view",
          "type": "function"
        },
        {
          "inputs": [
            {
              "internalType": "address",
              "name": "user",
              "type": "address"
            }
          ],
          "name": "getUserOrderIndices",
          "outputs": [
            {
              "internalType": "uint256[]",
              "name": "",
              "type": "uint256[]"
            }
          ],
          "stateMutability": "view",
          "type": "function"
        },
        {
          "inputs": [],
          "name": "hasSufficientSaleTokens",
          "outputs": [
            {
              "internalType": "bool",
              "name": "",
              "type": "bool"
            }
          ],
          "stateMutability": "view",
          "type": "function"
        },
        {
          "inputs": [],
          "name": "isDeployedToUniswap",
          "outputs": [
            {
              "internalType": "bool",
              "name": "",
              "type": "bool"
            }
          ],
          "stateMutability": "view",
          "type": "function"
        },
        {
          "inputs": [],
          "name": "lockLPTokenWallet",
          "outputs": [
            {
              "internalType": "address",
              "name": "",
              "type": "address"
            }
          ],
          "stateMutability": "view",
          "type": "function"
        },
        {
          "inputs": [],
          "name": "orderCounter",
          "outputs": [
            {
              "internalType": "uint256",
              "name": "",
              "type": "uint256"
            }
          ],
          "stateMutability": "view",
          "type": "function"
        },
        {
          "inputs": [],
          "name": "paymentToken",
          "outputs": [
            {
              "internalType": "contract IERC20Metadata",
              "name": "",
              "type": "address"
            }
          ],
          "stateMutability": "view",
          "type": "function"
        },
        {
          "inputs": [
            {
              "internalType": "uint256",
              "name": "",
              "type": "uint256"
            }
          ],
          "name": "purchases",
          "outputs": [
            {
              "internalType": "uint256",
              "name": "paymentAmount",
              "type": "uint256"
            },
            {
              "internalType": "uint256",
              "name": "contributionAmount",
              "type": "uint256"
            },
            {
              "internalType": "uint256",
              "name": "tokenAmount",
              "type": "uint256"
            },
            {
              "internalType": "address",
              "name": "purchaser",
              "type": "address"
            },
            {
              "internalType": "bool",
              "name": "isRefunded",
              "type": "bool"
            },
            {
              "internalType": "bool",
              "name": "isRedeemed",
              "type": "bool"
            },
            {
              "internalType": "uint256",
              "name": "purchaseBlock",
              "type": "uint256"
            }
          ],
          "stateMutability": "view",
          "type": "function"
        },
        {
          "inputs": [
            {
              "internalType": "address",
              "name": "tokenAddress",
              "type": "address"
            },
            {
              "internalType": "uint256",
              "name": "amount",
              "type": "uint256"
            }
          ],
          "name": "recoverStuckTokens",
          "outputs": [],
          "stateMutability": "nonpayable",
          "type": "function"
        },
        {
          "inputs": [
            {
              "internalType": "uint256",
              "name": "orderIndex",
              "type": "uint256"
            }
          ],
          "name": "redeem",
          "outputs": [],
          "stateMutability": "nonpayable",
          "type": "function"
        },
        {
          "inputs": [
            {
              "internalType": "uint256",
              "name": "orderIndex",
              "type": "uint256"
            }
          ],
          "name": "refund",
          "outputs": [],
          "stateMutability": "nonpayable",
          "type": "function"
        },
        {
          "inputs": [],
          "name": "richInfoUrl",
          "outputs": [
            {
              "internalType": "string",
              "name": "",
              "type": "string"
            }
          ],
          "stateMutability": "view",
          "type": "function"
        },
        {
          "inputs": [],
          "name": "saleToken",
          "outputs": [
            {
              "internalType": "contract IERC20Metadata",
              "name": "",
              "type": "address"
            }
          ],
          "stateMutability": "view",
          "type": "function"
        },
        {
          "inputs": [],
          "name": "startPrice",
          "outputs": [
            {
              "internalType": "uint256",
              "name": "",
              "type": "uint256"
            }
          ],
          "stateMutability": "view",
          "type": "function"
        },
        {
          "inputs": [],
          "name": "targetLiquidity",
          "outputs": [
            {
              "internalType": "uint256",
              "name": "",
              "type": "uint256"
            }
          ],
          "stateMutability": "view",
          "type": "function"
        },
        {
          "inputs": [],
          "name": "targetReached",
          "outputs": [
            {
              "internalType": "bool",
              "name": "",
              "type": "bool"
            }
          ],
          "stateMutability": "view",
          "type": "function"
        },
        {
          "inputs": [],
          "name": "title",
          "outputs": [
            {
              "internalType": "string",
              "name": "",
              "type": "string"
            }
          ],
          "stateMutability": "view",
          "type": "function"
        },
        {
          "inputs": [],
          "name": "totalActiveContributions",
          "outputs": [
            {
              "internalType": "uint256",
              "name": "",
              "type": "uint256"
            }
          ],
          "stateMutability": "view",
          "type": "function"
        },
        {
          "inputs": [],
          "name": "totalPaymentsIn",
          "outputs": [
            {
              "internalType": "uint256",
              "name": "",
              "type": "uint256"
            }
          ],
          "stateMutability": "view",
          "type": "function"
        },
        {
          "inputs": [],
          "name": "totalTokensAllocated",
          "outputs": [
            {
              "internalType": "uint256",
              "name": "",
              "type": "uint256"
            }
          ],
          "stateMutability": "view",
          "type": "function"
        },
        {
          "inputs": [],
          "name": "uniswapFactory",
          "outputs": [
            {
              "internalType": "contract IUniswapV2Factory",
              "name": "",
              "type": "address"
            }
          ],
          "stateMutability": "view",
          "type": "function"
        },
        {
          "inputs": [],
          "name": "uniswapRouter",
          "outputs": [
            {
              "internalType": "contract IUniswapV2Router02",
              "name": "",
              "type": "address"
            }
          ],
          "stateMutability": "view",
          "type": "function"
        },
        {
          "inputs": [],
          "name": "upfrontRakeBPS",
          "outputs": [
            {
              "internalType": "uint256",
              "name": "",
              "type": "uint256"
            }
          ],
          "stateMutability": "view",
          "type": "function"
        },
        {
          "inputs": [
            {
              "internalType": "address",
              "name": "",
              "type": "address"
            },
            {
              "internalType": "uint256",
              "name": "",
              "type": "uint256"
            }
          ],
          "name": "userOrderIndices",
          "outputs": [
            {
              "internalType": "uint256",
              "name": "",
              "type": "uint256"
            }
          ],
          "stateMutability": "view",
          "type": "function"
        }
      ],
      "evm": {
        "bytecode": {
          "linkReferences": {},
          "object": "61022060405234620009cc576200331a80380380916200002282610220620009d1565b61022039610220016101a0610220820312620009cc57610220516001600160401b038111620009cc57816200005b9161022001620009f5565b6102405190916001600160401b038211620009cc576200007f9161022001620009f5565b6200008c61026062000a6b565b916200009a61028062000a6b565b92620000a86102a062000a6b565b90620000b66102c062000a6b565b6102e05161030051610320516103405161036051969095919492939290620000e061038062000a6b565b99620000ee6103a062000a6b565b9960016000558051156200099757851515806200098d575b8062000983575b156200094d578715620009085760648910620008b757898901808a11620008a157611b58106200085c576001600160a01b038c161562000817576001600160a01b03851615158062000804575b15620007bf576001600160a01b03858116908e16146200077a576001600160a01b03831615158062000767575b1562000722578051906001600160401b0382116200061a5760065490600182811c9216801562000717575b6020831014620005f95781601f849311620006b6575b50602090601f83116001146200063c5760009262000630575b50508160011b916000199060031b1c1916176006555b8051906001600160401b0382116200061a5760075490600182811c921680156200060f575b6020831014620005f95781601f84931162000598575b50602090601f83116001146200051e5760009262000512575b50508160011b916000199060031b1c1916176007555b6001600160a01b0392831660808190528b841660a05290831660c052911660e05260405163313ce56760e01b8082529091602090839060049082905afa8015620004e457602092600091620004f0575b506101a05260405190815298899060049082906001600160a01b03165afa978815620004e457600098620004ac575b506101c097885261020095865261010052610120526101405261016052610180526101e09182526040519161283e938462000a9c85396080518481816101f20152818161033d0152818161045001528181610d500152818161180d01526123f7015260a051848181610770015281816114870152818161159b0152818161185a0152611eef015260c0518481816112af01526118af015260e0518481816111aa0152611aaa015261010051848181610292015281816122bf01528181612676015261271401526101205184818161107f015281816119a2015281816122e50152818161269d0152818161273a015261276701526101405184818161065e0152818161111801528181611172015281816119ce01528181612286015281816125d701526126e00152610160518481816106b1015281816113690152818161221501526125820152610180518481816106e2015281816110d9015281816111f9015281816117a30152818161224001526125b001526101a0518481816119560152818161232701526126450152518381816119810152818161234a015261261d01525182818161085901528181610d0e015281816116d70152611b9f01525181818161171b0152611a380152f35b620004d491985060203d602011620004dc575b620004cb8183620009d1565b81019062000a80565b9638620002e0565b503d620004bf565b6040513d6000823e3d90fd5b6200050b9150833d8511620004dc57620004cb8183620009d1565b38620002b1565b0151905038806200024b565b60076000908152600080516020620032da8339815191529350601f198516905b8181106200057f575090846001959493921062000565575b505050811b0160075562000261565b015160001960f88460031b161c1916905538808062000556565b929360206001819287860151815501950193016200053e565b6007600052909150600080516020620032da833981519152601f840160051c810160208510620005f1575b90849392915b601f830160051c82018110620005e157505062000232565b60008155859450600101620005c9565b5080620005c3565b634e487b7160e01b600052602260045260246000fd5b91607f16916200021c565b634e487b7160e01b600052604160045260246000fd5b015190503880620001e1565b60066000908152600080516020620032fa8339815191529350601f198516905b8181106200069d575090846001959493921062000683575b505050811b01600655620001f7565b015160001960f88460031b161c1916905538808062000674565b929360206001819287860151815501950193016200065c565b6006600052909150600080516020620032fa833981519152601f840160051c8101602085106200070f575b90849392915b601f830160051c82018110620006ff575050620001c8565b60008155859450600101620006e7565b5080620006e1565b91607f1691620001b2565b60405162461bcd60e51b815260206004820152601960248201527f496e76616c696420556e697377617020616464726573736573000000000000006044820152606490fd5b506001600160a01b038416151562000187565b60405162461bcd60e51b815260206004820152601860248201527f546f6b656e73206d75737420626520646966666572656e7400000000000000006044820152606490fd5b60405162461bcd60e51b815260206004820152601760248201527f496e76616c696420746f6b656e206164647265737365730000000000000000006044820152606490fd5b506001600160a01b038d1615156200015a565b60405162461bcd60e51b815260206004820152601760248201527f496e76616c696420666f756e646572732077616c6c65740000000000000000006044820152606490fd5b60405162461bcd60e51b815260206004820152601a60248201527f436f6d62696e65642072616b65203730252065786365656465640000000000006044820152606490fd5b634e487b7160e01b600052601160045260246000fd5b60405162461bcd60e51b8152602060048201526024808201527f557066726f6e742072616b65206d757374206265203e3d204f747465725061646044820152632066656560e01b6064820152608490fd5b60405162461bcd60e51b815260206004820152601660248201527f496e76616c6964207461726765742066756e64696e67000000000000000000006044820152606490fd5b60405162461bcd60e51b815260206004820152600e60248201526d496e76616c69642070726963657360901b6044820152606490fd5b508587116200010d565b5086151562000106565b60405162461bcd60e51b815260206004820152600d60248201526c496e76616c6964207469746c6560981b6044820152606490fd5b600080fd5b601f909101601f19168101906001600160401b038211908210176200061a57604052565b919080601f84011215620009cc5782516001600160401b0381116200061a576020906040519262000a3083601f19601f8501160185620009d1565b818452828287010111620009cc5760005b81811062000a5757508260009394955001015290565b858101830151848201840152820162000a41565b51906001600160a01b0382168203620009cc57565b90816020910312620009cc575160ff81168103620009cc579056fe608060408181526004908136101561001657600080fd5b600092833560e01c9081630e02292314611f30575080630f8c279814611ec257806310d0ffdd14611ea257806312eff12c1461177057806316c049481461174a57806316c94b38146117065780631bfaf155146116c257806325f97fb91461169e578063278ecde1146114b65780633013ce29146114725780633bde5ba81461144b5780634a79d50c1461138c578063560b842c146113515780635a59c551146112fb5780635f655ea7146112de578063735de9f71461129a5780638392fe31146112265780638a19ecef146111d95780638bdb2afa1461119557806392258ec81461115a5780639513a0fd1461113c578063af5b065a146110fc578063b704a0c4146110c1578063b789bf52146110a2578063b868723e14611067578063bef0886014610fb7578063c07f773a14610f98578063c596f3fe14610ce6578063c7c8b43714610be3578063d96a094a1461061d578063db006a751461038b578063de7e33101461036c578063e985e36714610328578063eb91d37e14610304578063edafc9af146102d5578063ef5ee995146102b9578063f1a9af891461027a5763f6a55a29146101c657600080fd5b3461026457826003193601126102645780516370a0823160e01b815230928101929092526020826024817f00000000000000000000000000000000000000000000000000000000000000006001600160a01b03165afa918215610270578392610234575b6020838351908152f35b9091506020813d602011610268575b8161025060209383612094565b81010312610264576020925051903861022a565b8280fd5b3d9150610243565b81513d85823e3d90fd5b8382346102b557816003193601126102b557602090517f00000000000000000000000000000000000000000000000000000000000000008152f35b5080fd5b8382346102b557816003193601126102b5576020905160648152f35b8382346102b557816003193601126102b55760209051736c83e86e05697c995d718c1cfa3f9045a38c7cd48152f35b8382346102b557816003193601126102b5576020906103216126db565b9051908152f35b8382346102b557816003193601126102b557517f00000000000000000000000000000000000000000000000000000000000000006001600160a01b03168152602090f35b8382346102b557816003193601126102b5576020906005549051908152f35b503461026457602080600319360112610619578235926103a96127e5565b60025460ff8160081c16156105de5760ff161561059d57838552600882528285206003810180549092916001600160a01b0391906103ea83831633146124fe565b60ff8260a01c166105655760029061040860ff8460a81c161561253e565b0193845491821561052c5760ff60a81b1916600160a81b179055855163a9059cbb60e01b815233848201908152602081019290925291859183919082908b90829060400103927f0000000000000000000000000000000000000000000000000000000000000000165af19081156105225787916104f5575b50156104ba5750907fd171fb179b26c49e23fe46eddd44d3048a1ad277b62144ac0725fbcf1dbf6d52915492519283523392a36001815580f35b835162461bcd60e51b81529081018390526015602482015274151bdad95b881d1c985b9cd9995c8819985a5b1959605a1b6044820152606490fd5b6105159150843d861161051b575b61050d8183612094565b8101906123c4565b38610480565b503d610503565b85513d89823e3d90fd5b875162461bcd60e51b815280860188905260136024820152724e6f20746f6b656e7320746f2072656465656d60681b6044820152606490fd5b865162461bcd60e51b8152808501879052601260248201527113dc99195c881dd85cc81c99599d5b99195960721b6044820152606490fd5b915162461bcd60e51b815291820152601760248201527f4e6f7420796574206465706c6f79656420746f204445580000000000000000006044820152606490fd5b50915162461bcd60e51b815291820152601660248201527515185c99d95d081b9bdd081c995858da1959081e595d60521b6044820152606490fd5b8380fd5b508290346102b557602090816003193601126102645783359161063e6127e5565b61065c60ff6002546106528282161561247c565b60081c16156124b9565b7f000000000000000000000000000000000000000000000000000000000000000092620f424084048110610ba757606480820291808304821481151715610b9457908697916127108094046106dc81866106d67f000000000000000000000000000000000000000000000000000000000000000086612150565b04612183565b946107077f000000000000000000000000000000000000000000000000000000000000000084612150565b04926107208461071b8861071b8688612183565b612183565b956107378a61073089895461212d565b1115612190565b610740846121de565b89516323b872dd60e01b8152338882015230602480830191909152604482018790529c91966001600160a01b03957f000000000000000000000000000000000000000000000000000000000000000087169390928c81888185895af1918215610b895791610b6c575b5015610b2a578b5187815260208101839052604081018590526060810191909152608081018a90528d918f9133907fbefb6e85b11f40ee4d9e3e8bb0bedbc3d1eee123b1328c0ea0a4b842cbfff7499060a090a28c519063a9059cbb60e01b93848352736c83e86e05697c995d718c1cfa3f9045a38c7cd48c8401528201528b8160448185885af1918215610b1f5791610b02575b5015610acb57918991610895938f8d5180968195829483528d7f000000000000000000000000000000000000000000000000000000000000000090840160209093929193604081019460018060a01b031681520152565b03925af1908115610ac1578c91610aa4575b5015610a65575060019889549660001992838914610a5357908b878a8f8d8c9160099786850187558c8351976108dc89612062565b8d8952898901958652848901918252606089019533875260808a019585875260a08b019580875260c08c0199438b52815260088d522099518a5551908901555160028801556003870193511683549260ff60a01b9051151560a01b169160ff60a81b9051151560a81b169269ffffffffffffffffffff60b01b16171717905551910155338d5252878b2080549168010000000000000000831015610a425750916109b282610a20948d7fb176b33ad40225c8f67dc6ef0cba96c0c88f67afd36396e2198a3f48a44fc7a0999897950181556120ff565b819291549060031b918a831b921b19161790556109d18360035461212d565b6003556109df86855461212d565b97888095556109f08260055461212d565b6005555193849333974293869192608093969594919660a084019784526020840152604083015260608201520152565b0390a31015610a2e57815580f35b61010061ff00196002541617600255815580f35b634e487b7160e01b8d52604187528cfd5b634e487b7160e01b8d5260118752828dfd5b875162461bcd60e51b81528086018890526017818c01527f557066726f6e74207472616e73666572206661696c65640000000000000000006044820152fd5b610abb9150883d8a1161051b5761050d8183612094565b8c6108a7565b89513d8e823e3d90fd5b8a5162461bcd60e51b81528089018b90526013818f015272119959481d1c985b9cd9995c8819985a5b1959606a1b60448201528490fd5b610b1991508b3d8d1161051b5761050d8183612094565b8f61083e565b8d51903d90823e3d90fd5b508a5162461bcd60e51b81528089018b90526017818f01527f5061796d656e74207472616e73666572206661696c656400000000000000000060448201528490fd5b610b8391508c8d3d1061051b5761050d8183612094565b386107a9565b8e51903d90823e3d90fd5b634e487b7160e01b875260118852602487fd5b825162461bcd60e51b8152808701839052601660248201527542656c6f77206d696e696d756d20707572636861736560501b6044820152606490fd5b503461026457826003193601126102645780519183600754906001908260011c92600181168015610cdc575b6020958686108214610cc95750848852908115610ca75750600114610c4e575b610c4a8686610c40828b0383612094565b51918291826120b6565b0390f35b929550600783527fa66cc928b5edb82af9bd49922954155ab7b0942694bea4ce44661d9a8736c6885b828410610c945750505082610c4a94610c40928201019438610c2f565b8054868501880152928601928101610c77565b60ff191687860152505050151560051b8301019250610c4082610c4a38610c2f565b634e487b7160e01b845260229052602483fd5b93607f1693610c0f565b5034610264578060031936011261026457610cff612047565b6024918235610d0c6127e5565b7f0000000000000000000000000000000000000000000000000000000000000000926001600160a01b03908185163303610f565760ff6002541615610f14578116907f0000000000000000000000000000000000000000000000000000000000000000168114610ed25782516370a0823160e01b815230878201526020949085818881865afa908115610ec8579084918a91610e93575b5010610e5a57835163a9059cbb60e01b81526001600160a01b039091168782019081526020810193909352918491839182908a90829060400103925af1908115610e50578691610e33575b5015610dfc57846001815580f35b5162461bcd60e51b81529283015260159082015274151bdad95b881c9958dbdd995c9e4819985a5b1959605a1b6044820152606490fd5b610e4a9150833d851161051b5761050d8183612094565b38610dee565b82513d88823e3d90fd5b835162461bcd60e51b815280880186905260148188015273496e73756666696369656e742062616c616e636560601b6044820152606490fd5b809250878092503d8311610ec1575b610eac8183612094565b81010312610ebd5783905138610da3565b8880fd5b503d610ea2565b85513d8b823e3d90fd5b825162461bcd60e51b81526020818801526019818701527f43616e6e6f74207265636f7665722073616c6520746f6b656e000000000000006044820152606490fd5b835162461bcd60e51b8152602081890152601b818801527f4e6f7420796574206465706c6f79656420746f20556e697377617000000000006044820152606490fd5b835162461bcd60e51b81526020818901526019818801527f4f6e6c7920666f756e646572732063616e207265636f766572000000000000006044820152606490fd5b8382346102b557816003193601126102b5576020906003549051908152f35b50823461106457602090816003193601126110645782906001600160a01b03610fde612047565b16815260098352818120908251808584549182815201908194845286842090845b8181106110505750505081611015910382612094565b83519485948186019282875251809352850193925b82811061103957505050500390f35b83518552869550938101939281019260010161102a565b825484529288019260019283019201610fff565b80fd5b8382346102b557816003193601126102b557602090517f00000000000000000000000000000000000000000000000000000000000000008152f35b8382346102b557816003193601126102b5576020906001549051908152f35b8382346102b557816003193601126102b557602090517f00000000000000000000000000000000000000000000000000000000000000008152f35b8382346102b557816003193601126102b55760209051620f42407f0000000000000000000000000000000000000000000000000000000000000000048152f35b50903461026457826003193601126102645760209250549051908152f35b8382346102b557816003193601126102b557602090517f00000000000000000000000000000000000000000000000000000000000000008152f35b8382346102b557816003193601126102b557517f00000000000000000000000000000000000000000000000000000000000000006001600160a01b03168152602090f35b8382346102b557816003193601126102b55760209061271061121e6005547f000000000000000000000000000000000000000000000000000000000000000090612150565b049051908152f35b50346102645760203660031901126102645760ff8160e094843581526008602052208054936001820154936002830154916003840154930154948151968752602087015285015260018060a01b0381166060850152818160a01c161515608085015260a81c16151560a083015260c0820152f35b8382346102b557816003193601126102b557517f00000000000000000000000000000000000000000000000000000000000000006001600160a01b03168152602090f35b8382346102b557816003193601126102b55760209061032161257d565b8382346102b557806003193601126102b557611315612047565b6001600160a01b031682526009602052808220805460243593908410156110645750602092611343916120ff565b91905490519160031b1c8152f35b8382346102b557816003193601126102b557602090517f00000000000000000000000000000000000000000000000000000000000000008152f35b503461026457826003193601126102645780519183600654906001908260011c92600181168015611441575b6020958686108214610cc95750848852908115610ca757506001146113e857610c4a8686610c40828b0383612094565b929550600683527ff652222313e28459528d920b65115c16c04f3efc82aaedc97be59f3f377c0d3f5b82841061142e5750505082610c4a94610c40928201019438610c2f565b8054868501880152928601928101611411565b93607f16936113b8565b8382346102b557816003193601126102b55760209060ff60025460081c1690519015158152f35b8382346102b557816003193601126102b557517f00000000000000000000000000000000000000000000000000000000000000006001600160a01b03168152602090f35b5090346102645760209182600319360112610619578135926114d66127e5565b6114ea60ff6002546106528282161561247c565b838552600881528185206003810180546001600160a01b0392919061151284821633146124fe565b60ff8160a01c16611668576001899386938361153760ff6115979660a81c161561253e565b60ff60a01b191660a084901b17905560028101546003546115589190612183565b600355019361156985548954612183565b88558454875163a9059cbb60e01b815233818b01908152602081019290925294859384928391604090910190565b03927f0000000000000000000000000000000000000000000000000000000000000000165af190811561165e578791611641575b501561160f5754925490825193845283015242908201527f40afc61aabce83a502901d9dc66b15d1ee92bfcc1f4f56923b8434dcd041e19f60603392a36001815580f35b50905162461bcd60e51b815291820152600d60248201526c1499599d5b990819985a5b1959609a1b6044820152606490fd5b6116589150833d851161051b5761050d8183612094565b386115cb565b84513d89823e3d90fd5b855162461bcd60e51b8152808801869052601060248201526f105b1c9958591e481c99599d5b99195960821b6044820152606490fd5b8382346102b557816003193601126102b55760209060ff6002541690519015158152f35b8382346102b557816003193601126102b557517f00000000000000000000000000000000000000000000000000000000000000006001600160a01b03168152602090f35b8382346102b557816003193601126102b557517f00000000000000000000000000000000000000000000000000000000000000006001600160a01b03168152602090f35b8382346102b557816003193601126102b5576020906117676123dc565b90519015158152f35b50903461026457826003193601126102645760025460ff8160081c1615611e6a5760ff16611e35576127106117c86005547f000000000000000000000000000000000000000000000000000000000000000090612150565b04918154926117d78185612183565b926117e86117e36123dc565b612378565b82516370a0823160e01b80825230838301526020966001600160a01b039491926024927f00000000000000000000000000000000000000000000000000000000000000008716929091908a828681875afa918215610ac1578c92611e02575b5061185760035480931015612378565b877f00000000000000000000000000000000000000000000000000000000000000001695895190815230888201528b8187818a5afa908115611d85578d91611dd1575b5010611d8f57875163095ea7b360e01b8082527f000000000000000000000000000000000000000000000000000000000000000089166001600160a01b0381168984019081526020810194909452929091908c9082908f90829081906040010391895af1908115611d85578d91611d68575b5015611d2f5788519081526001600160a01b038216878201908152602081018b90528b908290819003604001818f8a5af1908115610ac1578c91611d12575b5015611cd7576119f77f00000000000000000000000000000000000000000000000000000000000000006119f26119cc6119c6837f00000000000000000000000000000000000000000000000000000000000000007f000000000000000000000000000000000000000000000000000000000000000061279d565b926121cd565b7f0000000000000000000000000000000000000000000000000000000000000000612150565b612163565b9060784201804211611cc557908c92918a519b8c9362e8e33760e81b8552878b8601528989860152806044860152816064860152608485015260a4840152897f00000000000000000000000000000000000000000000000000000000000000001660c484015260e4830152815a9361010492606095f1978815611cbb578a98611c81575b5080611b89575b506002805460ff19166001179055855163e6a4390560e01b81529384015282015284816044817f000000000000000000000000000000000000000000000000000000000000000086165afa948515611b7f578695611b20575b505090516001600160a01b0390931683525060208201527f4db0962b68e799b508143f50800f1504d656cbd0fe6395510c0dca385bfd84079080604081015b0390a180f35b9080929550813d8311611b78575b611b388183612094565b81010312611b745751928316830361061957611b1a7f4db0962b68e799b508143f50800f1504d656cbd0fe6395510c0dca385bfd840738611adb565b8480fd5b503d611b2e565b83513d88823e3d90fd5b865163a9059cbb60e01b81526001600160a01b037f0000000000000000000000000000000000000000000000000000000000000000908116878301908152602081018490529091908b908290819003604001818f8a5af1908115610ac1578c91611c64575b5015611c2a577fefc7f1f15becfaec7a3c17eec78be3fa7adb45698f26fcfd25efe1754c242331918789928351928352168b820152a138611a82565b875162461bcd60e51b81528087018b905260158186015274115cd8dc9bddc81c995b19585cd94819985a5b1959605a1b6044820152606490fd5b611c7b91508b3d8d1161051b5761050d8183612094565b38611bee565b9097506060813d606011611cb3575b81611c9d60609383612094565b81010312611caf578601519638611a7b565b8980fd5b3d9150611c90565b87513d8c823e3d90fd5b634e487b7160e01b8d5260118852858dfd5b875162461bcd60e51b81528087018b90526016818601527514185e5b595b9d08185c1c1c9bdd994819985a5b195960521b6044820152606490fd5b611d2991508b3d8d1161051b5761050d8183612094565b3861194b565b885162461bcd60e51b81528088018c905260148187015273151bdad95b88185c1c1c9bdd994819985a5b195960621b6044820152606490fd5b611d7f91508c8d3d1061051b5761050d8183612094565b3861190c565b8a513d8f823e3d90fd5b875162461bcd60e51b81528087018b9052601b818601527f496e73756666696369656e74207061796d656e7420746f6b656e7300000000006044820152606490fd5b90508b81813d8311611dfb575b611de88183612094565b81010312611df757513861189a565b8c80fd5b503d611dde565b9091508a81813d8311611e2e575b611e1a8183612094565b81010312611e2a57519038611847565b8b80fd5b503d611e10565b6020606492519162461bcd60e51b8352820152601060248201526f105b1c9958591e4819195c1b1bde595960821b6044820152fd5b506020606492519162461bcd60e51b8352820152601260248201527115185c99d95d081b9bdd081c995858da195960721b6044820152fd5b5082346110645760203660031901126110645750610321602092356121de565b503461026457826003193601126102645780516370a0823160e01b815230928101929092526020826024817f00000000000000000000000000000000000000000000000000000000000000006001600160a01b03165afa918215610270578392610234576020838351908152f35b91849150346102b5576020938460031936011261026457611f4f612047565b6001600160a01b03908116845260098652828420805480875290855286852091929185918790818a0190845b8b82821061203157505050611f9292500387612094565b805b865181101561202857878160051b88010151825260088852848220855190611fbb82612062565b8054825260018101548a830152600281015491828882015260c086600384015493898516606085015260ff60a0908087831c1615968715608088015260a81c161515908501520154910152612014575b50600101611f94565b612021906001929761212d565b959061200b565b87868651908152f35b855484526001958601958c955093019201611f7b565b600435906001600160a01b038216820361205d57565b600080fd5b60e0810190811067ffffffffffffffff82111761207e57604052565b634e487b7160e01b600052604160045260246000fd5b90601f8019910116810190811067ffffffffffffffff82111761207e57604052565b6020808252825181830181905290939260005b8281106120eb57505060409293506000838284010152601f8019910116010190565b8181018601518482016040015285016120c9565b80548210156121175760005260206000200190600090565b634e487b7160e01b600052603260045260246000fd5b9190820180921161213a57565b634e487b7160e01b600052601160045260246000fd5b8181029291811591840414171561213a57565b811561216d570490565b634e487b7160e01b600052601260045260246000fd5b9190820391821161213a57565b1561219757565b60405162461bcd60e51b815260206004820152600e60248201526d115e18d959591cc81d185c99d95d60921b6044820152606490fd5b60ff16604d811161213a57600a0a90565b60648102908082046064148115171561213a576119f261231b61226d6123759461071b6127108092049161071b61223a84836106d67f00000000000000000000000000000000000000000000000000000000000000008c612150565b916122657f00000000000000000000000000000000000000000000000000000000000000008a612150565b049188612183565b61231560045491612315612281828561212d565b6122ae7f000000000000000000000000000000000000000000000000000000000000000080921115612190565b6119f26122b96126db565b9561230f7f000000000000000000000000000000000000000000000000000000000000000095612309877f0000000000000000000000000000000000000000000000000000000000000000612183565b9261212d565b90612150565b9061212d565b60011c9161230f61236f7f000000000000000000000000000000000000000000000000000000000000000080937f00000000000000000000000000000000000000000000000000000000000000009061279d565b916121cd565b90565b1561237f57565b60405162461bcd60e51b815260206004820152601860248201527f496e73756666696369656e742073616c6520746f6b656e7300000000000000006044820152606490fd5b9081602091031261205d5751801515810361205d5790565b6040516370a0823160e01b81523060048201526020816024817f00000000000000000000000000000000000000000000000000000000000000006001600160a01b03165afa9081156124705760009161243e575b5061243961257d565b111590565b90506020813d602011612468575b8161245960209383612094565b8101031261205d575138612430565b3d915061244c565b6040513d6000823e3d90fd5b1561248357565b60405162461bcd60e51b815260206004820152600e60248201526d14d85b194818dbdb5c1b195d195960921b6044820152606490fd5b156124c057565b60405162461bcd60e51b815260206004820152601660248201527515185c99d95d08185b1c9958591e481c995858da195960521b6044820152606490fd5b1561250557565b60405162461bcd60e51b81526020600482015260116024820152702737ba103a343290383ab931b430b9b2b960791b6044820152606490fd5b1561254557565b60405162461bcd60e51b815260206004820152601060248201526f105b1c9958591e481c995919595b595960821b6044820152606490fd5b6127107f0000000000000000000000000000000000000000000000000000000000000000810381811161213a576125d5907f000000000000000000000000000000000000000000000000000000000000000090612183565b7f00000000000000000000000000000000000000000000000000000000000000009082820292828404148215171561213a576126176123159161237594612163565b916119f27f00000000000000000000000000000000000000000000000000000000000000009161230f6126d57f0000000000000000000000000000000000000000000000000000000000000000966119f26126c86126c18a61269a818b7f000000000000000000000000000000000000000000000000000000000000000061279d565b997f000000000000000000000000000000000000000000000000000000000000000061279d565b809861212d565b60011c9161230f8a6121cd565b956121cd565b6004547f0000000000000000000000000000000000000000000000000000000000000000908181101561276357612315612375926119f27f00000000000000000000000000000000000000000000000000000000000000009361275e857f0000000000000000000000000000000000000000000000000000000000000000612183565b612150565b50507f000000000000000000000000000000000000000000000000000000000000000090565b9060ff8091169116039060ff821161213a57565b9060ff831660ff82168181146127dd57106127cd576127c2612375936127c792612789565b6121cd565b90612163565b6127c261230f9161237594612789565b505050905090565b6002600054146127f6576002600055565b604051633ee5aeb560e01b8152600490fdfea2646970667358221220e873938047abf7616f540086cfc091ea9a53381e121f2d02e6a892251dc6dbb564736f6c63430008180033a66cc928b5edb82af9bd49922954155ab7b0942694bea4ce44661d9a8736c688f652222313e28459528d920b65115c16c04f3efc82aaedc97be59f3f377c0d3f",
          "opcodes": "PUSH2 0x220 PUSH1 0x40 MSTORE CALLVALUE PUSH3 0x9CC JUMPI PUSH3 0x331A DUP1 CODESIZE SUB DUP1 SWAP2 PUSH3 0x22 DUP3 PUSH2 0x220 PUSH3 0x9D1 JUMP JUMPDEST PUSH2 0x220 CODECOPY PUSH2 0x220 ADD PUSH2 0x1A0 PUSH2 0x220 DUP3 SUB SLT PUSH3 0x9CC JUMPI PUSH2 0x220 MLOAD PUSH1 0x1 PUSH1 0x1 PUSH1 0x40 SHL SUB DUP2 GT PUSH3 0x9CC JUMPI DUP2 PUSH3 0x5B SWAP2 PUSH2 0x220 ADD PUSH3 0x9F5 JUMP JUMPDEST PUSH2 0x240 MLOAD SWAP1 SWAP2 PUSH1 0x1 PUSH1 0x1 PUSH1 0x40 SHL SUB DUP3 GT PUSH3 0x9CC JUMPI PUSH3 0x7F SWAP2 PUSH2 0x220 ADD PUSH3 0x9F5 JUMP JUMPDEST PUSH3 0x8C PUSH2 0x260 PUSH3 0xA6B JUMP JUMPDEST SWAP2 PUSH3 0x9A PUSH2 0x280 PUSH3 0xA6B JUMP JUMPDEST SWAP3 PUSH3 0xA8 PUSH2 0x2A0 PUSH3 0xA6B JUMP JUMPDEST SWAP1 PUSH3 0xB6 PUSH2 0x2C0 PUSH3 0xA6B JUMP JUMPDEST PUSH2 0x2E0 MLOAD PUSH2 0x300 MLOAD PUSH2 0x320 MLOAD PUSH2 0x340 MLOAD PUSH2 0x360 MLOAD SWAP7 SWAP1 SWAP6 SWAP2 SWAP5 SWAP3 SWAP4 SWAP3 SWAP1 PUSH3 0xE0 PUSH2 0x380 PUSH3 0xA6B JUMP JUMPDEST SWAP10 PUSH3 0xEE PUSH2 0x3A0 PUSH3 0xA6B JUMP JUMPDEST SWAP10 PUSH1 0x1 PUSH1 0x0 SSTORE DUP1 MLOAD ISZERO PUSH3 0x997 JUMPI DUP6 ISZERO ISZERO DUP1 PUSH3 0x98D JUMPI JUMPDEST DUP1 PUSH3 0x983 JUMPI JUMPDEST ISZERO PUSH3 0x94D JUMPI DUP8 ISZERO PUSH3 0x908 JUMPI PUSH1 0x64 DUP10 LT PUSH3 0x8B7 JUMPI DUP10 DUP10 ADD DUP1 DUP11 GT PUSH3 0x8A1 JUMPI PUSH2 0x1B58 LT PUSH3 0x85C JUMPI PUSH1 0x1 PUSH1 0x1 PUSH1 0xA0 SHL SUB DUP13 AND ISZERO PUSH3 0x817 JUMPI PUSH1 0x1 PUSH1 0x1 PUSH1 0xA0 SHL SUB DUP6 AND ISZERO ISZERO DUP1 PUSH3 0x804 JUMPI JUMPDEST ISZERO PUSH3 0x7BF JUMPI PUSH1 0x1 PUSH1 0x1 PUSH1 0xA0 SHL SUB DUP6 DUP2 AND SWAP1 DUP15 AND EQ PUSH3 0x77A JUMPI PUSH1 0x1 PUSH1 0x1 PUSH1 0xA0 SHL SUB DUP4 AND ISZERO ISZERO DUP1 PUSH3 0x767 JUMPI JUMPDEST ISZERO PUSH3 0x722 JUMPI DUP1 MLOAD SWAP1 PUSH1 0x1 PUSH1 0x1 PUSH1 0x40 SHL SUB DUP3 GT PUSH3 0x61A JUMPI PUSH1 0x6 SLOAD SWAP1 PUSH1 0x1 DUP3 DUP2 SHR SWAP3 AND DUP1 ISZERO PUSH3 0x717 JUMPI JUMPDEST PUSH1 0x20 DUP4 LT EQ PUSH3 0x5F9 JUMPI DUP2 PUSH1 0x1F DUP5 SWAP4 GT PUSH3 0x6B6 JUMPI JUMPDEST POP PUSH1 0x20 SWAP1 PUSH1 0x1F DUP4 GT PUSH1 0x1 EQ PUSH3 0x63C JUMPI PUSH1 0x0 SWAP3 PUSH3 0x630 JUMPI JUMPDEST POP POP DUP2 PUSH1 0x1 SHL SWAP2 PUSH1 0x0 NOT SWAP1 PUSH1 0x3 SHL SHR NOT AND OR PUSH1 0x6 SSTORE JUMPDEST DUP1 MLOAD SWAP1 PUSH1 0x1 PUSH1 0x1 PUSH1 0x40 SHL SUB DUP3 GT PUSH3 0x61A JUMPI PUSH1 0x7 SLOAD SWAP1 PUSH1 0x1 DUP3 DUP2 SHR SWAP3 AND DUP1 ISZERO PUSH3 0x60F JUMPI JUMPDEST PUSH1 0x20 DUP4 LT EQ PUSH3 0x5F9 JUMPI DUP2 PUSH1 0x1F DUP5 SWAP4 GT PUSH3 0x598 JUMPI JUMPDEST POP PUSH1 0x20 SWAP1 PUSH1 0x1F DUP4 GT PUSH1 0x1 EQ PUSH3 0x51E JUMPI PUSH1 0x0 SWAP3 PUSH3 0x512 JUMPI JUMPDEST POP POP DUP2 PUSH1 0x1 SHL SWAP2 PUSH1 0x0 NOT SWAP1 PUSH1 0x3 SHL SHR NOT AND OR PUSH1 0x7 SSTORE JUMPDEST PUSH1 0x1 PUSH1 0x1 PUSH1 0xA0 SHL SUB SWAP3 DUP4 AND PUSH1 0x80 DUP2 SWAP1 MSTORE DUP12 DUP5 AND PUSH1 0xA0 MSTORE SWAP1 DUP4 AND PUSH1 0xC0 MSTORE SWAP2 AND PUSH1 0xE0 MSTORE PUSH1 0x40 MLOAD PUSH4 0x313CE567 PUSH1 0xE0 SHL DUP1 DUP3 MSTORE SWAP1 SWAP2 PUSH1 0x20 SWAP1 DUP4 SWAP1 PUSH1 0x4 SWAP1 DUP3 SWAP1 GAS STATICCALL DUP1 ISZERO PUSH3 0x4E4 JUMPI PUSH1 0x20 SWAP3 PUSH1 0x0 SWAP2 PUSH3 0x4F0 JUMPI JUMPDEST POP PUSH2 0x1A0 MSTORE PUSH1 0x40 MLOAD SWAP1 DUP2 MSTORE SWAP9 DUP10 SWAP1 PUSH1 0x4 SWAP1 DUP3 SWAP1 PUSH1 0x1 PUSH1 0x1 PUSH1 0xA0 SHL SUB AND GAS STATICCALL SWAP8 DUP9 ISZERO PUSH3 0x4E4 JUMPI PUSH1 0x0 SWAP9 PUSH3 0x4AC JUMPI JUMPDEST POP PUSH2 0x1C0 SWAP8 DUP9 MSTORE PUSH2 0x200 SWAP6 DUP7 MSTORE PUSH2 0x100 MSTORE PUSH2 0x120 MSTORE PUSH2 0x140 MSTORE PUSH2 0x160 MSTORE PUSH2 0x180 MSTORE PUSH2 0x1E0 SWAP2 DUP3 MSTORE PUSH1 0x40 MLOAD SWAP2 PUSH2 0x283E SWAP4 DUP5 PUSH3 0xA9C DUP6 CODECOPY PUSH1 0x80 MLOAD DUP5 DUP2 DUP2 PUSH2 0x1F2 ADD MSTORE DUP2 DUP2 PUSH2 0x33D ADD MSTORE DUP2 DUP2 PUSH2 0x450 ADD MSTORE DUP2 DUP2 PUSH2 0xD50 ADD MSTORE DUP2 DUP2 PUSH2 0x180D ADD MSTORE PUSH2 0x23F7 ADD MSTORE PUSH1 0xA0 MLOAD DUP5 DUP2 DUP2 PUSH2 0x770 ADD MSTORE DUP2 DUP2 PUSH2 0x1487 ADD MSTORE DUP2 DUP2 PUSH2 0x159B ADD MSTORE DUP2 DUP2 PUSH2 0x185A ADD MSTORE PUSH2 0x1EEF ADD MSTORE PUSH1 0xC0 MLOAD DUP5 DUP2 DUP2 PUSH2 0x12AF ADD MSTORE PUSH2 0x18AF ADD MSTORE PUSH1 0xE0 MLOAD DUP5 DUP2 DUP2 PUSH2 0x11AA ADD MSTORE PUSH2 0x1AAA ADD MSTORE PUSH2 0x100 MLOAD DUP5 DUP2 DUP2 PUSH2 0x292 ADD MSTORE DUP2 DUP2 PUSH2 0x22BF ADD MSTORE DUP2 DUP2 PUSH2 0x2676 ADD MSTORE PUSH2 0x2714 ADD MSTORE PUSH2 0x120 MLOAD DUP5 DUP2 DUP2 PUSH2 0x107F ADD MSTORE DUP2 DUP2 PUSH2 0x19A2 ADD MSTORE DUP2 DUP2 PUSH2 0x22E5 ADD MSTORE DUP2 DUP2 PUSH2 0x269D ADD MSTORE DUP2 DUP2 PUSH2 0x273A ADD MSTORE PUSH2 0x2767 ADD MSTORE PUSH2 0x140 MLOAD DUP5 DUP2 DUP2 PUSH2 0x65E ADD MSTORE DUP2 DUP2 PUSH2 0x1118 ADD MSTORE DUP2 DUP2 PUSH2 0x1172 ADD MSTORE DUP2 DUP2 PUSH2 0x19CE ADD MSTORE DUP2 DUP2 PUSH2 0x2286 ADD MSTORE DUP2 DUP2 PUSH2 0x25D7 ADD MSTORE PUSH2 0x26E0 ADD MSTORE PUSH2 0x160 MLOAD DUP5 DUP2 DUP2 PUSH2 0x6B1 ADD MSTORE DUP2 DUP2 PUSH2 0x1369 ADD MSTORE DUP2 DUP2 PUSH2 0x2215 ADD MSTORE PUSH2 0x2582 ADD MSTORE PUSH2 0x180 MLOAD DUP5 DUP2 DUP2 PUSH2 0x6E2 ADD MSTORE DUP2 DUP2 PUSH2 0x10D9 ADD MSTORE DUP2 DUP2 PUSH2 0x11F9 ADD MSTORE DUP2 DUP2 PUSH2 0x17A3 ADD MSTORE DUP2 DUP2 PUSH2 0x2240 ADD MSTORE PUSH2 0x25B0 ADD MSTORE PUSH2 0x1A0 MLOAD DUP5 DUP2 DUP2 PUSH2 0x1956 ADD MSTORE DUP2 DUP2 PUSH2 0x2327 ADD MSTORE PUSH2 0x2645 ADD MSTORE MLOAD DUP4 DUP2 DUP2 PUSH2 0x1981 ADD MSTORE DUP2 DUP2 PUSH2 0x234A ADD MSTORE PUSH2 0x261D ADD MSTORE MLOAD DUP3 DUP2 DUP2 PUSH2 0x859 ADD MSTORE DUP2 DUP2 PUSH2 0xD0E ADD MSTORE DUP2 DUP2 PUSH2 0x16D7 ADD MSTORE PUSH2 0x1B9F ADD MSTORE MLOAD DUP2 DUP2 DUP2 PUSH2 0x171B ADD MSTORE PUSH2 0x1A38 ADD MSTORE RETURN JUMPDEST PUSH3 0x4D4 SWAP2 SWAP9 POP PUSH1 0x20 RETURNDATASIZE PUSH1 0x20 GT PUSH3 0x4DC JUMPI JUMPDEST PUSH3 0x4CB DUP2 DUP4 PUSH3 0x9D1 JUMP JUMPDEST DUP2 ADD SWAP1 PUSH3 0xA80 JUMP JUMPDEST SWAP7 CODESIZE PUSH3 0x2E0 JUMP JUMPDEST POP RETURNDATASIZE PUSH3 0x4BF JUMP JUMPDEST PUSH1 0x40 MLOAD RETURNDATASIZE PUSH1 0x0 DUP3 RETURNDATACOPY RETURNDATASIZE SWAP1 REVERT JUMPDEST PUSH3 0x50B SWAP2 POP DUP4 RETURNDATASIZE DUP6 GT PUSH3 0x4DC JUMPI PUSH3 0x4CB DUP2 DUP4 PUSH3 0x9D1 JUMP JUMPDEST CODESIZE PUSH3 0x2B1 JUMP JUMPDEST ADD MLOAD SWAP1 POP CODESIZE DUP1 PUSH3 0x24B JUMP JUMPDEST PUSH1 0x7 PUSH1 0x0 SWAP1 DUP2 MSTORE PUSH1 0x0 DUP1 MLOAD PUSH1 0x20 PUSH3 0x32DA DUP4 CODECOPY DUP2 MLOAD SWAP2 MSTORE SWAP4 POP PUSH1 0x1F NOT DUP6 AND SWAP1 JUMPDEST DUP2 DUP2 LT PUSH3 0x57F JUMPI POP SWAP1 DUP5 PUSH1 0x1 SWAP6 SWAP5 SWAP4 SWAP3 LT PUSH3 0x565 JUMPI JUMPDEST POP POP POP DUP2 SHL ADD PUSH1 0x7 SSTORE PUSH3 0x261 JUMP JUMPDEST ADD MLOAD PUSH1 0x0 NOT PUSH1 0xF8 DUP5 PUSH1 0x3 SHL AND SHR NOT AND SWAP1 SSTORE CODESIZE DUP1 DUP1 PUSH3 0x556 JUMP JUMPDEST SWAP3 SWAP4 PUSH1 0x20 PUSH1 0x1 DUP2 SWAP3 DUP8 DUP7 ADD MLOAD DUP2 SSTORE ADD SWAP6 ADD SWAP4 ADD PUSH3 0x53E JUMP JUMPDEST PUSH1 0x7 PUSH1 0x0 MSTORE SWAP1 SWAP2 POP PUSH1 0x0 DUP1 MLOAD PUSH1 0x20 PUSH3 0x32DA DUP4 CODECOPY DUP2 MLOAD SWAP2 MSTORE PUSH1 0x1F DUP5 ADD PUSH1 0x5 SHR DUP2 ADD PUSH1 0x20 DUP6 LT PUSH3 0x5F1 JUMPI JUMPDEST SWAP1 DUP5 SWAP4 SWAP3 SWAP2 JUMPDEST PUSH1 0x1F DUP4 ADD PUSH1 0x5 SHR DUP3 ADD DUP2 LT PUSH3 0x5E1 JUMPI POP POP PUSH3 0x232 JUMP JUMPDEST PUSH1 0x0 DUP2 SSTORE DUP6 SWAP5 POP PUSH1 0x1 ADD PUSH3 0x5C9 JUMP JUMPDEST POP DUP1 PUSH3 0x5C3 JUMP JUMPDEST PUSH4 0x4E487B71 PUSH1 0xE0 SHL PUSH1 0x0 MSTORE PUSH1 0x22 PUSH1 0x4 MSTORE PUSH1 0x24 PUSH1 0x0 REVERT JUMPDEST SWAP2 PUSH1 0x7F AND SWAP2 PUSH3 0x21C JUMP JUMPDEST PUSH4 0x4E487B71 PUSH1 0xE0 SHL PUSH1 0x0 MSTORE PUSH1 0x41 PUSH1 0x4 MSTORE PUSH1 0x24 PUSH1 0x0 REVERT JUMPDEST ADD MLOAD SWAP1 POP CODESIZE DUP1 PUSH3 0x1E1 JUMP JUMPDEST PUSH1 0x6 PUSH1 0x0 SWAP1 DUP2 MSTORE PUSH1 0x0 DUP1 MLOAD PUSH1 0x20 PUSH3 0x32FA DUP4 CODECOPY DUP2 MLOAD SWAP2 MSTORE SWAP4 POP PUSH1 0x1F NOT DUP6 AND SWAP1 JUMPDEST DUP2 DUP2 LT PUSH3 0x69D JUMPI POP SWAP1 DUP5 PUSH1 0x1 SWAP6 SWAP5 SWAP4 SWAP3 LT PUSH3 0x683 JUMPI JUMPDEST POP POP POP DUP2 SHL ADD PUSH1 0x6 SSTORE PUSH3 0x1F7 JUMP JUMPDEST ADD MLOAD PUSH1 0x0 NOT PUSH1 0xF8 DUP5 PUSH1 0x3 SHL AND SHR NOT AND SWAP1 SSTORE CODESIZE DUP1 DUP1 PUSH3 0x674 JUMP JUMPDEST SWAP3 SWAP4 PUSH1 0x20 PUSH1 0x1 DUP2 SWAP3 DUP8 DUP7 ADD MLOAD DUP2 SSTORE ADD SWAP6 ADD SWAP4 ADD PUSH3 0x65C JUMP JUMPDEST PUSH1 0x6 PUSH1 0x0 MSTORE SWAP1 SWAP2 POP PUSH1 0x0 DUP1 MLOAD PUSH1 0x20 PUSH3 0x32FA DUP4 CODECOPY DUP2 MLOAD SWAP2 MSTORE PUSH1 0x1F DUP5 ADD PUSH1 0x5 SHR DUP2 ADD PUSH1 0x20 DUP6 LT PUSH3 0x70F JUMPI JUMPDEST SWAP1 DUP5 SWAP4 SWAP3 SWAP2 JUMPDEST PUSH1 0x1F DUP4 ADD PUSH1 0x5 SHR DUP3 ADD DUP2 LT PUSH3 0x6FF JUMPI POP POP PUSH3 0x1C8 JUMP JUMPDEST PUSH1 0x0 DUP2 SSTORE DUP6 SWAP5 POP PUSH1 0x1 ADD PUSH3 0x6E7 JUMP JUMPDEST POP DUP1 PUSH3 0x6E1 JUMP JUMPDEST SWAP2 PUSH1 0x7F AND SWAP2 PUSH3 0x1B2 JUMP JUMPDEST PUSH1 0x40 MLOAD PUSH3 0x461BCD PUSH1 0xE5 SHL DUP2 MSTORE PUSH1 0x20 PUSH1 0x4 DUP3 ADD MSTORE PUSH1 0x19 PUSH1 0x24 DUP3 ADD MSTORE PUSH32 0x496E76616C696420556E69737761702061646472657373657300000000000000 PUSH1 0x44 DUP3 ADD MSTORE PUSH1 0x64 SWAP1 REVERT JUMPDEST POP PUSH1 0x1 PUSH1 0x1 PUSH1 0xA0 SHL SUB DUP5 AND ISZERO ISZERO PUSH3 0x187 JUMP JUMPDEST PUSH1 0x40 MLOAD PUSH3 0x461BCD PUSH1 0xE5 SHL DUP2 MSTORE PUSH1 0x20 PUSH1 0x4 DUP3 ADD MSTORE PUSH1 0x18 PUSH1 0x24 DUP3 ADD MSTORE PUSH32 0x546F6B656E73206D75737420626520646966666572656E740000000000000000 PUSH1 0x44 DUP3 ADD MSTORE PUSH1 0x64 SWAP1 REVERT JUMPDEST PUSH1 0x40 MLOAD PUSH3 0x461BCD PUSH1 0xE5 SHL DUP2 MSTORE PUSH1 0x20 PUSH1 0x4 DUP3 ADD MSTORE PUSH1 0x17 PUSH1 0x24 DUP3 ADD MSTORE PUSH32 0x496E76616C696420746F6B656E20616464726573736573000000000000000000 PUSH1 0x44 DUP3 ADD MSTORE PUSH1 0x64 SWAP1 REVERT JUMPDEST POP PUSH1 0x1 PUSH1 0x1 PUSH1 0xA0 SHL SUB DUP14 AND ISZERO ISZERO PUSH3 0x15A JUMP JUMPDEST PUSH1 0x40 MLOAD PUSH3 0x461BCD PUSH1 0xE5 SHL DUP2 MSTORE PUSH1 0x20 PUSH1 0x4 DUP3 ADD MSTORE PUSH1 0x17 PUSH1 0x24 DUP3 ADD MSTORE PUSH32 0x496E76616C696420666F756E646572732077616C6C6574000000000000000000 PUSH1 0x44 DUP3 ADD MSTORE PUSH1 0x64 SWAP1 REVERT JUMPDEST PUSH1 0x40 MLOAD PUSH3 0x461BCD PUSH1 0xE5 SHL DUP2 MSTORE PUSH1 0x20 PUSH1 0x4 DUP3 ADD MSTORE PUSH1 0x1A PUSH1 0x24 DUP3 ADD MSTORE PUSH32 0x436F6D62696E65642072616B6520373025206578636565646564000000000000 PUSH1 0x44 DUP3 ADD MSTORE PUSH1 0x64 SWAP1 REVERT JUMPDEST PUSH4 0x4E487B71 PUSH1 0xE0 SHL PUSH1 0x0 MSTORE PUSH1 0x11 PUSH1 0x4 MSTORE PUSH1 0x24 PUSH1 0x0 REVERT JUMPDEST PUSH1 0x40 MLOAD PUSH3 0x461BCD PUSH1 0xE5 SHL DUP2 MSTORE PUSH1 0x20 PUSH1 0x4 DUP3 ADD MSTORE PUSH1 0x24 DUP1 DUP3 ADD MSTORE PUSH32 0x557066726F6E742072616B65206D757374206265203E3D204F74746572506164 PUSH1 0x44 DUP3 ADD MSTORE PUSH4 0x20666565 PUSH1 0xE0 SHL PUSH1 0x64 DUP3 ADD MSTORE PUSH1 0x84 SWAP1 REVERT JUMPDEST PUSH1 0x40 MLOAD PUSH3 0x461BCD PUSH1 0xE5 SHL DUP2 MSTORE PUSH1 0x20 PUSH1 0x4 DUP3 ADD MSTORE PUSH1 0x16 PUSH1 0x24 DUP3 ADD MSTORE PUSH32 0x496E76616C6964207461726765742066756E64696E6700000000000000000000 PUSH1 0x44 DUP3 ADD MSTORE PUSH1 0x64 SWAP1 REVERT JUMPDEST PUSH1 0x40 MLOAD PUSH3 0x461BCD PUSH1 0xE5 SHL DUP2 MSTORE PUSH1 0x20 PUSH1 0x4 DUP3 ADD MSTORE PUSH1 0xE PUSH1 0x24 DUP3 ADD MSTORE PUSH14 0x496E76616C696420707269636573 PUSH1 0x90 SHL PUSH1 0x44 DUP3 ADD MSTORE PUSH1 0x64 SWAP1 REVERT JUMPDEST POP DUP6 DUP8 GT PUSH3 0x10D JUMP JUMPDEST POP DUP7 ISZERO ISZERO PUSH3 0x106 JUMP JUMPDEST PUSH1 0x40 MLOAD PUSH3 0x461BCD PUSH1 0xE5 SHL DUP2 MSTORE PUSH1 0x20 PUSH1 0x4 DUP3 ADD MSTORE PUSH1 0xD PUSH1 0x24 DUP3 ADD MSTORE PUSH13 0x496E76616C6964207469746C65 PUSH1 0x98 SHL PUSH1 0x44 DUP3 ADD MSTORE PUSH1 0x64 SWAP1 REVERT JUMPDEST PUSH1 0x0 DUP1 REVERT JUMPDEST PUSH1 0x1F SWAP1 SWAP2 ADD PUSH1 0x1F NOT AND DUP2 ADD SWAP1 PUSH1 0x1 PUSH1 0x1 PUSH1 0x40 SHL SUB DUP3 GT SWAP1 DUP3 LT OR PUSH3 0x61A JUMPI PUSH1 0x40 MSTORE JUMP JUMPDEST SWAP2 SWAP1 DUP1 PUSH1 0x1F DUP5 ADD SLT ISZERO PUSH3 0x9CC JUMPI DUP3 MLOAD PUSH1 0x1 PUSH1 0x1 PUSH1 0x40 SHL SUB DUP2 GT PUSH3 0x61A JUMPI PUSH1 0x20 SWAP1 PUSH1 0x40 MLOAD SWAP3 PUSH3 0xA30 DUP4 PUSH1 0x1F NOT PUSH1 0x1F DUP6 ADD AND ADD DUP6 PUSH3 0x9D1 JUMP JUMPDEST DUP2 DUP5 MSTORE DUP3 DUP3 DUP8 ADD ADD GT PUSH3 0x9CC JUMPI PUSH1 0x0 JUMPDEST DUP2 DUP2 LT PUSH3 0xA57 JUMPI POP DUP3 PUSH1 0x0 SWAP4 SWAP5 SWAP6 POP ADD ADD MSTORE SWAP1 JUMP JUMPDEST DUP6 DUP2 ADD DUP4 ADD MLOAD DUP5 DUP3 ADD DUP5 ADD MSTORE DUP3 ADD PUSH3 0xA41 JUMP JUMPDEST MLOAD SWAP1 PUSH1 0x1 PUSH1 0x1 PUSH1 0xA0 SHL SUB DUP3 AND DUP3 SUB PUSH3 0x9CC JUMPI JUMP JUMPDEST SWAP1 DUP2 PUSH1 0x20 SWAP2 SUB SLT PUSH3 0x9CC JUMPI MLOAD PUSH1 0xFF DUP2 AND DUP2 SUB PUSH3 0x9CC JUMPI SWAP1 JUMP INVALID PUSH1 0x80 PUSH1 0x40 DUP2 DUP2 MSTORE PUSH1 0x4 SWAP1 DUP2 CALLDATASIZE LT ISZERO PUSH2 0x16 JUMPI PUSH1 0x0 DUP1 REVERT JUMPDEST PUSH1 0x0 SWAP3 DUP4 CALLDATALOAD PUSH1 0xE0 SHR SWAP1 DUP2 PUSH4 0xE022923 EQ PUSH2 0x1F30 JUMPI POP DUP1 PUSH4 0xF8C2798 EQ PUSH2 0x1EC2 JUMPI DUP1 PUSH4 0x10D0FFDD EQ PUSH2 0x1EA2 JUMPI DUP1 PUSH4 0x12EFF12C EQ PUSH2 0x1770 JUMPI DUP1 PUSH4 0x16C04948 EQ PUSH2 0x174A JUMPI DUP1 PUSH4 0x16C94B38 EQ PUSH2 0x1706 JUMPI DUP1 PUSH4 0x1BFAF155 EQ PUSH2 0x16C2 JUMPI DUP1 PUSH4 0x25F97FB9 EQ PUSH2 0x169E JUMPI DUP1 PUSH4 0x278ECDE1 EQ PUSH2 0x14B6 JUMPI DUP1 PUSH4 0x3013CE29 EQ PUSH2 0x1472 JUMPI DUP1 PUSH4 0x3BDE5BA8 EQ PUSH2 0x144B JUMPI DUP1 PUSH4 0x4A79D50C EQ PUSH2 0x138C JUMPI DUP1 PUSH4 0x560B842C EQ PUSH2 0x1351 JUMPI DUP1 PUSH4 0x5A59C551 EQ PUSH2 0x12FB JUMPI DUP1 PUSH4 0x5F655EA7 EQ PUSH2 0x12DE JUMPI DUP1 PUSH4 0x735DE9F7 EQ PUSH2 0x129A JUMPI DUP1 PUSH4 0x8392FE31 EQ PUSH2 0x1226 JUMPI DUP1 PUSH4 0x8A19ECEF EQ PUSH2 0x11D9 JUMPI DUP1 PUSH4 0x8BDB2AFA EQ PUSH2 0x1195 JUMPI DUP1 PUSH4 0x92258EC8 EQ PUSH2 0x115A JUMPI DUP1 PUSH4 0x9513A0FD EQ PUSH2 0x113C JUMPI DUP1 PUSH4 0xAF5B065A EQ PUSH2 0x10FC JUMPI DUP1 PUSH4 0xB704A0C4 EQ PUSH2 0x10C1 JUMPI DUP1 PUSH4 0xB789BF52 EQ PUSH2 0x10A2 JUMPI DUP1 PUSH4 0xB868723E EQ PUSH2 0x1067 JUMPI DUP1 PUSH4 0xBEF08860 EQ PUSH2 0xFB7 JUMPI DUP1 PUSH4 0xC07F773A EQ PUSH2 0xF98 JUMPI DUP1 PUSH4 0xC596F3FE EQ PUSH2 0xCE6 JUMPI DUP1 PUSH4 0xC7C8B437 EQ PUSH2 0xBE3 JUMPI DUP1 PUSH4 0xD96A094A EQ PUSH2 0x61D JUMPI DUP1 PUSH4 0xDB006A75 EQ PUSH2 0x38B JUMPI DUP1 PUSH4 0xDE7E3310 EQ PUSH2 0x36C JUMPI DUP1 PUSH4 0xE985E367 EQ PUSH2 0x328 JUMPI DUP1 PUSH4 0xEB91D37E EQ PUSH2 0x304 JUMPI DUP1 PUSH4 0xEDAFC9AF EQ PUSH2 0x2D5 JUMPI DUP1 PUSH4 0xEF5EE995 EQ PUSH2 0x2B9 JUMPI DUP1 PUSH4 0xF1A9AF89 EQ PUSH2 0x27A JUMPI PUSH4 0xF6A55A29 EQ PUSH2 0x1C6 JUMPI PUSH1 0x0 DUP1 REVERT JUMPDEST CALLVALUE PUSH2 0x264 JUMPI DUP3 PUSH1 0x3 NOT CALLDATASIZE ADD SLT PUSH2 0x264 JUMPI DUP1 MLOAD PUSH4 0x70A08231 PUSH1 0xE0 SHL DUP2 MSTORE ADDRESS SWAP3 DUP2 ADD SWAP3 SWAP1 SWAP3 MSTORE PUSH1 0x20 DUP3 PUSH1 0x24 DUP2 PUSH32 0x0 PUSH1 0x1 PUSH1 0x1 PUSH1 0xA0 SHL SUB AND GAS STATICCALL SWAP2 DUP3 ISZERO PUSH2 0x270 JUMPI DUP4 SWAP3 PUSH2 0x234 JUMPI JUMPDEST PUSH1 0x20 DUP4 DUP4 MLOAD SWAP1 DUP2 MSTORE RETURN JUMPDEST SWAP1 SWAP2 POP PUSH1 0x20 DUP2 RETURNDATASIZE PUSH1 0x20 GT PUSH2 0x268 JUMPI JUMPDEST DUP2 PUSH2 0x250 PUSH1 0x20 SWAP4 DUP4 PUSH2 0x2094 JUMP JUMPDEST DUP2 ADD SUB SLT PUSH2 0x264 JUMPI PUSH1 0x20 SWAP3 POP MLOAD SWAP1 CODESIZE PUSH2 0x22A JUMP JUMPDEST DUP3 DUP1 REVERT JUMPDEST RETURNDATASIZE SWAP2 POP PUSH2 0x243 JUMP JUMPDEST DUP2 MLOAD RETURNDATASIZE DUP6 DUP3 RETURNDATACOPY RETURNDATASIZE SWAP1 REVERT JUMPDEST DUP4 DUP3 CALLVALUE PUSH2 0x2B5 JUMPI DUP2 PUSH1 0x3 NOT CALLDATASIZE ADD SLT PUSH2 0x2B5 JUMPI PUSH1 0x20 SWAP1 MLOAD PUSH32 0x0 DUP2 MSTORE RETURN JUMPDEST POP DUP1 REVERT JUMPDEST DUP4 DUP3 CALLVALUE PUSH2 0x2B5 JUMPI DUP2 PUSH1 0x3 NOT CALLDATASIZE ADD SLT PUSH2 0x2B5 JUMPI PUSH1 0x20 SWAP1 MLOAD PUSH1 0x64 DUP2 MSTORE RETURN JUMPDEST DUP4 DUP3 CALLVALUE PUSH2 0x2B5 JUMPI DUP2 PUSH1 0x3 NOT CALLDATASIZE ADD SLT PUSH2 0x2B5 JUMPI PUSH1 0x20 SWAP1 MLOAD PUSH20 0x6C83E86E05697C995D718C1CFA3F9045A38C7CD4 DUP2 MSTORE RETURN JUMPDEST DUP4 DUP3 CALLVALUE PUSH2 0x2B5 JUMPI DUP2 PUSH1 0x3 NOT CALLDATASIZE ADD SLT PUSH2 0x2B5 JUMPI PUSH1 0x20 SWAP1 PUSH2 0x321 PUSH2 0x26DB JUMP JUMPDEST SWAP1 MLOAD SWAP1 DUP2 MSTORE RETURN JUMPDEST DUP4 DUP3 CALLVALUE PUSH2 0x2B5 JUMPI DUP2 PUSH1 0x3 NOT CALLDATASIZE ADD SLT PUSH2 0x2B5 JUMPI MLOAD PUSH32 0x0 PUSH1 0x1 PUSH1 0x1 PUSH1 0xA0 SHL SUB AND DUP2 MSTORE PUSH1 0x20 SWAP1 RETURN JUMPDEST DUP4 DUP3 CALLVALUE PUSH2 0x2B5 JUMPI DUP2 PUSH1 0x3 NOT CALLDATASIZE ADD SLT PUSH2 0x2B5 JUMPI PUSH1 0x20 SWAP1 PUSH1 0x5 SLOAD SWAP1 MLOAD SWAP1 DUP2 MSTORE RETURN JUMPDEST POP CALLVALUE PUSH2 0x264 JUMPI PUSH1 0x20 DUP1 PUSH1 0x3 NOT CALLDATASIZE ADD SLT PUSH2 0x619 JUMPI DUP3 CALLDATALOAD SWAP3 PUSH2 0x3A9 PUSH2 0x27E5 JUMP JUMPDEST PUSH1 0x2 SLOAD PUSH1 0xFF DUP2 PUSH1 0x8 SHR AND ISZERO PUSH2 0x5DE JUMPI PUSH1 0xFF AND ISZERO PUSH2 0x59D JUMPI DUP4 DUP6 MSTORE PUSH1 0x8 DUP3 MSTORE DUP3 DUP6 KECCAK256 PUSH1 0x3 DUP2 ADD DUP1 SLOAD SWAP1 SWAP3 SWAP2 PUSH1 0x1 PUSH1 0x1 PUSH1 0xA0 SHL SUB SWAP2 SWAP1 PUSH2 0x3EA DUP4 DUP4 AND CALLER EQ PUSH2 0x24FE JUMP JUMPDEST PUSH1 0xFF DUP3 PUSH1 0xA0 SHR AND PUSH2 0x565 JUMPI PUSH1 0x2 SWAP1 PUSH2 0x408 PUSH1 0xFF DUP5 PUSH1 0xA8 SHR AND ISZERO PUSH2 0x253E JUMP JUMPDEST ADD SWAP4 DUP5 SLOAD SWAP2 DUP3 ISZERO PUSH2 0x52C JUMPI PUSH1 0xFF PUSH1 0xA8 SHL NOT AND PUSH1 0x1 PUSH1 0xA8 SHL OR SWAP1 SSTORE DUP6 MLOAD PUSH4 0xA9059CBB PUSH1 0xE0 SHL DUP2 MSTORE CALLER DUP5 DUP3 ADD SWAP1 DUP2 MSTORE PUSH1 0x20 DUP2 ADD SWAP3 SWAP1 SWAP3 MSTORE SWAP2 DUP6 SWAP2 DUP4 SWAP2 SWAP1 DUP3 SWAP1 DUP12 SWAP1 DUP3 SWAP1 PUSH1 0x40 ADD SUB SWAP3 PUSH32 0x0 AND GAS CALL SWAP1 DUP2 ISZERO PUSH2 0x522 JUMPI DUP8 SWAP2 PUSH2 0x4F5 JUMPI JUMPDEST POP ISZERO PUSH2 0x4BA JUMPI POP SWAP1 PUSH32 0xD171FB179B26C49E23FE46EDDD44D3048A1AD277B62144AC0725FBCF1DBF6D52 SWAP2 SLOAD SWAP3 MLOAD SWAP3 DUP4 MSTORE CALLER SWAP3 LOG3 PUSH1 0x1 DUP2 SSTORE DUP1 RETURN JUMPDEST DUP4 MLOAD PUSH3 0x461BCD PUSH1 0xE5 SHL DUP2 MSTORE SWAP1 DUP2 ADD DUP4 SWAP1 MSTORE PUSH1 0x15 PUSH1 0x24 DUP3 ADD MSTORE PUSH21 0x151BDAD95B881D1C985B9CD9995C8819985A5B1959 PUSH1 0x5A SHL PUSH1 0x44 DUP3 ADD MSTORE PUSH1 0x64 SWAP1 REVERT JUMPDEST PUSH2 0x515 SWAP2 POP DUP5 RETURNDATASIZE DUP7 GT PUSH2 0x51B JUMPI JUMPDEST PUSH2 0x50D DUP2 DUP4 PUSH2 0x2094 JUMP JUMPDEST DUP2 ADD SWAP1 PUSH2 0x23C4 JUMP JUMPDEST CODESIZE PUSH2 0x480 JUMP JUMPDEST POP RETURNDATASIZE PUSH2 0x503 JUMP JUMPDEST DUP6 MLOAD RETURNDATASIZE DUP10 DUP3 RETURNDATACOPY RETURNDATASIZE SWAP1 REVERT JUMPDEST DUP8 MLOAD PUSH3 0x461BCD PUSH1 0xE5 SHL DUP2 MSTORE DUP1 DUP7 ADD DUP9 SWAP1 MSTORE PUSH1 0x13 PUSH1 0x24 DUP3 ADD MSTORE PUSH19 0x4E6F20746F6B656E7320746F2072656465656D PUSH1 0x68 SHL PUSH1 0x44 DUP3 ADD MSTORE PUSH1 0x64 SWAP1 REVERT JUMPDEST DUP7 MLOAD PUSH3 0x461BCD PUSH1 0xE5 SHL DUP2 MSTORE DUP1 DUP6 ADD DUP8 SWAP1 MSTORE PUSH1 0x12 PUSH1 0x24 DUP3 ADD MSTORE PUSH18 0x13DC99195C881DD85CC81C99599D5B991959 PUSH1 0x72 SHL PUSH1 0x44 DUP3 ADD MSTORE PUSH1 0x64 SWAP1 REVERT JUMPDEST SWAP2 MLOAD PUSH3 0x461BCD PUSH1 0xE5 SHL DUP2 MSTORE SWAP2 DUP3 ADD MSTORE PUSH1 0x17 PUSH1 0x24 DUP3 ADD MSTORE PUSH32 0x4E6F7420796574206465706C6F79656420746F20444558000000000000000000 PUSH1 0x44 DUP3 ADD MSTORE PUSH1 0x64 SWAP1 REVERT JUMPDEST POP SWAP2 MLOAD PUSH3 0x461BCD PUSH1 0xE5 SHL DUP2 MSTORE SWAP2 DUP3 ADD MSTORE PUSH1 0x16 PUSH1 0x24 DUP3 ADD MSTORE PUSH22 0x15185C99D95D081B9BDD081C995858DA1959081E595D PUSH1 0x52 SHL PUSH1 0x44 DUP3 ADD MSTORE PUSH1 0x64 SWAP1 REVERT JUMPDEST DUP4 DUP1 REVERT JUMPDEST POP DUP3 SWAP1 CALLVALUE PUSH2 0x2B5 JUMPI PUSH1 0x20 SWAP1 DUP2 PUSH1 0x3 NOT CALLDATASIZE ADD SLT PUSH2 0x264 JUMPI DUP4 CALLDATALOAD SWAP2 PUSH2 0x63E PUSH2 0x27E5 JUMP JUMPDEST PUSH2 0x65C PUSH1 0xFF PUSH1 0x2 SLOAD PUSH2 0x652 DUP3 DUP3 AND ISZERO PUSH2 0x247C JUMP JUMPDEST PUSH1 0x8 SHR AND ISZERO PUSH2 0x24B9 JUMP JUMPDEST PUSH32 0x0 SWAP3 PUSH3 0xF4240 DUP5 DIV DUP2 LT PUSH2 0xBA7 JUMPI PUSH1 0x64 DUP1 DUP3 MUL SWAP2 DUP1 DUP4 DIV DUP3 EQ DUP2 ISZERO OR ISZERO PUSH2 0xB94 JUMPI SWAP1 DUP7 SWAP8 SWAP2 PUSH2 0x2710 DUP1 SWAP5 DIV PUSH2 0x6DC DUP2 DUP7 PUSH2 0x6D6 PUSH32 0x0 DUP7 PUSH2 0x2150 JUMP JUMPDEST DIV PUSH2 0x2183 JUMP JUMPDEST SWAP5 PUSH2 0x707 PUSH32 0x0 DUP5 PUSH2 0x2150 JUMP JUMPDEST DIV SWAP3 PUSH2 0x720 DUP5 PUSH2 0x71B DUP9 PUSH2 0x71B DUP7 DUP9 PUSH2 0x2183 JUMP JUMPDEST PUSH2 0x2183 JUMP JUMPDEST SWAP6 PUSH2 0x737 DUP11 PUSH2 0x730 DUP10 DUP10 SLOAD PUSH2 0x212D JUMP JUMPDEST GT ISZERO PUSH2 0x2190 JUMP JUMPDEST PUSH2 0x740 DUP5 PUSH2 0x21DE JUMP JUMPDEST DUP10 MLOAD PUSH4 0x23B872DD PUSH1 0xE0 SHL DUP2 MSTORE CALLER DUP9 DUP3 ADD MSTORE ADDRESS PUSH1 0x24 DUP1 DUP4 ADD SWAP2 SWAP1 SWAP2 MSTORE PUSH1 0x44 DUP3 ADD DUP8 SWAP1 MSTORE SWAP13 SWAP2 SWAP7 PUSH1 0x1 PUSH1 0x1 PUSH1 0xA0 SHL SUB SWAP6 PUSH32 0x0 DUP8 AND SWAP4 SWAP1 SWAP3 DUP13 DUP2 DUP9 DUP2 DUP6 DUP10 GAS CALL SWAP2 DUP3 ISZERO PUSH2 0xB89 JUMPI SWAP2 PUSH2 0xB6C JUMPI JUMPDEST POP ISZERO PUSH2 0xB2A JUMPI DUP12 MLOAD DUP8 DUP2 MSTORE PUSH1 0x20 DUP2 ADD DUP4 SWAP1 MSTORE PUSH1 0x40 DUP2 ADD DUP6 SWAP1 MSTORE PUSH1 0x60 DUP2 ADD SWAP2 SWAP1 SWAP2 MSTORE PUSH1 0x80 DUP2 ADD DUP11 SWAP1 MSTORE DUP14 SWAP2 DUP16 SWAP2 CALLER SWAP1 PUSH32 0xBEFB6E85B11F40EE4D9E3E8BB0BEDBC3D1EEE123B1328C0EA0A4B842CBFFF749 SWAP1 PUSH1 0xA0 SWAP1 LOG2 DUP13 MLOAD SWAP1 PUSH4 0xA9059CBB PUSH1 0xE0 SHL SWAP4 DUP5 DUP4 MSTORE PUSH20 0x6C83E86E05697C995D718C1CFA3F9045A38C7CD4 DUP13 DUP5 ADD MSTORE DUP3 ADD MSTORE DUP12 DUP2 PUSH1 0x44 DUP2 DUP6 DUP9 GAS CALL SWAP2 DUP3 ISZERO PUSH2 0xB1F JUMPI SWAP2 PUSH2 0xB02 JUMPI JUMPDEST POP ISZERO PUSH2 0xACB JUMPI SWAP2 DUP10 SWAP2 PUSH2 0x895 SWAP4 DUP16 DUP14 MLOAD DUP1 SWAP7 DUP2 SWAP6 DUP3 SWAP5 DUP4 MSTORE DUP14 PUSH32 0x0 SWAP1 DUP5 ADD PUSH1 0x20 SWAP1 SWAP4 SWAP3 SWAP2 SWAP4 PUSH1 0x40 DUP2 ADD SWAP5 PUSH1 0x1 DUP1 PUSH1 0xA0 SHL SUB AND DUP2 MSTORE ADD MSTORE JUMP JUMPDEST SUB SWAP3 GAS CALL SWAP1 DUP2 ISZERO PUSH2 0xAC1 JUMPI DUP13 SWAP2 PUSH2 0xAA4 JUMPI JUMPDEST POP ISZERO PUSH2 0xA65 JUMPI POP PUSH1 0x1 SWAP9 DUP10 SLOAD SWAP7 PUSH1 0x0 NOT SWAP3 DUP4 DUP10 EQ PUSH2 0xA53 JUMPI SWAP1 DUP12 DUP8 DUP11 DUP16 DUP14 DUP13 SWAP2 PUSH1 0x9 SWAP8 DUP7 DUP6 ADD DUP8 SSTORE DUP13 DUP4 MLOAD SWAP8 PUSH2 0x8DC DUP10 PUSH2 0x2062 JUMP JUMPDEST DUP14 DUP10 MSTORE DUP10 DUP10 ADD SWAP6 DUP7 MSTORE DUP5 DUP10 ADD SWAP2 DUP3 MSTORE PUSH1 0x60 DUP10 ADD SWAP6 CALLER DUP8 MSTORE PUSH1 0x80 DUP11 ADD SWAP6 DUP6 DUP8 MSTORE PUSH1 0xA0 DUP12 ADD SWAP6 DUP1 DUP8 MSTORE PUSH1 0xC0 DUP13 ADD SWAP10 NUMBER DUP12 MSTORE DUP2 MSTORE PUSH1 0x8 DUP14 MSTORE KECCAK256 SWAP10 MLOAD DUP11 SSTORE MLOAD SWAP1 DUP10 ADD SSTORE MLOAD PUSH1 0x2 DUP9 ADD SSTORE PUSH1 0x3 DUP8 ADD SWAP4 MLOAD AND DUP4 SLOAD SWAP3 PUSH1 0xFF PUSH1 0xA0 SHL SWAP1 MLOAD ISZERO ISZERO PUSH1 0xA0 SHL AND SWAP2 PUSH1 0xFF PUSH1 0xA8 SHL SWAP1 MLOAD ISZERO ISZERO PUSH1 0xA8 SHL AND SWAP3 PUSH10 0xFFFFFFFFFFFFFFFFFFFF PUSH1 0xB0 SHL AND OR OR OR SWAP1 SSTORE MLOAD SWAP2 ADD SSTORE CALLER DUP14 MSTORE MSTORE DUP8 DUP12 KECCAK256 DUP1 SLOAD SWAP2 PUSH9 0x10000000000000000 DUP4 LT ISZERO PUSH2 0xA42 JUMPI POP SWAP2 PUSH2 0x9B2 DUP3 PUSH2 0xA20 SWAP5 DUP14 PUSH32 0xB176B33AD40225C8F67DC6EF0CBA96C0C88F67AFD36396E2198A3F48A44FC7A0 SWAP10 SWAP9 SWAP8 SWAP6 ADD DUP2 SSTORE PUSH2 0x20FF JUMP JUMPDEST DUP2 SWAP3 SWAP2 SLOAD SWAP1 PUSH1 0x3 SHL SWAP2 DUP11 DUP4 SHL SWAP3 SHL NOT AND OR SWAP1 SSTORE PUSH2 0x9D1 DUP4 PUSH1 0x3 SLOAD PUSH2 0x212D JUMP JUMPDEST PUSH1 0x3 SSTORE PUSH2 0x9DF DUP7 DUP6 SLOAD PUSH2 0x212D JUMP JUMPDEST SWAP8 DUP9 DUP1 SWAP6 SSTORE PUSH2 0x9F0 DUP3 PUSH1 0x5 SLOAD PUSH2 0x212D JUMP JUMPDEST PUSH1 0x5 SSTORE MLOAD SWAP4 DUP5 SWAP4 CALLER SWAP8 TIMESTAMP SWAP4 DUP7 SWAP2 SWAP3 PUSH1 0x80 SWAP4 SWAP7 SWAP6 SWAP5 SWAP2 SWAP7 PUSH1 0xA0 DUP5 ADD SWAP8 DUP5 MSTORE PUSH1 0x20 DUP5 ADD MSTORE PUSH1 0x40 DUP4 ADD MSTORE PUSH1 0x60 DUP3 ADD MSTORE ADD MSTORE JUMP JUMPDEST SUB SWAP1 LOG3 LT ISZERO PUSH2 0xA2E JUMPI DUP2 SSTORE DUP1 RETURN JUMPDEST PUSH2 0x100 PUSH2 0xFF00 NOT PUSH1 0x2 SLOAD AND OR PUSH1 0x2 SSTORE DUP2 SSTORE DUP1 RETURN JUMPDEST PUSH4 0x4E487B71 PUSH1 0xE0 SHL DUP14 MSTORE PUSH1 0x41 DUP8 MSTORE DUP13 REVERT JUMPDEST PUSH4 0x4E487B71 PUSH1 0xE0 SHL DUP14 MSTORE PUSH1 0x11 DUP8 MSTORE DUP3 DUP14 REVERT JUMPDEST DUP8 MLOAD PUSH3 0x461BCD PUSH1 0xE5 SHL DUP2 MSTORE DUP1 DUP7 ADD DUP9 SWAP1 MSTORE PUSH1 0x17 DUP2 DUP13 ADD MSTORE PUSH32 0x557066726F6E74207472616E73666572206661696C6564000000000000000000 PUSH1 0x44 DUP3 ADD MSTORE REVERT JUMPDEST PUSH2 0xABB SWAP2 POP DUP9 RETURNDATASIZE DUP11 GT PUSH2 0x51B JUMPI PUSH2 0x50D DUP2 DUP4 PUSH2 0x2094 JUMP JUMPDEST DUP13 PUSH2 0x8A7 JUMP JUMPDEST DUP10 MLOAD RETURNDATASIZE DUP15 DUP3 RETURNDATACOPY RETURNDATASIZE SWAP1 REVERT JUMPDEST DUP11 MLOAD PUSH3 0x461BCD PUSH1 0xE5 SHL DUP2 MSTORE DUP1 DUP10 ADD DUP12 SWAP1 MSTORE PUSH1 0x13 DUP2 DUP16 ADD MSTORE PUSH19 0x119959481D1C985B9CD9995C8819985A5B1959 PUSH1 0x6A SHL PUSH1 0x44 DUP3 ADD MSTORE DUP5 SWAP1 REVERT JUMPDEST PUSH2 0xB19 SWAP2 POP DUP12 RETURNDATASIZE DUP14 GT PUSH2 0x51B JUMPI PUSH2 0x50D DUP2 DUP4 PUSH2 0x2094 JUMP JUMPDEST DUP16 PUSH2 0x83E JUMP JUMPDEST DUP14 MLOAD SWAP1 RETURNDATASIZE SWAP1 DUP3 RETURNDATACOPY RETURNDATASIZE SWAP1 REVERT JUMPDEST POP DUP11 MLOAD PUSH3 0x461BCD PUSH1 0xE5 SHL DUP2 MSTORE DUP1 DUP10 ADD DUP12 SWAP1 MSTORE PUSH1 0x17 DUP2 DUP16 ADD MSTORE PUSH32 0x5061796D656E74207472616E73666572206661696C6564000000000000000000 PUSH1 0x44 DUP3 ADD MSTORE DUP5 SWAP1 REVERT JUMPDEST PUSH2 0xB83 SWAP2 POP DUP13 DUP14 RETURNDATASIZE LT PUSH2 0x51B JUMPI PUSH2 0x50D DUP2 DUP4 PUSH2 0x2094 JUMP JUMPDEST CODESIZE PUSH2 0x7A9 JUMP JUMPDEST DUP15 MLOAD SWAP1 RETURNDATASIZE SWAP1 DUP3 RETURNDATACOPY RETURNDATASIZE SWAP1 REVERT JUMPDEST PUSH4 0x4E487B71 PUSH1 0xE0 SHL DUP8 MSTORE PUSH1 0x11 DUP9 MSTORE PUSH1 0x24 DUP8 REVERT JUMPDEST DUP3 MLOAD PUSH3 0x461BCD PUSH1 0xE5 SHL DUP2 MSTORE DUP1 DUP8 ADD DUP4 SWAP1 MSTORE PUSH1 0x16 PUSH1 0x24 DUP3 ADD MSTORE PUSH22 0x42656C6F77206D696E696D756D207075726368617365 PUSH1 0x50 SHL PUSH1 0x44 DUP3 ADD MSTORE PUSH1 0x64 SWAP1 REVERT JUMPDEST POP CALLVALUE PUSH2 0x264 JUMPI DUP3 PUSH1 0x3 NOT CALLDATASIZE ADD SLT PUSH2 0x264 JUMPI DUP1 MLOAD SWAP2 DUP4 PUSH1 0x7 SLOAD SWAP1 PUSH1 0x1 SWAP1 DUP3 PUSH1 0x1 SHR SWAP3 PUSH1 0x1 DUP2 AND DUP1 ISZERO PUSH2 0xCDC JUMPI JUMPDEST PUSH1 0x20 SWAP6 DUP7 DUP7 LT DUP3 EQ PUSH2 0xCC9 JUMPI POP DUP5 DUP9 MSTORE SWAP1 DUP2 ISZERO PUSH2 0xCA7 JUMPI POP PUSH1 0x1 EQ PUSH2 0xC4E JUMPI JUMPDEST PUSH2 0xC4A DUP7 DUP7 PUSH2 0xC40 DUP3 DUP12 SUB DUP4 PUSH2 0x2094 JUMP JUMPDEST MLOAD SWAP2 DUP3 SWAP2 DUP3 PUSH2 0x20B6 JUMP JUMPDEST SUB SWAP1 RETURN JUMPDEST SWAP3 SWAP6 POP PUSH1 0x7 DUP4 MSTORE PUSH32 0xA66CC928B5EDB82AF9BD49922954155AB7B0942694BEA4CE44661D9A8736C688 JUMPDEST DUP3 DUP5 LT PUSH2 0xC94 JUMPI POP POP POP DUP3 PUSH2 0xC4A SWAP5 PUSH2 0xC40 SWAP3 DUP3 ADD ADD SWAP5 CODESIZE PUSH2 0xC2F JUMP JUMPDEST DUP1 SLOAD DUP7 DUP6 ADD DUP9 ADD MSTORE SWAP3 DUP7 ADD SWAP3 DUP2 ADD PUSH2 0xC77 JUMP JUMPDEST PUSH1 0xFF NOT AND DUP8 DUP7 ADD MSTORE POP POP POP ISZERO ISZERO PUSH1 0x5 SHL DUP4 ADD ADD SWAP3 POP PUSH2 0xC40 DUP3 PUSH2 0xC4A CODESIZE PUSH2 0xC2F JUMP JUMPDEST PUSH4 0x4E487B71 PUSH1 0xE0 SHL DUP5 MSTORE PUSH1 0x22 SWAP1 MSTORE PUSH1 0x24 DUP4 REVERT JUMPDEST SWAP4 PUSH1 0x7F AND SWAP4 PUSH2 0xC0F JUMP JUMPDEST POP CALLVALUE PUSH2 0x264 JUMPI DUP1 PUSH1 0x3 NOT CALLDATASIZE ADD SLT PUSH2 0x264 JUMPI PUSH2 0xCFF PUSH2 0x2047 JUMP JUMPDEST PUSH1 0x24 SWAP2 DUP3 CALLDATALOAD PUSH2 0xD0C PUSH2 0x27E5 JUMP JUMPDEST PUSH32 0x0 SWAP3 PUSH1 0x1 PUSH1 0x1 PUSH1 0xA0 SHL SUB SWAP1 DUP2 DUP6 AND CALLER SUB PUSH2 0xF56 JUMPI PUSH1 0xFF PUSH1 0x2 SLOAD AND ISZERO PUSH2 0xF14 JUMPI DUP2 AND SWAP1 PUSH32 0x0 AND DUP2 EQ PUSH2 0xED2 JUMPI DUP3 MLOAD PUSH4 0x70A08231 PUSH1 0xE0 SHL DUP2 MSTORE ADDRESS DUP8 DUP3 ADD MSTORE PUSH1 0x20 SWAP5 SWAP1 DUP6 DUP2 DUP9 DUP2 DUP7 GAS STATICCALL SWAP1 DUP2 ISZERO PUSH2 0xEC8 JUMPI SWAP1 DUP5 SWAP2 DUP11 SWAP2 PUSH2 0xE93 JUMPI JUMPDEST POP LT PUSH2 0xE5A JUMPI DUP4 MLOAD PUSH4 0xA9059CBB PUSH1 0xE0 SHL DUP2 MSTORE PUSH1 0x1 PUSH1 0x1 PUSH1 0xA0 SHL SUB SWAP1 SWAP2 AND DUP8 DUP3 ADD SWAP1 DUP2 MSTORE PUSH1 0x20 DUP2 ADD SWAP4 SWAP1 SWAP4 MSTORE SWAP2 DUP5 SWAP2 DUP4 SWAP2 DUP3 SWAP1 DUP11 SWAP1 DUP3 SWAP1 PUSH1 0x40 ADD SUB SWAP3 GAS CALL SWAP1 DUP2 ISZERO PUSH2 0xE50 JUMPI DUP7 SWAP2 PUSH2 0xE33 JUMPI JUMPDEST POP ISZERO PUSH2 0xDFC JUMPI DUP5 PUSH1 0x1 DUP2 SSTORE DUP1 RETURN JUMPDEST MLOAD PUSH3 0x461BCD PUSH1 0xE5 SHL DUP2 MSTORE SWAP3 DUP4 ADD MSTORE PUSH1 0x15 SWAP1 DUP3 ADD MSTORE PUSH21 0x151BDAD95B881C9958DBDD995C9E4819985A5B1959 PUSH1 0x5A SHL PUSH1 0x44 DUP3 ADD MSTORE PUSH1 0x64 SWAP1 REVERT JUMPDEST PUSH2 0xE4A SWAP2 POP DUP4 RETURNDATASIZE DUP6 GT PUSH2 0x51B JUMPI PUSH2 0x50D DUP2 DUP4 PUSH2 0x2094 JUMP JUMPDEST CODESIZE PUSH2 0xDEE JUMP JUMPDEST DUP3 MLOAD RETURNDATASIZE DUP9 DUP3 RETURNDATACOPY RETURNDATASIZE SWAP1 REVERT JUMPDEST DUP4 MLOAD PUSH3 0x461BCD PUSH1 0xE5 SHL DUP2 MSTORE DUP1 DUP9 ADD DUP7 SWAP1 MSTORE PUSH1 0x14 DUP2 DUP9 ADD MSTORE PUSH20 0x496E73756666696369656E742062616C616E6365 PUSH1 0x60 SHL PUSH1 0x44 DUP3 ADD MSTORE PUSH1 0x64 SWAP1 REVERT JUMPDEST DUP1 SWAP3 POP DUP8 DUP1 SWAP3 POP RETURNDATASIZE DUP4 GT PUSH2 0xEC1 JUMPI JUMPDEST PUSH2 0xEAC DUP2 DUP4 PUSH2 0x2094 JUMP JUMPDEST DUP2 ADD SUB SLT PUSH2 0xEBD JUMPI DUP4 SWAP1 MLOAD CODESIZE PUSH2 0xDA3 JUMP JUMPDEST DUP9 DUP1 REVERT JUMPDEST POP RETURNDATASIZE PUSH2 0xEA2 JUMP JUMPDEST DUP6 MLOAD RETURNDATASIZE DUP12 DUP3 RETURNDATACOPY RETURNDATASIZE SWAP1 REVERT JUMPDEST DUP3 MLOAD PUSH3 0x461BCD PUSH1 0xE5 SHL DUP2 MSTORE PUSH1 0x20 DUP2 DUP9 ADD MSTORE PUSH1 0x19 DUP2 DUP8 ADD MSTORE PUSH32 0x43616E6E6F74207265636F7665722073616C6520746F6B656E00000000000000 PUSH1 0x44 DUP3 ADD MSTORE PUSH1 0x64 SWAP1 REVERT JUMPDEST DUP4 MLOAD PUSH3 0x461BCD PUSH1 0xE5 SHL DUP2 MSTORE PUSH1 0x20 DUP2 DUP10 ADD MSTORE PUSH1 0x1B DUP2 DUP9 ADD MSTORE PUSH32 0x4E6F7420796574206465706C6F79656420746F20556E69737761700000000000 PUSH1 0x44 DUP3 ADD MSTORE PUSH1 0x64 SWAP1 REVERT JUMPDEST DUP4 MLOAD PUSH3 0x461BCD PUSH1 0xE5 SHL DUP2 MSTORE PUSH1 0x20 DUP2 DUP10 ADD MSTORE PUSH1 0x19 DUP2 DUP9 ADD MSTORE PUSH32 0x4F6E6C7920666F756E646572732063616E207265636F76657200000000000000 PUSH1 0x44 DUP3 ADD MSTORE PUSH1 0x64 SWAP1 REVERT JUMPDEST DUP4 DUP3 CALLVALUE PUSH2 0x2B5 JUMPI DUP2 PUSH1 0x3 NOT CALLDATASIZE ADD SLT PUSH2 0x2B5 JUMPI PUSH1 0x20 SWAP1 PUSH1 0x3 SLOAD SWAP1 MLOAD SWAP1 DUP2 MSTORE RETURN JUMPDEST POP DUP3 CALLVALUE PUSH2 0x1064 JUMPI PUSH1 0x20 SWAP1 DUP2 PUSH1 0x3 NOT CALLDATASIZE ADD SLT PUSH2 0x1064 JUMPI DUP3 SWAP1 PUSH1 0x1 PUSH1 0x1 PUSH1 0xA0 SHL SUB PUSH2 0xFDE PUSH2 0x2047 JUMP JUMPDEST AND DUP2 MSTORE PUSH1 0x9 DUP4 MSTORE DUP2 DUP2 KECCAK256 SWAP1 DUP3 MLOAD DUP1 DUP6 DUP5 SLOAD SWAP2 DUP3 DUP2 MSTORE ADD SWAP1 DUP2 SWAP5 DUP5 MSTORE DUP7 DUP5 KECCAK256 SWAP1 DUP5 JUMPDEST DUP2 DUP2 LT PUSH2 0x1050 JUMPI POP POP POP DUP2 PUSH2 0x1015 SWAP2 SUB DUP3 PUSH2 0x2094 JUMP JUMPDEST DUP4 MLOAD SWAP5 DUP6 SWAP5 DUP2 DUP7 ADD SWAP3 DUP3 DUP8 MSTORE MLOAD DUP1 SWAP4 MSTORE DUP6 ADD SWAP4 SWAP3 JUMPDEST DUP3 DUP2 LT PUSH2 0x1039 JUMPI POP POP POP POP SUB SWAP1 RETURN JUMPDEST DUP4 MLOAD DUP6 MSTORE DUP7 SWAP6 POP SWAP4 DUP2 ADD SWAP4 SWAP3 DUP2 ADD SWAP3 PUSH1 0x1 ADD PUSH2 0x102A JUMP JUMPDEST DUP3 SLOAD DUP5 MSTORE SWAP3 DUP9 ADD SWAP3 PUSH1 0x1 SWAP3 DUP4 ADD SWAP3 ADD PUSH2 0xFFF JUMP JUMPDEST DUP1 REVERT JUMPDEST DUP4 DUP3 CALLVALUE PUSH2 0x2B5 JUMPI DUP2 PUSH1 0x3 NOT CALLDATASIZE ADD SLT PUSH2 0x2B5 JUMPI PUSH1 0x20 SWAP1 MLOAD PUSH32 0x0 DUP2 MSTORE RETURN JUMPDEST DUP4 DUP3 CALLVALUE PUSH2 0x2B5 JUMPI DUP2 PUSH1 0x3 NOT CALLDATASIZE ADD SLT PUSH2 0x2B5 JUMPI PUSH1 0x20 SWAP1 PUSH1 0x1 SLOAD SWAP1 MLOAD SWAP1 DUP2 MSTORE RETURN JUMPDEST DUP4 DUP3 CALLVALUE PUSH2 0x2B5 JUMPI DUP2 PUSH1 0x3 NOT CALLDATASIZE ADD SLT PUSH2 0x2B5 JUMPI PUSH1 0x20 SWAP1 MLOAD PUSH32 0x0 DUP2 MSTORE RETURN JUMPDEST DUP4 DUP3 CALLVALUE PUSH2 0x2B5 JUMPI DUP2 PUSH1 0x3 NOT CALLDATASIZE ADD SLT PUSH2 0x2B5 JUMPI PUSH1 0x20 SWAP1 MLOAD PUSH3 0xF4240 PUSH32 0x0 DIV DUP2 MSTORE RETURN JUMPDEST POP SWAP1 CALLVALUE PUSH2 0x264 JUMPI DUP3 PUSH1 0x3 NOT CALLDATASIZE ADD SLT PUSH2 0x264 JUMPI PUSH1 0x20 SWAP3 POP SLOAD SWAP1 MLOAD SWAP1 DUP2 MSTORE RETURN JUMPDEST DUP4 DUP3 CALLVALUE PUSH2 0x2B5 JUMPI DUP2 PUSH1 0x3 NOT CALLDATASIZE ADD SLT PUSH2 0x2B5 JUMPI PUSH1 0x20 SWAP1 MLOAD PUSH32 0x0 DUP2 MSTORE RETURN JUMPDEST DUP4 DUP3 CALLVALUE PUSH2 0x2B5 JUMPI DUP2 PUSH1 0x3 NOT CALLDATASIZE ADD SLT PUSH2 0x2B5 JUMPI MLOAD PUSH32 0x0 PUSH1 0x1 PUSH1 0x1 PUSH1 0xA0 SHL SUB AND DUP2 MSTORE PUSH1 0x20 SWAP1 RETURN JUMPDEST DUP4 DUP3 CALLVALUE PUSH2 0x2B5 JUMPI DUP2 PUSH1 0x3 NOT CALLDATASIZE ADD SLT PUSH2 0x2B5 JUMPI PUSH1 0x20 SWAP1 PUSH2 0x2710 PUSH2 0x121E PUSH1 0x5 SLOAD PUSH32 0x0 SWAP1 PUSH2 0x2150 JUMP JUMPDEST DIV SWAP1 MLOAD SWAP1 DUP2 MSTORE RETURN JUMPDEST POP CALLVALUE PUSH2 0x264 JUMPI PUSH1 0x20 CALLDATASIZE PUSH1 0x3 NOT ADD SLT PUSH2 0x264 JUMPI PUSH1 0xFF DUP2 PUSH1 0xE0 SWAP5 DUP5 CALLDATALOAD DUP2 MSTORE PUSH1 0x8 PUSH1 0x20 MSTORE KECCAK256 DUP1 SLOAD SWAP4 PUSH1 0x1 DUP3 ADD SLOAD SWAP4 PUSH1 0x2 DUP4 ADD SLOAD SWAP2 PUSH1 0x3 DUP5 ADD SLOAD SWAP4 ADD SLOAD SWAP5 DUP2 MLOAD SWAP7 DUP8 MSTORE PUSH1 0x20 DUP8 ADD MSTORE DUP6 ADD MSTORE PUSH1 0x1 DUP1 PUSH1 0xA0 SHL SUB DUP2 AND PUSH1 0x60 DUP6 ADD MSTORE DUP2 DUP2 PUSH1 0xA0 SHR AND ISZERO ISZERO PUSH1 0x80 DUP6 ADD MSTORE PUSH1 0xA8 SHR AND ISZERO ISZERO PUSH1 0xA0 DUP4 ADD MSTORE PUSH1 0xC0 DUP3 ADD MSTORE RETURN JUMPDEST DUP4 DUP3 CALLVALUE PUSH2 0x2B5 JUMPI DUP2 PUSH1 0x3 NOT CALLDATASIZE ADD SLT PUSH2 0x2B5 JUMPI MLOAD PUSH32 0x0 PUSH1 0x1 PUSH1 0x1 PUSH1 0xA0 SHL SUB AND DUP2 MSTORE PUSH1 0x20 SWAP1 RETURN JUMPDEST DUP4 DUP3 CALLVALUE PUSH2 0x2B5 JUMPI DUP2 PUSH1 0x3 NOT CALLDATASIZE ADD SLT PUSH2 0x2B5 JUMPI PUSH1 0x20 SWAP1 PUSH2 0x321 PUSH2 0x257D JUMP JUMPDEST DUP4 DUP3 CALLVALUE PUSH2 0x2B5 JUMPI DUP1 PUSH1 0x3 NOT CALLDATASIZE ADD SLT PUSH2 0x2B5 JUMPI PUSH2 0x1315 PUSH2 0x2047 JUMP JUMPDEST PUSH1 0x1 PUSH1 0x1 PUSH1 0xA0 SHL SUB AND DUP3 MSTORE PUSH1 0x9 PUSH1 0x20 MSTORE DUP1 DUP3 KECCAK256 DUP1 SLOAD PUSH1 0x24 CALLDATALOAD SWAP4 SWAP1 DUP5 LT ISZERO PUSH2 0x1064 JUMPI POP PUSH1 0x20 SWAP3 PUSH2 0x1343 SWAP2 PUSH2 0x20FF JUMP JUMPDEST SWAP2 SWAP1 SLOAD SWAP1 MLOAD SWAP2 PUSH1 0x3 SHL SHR DUP2 MSTORE RETURN JUMPDEST DUP4 DUP3 CALLVALUE PUSH2 0x2B5 JUMPI DUP2 PUSH1 0x3 NOT CALLDATASIZE ADD SLT PUSH2 0x2B5 JUMPI PUSH1 0x20 SWAP1 MLOAD PUSH32 0x0 DUP2 MSTORE RETURN JUMPDEST POP CALLVALUE PUSH2 0x264 JUMPI DUP3 PUSH1 0x3 NOT CALLDATASIZE ADD SLT PUSH2 0x264 JUMPI DUP1 MLOAD SWAP2 DUP4 PUSH1 0x6 SLOAD SWAP1 PUSH1 0x1 SWAP1 DUP3 PUSH1 0x1 SHR SWAP3 PUSH1 0x1 DUP2 AND DUP1 ISZERO PUSH2 0x1441 JUMPI JUMPDEST PUSH1 0x20 SWAP6 DUP7 DUP7 LT DUP3 EQ PUSH2 0xCC9 JUMPI POP DUP5 DUP9 MSTORE SWAP1 DUP2 ISZERO PUSH2 0xCA7 JUMPI POP PUSH1 0x1 EQ PUSH2 0x13E8 JUMPI PUSH2 0xC4A DUP7 DUP7 PUSH2 0xC40 DUP3 DUP12 SUB DUP4 PUSH2 0x2094 JUMP JUMPDEST SWAP3 SWAP6 POP PUSH1 0x6 DUP4 MSTORE PUSH32 0xF652222313E28459528D920B65115C16C04F3EFC82AAEDC97BE59F3F377C0D3F JUMPDEST DUP3 DUP5 LT PUSH2 0x142E JUMPI POP POP POP DUP3 PUSH2 0xC4A SWAP5 PUSH2 0xC40 SWAP3 DUP3 ADD ADD SWAP5 CODESIZE PUSH2 0xC2F JUMP JUMPDEST DUP1 SLOAD DUP7 DUP6 ADD DUP9 ADD MSTORE SWAP3 DUP7 ADD SWAP3 DUP2 ADD PUSH2 0x1411 JUMP JUMPDEST SWAP4 PUSH1 0x7F AND SWAP4 PUSH2 0x13B8 JUMP JUMPDEST DUP4 DUP3 CALLVALUE PUSH2 0x2B5 JUMPI DUP2 PUSH1 0x3 NOT CALLDATASIZE ADD SLT PUSH2 0x2B5 JUMPI PUSH1 0x20 SWAP1 PUSH1 0xFF PUSH1 0x2 SLOAD PUSH1 0x8 SHR AND SWAP1 MLOAD SWAP1 ISZERO ISZERO DUP2 MSTORE RETURN JUMPDEST DUP4 DUP3 CALLVALUE PUSH2 0x2B5 JUMPI DUP2 PUSH1 0x3 NOT CALLDATASIZE ADD SLT PUSH2 0x2B5 JUMPI MLOAD PUSH32 0x0 PUSH1 0x1 PUSH1 0x1 PUSH1 0xA0 SHL SUB AND DUP2 MSTORE PUSH1 0x20 SWAP1 RETURN JUMPDEST POP SWAP1 CALLVALUE PUSH2 0x264 JUMPI PUSH1 0x20 SWAP2 DUP3 PUSH1 0x3 NOT CALLDATASIZE ADD SLT PUSH2 0x619 JUMPI DUP2 CALLDATALOAD SWAP3 PUSH2 0x14D6 PUSH2 0x27E5 JUMP JUMPDEST PUSH2 0x14EA PUSH1 0xFF PUSH1 0x2 SLOAD PUSH2 0x652 DUP3 DUP3 AND ISZERO PUSH2 0x247C JUMP JUMPDEST DUP4 DUP6 MSTORE PUSH1 0x8 DUP2 MSTORE DUP2 DUP6 KECCAK256 PUSH1 0x3 DUP2 ADD DUP1 SLOAD PUSH1 0x1 PUSH1 0x1 PUSH1 0xA0 SHL SUB SWAP3 SWAP2 SWAP1 PUSH2 0x1512 DUP5 DUP3 AND CALLER EQ PUSH2 0x24FE JUMP JUMPDEST PUSH1 0xFF DUP2 PUSH1 0xA0 SHR AND PUSH2 0x1668 JUMPI PUSH1 0x1 DUP10 SWAP4 DUP7 SWAP4 DUP4 PUSH2 0x1537 PUSH1 0xFF PUSH2 0x1597 SWAP7 PUSH1 0xA8 SHR AND ISZERO PUSH2 0x253E JUMP JUMPDEST PUSH1 0xFF PUSH1 0xA0 SHL NOT AND PUSH1 0xA0 DUP5 SWAP1 SHL OR SWAP1 SSTORE PUSH1 0x2 DUP2 ADD SLOAD PUSH1 0x3 SLOAD PUSH2 0x1558 SWAP2 SWAP1 PUSH2 0x2183 JUMP JUMPDEST PUSH1 0x3 SSTORE ADD SWAP4 PUSH2 0x1569 DUP6 SLOAD DUP10 SLOAD PUSH2 0x2183 JUMP JUMPDEST DUP9 SSTORE DUP5 SLOAD DUP8 MLOAD PUSH4 0xA9059CBB PUSH1 0xE0 SHL DUP2 MSTORE CALLER DUP2 DUP12 ADD SWAP1 DUP2 MSTORE PUSH1 0x20 DUP2 ADD SWAP3 SWAP1 SWAP3 MSTORE SWAP5 DUP6 SWAP4 DUP5 SWAP3 DUP4 SWAP2 PUSH1 0x40 SWAP1 SWAP2 ADD SWAP1 JUMP JUMPDEST SUB SWAP3 PUSH32 0x0 AND GAS CALL SWAP1 DUP2 ISZERO PUSH2 0x165E JUMPI DUP8 SWAP2 PUSH2 0x1641 JUMPI JUMPDEST POP ISZERO PUSH2 0x160F JUMPI SLOAD SWAP3 SLOAD SWAP1 DUP3 MLOAD SWAP4 DUP5 MSTORE DUP4 ADD MSTORE TIMESTAMP SWAP1 DUP3 ADD MSTORE PUSH32 0x40AFC61AABCE83A502901D9DC66B15D1EE92BFCC1F4F56923B8434DCD041E19F PUSH1 0x60 CALLER SWAP3 LOG3 PUSH1 0x1 DUP2 SSTORE DUP1 RETURN JUMPDEST POP SWAP1 MLOAD PUSH3 0x461BCD PUSH1 0xE5 SHL DUP2 MSTORE SWAP2 DUP3 ADD MSTORE PUSH1 0xD PUSH1 0x24 DUP3 ADD MSTORE PUSH13 0x1499599D5B990819985A5B1959 PUSH1 0x9A SHL PUSH1 0x44 DUP3 ADD MSTORE PUSH1 0x64 SWAP1 REVERT JUMPDEST PUSH2 0x1658 SWAP2 POP DUP4 RETURNDATASIZE DUP6 GT PUSH2 0x51B JUMPI PUSH2 0x50D DUP2 DUP4 PUSH2 0x2094 JUMP JUMPDEST CODESIZE PUSH2 0x15CB JUMP JUMPDEST DUP5 MLOAD RETURNDATASIZE DUP10 DUP3 RETURNDATACOPY RETURNDATASIZE SWAP1 REVERT JUMPDEST DUP6 MLOAD PUSH3 0x461BCD PUSH1 0xE5 SHL DUP2 MSTORE DUP1 DUP9 ADD DUP7 SWAP1 MSTORE PUSH1 0x10 PUSH1 0x24 DUP3 ADD MSTORE PUSH16 0x105B1C9958591E481C99599D5B991959 PUSH1 0x82 SHL PUSH1 0x44 DUP3 ADD MSTORE PUSH1 0x64 SWAP1 REVERT JUMPDEST DUP4 DUP3 CALLVALUE PUSH2 0x2B5 JUMPI DUP2 PUSH1 0x3 NOT CALLDATASIZE ADD SLT PUSH2 0x2B5 JUMPI PUSH1 0x20 SWAP1 PUSH1 0xFF PUSH1 0x2 SLOAD AND SWAP1 MLOAD SWAP1 ISZERO ISZERO DUP2 MSTORE RETURN JUMPDEST DUP4 DUP3 CALLVALUE PUSH2 0x2B5 JUMPI DUP2 PUSH1 0x3 NOT CALLDATASIZE ADD SLT PUSH2 0x2B5 JUMPI MLOAD PUSH32 0x0 PUSH1 0x1 PUSH1 0x1 PUSH1 0xA0 SHL SUB AND DUP2 MSTORE PUSH1 0x20 SWAP1 RETURN JUMPDEST DUP4 DUP3 CALLVALUE PUSH2 0x2B5 JUMPI DUP2 PUSH1 0x3 NOT CALLDATASIZE ADD SLT PUSH2 0x2B5 JUMPI MLOAD PUSH32 0x0 PUSH1 0x1 PUSH1 0x1 PUSH1 0xA0 SHL SUB AND DUP2 MSTORE PUSH1 0x20 SWAP1 RETURN JUMPDEST DUP4 DUP3 CALLVALUE PUSH2 0x2B5 JUMPI DUP2 PUSH1 0x3 NOT CALLDATASIZE ADD SLT PUSH2 0x2B5 JUMPI PUSH1 0x20 SWAP1 PUSH2 0x1767 PUSH2 0x23DC JUMP JUMPDEST SWAP1 MLOAD SWAP1 ISZERO ISZERO DUP2 MSTORE RETURN JUMPDEST POP SWAP1 CALLVALUE PUSH2 0x264 JUMPI DUP3 PUSH1 0x3 NOT CALLDATASIZE ADD SLT PUSH2 0x264 JUMPI PUSH1 0x2 SLOAD PUSH1 0xFF DUP2 PUSH1 0x8 SHR AND ISZERO PUSH2 0x1E6A JUMPI PUSH1 0xFF AND PUSH2 0x1E35 JUMPI PUSH2 0x2710 PUSH2 0x17C8 PUSH1 0x5 SLOAD PUSH32 0x0 SWAP1 PUSH2 0x2150 JUMP JUMPDEST DIV SWAP2 DUP2 SLOAD SWAP3 PUSH2 0x17D7 DUP2 DUP6 PUSH2 0x2183 JUMP JUMPDEST SWAP3 PUSH2 0x17E8 PUSH2 0x17E3 PUSH2 0x23DC JUMP JUMPDEST PUSH2 0x2378 JUMP JUMPDEST DUP3 MLOAD PUSH4 0x70A08231 PUSH1 0xE0 SHL DUP1 DUP3 MSTORE ADDRESS DUP4 DUP4 ADD MSTORE PUSH1 0x20 SWAP7 PUSH1 0x1 PUSH1 0x1 PUSH1 0xA0 SHL SUB SWAP5 SWAP2 SWAP3 PUSH1 0x24 SWAP3 PUSH32 0x0 DUP8 AND SWAP3 SWAP1 SWAP2 SWAP1 DUP11 DUP3 DUP7 DUP2 DUP8 GAS STATICCALL SWAP2 DUP3 ISZERO PUSH2 0xAC1 JUMPI DUP13 SWAP3 PUSH2 0x1E02 JUMPI JUMPDEST POP PUSH2 0x1857 PUSH1 0x3 SLOAD DUP1 SWAP4 LT ISZERO PUSH2 0x2378 JUMP JUMPDEST DUP8 PUSH32 0x0 AND SWAP6 DUP10 MLOAD SWAP1 DUP2 MSTORE ADDRESS DUP9 DUP3 ADD MSTORE DUP12 DUP2 DUP8 DUP2 DUP11 GAS STATICCALL SWAP1 DUP2 ISZERO PUSH2 0x1D85 JUMPI DUP14 SWAP2 PUSH2 0x1DD1 JUMPI JUMPDEST POP LT PUSH2 0x1D8F JUMPI DUP8 MLOAD PUSH4 0x95EA7B3 PUSH1 0xE0 SHL DUP1 DUP3 MSTORE PUSH32 0x0 DUP10 AND PUSH1 0x1 PUSH1 0x1 PUSH1 0xA0 SHL SUB DUP2 AND DUP10 DUP5 ADD SWAP1 DUP2 MSTORE PUSH1 0x20 DUP2 ADD SWAP5 SWAP1 SWAP5 MSTORE SWAP3 SWAP1 SWAP2 SWAP1 DUP13 SWAP1 DUP3 SWAP1 DUP16 SWAP1 DUP3 SWAP1 DUP2 SWAP1 PUSH1 0x40 ADD SUB SWAP2 DUP10 GAS CALL SWAP1 DUP2 ISZERO PUSH2 0x1D85 JUMPI DUP14 SWAP2 PUSH2 0x1D68 JUMPI JUMPDEST POP ISZERO PUSH2 0x1D2F JUMPI DUP9 MLOAD SWAP1 DUP2 MSTORE PUSH1 0x1 PUSH1 0x1 PUSH1 0xA0 SHL SUB DUP3 AND DUP8 DUP3 ADD SWAP1 DUP2 MSTORE PUSH1 0x20 DUP2 ADD DUP12 SWAP1 MSTORE DUP12 SWAP1 DUP3 SWAP1 DUP2 SWAP1 SUB PUSH1 0x40 ADD DUP2 DUP16 DUP11 GAS CALL SWAP1 DUP2 ISZERO PUSH2 0xAC1 JUMPI DUP13 SWAP2 PUSH2 0x1D12 JUMPI JUMPDEST POP ISZERO PUSH2 0x1CD7 JUMPI PUSH2 0x19F7 PUSH32 0x0 PUSH2 0x19F2 PUSH2 0x19CC PUSH2 0x19C6 DUP4 PUSH32 0x0 PUSH32 0x0 PUSH2 0x279D JUMP JUMPDEST SWAP3 PUSH2 0x21CD JUMP JUMPDEST PUSH32 0x0 PUSH2 0x2150 JUMP JUMPDEST PUSH2 0x2163 JUMP JUMPDEST SWAP1 PUSH1 0x78 TIMESTAMP ADD DUP1 TIMESTAMP GT PUSH2 0x1CC5 JUMPI SWAP1 DUP13 SWAP3 SWAP2 DUP11 MLOAD SWAP12 DUP13 SWAP4 PUSH3 0xE8E337 PUSH1 0xE8 SHL DUP6 MSTORE DUP8 DUP12 DUP7 ADD MSTORE DUP10 DUP10 DUP7 ADD MSTORE DUP1 PUSH1 0x44 DUP7 ADD MSTORE DUP2 PUSH1 0x64 DUP7 ADD MSTORE PUSH1 0x84 DUP6 ADD MSTORE PUSH1 0xA4 DUP5 ADD MSTORE DUP10 PUSH32 0x0 AND PUSH1 0xC4 DUP5 ADD MSTORE PUSH1 0xE4 DUP4 ADD MSTORE DUP2 GAS SWAP4 PUSH2 0x104 SWAP3 PUSH1 0x60 SWAP6 CALL SWAP8 DUP9 ISZERO PUSH2 0x1CBB JUMPI DUP11 SWAP9 PUSH2 0x1C81 JUMPI JUMPDEST POP DUP1 PUSH2 0x1B89 JUMPI JUMPDEST POP PUSH1 0x2 DUP1 SLOAD PUSH1 0xFF NOT AND PUSH1 0x1 OR SWAP1 SSTORE DUP6 MLOAD PUSH4 0xE6A43905 PUSH1 0xE0 SHL DUP2 MSTORE SWAP4 DUP5 ADD MSTORE DUP3 ADD MSTORE DUP5 DUP2 PUSH1 0x44 DUP2 PUSH32 0x0 DUP7 AND GAS STATICCALL SWAP5 DUP6 ISZERO PUSH2 0x1B7F JUMPI DUP7 SWAP6 PUSH2 0x1B20 JUMPI JUMPDEST POP POP SWAP1 MLOAD PUSH1 0x1 PUSH1 0x1 PUSH1 0xA0 SHL SUB SWAP1 SWAP4 AND DUP4 MSTORE POP PUSH1 0x20 DUP3 ADD MSTORE PUSH32 0x4DB0962B68E799B508143F50800F1504D656CBD0FE6395510C0DCA385BFD8407 SWAP1 DUP1 PUSH1 0x40 DUP2 ADD JUMPDEST SUB SWAP1 LOG1 DUP1 RETURN JUMPDEST SWAP1 DUP1 SWAP3 SWAP6 POP DUP2 RETURNDATASIZE DUP4 GT PUSH2 0x1B78 JUMPI JUMPDEST PUSH2 0x1B38 DUP2 DUP4 PUSH2 0x2094 JUMP JUMPDEST DUP2 ADD SUB SLT PUSH2 0x1B74 JUMPI MLOAD SWAP3 DUP4 AND DUP4 SUB PUSH2 0x619 JUMPI PUSH2 0x1B1A PUSH32 0x4DB0962B68E799B508143F50800F1504D656CBD0FE6395510C0DCA385BFD8407 CODESIZE PUSH2 0x1ADB JUMP JUMPDEST DUP5 DUP1 REVERT JUMPDEST POP RETURNDATASIZE PUSH2 0x1B2E JUMP JUMPDEST DUP4 MLOAD RETURNDATASIZE DUP9 DUP3 RETURNDATACOPY RETURNDATASIZE SWAP1 REVERT JUMPDEST DUP7 MLOAD PUSH4 0xA9059CBB PUSH1 0xE0 SHL DUP2 MSTORE PUSH1 0x1 PUSH1 0x1 PUSH1 0xA0 SHL SUB PUSH32 0x0 SWAP1 DUP2 AND DUP8 DUP4 ADD SWAP1 DUP2 MSTORE PUSH1 0x20 DUP2 ADD DUP5 SWAP1 MSTORE SWAP1 SWAP2 SWAP1 DUP12 SWAP1 DUP3 SWAP1 DUP2 SWAP1 SUB PUSH1 0x40 ADD DUP2 DUP16 DUP11 GAS CALL SWAP1 DUP2 ISZERO PUSH2 0xAC1 JUMPI DUP13 SWAP2 PUSH2 0x1C64 JUMPI JUMPDEST POP ISZERO PUSH2 0x1C2A JUMPI PUSH32 0xEFC7F1F15BECFAEC7A3C17EEC78BE3FA7ADB45698F26FCFD25EFE1754C242331 SWAP2 DUP8 DUP10 SWAP3 DUP4 MLOAD SWAP3 DUP4 MSTORE AND DUP12 DUP3 ADD MSTORE LOG1 CODESIZE PUSH2 0x1A82 JUMP JUMPDEST DUP8 MLOAD PUSH3 0x461BCD PUSH1 0xE5 SHL DUP2 MSTORE DUP1 DUP8 ADD DUP12 SWAP1 MSTORE PUSH1 0x15 DUP2 DUP7 ADD MSTORE PUSH21 0x115CD8DC9BDDC81C995B19585CD94819985A5B1959 PUSH1 0x5A SHL PUSH1 0x44 DUP3 ADD MSTORE PUSH1 0x64 SWAP1 REVERT JUMPDEST PUSH2 0x1C7B SWAP2 POP DUP12 RETURNDATASIZE DUP14 GT PUSH2 0x51B JUMPI PUSH2 0x50D DUP2 DUP4 PUSH2 0x2094 JUMP JUMPDEST CODESIZE PUSH2 0x1BEE JUMP JUMPDEST SWAP1 SWAP8 POP PUSH1 0x60 DUP2 RETURNDATASIZE PUSH1 0x60 GT PUSH2 0x1CB3 JUMPI JUMPDEST DUP2 PUSH2 0x1C9D PUSH1 0x60 SWAP4 DUP4 PUSH2 0x2094 JUMP JUMPDEST DUP2 ADD SUB SLT PUSH2 0x1CAF JUMPI DUP7 ADD MLOAD SWAP7 CODESIZE PUSH2 0x1A7B JUMP JUMPDEST DUP10 DUP1 REVERT JUMPDEST RETURNDATASIZE SWAP2 POP PUSH2 0x1C90 JUMP JUMPDEST DUP8 MLOAD RETURNDATASIZE DUP13 DUP3 RETURNDATACOPY RETURNDATASIZE SWAP1 REVERT JUMPDEST PUSH4 0x4E487B71 PUSH1 0xE0 SHL DUP14 MSTORE PUSH1 0x11 DUP9 MSTORE DUP6 DUP14 REVERT JUMPDEST DUP8 MLOAD PUSH3 0x461BCD PUSH1 0xE5 SHL DUP2 MSTORE DUP1 DUP8 ADD DUP12 SWAP1 MSTORE PUSH1 0x16 DUP2 DUP7 ADD MSTORE PUSH22 0x14185E5B595B9D08185C1C1C9BDD994819985A5B1959 PUSH1 0x52 SHL PUSH1 0x44 DUP3 ADD MSTORE PUSH1 0x64 SWAP1 REVERT JUMPDEST PUSH2 0x1D29 SWAP2 POP DUP12 RETURNDATASIZE DUP14 GT PUSH2 0x51B JUMPI PUSH2 0x50D DUP2 DUP4 PUSH2 0x2094 JUMP JUMPDEST CODESIZE PUSH2 0x194B JUMP JUMPDEST DUP9 MLOAD PUSH3 0x461BCD PUSH1 0xE5 SHL DUP2 MSTORE DUP1 DUP9 ADD DUP13 SWAP1 MSTORE PUSH1 0x14 DUP2 DUP8 ADD MSTORE PUSH20 0x151BDAD95B88185C1C1C9BDD994819985A5B1959 PUSH1 0x62 SHL PUSH1 0x44 DUP3 ADD MSTORE PUSH1 0x64 SWAP1 REVERT JUMPDEST PUSH2 0x1D7F SWAP2 POP DUP13 DUP14 RETURNDATASIZE LT PUSH2 0x51B JUMPI PUSH2 0x50D DUP2 DUP4 PUSH2 0x2094 JUMP JUMPDEST CODESIZE PUSH2 0x190C JUMP JUMPDEST DUP11 MLOAD RETURNDATASIZE DUP16 DUP3 RETURNDATACOPY RETURNDATASIZE SWAP1 REVERT JUMPDEST DUP8 MLOAD PUSH3 0x461BCD PUSH1 0xE5 SHL DUP2 MSTORE DUP1 DUP8 ADD DUP12 SWAP1 MSTORE PUSH1 0x1B DUP2 DUP7 ADD MSTORE PUSH32 0x496E73756666696369656E74207061796D656E7420746F6B656E730000000000 PUSH1 0x44 DUP3 ADD MSTORE PUSH1 0x64 SWAP1 REVERT JUMPDEST SWAP1 POP DUP12 DUP2 DUP2 RETURNDATASIZE DUP4 GT PUSH2 0x1DFB JUMPI JUMPDEST PUSH2 0x1DE8 DUP2 DUP4 PUSH2 0x2094 JUMP JUMPDEST DUP2 ADD SUB SLT PUSH2 0x1DF7 JUMPI MLOAD CODESIZE PUSH2 0x189A JUMP JUMPDEST DUP13 DUP1 REVERT JUMPDEST POP RETURNDATASIZE PUSH2 0x1DDE JUMP JUMPDEST SWAP1 SWAP2 POP DUP11 DUP2 DUP2 RETURNDATASIZE DUP4 GT PUSH2 0x1E2E JUMPI JUMPDEST PUSH2 0x1E1A DUP2 DUP4 PUSH2 0x2094 JUMP JUMPDEST DUP2 ADD SUB SLT PUSH2 0x1E2A JUMPI MLOAD SWAP1 CODESIZE PUSH2 0x1847 JUMP JUMPDEST DUP12 DUP1 REVERT JUMPDEST POP RETURNDATASIZE PUSH2 0x1E10 JUMP JUMPDEST PUSH1 0x20 PUSH1 0x64 SWAP3 MLOAD SWAP2 PUSH3 0x461BCD PUSH1 0xE5 SHL DUP4 MSTORE DUP3 ADD MSTORE PUSH1 0x10 PUSH1 0x24 DUP3 ADD MSTORE PUSH16 0x105B1C9958591E4819195C1B1BDE5959 PUSH1 0x82 SHL PUSH1 0x44 DUP3 ADD MSTORE REVERT JUMPDEST POP PUSH1 0x20 PUSH1 0x64 SWAP3 MLOAD SWAP2 PUSH3 0x461BCD PUSH1 0xE5 SHL DUP4 MSTORE DUP3 ADD MSTORE PUSH1 0x12 PUSH1 0x24 DUP3 ADD MSTORE PUSH18 0x15185C99D95D081B9BDD081C995858DA1959 PUSH1 0x72 SHL PUSH1 0x44 DUP3 ADD MSTORE REVERT JUMPDEST POP DUP3 CALLVALUE PUSH2 0x1064 JUMPI PUSH1 0x20 CALLDATASIZE PUSH1 0x3 NOT ADD SLT PUSH2 0x1064 JUMPI POP PUSH2 0x321 PUSH1 0x20 SWAP3 CALLDATALOAD PUSH2 0x21DE JUMP JUMPDEST POP CALLVALUE PUSH2 0x264 JUMPI DUP3 PUSH1 0x3 NOT CALLDATASIZE ADD SLT PUSH2 0x264 JUMPI DUP1 MLOAD PUSH4 0x70A08231 PUSH1 0xE0 SHL DUP2 MSTORE ADDRESS SWAP3 DUP2 ADD SWAP3 SWAP1 SWAP3 MSTORE PUSH1 0x20 DUP3 PUSH1 0x24 DUP2 PUSH32 0x0 PUSH1 0x1 PUSH1 0x1 PUSH1 0xA0 SHL SUB AND GAS STATICCALL SWAP2 DUP3 ISZERO PUSH2 0x270 JUMPI DUP4 SWAP3 PUSH2 0x234 JUMPI PUSH1 0x20 DUP4 DUP4 MLOAD SWAP1 DUP2 MSTORE RETURN JUMPDEST SWAP2 DUP5 SWAP2 POP CALLVALUE PUSH2 0x2B5 JUMPI PUSH1 0x20 SWAP4 DUP5 PUSH1 0x3 NOT CALLDATASIZE ADD SLT PUSH2 0x264 JUMPI PUSH2 0x1F4F PUSH2 0x2047 JUMP JUMPDEST PUSH1 0x1 PUSH1 0x1 PUSH1 0xA0 SHL SUB SWAP1 DUP2 AND DUP5 MSTORE PUSH1 0x9 DUP7 MSTORE DUP3 DUP5 KECCAK256 DUP1 SLOAD DUP1 DUP8 MSTORE SWAP1 DUP6 MSTORE DUP7 DUP6 KECCAK256 SWAP2 SWAP3 SWAP2 DUP6 SWAP2 DUP8 SWAP1 DUP2 DUP11 ADD SWAP1 DUP5 JUMPDEST DUP12 DUP3 DUP3 LT PUSH2 0x2031 JUMPI POP POP POP PUSH2 0x1F92 SWAP3 POP SUB DUP8 PUSH2 0x2094 JUMP JUMPDEST DUP1 JUMPDEST DUP7 MLOAD DUP2 LT ISZERO PUSH2 0x2028 JUMPI DUP8 DUP2 PUSH1 0x5 SHL DUP9 ADD ADD MLOAD DUP3 MSTORE PUSH1 0x8 DUP9 MSTORE DUP5 DUP3 KECCAK256 DUP6 MLOAD SWAP1 PUSH2 0x1FBB DUP3 PUSH2 0x2062 JUMP JUMPDEST DUP1 SLOAD DUP3 MSTORE PUSH1 0x1 DUP2 ADD SLOAD DUP11 DUP4 ADD MSTORE PUSH1 0x2 DUP2 ADD SLOAD SWAP2 DUP3 DUP9 DUP3 ADD MSTORE PUSH1 0xC0 DUP7 PUSH1 0x3 DUP5 ADD SLOAD SWAP4 DUP10 DUP6 AND PUSH1 0x60 DUP6 ADD MSTORE PUSH1 0xFF PUSH1 0xA0 SWAP1 DUP1 DUP8 DUP4 SHR AND ISZERO SWAP7 DUP8 ISZERO PUSH1 0x80 DUP9 ADD MSTORE PUSH1 0xA8 SHR AND ISZERO ISZERO SWAP1 DUP6 ADD MSTORE ADD SLOAD SWAP2 ADD MSTORE PUSH2 0x2014 JUMPI JUMPDEST POP PUSH1 0x1 ADD PUSH2 0x1F94 JUMP JUMPDEST PUSH2 0x2021 SWAP1 PUSH1 0x1 SWAP3 SWAP8 PUSH2 0x212D JUMP JUMPDEST SWAP6 SWAP1 PUSH2 0x200B JUMP JUMPDEST DUP8 DUP7 DUP7 MLOAD SWAP1 DUP2 MSTORE RETURN JUMPDEST DUP6 SLOAD DUP5 MSTORE PUSH1 0x1 SWAP6 DUP7 ADD SWAP6 DUP13 SWAP6 POP SWAP4 ADD SWAP3 ADD PUSH2 0x1F7B JUMP JUMPDEST PUSH1 0x4 CALLDATALOAD SWAP1 PUSH1 0x1 PUSH1 0x1 PUSH1 0xA0 SHL SUB DUP3 AND DUP3 SUB PUSH2 0x205D JUMPI JUMP JUMPDEST PUSH1 0x0 DUP1 REVERT JUMPDEST PUSH1 0xE0 DUP2 ADD SWAP1 DUP2 LT PUSH8 0xFFFFFFFFFFFFFFFF DUP3 GT OR PUSH2 0x207E JUMPI PUSH1 0x40 MSTORE JUMP JUMPDEST PUSH4 0x4E487B71 PUSH1 0xE0 SHL PUSH1 0x0 MSTORE PUSH1 0x41 PUSH1 0x4 MSTORE PUSH1 0x24 PUSH1 0x0 REVERT JUMPDEST SWAP1 PUSH1 0x1F DUP1 NOT SWAP2 ADD AND DUP2 ADD SWAP1 DUP2 LT PUSH8 0xFFFFFFFFFFFFFFFF DUP3 GT OR PUSH2 0x207E JUMPI PUSH1 0x40 MSTORE JUMP JUMPDEST PUSH1 0x20 DUP1 DUP3 MSTORE DUP3 MLOAD DUP2 DUP4 ADD DUP2 SWAP1 MSTORE SWAP1 SWAP4 SWAP3 PUSH1 0x0 JUMPDEST DUP3 DUP2 LT PUSH2 0x20EB JUMPI POP POP PUSH1 0x40 SWAP3 SWAP4 POP PUSH1 0x0 DUP4 DUP3 DUP5 ADD ADD MSTORE PUSH1 0x1F DUP1 NOT SWAP2 ADD AND ADD ADD SWAP1 JUMP JUMPDEST DUP2 DUP2 ADD DUP7 ADD MLOAD DUP5 DUP3 ADD PUSH1 0x40 ADD MSTORE DUP6 ADD PUSH2 0x20C9 JUMP JUMPDEST DUP1 SLOAD DUP3 LT ISZERO PUSH2 0x2117 JUMPI PUSH1 0x0 MSTORE PUSH1 0x20 PUSH1 0x0 KECCAK256 ADD SWAP1 PUSH1 0x0 SWAP1 JUMP JUMPDEST PUSH4 0x4E487B71 PUSH1 0xE0 SHL PUSH1 0x0 MSTORE PUSH1 0x32 PUSH1 0x4 MSTORE PUSH1 0x24 PUSH1 0x0 REVERT JUMPDEST SWAP2 SWAP1 DUP3 ADD DUP1 SWAP3 GT PUSH2 0x213A JUMPI JUMP JUMPDEST PUSH4 0x4E487B71 PUSH1 0xE0 SHL PUSH1 0x0 MSTORE PUSH1 0x11 PUSH1 0x4 MSTORE PUSH1 0x24 PUSH1 0x0 REVERT JUMPDEST DUP2 DUP2 MUL SWAP3 SWAP2 DUP2 ISZERO SWAP2 DUP5 DIV EQ OR ISZERO PUSH2 0x213A JUMPI JUMP JUMPDEST DUP2 ISZERO PUSH2 0x216D JUMPI DIV SWAP1 JUMP JUMPDEST PUSH4 0x4E487B71 PUSH1 0xE0 SHL PUSH1 0x0 MSTORE PUSH1 0x12 PUSH1 0x4 MSTORE PUSH1 0x24 PUSH1 0x0 REVERT JUMPDEST SWAP2 SWAP1 DUP3 SUB SWAP2 DUP3 GT PUSH2 0x213A JUMPI JUMP JUMPDEST ISZERO PUSH2 0x2197 JUMPI JUMP JUMPDEST PUSH1 0x40 MLOAD PUSH3 0x461BCD PUSH1 0xE5 SHL DUP2 MSTORE PUSH1 0x20 PUSH1 0x4 DUP3 ADD MSTORE PUSH1 0xE PUSH1 0x24 DUP3 ADD MSTORE PUSH14 0x115E18D959591CC81D185C99D95D PUSH1 0x92 SHL PUSH1 0x44 DUP3 ADD MSTORE PUSH1 0x64 SWAP1 REVERT JUMPDEST PUSH1 0xFF AND PUSH1 0x4D DUP2 GT PUSH2 0x213A JUMPI PUSH1 0xA EXP SWAP1 JUMP JUMPDEST PUSH1 0x64 DUP2 MUL SWAP1 DUP1 DUP3 DIV PUSH1 0x64 EQ DUP2 ISZERO OR ISZERO PUSH2 0x213A JUMPI PUSH2 0x19F2 PUSH2 0x231B PUSH2 0x226D PUSH2 0x2375 SWAP5 PUSH2 0x71B PUSH2 0x2710 DUP1 SWAP3 DIV SWAP2 PUSH2 0x71B PUSH2 0x223A DUP5 DUP4 PUSH2 0x6D6 PUSH32 0x0 DUP13 PUSH2 0x2150 JUMP JUMPDEST SWAP2 PUSH2 0x2265 PUSH32 0x0 DUP11 PUSH2 0x2150 JUMP JUMPDEST DIV SWAP2 DUP9 PUSH2 0x2183 JUMP JUMPDEST PUSH2 0x2315 PUSH1 0x4 SLOAD SWAP2 PUSH2 0x2315 PUSH2 0x2281 DUP3 DUP6 PUSH2 0x212D JUMP JUMPDEST PUSH2 0x22AE PUSH32 0x0 DUP1 SWAP3 GT ISZERO PUSH2 0x2190 JUMP JUMPDEST PUSH2 0x19F2 PUSH2 0x22B9 PUSH2 0x26DB JUMP JUMPDEST SWAP6 PUSH2 0x230F PUSH32 0x0 SWAP6 PUSH2 0x2309 DUP8 PUSH32 0x0 PUSH2 0x2183 JUMP JUMPDEST SWAP3 PUSH2 0x212D JUMP JUMPDEST SWAP1 PUSH2 0x2150 JUMP JUMPDEST SWAP1 PUSH2 0x212D JUMP JUMPDEST PUSH1 0x1 SHR SWAP2 PUSH2 0x230F PUSH2 0x236F PUSH32 0x0 DUP1 SWAP4 PUSH32 0x0 SWAP1 PUSH2 0x279D JUMP JUMPDEST SWAP2 PUSH2 0x21CD JUMP JUMPDEST SWAP1 JUMP JUMPDEST ISZERO PUSH2 0x237F JUMPI JUMP JUMPDEST PUSH1 0x40 MLOAD PUSH3 0x461BCD PUSH1 0xE5 SHL DUP2 MSTORE PUSH1 0x20 PUSH1 0x4 DUP3 ADD MSTORE PUSH1 0x18 PUSH1 0x24 DUP3 ADD MSTORE PUSH32 0x496E73756666696369656E742073616C6520746F6B656E730000000000000000 PUSH1 0x44 DUP3 ADD MSTORE PUSH1 0x64 SWAP1 REVERT JUMPDEST SWAP1 DUP2 PUSH1 0x20 SWAP2 SUB SLT PUSH2 0x205D JUMPI MLOAD DUP1 ISZERO ISZERO DUP2 SUB PUSH2 0x205D JUMPI SWAP1 JUMP JUMPDEST PUSH1 0x40 MLOAD PUSH4 0x70A08231 PUSH1 0xE0 SHL DUP2 MSTORE ADDRESS PUSH1 0x4 DUP3 ADD MSTORE PUSH1 0x20 DUP2 PUSH1 0x24 DUP2 PUSH32 0x0 PUSH1 0x1 PUSH1 0x1 PUSH1 0xA0 SHL SUB AND GAS STATICCALL SWAP1 DUP2 ISZERO PUSH2 0x2470 JUMPI PUSH1 0x0 SWAP2 PUSH2 0x243E JUMPI JUMPDEST POP PUSH2 0x2439 PUSH2 0x257D JUMP JUMPDEST GT ISZERO SWAP1 JUMP JUMPDEST SWAP1 POP PUSH1 0x20 DUP2 RETURNDATASIZE PUSH1 0x20 GT PUSH2 0x2468 JUMPI JUMPDEST DUP2 PUSH2 0x2459 PUSH1 0x20 SWAP4 DUP4 PUSH2 0x2094 JUMP JUMPDEST DUP2 ADD SUB SLT PUSH2 0x205D JUMPI MLOAD CODESIZE PUSH2 0x2430 JUMP JUMPDEST RETURNDATASIZE SWAP2 POP PUSH2 0x244C JUMP JUMPDEST PUSH1 0x40 MLOAD RETURNDATASIZE PUSH1 0x0 DUP3 RETURNDATACOPY RETURNDATASIZE SWAP1 REVERT JUMPDEST ISZERO PUSH2 0x2483 JUMPI JUMP JUMPDEST PUSH1 0x40 MLOAD PUSH3 0x461BCD PUSH1 0xE5 SHL DUP2 MSTORE PUSH1 0x20 PUSH1 0x4 DUP3 ADD MSTORE PUSH1 0xE PUSH1 0x24 DUP3 ADD MSTORE PUSH14 0x14D85B194818DBDB5C1B195D1959 PUSH1 0x92 SHL PUSH1 0x44 DUP3 ADD MSTORE PUSH1 0x64 SWAP1 REVERT JUMPDEST ISZERO PUSH2 0x24C0 JUMPI JUMP JUMPDEST PUSH1 0x40 MLOAD PUSH3 0x461BCD PUSH1 0xE5 SHL DUP2 MSTORE PUSH1 0x20 PUSH1 0x4 DUP3 ADD MSTORE PUSH1 0x16 PUSH1 0x24 DUP3 ADD MSTORE PUSH22 0x15185C99D95D08185B1C9958591E481C995858DA1959 PUSH1 0x52 SHL PUSH1 0x44 DUP3 ADD MSTORE PUSH1 0x64 SWAP1 REVERT JUMPDEST ISZERO PUSH2 0x2505 JUMPI JUMP JUMPDEST PUSH1 0x40 MLOAD PUSH3 0x461BCD PUSH1 0xE5 SHL DUP2 MSTORE PUSH1 0x20 PUSH1 0x4 DUP3 ADD MSTORE PUSH1 0x11 PUSH1 0x24 DUP3 ADD MSTORE PUSH17 0x2737BA103A343290383AB931B430B9B2B9 PUSH1 0x79 SHL PUSH1 0x44 DUP3 ADD MSTORE PUSH1 0x64 SWAP1 REVERT JUMPDEST ISZERO PUSH2 0x2545 JUMPI JUMP JUMPDEST PUSH1 0x40 MLOAD PUSH3 0x461BCD PUSH1 0xE5 SHL DUP2 MSTORE PUSH1 0x20 PUSH1 0x4 DUP3 ADD MSTORE PUSH1 0x10 PUSH1 0x24 DUP3 ADD MSTORE PUSH16 0x105B1C9958591E481C995919595B5959 PUSH1 0x82 SHL PUSH1 0x44 DUP3 ADD MSTORE PUSH1 0x64 SWAP1 REVERT JUMPDEST PUSH2 0x2710 PUSH32 0x0 DUP2 SUB DUP2 DUP2 GT PUSH2 0x213A JUMPI PUSH2 0x25D5 SWAP1 PUSH32 0x0 SWAP1 PUSH2 0x2183 JUMP JUMPDEST PUSH32 0x0 SWAP1 DUP3 DUP3 MUL SWAP3 DUP3 DUP5 DIV EQ DUP3 ISZERO OR ISZERO PUSH2 0x213A JUMPI PUSH2 0x2617 PUSH2 0x2315 SWAP2 PUSH2 0x2375 SWAP5 PUSH2 0x2163 JUMP JUMPDEST SWAP2 PUSH2 0x19F2 PUSH32 0x0 SWAP2 PUSH2 0x230F PUSH2 0x26D5 PUSH32 0x0 SWAP7 PUSH2 0x19F2 PUSH2 0x26C8 PUSH2 0x26C1 DUP11 PUSH2 0x269A DUP2 DUP12 PUSH32 0x0 PUSH2 0x279D JUMP JUMPDEST SWAP10 PUSH32 0x0 PUSH2 0x279D JUMP JUMPDEST DUP1 SWAP9 PUSH2 0x212D JUMP JUMPDEST PUSH1 0x1 SHR SWAP2 PUSH2 0x230F DUP11 PUSH2 0x21CD JUMP JUMPDEST SWAP6 PUSH2 0x21CD JUMP JUMPDEST PUSH1 0x4 SLOAD PUSH32 0x0 SWAP1 DUP2 DUP2 LT ISZERO PUSH2 0x2763 JUMPI PUSH2 0x2315 PUSH2 0x2375 SWAP3 PUSH2 0x19F2 PUSH32 0x0 SWAP4 PUSH2 0x275E DUP6 PUSH32 0x0 PUSH2 0x2183 JUMP JUMPDEST PUSH2 0x2150 JUMP JUMPDEST POP POP PUSH32 0x0 SWAP1 JUMP JUMPDEST SWAP1 PUSH1 0xFF DUP1 SWAP2 AND SWAP2 AND SUB SWAP1 PUSH1 0xFF DUP3 GT PUSH2 0x213A JUMPI JUMP JUMPDEST SWAP1 PUSH1 0xFF DUP4 AND PUSH1 0xFF DUP3 AND DUP2 DUP2 EQ PUSH2 0x27DD JUMPI LT PUSH2 0x27CD JUMPI PUSH2 0x27C2 PUSH2 0x2375 SWAP4 PUSH2 0x27C7 SWAP3 PUSH2 0x2789 JUMP JUMPDEST PUSH2 0x21CD JUMP JUMPDEST SWAP1 PUSH2 0x2163 JUMP JUMPDEST PUSH2 0x27C2 PUSH2 0x230F SWAP2 PUSH2 0x2375 SWAP5 PUSH2 0x2789 JUMP JUMPDEST POP POP POP SWAP1 POP SWAP1 JUMP JUMPDEST PUSH1 0x2 PUSH1 0x0 SLOAD EQ PUSH2 0x27F6 JUMPI PUSH1 0x2 PUSH1 0x0 SSTORE JUMP JUMPDEST PUSH1 0x40 MLOAD PUSH4 0x3EE5AEB5 PUSH1 0xE0 SHL DUP2 MSTORE PUSH1 0x4 SWAP1 REVERT INVALID LOG2 PUSH5 0x6970667358 0x22 SLT KECCAK256 0xE8 PUSH20 0x938047ABF7616F540086CFC091EA9A53381E121F 0x2D MUL 0xE6 0xA8 SWAP3 0x25 SAR 0xC6 0xDB 0xB5 PUSH5 0x736F6C6343 STOP ADDMOD XOR STOP CALLER 0xA6 PUSH13 0xC928B5EDB82AF9BD4992295415 GAS 0xB7 0xB0 SWAP5 0x26 SWAP5 0xBE LOG4 0xCE PREVRANDAO PUSH7 0x1D9A8736C688F6 MSTORE 0x22 0x23 SGT 0xE2 DUP5 MSIZE MSTORE DUP14 SWAP3 SIGNEXTEND PUSH6 0x115C16C04F3E 0xFC DUP3 0xAA 0xED 0xC9 PUSH28 0xE59F3F377C0D3F000000000000000000000000000000000000000000 "
        },
        "methodIdentifiers": {
          "OTTERPAD_DAO()": "edafc9af",
          "OTTERPAD_FEE_BPS()": "ef5ee995",
          "buy(uint256)": "d96a094a",
          "calculateTokensReceived(uint256)": "10d0ffdd",
          "checkSaleTokensRequired()": "5f655ea7",
          "deployToUniswap()": "12eff12c",
          "endPrice()": "b868723e",
          "escrowRakeBPS()": "b704a0c4",
          "foundersWallet()": "1bfaf155",
          "getAllocation(address)": "0e022923",
          "getCurrentPrice()": "eb91d37e",
          "getEscrowedAmount()": "8a19ecef",
          "getMinimumPurchase()": "af5b065a",
          "getPaymentTokenBalance()": "0f8c2798",
          "getSaleTokenBalance()": "f6a55a29",
          "getUserOrderIndices(address)": "bef08860",
          "hasSufficientSaleTokens()": "16c04948",
          "isDeployedToUniswap()": "25f97fb9",
          "lockLPTokenWallet()": "16c94b38",
          "orderCounter()": "b789bf52",
          "paymentToken()": "3013ce29",
          "purchases(uint256)": "8392fe31",
          "recoverStuckTokens(address,uint256)": "c596f3fe",
          "redeem(uint256)": "db006a75",
          "refund(uint256)": "278ecde1",
          "richInfoUrl()": "c7c8b437",
          "saleToken()": "e985e367",
          "startPrice()": "f1a9af89",
          "targetLiquidity()": "92258ec8",
          "targetReached()": "3bde5ba8",
          "title()": "4a79d50c",
          "totalActiveContributions()": "9513a0fd",
          "totalPaymentsIn()": "de7e3310",
          "totalTokensAllocated()": "c07f773a",
          "uniswapFactory()": "8bdb2afa",
          "uniswapRouter()": "735de9f7",
          "upfrontRakeBPS()": "560b842c",
          "userOrderIndices(address,uint256)": "5a59c551"
        }
      }
    }
  }
}