{
  "contracts/OtterPadFactory.sol": {
    "OtterPadFactory": {
      "abi": [
        {
          "inputs": [
            {
              "internalType": "address",
              "name": "_uniswapRouter",
              "type": "address"
            },
            {
              "internalType": "address",
              "name": "_uniswapFactory",
              "type": "address"
            }
          ],
          "stateMutability": "nonpayable",
          "type": "constructor"
        },
        {
          "anonymous": false,
          "inputs": [
            {
              "indexed": true,
              "internalType": "uint256",
              "name": "fundIndex",
              "type": "uint256"
            },
            {
              "indexed": true,
              "internalType": "address",
              "name": "fund",
              "type": "address"
            },
            {
              "indexed": true,
              "internalType": "address",
              "name": "saleToken",
              "type": "address"
            },
            {
              "indexed": false,
              "internalType": "address",
              "name": "paymentToken",
              "type": "address"
            },
            {
              "indexed": false,
              "internalType": "string",
              "name": "title",
              "type": "string"
            },
            {
              "indexed": false,
              "internalType": "uint256",
              "name": "targetLiquidity",
              "type": "uint256"
            },
            {
              "indexed": false,
              "internalType": "uint256",
              "name": "upfrontRakeBPS",
              "type": "uint256"
            },
            {
              "indexed": false,
              "internalType": "uint256",
              "name": "escrowRakeBPS",
              "type": "uint256"
            },
            {
              "indexed": false,
              "internalType": "address",
              "name": "foundersWallet",
              "type": "address"
            }
          ],
          "name": "FundCreated",
          "type": "event"
        },
        {
          "inputs": [
            {
              "internalType": "uint256",
              "name": "upfrontRakeBPS",
              "type": "uint256"
            },
            {
              "internalType": "uint256",
              "name": "escrowRakeBPS",
              "type": "uint256"
            },
            {
              "internalType": "uint256",
              "name": "startPrice",
              "type": "uint256"
            },
            {
              "internalType": "uint256",
              "name": "endPrice",
              "type": "uint256"
            },
            {
              "internalType": "uint256",
              "name": "targetLiquidity",
              "type": "uint256"
            },
            {
              "internalType": "address",
              "name": "saleToken",
              "type": "address"
            },
            {
              "internalType": "address",
              "name": "paymentToken",
              "type": "address"
            },
            {
              "internalType": "address",
              "name": "foundersWallet",
              "type": "address"
            },
            {
              "internalType": "string",
              "name": "title",
              "type": "string"
            },
            {
              "internalType": "string",
              "name": "richInfoUrl",
              "type": "string"
            }
          ],
          "name": "createFundraiser",
          "outputs": [
            {
              "internalType": "address",
              "name": "",
              "type": "address"
            }
          ],
          "stateMutability": "nonpayable",
          "type": "function"
        },
        {
          "inputs": [],
          "name": "fundCounterIndex",
          "outputs": [
            {
              "internalType": "uint256",
              "name": "",
              "type": "uint256"
            }
          ],
          "stateMutability": "view",
          "type": "function"
        },
        {
          "inputs": [
            {
              "internalType": "uint256",
              "name": "",
              "type": "uint256"
            }
          ],
          "name": "funds",
          "outputs": [
            {
              "internalType": "address",
              "name": "",
              "type": "address"
            }
          ],
          "stateMutability": "view",
          "type": "function"
        },
        {
          "inputs": [],
          "name": "uniswapFactory",
          "outputs": [
            {
              "internalType": "contract IUniswapV2Factory",
              "name": "",
              "type": "address"
            }
          ],
          "stateMutability": "view",
          "type": "function"
        },
        {
          "inputs": [],
          "name": "uniswapRouter",
          "outputs": [
            {
              "internalType": "contract IUniswapV2Router02",
              "name": "",
              "type": "address"
            }
          ],
          "stateMutability": "view",
          "type": "function"
        }
      ],
      "evm": {
        "bytecode": {
          "linkReferences": {},
          "object": "60c03461012e57601f6139f238819003918201601f19168301916001600160401b0383118484101761013357808492604094855283398101031261012e57610052602061004b83610149565b9201610149565b6001600160a01b03918216919082156100e957169081156100a45760805260a05260008055604051613894908161015e823960805181818160f301526102a8015260a051818181607101526102d00152f35b60405162461bcd60e51b815260206004820152601760248201527f496e76616c696420666163746f727920616464726573730000000000000000006044820152606490fd5b60405162461bcd60e51b815260206004820152601660248201527f496e76616c696420726f757465722061646472657373000000000000000000006044820152606490fd5b600080fd5b634e487b7160e01b600052604160045260246000fd5b51906001600160a01b038216820361012e5756fe608060405260043610156200001357600080fd5b60003560e01c80632249b06f14620001425780634a64a9441462000122578063735de9f714620000db5780637b8e889514620000a557638bdb2afa146200005957600080fd5b34620000a0576000366003190112620000a0576040517f00000000000000000000000000000000000000000000000000000000000000006001600160a01b03168152602090f35b600080fd5b34620000a0576020366003190112620000a0576004356000526001602052602060018060a01b0360406000205416604051908152f35b34620000a0576000366003190112620000a0576040517f00000000000000000000000000000000000000000000000000000000000000006001600160a01b03168152602090f35b34620000a0576000366003190112620000a0576020600054604051908152f35b34620000a057610140366003190112620000a05760a435604460646001600160a01b0383168303620000a05760c435926001600160a01b0384168403620000a05760e435916001600160a01b0383168303620000a05767ffffffffffffffff9061010435828111620000a057620001be903690600401620005df565b9461012435838111620000a057620001db903690600401620005df565b916001600160a01b03851615620005a8576001600160a01b038816156200056e576001600160a01b038616156200052c57865115620004fc57813515620004c457813581351115620004775760843515620004355760405193846131d6810110906131d6860111176200041f576200028684936131d66200068986396101806131d686018181526200026f91018a62000646565b906131d68601820360206131d68801015262000646565b6001600160a01b038681166131d6860160408101919091528a821660608201527f0000000000000000000000000000000000000000000000000000000000000000821660808201527f0000000000000000000000000000000000000000000000000000000000000000821660a0820152933560c0850152913560e08401526084356101008401526004356101208401526024356101408401529086166101609092019190915203906000f0801562000413576000805480825260016020526040822080546001600160a01b0319166001600160a01b039094169384179055905491949091906000198214620003fd57602096869460017f50b4f3f88fa42aeb9bc1bc2a3e72dc49a2a1c4b9f4724032a21af5f03ea7a9a79401600055620003c760405193849360018060a01b0316845260c08b85015260c084019062000646565b6084356040840152600435606084015260243560808401526001600160a01b0397881660a08401529616950390a4604051908152f35b634e487b7160e01b600052601160045260246000fd5b6040513d6000823e3d90fd5b634e487b7160e01b600052604160045260246000fd5b907f496e76616c696420746172676574206c697175696469747900000000000000006040519162461bcd60e51b83526020600484015260186024840152820152fd5b90606560f81b6084927f456e64207072696365206d7573742065786365656420737461727420707269636040519362461bcd60e51b85526020600486015260216024860152840152820152fd5b9072496e76616c696420737461727420707269636560681b6040519162461bcd60e51b83526020600484015260136024840152820152fd5b906a456d707479207469746c6560a81b6040519162461bcd60e51b835260206004840152600b6024840152820152fd5b907f496e76616c696420666f756e646572732077616c6c65740000000000000000006040519162461bcd60e51b83526020600484015260176024840152820152fd5b907424b73b30b634b2103830bcb6b2b73a103a37b5b2b760591b6040519162461bcd60e51b83526020600484015260156024840152820152fd5b907124b73b30b634b21039b0b632903a37b5b2b760711b6040519162461bcd60e51b83526020600484015260126024840152820152fd5b81601f82011215620000a05780359067ffffffffffffffff928383116200041f5760405193601f8401601f19908116603f01168501908111858210176200041f5760405282845260208383010111620000a057816000926020809301838601378301015290565b919082519283825260005b84811062000673575050826000602080949584010152601f8019910116010190565b6020818301810151848301820152016200065156fe61020080604052346200098f57620031d6803803809162000021828562000994565b8339810190610180818303126200098f5780516001600160401b0381116200098f578262000051918301620009b8565b602082015190926001600160401b0382116200098f5762000074918301620009b8565b91620000836040830162000a2e565b620000916060840162000a2e565b90620000a06080850162000a2e565b93620000af60a0820162000a2e565b9560c08201519660e0830151610100988985015192610120998a87015195620000e26101606101408a0151990162000a2e565b9a60016000558051156200095a578415158062000950575b8062000946575b1562000910578615620008cb57606488106200087a578888018089116200086457611b58106200081f576001600160a01b038c1615620007da576001600160a01b038a16151580620007c7575b1562000782576001600160a01b038a8116908c16146200073d576001600160a01b0383161515806200072a575b15620006e5578051906001600160401b038211620005dd5760065490600182811c92168015620006da575b6020831014620005bc5781601f84931162000679575b50602090601f8311600114620005ff57600092620005f3575b50508160011b916000199060031b1c1916176006555b8051906001600160401b038211620005dd5760075490600182811c92168015620005d2575b6020831014620005bc5781601f8493116200055b575b50602090601f8311600114620004dd57600092620004d1575b50508160011b916000199060031b1c1916176007555b6001600160a01b03978816608081905289891660a05290881660c052961660e05260405163313ce56760e01b8082529096602090889060049082905afa9687156200049e57600097620004aa575b506101a096875260405190815296602090889060049082906001600160a01b03165afa9687156200049e5760009762000466575b506101c0968752895287526101405261016052610180526101e092835260405193612737958662000a5f87396080518681816101e7015281816103320152818161043c01528181610cfa0152818161178301526122f0015260a05186818161071a0152818161143101528181611545015281816117e60152611de3015260c051868181611259015261183a015260e0518681816111540152611973015251858181610287015281816121b30152818161256f015261260d015251848181611029015281816121d901528181612596015281816126330152612660015261014051848181610608015281816110c20152818161111c0152818161217a015281816124d001526125d901526101605184818161065b0152818161131301528181612109015261247b01526101805184818161068c01528181611083015281816111a30152818161173b0152818161213401526124a9015251838181612220015261253e015251828181612243015261251601525181818161080301528181610cb80152818161168101526116e90152f35b6200048e91975060203d60201162000496575b62000485818362000994565b81019062000a43565b9538620002d7565b503d62000479565b6040513d6000823e3d90fd5b6020919750620004c990823d8411620004965762000485818362000994565b9690620002a3565b0151905038806200023f565b6007600090815293506000805160206200319683398151915291905b601f19841685106200053f576001945083601f1981161062000525575b505050811b0160075562000255565b015160001960f88460031b161c1916905538808062000516565b81810151835560209485019460019093019290910190620004f9565b600760005290915060008051602062003196833981519152601f840160051c810160208510620005b4575b90849392915b601f830160051c82018110620005a457505062000226565b600081558594506001016200058c565b508062000586565b634e487b7160e01b600052602260045260246000fd5b91607f169162000210565b634e487b7160e01b600052604160045260246000fd5b015190503880620001d5565b60066000908152600080516020620031b68339815191529350601f198516905b81811062000660575090846001959493921062000646575b505050811b01600655620001eb565b015160001960f88460031b161c1916905538808062000637565b929360206001819287860151815501950193016200061f565b6006600052909150600080516020620031b6833981519152601f840160051c810160208510620006d2575b90849392915b601f830160051c82018110620006c2575050620001bc565b60008155859450600101620006aa565b5080620006a4565b91607f1691620001a6565b60405162461bcd60e51b815260206004820152601960248201527f496e76616c696420556e697377617020616464726573736573000000000000006044820152606490fd5b506001600160a01b03841615156200017b565b60405162461bcd60e51b815260206004820152601860248201527f546f6b656e73206d75737420626520646966666572656e7400000000000000006044820152606490fd5b60405162461bcd60e51b815260206004820152601760248201527f496e76616c696420746f6b656e206164647265737365730000000000000000006044820152606490fd5b506001600160a01b038b1615156200014e565b60405162461bcd60e51b815260206004820152601760248201527f496e76616c696420666f756e646572732077616c6c65740000000000000000006044820152606490fd5b60405162461bcd60e51b815260206004820152601a60248201527f436f6d62696e65642072616b65203730252065786365656465640000000000006044820152606490fd5b634e487b7160e01b600052601160045260246000fd5b60405162461bcd60e51b8152602060048201526024808201527f557066726f6e742072616b65206d757374206265203e3d204f747465725061646044820152632066656560e01b6064820152608490fd5b60405162461bcd60e51b815260206004820152601660248201527f496e76616c6964207461726765742066756e64696e67000000000000000000006044820152606490fd5b60405162461bcd60e51b815260206004820152600e60248201526d496e76616c69642070726963657360901b6044820152606490fd5b5084861162000101565b50851515620000fa565b60405162461bcd60e51b815260206004820152600d60248201526c496e76616c6964207469746c6560981b6044820152606490fd5b600080fd5b601f909101601f19168101906001600160401b03821190821017620005dd57604052565b919080601f840112156200098f5782516001600160401b038111620005dd5760209060405192620009f383601f19601f850116018562000994565b8184528282870101116200098f5760005b81811062000a1a57508260009394955001015290565b858101830151848201840152820162000a04565b51906001600160a01b03821682036200098f57565b908160209103126200098f575160ff811681036200098f579056fe608060408181526004908136101561001657600080fd5b600092833560e01c9081630e02292314611e24575080630f8c279814611db657806310d0ffdd14611d9657806312eff12c146116d657806316c04948146116b05780631bfaf1551461166c57806325f97fb914611648578063278ecde1146114605780633013ce291461141c5780633bde5ba8146113f55780634a79d50c14611336578063560b842c146112fb5780635a59c551146112a55780635f655ea714611288578063735de9f7146112445780638392fe31146111d05780638a19ecef146111835780638bdb2afa1461113f57806392258ec8146111045780639513a0fd146110e6578063af5b065a146110a6578063b704a0c41461106b578063b789bf521461104c578063b868723e14611011578063bef0886014610f61578063c07f773a14610f42578063c596f3fe14610c90578063c7c8b43714610b8d578063d96a094a146105c7578063db006a7514610380578063de7e331014610361578063e985e3671461031d578063eb91d37e146102f9578063edafc9af146102ca578063ef5ee995146102ae578063f1a9af891461026f5763f6a55a29146101bb57600080fd5b3461025957826003193601126102595780516370a0823160e01b815230928101929092526020826024817f00000000000000000000000000000000000000000000000000000000000000006001600160a01b03165afa918215610265578392610229575b6020838351908152f35b9091506020813d60201161025d575b8161024560209383611f88565b81010312610259576020925051903861021f565b8280fd5b3d9150610238565b81513d85823e3d90fd5b8382346102aa57816003193601126102aa57602090517f00000000000000000000000000000000000000000000000000000000000000008152f35b5080fd5b8382346102aa57816003193601126102aa576020905160648152f35b8382346102aa57816003193601126102aa5760209051736c83e86e05697c995d718c1cfa3f9045a38c7cd48152f35b8382346102aa57816003193601126102aa576020906103166125d4565b9051908152f35b8382346102aa57816003193601126102aa57517f00000000000000000000000000000000000000000000000000000000000000006001600160a01b03168152602090f35b8382346102aa57816003193601126102aa576020906005549051908152f35b5034610259576020806003193601126105c35782359261039e6126de565b60ff60025460081c161561058957838552600882528285206003810180549092916001600160a01b0391906103d683831633146123f7565b60ff8260a01c16610551576002906103f460ff8460a81c1615612437565b019384549182156105185760ff60a81b1916600160a81b179055855163a9059cbb60e01b815233848201908152602081019290925291859183919082908b90829060400103927f0000000000000000000000000000000000000000000000000000000000000000165af190811561050e5787916104e1575b50156104a65750907fd171fb179b26c49e23fe46eddd44d3048a1ad277b62144ac0725fbcf1dbf6d52915492519283523392a36001815580f35b835162461bcd60e51b81529081018390526015602482015274151bdad95b881d1c985b9cd9995c8819985a5b1959605a1b6044820152606490fd5b6105019150843d8611610507575b6104f98183611f88565b8101906122bd565b3861046c565b503d6104ef565b85513d89823e3d90fd5b875162461bcd60e51b815280860188905260136024820152724e6f20746f6b656e7320746f2072656465656d60681b6044820152606490fd5b865162461bcd60e51b8152808501879052601260248201527113dc99195c881dd85cc81c99599d5b99195960721b6044820152606490fd5b915162461bcd60e51b815291820152601660248201527515185c99d95d081b9bdd081c995858da1959081e595d60521b6044820152606490fd5b8380fd5b508290346102aa5760209081600319360112610259578335916105e86126de565b61060660ff6002546105fc82821615612375565b60081c16156123b2565b7f000000000000000000000000000000000000000000000000000000000000000092620f424084048110610b5157606480820291808304821481151715610b3e579086979161271080940461068681866106807f000000000000000000000000000000000000000000000000000000000000000086612044565b04612077565b946106b17f000000000000000000000000000000000000000000000000000000000000000084612044565b04926106ca846106c5886106c58688612077565b612077565b956106e18a6106da898954612021565b1115612084565b6106ea846120d2565b89516323b872dd60e01b8152338882015230602480830191909152604482018790529c91966001600160a01b03957f000000000000000000000000000000000000000000000000000000000000000087169390928c81888185895af1918215610b335791610b16575b5015610ad4578b5187815260208101839052604081018590526060810191909152608081018a90528d918f9133907fbefb6e85b11f40ee4d9e3e8bb0bedbc3d1eee123b1328c0ea0a4b842cbfff7499060a090a28c519063a9059cbb60e01b93848352736c83e86e05697c995d718c1cfa3f9045a38c7cd48c8401528201528b8160448185885af1918215610ac95791610aac575b5015610a755791899161083f938f8d5180968195829483528d7f000000000000000000000000000000000000000000000000000000000000000090840160209093929193604081019460018060a01b031681520152565b03925af1908115610a6b578c91610a4e575b5015610a0f5750600198895496600019928389146109fd57908b878a8f8d8c9160099786850187558c83519761088689611f56565b8d8952898901958652848901918252606089019533875260808a019585875260a08b019580875260c08c0199438b52815260088d522099518a5551908901555160028801556003870193511683549260ff60a01b9051151560a01b169160ff60a81b9051151560a81b169269ffffffffffffffffffff60b01b16171717905551910155338d5252878b20805491680100000000000000008310156109ec57509161095c826109ca948d7fb176b33ad40225c8f67dc6ef0cba96c0c88f67afd36396e2198a3f48a44fc7a099989795018155611ff3565b819291549060031b918a831b921b191617905561097b83600354612021565b600355610989868554612021565b978880955561099a82600554612021565b6005555193849333974293869192608093969594919660a084019784526020840152604083015260608201520152565b0390a310156109d857815580f35b61010061ff00196002541617600255815580f35b634e487b7160e01b8d52604187528cfd5b634e487b7160e01b8d5260118752828dfd5b875162461bcd60e51b81528086018890526017818c01527f557066726f6e74207472616e73666572206661696c65640000000000000000006044820152fd5b610a659150883d8a11610507576104f98183611f88565b8c610851565b89513d8e823e3d90fd5b8a5162461bcd60e51b81528089018b90526013818f015272119959481d1c985b9cd9995c8819985a5b1959606a1b60448201528490fd5b610ac391508b3d8d11610507576104f98183611f88565b8f6107e8565b8d51903d90823e3d90fd5b508a5162461bcd60e51b81528089018b90526017818f01527f5061796d656e74207472616e73666572206661696c656400000000000000000060448201528490fd5b610b2d91508c8d3d10610507576104f98183611f88565b38610753565b8e51903d90823e3d90fd5b634e487b7160e01b875260118852602487fd5b825162461bcd60e51b8152808701839052601660248201527542656c6f77206d696e696d756d20707572636861736560501b6044820152606490fd5b503461025957826003193601126102595780519183600754906001908260011c92600181168015610c86575b6020958686108214610c735750848852908115610c515750600114610bf8575b610bf48686610bea828b0383611f88565b5191829182611faa565b0390f35b929550600783527fa66cc928b5edb82af9bd49922954155ab7b0942694bea4ce44661d9a8736c6885b828410610c3e5750505082610bf494610bea928201019438610bd9565b8054868501880152928601928101610c21565b60ff191687860152505050151560051b8301019250610bea82610bf438610bd9565b634e487b7160e01b845260229052602483fd5b93607f1693610bb9565b5034610259578060031936011261025957610ca9611f3b565b6024918235610cb66126de565b7f0000000000000000000000000000000000000000000000000000000000000000926001600160a01b03908185163303610f005760ff6002541615610ebe578116907f0000000000000000000000000000000000000000000000000000000000000000168114610e7c5782516370a0823160e01b815230878201526020949085818881865afa908115610e72579084918a91610e3d575b5010610e0457835163a9059cbb60e01b81526001600160a01b039091168782019081526020810193909352918491839182908a90829060400103925af1908115610dfa578691610ddd575b5015610da657846001815580f35b5162461bcd60e51b81529283015260159082015274151bdad95b881c9958dbdd995c9e4819985a5b1959605a1b6044820152606490fd5b610df49150833d8511610507576104f98183611f88565b38610d98565b82513d88823e3d90fd5b835162461bcd60e51b815280880186905260148188015273496e73756666696369656e742062616c616e636560601b6044820152606490fd5b809250878092503d8311610e6b575b610e568183611f88565b81010312610e675783905138610d4d565b8880fd5b503d610e4c565b85513d8b823e3d90fd5b825162461bcd60e51b81526020818801526019818701527f43616e6e6f74207265636f7665722073616c6520746f6b656e000000000000006044820152606490fd5b835162461bcd60e51b8152602081890152601b818801527f4e6f7420796574206465706c6f79656420746f20556e697377617000000000006044820152606490fd5b835162461bcd60e51b81526020818901526019818801527f4f6e6c7920666f756e646572732063616e207265636f766572000000000000006044820152606490fd5b8382346102aa57816003193601126102aa576020906003549051908152f35b50823461100e576020908160031936011261100e5782906001600160a01b03610f88611f3b565b16815260098352818120908251808584549182815201908194845286842090845b818110610ffa5750505081610fbf910382611f88565b83519485948186019282875251809352850193925b828110610fe357505050500390f35b835185528695509381019392810192600101610fd4565b825484529288019260019283019201610fa9565b80fd5b8382346102aa57816003193601126102aa57602090517f00000000000000000000000000000000000000000000000000000000000000008152f35b8382346102aa57816003193601126102aa576020906001549051908152f35b8382346102aa57816003193601126102aa57602090517f00000000000000000000000000000000000000000000000000000000000000008152f35b8382346102aa57816003193601126102aa5760209051620f42407f0000000000000000000000000000000000000000000000000000000000000000048152f35b50903461025957826003193601126102595760209250549051908152f35b8382346102aa57816003193601126102aa57602090517f00000000000000000000000000000000000000000000000000000000000000008152f35b8382346102aa57816003193601126102aa57517f00000000000000000000000000000000000000000000000000000000000000006001600160a01b03168152602090f35b8382346102aa57816003193601126102aa576020906127106111c86005547f000000000000000000000000000000000000000000000000000000000000000090612044565b049051908152f35b50346102595760203660031901126102595760ff8160e094843581526008602052208054936001820154936002830154916003840154930154948151968752602087015285015260018060a01b0381166060850152818160a01c161515608085015260a81c16151560a083015260c0820152f35b8382346102aa57816003193601126102aa57517f00000000000000000000000000000000000000000000000000000000000000006001600160a01b03168152602090f35b8382346102aa57816003193601126102aa57602090610316612476565b8382346102aa57806003193601126102aa576112bf611f3b565b6001600160a01b0316825260096020528082208054602435939084101561100e57506020926112ed91611ff3565b91905490519160031b1c8152f35b8382346102aa57816003193601126102aa57602090517f00000000000000000000000000000000000000000000000000000000000000008152f35b503461025957826003193601126102595780519183600654906001908260011c926001811680156113eb575b6020958686108214610c735750848852908115610c51575060011461139257610bf48686610bea828b0383611f88565b929550600683527ff652222313e28459528d920b65115c16c04f3efc82aaedc97be59f3f377c0d3f5b8284106113d85750505082610bf494610bea928201019438610bd9565b80548685018801529286019281016113bb565b93607f1693611362565b8382346102aa57816003193601126102aa5760209060ff60025460081c1690519015158152f35b8382346102aa57816003193601126102aa57517f00000000000000000000000000000000000000000000000000000000000000006001600160a01b03168152602090f35b50903461025957602091826003193601126105c3578135926114806126de565b61149460ff6002546105fc82821615612375565b838552600881528185206003810180546001600160a01b039291906114bc84821633146123f7565b60ff8160a01c1661161257600189938693836114e160ff6115419660a81c1615612437565b60ff60a01b191660a084901b17905560028101546003546115029190612077565b600355019361151385548954612077565b88558454875163a9059cbb60e01b815233818b01908152602081019290925294859384928391604090910190565b03927f0000000000000000000000000000000000000000000000000000000000000000165af19081156116085787916115eb575b50156115b95754925490825193845283015242908201527f40afc61aabce83a502901d9dc66b15d1ee92bfcc1f4f56923b8434dcd041e19f60603392a36001815580f35b50905162461bcd60e51b815291820152600d60248201526c1499599d5b990819985a5b1959609a1b6044820152606490fd5b6116029150833d8511610507576104f98183611f88565b38611575565b84513d89823e3d90fd5b855162461bcd60e51b8152808801869052601060248201526f105b1c9958591e481c99599d5b99195960821b6044820152606490fd5b8382346102aa57816003193601126102aa5760209060ff6002541690519015158152f35b8382346102aa57816003193601126102aa57517f00000000000000000000000000000000000000000000000000000000000000006001600160a01b03168152602090f35b8382346102aa57816003193601126102aa576020906116cd6122d5565b90519015158152f35b50346102595782600319360112610259577f0000000000000000000000000000000000000000000000000000000000000000906001600160a01b038083163303611d535760025460ff8160081c1615611d1b5760ff16611ce5576127106117606005547f000000000000000000000000000000000000000000000000000000000000000090612044565b049380549361176f8686612077565b9461178061177b6122d5565b612271565b837f0000000000000000000000000000000000000000000000000000000000000000168551976370a0823160e01b93848a5230868b01526020996024948b828781885afa918215611bd4578d92611cb2575b506117e260035480931015612271565b8c897f000000000000000000000000000000000000000000000000000000000000000016978b51908152308a8201528d8189818c5afa918215611c345791611c81575b5010611c3f57885163095ea7b360e01b8082527f00000000000000000000000000000000000000000000000000000000000000008a166001600160a01b0381168a840190815260208101949094529290918e918e90829081906040010381858b5af1918215611c345791611c17575b5015611bde5789519081526001600160a01b038216818901908152602081018c90528c9082908f908290819060400103918b5af1908115611bd4578d91611bb7575b5015611b7c5760035490607842014211611b6a57908c918a519b8c9262e8e33760e81b8452878b8501528989850152806044850152816064850152608484015260a48301523060c48301524260780160e4830152815a9361010492606095f1988915611b60578b99611b26575b5081611a52575b50506002805460ff19166001179055855163e6a4390560e01b81529384015282015284816044817f000000000000000000000000000000000000000000000000000000000000000086165afa948515611a485786956119e9575b505090516001600160a01b0390931683525060208201527f4db0962b68e799b508143f50800f1504d656cbd0fe6395510c0dca385bfd84079080604081015b0390a180f35b9080929550813d8311611a41575b611a018183611f88565b81010312611a3d575192831683036105c3576119e37f4db0962b68e799b508143f50800f1504d656cbd0fe6395510c0dca385bfd8407386119a4565b8480fd5b503d6119f7565b83513d88823e3d90fd5b875163a9059cbb60e01b81526001600160a01b038216878201908152602081018490528b908290819003604001818f8a5af1908115610a6b578c91611b09575b5015611acf577fefc7f1f15becfaec7a3c17eec78be3fa7adb45698f26fcfd25efe1754c242331918789928351928352168b820152a1388061194a565b875162461bcd60e51b81528087018b905260158186015274115cd8dc9bddc81c995b19585cd94819985a5b1959605a1b6044820152606490fd5b611b2091508b3d8d11610507576104f98183611f88565b38611a92565b9098506060813d606011611b58575b81611b4260609383611f88565b81010312611b54578701519738611943565b8a80fd5b3d9150611b35565b88513d8d823e3d90fd5b634e487b7160e01b8d5260118852858dfd5b885162461bcd60e51b81528088018c90526016818701527514185e5b595b9d08185c1c1c9bdd994819985a5b195960521b6044820152606490fd5b611bce91508c8d3d10610507576104f98183611f88565b386118d6565b8a513d8f823e3d90fd5b895162461bcd60e51b81528089018d905260148188015273151bdad95b88185c1c1c9bdd994819985a5b195960621b6044820152606490fd5b611c2e91508d803d10610507576104f98183611f88565b38611894565b8c51903d90823e3d90fd5b885162461bcd60e51b81528088018c9052601b818701527f496e73756666696369656e74207061796d656e7420746f6b656e7300000000006044820152606490fd5b90508c81813d8311611cab575b611c988183611f88565b81010312611ca7575138611825565b8d80fd5b503d611c8e565b9091508b81813d8311611cde575b611cca8183611f88565b81010312611cda575190386117d2565b8c80fd5b503d611cc0565b815162461bcd60e51b8152602081860152601060248201526f105b1c9958591e4819195c1b1bde595960821b6044820152606490fd5b825162461bcd60e51b8152602081870152601260248201527115185c99d95d081b9bdd081c995858da195960721b6044820152606490fd5b815162461bcd60e51b8152602081860152601860248201527f4f6e6c7920666f756e646572732063616e206465706c6f7900000000000000006044820152606490fd5b50823461100e57602036600319011261100e5750610316602092356120d2565b503461025957826003193601126102595780516370a0823160e01b815230928101929092526020826024817f00000000000000000000000000000000000000000000000000000000000000006001600160a01b03165afa918215610265578392610229576020838351908152f35b91849150346102aa576020938460031936011261025957611e43611f3b565b6001600160a01b03908116845260098652828420805480875290855286852091929185918790818a0190845b8b828210611f2557505050611e8692500387611f88565b805b8651811015611f1c57878160051b88010151825260088852848220855190611eaf82611f56565b8054825260018101548a830152600281015491828882015260c086600384015493898516606085015260ff60a0908087831c1615968715608088015260a81c161515908501520154910152611f08575b50600101611e88565b611f159060019297612021565b9590611eff565b87868651908152f35b855484526001958601958c955093019201611e6f565b600435906001600160a01b0382168203611f5157565b600080fd5b60e0810190811067ffffffffffffffff821117611f7257604052565b634e487b7160e01b600052604160045260246000fd5b90601f8019910116810190811067ffffffffffffffff821117611f7257604052565b6020808252825181830181905290939260005b828110611fdf57505060409293506000838284010152601f8019910116010190565b818101860151848201604001528501611fbd565b805482101561200b5760005260206000200190600090565b634e487b7160e01b600052603260045260246000fd5b9190820180921161202e57565b634e487b7160e01b600052601160045260246000fd5b8181029291811591840414171561202e57565b8115612061570490565b634e487b7160e01b600052601260045260246000fd5b9190820391821161202e57565b1561208b57565b60405162461bcd60e51b815260206004820152600e60248201526d115e18d959591cc81d185c99d95d60921b6044820152606490fd5b60ff16604d811161202e57600a0a90565b60648102908082046064148115171561202e5761220961221461216161226e946106c5612710809204916106c561212e84836106807f00000000000000000000000000000000000000000000000000000000000000008c612044565b916121597f00000000000000000000000000000000000000000000000000000000000000008a612044565b049188612077565b61220e6004549161220e6121758285612021565b6121a27f000000000000000000000000000000000000000000000000000000000000000080921115612084565b6122096121ad6125d4565b956122037f0000000000000000000000000000000000000000000000000000000000000000956121fd877f0000000000000000000000000000000000000000000000000000000000000000612077565b92612021565b90612044565b612057565b90612021565b60011c916122036122687f000000000000000000000000000000000000000000000000000000000000000080937f000000000000000000000000000000000000000000000000000000000000000090612696565b916120c1565b90565b1561227857565b60405162461bcd60e51b815260206004820152601860248201527f496e73756666696369656e742073616c6520746f6b656e7300000000000000006044820152606490fd5b90816020910312611f5157518015158103611f515790565b6040516370a0823160e01b81523060048201526020816024817f00000000000000000000000000000000000000000000000000000000000000006001600160a01b03165afa90811561236957600091612337575b50612332612476565b111590565b90506020813d602011612361575b8161235260209383611f88565b81010312611f51575138612329565b3d9150612345565b6040513d6000823e3d90fd5b1561237c57565b60405162461bcd60e51b815260206004820152600e60248201526d14d85b194818dbdb5c1b195d195960921b6044820152606490fd5b156123b957565b60405162461bcd60e51b815260206004820152601660248201527515185c99d95d08185b1c9958591e481c995858da195960521b6044820152606490fd5b156123fe57565b60405162461bcd60e51b81526020600482015260116024820152702737ba103a343290383ab931b430b9b2b960791b6044820152606490fd5b1561243e57565b60405162461bcd60e51b815260206004820152601060248201526f105b1c9958591e481c995919595b595960821b6044820152606490fd5b6127107f0000000000000000000000000000000000000000000000000000000000000000810381811161202e576124ce907f000000000000000000000000000000000000000000000000000000000000000090612077565b7f00000000000000000000000000000000000000000000000000000000000000009082820292828404148215171561202e5761251061220e9161226e94612057565b916122097f0000000000000000000000000000000000000000000000000000000000000000916122036125ce7f0000000000000000000000000000000000000000000000000000000000000000966122096125c16125ba8a612593818b7f0000000000000000000000000000000000000000000000000000000000000000612696565b997f0000000000000000000000000000000000000000000000000000000000000000612696565b8098612021565b60011c916122038a6120c1565b956120c1565b6004547f0000000000000000000000000000000000000000000000000000000000000000908181101561265c5761220e61226e926122097f000000000000000000000000000000000000000000000000000000000000000093612657857f0000000000000000000000000000000000000000000000000000000000000000612077565b612044565b50507f000000000000000000000000000000000000000000000000000000000000000090565b9060ff8091169116039060ff821161202e57565b9060ff831660ff82168181146126d657106126c6576126bb61226e936126c092612682565b6120c1565b90612057565b6126bb6122039161226e94612682565b505050905090565b6002600054146126ef576002600055565b604051633ee5aeb560e01b8152600490fdfea264697066735822122033dd824f621887cf74eef59c4b2117c40ad7349fadfeff27f92803cf6474c4fb64736f6c63430008180033a66cc928b5edb82af9bd49922954155ab7b0942694bea4ce44661d9a8736c688f652222313e28459528d920b65115c16c04f3efc82aaedc97be59f3f377c0d3fa26469706673582212204440401d73ebe6463c30691fe6b74fa0268fd50389f3f29012522cba3c9c7e6264736f6c63430008180033",
          "opcodes": "PUSH1 0xC0 CALLVALUE PUSH2 0x12E JUMPI PUSH1 0x1F PUSH2 0x39F2 CODESIZE DUP2 SWAP1 SUB SWAP2 DUP3 ADD PUSH1 0x1F NOT AND DUP4 ADD SWAP2 PUSH1 0x1 PUSH1 0x1 PUSH1 0x40 SHL SUB DUP4 GT DUP5 DUP5 LT OR PUSH2 0x133 JUMPI DUP1 DUP5 SWAP3 PUSH1 0x40 SWAP5 DUP6 MSTORE DUP4 CODECOPY DUP2 ADD SUB SLT PUSH2 0x12E JUMPI PUSH2 0x52 PUSH1 0x20 PUSH2 0x4B DUP4 PUSH2 0x149 JUMP JUMPDEST SWAP3 ADD PUSH2 0x149 JUMP JUMPDEST PUSH1 0x1 PUSH1 0x1 PUSH1 0xA0 SHL SUB SWAP2 DUP3 AND SWAP2 SWAP1 DUP3 ISZERO PUSH2 0xE9 JUMPI AND SWAP1 DUP2 ISZERO PUSH2 0xA4 JUMPI PUSH1 0x80 MSTORE PUSH1 0xA0 MSTORE PUSH1 0x0 DUP1 SSTORE PUSH1 0x40 MLOAD PUSH2 0x3894 SWAP1 DUP2 PUSH2 0x15E DUP3 CODECOPY PUSH1 0x80 MLOAD DUP2 DUP2 DUP2 PUSH1 0xF3 ADD MSTORE PUSH2 0x2A8 ADD MSTORE PUSH1 0xA0 MLOAD DUP2 DUP2 DUP2 PUSH1 0x71 ADD MSTORE PUSH2 0x2D0 ADD MSTORE RETURN JUMPDEST PUSH1 0x40 MLOAD PUSH3 0x461BCD PUSH1 0xE5 SHL DUP2 MSTORE PUSH1 0x20 PUSH1 0x4 DUP3 ADD MSTORE PUSH1 0x17 PUSH1 0x24 DUP3 ADD MSTORE PUSH32 0x496E76616C696420666163746F72792061646472657373000000000000000000 PUSH1 0x44 DUP3 ADD MSTORE PUSH1 0x64 SWAP1 REVERT JUMPDEST PUSH1 0x40 MLOAD PUSH3 0x461BCD PUSH1 0xE5 SHL DUP2 MSTORE PUSH1 0x20 PUSH1 0x4 DUP3 ADD MSTORE PUSH1 0x16 PUSH1 0x24 DUP3 ADD MSTORE PUSH32 0x496E76616C696420726F75746572206164647265737300000000000000000000 PUSH1 0x44 DUP3 ADD MSTORE PUSH1 0x64 SWAP1 REVERT JUMPDEST PUSH1 0x0 DUP1 REVERT JUMPDEST PUSH4 0x4E487B71 PUSH1 0xE0 SHL PUSH1 0x0 MSTORE PUSH1 0x41 PUSH1 0x4 MSTORE PUSH1 0x24 PUSH1 0x0 REVERT JUMPDEST MLOAD SWAP1 PUSH1 0x1 PUSH1 0x1 PUSH1 0xA0 SHL SUB DUP3 AND DUP3 SUB PUSH2 0x12E JUMPI JUMP INVALID PUSH1 0x80 PUSH1 0x40 MSTORE PUSH1 0x4 CALLDATASIZE LT ISZERO PUSH3 0x13 JUMPI PUSH1 0x0 DUP1 REVERT JUMPDEST PUSH1 0x0 CALLDATALOAD PUSH1 0xE0 SHR DUP1 PUSH4 0x2249B06F EQ PUSH3 0x142 JUMPI DUP1 PUSH4 0x4A64A944 EQ PUSH3 0x122 JUMPI DUP1 PUSH4 0x735DE9F7 EQ PUSH3 0xDB JUMPI DUP1 PUSH4 0x7B8E8895 EQ PUSH3 0xA5 JUMPI PUSH4 0x8BDB2AFA EQ PUSH3 0x59 JUMPI PUSH1 0x0 DUP1 REVERT JUMPDEST CALLVALUE PUSH3 0xA0 JUMPI PUSH1 0x0 CALLDATASIZE PUSH1 0x3 NOT ADD SLT PUSH3 0xA0 JUMPI PUSH1 0x40 MLOAD PUSH32 0x0 PUSH1 0x1 PUSH1 0x1 PUSH1 0xA0 SHL SUB AND DUP2 MSTORE PUSH1 0x20 SWAP1 RETURN JUMPDEST PUSH1 0x0 DUP1 REVERT JUMPDEST CALLVALUE PUSH3 0xA0 JUMPI PUSH1 0x20 CALLDATASIZE PUSH1 0x3 NOT ADD SLT PUSH3 0xA0 JUMPI PUSH1 0x4 CALLDATALOAD PUSH1 0x0 MSTORE PUSH1 0x1 PUSH1 0x20 MSTORE PUSH1 0x20 PUSH1 0x1 DUP1 PUSH1 0xA0 SHL SUB PUSH1 0x40 PUSH1 0x0 KECCAK256 SLOAD AND PUSH1 0x40 MLOAD SWAP1 DUP2 MSTORE RETURN JUMPDEST CALLVALUE PUSH3 0xA0 JUMPI PUSH1 0x0 CALLDATASIZE PUSH1 0x3 NOT ADD SLT PUSH3 0xA0 JUMPI PUSH1 0x40 MLOAD PUSH32 0x0 PUSH1 0x1 PUSH1 0x1 PUSH1 0xA0 SHL SUB AND DUP2 MSTORE PUSH1 0x20 SWAP1 RETURN JUMPDEST CALLVALUE PUSH3 0xA0 JUMPI PUSH1 0x0 CALLDATASIZE PUSH1 0x3 NOT ADD SLT PUSH3 0xA0 JUMPI PUSH1 0x20 PUSH1 0x0 SLOAD PUSH1 0x40 MLOAD SWAP1 DUP2 MSTORE RETURN JUMPDEST CALLVALUE PUSH3 0xA0 JUMPI PUSH2 0x140 CALLDATASIZE PUSH1 0x3 NOT ADD SLT PUSH3 0xA0 JUMPI PUSH1 0xA4 CALLDATALOAD PUSH1 0x44 PUSH1 0x64 PUSH1 0x1 PUSH1 0x1 PUSH1 0xA0 SHL SUB DUP4 AND DUP4 SUB PUSH3 0xA0 JUMPI PUSH1 0xC4 CALLDATALOAD SWAP3 PUSH1 0x1 PUSH1 0x1 PUSH1 0xA0 SHL SUB DUP5 AND DUP5 SUB PUSH3 0xA0 JUMPI PUSH1 0xE4 CALLDATALOAD SWAP2 PUSH1 0x1 PUSH1 0x1 PUSH1 0xA0 SHL SUB DUP4 AND DUP4 SUB PUSH3 0xA0 JUMPI PUSH8 0xFFFFFFFFFFFFFFFF SWAP1 PUSH2 0x104 CALLDATALOAD DUP3 DUP2 GT PUSH3 0xA0 JUMPI PUSH3 0x1BE SWAP1 CALLDATASIZE SWAP1 PUSH1 0x4 ADD PUSH3 0x5DF JUMP JUMPDEST SWAP5 PUSH2 0x124 CALLDATALOAD DUP4 DUP2 GT PUSH3 0xA0 JUMPI PUSH3 0x1DB SWAP1 CALLDATASIZE SWAP1 PUSH1 0x4 ADD PUSH3 0x5DF JUMP JUMPDEST SWAP2 PUSH1 0x1 PUSH1 0x1 PUSH1 0xA0 SHL SUB DUP6 AND ISZERO PUSH3 0x5A8 JUMPI PUSH1 0x1 PUSH1 0x1 PUSH1 0xA0 SHL SUB DUP9 AND ISZERO PUSH3 0x56E JUMPI PUSH1 0x1 PUSH1 0x1 PUSH1 0xA0 SHL SUB DUP7 AND ISZERO PUSH3 0x52C JUMPI DUP7 MLOAD ISZERO PUSH3 0x4FC JUMPI DUP2 CALLDATALOAD ISZERO PUSH3 0x4C4 JUMPI DUP2 CALLDATALOAD DUP2 CALLDATALOAD GT ISZERO PUSH3 0x477 JUMPI PUSH1 0x84 CALLDATALOAD ISZERO PUSH3 0x435 JUMPI PUSH1 0x40 MLOAD SWAP4 DUP5 PUSH2 0x31D6 DUP2 ADD LT SWAP1 PUSH2 0x31D6 DUP7 ADD GT OR PUSH3 0x41F JUMPI PUSH3 0x286 DUP5 SWAP4 PUSH2 0x31D6 PUSH3 0x689 DUP7 CODECOPY PUSH2 0x180 PUSH2 0x31D6 DUP7 ADD DUP2 DUP2 MSTORE PUSH3 0x26F SWAP2 ADD DUP11 PUSH3 0x646 JUMP JUMPDEST SWAP1 PUSH2 0x31D6 DUP7 ADD DUP3 SUB PUSH1 0x20 PUSH2 0x31D6 DUP9 ADD ADD MSTORE PUSH3 0x646 JUMP JUMPDEST PUSH1 0x1 PUSH1 0x1 PUSH1 0xA0 SHL SUB DUP7 DUP2 AND PUSH2 0x31D6 DUP7 ADD PUSH1 0x40 DUP2 ADD SWAP2 SWAP1 SWAP2 MSTORE DUP11 DUP3 AND PUSH1 0x60 DUP3 ADD MSTORE PUSH32 0x0 DUP3 AND PUSH1 0x80 DUP3 ADD MSTORE PUSH32 0x0 DUP3 AND PUSH1 0xA0 DUP3 ADD MSTORE SWAP4 CALLDATALOAD PUSH1 0xC0 DUP6 ADD MSTORE SWAP2 CALLDATALOAD PUSH1 0xE0 DUP5 ADD MSTORE PUSH1 0x84 CALLDATALOAD PUSH2 0x100 DUP5 ADD MSTORE PUSH1 0x4 CALLDATALOAD PUSH2 0x120 DUP5 ADD MSTORE PUSH1 0x24 CALLDATALOAD PUSH2 0x140 DUP5 ADD MSTORE SWAP1 DUP7 AND PUSH2 0x160 SWAP1 SWAP3 ADD SWAP2 SWAP1 SWAP2 MSTORE SUB SWAP1 PUSH1 0x0 CREATE DUP1 ISZERO PUSH3 0x413 JUMPI PUSH1 0x0 DUP1 SLOAD DUP1 DUP3 MSTORE PUSH1 0x1 PUSH1 0x20 MSTORE PUSH1 0x40 DUP3 KECCAK256 DUP1 SLOAD PUSH1 0x1 PUSH1 0x1 PUSH1 0xA0 SHL SUB NOT AND PUSH1 0x1 PUSH1 0x1 PUSH1 0xA0 SHL SUB SWAP1 SWAP5 AND SWAP4 DUP5 OR SWAP1 SSTORE SWAP1 SLOAD SWAP2 SWAP5 SWAP1 SWAP2 SWAP1 PUSH1 0x0 NOT DUP3 EQ PUSH3 0x3FD JUMPI PUSH1 0x20 SWAP7 DUP7 SWAP5 PUSH1 0x1 PUSH32 0x50B4F3F88FA42AEB9BC1BC2A3E72DC49A2A1C4B9F4724032A21AF5F03EA7A9A7 SWAP5 ADD PUSH1 0x0 SSTORE PUSH3 0x3C7 PUSH1 0x40 MLOAD SWAP4 DUP5 SWAP4 PUSH1 0x1 DUP1 PUSH1 0xA0 SHL SUB AND DUP5 MSTORE PUSH1 0xC0 DUP12 DUP6 ADD MSTORE PUSH1 0xC0 DUP5 ADD SWAP1 PUSH3 0x646 JUMP JUMPDEST PUSH1 0x84 CALLDATALOAD PUSH1 0x40 DUP5 ADD MSTORE PUSH1 0x4 CALLDATALOAD PUSH1 0x60 DUP5 ADD MSTORE PUSH1 0x24 CALLDATALOAD PUSH1 0x80 DUP5 ADD MSTORE PUSH1 0x1 PUSH1 0x1 PUSH1 0xA0 SHL SUB SWAP8 DUP9 AND PUSH1 0xA0 DUP5 ADD MSTORE SWAP7 AND SWAP6 SUB SWAP1 LOG4 PUSH1 0x40 MLOAD SWAP1 DUP2 MSTORE RETURN JUMPDEST PUSH4 0x4E487B71 PUSH1 0xE0 SHL PUSH1 0x0 MSTORE PUSH1 0x11 PUSH1 0x4 MSTORE PUSH1 0x24 PUSH1 0x0 REVERT JUMPDEST PUSH1 0x40 MLOAD RETURNDATASIZE PUSH1 0x0 DUP3 RETURNDATACOPY RETURNDATASIZE SWAP1 REVERT JUMPDEST PUSH4 0x4E487B71 PUSH1 0xE0 SHL PUSH1 0x0 MSTORE PUSH1 0x41 PUSH1 0x4 MSTORE PUSH1 0x24 PUSH1 0x0 REVERT JUMPDEST SWAP1 PUSH32 0x496E76616C696420746172676574206C69717569646974790000000000000000 PUSH1 0x40 MLOAD SWAP2 PUSH3 0x461BCD PUSH1 0xE5 SHL DUP4 MSTORE PUSH1 0x20 PUSH1 0x4 DUP5 ADD MSTORE PUSH1 0x18 PUSH1 0x24 DUP5 ADD MSTORE DUP3 ADD MSTORE REVERT JUMPDEST SWAP1 PUSH1 0x65 PUSH1 0xF8 SHL PUSH1 0x84 SWAP3 PUSH32 0x456E64207072696365206D757374206578636565642073746172742070726963 PUSH1 0x40 MLOAD SWAP4 PUSH3 0x461BCD PUSH1 0xE5 SHL DUP6 MSTORE PUSH1 0x20 PUSH1 0x4 DUP7 ADD MSTORE PUSH1 0x21 PUSH1 0x24 DUP7 ADD MSTORE DUP5 ADD MSTORE DUP3 ADD MSTORE REVERT JUMPDEST SWAP1 PUSH19 0x496E76616C6964207374617274207072696365 PUSH1 0x68 SHL PUSH1 0x40 MLOAD SWAP2 PUSH3 0x461BCD PUSH1 0xE5 SHL DUP4 MSTORE PUSH1 0x20 PUSH1 0x4 DUP5 ADD MSTORE PUSH1 0x13 PUSH1 0x24 DUP5 ADD MSTORE DUP3 ADD MSTORE REVERT JUMPDEST SWAP1 PUSH11 0x456D707479207469746C65 PUSH1 0xA8 SHL PUSH1 0x40 MLOAD SWAP2 PUSH3 0x461BCD PUSH1 0xE5 SHL DUP4 MSTORE PUSH1 0x20 PUSH1 0x4 DUP5 ADD MSTORE PUSH1 0xB PUSH1 0x24 DUP5 ADD MSTORE DUP3 ADD MSTORE REVERT JUMPDEST SWAP1 PUSH32 0x496E76616C696420666F756E646572732077616C6C6574000000000000000000 PUSH1 0x40 MLOAD SWAP2 PUSH3 0x461BCD PUSH1 0xE5 SHL DUP4 MSTORE PUSH1 0x20 PUSH1 0x4 DUP5 ADD MSTORE PUSH1 0x17 PUSH1 0x24 DUP5 ADD MSTORE DUP3 ADD MSTORE REVERT JUMPDEST SWAP1 PUSH21 0x24B73B30B634B2103830BCB6B2B73A103A37B5B2B7 PUSH1 0x59 SHL PUSH1 0x40 MLOAD SWAP2 PUSH3 0x461BCD PUSH1 0xE5 SHL DUP4 MSTORE PUSH1 0x20 PUSH1 0x4 DUP5 ADD MSTORE PUSH1 0x15 PUSH1 0x24 DUP5 ADD MSTORE DUP3 ADD MSTORE REVERT JUMPDEST SWAP1 PUSH18 0x24B73B30B634B21039B0B632903A37B5B2B7 PUSH1 0x71 SHL PUSH1 0x40 MLOAD SWAP2 PUSH3 0x461BCD PUSH1 0xE5 SHL DUP4 MSTORE PUSH1 0x20 PUSH1 0x4 DUP5 ADD MSTORE PUSH1 0x12 PUSH1 0x24 DUP5 ADD MSTORE DUP3 ADD MSTORE REVERT JUMPDEST DUP2 PUSH1 0x1F DUP3 ADD SLT ISZERO PUSH3 0xA0 JUMPI DUP1 CALLDATALOAD SWAP1 PUSH8 0xFFFFFFFFFFFFFFFF SWAP3 DUP4 DUP4 GT PUSH3 0x41F JUMPI PUSH1 0x40 MLOAD SWAP4 PUSH1 0x1F DUP5 ADD PUSH1 0x1F NOT SWAP1 DUP2 AND PUSH1 0x3F ADD AND DUP6 ADD SWAP1 DUP2 GT DUP6 DUP3 LT OR PUSH3 0x41F JUMPI PUSH1 0x40 MSTORE DUP3 DUP5 MSTORE PUSH1 0x20 DUP4 DUP4 ADD ADD GT PUSH3 0xA0 JUMPI DUP2 PUSH1 0x0 SWAP3 PUSH1 0x20 DUP1 SWAP4 ADD DUP4 DUP7 ADD CALLDATACOPY DUP4 ADD ADD MSTORE SWAP1 JUMP JUMPDEST SWAP2 SWAP1 DUP3 MLOAD SWAP3 DUP4 DUP3 MSTORE PUSH1 0x0 JUMPDEST DUP5 DUP2 LT PUSH3 0x673 JUMPI POP POP DUP3 PUSH1 0x0 PUSH1 0x20 DUP1 SWAP5 SWAP6 DUP5 ADD ADD MSTORE PUSH1 0x1F DUP1 NOT SWAP2 ADD AND ADD ADD SWAP1 JUMP JUMPDEST PUSH1 0x20 DUP2 DUP4 ADD DUP2 ADD MLOAD DUP5 DUP4 ADD DUP3 ADD MSTORE ADD PUSH3 0x651 JUMP INVALID PUSH2 0x200 DUP1 PUSH1 0x40 MSTORE CALLVALUE PUSH3 0x98F JUMPI PUSH3 0x31D6 DUP1 CODESIZE SUB DUP1 SWAP2 PUSH3 0x21 DUP3 DUP6 PUSH3 0x994 JUMP JUMPDEST DUP4 CODECOPY DUP2 ADD SWAP1 PUSH2 0x180 DUP2 DUP4 SUB SLT PUSH3 0x98F JUMPI DUP1 MLOAD PUSH1 0x1 PUSH1 0x1 PUSH1 0x40 SHL SUB DUP2 GT PUSH3 0x98F JUMPI DUP3 PUSH3 0x51 SWAP2 DUP4 ADD PUSH3 0x9B8 JUMP JUMPDEST PUSH1 0x20 DUP3 ADD MLOAD SWAP1 SWAP3 PUSH1 0x1 PUSH1 0x1 PUSH1 0x40 SHL SUB DUP3 GT PUSH3 0x98F JUMPI PUSH3 0x74 SWAP2 DUP4 ADD PUSH3 0x9B8 JUMP JUMPDEST SWAP2 PUSH3 0x83 PUSH1 0x40 DUP4 ADD PUSH3 0xA2E JUMP JUMPDEST PUSH3 0x91 PUSH1 0x60 DUP5 ADD PUSH3 0xA2E JUMP JUMPDEST SWAP1 PUSH3 0xA0 PUSH1 0x80 DUP6 ADD PUSH3 0xA2E JUMP JUMPDEST SWAP4 PUSH3 0xAF PUSH1 0xA0 DUP3 ADD PUSH3 0xA2E JUMP JUMPDEST SWAP6 PUSH1 0xC0 DUP3 ADD MLOAD SWAP7 PUSH1 0xE0 DUP4 ADD MLOAD PUSH2 0x100 SWAP9 DUP10 DUP6 ADD MLOAD SWAP3 PUSH2 0x120 SWAP10 DUP11 DUP8 ADD MLOAD SWAP6 PUSH3 0xE2 PUSH2 0x160 PUSH2 0x140 DUP11 ADD MLOAD SWAP10 ADD PUSH3 0xA2E JUMP JUMPDEST SWAP11 PUSH1 0x1 PUSH1 0x0 SSTORE DUP1 MLOAD ISZERO PUSH3 0x95A JUMPI DUP5 ISZERO ISZERO DUP1 PUSH3 0x950 JUMPI JUMPDEST DUP1 PUSH3 0x946 JUMPI JUMPDEST ISZERO PUSH3 0x910 JUMPI DUP7 ISZERO PUSH3 0x8CB JUMPI PUSH1 0x64 DUP9 LT PUSH3 0x87A JUMPI DUP9 DUP9 ADD DUP1 DUP10 GT PUSH3 0x864 JUMPI PUSH2 0x1B58 LT PUSH3 0x81F JUMPI PUSH1 0x1 PUSH1 0x1 PUSH1 0xA0 SHL SUB DUP13 AND ISZERO PUSH3 0x7DA JUMPI PUSH1 0x1 PUSH1 0x1 PUSH1 0xA0 SHL SUB DUP11 AND ISZERO ISZERO DUP1 PUSH3 0x7C7 JUMPI JUMPDEST ISZERO PUSH3 0x782 JUMPI PUSH1 0x1 PUSH1 0x1 PUSH1 0xA0 SHL SUB DUP11 DUP2 AND SWAP1 DUP13 AND EQ PUSH3 0x73D JUMPI PUSH1 0x1 PUSH1 0x1 PUSH1 0xA0 SHL SUB DUP4 AND ISZERO ISZERO DUP1 PUSH3 0x72A JUMPI JUMPDEST ISZERO PUSH3 0x6E5 JUMPI DUP1 MLOAD SWAP1 PUSH1 0x1 PUSH1 0x1 PUSH1 0x40 SHL SUB DUP3 GT PUSH3 0x5DD JUMPI PUSH1 0x6 SLOAD SWAP1 PUSH1 0x1 DUP3 DUP2 SHR SWAP3 AND DUP1 ISZERO PUSH3 0x6DA JUMPI JUMPDEST PUSH1 0x20 DUP4 LT EQ PUSH3 0x5BC JUMPI DUP2 PUSH1 0x1F DUP5 SWAP4 GT PUSH3 0x679 JUMPI JUMPDEST POP PUSH1 0x20 SWAP1 PUSH1 0x1F DUP4 GT PUSH1 0x1 EQ PUSH3 0x5FF JUMPI PUSH1 0x0 SWAP3 PUSH3 0x5F3 JUMPI JUMPDEST POP POP DUP2 PUSH1 0x1 SHL SWAP2 PUSH1 0x0 NOT SWAP1 PUSH1 0x3 SHL SHR NOT AND OR PUSH1 0x6 SSTORE JUMPDEST DUP1 MLOAD SWAP1 PUSH1 0x1 PUSH1 0x1 PUSH1 0x40 SHL SUB DUP3 GT PUSH3 0x5DD JUMPI PUSH1 0x7 SLOAD SWAP1 PUSH1 0x1 DUP3 DUP2 SHR SWAP3 AND DUP1 ISZERO PUSH3 0x5D2 JUMPI JUMPDEST PUSH1 0x20 DUP4 LT EQ PUSH3 0x5BC JUMPI DUP2 PUSH1 0x1F DUP5 SWAP4 GT PUSH3 0x55B JUMPI JUMPDEST POP PUSH1 0x20 SWAP1 PUSH1 0x1F DUP4 GT PUSH1 0x1 EQ PUSH3 0x4DD JUMPI PUSH1 0x0 SWAP3 PUSH3 0x4D1 JUMPI JUMPDEST POP POP DUP2 PUSH1 0x1 SHL SWAP2 PUSH1 0x0 NOT SWAP1 PUSH1 0x3 SHL SHR NOT AND OR PUSH1 0x7 SSTORE JUMPDEST PUSH1 0x1 PUSH1 0x1 PUSH1 0xA0 SHL SUB SWAP8 DUP9 AND PUSH1 0x80 DUP2 SWAP1 MSTORE DUP10 DUP10 AND PUSH1 0xA0 MSTORE SWAP1 DUP9 AND PUSH1 0xC0 MSTORE SWAP7 AND PUSH1 0xE0 MSTORE PUSH1 0x40 MLOAD PUSH4 0x313CE567 PUSH1 0xE0 SHL DUP1 DUP3 MSTORE SWAP1 SWAP7 PUSH1 0x20 SWAP1 DUP9 SWAP1 PUSH1 0x4 SWAP1 DUP3 SWAP1 GAS STATICCALL SWAP7 DUP8 ISZERO PUSH3 0x49E JUMPI PUSH1 0x0 SWAP8 PUSH3 0x4AA JUMPI JUMPDEST POP PUSH2 0x1A0 SWAP7 DUP8 MSTORE PUSH1 0x40 MLOAD SWAP1 DUP2 MSTORE SWAP7 PUSH1 0x20 SWAP1 DUP9 SWAP1 PUSH1 0x4 SWAP1 DUP3 SWAP1 PUSH1 0x1 PUSH1 0x1 PUSH1 0xA0 SHL SUB AND GAS STATICCALL SWAP7 DUP8 ISZERO PUSH3 0x49E JUMPI PUSH1 0x0 SWAP8 PUSH3 0x466 JUMPI JUMPDEST POP PUSH2 0x1C0 SWAP7 DUP8 MSTORE DUP10 MSTORE DUP8 MSTORE PUSH2 0x140 MSTORE PUSH2 0x160 MSTORE PUSH2 0x180 MSTORE PUSH2 0x1E0 SWAP3 DUP4 MSTORE PUSH1 0x40 MLOAD SWAP4 PUSH2 0x2737 SWAP6 DUP7 PUSH3 0xA5F DUP8 CODECOPY PUSH1 0x80 MLOAD DUP7 DUP2 DUP2 PUSH2 0x1E7 ADD MSTORE DUP2 DUP2 PUSH2 0x332 ADD MSTORE DUP2 DUP2 PUSH2 0x43C ADD MSTORE DUP2 DUP2 PUSH2 0xCFA ADD MSTORE DUP2 DUP2 PUSH2 0x1783 ADD MSTORE PUSH2 0x22F0 ADD MSTORE PUSH1 0xA0 MLOAD DUP7 DUP2 DUP2 PUSH2 0x71A ADD MSTORE DUP2 DUP2 PUSH2 0x1431 ADD MSTORE DUP2 DUP2 PUSH2 0x1545 ADD MSTORE DUP2 DUP2 PUSH2 0x17E6 ADD MSTORE PUSH2 0x1DE3 ADD MSTORE PUSH1 0xC0 MLOAD DUP7 DUP2 DUP2 PUSH2 0x1259 ADD MSTORE PUSH2 0x183A ADD MSTORE PUSH1 0xE0 MLOAD DUP7 DUP2 DUP2 PUSH2 0x1154 ADD MSTORE PUSH2 0x1973 ADD MSTORE MLOAD DUP6 DUP2 DUP2 PUSH2 0x287 ADD MSTORE DUP2 DUP2 PUSH2 0x21B3 ADD MSTORE DUP2 DUP2 PUSH2 0x256F ADD MSTORE PUSH2 0x260D ADD MSTORE MLOAD DUP5 DUP2 DUP2 PUSH2 0x1029 ADD MSTORE DUP2 DUP2 PUSH2 0x21D9 ADD MSTORE DUP2 DUP2 PUSH2 0x2596 ADD MSTORE DUP2 DUP2 PUSH2 0x2633 ADD MSTORE PUSH2 0x2660 ADD MSTORE PUSH2 0x140 MLOAD DUP5 DUP2 DUP2 PUSH2 0x608 ADD MSTORE DUP2 DUP2 PUSH2 0x10C2 ADD MSTORE DUP2 DUP2 PUSH2 0x111C ADD MSTORE DUP2 DUP2 PUSH2 0x217A ADD MSTORE DUP2 DUP2 PUSH2 0x24D0 ADD MSTORE PUSH2 0x25D9 ADD MSTORE PUSH2 0x160 MLOAD DUP5 DUP2 DUP2 PUSH2 0x65B ADD MSTORE DUP2 DUP2 PUSH2 0x1313 ADD MSTORE DUP2 DUP2 PUSH2 0x2109 ADD MSTORE PUSH2 0x247B ADD MSTORE PUSH2 0x180 MLOAD DUP5 DUP2 DUP2 PUSH2 0x68C ADD MSTORE DUP2 DUP2 PUSH2 0x1083 ADD MSTORE DUP2 DUP2 PUSH2 0x11A3 ADD MSTORE DUP2 DUP2 PUSH2 0x173B ADD MSTORE DUP2 DUP2 PUSH2 0x2134 ADD MSTORE PUSH2 0x24A9 ADD MSTORE MLOAD DUP4 DUP2 DUP2 PUSH2 0x2220 ADD MSTORE PUSH2 0x253E ADD MSTORE MLOAD DUP3 DUP2 DUP2 PUSH2 0x2243 ADD MSTORE PUSH2 0x2516 ADD MSTORE MLOAD DUP2 DUP2 DUP2 PUSH2 0x803 ADD MSTORE DUP2 DUP2 PUSH2 0xCB8 ADD MSTORE DUP2 DUP2 PUSH2 0x1681 ADD MSTORE PUSH2 0x16E9 ADD MSTORE RETURN JUMPDEST PUSH3 0x48E SWAP2 SWAP8 POP PUSH1 0x20 RETURNDATASIZE PUSH1 0x20 GT PUSH3 0x496 JUMPI JUMPDEST PUSH3 0x485 DUP2 DUP4 PUSH3 0x994 JUMP JUMPDEST DUP2 ADD SWAP1 PUSH3 0xA43 JUMP JUMPDEST SWAP6 CODESIZE PUSH3 0x2D7 JUMP JUMPDEST POP RETURNDATASIZE PUSH3 0x479 JUMP JUMPDEST PUSH1 0x40 MLOAD RETURNDATASIZE PUSH1 0x0 DUP3 RETURNDATACOPY RETURNDATASIZE SWAP1 REVERT JUMPDEST PUSH1 0x20 SWAP2 SWAP8 POP PUSH3 0x4C9 SWAP1 DUP3 RETURNDATASIZE DUP5 GT PUSH3 0x496 JUMPI PUSH3 0x485 DUP2 DUP4 PUSH3 0x994 JUMP JUMPDEST SWAP7 SWAP1 PUSH3 0x2A3 JUMP JUMPDEST ADD MLOAD SWAP1 POP CODESIZE DUP1 PUSH3 0x23F JUMP JUMPDEST PUSH1 0x7 PUSH1 0x0 SWAP1 DUP2 MSTORE SWAP4 POP PUSH1 0x0 DUP1 MLOAD PUSH1 0x20 PUSH3 0x3196 DUP4 CODECOPY DUP2 MLOAD SWAP2 MSTORE SWAP2 SWAP1 JUMPDEST PUSH1 0x1F NOT DUP5 AND DUP6 LT PUSH3 0x53F JUMPI PUSH1 0x1 SWAP5 POP DUP4 PUSH1 0x1F NOT DUP2 AND LT PUSH3 0x525 JUMPI JUMPDEST POP POP POP DUP2 SHL ADD PUSH1 0x7 SSTORE PUSH3 0x255 JUMP JUMPDEST ADD MLOAD PUSH1 0x0 NOT PUSH1 0xF8 DUP5 PUSH1 0x3 SHL AND SHR NOT AND SWAP1 SSTORE CODESIZE DUP1 DUP1 PUSH3 0x516 JUMP JUMPDEST DUP2 DUP2 ADD MLOAD DUP4 SSTORE PUSH1 0x20 SWAP5 DUP6 ADD SWAP5 PUSH1 0x1 SWAP1 SWAP4 ADD SWAP3 SWAP1 SWAP2 ADD SWAP1 PUSH3 0x4F9 JUMP JUMPDEST PUSH1 0x7 PUSH1 0x0 MSTORE SWAP1 SWAP2 POP PUSH1 0x0 DUP1 MLOAD PUSH1 0x20 PUSH3 0x3196 DUP4 CODECOPY DUP2 MLOAD SWAP2 MSTORE PUSH1 0x1F DUP5 ADD PUSH1 0x5 SHR DUP2 ADD PUSH1 0x20 DUP6 LT PUSH3 0x5B4 JUMPI JUMPDEST SWAP1 DUP5 SWAP4 SWAP3 SWAP2 JUMPDEST PUSH1 0x1F DUP4 ADD PUSH1 0x5 SHR DUP3 ADD DUP2 LT PUSH3 0x5A4 JUMPI POP POP PUSH3 0x226 JUMP JUMPDEST PUSH1 0x0 DUP2 SSTORE DUP6 SWAP5 POP PUSH1 0x1 ADD PUSH3 0x58C JUMP JUMPDEST POP DUP1 PUSH3 0x586 JUMP JUMPDEST PUSH4 0x4E487B71 PUSH1 0xE0 SHL PUSH1 0x0 MSTORE PUSH1 0x22 PUSH1 0x4 MSTORE PUSH1 0x24 PUSH1 0x0 REVERT JUMPDEST SWAP2 PUSH1 0x7F AND SWAP2 PUSH3 0x210 JUMP JUMPDEST PUSH4 0x4E487B71 PUSH1 0xE0 SHL PUSH1 0x0 MSTORE PUSH1 0x41 PUSH1 0x4 MSTORE PUSH1 0x24 PUSH1 0x0 REVERT JUMPDEST ADD MLOAD SWAP1 POP CODESIZE DUP1 PUSH3 0x1D5 JUMP JUMPDEST PUSH1 0x6 PUSH1 0x0 SWAP1 DUP2 MSTORE PUSH1 0x0 DUP1 MLOAD PUSH1 0x20 PUSH3 0x31B6 DUP4 CODECOPY DUP2 MLOAD SWAP2 MSTORE SWAP4 POP PUSH1 0x1F NOT DUP6 AND SWAP1 JUMPDEST DUP2 DUP2 LT PUSH3 0x660 JUMPI POP SWAP1 DUP5 PUSH1 0x1 SWAP6 SWAP5 SWAP4 SWAP3 LT PUSH3 0x646 JUMPI JUMPDEST POP POP POP DUP2 SHL ADD PUSH1 0x6 SSTORE PUSH3 0x1EB JUMP JUMPDEST ADD MLOAD PUSH1 0x0 NOT PUSH1 0xF8 DUP5 PUSH1 0x3 SHL AND SHR NOT AND SWAP1 SSTORE CODESIZE DUP1 DUP1 PUSH3 0x637 JUMP JUMPDEST SWAP3 SWAP4 PUSH1 0x20 PUSH1 0x1 DUP2 SWAP3 DUP8 DUP7 ADD MLOAD DUP2 SSTORE ADD SWAP6 ADD SWAP4 ADD PUSH3 0x61F JUMP JUMPDEST PUSH1 0x6 PUSH1 0x0 MSTORE SWAP1 SWAP2 POP PUSH1 0x0 DUP1 MLOAD PUSH1 0x20 PUSH3 0x31B6 DUP4 CODECOPY DUP2 MLOAD SWAP2 MSTORE PUSH1 0x1F DUP5 ADD PUSH1 0x5 SHR DUP2 ADD PUSH1 0x20 DUP6 LT PUSH3 0x6D2 JUMPI JUMPDEST SWAP1 DUP5 SWAP4 SWAP3 SWAP2 JUMPDEST PUSH1 0x1F DUP4 ADD PUSH1 0x5 SHR DUP3 ADD DUP2 LT PUSH3 0x6C2 JUMPI POP POP PUSH3 0x1BC JUMP JUMPDEST PUSH1 0x0 DUP2 SSTORE DUP6 SWAP5 POP PUSH1 0x1 ADD PUSH3 0x6AA JUMP JUMPDEST POP DUP1 PUSH3 0x6A4 JUMP JUMPDEST SWAP2 PUSH1 0x7F AND SWAP2 PUSH3 0x1A6 JUMP JUMPDEST PUSH1 0x40 MLOAD PUSH3 0x461BCD PUSH1 0xE5 SHL DUP2 MSTORE PUSH1 0x20 PUSH1 0x4 DUP3 ADD MSTORE PUSH1 0x19 PUSH1 0x24 DUP3 ADD MSTORE PUSH32 0x496E76616C696420556E69737761702061646472657373657300000000000000 PUSH1 0x44 DUP3 ADD MSTORE PUSH1 0x64 SWAP1 REVERT JUMPDEST POP PUSH1 0x1 PUSH1 0x1 PUSH1 0xA0 SHL SUB DUP5 AND ISZERO ISZERO PUSH3 0x17B JUMP JUMPDEST PUSH1 0x40 MLOAD PUSH3 0x461BCD PUSH1 0xE5 SHL DUP2 MSTORE PUSH1 0x20 PUSH1 0x4 DUP3 ADD MSTORE PUSH1 0x18 PUSH1 0x24 DUP3 ADD MSTORE PUSH32 0x546F6B656E73206D75737420626520646966666572656E740000000000000000 PUSH1 0x44 DUP3 ADD MSTORE PUSH1 0x64 SWAP1 REVERT JUMPDEST PUSH1 0x40 MLOAD PUSH3 0x461BCD PUSH1 0xE5 SHL DUP2 MSTORE PUSH1 0x20 PUSH1 0x4 DUP3 ADD MSTORE PUSH1 0x17 PUSH1 0x24 DUP3 ADD MSTORE PUSH32 0x496E76616C696420746F6B656E20616464726573736573000000000000000000 PUSH1 0x44 DUP3 ADD MSTORE PUSH1 0x64 SWAP1 REVERT JUMPDEST POP PUSH1 0x1 PUSH1 0x1 PUSH1 0xA0 SHL SUB DUP12 AND ISZERO ISZERO PUSH3 0x14E JUMP JUMPDEST PUSH1 0x40 MLOAD PUSH3 0x461BCD PUSH1 0xE5 SHL DUP2 MSTORE PUSH1 0x20 PUSH1 0x4 DUP3 ADD MSTORE PUSH1 0x17 PUSH1 0x24 DUP3 ADD MSTORE PUSH32 0x496E76616C696420666F756E646572732077616C6C6574000000000000000000 PUSH1 0x44 DUP3 ADD MSTORE PUSH1 0x64 SWAP1 REVERT JUMPDEST PUSH1 0x40 MLOAD PUSH3 0x461BCD PUSH1 0xE5 SHL DUP2 MSTORE PUSH1 0x20 PUSH1 0x4 DUP3 ADD MSTORE PUSH1 0x1A PUSH1 0x24 DUP3 ADD MSTORE PUSH32 0x436F6D62696E65642072616B6520373025206578636565646564000000000000 PUSH1 0x44 DUP3 ADD MSTORE PUSH1 0x64 SWAP1 REVERT JUMPDEST PUSH4 0x4E487B71 PUSH1 0xE0 SHL PUSH1 0x0 MSTORE PUSH1 0x11 PUSH1 0x4 MSTORE PUSH1 0x24 PUSH1 0x0 REVERT JUMPDEST PUSH1 0x40 MLOAD PUSH3 0x461BCD PUSH1 0xE5 SHL DUP2 MSTORE PUSH1 0x20 PUSH1 0x4 DUP3 ADD MSTORE PUSH1 0x24 DUP1 DUP3 ADD MSTORE PUSH32 0x557066726F6E742072616B65206D757374206265203E3D204F74746572506164 PUSH1 0x44 DUP3 ADD MSTORE PUSH4 0x20666565 PUSH1 0xE0 SHL PUSH1 0x64 DUP3 ADD MSTORE PUSH1 0x84 SWAP1 REVERT JUMPDEST PUSH1 0x40 MLOAD PUSH3 0x461BCD PUSH1 0xE5 SHL DUP2 MSTORE PUSH1 0x20 PUSH1 0x4 DUP3 ADD MSTORE PUSH1 0x16 PUSH1 0x24 DUP3 ADD MSTORE PUSH32 0x496E76616C6964207461726765742066756E64696E6700000000000000000000 PUSH1 0x44 DUP3 ADD MSTORE PUSH1 0x64 SWAP1 REVERT JUMPDEST PUSH1 0x40 MLOAD PUSH3 0x461BCD PUSH1 0xE5 SHL DUP2 MSTORE PUSH1 0x20 PUSH1 0x4 DUP3 ADD MSTORE PUSH1 0xE PUSH1 0x24 DUP3 ADD MSTORE PUSH14 0x496E76616C696420707269636573 PUSH1 0x90 SHL PUSH1 0x44 DUP3 ADD MSTORE PUSH1 0x64 SWAP1 REVERT JUMPDEST POP DUP5 DUP7 GT PUSH3 0x101 JUMP JUMPDEST POP DUP6 ISZERO ISZERO PUSH3 0xFA JUMP JUMPDEST PUSH1 0x40 MLOAD PUSH3 0x461BCD PUSH1 0xE5 SHL DUP2 MSTORE PUSH1 0x20 PUSH1 0x4 DUP3 ADD MSTORE PUSH1 0xD PUSH1 0x24 DUP3 ADD MSTORE PUSH13 0x496E76616C6964207469746C65 PUSH1 0x98 SHL PUSH1 0x44 DUP3 ADD MSTORE PUSH1 0x64 SWAP1 REVERT JUMPDEST PUSH1 0x0 DUP1 REVERT JUMPDEST PUSH1 0x1F SWAP1 SWAP2 ADD PUSH1 0x1F NOT AND DUP2 ADD SWAP1 PUSH1 0x1 PUSH1 0x1 PUSH1 0x40 SHL SUB DUP3 GT SWAP1 DUP3 LT OR PUSH3 0x5DD JUMPI PUSH1 0x40 MSTORE JUMP JUMPDEST SWAP2 SWAP1 DUP1 PUSH1 0x1F DUP5 ADD SLT ISZERO PUSH3 0x98F JUMPI DUP3 MLOAD PUSH1 0x1 PUSH1 0x1 PUSH1 0x40 SHL SUB DUP2 GT PUSH3 0x5DD JUMPI PUSH1 0x20 SWAP1 PUSH1 0x40 MLOAD SWAP3 PUSH3 0x9F3 DUP4 PUSH1 0x1F NOT PUSH1 0x1F DUP6 ADD AND ADD DUP6 PUSH3 0x994 JUMP JUMPDEST DUP2 DUP5 MSTORE DUP3 DUP3 DUP8 ADD ADD GT PUSH3 0x98F JUMPI PUSH1 0x0 JUMPDEST DUP2 DUP2 LT PUSH3 0xA1A JUMPI POP DUP3 PUSH1 0x0 SWAP4 SWAP5 SWAP6 POP ADD ADD MSTORE SWAP1 JUMP JUMPDEST DUP6 DUP2 ADD DUP4 ADD MLOAD DUP5 DUP3 ADD DUP5 ADD MSTORE DUP3 ADD PUSH3 0xA04 JUMP JUMPDEST MLOAD SWAP1 PUSH1 0x1 PUSH1 0x1 PUSH1 0xA0 SHL SUB DUP3 AND DUP3 SUB PUSH3 0x98F JUMPI JUMP JUMPDEST SWAP1 DUP2 PUSH1 0x20 SWAP2 SUB SLT PUSH3 0x98F JUMPI MLOAD PUSH1 0xFF DUP2 AND DUP2 SUB PUSH3 0x98F JUMPI SWAP1 JUMP INVALID PUSH1 0x80 PUSH1 0x40 DUP2 DUP2 MSTORE PUSH1 0x4 SWAP1 DUP2 CALLDATASIZE LT ISZERO PUSH2 0x16 JUMPI PUSH1 0x0 DUP1 REVERT JUMPDEST PUSH1 0x0 SWAP3 DUP4 CALLDATALOAD PUSH1 0xE0 SHR SWAP1 DUP2 PUSH4 0xE022923 EQ PUSH2 0x1E24 JUMPI POP DUP1 PUSH4 0xF8C2798 EQ PUSH2 0x1DB6 JUMPI DUP1 PUSH4 0x10D0FFDD EQ PUSH2 0x1D96 JUMPI DUP1 PUSH4 0x12EFF12C EQ PUSH2 0x16D6 JUMPI DUP1 PUSH4 0x16C04948 EQ PUSH2 0x16B0 JUMPI DUP1 PUSH4 0x1BFAF155 EQ PUSH2 0x166C JUMPI DUP1 PUSH4 0x25F97FB9 EQ PUSH2 0x1648 JUMPI DUP1 PUSH4 0x278ECDE1 EQ PUSH2 0x1460 JUMPI DUP1 PUSH4 0x3013CE29 EQ PUSH2 0x141C JUMPI DUP1 PUSH4 0x3BDE5BA8 EQ PUSH2 0x13F5 JUMPI DUP1 PUSH4 0x4A79D50C EQ PUSH2 0x1336 JUMPI DUP1 PUSH4 0x560B842C EQ PUSH2 0x12FB JUMPI DUP1 PUSH4 0x5A59C551 EQ PUSH2 0x12A5 JUMPI DUP1 PUSH4 0x5F655EA7 EQ PUSH2 0x1288 JUMPI DUP1 PUSH4 0x735DE9F7 EQ PUSH2 0x1244 JUMPI DUP1 PUSH4 0x8392FE31 EQ PUSH2 0x11D0 JUMPI DUP1 PUSH4 0x8A19ECEF EQ PUSH2 0x1183 JUMPI DUP1 PUSH4 0x8BDB2AFA EQ PUSH2 0x113F JUMPI DUP1 PUSH4 0x92258EC8 EQ PUSH2 0x1104 JUMPI DUP1 PUSH4 0x9513A0FD EQ PUSH2 0x10E6 JUMPI DUP1 PUSH4 0xAF5B065A EQ PUSH2 0x10A6 JUMPI DUP1 PUSH4 0xB704A0C4 EQ PUSH2 0x106B JUMPI DUP1 PUSH4 0xB789BF52 EQ PUSH2 0x104C JUMPI DUP1 PUSH4 0xB868723E EQ PUSH2 0x1011 JUMPI DUP1 PUSH4 0xBEF08860 EQ PUSH2 0xF61 JUMPI DUP1 PUSH4 0xC07F773A EQ PUSH2 0xF42 JUMPI DUP1 PUSH4 0xC596F3FE EQ PUSH2 0xC90 JUMPI DUP1 PUSH4 0xC7C8B437 EQ PUSH2 0xB8D JUMPI DUP1 PUSH4 0xD96A094A EQ PUSH2 0x5C7 JUMPI DUP1 PUSH4 0xDB006A75 EQ PUSH2 0x380 JUMPI DUP1 PUSH4 0xDE7E3310 EQ PUSH2 0x361 JUMPI DUP1 PUSH4 0xE985E367 EQ PUSH2 0x31D JUMPI DUP1 PUSH4 0xEB91D37E EQ PUSH2 0x2F9 JUMPI DUP1 PUSH4 0xEDAFC9AF EQ PUSH2 0x2CA JUMPI DUP1 PUSH4 0xEF5EE995 EQ PUSH2 0x2AE JUMPI DUP1 PUSH4 0xF1A9AF89 EQ PUSH2 0x26F JUMPI PUSH4 0xF6A55A29 EQ PUSH2 0x1BB JUMPI PUSH1 0x0 DUP1 REVERT JUMPDEST CALLVALUE PUSH2 0x259 JUMPI DUP3 PUSH1 0x3 NOT CALLDATASIZE ADD SLT PUSH2 0x259 JUMPI DUP1 MLOAD PUSH4 0x70A08231 PUSH1 0xE0 SHL DUP2 MSTORE ADDRESS SWAP3 DUP2 ADD SWAP3 SWAP1 SWAP3 MSTORE PUSH1 0x20 DUP3 PUSH1 0x24 DUP2 PUSH32 0x0 PUSH1 0x1 PUSH1 0x1 PUSH1 0xA0 SHL SUB AND GAS STATICCALL SWAP2 DUP3 ISZERO PUSH2 0x265 JUMPI DUP4 SWAP3 PUSH2 0x229 JUMPI JUMPDEST PUSH1 0x20 DUP4 DUP4 MLOAD SWAP1 DUP2 MSTORE RETURN JUMPDEST SWAP1 SWAP2 POP PUSH1 0x20 DUP2 RETURNDATASIZE PUSH1 0x20 GT PUSH2 0x25D JUMPI JUMPDEST DUP2 PUSH2 0x245 PUSH1 0x20 SWAP4 DUP4 PUSH2 0x1F88 JUMP JUMPDEST DUP2 ADD SUB SLT PUSH2 0x259 JUMPI PUSH1 0x20 SWAP3 POP MLOAD SWAP1 CODESIZE PUSH2 0x21F JUMP JUMPDEST DUP3 DUP1 REVERT JUMPDEST RETURNDATASIZE SWAP2 POP PUSH2 0x238 JUMP JUMPDEST DUP2 MLOAD RETURNDATASIZE DUP6 DUP3 RETURNDATACOPY RETURNDATASIZE SWAP1 REVERT JUMPDEST DUP4 DUP3 CALLVALUE PUSH2 0x2AA JUMPI DUP2 PUSH1 0x3 NOT CALLDATASIZE ADD SLT PUSH2 0x2AA JUMPI PUSH1 0x20 SWAP1 MLOAD PUSH32 0x0 DUP2 MSTORE RETURN JUMPDEST POP DUP1 REVERT JUMPDEST DUP4 DUP3 CALLVALUE PUSH2 0x2AA JUMPI DUP2 PUSH1 0x3 NOT CALLDATASIZE ADD SLT PUSH2 0x2AA JUMPI PUSH1 0x20 SWAP1 MLOAD PUSH1 0x64 DUP2 MSTORE RETURN JUMPDEST DUP4 DUP3 CALLVALUE PUSH2 0x2AA JUMPI DUP2 PUSH1 0x3 NOT CALLDATASIZE ADD SLT PUSH2 0x2AA JUMPI PUSH1 0x20 SWAP1 MLOAD PUSH20 0x6C83E86E05697C995D718C1CFA3F9045A38C7CD4 DUP2 MSTORE RETURN JUMPDEST DUP4 DUP3 CALLVALUE PUSH2 0x2AA JUMPI DUP2 PUSH1 0x3 NOT CALLDATASIZE ADD SLT PUSH2 0x2AA JUMPI PUSH1 0x20 SWAP1 PUSH2 0x316 PUSH2 0x25D4 JUMP JUMPDEST SWAP1 MLOAD SWAP1 DUP2 MSTORE RETURN JUMPDEST DUP4 DUP3 CALLVALUE PUSH2 0x2AA JUMPI DUP2 PUSH1 0x3 NOT CALLDATASIZE ADD SLT PUSH2 0x2AA JUMPI MLOAD PUSH32 0x0 PUSH1 0x1 PUSH1 0x1 PUSH1 0xA0 SHL SUB AND DUP2 MSTORE PUSH1 0x20 SWAP1 RETURN JUMPDEST DUP4 DUP3 CALLVALUE PUSH2 0x2AA JUMPI DUP2 PUSH1 0x3 NOT CALLDATASIZE ADD SLT PUSH2 0x2AA JUMPI PUSH1 0x20 SWAP1 PUSH1 0x5 SLOAD SWAP1 MLOAD SWAP1 DUP2 MSTORE RETURN JUMPDEST POP CALLVALUE PUSH2 0x259 JUMPI PUSH1 0x20 DUP1 PUSH1 0x3 NOT CALLDATASIZE ADD SLT PUSH2 0x5C3 JUMPI DUP3 CALLDATALOAD SWAP3 PUSH2 0x39E PUSH2 0x26DE JUMP JUMPDEST PUSH1 0xFF PUSH1 0x2 SLOAD PUSH1 0x8 SHR AND ISZERO PUSH2 0x589 JUMPI DUP4 DUP6 MSTORE PUSH1 0x8 DUP3 MSTORE DUP3 DUP6 KECCAK256 PUSH1 0x3 DUP2 ADD DUP1 SLOAD SWAP1 SWAP3 SWAP2 PUSH1 0x1 PUSH1 0x1 PUSH1 0xA0 SHL SUB SWAP2 SWAP1 PUSH2 0x3D6 DUP4 DUP4 AND CALLER EQ PUSH2 0x23F7 JUMP JUMPDEST PUSH1 0xFF DUP3 PUSH1 0xA0 SHR AND PUSH2 0x551 JUMPI PUSH1 0x2 SWAP1 PUSH2 0x3F4 PUSH1 0xFF DUP5 PUSH1 0xA8 SHR AND ISZERO PUSH2 0x2437 JUMP JUMPDEST ADD SWAP4 DUP5 SLOAD SWAP2 DUP3 ISZERO PUSH2 0x518 JUMPI PUSH1 0xFF PUSH1 0xA8 SHL NOT AND PUSH1 0x1 PUSH1 0xA8 SHL OR SWAP1 SSTORE DUP6 MLOAD PUSH4 0xA9059CBB PUSH1 0xE0 SHL DUP2 MSTORE CALLER DUP5 DUP3 ADD SWAP1 DUP2 MSTORE PUSH1 0x20 DUP2 ADD SWAP3 SWAP1 SWAP3 MSTORE SWAP2 DUP6 SWAP2 DUP4 SWAP2 SWAP1 DUP3 SWAP1 DUP12 SWAP1 DUP3 SWAP1 PUSH1 0x40 ADD SUB SWAP3 PUSH32 0x0 AND GAS CALL SWAP1 DUP2 ISZERO PUSH2 0x50E JUMPI DUP8 SWAP2 PUSH2 0x4E1 JUMPI JUMPDEST POP ISZERO PUSH2 0x4A6 JUMPI POP SWAP1 PUSH32 0xD171FB179B26C49E23FE46EDDD44D3048A1AD277B62144AC0725FBCF1DBF6D52 SWAP2 SLOAD SWAP3 MLOAD SWAP3 DUP4 MSTORE CALLER SWAP3 LOG3 PUSH1 0x1 DUP2 SSTORE DUP1 RETURN JUMPDEST DUP4 MLOAD PUSH3 0x461BCD PUSH1 0xE5 SHL DUP2 MSTORE SWAP1 DUP2 ADD DUP4 SWAP1 MSTORE PUSH1 0x15 PUSH1 0x24 DUP3 ADD MSTORE PUSH21 0x151BDAD95B881D1C985B9CD9995C8819985A5B1959 PUSH1 0x5A SHL PUSH1 0x44 DUP3 ADD MSTORE PUSH1 0x64 SWAP1 REVERT JUMPDEST PUSH2 0x501 SWAP2 POP DUP5 RETURNDATASIZE DUP7 GT PUSH2 0x507 JUMPI JUMPDEST PUSH2 0x4F9 DUP2 DUP4 PUSH2 0x1F88 JUMP JUMPDEST DUP2 ADD SWAP1 PUSH2 0x22BD JUMP JUMPDEST CODESIZE PUSH2 0x46C JUMP JUMPDEST POP RETURNDATASIZE PUSH2 0x4EF JUMP JUMPDEST DUP6 MLOAD RETURNDATASIZE DUP10 DUP3 RETURNDATACOPY RETURNDATASIZE SWAP1 REVERT JUMPDEST DUP8 MLOAD PUSH3 0x461BCD PUSH1 0xE5 SHL DUP2 MSTORE DUP1 DUP7 ADD DUP9 SWAP1 MSTORE PUSH1 0x13 PUSH1 0x24 DUP3 ADD MSTORE PUSH19 0x4E6F20746F6B656E7320746F2072656465656D PUSH1 0x68 SHL PUSH1 0x44 DUP3 ADD MSTORE PUSH1 0x64 SWAP1 REVERT JUMPDEST DUP7 MLOAD PUSH3 0x461BCD PUSH1 0xE5 SHL DUP2 MSTORE DUP1 DUP6 ADD DUP8 SWAP1 MSTORE PUSH1 0x12 PUSH1 0x24 DUP3 ADD MSTORE PUSH18 0x13DC99195C881DD85CC81C99599D5B991959 PUSH1 0x72 SHL PUSH1 0x44 DUP3 ADD MSTORE PUSH1 0x64 SWAP1 REVERT JUMPDEST SWAP2 MLOAD PUSH3 0x461BCD PUSH1 0xE5 SHL DUP2 MSTORE SWAP2 DUP3 ADD MSTORE PUSH1 0x16 PUSH1 0x24 DUP3 ADD MSTORE PUSH22 0x15185C99D95D081B9BDD081C995858DA1959081E595D PUSH1 0x52 SHL PUSH1 0x44 DUP3 ADD MSTORE PUSH1 0x64 SWAP1 REVERT JUMPDEST DUP4 DUP1 REVERT JUMPDEST POP DUP3 SWAP1 CALLVALUE PUSH2 0x2AA JUMPI PUSH1 0x20 SWAP1 DUP2 PUSH1 0x3 NOT CALLDATASIZE ADD SLT PUSH2 0x259 JUMPI DUP4 CALLDATALOAD SWAP2 PUSH2 0x5E8 PUSH2 0x26DE JUMP JUMPDEST PUSH2 0x606 PUSH1 0xFF PUSH1 0x2 SLOAD PUSH2 0x5FC DUP3 DUP3 AND ISZERO PUSH2 0x2375 JUMP JUMPDEST PUSH1 0x8 SHR AND ISZERO PUSH2 0x23B2 JUMP JUMPDEST PUSH32 0x0 SWAP3 PUSH3 0xF4240 DUP5 DIV DUP2 LT PUSH2 0xB51 JUMPI PUSH1 0x64 DUP1 DUP3 MUL SWAP2 DUP1 DUP4 DIV DUP3 EQ DUP2 ISZERO OR ISZERO PUSH2 0xB3E JUMPI SWAP1 DUP7 SWAP8 SWAP2 PUSH2 0x2710 DUP1 SWAP5 DIV PUSH2 0x686 DUP2 DUP7 PUSH2 0x680 PUSH32 0x0 DUP7 PUSH2 0x2044 JUMP JUMPDEST DIV PUSH2 0x2077 JUMP JUMPDEST SWAP5 PUSH2 0x6B1 PUSH32 0x0 DUP5 PUSH2 0x2044 JUMP JUMPDEST DIV SWAP3 PUSH2 0x6CA DUP5 PUSH2 0x6C5 DUP9 PUSH2 0x6C5 DUP7 DUP9 PUSH2 0x2077 JUMP JUMPDEST PUSH2 0x2077 JUMP JUMPDEST SWAP6 PUSH2 0x6E1 DUP11 PUSH2 0x6DA DUP10 DUP10 SLOAD PUSH2 0x2021 JUMP JUMPDEST GT ISZERO PUSH2 0x2084 JUMP JUMPDEST PUSH2 0x6EA DUP5 PUSH2 0x20D2 JUMP JUMPDEST DUP10 MLOAD PUSH4 0x23B872DD PUSH1 0xE0 SHL DUP2 MSTORE CALLER DUP9 DUP3 ADD MSTORE ADDRESS PUSH1 0x24 DUP1 DUP4 ADD SWAP2 SWAP1 SWAP2 MSTORE PUSH1 0x44 DUP3 ADD DUP8 SWAP1 MSTORE SWAP13 SWAP2 SWAP7 PUSH1 0x1 PUSH1 0x1 PUSH1 0xA0 SHL SUB SWAP6 PUSH32 0x0 DUP8 AND SWAP4 SWAP1 SWAP3 DUP13 DUP2 DUP9 DUP2 DUP6 DUP10 GAS CALL SWAP2 DUP3 ISZERO PUSH2 0xB33 JUMPI SWAP2 PUSH2 0xB16 JUMPI JUMPDEST POP ISZERO PUSH2 0xAD4 JUMPI DUP12 MLOAD DUP8 DUP2 MSTORE PUSH1 0x20 DUP2 ADD DUP4 SWAP1 MSTORE PUSH1 0x40 DUP2 ADD DUP6 SWAP1 MSTORE PUSH1 0x60 DUP2 ADD SWAP2 SWAP1 SWAP2 MSTORE PUSH1 0x80 DUP2 ADD DUP11 SWAP1 MSTORE DUP14 SWAP2 DUP16 SWAP2 CALLER SWAP1 PUSH32 0xBEFB6E85B11F40EE4D9E3E8BB0BEDBC3D1EEE123B1328C0EA0A4B842CBFFF749 SWAP1 PUSH1 0xA0 SWAP1 LOG2 DUP13 MLOAD SWAP1 PUSH4 0xA9059CBB PUSH1 0xE0 SHL SWAP4 DUP5 DUP4 MSTORE PUSH20 0x6C83E86E05697C995D718C1CFA3F9045A38C7CD4 DUP13 DUP5 ADD MSTORE DUP3 ADD MSTORE DUP12 DUP2 PUSH1 0x44 DUP2 DUP6 DUP9 GAS CALL SWAP2 DUP3 ISZERO PUSH2 0xAC9 JUMPI SWAP2 PUSH2 0xAAC JUMPI JUMPDEST POP ISZERO PUSH2 0xA75 JUMPI SWAP2 DUP10 SWAP2 PUSH2 0x83F SWAP4 DUP16 DUP14 MLOAD DUP1 SWAP7 DUP2 SWAP6 DUP3 SWAP5 DUP4 MSTORE DUP14 PUSH32 0x0 SWAP1 DUP5 ADD PUSH1 0x20 SWAP1 SWAP4 SWAP3 SWAP2 SWAP4 PUSH1 0x40 DUP2 ADD SWAP5 PUSH1 0x1 DUP1 PUSH1 0xA0 SHL SUB AND DUP2 MSTORE ADD MSTORE JUMP JUMPDEST SUB SWAP3 GAS CALL SWAP1 DUP2 ISZERO PUSH2 0xA6B JUMPI DUP13 SWAP2 PUSH2 0xA4E JUMPI JUMPDEST POP ISZERO PUSH2 0xA0F JUMPI POP PUSH1 0x1 SWAP9 DUP10 SLOAD SWAP7 PUSH1 0x0 NOT SWAP3 DUP4 DUP10 EQ PUSH2 0x9FD JUMPI SWAP1 DUP12 DUP8 DUP11 DUP16 DUP14 DUP13 SWAP2 PUSH1 0x9 SWAP8 DUP7 DUP6 ADD DUP8 SSTORE DUP13 DUP4 MLOAD SWAP8 PUSH2 0x886 DUP10 PUSH2 0x1F56 JUMP JUMPDEST DUP14 DUP10 MSTORE DUP10 DUP10 ADD SWAP6 DUP7 MSTORE DUP5 DUP10 ADD SWAP2 DUP3 MSTORE PUSH1 0x60 DUP10 ADD SWAP6 CALLER DUP8 MSTORE PUSH1 0x80 DUP11 ADD SWAP6 DUP6 DUP8 MSTORE PUSH1 0xA0 DUP12 ADD SWAP6 DUP1 DUP8 MSTORE PUSH1 0xC0 DUP13 ADD SWAP10 NUMBER DUP12 MSTORE DUP2 MSTORE PUSH1 0x8 DUP14 MSTORE KECCAK256 SWAP10 MLOAD DUP11 SSTORE MLOAD SWAP1 DUP10 ADD SSTORE MLOAD PUSH1 0x2 DUP9 ADD SSTORE PUSH1 0x3 DUP8 ADD SWAP4 MLOAD AND DUP4 SLOAD SWAP3 PUSH1 0xFF PUSH1 0xA0 SHL SWAP1 MLOAD ISZERO ISZERO PUSH1 0xA0 SHL AND SWAP2 PUSH1 0xFF PUSH1 0xA8 SHL SWAP1 MLOAD ISZERO ISZERO PUSH1 0xA8 SHL AND SWAP3 PUSH10 0xFFFFFFFFFFFFFFFFFFFF PUSH1 0xB0 SHL AND OR OR OR SWAP1 SSTORE MLOAD SWAP2 ADD SSTORE CALLER DUP14 MSTORE MSTORE DUP8 DUP12 KECCAK256 DUP1 SLOAD SWAP2 PUSH9 0x10000000000000000 DUP4 LT ISZERO PUSH2 0x9EC JUMPI POP SWAP2 PUSH2 0x95C DUP3 PUSH2 0x9CA SWAP5 DUP14 PUSH32 0xB176B33AD40225C8F67DC6EF0CBA96C0C88F67AFD36396E2198A3F48A44FC7A0 SWAP10 SWAP9 SWAP8 SWAP6 ADD DUP2 SSTORE PUSH2 0x1FF3 JUMP JUMPDEST DUP2 SWAP3 SWAP2 SLOAD SWAP1 PUSH1 0x3 SHL SWAP2 DUP11 DUP4 SHL SWAP3 SHL NOT AND OR SWAP1 SSTORE PUSH2 0x97B DUP4 PUSH1 0x3 SLOAD PUSH2 0x2021 JUMP JUMPDEST PUSH1 0x3 SSTORE PUSH2 0x989 DUP7 DUP6 SLOAD PUSH2 0x2021 JUMP JUMPDEST SWAP8 DUP9 DUP1 SWAP6 SSTORE PUSH2 0x99A DUP3 PUSH1 0x5 SLOAD PUSH2 0x2021 JUMP JUMPDEST PUSH1 0x5 SSTORE MLOAD SWAP4 DUP5 SWAP4 CALLER SWAP8 TIMESTAMP SWAP4 DUP7 SWAP2 SWAP3 PUSH1 0x80 SWAP4 SWAP7 SWAP6 SWAP5 SWAP2 SWAP7 PUSH1 0xA0 DUP5 ADD SWAP8 DUP5 MSTORE PUSH1 0x20 DUP5 ADD MSTORE PUSH1 0x40 DUP4 ADD MSTORE PUSH1 0x60 DUP3 ADD MSTORE ADD MSTORE JUMP JUMPDEST SUB SWAP1 LOG3 LT ISZERO PUSH2 0x9D8 JUMPI DUP2 SSTORE DUP1 RETURN JUMPDEST PUSH2 0x100 PUSH2 0xFF00 NOT PUSH1 0x2 SLOAD AND OR PUSH1 0x2 SSTORE DUP2 SSTORE DUP1 RETURN JUMPDEST PUSH4 0x4E487B71 PUSH1 0xE0 SHL DUP14 MSTORE PUSH1 0x41 DUP8 MSTORE DUP13 REVERT JUMPDEST PUSH4 0x4E487B71 PUSH1 0xE0 SHL DUP14 MSTORE PUSH1 0x11 DUP8 MSTORE DUP3 DUP14 REVERT JUMPDEST DUP8 MLOAD PUSH3 0x461BCD PUSH1 0xE5 SHL DUP2 MSTORE DUP1 DUP7 ADD DUP9 SWAP1 MSTORE PUSH1 0x17 DUP2 DUP13 ADD MSTORE PUSH32 0x557066726F6E74207472616E73666572206661696C6564000000000000000000 PUSH1 0x44 DUP3 ADD MSTORE REVERT JUMPDEST PUSH2 0xA65 SWAP2 POP DUP9 RETURNDATASIZE DUP11 GT PUSH2 0x507 JUMPI PUSH2 0x4F9 DUP2 DUP4 PUSH2 0x1F88 JUMP JUMPDEST DUP13 PUSH2 0x851 JUMP JUMPDEST DUP10 MLOAD RETURNDATASIZE DUP15 DUP3 RETURNDATACOPY RETURNDATASIZE SWAP1 REVERT JUMPDEST DUP11 MLOAD PUSH3 0x461BCD PUSH1 0xE5 SHL DUP2 MSTORE DUP1 DUP10 ADD DUP12 SWAP1 MSTORE PUSH1 0x13 DUP2 DUP16 ADD MSTORE PUSH19 0x119959481D1C985B9CD9995C8819985A5B1959 PUSH1 0x6A SHL PUSH1 0x44 DUP3 ADD MSTORE DUP5 SWAP1 REVERT JUMPDEST PUSH2 0xAC3 SWAP2 POP DUP12 RETURNDATASIZE DUP14 GT PUSH2 0x507 JUMPI PUSH2 0x4F9 DUP2 DUP4 PUSH2 0x1F88 JUMP JUMPDEST DUP16 PUSH2 0x7E8 JUMP JUMPDEST DUP14 MLOAD SWAP1 RETURNDATASIZE SWAP1 DUP3 RETURNDATACOPY RETURNDATASIZE SWAP1 REVERT JUMPDEST POP DUP11 MLOAD PUSH3 0x461BCD PUSH1 0xE5 SHL DUP2 MSTORE DUP1 DUP10 ADD DUP12 SWAP1 MSTORE PUSH1 0x17 DUP2 DUP16 ADD MSTORE PUSH32 0x5061796D656E74207472616E73666572206661696C6564000000000000000000 PUSH1 0x44 DUP3 ADD MSTORE DUP5 SWAP1 REVERT JUMPDEST PUSH2 0xB2D SWAP2 POP DUP13 DUP14 RETURNDATASIZE LT PUSH2 0x507 JUMPI PUSH2 0x4F9 DUP2 DUP4 PUSH2 0x1F88 JUMP JUMPDEST CODESIZE PUSH2 0x753 JUMP JUMPDEST DUP15 MLOAD SWAP1 RETURNDATASIZE SWAP1 DUP3 RETURNDATACOPY RETURNDATASIZE SWAP1 REVERT JUMPDEST PUSH4 0x4E487B71 PUSH1 0xE0 SHL DUP8 MSTORE PUSH1 0x11 DUP9 MSTORE PUSH1 0x24 DUP8 REVERT JUMPDEST DUP3 MLOAD PUSH3 0x461BCD PUSH1 0xE5 SHL DUP2 MSTORE DUP1 DUP8 ADD DUP4 SWAP1 MSTORE PUSH1 0x16 PUSH1 0x24 DUP3 ADD MSTORE PUSH22 0x42656C6F77206D696E696D756D207075726368617365 PUSH1 0x50 SHL PUSH1 0x44 DUP3 ADD MSTORE PUSH1 0x64 SWAP1 REVERT JUMPDEST POP CALLVALUE PUSH2 0x259 JUMPI DUP3 PUSH1 0x3 NOT CALLDATASIZE ADD SLT PUSH2 0x259 JUMPI DUP1 MLOAD SWAP2 DUP4 PUSH1 0x7 SLOAD SWAP1 PUSH1 0x1 SWAP1 DUP3 PUSH1 0x1 SHR SWAP3 PUSH1 0x1 DUP2 AND DUP1 ISZERO PUSH2 0xC86 JUMPI JUMPDEST PUSH1 0x20 SWAP6 DUP7 DUP7 LT DUP3 EQ PUSH2 0xC73 JUMPI POP DUP5 DUP9 MSTORE SWAP1 DUP2 ISZERO PUSH2 0xC51 JUMPI POP PUSH1 0x1 EQ PUSH2 0xBF8 JUMPI JUMPDEST PUSH2 0xBF4 DUP7 DUP7 PUSH2 0xBEA DUP3 DUP12 SUB DUP4 PUSH2 0x1F88 JUMP JUMPDEST MLOAD SWAP2 DUP3 SWAP2 DUP3 PUSH2 0x1FAA JUMP JUMPDEST SUB SWAP1 RETURN JUMPDEST SWAP3 SWAP6 POP PUSH1 0x7 DUP4 MSTORE PUSH32 0xA66CC928B5EDB82AF9BD49922954155AB7B0942694BEA4CE44661D9A8736C688 JUMPDEST DUP3 DUP5 LT PUSH2 0xC3E JUMPI POP POP POP DUP3 PUSH2 0xBF4 SWAP5 PUSH2 0xBEA SWAP3 DUP3 ADD ADD SWAP5 CODESIZE PUSH2 0xBD9 JUMP JUMPDEST DUP1 SLOAD DUP7 DUP6 ADD DUP9 ADD MSTORE SWAP3 DUP7 ADD SWAP3 DUP2 ADD PUSH2 0xC21 JUMP JUMPDEST PUSH1 0xFF NOT AND DUP8 DUP7 ADD MSTORE POP POP POP ISZERO ISZERO PUSH1 0x5 SHL DUP4 ADD ADD SWAP3 POP PUSH2 0xBEA DUP3 PUSH2 0xBF4 CODESIZE PUSH2 0xBD9 JUMP JUMPDEST PUSH4 0x4E487B71 PUSH1 0xE0 SHL DUP5 MSTORE PUSH1 0x22 SWAP1 MSTORE PUSH1 0x24 DUP4 REVERT JUMPDEST SWAP4 PUSH1 0x7F AND SWAP4 PUSH2 0xBB9 JUMP JUMPDEST POP CALLVALUE PUSH2 0x259 JUMPI DUP1 PUSH1 0x3 NOT CALLDATASIZE ADD SLT PUSH2 0x259 JUMPI PUSH2 0xCA9 PUSH2 0x1F3B JUMP JUMPDEST PUSH1 0x24 SWAP2 DUP3 CALLDATALOAD PUSH2 0xCB6 PUSH2 0x26DE JUMP JUMPDEST PUSH32 0x0 SWAP3 PUSH1 0x1 PUSH1 0x1 PUSH1 0xA0 SHL SUB SWAP1 DUP2 DUP6 AND CALLER SUB PUSH2 0xF00 JUMPI PUSH1 0xFF PUSH1 0x2 SLOAD AND ISZERO PUSH2 0xEBE JUMPI DUP2 AND SWAP1 PUSH32 0x0 AND DUP2 EQ PUSH2 0xE7C JUMPI DUP3 MLOAD PUSH4 0x70A08231 PUSH1 0xE0 SHL DUP2 MSTORE ADDRESS DUP8 DUP3 ADD MSTORE PUSH1 0x20 SWAP5 SWAP1 DUP6 DUP2 DUP9 DUP2 DUP7 GAS STATICCALL SWAP1 DUP2 ISZERO PUSH2 0xE72 JUMPI SWAP1 DUP5 SWAP2 DUP11 SWAP2 PUSH2 0xE3D JUMPI JUMPDEST POP LT PUSH2 0xE04 JUMPI DUP4 MLOAD PUSH4 0xA9059CBB PUSH1 0xE0 SHL DUP2 MSTORE PUSH1 0x1 PUSH1 0x1 PUSH1 0xA0 SHL SUB SWAP1 SWAP2 AND DUP8 DUP3 ADD SWAP1 DUP2 MSTORE PUSH1 0x20 DUP2 ADD SWAP4 SWAP1 SWAP4 MSTORE SWAP2 DUP5 SWAP2 DUP4 SWAP2 DUP3 SWAP1 DUP11 SWAP1 DUP3 SWAP1 PUSH1 0x40 ADD SUB SWAP3 GAS CALL SWAP1 DUP2 ISZERO PUSH2 0xDFA JUMPI DUP7 SWAP2 PUSH2 0xDDD JUMPI JUMPDEST POP ISZERO PUSH2 0xDA6 JUMPI DUP5 PUSH1 0x1 DUP2 SSTORE DUP1 RETURN JUMPDEST MLOAD PUSH3 0x461BCD PUSH1 0xE5 SHL DUP2 MSTORE SWAP3 DUP4 ADD MSTORE PUSH1 0x15 SWAP1 DUP3 ADD MSTORE PUSH21 0x151BDAD95B881C9958DBDD995C9E4819985A5B1959 PUSH1 0x5A SHL PUSH1 0x44 DUP3 ADD MSTORE PUSH1 0x64 SWAP1 REVERT JUMPDEST PUSH2 0xDF4 SWAP2 POP DUP4 RETURNDATASIZE DUP6 GT PUSH2 0x507 JUMPI PUSH2 0x4F9 DUP2 DUP4 PUSH2 0x1F88 JUMP JUMPDEST CODESIZE PUSH2 0xD98 JUMP JUMPDEST DUP3 MLOAD RETURNDATASIZE DUP9 DUP3 RETURNDATACOPY RETURNDATASIZE SWAP1 REVERT JUMPDEST DUP4 MLOAD PUSH3 0x461BCD PUSH1 0xE5 SHL DUP2 MSTORE DUP1 DUP9 ADD DUP7 SWAP1 MSTORE PUSH1 0x14 DUP2 DUP9 ADD MSTORE PUSH20 0x496E73756666696369656E742062616C616E6365 PUSH1 0x60 SHL PUSH1 0x44 DUP3 ADD MSTORE PUSH1 0x64 SWAP1 REVERT JUMPDEST DUP1 SWAP3 POP DUP8 DUP1 SWAP3 POP RETURNDATASIZE DUP4 GT PUSH2 0xE6B JUMPI JUMPDEST PUSH2 0xE56 DUP2 DUP4 PUSH2 0x1F88 JUMP JUMPDEST DUP2 ADD SUB SLT PUSH2 0xE67 JUMPI DUP4 SWAP1 MLOAD CODESIZE PUSH2 0xD4D JUMP JUMPDEST DUP9 DUP1 REVERT JUMPDEST POP RETURNDATASIZE PUSH2 0xE4C JUMP JUMPDEST DUP6 MLOAD RETURNDATASIZE DUP12 DUP3 RETURNDATACOPY RETURNDATASIZE SWAP1 REVERT JUMPDEST DUP3 MLOAD PUSH3 0x461BCD PUSH1 0xE5 SHL DUP2 MSTORE PUSH1 0x20 DUP2 DUP9 ADD MSTORE PUSH1 0x19 DUP2 DUP8 ADD MSTORE PUSH32 0x43616E6E6F74207265636F7665722073616C6520746F6B656E00000000000000 PUSH1 0x44 DUP3 ADD MSTORE PUSH1 0x64 SWAP1 REVERT JUMPDEST DUP4 MLOAD PUSH3 0x461BCD PUSH1 0xE5 SHL DUP2 MSTORE PUSH1 0x20 DUP2 DUP10 ADD MSTORE PUSH1 0x1B DUP2 DUP9 ADD MSTORE PUSH32 0x4E6F7420796574206465706C6F79656420746F20556E69737761700000000000 PUSH1 0x44 DUP3 ADD MSTORE PUSH1 0x64 SWAP1 REVERT JUMPDEST DUP4 MLOAD PUSH3 0x461BCD PUSH1 0xE5 SHL DUP2 MSTORE PUSH1 0x20 DUP2 DUP10 ADD MSTORE PUSH1 0x19 DUP2 DUP9 ADD MSTORE PUSH32 0x4F6E6C7920666F756E646572732063616E207265636F76657200000000000000 PUSH1 0x44 DUP3 ADD MSTORE PUSH1 0x64 SWAP1 REVERT JUMPDEST DUP4 DUP3 CALLVALUE PUSH2 0x2AA JUMPI DUP2 PUSH1 0x3 NOT CALLDATASIZE ADD SLT PUSH2 0x2AA JUMPI PUSH1 0x20 SWAP1 PUSH1 0x3 SLOAD SWAP1 MLOAD SWAP1 DUP2 MSTORE RETURN JUMPDEST POP DUP3 CALLVALUE PUSH2 0x100E JUMPI PUSH1 0x20 SWAP1 DUP2 PUSH1 0x3 NOT CALLDATASIZE ADD SLT PUSH2 0x100E JUMPI DUP3 SWAP1 PUSH1 0x1 PUSH1 0x1 PUSH1 0xA0 SHL SUB PUSH2 0xF88 PUSH2 0x1F3B JUMP JUMPDEST AND DUP2 MSTORE PUSH1 0x9 DUP4 MSTORE DUP2 DUP2 KECCAK256 SWAP1 DUP3 MLOAD DUP1 DUP6 DUP5 SLOAD SWAP2 DUP3 DUP2 MSTORE ADD SWAP1 DUP2 SWAP5 DUP5 MSTORE DUP7 DUP5 KECCAK256 SWAP1 DUP5 JUMPDEST DUP2 DUP2 LT PUSH2 0xFFA JUMPI POP POP POP DUP2 PUSH2 0xFBF SWAP2 SUB DUP3 PUSH2 0x1F88 JUMP JUMPDEST DUP4 MLOAD SWAP5 DUP6 SWAP5 DUP2 DUP7 ADD SWAP3 DUP3 DUP8 MSTORE MLOAD DUP1 SWAP4 MSTORE DUP6 ADD SWAP4 SWAP3 JUMPDEST DUP3 DUP2 LT PUSH2 0xFE3 JUMPI POP POP POP POP SUB SWAP1 RETURN JUMPDEST DUP4 MLOAD DUP6 MSTORE DUP7 SWAP6 POP SWAP4 DUP2 ADD SWAP4 SWAP3 DUP2 ADD SWAP3 PUSH1 0x1 ADD PUSH2 0xFD4 JUMP JUMPDEST DUP3 SLOAD DUP5 MSTORE SWAP3 DUP9 ADD SWAP3 PUSH1 0x1 SWAP3 DUP4 ADD SWAP3 ADD PUSH2 0xFA9 JUMP JUMPDEST DUP1 REVERT JUMPDEST DUP4 DUP3 CALLVALUE PUSH2 0x2AA JUMPI DUP2 PUSH1 0x3 NOT CALLDATASIZE ADD SLT PUSH2 0x2AA JUMPI PUSH1 0x20 SWAP1 MLOAD PUSH32 0x0 DUP2 MSTORE RETURN JUMPDEST DUP4 DUP3 CALLVALUE PUSH2 0x2AA JUMPI DUP2 PUSH1 0x3 NOT CALLDATASIZE ADD SLT PUSH2 0x2AA JUMPI PUSH1 0x20 SWAP1 PUSH1 0x1 SLOAD SWAP1 MLOAD SWAP1 DUP2 MSTORE RETURN JUMPDEST DUP4 DUP3 CALLVALUE PUSH2 0x2AA JUMPI DUP2 PUSH1 0x3 NOT CALLDATASIZE ADD SLT PUSH2 0x2AA JUMPI PUSH1 0x20 SWAP1 MLOAD PUSH32 0x0 DUP2 MSTORE RETURN JUMPDEST DUP4 DUP3 CALLVALUE PUSH2 0x2AA JUMPI DUP2 PUSH1 0x3 NOT CALLDATASIZE ADD SLT PUSH2 0x2AA JUMPI PUSH1 0x20 SWAP1 MLOAD PUSH3 0xF4240 PUSH32 0x0 DIV DUP2 MSTORE RETURN JUMPDEST POP SWAP1 CALLVALUE PUSH2 0x259 JUMPI DUP3 PUSH1 0x3 NOT CALLDATASIZE ADD SLT PUSH2 0x259 JUMPI PUSH1 0x20 SWAP3 POP SLOAD SWAP1 MLOAD SWAP1 DUP2 MSTORE RETURN JUMPDEST DUP4 DUP3 CALLVALUE PUSH2 0x2AA JUMPI DUP2 PUSH1 0x3 NOT CALLDATASIZE ADD SLT PUSH2 0x2AA JUMPI PUSH1 0x20 SWAP1 MLOAD PUSH32 0x0 DUP2 MSTORE RETURN JUMPDEST DUP4 DUP3 CALLVALUE PUSH2 0x2AA JUMPI DUP2 PUSH1 0x3 NOT CALLDATASIZE ADD SLT PUSH2 0x2AA JUMPI MLOAD PUSH32 0x0 PUSH1 0x1 PUSH1 0x1 PUSH1 0xA0 SHL SUB AND DUP2 MSTORE PUSH1 0x20 SWAP1 RETURN JUMPDEST DUP4 DUP3 CALLVALUE PUSH2 0x2AA JUMPI DUP2 PUSH1 0x3 NOT CALLDATASIZE ADD SLT PUSH2 0x2AA JUMPI PUSH1 0x20 SWAP1 PUSH2 0x2710 PUSH2 0x11C8 PUSH1 0x5 SLOAD PUSH32 0x0 SWAP1 PUSH2 0x2044 JUMP JUMPDEST DIV SWAP1 MLOAD SWAP1 DUP2 MSTORE RETURN JUMPDEST POP CALLVALUE PUSH2 0x259 JUMPI PUSH1 0x20 CALLDATASIZE PUSH1 0x3 NOT ADD SLT PUSH2 0x259 JUMPI PUSH1 0xFF DUP2 PUSH1 0xE0 SWAP5 DUP5 CALLDATALOAD DUP2 MSTORE PUSH1 0x8 PUSH1 0x20 MSTORE KECCAK256 DUP1 SLOAD SWAP4 PUSH1 0x1 DUP3 ADD SLOAD SWAP4 PUSH1 0x2 DUP4 ADD SLOAD SWAP2 PUSH1 0x3 DUP5 ADD SLOAD SWAP4 ADD SLOAD SWAP5 DUP2 MLOAD SWAP7 DUP8 MSTORE PUSH1 0x20 DUP8 ADD MSTORE DUP6 ADD MSTORE PUSH1 0x1 DUP1 PUSH1 0xA0 SHL SUB DUP2 AND PUSH1 0x60 DUP6 ADD MSTORE DUP2 DUP2 PUSH1 0xA0 SHR AND ISZERO ISZERO PUSH1 0x80 DUP6 ADD MSTORE PUSH1 0xA8 SHR AND ISZERO ISZERO PUSH1 0xA0 DUP4 ADD MSTORE PUSH1 0xC0 DUP3 ADD MSTORE RETURN JUMPDEST DUP4 DUP3 CALLVALUE PUSH2 0x2AA JUMPI DUP2 PUSH1 0x3 NOT CALLDATASIZE ADD SLT PUSH2 0x2AA JUMPI MLOAD PUSH32 0x0 PUSH1 0x1 PUSH1 0x1 PUSH1 0xA0 SHL SUB AND DUP2 MSTORE PUSH1 0x20 SWAP1 RETURN JUMPDEST DUP4 DUP3 CALLVALUE PUSH2 0x2AA JUMPI DUP2 PUSH1 0x3 NOT CALLDATASIZE ADD SLT PUSH2 0x2AA JUMPI PUSH1 0x20 SWAP1 PUSH2 0x316 PUSH2 0x2476 JUMP JUMPDEST DUP4 DUP3 CALLVALUE PUSH2 0x2AA JUMPI DUP1 PUSH1 0x3 NOT CALLDATASIZE ADD SLT PUSH2 0x2AA JUMPI PUSH2 0x12BF PUSH2 0x1F3B JUMP JUMPDEST PUSH1 0x1 PUSH1 0x1 PUSH1 0xA0 SHL SUB AND DUP3 MSTORE PUSH1 0x9 PUSH1 0x20 MSTORE DUP1 DUP3 KECCAK256 DUP1 SLOAD PUSH1 0x24 CALLDATALOAD SWAP4 SWAP1 DUP5 LT ISZERO PUSH2 0x100E JUMPI POP PUSH1 0x20 SWAP3 PUSH2 0x12ED SWAP2 PUSH2 0x1FF3 JUMP JUMPDEST SWAP2 SWAP1 SLOAD SWAP1 MLOAD SWAP2 PUSH1 0x3 SHL SHR DUP2 MSTORE RETURN JUMPDEST DUP4 DUP3 CALLVALUE PUSH2 0x2AA JUMPI DUP2 PUSH1 0x3 NOT CALLDATASIZE ADD SLT PUSH2 0x2AA JUMPI PUSH1 0x20 SWAP1 MLOAD PUSH32 0x0 DUP2 MSTORE RETURN JUMPDEST POP CALLVALUE PUSH2 0x259 JUMPI DUP3 PUSH1 0x3 NOT CALLDATASIZE ADD SLT PUSH2 0x259 JUMPI DUP1 MLOAD SWAP2 DUP4 PUSH1 0x6 SLOAD SWAP1 PUSH1 0x1 SWAP1 DUP3 PUSH1 0x1 SHR SWAP3 PUSH1 0x1 DUP2 AND DUP1 ISZERO PUSH2 0x13EB JUMPI JUMPDEST PUSH1 0x20 SWAP6 DUP7 DUP7 LT DUP3 EQ PUSH2 0xC73 JUMPI POP DUP5 DUP9 MSTORE SWAP1 DUP2 ISZERO PUSH2 0xC51 JUMPI POP PUSH1 0x1 EQ PUSH2 0x1392 JUMPI PUSH2 0xBF4 DUP7 DUP7 PUSH2 0xBEA DUP3 DUP12 SUB DUP4 PUSH2 0x1F88 JUMP JUMPDEST SWAP3 SWAP6 POP PUSH1 0x6 DUP4 MSTORE PUSH32 0xF652222313E28459528D920B65115C16C04F3EFC82AAEDC97BE59F3F377C0D3F JUMPDEST DUP3 DUP5 LT PUSH2 0x13D8 JUMPI POP POP POP DUP3 PUSH2 0xBF4 SWAP5 PUSH2 0xBEA SWAP3 DUP3 ADD ADD SWAP5 CODESIZE PUSH2 0xBD9 JUMP JUMPDEST DUP1 SLOAD DUP7 DUP6 ADD DUP9 ADD MSTORE SWAP3 DUP7 ADD SWAP3 DUP2 ADD PUSH2 0x13BB JUMP JUMPDEST SWAP4 PUSH1 0x7F AND SWAP4 PUSH2 0x1362 JUMP JUMPDEST DUP4 DUP3 CALLVALUE PUSH2 0x2AA JUMPI DUP2 PUSH1 0x3 NOT CALLDATASIZE ADD SLT PUSH2 0x2AA JUMPI PUSH1 0x20 SWAP1 PUSH1 0xFF PUSH1 0x2 SLOAD PUSH1 0x8 SHR AND SWAP1 MLOAD SWAP1 ISZERO ISZERO DUP2 MSTORE RETURN JUMPDEST DUP4 DUP3 CALLVALUE PUSH2 0x2AA JUMPI DUP2 PUSH1 0x3 NOT CALLDATASIZE ADD SLT PUSH2 0x2AA JUMPI MLOAD PUSH32 0x0 PUSH1 0x1 PUSH1 0x1 PUSH1 0xA0 SHL SUB AND DUP2 MSTORE PUSH1 0x20 SWAP1 RETURN JUMPDEST POP SWAP1 CALLVALUE PUSH2 0x259 JUMPI PUSH1 0x20 SWAP2 DUP3 PUSH1 0x3 NOT CALLDATASIZE ADD SLT PUSH2 0x5C3 JUMPI DUP2 CALLDATALOAD SWAP3 PUSH2 0x1480 PUSH2 0x26DE JUMP JUMPDEST PUSH2 0x1494 PUSH1 0xFF PUSH1 0x2 SLOAD PUSH2 0x5FC DUP3 DUP3 AND ISZERO PUSH2 0x2375 JUMP JUMPDEST DUP4 DUP6 MSTORE PUSH1 0x8 DUP2 MSTORE DUP2 DUP6 KECCAK256 PUSH1 0x3 DUP2 ADD DUP1 SLOAD PUSH1 0x1 PUSH1 0x1 PUSH1 0xA0 SHL SUB SWAP3 SWAP2 SWAP1 PUSH2 0x14BC DUP5 DUP3 AND CALLER EQ PUSH2 0x23F7 JUMP JUMPDEST PUSH1 0xFF DUP2 PUSH1 0xA0 SHR AND PUSH2 0x1612 JUMPI PUSH1 0x1 DUP10 SWAP4 DUP7 SWAP4 DUP4 PUSH2 0x14E1 PUSH1 0xFF PUSH2 0x1541 SWAP7 PUSH1 0xA8 SHR AND ISZERO PUSH2 0x2437 JUMP JUMPDEST PUSH1 0xFF PUSH1 0xA0 SHL NOT AND PUSH1 0xA0 DUP5 SWAP1 SHL OR SWAP1 SSTORE PUSH1 0x2 DUP2 ADD SLOAD PUSH1 0x3 SLOAD PUSH2 0x1502 SWAP2 SWAP1 PUSH2 0x2077 JUMP JUMPDEST PUSH1 0x3 SSTORE ADD SWAP4 PUSH2 0x1513 DUP6 SLOAD DUP10 SLOAD PUSH2 0x2077 JUMP JUMPDEST DUP9 SSTORE DUP5 SLOAD DUP8 MLOAD PUSH4 0xA9059CBB PUSH1 0xE0 SHL DUP2 MSTORE CALLER DUP2 DUP12 ADD SWAP1 DUP2 MSTORE PUSH1 0x20 DUP2 ADD SWAP3 SWAP1 SWAP3 MSTORE SWAP5 DUP6 SWAP4 DUP5 SWAP3 DUP4 SWAP2 PUSH1 0x40 SWAP1 SWAP2 ADD SWAP1 JUMP JUMPDEST SUB SWAP3 PUSH32 0x0 AND GAS CALL SWAP1 DUP2 ISZERO PUSH2 0x1608 JUMPI DUP8 SWAP2 PUSH2 0x15EB JUMPI JUMPDEST POP ISZERO PUSH2 0x15B9 JUMPI SLOAD SWAP3 SLOAD SWAP1 DUP3 MLOAD SWAP4 DUP5 MSTORE DUP4 ADD MSTORE TIMESTAMP SWAP1 DUP3 ADD MSTORE PUSH32 0x40AFC61AABCE83A502901D9DC66B15D1EE92BFCC1F4F56923B8434DCD041E19F PUSH1 0x60 CALLER SWAP3 LOG3 PUSH1 0x1 DUP2 SSTORE DUP1 RETURN JUMPDEST POP SWAP1 MLOAD PUSH3 0x461BCD PUSH1 0xE5 SHL DUP2 MSTORE SWAP2 DUP3 ADD MSTORE PUSH1 0xD PUSH1 0x24 DUP3 ADD MSTORE PUSH13 0x1499599D5B990819985A5B1959 PUSH1 0x9A SHL PUSH1 0x44 DUP3 ADD MSTORE PUSH1 0x64 SWAP1 REVERT JUMPDEST PUSH2 0x1602 SWAP2 POP DUP4 RETURNDATASIZE DUP6 GT PUSH2 0x507 JUMPI PUSH2 0x4F9 DUP2 DUP4 PUSH2 0x1F88 JUMP JUMPDEST CODESIZE PUSH2 0x1575 JUMP JUMPDEST DUP5 MLOAD RETURNDATASIZE DUP10 DUP3 RETURNDATACOPY RETURNDATASIZE SWAP1 REVERT JUMPDEST DUP6 MLOAD PUSH3 0x461BCD PUSH1 0xE5 SHL DUP2 MSTORE DUP1 DUP9 ADD DUP7 SWAP1 MSTORE PUSH1 0x10 PUSH1 0x24 DUP3 ADD MSTORE PUSH16 0x105B1C9958591E481C99599D5B991959 PUSH1 0x82 SHL PUSH1 0x44 DUP3 ADD MSTORE PUSH1 0x64 SWAP1 REVERT JUMPDEST DUP4 DUP3 CALLVALUE PUSH2 0x2AA JUMPI DUP2 PUSH1 0x3 NOT CALLDATASIZE ADD SLT PUSH2 0x2AA JUMPI PUSH1 0x20 SWAP1 PUSH1 0xFF PUSH1 0x2 SLOAD AND SWAP1 MLOAD SWAP1 ISZERO ISZERO DUP2 MSTORE RETURN JUMPDEST DUP4 DUP3 CALLVALUE PUSH2 0x2AA JUMPI DUP2 PUSH1 0x3 NOT CALLDATASIZE ADD SLT PUSH2 0x2AA JUMPI MLOAD PUSH32 0x0 PUSH1 0x1 PUSH1 0x1 PUSH1 0xA0 SHL SUB AND DUP2 MSTORE PUSH1 0x20 SWAP1 RETURN JUMPDEST DUP4 DUP3 CALLVALUE PUSH2 0x2AA JUMPI DUP2 PUSH1 0x3 NOT CALLDATASIZE ADD SLT PUSH2 0x2AA JUMPI PUSH1 0x20 SWAP1 PUSH2 0x16CD PUSH2 0x22D5 JUMP JUMPDEST SWAP1 MLOAD SWAP1 ISZERO ISZERO DUP2 MSTORE RETURN JUMPDEST POP CALLVALUE PUSH2 0x259 JUMPI DUP3 PUSH1 0x3 NOT CALLDATASIZE ADD SLT PUSH2 0x259 JUMPI PUSH32 0x0 SWAP1 PUSH1 0x1 PUSH1 0x1 PUSH1 0xA0 SHL SUB DUP1 DUP4 AND CALLER SUB PUSH2 0x1D53 JUMPI PUSH1 0x2 SLOAD PUSH1 0xFF DUP2 PUSH1 0x8 SHR AND ISZERO PUSH2 0x1D1B JUMPI PUSH1 0xFF AND PUSH2 0x1CE5 JUMPI PUSH2 0x2710 PUSH2 0x1760 PUSH1 0x5 SLOAD PUSH32 0x0 SWAP1 PUSH2 0x2044 JUMP JUMPDEST DIV SWAP4 DUP1 SLOAD SWAP4 PUSH2 0x176F DUP7 DUP7 PUSH2 0x2077 JUMP JUMPDEST SWAP5 PUSH2 0x1780 PUSH2 0x177B PUSH2 0x22D5 JUMP JUMPDEST PUSH2 0x2271 JUMP JUMPDEST DUP4 PUSH32 0x0 AND DUP6 MLOAD SWAP8 PUSH4 0x70A08231 PUSH1 0xE0 SHL SWAP4 DUP5 DUP11 MSTORE ADDRESS DUP7 DUP12 ADD MSTORE PUSH1 0x20 SWAP10 PUSH1 0x24 SWAP5 DUP12 DUP3 DUP8 DUP2 DUP9 GAS STATICCALL SWAP2 DUP3 ISZERO PUSH2 0x1BD4 JUMPI DUP14 SWAP3 PUSH2 0x1CB2 JUMPI JUMPDEST POP PUSH2 0x17E2 PUSH1 0x3 SLOAD DUP1 SWAP4 LT ISZERO PUSH2 0x2271 JUMP JUMPDEST DUP13 DUP10 PUSH32 0x0 AND SWAP8 DUP12 MLOAD SWAP1 DUP2 MSTORE ADDRESS DUP11 DUP3 ADD MSTORE DUP14 DUP2 DUP10 DUP2 DUP13 GAS STATICCALL SWAP2 DUP3 ISZERO PUSH2 0x1C34 JUMPI SWAP2 PUSH2 0x1C81 JUMPI JUMPDEST POP LT PUSH2 0x1C3F JUMPI DUP9 MLOAD PUSH4 0x95EA7B3 PUSH1 0xE0 SHL DUP1 DUP3 MSTORE PUSH32 0x0 DUP11 AND PUSH1 0x1 PUSH1 0x1 PUSH1 0xA0 SHL SUB DUP2 AND DUP11 DUP5 ADD SWAP1 DUP2 MSTORE PUSH1 0x20 DUP2 ADD SWAP5 SWAP1 SWAP5 MSTORE SWAP3 SWAP1 SWAP2 DUP15 SWAP2 DUP15 SWAP1 DUP3 SWAP1 DUP2 SWAP1 PUSH1 0x40 ADD SUB DUP2 DUP6 DUP12 GAS CALL SWAP2 DUP3 ISZERO PUSH2 0x1C34 JUMPI SWAP2 PUSH2 0x1C17 JUMPI JUMPDEST POP ISZERO PUSH2 0x1BDE JUMPI DUP10 MLOAD SWAP1 DUP2 MSTORE PUSH1 0x1 PUSH1 0x1 PUSH1 0xA0 SHL SUB DUP3 AND DUP2 DUP10 ADD SWAP1 DUP2 MSTORE PUSH1 0x20 DUP2 ADD DUP13 SWAP1 MSTORE DUP13 SWAP1 DUP3 SWAP1 DUP16 SWAP1 DUP3 SWAP1 DUP2 SWAP1 PUSH1 0x40 ADD SUB SWAP2 DUP12 GAS CALL SWAP1 DUP2 ISZERO PUSH2 0x1BD4 JUMPI DUP14 SWAP2 PUSH2 0x1BB7 JUMPI JUMPDEST POP ISZERO PUSH2 0x1B7C JUMPI PUSH1 0x3 SLOAD SWAP1 PUSH1 0x78 TIMESTAMP ADD TIMESTAMP GT PUSH2 0x1B6A JUMPI SWAP1 DUP13 SWAP2 DUP11 MLOAD SWAP12 DUP13 SWAP3 PUSH3 0xE8E337 PUSH1 0xE8 SHL DUP5 MSTORE DUP8 DUP12 DUP6 ADD MSTORE DUP10 DUP10 DUP6 ADD MSTORE DUP1 PUSH1 0x44 DUP6 ADD MSTORE DUP2 PUSH1 0x64 DUP6 ADD MSTORE PUSH1 0x84 DUP5 ADD MSTORE PUSH1 0xA4 DUP4 ADD MSTORE ADDRESS PUSH1 0xC4 DUP4 ADD MSTORE TIMESTAMP PUSH1 0x78 ADD PUSH1 0xE4 DUP4 ADD MSTORE DUP2 GAS SWAP4 PUSH2 0x104 SWAP3 PUSH1 0x60 SWAP6 CALL SWAP9 DUP10 ISZERO PUSH2 0x1B60 JUMPI DUP12 SWAP10 PUSH2 0x1B26 JUMPI JUMPDEST POP DUP2 PUSH2 0x1A52 JUMPI JUMPDEST POP POP PUSH1 0x2 DUP1 SLOAD PUSH1 0xFF NOT AND PUSH1 0x1 OR SWAP1 SSTORE DUP6 MLOAD PUSH4 0xE6A43905 PUSH1 0xE0 SHL DUP2 MSTORE SWAP4 DUP5 ADD MSTORE DUP3 ADD MSTORE DUP5 DUP2 PUSH1 0x44 DUP2 PUSH32 0x0 DUP7 AND GAS STATICCALL SWAP5 DUP6 ISZERO PUSH2 0x1A48 JUMPI DUP7 SWAP6 PUSH2 0x19E9 JUMPI JUMPDEST POP POP SWAP1 MLOAD PUSH1 0x1 PUSH1 0x1 PUSH1 0xA0 SHL SUB SWAP1 SWAP4 AND DUP4 MSTORE POP PUSH1 0x20 DUP3 ADD MSTORE PUSH32 0x4DB0962B68E799B508143F50800F1504D656CBD0FE6395510C0DCA385BFD8407 SWAP1 DUP1 PUSH1 0x40 DUP2 ADD JUMPDEST SUB SWAP1 LOG1 DUP1 RETURN JUMPDEST SWAP1 DUP1 SWAP3 SWAP6 POP DUP2 RETURNDATASIZE DUP4 GT PUSH2 0x1A41 JUMPI JUMPDEST PUSH2 0x1A01 DUP2 DUP4 PUSH2 0x1F88 JUMP JUMPDEST DUP2 ADD SUB SLT PUSH2 0x1A3D JUMPI MLOAD SWAP3 DUP4 AND DUP4 SUB PUSH2 0x5C3 JUMPI PUSH2 0x19E3 PUSH32 0x4DB0962B68E799B508143F50800F1504D656CBD0FE6395510C0DCA385BFD8407 CODESIZE PUSH2 0x19A4 JUMP JUMPDEST DUP5 DUP1 REVERT JUMPDEST POP RETURNDATASIZE PUSH2 0x19F7 JUMP JUMPDEST DUP4 MLOAD RETURNDATASIZE DUP9 DUP3 RETURNDATACOPY RETURNDATASIZE SWAP1 REVERT JUMPDEST DUP8 MLOAD PUSH4 0xA9059CBB PUSH1 0xE0 SHL DUP2 MSTORE PUSH1 0x1 PUSH1 0x1 PUSH1 0xA0 SHL SUB DUP3 AND DUP8 DUP3 ADD SWAP1 DUP2 MSTORE PUSH1 0x20 DUP2 ADD DUP5 SWAP1 MSTORE DUP12 SWAP1 DUP3 SWAP1 DUP2 SWAP1 SUB PUSH1 0x40 ADD DUP2 DUP16 DUP11 GAS CALL SWAP1 DUP2 ISZERO PUSH2 0xA6B JUMPI DUP13 SWAP2 PUSH2 0x1B09 JUMPI JUMPDEST POP ISZERO PUSH2 0x1ACF JUMPI PUSH32 0xEFC7F1F15BECFAEC7A3C17EEC78BE3FA7ADB45698F26FCFD25EFE1754C242331 SWAP2 DUP8 DUP10 SWAP3 DUP4 MLOAD SWAP3 DUP4 MSTORE AND DUP12 DUP3 ADD MSTORE LOG1 CODESIZE DUP1 PUSH2 0x194A JUMP JUMPDEST DUP8 MLOAD PUSH3 0x461BCD PUSH1 0xE5 SHL DUP2 MSTORE DUP1 DUP8 ADD DUP12 SWAP1 MSTORE PUSH1 0x15 DUP2 DUP7 ADD MSTORE PUSH21 0x115CD8DC9BDDC81C995B19585CD94819985A5B1959 PUSH1 0x5A SHL PUSH1 0x44 DUP3 ADD MSTORE PUSH1 0x64 SWAP1 REVERT JUMPDEST PUSH2 0x1B20 SWAP2 POP DUP12 RETURNDATASIZE DUP14 GT PUSH2 0x507 JUMPI PUSH2 0x4F9 DUP2 DUP4 PUSH2 0x1F88 JUMP JUMPDEST CODESIZE PUSH2 0x1A92 JUMP JUMPDEST SWAP1 SWAP9 POP PUSH1 0x60 DUP2 RETURNDATASIZE PUSH1 0x60 GT PUSH2 0x1B58 JUMPI JUMPDEST DUP2 PUSH2 0x1B42 PUSH1 0x60 SWAP4 DUP4 PUSH2 0x1F88 JUMP JUMPDEST DUP2 ADD SUB SLT PUSH2 0x1B54 JUMPI DUP8 ADD MLOAD SWAP8 CODESIZE PUSH2 0x1943 JUMP JUMPDEST DUP11 DUP1 REVERT JUMPDEST RETURNDATASIZE SWAP2 POP PUSH2 0x1B35 JUMP JUMPDEST DUP9 MLOAD RETURNDATASIZE DUP14 DUP3 RETURNDATACOPY RETURNDATASIZE SWAP1 REVERT JUMPDEST PUSH4 0x4E487B71 PUSH1 0xE0 SHL DUP14 MSTORE PUSH1 0x11 DUP9 MSTORE DUP6 DUP14 REVERT JUMPDEST DUP9 MLOAD PUSH3 0x461BCD PUSH1 0xE5 SHL DUP2 MSTORE DUP1 DUP9 ADD DUP13 SWAP1 MSTORE PUSH1 0x16 DUP2 DUP8 ADD MSTORE PUSH22 0x14185E5B595B9D08185C1C1C9BDD994819985A5B1959 PUSH1 0x52 SHL PUSH1 0x44 DUP3 ADD MSTORE PUSH1 0x64 SWAP1 REVERT JUMPDEST PUSH2 0x1BCE SWAP2 POP DUP13 DUP14 RETURNDATASIZE LT PUSH2 0x507 JUMPI PUSH2 0x4F9 DUP2 DUP4 PUSH2 0x1F88 JUMP JUMPDEST CODESIZE PUSH2 0x18D6 JUMP JUMPDEST DUP11 MLOAD RETURNDATASIZE DUP16 DUP3 RETURNDATACOPY RETURNDATASIZE SWAP1 REVERT JUMPDEST DUP10 MLOAD PUSH3 0x461BCD PUSH1 0xE5 SHL DUP2 MSTORE DUP1 DUP10 ADD DUP14 SWAP1 MSTORE PUSH1 0x14 DUP2 DUP9 ADD MSTORE PUSH20 0x151BDAD95B88185C1C1C9BDD994819985A5B1959 PUSH1 0x62 SHL PUSH1 0x44 DUP3 ADD MSTORE PUSH1 0x64 SWAP1 REVERT JUMPDEST PUSH2 0x1C2E SWAP2 POP DUP14 DUP1 RETURNDATASIZE LT PUSH2 0x507 JUMPI PUSH2 0x4F9 DUP2 DUP4 PUSH2 0x1F88 JUMP JUMPDEST CODESIZE PUSH2 0x1894 JUMP JUMPDEST DUP13 MLOAD SWAP1 RETURNDATASIZE SWAP1 DUP3 RETURNDATACOPY RETURNDATASIZE SWAP1 REVERT JUMPDEST DUP9 MLOAD PUSH3 0x461BCD PUSH1 0xE5 SHL DUP2 MSTORE DUP1 DUP9 ADD DUP13 SWAP1 MSTORE PUSH1 0x1B DUP2 DUP8 ADD MSTORE PUSH32 0x496E73756666696369656E74207061796D656E7420746F6B656E730000000000 PUSH1 0x44 DUP3 ADD MSTORE PUSH1 0x64 SWAP1 REVERT JUMPDEST SWAP1 POP DUP13 DUP2 DUP2 RETURNDATASIZE DUP4 GT PUSH2 0x1CAB JUMPI JUMPDEST PUSH2 0x1C98 DUP2 DUP4 PUSH2 0x1F88 JUMP JUMPDEST DUP2 ADD SUB SLT PUSH2 0x1CA7 JUMPI MLOAD CODESIZE PUSH2 0x1825 JUMP JUMPDEST DUP14 DUP1 REVERT JUMPDEST POP RETURNDATASIZE PUSH2 0x1C8E JUMP JUMPDEST SWAP1 SWAP2 POP DUP12 DUP2 DUP2 RETURNDATASIZE DUP4 GT PUSH2 0x1CDE JUMPI JUMPDEST PUSH2 0x1CCA DUP2 DUP4 PUSH2 0x1F88 JUMP JUMPDEST DUP2 ADD SUB SLT PUSH2 0x1CDA JUMPI MLOAD SWAP1 CODESIZE PUSH2 0x17D2 JUMP JUMPDEST DUP13 DUP1 REVERT JUMPDEST POP RETURNDATASIZE PUSH2 0x1CC0 JUMP JUMPDEST DUP2 MLOAD PUSH3 0x461BCD PUSH1 0xE5 SHL DUP2 MSTORE PUSH1 0x20 DUP2 DUP7 ADD MSTORE PUSH1 0x10 PUSH1 0x24 DUP3 ADD MSTORE PUSH16 0x105B1C9958591E4819195C1B1BDE5959 PUSH1 0x82 SHL PUSH1 0x44 DUP3 ADD MSTORE PUSH1 0x64 SWAP1 REVERT JUMPDEST DUP3 MLOAD PUSH3 0x461BCD PUSH1 0xE5 SHL DUP2 MSTORE PUSH1 0x20 DUP2 DUP8 ADD MSTORE PUSH1 0x12 PUSH1 0x24 DUP3 ADD MSTORE PUSH18 0x15185C99D95D081B9BDD081C995858DA1959 PUSH1 0x72 SHL PUSH1 0x44 DUP3 ADD MSTORE PUSH1 0x64 SWAP1 REVERT JUMPDEST DUP2 MLOAD PUSH3 0x461BCD PUSH1 0xE5 SHL DUP2 MSTORE PUSH1 0x20 DUP2 DUP7 ADD MSTORE PUSH1 0x18 PUSH1 0x24 DUP3 ADD MSTORE PUSH32 0x4F6E6C7920666F756E646572732063616E206465706C6F790000000000000000 PUSH1 0x44 DUP3 ADD MSTORE PUSH1 0x64 SWAP1 REVERT JUMPDEST POP DUP3 CALLVALUE PUSH2 0x100E JUMPI PUSH1 0x20 CALLDATASIZE PUSH1 0x3 NOT ADD SLT PUSH2 0x100E JUMPI POP PUSH2 0x316 PUSH1 0x20 SWAP3 CALLDATALOAD PUSH2 0x20D2 JUMP JUMPDEST POP CALLVALUE PUSH2 0x259 JUMPI DUP3 PUSH1 0x3 NOT CALLDATASIZE ADD SLT PUSH2 0x259 JUMPI DUP1 MLOAD PUSH4 0x70A08231 PUSH1 0xE0 SHL DUP2 MSTORE ADDRESS SWAP3 DUP2 ADD SWAP3 SWAP1 SWAP3 MSTORE PUSH1 0x20 DUP3 PUSH1 0x24 DUP2 PUSH32 0x0 PUSH1 0x1 PUSH1 0x1 PUSH1 0xA0 SHL SUB AND GAS STATICCALL SWAP2 DUP3 ISZERO PUSH2 0x265 JUMPI DUP4 SWAP3 PUSH2 0x229 JUMPI PUSH1 0x20 DUP4 DUP4 MLOAD SWAP1 DUP2 MSTORE RETURN JUMPDEST SWAP2 DUP5 SWAP2 POP CALLVALUE PUSH2 0x2AA JUMPI PUSH1 0x20 SWAP4 DUP5 PUSH1 0x3 NOT CALLDATASIZE ADD SLT PUSH2 0x259 JUMPI PUSH2 0x1E43 PUSH2 0x1F3B JUMP JUMPDEST PUSH1 0x1 PUSH1 0x1 PUSH1 0xA0 SHL SUB SWAP1 DUP2 AND DUP5 MSTORE PUSH1 0x9 DUP7 MSTORE DUP3 DUP5 KECCAK256 DUP1 SLOAD DUP1 DUP8 MSTORE SWAP1 DUP6 MSTORE DUP7 DUP6 KECCAK256 SWAP2 SWAP3 SWAP2 DUP6 SWAP2 DUP8 SWAP1 DUP2 DUP11 ADD SWAP1 DUP5 JUMPDEST DUP12 DUP3 DUP3 LT PUSH2 0x1F25 JUMPI POP POP POP PUSH2 0x1E86 SWAP3 POP SUB DUP8 PUSH2 0x1F88 JUMP JUMPDEST DUP1 JUMPDEST DUP7 MLOAD DUP2 LT ISZERO PUSH2 0x1F1C JUMPI DUP8 DUP2 PUSH1 0x5 SHL DUP9 ADD ADD MLOAD DUP3 MSTORE PUSH1 0x8 DUP9 MSTORE DUP5 DUP3 KECCAK256 DUP6 MLOAD SWAP1 PUSH2 0x1EAF DUP3 PUSH2 0x1F56 JUMP JUMPDEST DUP1 SLOAD DUP3 MSTORE PUSH1 0x1 DUP2 ADD SLOAD DUP11 DUP4 ADD MSTORE PUSH1 0x2 DUP2 ADD SLOAD SWAP2 DUP3 DUP9 DUP3 ADD MSTORE PUSH1 0xC0 DUP7 PUSH1 0x3 DUP5 ADD SLOAD SWAP4 DUP10 DUP6 AND PUSH1 0x60 DUP6 ADD MSTORE PUSH1 0xFF PUSH1 0xA0 SWAP1 DUP1 DUP8 DUP4 SHR AND ISZERO SWAP7 DUP8 ISZERO PUSH1 0x80 DUP9 ADD MSTORE PUSH1 0xA8 SHR AND ISZERO ISZERO SWAP1 DUP6 ADD MSTORE ADD SLOAD SWAP2 ADD MSTORE PUSH2 0x1F08 JUMPI JUMPDEST POP PUSH1 0x1 ADD PUSH2 0x1E88 JUMP JUMPDEST PUSH2 0x1F15 SWAP1 PUSH1 0x1 SWAP3 SWAP8 PUSH2 0x2021 JUMP JUMPDEST SWAP6 SWAP1 PUSH2 0x1EFF JUMP JUMPDEST DUP8 DUP7 DUP7 MLOAD SWAP1 DUP2 MSTORE RETURN JUMPDEST DUP6 SLOAD DUP5 MSTORE PUSH1 0x1 SWAP6 DUP7 ADD SWAP6 DUP13 SWAP6 POP SWAP4 ADD SWAP3 ADD PUSH2 0x1E6F JUMP JUMPDEST PUSH1 0x4 CALLDATALOAD SWAP1 PUSH1 0x1 PUSH1 0x1 PUSH1 0xA0 SHL SUB DUP3 AND DUP3 SUB PUSH2 0x1F51 JUMPI JUMP JUMPDEST PUSH1 0x0 DUP1 REVERT JUMPDEST PUSH1 0xE0 DUP2 ADD SWAP1 DUP2 LT PUSH8 0xFFFFFFFFFFFFFFFF DUP3 GT OR PUSH2 0x1F72 JUMPI PUSH1 0x40 MSTORE JUMP JUMPDEST PUSH4 0x4E487B71 PUSH1 0xE0 SHL PUSH1 0x0 MSTORE PUSH1 0x41 PUSH1 0x4 MSTORE PUSH1 0x24 PUSH1 0x0 REVERT JUMPDEST SWAP1 PUSH1 0x1F DUP1 NOT SWAP2 ADD AND DUP2 ADD SWAP1 DUP2 LT PUSH8 0xFFFFFFFFFFFFFFFF DUP3 GT OR PUSH2 0x1F72 JUMPI PUSH1 0x40 MSTORE JUMP JUMPDEST PUSH1 0x20 DUP1 DUP3 MSTORE DUP3 MLOAD DUP2 DUP4 ADD DUP2 SWAP1 MSTORE SWAP1 SWAP4 SWAP3 PUSH1 0x0 JUMPDEST DUP3 DUP2 LT PUSH2 0x1FDF JUMPI POP POP PUSH1 0x40 SWAP3 SWAP4 POP PUSH1 0x0 DUP4 DUP3 DUP5 ADD ADD MSTORE PUSH1 0x1F DUP1 NOT SWAP2 ADD AND ADD ADD SWAP1 JUMP JUMPDEST DUP2 DUP2 ADD DUP7 ADD MLOAD DUP5 DUP3 ADD PUSH1 0x40 ADD MSTORE DUP6 ADD PUSH2 0x1FBD JUMP JUMPDEST DUP1 SLOAD DUP3 LT ISZERO PUSH2 0x200B JUMPI PUSH1 0x0 MSTORE PUSH1 0x20 PUSH1 0x0 KECCAK256 ADD SWAP1 PUSH1 0x0 SWAP1 JUMP JUMPDEST PUSH4 0x4E487B71 PUSH1 0xE0 SHL PUSH1 0x0 MSTORE PUSH1 0x32 PUSH1 0x4 MSTORE PUSH1 0x24 PUSH1 0x0 REVERT JUMPDEST SWAP2 SWAP1 DUP3 ADD DUP1 SWAP3 GT PUSH2 0x202E JUMPI JUMP JUMPDEST PUSH4 0x4E487B71 PUSH1 0xE0 SHL PUSH1 0x0 MSTORE PUSH1 0x11 PUSH1 0x4 MSTORE PUSH1 0x24 PUSH1 0x0 REVERT JUMPDEST DUP2 DUP2 MUL SWAP3 SWAP2 DUP2 ISZERO SWAP2 DUP5 DIV EQ OR ISZERO PUSH2 0x202E JUMPI JUMP JUMPDEST DUP2 ISZERO PUSH2 0x2061 JUMPI DIV SWAP1 JUMP JUMPDEST PUSH4 0x4E487B71 PUSH1 0xE0 SHL PUSH1 0x0 MSTORE PUSH1 0x12 PUSH1 0x4 MSTORE PUSH1 0x24 PUSH1 0x0 REVERT JUMPDEST SWAP2 SWAP1 DUP3 SUB SWAP2 DUP3 GT PUSH2 0x202E JUMPI JUMP JUMPDEST ISZERO PUSH2 0x208B JUMPI JUMP JUMPDEST PUSH1 0x40 MLOAD PUSH3 0x461BCD PUSH1 0xE5 SHL DUP2 MSTORE PUSH1 0x20 PUSH1 0x4 DUP3 ADD MSTORE PUSH1 0xE PUSH1 0x24 DUP3 ADD MSTORE PUSH14 0x115E18D959591CC81D185C99D95D PUSH1 0x92 SHL PUSH1 0x44 DUP3 ADD MSTORE PUSH1 0x64 SWAP1 REVERT JUMPDEST PUSH1 0xFF AND PUSH1 0x4D DUP2 GT PUSH2 0x202E JUMPI PUSH1 0xA EXP SWAP1 JUMP JUMPDEST PUSH1 0x64 DUP2 MUL SWAP1 DUP1 DUP3 DIV PUSH1 0x64 EQ DUP2 ISZERO OR ISZERO PUSH2 0x202E JUMPI PUSH2 0x2209 PUSH2 0x2214 PUSH2 0x2161 PUSH2 0x226E SWAP5 PUSH2 0x6C5 PUSH2 0x2710 DUP1 SWAP3 DIV SWAP2 PUSH2 0x6C5 PUSH2 0x212E DUP5 DUP4 PUSH2 0x680 PUSH32 0x0 DUP13 PUSH2 0x2044 JUMP JUMPDEST SWAP2 PUSH2 0x2159 PUSH32 0x0 DUP11 PUSH2 0x2044 JUMP JUMPDEST DIV SWAP2 DUP9 PUSH2 0x2077 JUMP JUMPDEST PUSH2 0x220E PUSH1 0x4 SLOAD SWAP2 PUSH2 0x220E PUSH2 0x2175 DUP3 DUP6 PUSH2 0x2021 JUMP JUMPDEST PUSH2 0x21A2 PUSH32 0x0 DUP1 SWAP3 GT ISZERO PUSH2 0x2084 JUMP JUMPDEST PUSH2 0x2209 PUSH2 0x21AD PUSH2 0x25D4 JUMP JUMPDEST SWAP6 PUSH2 0x2203 PUSH32 0x0 SWAP6 PUSH2 0x21FD DUP8 PUSH32 0x0 PUSH2 0x2077 JUMP JUMPDEST SWAP3 PUSH2 0x2021 JUMP JUMPDEST SWAP1 PUSH2 0x2044 JUMP JUMPDEST PUSH2 0x2057 JUMP JUMPDEST SWAP1 PUSH2 0x2021 JUMP JUMPDEST PUSH1 0x1 SHR SWAP2 PUSH2 0x2203 PUSH2 0x2268 PUSH32 0x0 DUP1 SWAP4 PUSH32 0x0 SWAP1 PUSH2 0x2696 JUMP JUMPDEST SWAP2 PUSH2 0x20C1 JUMP JUMPDEST SWAP1 JUMP JUMPDEST ISZERO PUSH2 0x2278 JUMPI JUMP JUMPDEST PUSH1 0x40 MLOAD PUSH3 0x461BCD PUSH1 0xE5 SHL DUP2 MSTORE PUSH1 0x20 PUSH1 0x4 DUP3 ADD MSTORE PUSH1 0x18 PUSH1 0x24 DUP3 ADD MSTORE PUSH32 0x496E73756666696369656E742073616C6520746F6B656E730000000000000000 PUSH1 0x44 DUP3 ADD MSTORE PUSH1 0x64 SWAP1 REVERT JUMPDEST SWAP1 DUP2 PUSH1 0x20 SWAP2 SUB SLT PUSH2 0x1F51 JUMPI MLOAD DUP1 ISZERO ISZERO DUP2 SUB PUSH2 0x1F51 JUMPI SWAP1 JUMP JUMPDEST PUSH1 0x40 MLOAD PUSH4 0x70A08231 PUSH1 0xE0 SHL DUP2 MSTORE ADDRESS PUSH1 0x4 DUP3 ADD MSTORE PUSH1 0x20 DUP2 PUSH1 0x24 DUP2 PUSH32 0x0 PUSH1 0x1 PUSH1 0x1 PUSH1 0xA0 SHL SUB AND GAS STATICCALL SWAP1 DUP2 ISZERO PUSH2 0x2369 JUMPI PUSH1 0x0 SWAP2 PUSH2 0x2337 JUMPI JUMPDEST POP PUSH2 0x2332 PUSH2 0x2476 JUMP JUMPDEST GT ISZERO SWAP1 JUMP JUMPDEST SWAP1 POP PUSH1 0x20 DUP2 RETURNDATASIZE PUSH1 0x20 GT PUSH2 0x2361 JUMPI JUMPDEST DUP2 PUSH2 0x2352 PUSH1 0x20 SWAP4 DUP4 PUSH2 0x1F88 JUMP JUMPDEST DUP2 ADD SUB SLT PUSH2 0x1F51 JUMPI MLOAD CODESIZE PUSH2 0x2329 JUMP JUMPDEST RETURNDATASIZE SWAP2 POP PUSH2 0x2345 JUMP JUMPDEST PUSH1 0x40 MLOAD RETURNDATASIZE PUSH1 0x0 DUP3 RETURNDATACOPY RETURNDATASIZE SWAP1 REVERT JUMPDEST ISZERO PUSH2 0x237C JUMPI JUMP JUMPDEST PUSH1 0x40 MLOAD PUSH3 0x461BCD PUSH1 0xE5 SHL DUP2 MSTORE PUSH1 0x20 PUSH1 0x4 DUP3 ADD MSTORE PUSH1 0xE PUSH1 0x24 DUP3 ADD MSTORE PUSH14 0x14D85B194818DBDB5C1B195D1959 PUSH1 0x92 SHL PUSH1 0x44 DUP3 ADD MSTORE PUSH1 0x64 SWAP1 REVERT JUMPDEST ISZERO PUSH2 0x23B9 JUMPI JUMP JUMPDEST PUSH1 0x40 MLOAD PUSH3 0x461BCD PUSH1 0xE5 SHL DUP2 MSTORE PUSH1 0x20 PUSH1 0x4 DUP3 ADD MSTORE PUSH1 0x16 PUSH1 0x24 DUP3 ADD MSTORE PUSH22 0x15185C99D95D08185B1C9958591E481C995858DA1959 PUSH1 0x52 SHL PUSH1 0x44 DUP3 ADD MSTORE PUSH1 0x64 SWAP1 REVERT JUMPDEST ISZERO PUSH2 0x23FE JUMPI JUMP JUMPDEST PUSH1 0x40 MLOAD PUSH3 0x461BCD PUSH1 0xE5 SHL DUP2 MSTORE PUSH1 0x20 PUSH1 0x4 DUP3 ADD MSTORE PUSH1 0x11 PUSH1 0x24 DUP3 ADD MSTORE PUSH17 0x2737BA103A343290383AB931B430B9B2B9 PUSH1 0x79 SHL PUSH1 0x44 DUP3 ADD MSTORE PUSH1 0x64 SWAP1 REVERT JUMPDEST ISZERO PUSH2 0x243E JUMPI JUMP JUMPDEST PUSH1 0x40 MLOAD PUSH3 0x461BCD PUSH1 0xE5 SHL DUP2 MSTORE PUSH1 0x20 PUSH1 0x4 DUP3 ADD MSTORE PUSH1 0x10 PUSH1 0x24 DUP3 ADD MSTORE PUSH16 0x105B1C9958591E481C995919595B5959 PUSH1 0x82 SHL PUSH1 0x44 DUP3 ADD MSTORE PUSH1 0x64 SWAP1 REVERT JUMPDEST PUSH2 0x2710 PUSH32 0x0 DUP2 SUB DUP2 DUP2 GT PUSH2 0x202E JUMPI PUSH2 0x24CE SWAP1 PUSH32 0x0 SWAP1 PUSH2 0x2077 JUMP JUMPDEST PUSH32 0x0 SWAP1 DUP3 DUP3 MUL SWAP3 DUP3 DUP5 DIV EQ DUP3 ISZERO OR ISZERO PUSH2 0x202E JUMPI PUSH2 0x2510 PUSH2 0x220E SWAP2 PUSH2 0x226E SWAP5 PUSH2 0x2057 JUMP JUMPDEST SWAP2 PUSH2 0x2209 PUSH32 0x0 SWAP2 PUSH2 0x2203 PUSH2 0x25CE PUSH32 0x0 SWAP7 PUSH2 0x2209 PUSH2 0x25C1 PUSH2 0x25BA DUP11 PUSH2 0x2593 DUP2 DUP12 PUSH32 0x0 PUSH2 0x2696 JUMP JUMPDEST SWAP10 PUSH32 0x0 PUSH2 0x2696 JUMP JUMPDEST DUP1 SWAP9 PUSH2 0x2021 JUMP JUMPDEST PUSH1 0x1 SHR SWAP2 PUSH2 0x2203 DUP11 PUSH2 0x20C1 JUMP JUMPDEST SWAP6 PUSH2 0x20C1 JUMP JUMPDEST PUSH1 0x4 SLOAD PUSH32 0x0 SWAP1 DUP2 DUP2 LT ISZERO PUSH2 0x265C JUMPI PUSH2 0x220E PUSH2 0x226E SWAP3 PUSH2 0x2209 PUSH32 0x0 SWAP4 PUSH2 0x2657 DUP6 PUSH32 0x0 PUSH2 0x2077 JUMP JUMPDEST PUSH2 0x2044 JUMP JUMPDEST POP POP PUSH32 0x0 SWAP1 JUMP JUMPDEST SWAP1 PUSH1 0xFF DUP1 SWAP2 AND SWAP2 AND SUB SWAP1 PUSH1 0xFF DUP3 GT PUSH2 0x202E JUMPI JUMP JUMPDEST SWAP1 PUSH1 0xFF DUP4 AND PUSH1 0xFF DUP3 AND DUP2 DUP2 EQ PUSH2 0x26D6 JUMPI LT PUSH2 0x26C6 JUMPI PUSH2 0x26BB PUSH2 0x226E SWAP4 PUSH2 0x26C0 SWAP3 PUSH2 0x2682 JUMP JUMPDEST PUSH2 0x20C1 JUMP JUMPDEST SWAP1 PUSH2 0x2057 JUMP JUMPDEST PUSH2 0x26BB PUSH2 0x2203 SWAP2 PUSH2 0x226E SWAP5 PUSH2 0x2682 JUMP JUMPDEST POP POP POP SWAP1 POP SWAP1 JUMP JUMPDEST PUSH1 0x2 PUSH1 0x0 SLOAD EQ PUSH2 0x26EF JUMPI PUSH1 0x2 PUSH1 0x0 SSTORE JUMP JUMPDEST PUSH1 0x40 MLOAD PUSH4 0x3EE5AEB5 PUSH1 0xE0 SHL DUP2 MSTORE PUSH1 0x4 SWAP1 REVERT INVALID LOG2 PUSH5 0x6970667358 0x22 SLT KECCAK256 CALLER 0xDD DUP3 0x4F PUSH3 0x1887CF PUSH21 0xEEF59C4B2117C40AD7349FADFEFF27F92803CF6474 0xC4 0xFB PUSH5 0x736F6C6343 STOP ADDMOD XOR STOP CALLER 0xA6 PUSH13 0xC928B5EDB82AF9BD4992295415 GAS 0xB7 0xB0 SWAP5 0x26 SWAP5 0xBE LOG4 0xCE PREVRANDAO PUSH7 0x1D9A8736C688F6 MSTORE 0x22 0x23 SGT 0xE2 DUP5 MSIZE MSTORE DUP14 SWAP3 SIGNEXTEND PUSH6 0x115C16C04F3E 0xFC DUP3 0xAA 0xED 0xC9 PUSH28 0xE59F3F377C0D3FA26469706673582212204440401D73EBE6463C3069 0x1F 0xE6 0xB7 0x4F LOG0 0x26 DUP16 0xD5 SUB DUP10 RETURN CALLCODE SWAP1 SLT MSTORE 0x2C 0xBA EXTCODECOPY SWAP13 PUSH31 0x6264736F6C6343000818003300000000000000000000000000000000000000 "
        },
        "methodIdentifiers": {
          "createFundraiser(uint256,uint256,uint256,uint256,uint256,address,address,address,string,string)": "2249b06f",
          "fundCounterIndex()": "4a64a944",
          "funds(uint256)": "7b8e8895",
          "uniswapFactory()": "8bdb2afa",
          "uniswapRouter()": "735de9f7"
        }
      }
    }
  }
}