{
  "contracts/OtterPadFundraiser.sol": {
    "OtterPadFundraiser": {
      "abi": [
        {
          "inputs": [
            {
              "internalType": "address",
              "name": "_saleToken",
              "type": "address"
            },
            {
              "internalType": "address",
              "name": "_paymentToken",
              "type": "address"
            },
            {
              "internalType": "address",
              "name": "_uniswapRouter",
              "type": "address"
            },
            {
              "internalType": "address",
              "name": "_uniswapFactory",
              "type": "address"
            },
            {
              "internalType": "uint256",
              "name": "_startPrice",
              "type": "uint256"
            },
            {
              "internalType": "uint256",
              "name": "_endPrice",
              "type": "uint256"
            },
            {
              "internalType": "uint256",
              "name": "_targetLiquidity",
              "type": "uint256"
            },
            {
              "internalType": "uint256",
              "name": "_upfrontRakeBPS",
              "type": "uint256"
            },
            {
              "internalType": "uint256",
              "name": "_escrowRakeBPS",
              "type": "uint256"
            },
            {
              "internalType": "address",
              "name": "_foundersWallet",
              "type": "address"
            }
          ],
          "stateMutability": "nonpayable",
          "type": "constructor"
        },
        {
          "inputs": [],
          "name": "ReentrancyGuardReentrantCall",
          "type": "error"
        },
        {
          "anonymous": false,
          "inputs": [
            {
              "indexed": false,
              "internalType": "address",
              "name": "pair",
              "type": "address"
            },
            {
              "indexed": false,
              "internalType": "uint256",
              "name": "liquidity",
              "type": "uint256"
            }
          ],
          "name": "DeployedToUniswap",
          "type": "event"
        },
        {
          "anonymous": false,
          "inputs": [
            {
              "indexed": false,
              "internalType": "uint256",
              "name": "amount",
              "type": "uint256"
            },
            {
              "indexed": false,
              "internalType": "address",
              "name": "foundersWallet",
              "type": "address"
            }
          ],
          "name": "EscrowReleased",
          "type": "event"
        },
        {
          "anonymous": false,
          "inputs": [
            {
              "indexed": true,
              "internalType": "address",
              "name": "purchaser",
              "type": "address"
            },
            {
              "indexed": false,
              "internalType": "uint256",
              "name": "totalAmount",
              "type": "uint256"
            },
            {
              "indexed": false,
              "internalType": "uint256",
              "name": "otterpadFee",
              "type": "uint256"
            },
            {
              "indexed": false,
              "internalType": "uint256",
              "name": "upfrontAmount",
              "type": "uint256"
            },
            {
              "indexed": false,
              "internalType": "uint256",
              "name": "escrowAmount",
              "type": "uint256"
            },
            {
              "indexed": false,
              "internalType": "uint256",
              "name": "contributionAmount",
              "type": "uint256"
            }
          ],
          "name": "PaymentReceived",
          "type": "event"
        },
        {
          "anonymous": false,
          "inputs": [
            {
              "indexed": true,
              "internalType": "address",
              "name": "purchaser",
              "type": "address"
            },
            {
              "indexed": false,
              "internalType": "uint256",
              "name": "contributionAmount",
              "type": "uint256"
            },
            {
              "indexed": true,
              "internalType": "uint256",
              "name": "orderIndex",
              "type": "uint256"
            }
          ],
          "name": "Refunded",
          "type": "event"
        },
        {
          "anonymous": false,
          "inputs": [
            {
              "indexed": true,
              "internalType": "address",
              "name": "purchaser",
              "type": "address"
            },
            {
              "indexed": false,
              "internalType": "uint256",
              "name": "paymentAmount",
              "type": "uint256"
            },
            {
              "indexed": false,
              "internalType": "uint256",
              "name": "contributionAmount",
              "type": "uint256"
            },
            {
              "indexed": false,
              "internalType": "uint256",
              "name": "tokenAmount",
              "type": "uint256"
            },
            {
              "indexed": true,
              "internalType": "uint256",
              "name": "orderIndex",
              "type": "uint256"
            }
          ],
          "name": "TokensPurchased",
          "type": "event"
        },
        {
          "anonymous": false,
          "inputs": [
            {
              "indexed": true,
              "internalType": "address",
              "name": "purchaser",
              "type": "address"
            },
            {
              "indexed": false,
              "internalType": "uint256",
              "name": "tokenAmount",
              "type": "uint256"
            },
            {
              "indexed": true,
              "internalType": "uint256",
              "name": "orderIndex",
              "type": "uint256"
            }
          ],
          "name": "TokensRedeemed",
          "type": "event"
        },
        {
          "inputs": [],
          "name": "OTTERPAD_DAO",
          "outputs": [
            {
              "internalType": "address",
              "name": "",
              "type": "address"
            }
          ],
          "stateMutability": "view",
          "type": "function"
        },
        {
          "inputs": [],
          "name": "OTTERPAD_FEE_BPS",
          "outputs": [
            {
              "internalType": "uint256",
              "name": "",
              "type": "uint256"
            }
          ],
          "stateMutability": "view",
          "type": "function"
        },
        {
          "inputs": [
            {
              "internalType": "uint256",
              "name": "paymentAmount",
              "type": "uint256"
            }
          ],
          "name": "buy",
          "outputs": [],
          "stateMutability": "nonpayable",
          "type": "function"
        },
        {
          "inputs": [
            {
              "internalType": "uint256",
              "name": "paymentAmount",
              "type": "uint256"
            }
          ],
          "name": "calculateTokensReceived",
          "outputs": [
            {
              "internalType": "uint256",
              "name": "",
              "type": "uint256"
            }
          ],
          "stateMutability": "view",
          "type": "function"
        },
        {
          "inputs": [],
          "name": "checkSaleTokensRequired",
          "outputs": [
            {
              "internalType": "uint256",
              "name": "",
              "type": "uint256"
            }
          ],
          "stateMutability": "view",
          "type": "function"
        },
        {
          "inputs": [],
          "name": "deployToUniswap",
          "outputs": [],
          "stateMutability": "nonpayable",
          "type": "function"
        },
        {
          "inputs": [],
          "name": "endPrice",
          "outputs": [
            {
              "internalType": "uint256",
              "name": "",
              "type": "uint256"
            }
          ],
          "stateMutability": "view",
          "type": "function"
        },
        {
          "inputs": [],
          "name": "escrowRakeBPS",
          "outputs": [
            {
              "internalType": "uint256",
              "name": "",
              "type": "uint256"
            }
          ],
          "stateMutability": "view",
          "type": "function"
        },
        {
          "inputs": [],
          "name": "foundersWallet",
          "outputs": [
            {
              "internalType": "address",
              "name": "",
              "type": "address"
            }
          ],
          "stateMutability": "view",
          "type": "function"
        },
        {
          "inputs": [
            {
              "internalType": "address",
              "name": "user",
              "type": "address"
            }
          ],
          "name": "getAllocation",
          "outputs": [
            {
              "internalType": "uint256",
              "name": "totalTokens",
              "type": "uint256"
            }
          ],
          "stateMutability": "view",
          "type": "function"
        },
        {
          "inputs": [],
          "name": "getCurrentPrice",
          "outputs": [
            {
              "internalType": "uint256",
              "name": "",
              "type": "uint256"
            }
          ],
          "stateMutability": "view",
          "type": "function"
        },
        {
          "inputs": [],
          "name": "getEscrowedAmount",
          "outputs": [
            {
              "internalType": "uint256",
              "name": "",
              "type": "uint256"
            }
          ],
          "stateMutability": "view",
          "type": "function"
        },
        {
          "inputs": [],
          "name": "getMinimumPurchase",
          "outputs": [
            {
              "internalType": "uint256",
              "name": "",
              "type": "uint256"
            }
          ],
          "stateMutability": "view",
          "type": "function"
        },
        {
          "inputs": [],
          "name": "getPaymentTokenBalance",
          "outputs": [
            {
              "internalType": "uint256",
              "name": "",
              "type": "uint256"
            }
          ],
          "stateMutability": "view",
          "type": "function"
        },
        {
          "inputs": [],
          "name": "getSaleTokenBalance",
          "outputs": [
            {
              "internalType": "uint256",
              "name": "",
              "type": "uint256"
            }
          ],
          "stateMutability": "view",
          "type": "function"
        },
        {
          "inputs": [
            {
              "internalType": "address",
              "name": "user",
              "type": "address"
            }
          ],
          "name": "getUserOrderIndices",
          "outputs": [
            {
              "internalType": "uint256[]",
              "name": "",
              "type": "uint256[]"
            }
          ],
          "stateMutability": "view",
          "type": "function"
        },
        {
          "inputs": [],
          "name": "hasSufficientSaleTokens",
          "outputs": [
            {
              "internalType": "bool",
              "name": "",
              "type": "bool"
            }
          ],
          "stateMutability": "view",
          "type": "function"
        },
        {
          "inputs": [],
          "name": "isDeployedToUniswap",
          "outputs": [
            {
              "internalType": "bool",
              "name": "",
              "type": "bool"
            }
          ],
          "stateMutability": "view",
          "type": "function"
        },
        {
          "inputs": [],
          "name": "orderCounter",
          "outputs": [
            {
              "internalType": "uint256",
              "name": "",
              "type": "uint256"
            }
          ],
          "stateMutability": "view",
          "type": "function"
        },
        {
          "inputs": [],
          "name": "paymentToken",
          "outputs": [
            {
              "internalType": "contract IERC20Metadata",
              "name": "",
              "type": "address"
            }
          ],
          "stateMutability": "view",
          "type": "function"
        },
        {
          "inputs": [
            {
              "internalType": "uint256",
              "name": "",
              "type": "uint256"
            }
          ],
          "name": "purchases",
          "outputs": [
            {
              "internalType": "uint256",
              "name": "paymentAmount",
              "type": "uint256"
            },
            {
              "internalType": "uint256",
              "name": "contributionAmount",
              "type": "uint256"
            },
            {
              "internalType": "uint256",
              "name": "tokenAmount",
              "type": "uint256"
            },
            {
              "internalType": "address",
              "name": "purchaser",
              "type": "address"
            },
            {
              "internalType": "bool",
              "name": "isRefunded",
              "type": "bool"
            },
            {
              "internalType": "bool",
              "name": "isRedeemed",
              "type": "bool"
            },
            {
              "internalType": "uint256",
              "name": "purchaseBlock",
              "type": "uint256"
            }
          ],
          "stateMutability": "view",
          "type": "function"
        },
        {
          "inputs": [
            {
              "internalType": "address",
              "name": "tokenAddress",
              "type": "address"
            },
            {
              "internalType": "uint256",
              "name": "amount",
              "type": "uint256"
            }
          ],
          "name": "recoverStuckTokens",
          "outputs": [],
          "stateMutability": "nonpayable",
          "type": "function"
        },
        {
          "inputs": [
            {
              "internalType": "uint256",
              "name": "orderIndex",
              "type": "uint256"
            }
          ],
          "name": "redeem",
          "outputs": [],
          "stateMutability": "nonpayable",
          "type": "function"
        },
        {
          "inputs": [
            {
              "internalType": "uint256",
              "name": "orderIndex",
              "type": "uint256"
            }
          ],
          "name": "refund",
          "outputs": [],
          "stateMutability": "nonpayable",
          "type": "function"
        },
        {
          "inputs": [],
          "name": "saleToken",
          "outputs": [
            {
              "internalType": "contract IERC20Metadata",
              "name": "",
              "type": "address"
            }
          ],
          "stateMutability": "view",
          "type": "function"
        },
        {
          "inputs": [],
          "name": "startPrice",
          "outputs": [
            {
              "internalType": "uint256",
              "name": "",
              "type": "uint256"
            }
          ],
          "stateMutability": "view",
          "type": "function"
        },
        {
          "inputs": [],
          "name": "targetLiquidity",
          "outputs": [
            {
              "internalType": "uint256",
              "name": "",
              "type": "uint256"
            }
          ],
          "stateMutability": "view",
          "type": "function"
        },
        {
          "inputs": [],
          "name": "targetReached",
          "outputs": [
            {
              "internalType": "bool",
              "name": "",
              "type": "bool"
            }
          ],
          "stateMutability": "view",
          "type": "function"
        },
        {
          "inputs": [],
          "name": "totalActiveContributions",
          "outputs": [
            {
              "internalType": "uint256",
              "name": "",
              "type": "uint256"
            }
          ],
          "stateMutability": "view",
          "type": "function"
        },
        {
          "inputs": [],
          "name": "totalPaymentsIn",
          "outputs": [
            {
              "internalType": "uint256",
              "name": "",
              "type": "uint256"
            }
          ],
          "stateMutability": "view",
          "type": "function"
        },
        {
          "inputs": [],
          "name": "totalTokensAllocated",
          "outputs": [
            {
              "internalType": "uint256",
              "name": "",
              "type": "uint256"
            }
          ],
          "stateMutability": "view",
          "type": "function"
        },
        {
          "inputs": [],
          "name": "uniswapFactory",
          "outputs": [
            {
              "internalType": "contract IUniswapV2Factory",
              "name": "",
              "type": "address"
            }
          ],
          "stateMutability": "view",
          "type": "function"
        },
        {
          "inputs": [],
          "name": "uniswapRouter",
          "outputs": [
            {
              "internalType": "contract IUniswapV2Router02",
              "name": "",
              "type": "address"
            }
          ],
          "stateMutability": "view",
          "type": "function"
        },
        {
          "inputs": [],
          "name": "upfrontRakeBPS",
          "outputs": [
            {
              "internalType": "uint256",
              "name": "",
              "type": "uint256"
            }
          ],
          "stateMutability": "view",
          "type": "function"
        },
        {
          "inputs": [
            {
              "internalType": "address",
              "name": "",
              "type": "address"
            },
            {
              "internalType": "uint256",
              "name": "",
              "type": "uint256"
            }
          ],
          "name": "userOrderIndices",
          "outputs": [
            {
              "internalType": "uint256",
              "name": "",
              "type": "uint256"
            }
          ],
          "stateMutability": "view",
          "type": "function"
        }
      ],
      "evm": {
        "bytecode": {
          "linkReferences": {},
          "object": "6102006040523480156200001257600080fd5b50604051620054e8380380620054e88339818101604052810190620000389190620006a5565b6001600081905550600086118015620000515750600085115b80156200005d57508585115b6200009f576040517f08c379a00000000000000000000000000000000000000000000000000000000081526004016200009690620007fc565b60405180910390fd5b60008411620000e5576040517f08c379a0000000000000000000000000000000000000000000000000000000008152600401620000dc906200086e565b60405180910390fd5b60648310156200012c576040517f08c379a0000000000000000000000000000000000000000000000000000000008152600401620001239062000906565b60405180910390fd5b611b5882846200013d919062000957565b111562000181576040517f08c379a00000000000000000000000000000000000000000000000000000000081526004016200017890620009e2565b60405180910390fd5b600073ffffffffffffffffffffffffffffffffffffffff168173ffffffffffffffffffffffffffffffffffffffff1603620001f3576040517f08c379a0000000000000000000000000000000000000000000000000000000008152600401620001ea9062000a54565b60405180910390fd5b600073ffffffffffffffffffffffffffffffffffffffff168a73ffffffffffffffffffffffffffffffffffffffff16141580156200025e5750600073ffffffffffffffffffffffffffffffffffffffff168973ffffffffffffffffffffffffffffffffffffffff1614155b620002a0576040517f08c379a0000000000000000000000000000000000000000000000000000000008152600401620002979062000ac6565b60405180910390fd5b8873ffffffffffffffffffffffffffffffffffffffff168a73ffffffffffffffffffffffffffffffffffffffff160362000311576040517f08c379a0000000000000000000000000000000000000000000000000000000008152600401620003089062000b38565b60405180910390fd5b600073ffffffffffffffffffffffffffffffffffffffff168873ffffffffffffffffffffffffffffffffffffffff16141580156200037c5750600073ffffffffffffffffffffffffffffffffffffffff168773ffffffffffffffffffffffffffffffffffffffff1614155b620003be576040517f08c379a0000000000000000000000000000000000000000000000000000000008152600401620003b59062000baa565b60405180910390fd5b8973ffffffffffffffffffffffffffffffffffffffff1660808173ffffffffffffffffffffffffffffffffffffffff16815250508873ffffffffffffffffffffffffffffffffffffffff1660a08173ffffffffffffffffffffffffffffffffffffffff16815250508773ffffffffffffffffffffffffffffffffffffffff1660c08173ffffffffffffffffffffffffffffffffffffffff16815250508673ffffffffffffffffffffffffffffffffffffffff1660e08173ffffffffffffffffffffffffffffffffffffffff16815250508973ffffffffffffffffffffffffffffffffffffffff1663313ce5676040518163ffffffff1660e01b8152600401602060405180830381865afa158015620004da573d6000803e3d6000fd5b505050506040513d601f19601f8201168201806040525081019062000500919062000c0a565b60ff166101a08160ff16815250508873ffffffffffffffffffffffffffffffffffffffff1663313ce5676040518163ffffffff1660e01b8152600401602060405180830381865afa1580156200055a573d6000803e3d6000fd5b505050506040513d601f19601f8201168201806040525081019062000580919062000c0a565b60ff166101c08160ff16815250508561010081815250508461012081815250508361014081815250508261016081815250508161018081815250508073ffffffffffffffffffffffffffffffffffffffff166101e08173ffffffffffffffffffffffffffffffffffffffff16815250505050505050505050505062000c3c565b600080fd5b600073ffffffffffffffffffffffffffffffffffffffff82169050919050565b6000620006328262000605565b9050919050565b620006448162000625565b81146200065057600080fd5b50565b600081519050620006648162000639565b92915050565b6000819050919050565b6200067f816200066a565b81146200068b57600080fd5b50565b6000815190506200069f8162000674565b92915050565b6000806000806000806000806000806101408b8d031215620006cc57620006cb62000600565b5b6000620006dc8d828e0162000653565b9a50506020620006ef8d828e0162000653565b9950506040620007028d828e0162000653565b9850506060620007158d828e0162000653565b9750506080620007288d828e016200068e565b96505060a06200073b8d828e016200068e565b95505060c06200074e8d828e016200068e565b94505060e0620007618d828e016200068e565b935050610100620007758d828e016200068e565b925050610120620007898d828e0162000653565b9150509295989b9194979a5092959850565b600082825260208201905092915050565b7f496e76616c696420707269636573000000000000000000000000000000000000600082015250565b6000620007e4600e836200079b565b9150620007f182620007ac565b602082019050919050565b600060208201905081810360008301526200081781620007d5565b9050919050565b7f496e76616c6964207461726765742066756e64696e6700000000000000000000600082015250565b6000620008566016836200079b565b915062000863826200081e565b602082019050919050565b60006020820190508181036000830152620008898162000847565b9050919050565b7f557066726f6e742072616b65206d757374206265203e3d204f7474657250616460008201527f2066656500000000000000000000000000000000000000000000000000000000602082015250565b6000620008ee6024836200079b565b9150620008fb8262000890565b604082019050919050565b600060208201905081810360008301526200092181620008df565b9050919050565b7f4e487b7100000000000000000000000000000000000000000000000000000000600052601160045260246000fd5b600062000964826200066a565b915062000971836200066a565b92508282019050808211156200098c576200098b62000928565b5b92915050565b7f436f6d62696e65642072616b6520373025206578636565646564000000000000600082015250565b6000620009ca601a836200079b565b9150620009d78262000992565b602082019050919050565b60006020820190508181036000830152620009fd81620009bb565b9050919050565b7f496e76616c696420666f756e646572732077616c6c6574000000000000000000600082015250565b600062000a3c6017836200079b565b915062000a498262000a04565b602082019050919050565b6000602082019050818103600083015262000a6f8162000a2d565b9050919050565b7f496e76616c696420746f6b656e20616464726573736573000000000000000000600082015250565b600062000aae6017836200079b565b915062000abb8262000a76565b602082019050919050565b6000602082019050818103600083015262000ae18162000a9f565b9050919050565b7f546f6b656e73206d75737420626520646966666572656e740000000000000000600082015250565b600062000b206018836200079b565b915062000b2d8262000ae8565b602082019050919050565b6000602082019050818103600083015262000b538162000b11565b9050919050565b7f496e76616c696420556e69737761702061646472657373657300000000000000600082015250565b600062000b926019836200079b565b915062000b9f8262000b5a565b602082019050919050565b6000602082019050818103600083015262000bc58162000b83565b9050919050565b600060ff82169050919050565b62000be48162000bcc565b811462000bf057600080fd5b50565b60008151905062000c048162000bd9565b92915050565b60006020828403121562000c235762000c2262000600565b5b600062000c338482850162000bf3565b91505092915050565b60805160a05160c05160e05161010051610120516101405161016051610180516101a0516101c0516101e05161466f62000e7960003960008181610b980152818161122c0152818161130f0152818161152801528181611e2b0152818161207801526125e1015260008181610afd01528181611a380152611aa7015260008181610b1e01528181610b4701528181611a5901528181611ac801528181611b0f0152611b560152600081816109430152818161197a01528181611c7701528181611d3801526122a40152600081816108fc015281816119220152818161199b015261225d0152600081816109a101528181610a1f015281816119db01528181611b8301528181611cd801528181611d0801528181612302015281816128d901528181612ca30152612cf4015260008181610a6f01528181611a8601528181611d6201528181612ccc0152612d39015260008181610a4e01528181610aae01528181611a1701528181612d1801528181612d780152612dc60152600081816113830152611cb4015260008181610f2201528181611021015281816110e70152611bd201526000818161083801528181610e0b01528181610fe501528181611144015281816111f0015281816113e0015281816117ab015281816118eb0152818161237f015281816124b401526125a5015260008181610d2d01528181610ee601528181611123015281816113bf0152818161148701528181611f0801528181612b3701528181612c7d01528181612dec0152612f11015261466f6000f3fe608060405234801561001057600080fd5b50600436106102115760003560e01c806392258ec811610125578063d96a094a116100ad578063eb91d37e1161007c578063eb91d37e146105de578063edafc9af146105fc578063ef5ee9951461061a578063f1a9af8914610638578063f6a55a291461065657610211565b8063d96a094a1461056a578063db006a7514610586578063de7e3310146105a2578063e985e367146105c057610211565b8063b789bf52116100f4578063b789bf52146104c4578063b868723e146104e2578063bef0886014610500578063c07f773a14610530578063c596f3fe1461054e57610211565b806392258ec81461044c5780639513a0fd1461046a578063af5b065a14610488578063b704a0c4146104a657610211565b80633013ce29116101a85780635f655ea7116101775780635f655ea71461039e578063735de9f7146103bc5780638392fe31146103da5780638a19ecef146104105780638bdb2afa1461042e57610211565b80633013ce29146103145780633bde5ba814610332578063560b842c146103505780635a59c5511461036e57610211565b806316c04948116101e457806316c049481461029e5780631bfaf155146102bc57806325f97fb9146102da578063278ecde1146102f857610211565b80630e022923146102165780630f8c27981461024657806310d0ffdd1461026457806312eff12c14610294575b600080fd5b610230600480360381019061022b9190613063565b610674565b60405161023d91906130a9565b60405180910390f35b61024e610834565b60405161025b91906130a9565b60405180910390f35b61027e600480360381019061027991906130f0565b6108d5565b60405161028b91906130a9565b60405180910390f35b61029c610b96565b005b6102a661147b565b6040516102b39190613138565b60405180910390f35b6102c4611526565b6040516102d19190613162565b60405180910390f35b6102e261154a565b6040516102ef9190613138565b60405180910390f35b610312600480360381019061030d91906130f0565b61155d565b005b61031c6118e9565b60405161032991906131dc565b60405180910390f35b61033a61190d565b6040516103479190613138565b60405180910390f35b610358611920565b60405161036591906130a9565b60405180910390f35b610388600480360381019061038391906131f7565b611944565b60405161039591906130a9565b60405180910390f35b6103a6611975565b6040516103b391906130a9565b60405180910390f35b6103c4611bd0565b6040516103d19190613258565b60405180910390f35b6103f460048036038101906103ef91906130f0565b611bf4565b6040516104079796959493929190613273565b60405180910390f35b610418611c70565b60405161042591906130a9565b60405180910390f35b610436611cb2565b6040516104439190613303565b60405180910390f35b610454611cd6565b60405161046191906130a9565b60405180910390f35b610472611cfa565b60405161047f91906130a9565b60405180910390f35b610490611d00565b60405161049d91906130a9565b60405180910390f35b6104ae611d36565b6040516104bb91906130a9565b60405180910390f35b6104cc611d5a565b6040516104d991906130a9565b60405180910390f35b6104ea611d60565b6040516104f791906130a9565b60405180910390f35b61051a60048036038101906105159190613063565b611d84565b60405161052791906133dc565b60405180910390f35b610538611e1b565b60405161054591906130a9565b60405180910390f35b610568600480360381019061056391906131f7565b611e21565b005b610584600480360381019061057f91906130f0565b612145565b005b6105a0600480360381019061059b91906130f0565b61292d565b005b6105aa612c75565b6040516105b791906130a9565b60405180910390f35b6105c8612c7b565b6040516105d591906131dc565b60405180910390f35b6105e6612c9f565b6040516105f391906130a9565b60405180910390f35b610604612da7565b6040516106119190613162565b60405180910390f35b610622612dbf565b60405161062f91906130a9565b60405180910390f35b610640612dc4565b60405161064d91906130a9565b60405180910390f35b61065e612de8565b60405161066b91906130a9565b60405180910390f35b600080600760008473ffffffffffffffffffffffffffffffffffffffff1673ffffffffffffffffffffffffffffffffffffffff16815260200190815260200160002080548060200260200160405190810160405280929190818152602001828054801561070057602002820191906000526020600020905b8154815260200190600101908083116106ec575b5050505050905060005b815181101561082d5760006006600084848151811061072c5761072b6133fe565b5b602002602001015181526020019081526020016000206040518060e00160405290816000820154815260200160018201548152602001600282015481526020016003820160009054906101000a900473ffffffffffffffffffffffffffffffffffffffff1673ffffffffffffffffffffffffffffffffffffffff1673ffffffffffffffffffffffffffffffffffffffff1681526020016003820160149054906101000a900460ff161515151581526020016003820160159054906101000a900460ff161515151581526020016004820154815250509050806080015161081f5780604001518461081c919061345c565b93505b50808060010191505061070a565b5050919050565b60007f000000000000000000000000000000000000000000000000000000000000000073ffffffffffffffffffffffffffffffffffffffff166370a08231306040518263ffffffff1660e01b815260040161088f9190613162565b602060405180830381865afa1580156108ac573d6000803e3d6000fd5b505050506040513d601f19601f820116820180604052508101906108d091906134a5565b905090565b6000806127106064846108e891906134d2565b6108f29190613543565b90506000816127107f00000000000000000000000000000000000000000000000000000000000000008661092691906134d2565b6109309190613543565b61093a9190613574565b905060006127107f00000000000000000000000000000000000000000000000000000000000000008661096d91906134d2565b6109779190613543565b90506000818385886109899190613574565b6109939190613574565b61099d9190613574565b90507f0000000000000000000000000000000000000000000000000000000000000000816004546109ce919061345c565b1115610a0f576040517f08c379a0000000000000000000000000000000000000000000000000000000008152600401610a0690613605565b60405180910390fd5b6000610a19612c9f565b905060007f000000000000000000000000000000000000000000000000000000000000000083600454610a4c919061345c565b7f00000000000000000000000000000000000000000000000000000000000000007f0000000000000000000000000000000000000000000000000000000000000000610a989190613574565b610aa291906134d2565b610aac9190613543565b7f0000000000000000000000000000000000000000000000000000000000000000610ad7919061345c565b9050600060028284610ae9919061345c565b610af39190613543565b90506000610b428a7f00000000000000000000000000000000000000000000000000000000000000007f0000000000000000000000000000000000000000000000000000000000000000612e89565b9050817f0000000000000000000000000000000000000000000000000000000000000000600a610b729190613765565b82610b7d91906134d2565b610b879190613543565b98505050505050505050919050565b7f000000000000000000000000000000000000000000000000000000000000000073ffffffffffffffffffffffffffffffffffffffff163373ffffffffffffffffffffffffffffffffffffffff1614610c24576040517f08c379a0000000000000000000000000000000000000000000000000000000008152600401610c1b906137fc565b60405180910390fd5b600260019054906101000a900460ff16610c73576040517f08c379a0000000000000000000000000000000000000000000000000000000008152600401610c6a90613868565b60405180910390fd5b600260009054906101000a900460ff1615610cc3576040517f08c379a0000000000000000000000000000000000000000000000000000000008152600401610cba906138d4565b60405180910390fd5b6000610ccd611c70565b9050600081600454610cdf9190613574565b9050610ce9612f05565b610d28576040517f08c379a0000000000000000000000000000000000000000000000000000000008152600401610d1f90613940565b60405180910390fd5b6003547f000000000000000000000000000000000000000000000000000000000000000073ffffffffffffffffffffffffffffffffffffffff166370a08231306040518263ffffffff1660e01b8152600401610d849190613162565b602060405180830381865afa158015610da1573d6000803e3d6000fd5b505050506040513d601f19601f82011682018060405250810190610dc591906134a5565b1015610e06576040517f08c379a0000000000000000000000000000000000000000000000000000000008152600401610dfd90613940565b60405180910390fd5b6004547f000000000000000000000000000000000000000000000000000000000000000073ffffffffffffffffffffffffffffffffffffffff166370a08231306040518263ffffffff1660e01b8152600401610e629190613162565b602060405180830381865afa158015610e7f573d6000803e3d6000fd5b505050506040513d601f19601f82011682018060405250810190610ea391906134a5565b1015610ee4576040517f08c379a0000000000000000000000000000000000000000000000000000000008152600401610edb906139ac565b60405180910390fd5b7f000000000000000000000000000000000000000000000000000000000000000073ffffffffffffffffffffffffffffffffffffffff1663095ea7b37f00000000000000000000000000000000000000000000000000000000000000006003546040518363ffffffff1660e01b8152600401610f619291906139cc565b6020604051808303816000875af1158015610f80573d6000803e3d6000fd5b505050506040513d601f19601f82011682018060405250810190610fa49190613a21565b610fe3576040517f08c379a0000000000000000000000000000000000000000000000000000000008152600401610fda90613a9a565b60405180910390fd5b7f000000000000000000000000000000000000000000000000000000000000000073ffffffffffffffffffffffffffffffffffffffff1663095ea7b37f0000000000000000000000000000000000000000000000000000000000000000836040518363ffffffff1660e01b815260040161105e9291906139cc565b6020604051808303816000875af115801561107d573d6000803e3d6000fd5b505050506040513d601f19601f820116820180604052508101906110a19190613a21565b6110e0576040517f08c379a00000000000000000000000000000000000000000000000000000000081526004016110d790613b06565b60405180910390fd5b60008060007f000000000000000000000000000000000000000000000000000000000000000073ffffffffffffffffffffffffffffffffffffffff1663e8e337007f00000000000000000000000000000000000000000000000000000000000000007f0000000000000000000000000000000000000000000000000000000000000000600354886003548a30607842611179919061345c565b6040518963ffffffff1660e01b815260040161119c989796959493929190613b26565b6060604051808303816000875af11580156111bb573d6000803e3d6000fd5b505050506040513d601f19601f820116820180604052508101906111df9190613ba4565b9250925092506000851115611345577f000000000000000000000000000000000000000000000000000000000000000073ffffffffffffffffffffffffffffffffffffffff1663a9059cbb7f0000000000000000000000000000000000000000000000000000000000000000876040518363ffffffff1660e01b81526004016112699291906139cc565b6020604051808303816000875af1158015611288573d6000803e3d6000fd5b505050506040513d601f19601f820116820180604052508101906112ac9190613a21565b6112eb576040517f08c379a00000000000000000000000000000000000000000000000000000000081526004016112e290613c43565b60405180910390fd5b7fefc7f1f15becfaec7a3c17eec78be3fa7adb45698f26fcfd25efe1754c242331857f000000000000000000000000000000000000000000000000000000000000000060405161133c929190613c63565b60405180910390a15b6001600260006101000a81548160ff0219169083151502179055507f4db0962b68e799b508143f50800f1504d656cbd0fe6395510c0dca385bfd84077f000000000000000000000000000000000000000000000000000000000000000073ffffffffffffffffffffffffffffffffffffffff1663e6a439057f00000000000000000000000000000000000000000000000000000000000000007f00000000000000000000000000000000000000000000000000000000000000006040518363ffffffff1660e01b815260040161141c929190613c8c565b602060405180830381865afa158015611439573d6000803e3d6000fd5b505050506040513d601f19601f8201168201806040525081019061145d9190613cca565b8260405161146c9291906139cc565b60405180910390a15050505050565b6000611485611975565b7f000000000000000000000000000000000000000000000000000000000000000073ffffffffffffffffffffffffffffffffffffffff166370a08231306040518263ffffffff1660e01b81526004016114de9190613162565b602060405180830381865afa1580156114fb573d6000803e3d6000fd5b505050506040513d601f19601f8201168201806040525081019061151f91906134a5565b1015905090565b7f000000000000000000000000000000000000000000000000000000000000000081565b600260009054906101000a900460ff1681565b611565612fb0565b600260009054906101000a900460ff16156115b5576040517f08c379a00000000000000000000000000000000000000000000000000000000081526004016115ac90613d43565b60405180910390fd5b600260019054906101000a900460ff1615611605576040517f08c379a00000000000000000000000000000000000000000000000000000000081526004016115fc90613daf565b60405180910390fd5b60006006600083815260200190815260200160002090503373ffffffffffffffffffffffffffffffffffffffff168160030160009054906101000a900473ffffffffffffffffffffffffffffffffffffffff1673ffffffffffffffffffffffffffffffffffffffff16146116ae576040517f08c379a00000000000000000000000000000000000000000000000000000000081526004016116a590613e1b565b60405180910390fd5b8060030160149054906101000a900460ff1615611700576040517f08c379a00000000000000000000000000000000000000000000000000000000081526004016116f790613e87565b60405180910390fd5b8060030160159054906101000a900460ff1615611752576040517f08c379a000000000000000000000000000000000000000000000000000000000815260040161174990613ef3565b60405180910390fd5b60018160030160146101000a81548160ff0219169083151502179055508060020154600360008282546117859190613574565b925050819055508060010154600460008282546117a29190613574565b925050819055507f000000000000000000000000000000000000000000000000000000000000000073ffffffffffffffffffffffffffffffffffffffff1663a9059cbb3383600101546040518363ffffffff1660e01b81526004016118089291906139cc565b6020604051808303816000875af1158015611827573d6000803e3d6000fd5b505050506040513d601f19601f8201168201806040525081019061184b9190613a21565b61188a576040517f08c379a000000000000000000000000000000000000000000000000000000000815260040161188190613f5f565b60405180910390fd5b813373ffffffffffffffffffffffffffffffffffffffff167f2dc8e290002f06fc0085bbca9dfb8b415cf4d1178950c72ff9ee8f4d8878ee6683600101546040516118d591906130a9565b60405180910390a3506118e6612ff6565b50565b7f000000000000000000000000000000000000000000000000000000000000000081565b600260019054906101000a900460ff1681565b7f000000000000000000000000000000000000000000000000000000000000000081565b6007602052816000526040600020818154811061196057600080fd5b90600052602060002001600091509150505481565b6000807f00000000000000000000000000000000000000000000000000000000000000007f00000000000000000000000000000000000000000000000000000000000000006127106119c79190613574565b6119d19190613574565b90506000816127107f0000000000000000000000000000000000000000000000000000000000000000611a0491906134d2565b611a0e9190613543565b90506000611a7d7f00000000000000000000000000000000000000000000000000000000000000007f00000000000000000000000000000000000000000000000000000000000000007f0000000000000000000000000000000000000000000000000000000000000000612e89565b90506000611aec7f00000000000000000000000000000000000000000000000000000000000000007f00000000000000000000000000000000000000000000000000000000000000007f0000000000000000000000000000000000000000000000000000000000000000612e89565b9050600060028284611afe919061345c565b611b089190613543565b90506000817f0000000000000000000000000000000000000000000000000000000000000000600a611b3a9190613765565b86611b4591906134d2565b611b4f9190613543565b90506000837f0000000000000000000000000000000000000000000000000000000000000000600a611b819190613765565b7f0000000000000000000000000000000000000000000000000000000000000000611bac91906134d2565b611bb69190613543565b90508082611bc4919061345c565b97505050505050505090565b7f000000000000000000000000000000000000000000000000000000000000000081565b60066020528060005260406000206000915090508060000154908060010154908060020154908060030160009054906101000a900473ffffffffffffffffffffffffffffffffffffffff16908060030160149054906101000a900460ff16908060030160159054906101000a900460ff16908060040154905087565b60006127107f0000000000000000000000000000000000000000000000000000000000000000600554611ca391906134d2565b611cad9190613543565b905090565b7f000000000000000000000000000000000000000000000000000000000000000081565b7f000000000000000000000000000000000000000000000000000000000000000081565b60045481565b6000620f42407f0000000000000000000000000000000000000000000000000000000000000000611d319190613543565b905090565b7f000000000000000000000000000000000000000000000000000000000000000081565b60015481565b7f000000000000000000000000000000000000000000000000000000000000000081565b6060600760008373ffffffffffffffffffffffffffffffffffffffff1673ffffffffffffffffffffffffffffffffffffffff168152602001908152602001600020805480602002602001604051908101604052809291908181526020018280548015611e0f57602002820191906000526020600020905b815481526020019060010190808311611dfb575b50505050509050919050565b60035481565b611e29612fb0565b7f000000000000000000000000000000000000000000000000000000000000000073ffffffffffffffffffffffffffffffffffffffff163373ffffffffffffffffffffffffffffffffffffffff1614611eb7576040517f08c379a0000000000000000000000000000000000000000000000000000000008152600401611eae90613fcb565b60405180910390fd5b600260009054906101000a900460ff16611f06576040517f08c379a0000000000000000000000000000000000000000000000000000000008152600401611efd90614037565b60405180910390fd5b7f000000000000000000000000000000000000000000000000000000000000000073ffffffffffffffffffffffffffffffffffffffff168273ffffffffffffffffffffffffffffffffffffffff1603611f94576040517f08c379a0000000000000000000000000000000000000000000000000000000008152600401611f8b906140a3565b60405180910390fd5b600082905060008173ffffffffffffffffffffffffffffffffffffffff166370a08231306040518263ffffffff1660e01b8152600401611fd49190613162565b602060405180830381865afa158015611ff1573d6000803e3d6000fd5b505050506040513d601f19601f8201168201806040525081019061201591906134a5565b90508281101561205a576040517f08c379a00000000000000000000000000000000000000000000000000000000081526004016120519061410f565b60405180910390fd5b8173ffffffffffffffffffffffffffffffffffffffff1663a9059cbb7f0000000000000000000000000000000000000000000000000000000000000000856040518363ffffffff1660e01b81526004016120b59291906139cc565b6020604051808303816000875af11580156120d4573d6000803e3d6000fd5b505050506040513d601f19601f820116820180604052508101906120f89190613a21565b612137576040517f08c379a000000000000000000000000000000000000000000000000000000000815260040161212e9061417b565b60405180910390fd5b5050612141612ff6565b5050565b61214d612fb0565b600260009054906101000a900460ff161561219d576040517f08c379a000000000000000000000000000000000000000000000000000000000815260040161219490613d43565b60405180910390fd5b600260019054906101000a900460ff16156121ed576040517f08c379a00000000000000000000000000000000000000000000000000000000081526004016121e490613daf565b60405180910390fd5b6121f5611d00565b811015612237576040517f08c379a000000000000000000000000000000000000000000000000000000000815260040161222e906141e7565b60405180910390fd5b600061271060648361224991906134d2565b6122539190613543565b90506000816127107f00000000000000000000000000000000000000000000000000000000000000008561228791906134d2565b6122919190613543565b61229b9190613574565b905060006127107f0000000000000000000000000000000000000000000000000000000000000000856122ce91906134d2565b6122d89190613543565b90506000818385876122ea9190613574565b6122f49190613574565b6122fe9190613574565b90507f00000000000000000000000000000000000000000000000000000000000000008160045461232f919061345c565b1115612370576040517f08c379a000000000000000000000000000000000000000000000000000000000815260040161236790613605565b60405180910390fd5b600061237b866108d5565b90507f000000000000000000000000000000000000000000000000000000000000000073ffffffffffffffffffffffffffffffffffffffff166323b872dd3330896040518463ffffffff1660e01b81526004016123da93929190614207565b6020604051808303816000875af11580156123f9573d6000803e3d6000fd5b505050506040513d601f19601f8201168201806040525081019061241d9190613a21565b61245c576040517f08c379a00000000000000000000000000000000000000000000000000000000081526004016124539061428a565b60405180910390fd5b3373ffffffffffffffffffffffffffffffffffffffff167fbefb6e85b11f40ee4d9e3e8bb0bedbc3d1eee123b1328c0ea0a4b842cbfff74987878787876040516124aa9594939291906142aa565b60405180910390a27f000000000000000000000000000000000000000000000000000000000000000073ffffffffffffffffffffffffffffffffffffffff1663a9059cbb736c83e86e05697c995d718c1cfa3f9045a38c7cd4876040518363ffffffff1660e01b81526004016125219291906139cc565b6020604051808303816000875af1158015612540573d6000803e3d6000fd5b505050506040513d601f19601f820116820180604052508101906125649190613a21565b6125a3576040517f08c379a000000000000000000000000000000000000000000000000000000000815260040161259a90614349565b60405180910390fd5b7f000000000000000000000000000000000000000000000000000000000000000073ffffffffffffffffffffffffffffffffffffffff1663a9059cbb7f0000000000000000000000000000000000000000000000000000000000000000866040518363ffffffff1660e01b815260040161261e9291906139cc565b6020604051808303816000875af115801561263d573d6000803e3d6000fd5b505050506040513d601f19601f820116820180604052508101906126619190613a21565b6126a0576040517f08c379a0000000000000000000000000000000000000000000000000000000008152600401612697906143b5565b60405180910390fd5b60006001549050600160008154809291906126ba906143d5565b91905055506040518060e001604052808881526020018481526020018381526020013373ffffffffffffffffffffffffffffffffffffffff168152602001600015158152602001600015158152602001438152506006600083815260200190815260200160002060008201518160000155602082015181600101556040820151816002015560608201518160030160006101000a81548173ffffffffffffffffffffffffffffffffffffffff021916908373ffffffffffffffffffffffffffffffffffffffff16021790555060808201518160030160146101000a81548160ff02191690831515021790555060a08201518160030160156101000a81548160ff02191690831515021790555060c08201518160040155905050600760003373ffffffffffffffffffffffffffffffffffffffff1673ffffffffffffffffffffffffffffffffffffffff168152602001908152602001600020819080600181540180825580915050600190039060005260206000200160009091909190915055816003600082825461284b919061345c565b925050819055508260046000828254612864919061345c565b92505081905550866005600082825461287d919061345c565b92505081905550803373ffffffffffffffffffffffffffffffffffffffff167f34987d73948b60cfba9beeb35760c345a3be430f3540605113911ead78a0830e8986866040516128cf9392919061441d565b60405180910390a37f00000000000000000000000000000000000000000000000000000000000000006004541061291c576001600260016101000a81548160ff0219169083151502179055505b50505050505061292a612ff6565b50565b612935612fb0565b600260019054906101000a900460ff16612984576040517f08c379a000000000000000000000000000000000000000000000000000000000815260040161297b906144a0565b60405180910390fd5b60006006600083815260200190815260200160002090503373ffffffffffffffffffffffffffffffffffffffff168160030160009054906101000a900473ffffffffffffffffffffffffffffffffffffffff1673ffffffffffffffffffffffffffffffffffffffff1614612a2d576040517f08c379a0000000000000000000000000000000000000000000000000000000008152600401612a2490613e1b565b60405180910390fd5b8060030160149054906101000a900460ff1615612a7f576040517f08c379a0000000000000000000000000000000000000000000000000000000008152600401612a769061450c565b60405180910390fd5b8060030160159054906101000a900460ff1615612ad1576040517f08c379a0000000000000000000000000000000000000000000000000000000008152600401612ac890613ef3565b60405180910390fd5b6000816002015411612b18576040517f08c379a0000000000000000000000000000000000000000000000000000000008152600401612b0f90614578565b60405180910390fd5b60018160030160156101000a81548160ff0219169083151502179055507f000000000000000000000000000000000000000000000000000000000000000073ffffffffffffffffffffffffffffffffffffffff1663a9059cbb3383600201546040518363ffffffff1660e01b8152600401612b949291906139cc565b6020604051808303816000875af1158015612bb3573d6000803e3d6000fd5b505050506040513d601f19601f82011682018060405250810190612bd79190613a21565b612c16576040517f08c379a0000000000000000000000000000000000000000000000000000000008152600401612c0d906145e4565b60405180910390fd5b813373ffffffffffffffffffffffffffffffffffffffff167fd171fb179b26c49e23fe46eddd44d3048a1ad277b62144ac0725fbcf1dbf6d528360020154604051612c6191906130a9565b60405180910390a350612c72612ff6565b50565b60055481565b7f000000000000000000000000000000000000000000000000000000000000000081565b60007f000000000000000000000000000000000000000000000000000000000000000060045410612cf2577f00000000000000000000000000000000000000000000000000000000000000009050612da4565b7f00000000000000000000000000000000000000000000000000000000000000006004547f00000000000000000000000000000000000000000000000000000000000000007f0000000000000000000000000000000000000000000000000000000000000000612d629190613574565b612d6c91906134d2565b612d769190613543565b7f0000000000000000000000000000000000000000000000000000000000000000612da1919061345c565b90505b90565b736c83e86e05697c995d718c1cfa3f9045a38c7cd481565b606481565b7f000000000000000000000000000000000000000000000000000000000000000081565b60007f000000000000000000000000000000000000000000000000000000000000000073ffffffffffffffffffffffffffffffffffffffff166370a08231306040518263ffffffff1660e01b8152600401612e439190613162565b602060405180830381865afa158015612e60573d6000803e3d6000fd5b505050506040513d601f19601f82011682018060405250810190612e8491906134a5565b905090565b60008160ff168360ff1603612ea057839050612efe565b8160ff168360ff161015612ed8578282612eba9190614604565b600a612ec69190613765565b84612ed191906134d2565b9050612efe565b8183612ee49190614604565b600a612ef09190613765565b84612efb9190613543565b90505b9392505050565b6000612f0f611975565b7f000000000000000000000000000000000000000000000000000000000000000073ffffffffffffffffffffffffffffffffffffffff166370a08231306040518263ffffffff1660e01b8152600401612f689190613162565b602060405180830381865afa158015612f85573d6000803e3d6000fd5b505050506040513d601f19601f82011682018060405250810190612fa991906134a5565b1015905090565b600260005403612fec576040517f3ee5aeb500000000000000000000000000000000000000000000000000000000815260040160405180910390fd5b6002600081905550565b6001600081905550565b600080fd5b600073ffffffffffffffffffffffffffffffffffffffff82169050919050565b600061303082613005565b9050919050565b61304081613025565b811461304b57600080fd5b50565b60008135905061305d81613037565b92915050565b60006020828403121561307957613078613000565b5b60006130878482850161304e565b91505092915050565b6000819050919050565b6130a381613090565b82525050565b60006020820190506130be600083018461309a565b92915050565b6130cd81613090565b81146130d857600080fd5b50565b6000813590506130ea816130c4565b92915050565b60006020828403121561310657613105613000565b5b6000613114848285016130db565b91505092915050565b60008115159050919050565b6131328161311d565b82525050565b600060208201905061314d6000830184613129565b92915050565b61315c81613025565b82525050565b60006020820190506131776000830184613153565b92915050565b6000819050919050565b60006131a261319d61319884613005565b61317d565b613005565b9050919050565b60006131b482613187565b9050919050565b60006131c6826131a9565b9050919050565b6131d6816131bb565b82525050565b60006020820190506131f160008301846131cd565b92915050565b6000806040838503121561320e5761320d613000565b5b600061321c8582860161304e565b925050602061322d858286016130db565b9150509250929050565b6000613242826131a9565b9050919050565b61325281613237565b82525050565b600060208201905061326d6000830184613249565b92915050565b600060e082019050613288600083018a61309a565b613295602083018961309a565b6132a2604083018861309a565b6132af6060830187613153565b6132bc6080830186613129565b6132c960a0830185613129565b6132d660c083018461309a565b98975050505050505050565b60006132ed826131a9565b9050919050565b6132fd816132e2565b82525050565b600060208201905061331860008301846132f4565b92915050565b600081519050919050565b600082825260208201905092915050565b6000819050602082019050919050565b61335381613090565b82525050565b6000613365838361334a565b60208301905092915050565b6000602082019050919050565b60006133898261331e565b6133938185613329565b935061339e8361333a565b8060005b838110156133cf5781516133b68882613359565b97506133c183613371565b9250506001810190506133a2565b5085935050505092915050565b600060208201905081810360008301526133f6818461337e565b905092915050565b7f4e487b7100000000000000000000000000000000000000000000000000000000600052603260045260246000fd5b7f4e487b7100000000000000000000000000000000000000000000000000000000600052601160045260246000fd5b600061346782613090565b915061347283613090565b925082820190508082111561348a5761348961342d565b5b92915050565b60008151905061349f816130c4565b92915050565b6000602082840312156134bb576134ba613000565b5b60006134c984828501613490565b91505092915050565b60006134dd82613090565b91506134e883613090565b92508282026134f681613090565b9150828204841483151761350d5761350c61342d565b5b5092915050565b7f4e487b7100000000000000000000000000000000000000000000000000000000600052601260045260246000fd5b600061354e82613090565b915061355983613090565b92508261356957613568613514565b5b828204905092915050565b600061357f82613090565b915061358a83613090565b92508282039050818111156135a2576135a161342d565b5b92915050565b600082825260208201905092915050565b7f4578636565647320746172676574000000000000000000000000000000000000600082015250565b60006135ef600e836135a8565b91506135fa826135b9565b602082019050919050565b6000602082019050818103600083015261361e816135e2565b9050919050565b60008160011c9050919050565b6000808291508390505b600185111561367c578086048111156136585761365761342d565b5b60018516156136675780820291505b808102905061367585613625565b945061363c565b94509492505050565b6000826136955760019050613751565b816136a35760009050613751565b81600181146136b957600281146136c3576136f2565b6001915050613751565b60ff8411156136d5576136d461342d565b5b8360020a9150848211156136ec576136eb61342d565b5b50613751565b5060208310610133831016604e8410600b84101617156137275782820a9050838111156137225761372161342d565b5b613751565b6137348484846001613632565b9250905081840481111561374b5761374a61342d565b5b81810290505b9392505050565b600060ff82169050919050565b600061377082613090565b915061377b83613758565b92506137a87fffffffffffffffffffffffffffffffffffffffffffffffffffffffffffffffff8484613685565b905092915050565b7f4f6e6c7920666f756e646572732063616e206465706c6f790000000000000000600082015250565b60006137e66018836135a8565b91506137f1826137b0565b602082019050919050565b60006020820190508181036000830152613815816137d9565b9050919050565b7f546172676574206e6f7420726561636865640000000000000000000000000000600082015250565b60006138526012836135a8565b915061385d8261381c565b602082019050919050565b6000602082019050818103600083015261388181613845565b9050919050565b7f416c7265616479206465706c6f79656400000000000000000000000000000000600082015250565b60006138be6010836135a8565b91506138c982613888565b602082019050919050565b600060208201905081810360008301526138ed816138b1565b9050919050565b7f496e73756666696369656e742073616c6520746f6b656e730000000000000000600082015250565b600061392a6018836135a8565b9150613935826138f4565b602082019050919050565b600060208201905081810360008301526139598161391d565b9050919050565b7f496e73756666696369656e74207061796d656e7420746f6b656e730000000000600082015250565b6000613996601b836135a8565b91506139a182613960565b602082019050919050565b600060208201905081810360008301526139c581613989565b9050919050565b60006040820190506139e16000830185613153565b6139ee602083018461309a565b9392505050565b6139fe8161311d565b8114613a0957600080fd5b50565b600081519050613a1b816139f5565b92915050565b600060208284031215613a3757613a36613000565b5b6000613a4584828501613a0c565b91505092915050565b7f546f6b656e20617070726f7665206661696c6564000000000000000000000000600082015250565b6000613a846014836135a8565b9150613a8f82613a4e565b602082019050919050565b60006020820190508181036000830152613ab381613a77565b9050919050565b7f5061796d656e7420617070726f7665206661696c656400000000000000000000600082015250565b6000613af06016836135a8565b9150613afb82613aba565b602082019050919050565b60006020820190508181036000830152613b1f81613ae3565b9050919050565b600061010082019050613b3c600083018b613153565b613b49602083018a613153565b613b56604083018961309a565b613b63606083018861309a565b613b70608083018761309a565b613b7d60a083018661309a565b613b8a60c0830185613153565b613b9760e083018461309a565b9998505050505050505050565b600080600060608486031215613bbd57613bbc613000565b5b6000613bcb86828701613490565b9350506020613bdc86828701613490565b9250506040613bed86828701613490565b9150509250925092565b7f457363726f772072656c65617365206661696c65640000000000000000000000600082015250565b6000613c2d6015836135a8565b9150613c3882613bf7565b602082019050919050565b60006020820190508181036000830152613c5c81613c20565b9050919050565b6000604082019050613c78600083018561309a565b613c856020830184613153565b9392505050565b6000604082019050613ca16000830185613153565b613cae6020830184613153565b9392505050565b600081519050613cc481613037565b92915050565b600060208284031215613ce057613cdf613000565b5b6000613cee84828501613cb5565b91505092915050565b7f53616c6520636f6d706c65746564000000000000000000000000000000000000600082015250565b6000613d2d600e836135a8565b9150613d3882613cf7565b602082019050919050565b60006020820190508181036000830152613d5c81613d20565b9050919050565b7f54617267657420616c7265616479207265616368656400000000000000000000600082015250565b6000613d996016836135a8565b9150613da482613d63565b602082019050919050565b60006020820190508181036000830152613dc881613d8c565b9050919050565b7f4e6f742074686520707572636861736572000000000000000000000000000000600082015250565b6000613e056011836135a8565b9150613e1082613dcf565b602082019050919050565b60006020820190508181036000830152613e3481613df8565b9050919050565b7f416c726561647920726566756e64656400000000000000000000000000000000600082015250565b6000613e716010836135a8565b9150613e7c82613e3b565b602082019050919050565b60006020820190508181036000830152613ea081613e64565b9050919050565b7f416c72656164792072656465656d656400000000000000000000000000000000600082015250565b6000613edd6010836135a8565b9150613ee882613ea7565b602082019050919050565b60006020820190508181036000830152613f0c81613ed0565b9050919050565b7f526566756e64206661696c656400000000000000000000000000000000000000600082015250565b6000613f49600d836135a8565b9150613f5482613f13565b602082019050919050565b60006020820190508181036000830152613f7881613f3c565b9050919050565b7f4f6e6c7920666f756e646572732063616e207265636f76657200000000000000600082015250565b6000613fb56019836135a8565b9150613fc082613f7f565b602082019050919050565b60006020820190508181036000830152613fe481613fa8565b9050919050565b7f4e6f7420796574206465706c6f79656420746f20556e69737761700000000000600082015250565b6000614021601b836135a8565b915061402c82613feb565b602082019050919050565b6000602082019050818103600083015261405081614014565b9050919050565b7f43616e6e6f74207265636f7665722073616c6520746f6b656e00000000000000600082015250565b600061408d6019836135a8565b915061409882614057565b602082019050919050565b600060208201905081810360008301526140bc81614080565b9050919050565b7f496e73756666696369656e742062616c616e6365000000000000000000000000600082015250565b60006140f96014836135a8565b9150614104826140c3565b602082019050919050565b60006020820190508181036000830152614128816140ec565b9050919050565b7f546f6b656e207265636f76657279206661696c65640000000000000000000000600082015250565b60006141656015836135a8565b91506141708261412f565b602082019050919050565b6000602082019050818103600083015261419481614158565b9050919050565b7f42656c6f77206d696e696d756d20707572636861736500000000000000000000600082015250565b60006141d16016836135a8565b91506141dc8261419b565b602082019050919050565b60006020820190508181036000830152614200816141c4565b9050919050565b600060608201905061421c6000830186613153565b6142296020830185613153565b614236604083018461309a565b949350505050565b7f5061796d656e74207472616e73666572206661696c6564000000000000000000600082015250565b60006142746017836135a8565b915061427f8261423e565b602082019050919050565b600060208201905081810360008301526142a381614267565b9050919050565b600060a0820190506142bf600083018861309a565b6142cc602083018761309a565b6142d9604083018661309a565b6142e6606083018561309a565b6142f3608083018461309a565b9695505050505050565b7f466565207472616e73666572206661696c656400000000000000000000000000600082015250565b60006143336013836135a8565b915061433e826142fd565b602082019050919050565b6000602082019050818103600083015261436281614326565b9050919050565b7f557066726f6e74207472616e73666572206661696c6564000000000000000000600082015250565b600061439f6017836135a8565b91506143aa82614369565b602082019050919050565b600060208201905081810360008301526143ce81614392565b9050919050565b60006143e082613090565b91507fffffffffffffffffffffffffffffffffffffffffffffffffffffffffffffffff82036144125761441161342d565b5b600182019050919050565b6000606082019050614432600083018661309a565b61443f602083018561309a565b61444c604083018461309a565b949350505050565b7f546172676574206e6f7420726561636865642079657400000000000000000000600082015250565b600061448a6016836135a8565b915061449582614454565b602082019050919050565b600060208201905081810360008301526144b98161447d565b9050919050565b7f4f726465722077617320726566756e6465640000000000000000000000000000600082015250565b60006144f66012836135a8565b9150614501826144c0565b602082019050919050565b60006020820190508181036000830152614525816144e9565b9050919050565b7f4e6f20746f6b656e7320746f2072656465656d00000000000000000000000000600082015250565b60006145626013836135a8565b915061456d8261452c565b602082019050919050565b6000602082019050818103600083015261459181614555565b9050919050565b7f546f6b656e207472616e73666572206661696c65640000000000000000000000600082015250565b60006145ce6015836135a8565b91506145d982614598565b602082019050919050565b600060208201905081810360008301526145fd816145c1565b9050919050565b600061460f82613758565b915061461a83613758565b9250828203905060ff8111156146335761463261342d565b5b9291505056fea26469706673582212207eb5d80986d0c42e911d224cab7d2aa88e231d49f8a63d3af74911e49b89f03464736f6c63430008180033",
          "opcodes": "PUSH2 0x200 PUSH1 0x40 MSTORE CALLVALUE DUP1 ISZERO PUSH3 0x12 JUMPI PUSH1 0x0 DUP1 REVERT JUMPDEST POP PUSH1 0x40 MLOAD PUSH3 0x54E8 CODESIZE SUB DUP1 PUSH3 0x54E8 DUP4 CODECOPY DUP2 DUP2 ADD PUSH1 0x40 MSTORE DUP2 ADD SWAP1 PUSH3 0x38 SWAP2 SWAP1 PUSH3 0x6A5 JUMP JUMPDEST PUSH1 0x1 PUSH1 0x0 DUP2 SWAP1 SSTORE POP PUSH1 0x0 DUP7 GT DUP1 ISZERO PUSH3 0x51 JUMPI POP PUSH1 0x0 DUP6 GT JUMPDEST DUP1 ISZERO PUSH3 0x5D JUMPI POP DUP6 DUP6 GT JUMPDEST PUSH3 0x9F JUMPI PUSH1 0x40 MLOAD PUSH32 0x8C379A000000000000000000000000000000000000000000000000000000000 DUP2 MSTORE PUSH1 0x4 ADD PUSH3 0x96 SWAP1 PUSH3 0x7FC JUMP JUMPDEST PUSH1 0x40 MLOAD DUP1 SWAP2 SUB SWAP1 REVERT JUMPDEST PUSH1 0x0 DUP5 GT PUSH3 0xE5 JUMPI PUSH1 0x40 MLOAD PUSH32 0x8C379A000000000000000000000000000000000000000000000000000000000 DUP2 MSTORE PUSH1 0x4 ADD PUSH3 0xDC SWAP1 PUSH3 0x86E JUMP JUMPDEST PUSH1 0x40 MLOAD DUP1 SWAP2 SUB SWAP1 REVERT JUMPDEST PUSH1 0x64 DUP4 LT ISZERO PUSH3 0x12C JUMPI PUSH1 0x40 MLOAD PUSH32 0x8C379A000000000000000000000000000000000000000000000000000000000 DUP2 MSTORE PUSH1 0x4 ADD PUSH3 0x123 SWAP1 PUSH3 0x906 JUMP JUMPDEST PUSH1 0x40 MLOAD DUP1 SWAP2 SUB SWAP1 REVERT JUMPDEST PUSH2 0x1B58 DUP3 DUP5 PUSH3 0x13D SWAP2 SWAP1 PUSH3 0x957 JUMP JUMPDEST GT ISZERO PUSH3 0x181 JUMPI PUSH1 0x40 MLOAD PUSH32 0x8C379A000000000000000000000000000000000000000000000000000000000 DUP2 MSTORE PUSH1 0x4 ADD PUSH3 0x178 SWAP1 PUSH3 0x9E2 JUMP JUMPDEST PUSH1 0x40 MLOAD DUP1 SWAP2 SUB SWAP1 REVERT JUMPDEST PUSH1 0x0 PUSH20 0xFFFFFFFFFFFFFFFFFFFFFFFFFFFFFFFFFFFFFFFF AND DUP2 PUSH20 0xFFFFFFFFFFFFFFFFFFFFFFFFFFFFFFFFFFFFFFFF AND SUB PUSH3 0x1F3 JUMPI PUSH1 0x40 MLOAD PUSH32 0x8C379A000000000000000000000000000000000000000000000000000000000 DUP2 MSTORE PUSH1 0x4 ADD PUSH3 0x1EA SWAP1 PUSH3 0xA54 JUMP JUMPDEST PUSH1 0x40 MLOAD DUP1 SWAP2 SUB SWAP1 REVERT JUMPDEST PUSH1 0x0 PUSH20 0xFFFFFFFFFFFFFFFFFFFFFFFFFFFFFFFFFFFFFFFF AND DUP11 PUSH20 0xFFFFFFFFFFFFFFFFFFFFFFFFFFFFFFFFFFFFFFFF AND EQ ISZERO DUP1 ISZERO PUSH3 0x25E JUMPI POP PUSH1 0x0 PUSH20 0xFFFFFFFFFFFFFFFFFFFFFFFFFFFFFFFFFFFFFFFF AND DUP10 PUSH20 0xFFFFFFFFFFFFFFFFFFFFFFFFFFFFFFFFFFFFFFFF AND EQ ISZERO JUMPDEST PUSH3 0x2A0 JUMPI PUSH1 0x40 MLOAD PUSH32 0x8C379A000000000000000000000000000000000000000000000000000000000 DUP2 MSTORE PUSH1 0x4 ADD PUSH3 0x297 SWAP1 PUSH3 0xAC6 JUMP JUMPDEST PUSH1 0x40 MLOAD DUP1 SWAP2 SUB SWAP1 REVERT JUMPDEST DUP9 PUSH20 0xFFFFFFFFFFFFFFFFFFFFFFFFFFFFFFFFFFFFFFFF AND DUP11 PUSH20 0xFFFFFFFFFFFFFFFFFFFFFFFFFFFFFFFFFFFFFFFF AND SUB PUSH3 0x311 JUMPI PUSH1 0x40 MLOAD PUSH32 0x8C379A000000000000000000000000000000000000000000000000000000000 DUP2 MSTORE PUSH1 0x4 ADD PUSH3 0x308 SWAP1 PUSH3 0xB38 JUMP JUMPDEST PUSH1 0x40 MLOAD DUP1 SWAP2 SUB SWAP1 REVERT JUMPDEST PUSH1 0x0 PUSH20 0xFFFFFFFFFFFFFFFFFFFFFFFFFFFFFFFFFFFFFFFF AND DUP9 PUSH20 0xFFFFFFFFFFFFFFFFFFFFFFFFFFFFFFFFFFFFFFFF AND EQ ISZERO DUP1 ISZERO PUSH3 0x37C JUMPI POP PUSH1 0x0 PUSH20 0xFFFFFFFFFFFFFFFFFFFFFFFFFFFFFFFFFFFFFFFF AND DUP8 PUSH20 0xFFFFFFFFFFFFFFFFFFFFFFFFFFFFFFFFFFFFFFFF AND EQ ISZERO JUMPDEST PUSH3 0x3BE JUMPI PUSH1 0x40 MLOAD PUSH32 0x8C379A000000000000000000000000000000000000000000000000000000000 DUP2 MSTORE PUSH1 0x4 ADD PUSH3 0x3B5 SWAP1 PUSH3 0xBAA JUMP JUMPDEST PUSH1 0x40 MLOAD DUP1 SWAP2 SUB SWAP1 REVERT JUMPDEST DUP10 PUSH20 0xFFFFFFFFFFFFFFFFFFFFFFFFFFFFFFFFFFFFFFFF AND PUSH1 0x80 DUP2 PUSH20 0xFFFFFFFFFFFFFFFFFFFFFFFFFFFFFFFFFFFFFFFF AND DUP2 MSTORE POP POP DUP9 PUSH20 0xFFFFFFFFFFFFFFFFFFFFFFFFFFFFFFFFFFFFFFFF AND PUSH1 0xA0 DUP2 PUSH20 0xFFFFFFFFFFFFFFFFFFFFFFFFFFFFFFFFFFFFFFFF AND DUP2 MSTORE POP POP DUP8 PUSH20 0xFFFFFFFFFFFFFFFFFFFFFFFFFFFFFFFFFFFFFFFF AND PUSH1 0xC0 DUP2 PUSH20 0xFFFFFFFFFFFFFFFFFFFFFFFFFFFFFFFFFFFFFFFF AND DUP2 MSTORE POP POP DUP7 PUSH20 0xFFFFFFFFFFFFFFFFFFFFFFFFFFFFFFFFFFFFFFFF AND PUSH1 0xE0 DUP2 PUSH20 0xFFFFFFFFFFFFFFFFFFFFFFFFFFFFFFFFFFFFFFFF AND DUP2 MSTORE POP POP DUP10 PUSH20 0xFFFFFFFFFFFFFFFFFFFFFFFFFFFFFFFFFFFFFFFF AND PUSH4 0x313CE567 PUSH1 0x40 MLOAD DUP2 PUSH4 0xFFFFFFFF AND PUSH1 0xE0 SHL DUP2 MSTORE PUSH1 0x4 ADD PUSH1 0x20 PUSH1 0x40 MLOAD DUP1 DUP4 SUB DUP2 DUP7 GAS STATICCALL ISZERO DUP1 ISZERO PUSH3 0x4DA JUMPI RETURNDATASIZE PUSH1 0x0 DUP1 RETURNDATACOPY RETURNDATASIZE PUSH1 0x0 REVERT JUMPDEST POP POP POP POP PUSH1 0x40 MLOAD RETURNDATASIZE PUSH1 0x1F NOT PUSH1 0x1F DUP3 ADD AND DUP3 ADD DUP1 PUSH1 0x40 MSTORE POP DUP2 ADD SWAP1 PUSH3 0x500 SWAP2 SWAP1 PUSH3 0xC0A JUMP JUMPDEST PUSH1 0xFF AND PUSH2 0x1A0 DUP2 PUSH1 0xFF AND DUP2 MSTORE POP POP DUP9 PUSH20 0xFFFFFFFFFFFFFFFFFFFFFFFFFFFFFFFFFFFFFFFF AND PUSH4 0x313CE567 PUSH1 0x40 MLOAD DUP2 PUSH4 0xFFFFFFFF AND PUSH1 0xE0 SHL DUP2 MSTORE PUSH1 0x4 ADD PUSH1 0x20 PUSH1 0x40 MLOAD DUP1 DUP4 SUB DUP2 DUP7 GAS STATICCALL ISZERO DUP1 ISZERO PUSH3 0x55A JUMPI RETURNDATASIZE PUSH1 0x0 DUP1 RETURNDATACOPY RETURNDATASIZE PUSH1 0x0 REVERT JUMPDEST POP POP POP POP PUSH1 0x40 MLOAD RETURNDATASIZE PUSH1 0x1F NOT PUSH1 0x1F DUP3 ADD AND DUP3 ADD DUP1 PUSH1 0x40 MSTORE POP DUP2 ADD SWAP1 PUSH3 0x580 SWAP2 SWAP1 PUSH3 0xC0A JUMP JUMPDEST PUSH1 0xFF AND PUSH2 0x1C0 DUP2 PUSH1 0xFF AND DUP2 MSTORE POP POP DUP6 PUSH2 0x100 DUP2 DUP2 MSTORE POP POP DUP5 PUSH2 0x120 DUP2 DUP2 MSTORE POP POP DUP4 PUSH2 0x140 DUP2 DUP2 MSTORE POP POP DUP3 PUSH2 0x160 DUP2 DUP2 MSTORE POP POP DUP2 PUSH2 0x180 DUP2 DUP2 MSTORE POP POP DUP1 PUSH20 0xFFFFFFFFFFFFFFFFFFFFFFFFFFFFFFFFFFFFFFFF AND PUSH2 0x1E0 DUP2 PUSH20 0xFFFFFFFFFFFFFFFFFFFFFFFFFFFFFFFFFFFFFFFF AND DUP2 MSTORE POP POP POP POP POP POP POP POP POP POP POP POP PUSH3 0xC3C JUMP JUMPDEST PUSH1 0x0 DUP1 REVERT JUMPDEST PUSH1 0x0 PUSH20 0xFFFFFFFFFFFFFFFFFFFFFFFFFFFFFFFFFFFFFFFF DUP3 AND SWAP1 POP SWAP2 SWAP1 POP JUMP JUMPDEST PUSH1 0x0 PUSH3 0x632 DUP3 PUSH3 0x605 JUMP JUMPDEST SWAP1 POP SWAP2 SWAP1 POP JUMP JUMPDEST PUSH3 0x644 DUP2 PUSH3 0x625 JUMP JUMPDEST DUP2 EQ PUSH3 0x650 JUMPI PUSH1 0x0 DUP1 REVERT JUMPDEST POP JUMP JUMPDEST PUSH1 0x0 DUP2 MLOAD SWAP1 POP PUSH3 0x664 DUP2 PUSH3 0x639 JUMP JUMPDEST SWAP3 SWAP2 POP POP JUMP JUMPDEST PUSH1 0x0 DUP2 SWAP1 POP SWAP2 SWAP1 POP JUMP JUMPDEST PUSH3 0x67F DUP2 PUSH3 0x66A JUMP JUMPDEST DUP2 EQ PUSH3 0x68B JUMPI PUSH1 0x0 DUP1 REVERT JUMPDEST POP JUMP JUMPDEST PUSH1 0x0 DUP2 MLOAD SWAP1 POP PUSH3 0x69F DUP2 PUSH3 0x674 JUMP JUMPDEST SWAP3 SWAP2 POP POP JUMP JUMPDEST PUSH1 0x0 DUP1 PUSH1 0x0 DUP1 PUSH1 0x0 DUP1 PUSH1 0x0 DUP1 PUSH1 0x0 DUP1 PUSH2 0x140 DUP12 DUP14 SUB SLT ISZERO PUSH3 0x6CC JUMPI PUSH3 0x6CB PUSH3 0x600 JUMP JUMPDEST JUMPDEST PUSH1 0x0 PUSH3 0x6DC DUP14 DUP3 DUP15 ADD PUSH3 0x653 JUMP JUMPDEST SWAP11 POP POP PUSH1 0x20 PUSH3 0x6EF DUP14 DUP3 DUP15 ADD PUSH3 0x653 JUMP JUMPDEST SWAP10 POP POP PUSH1 0x40 PUSH3 0x702 DUP14 DUP3 DUP15 ADD PUSH3 0x653 JUMP JUMPDEST SWAP9 POP POP PUSH1 0x60 PUSH3 0x715 DUP14 DUP3 DUP15 ADD PUSH3 0x653 JUMP JUMPDEST SWAP8 POP POP PUSH1 0x80 PUSH3 0x728 DUP14 DUP3 DUP15 ADD PUSH3 0x68E JUMP JUMPDEST SWAP7 POP POP PUSH1 0xA0 PUSH3 0x73B DUP14 DUP3 DUP15 ADD PUSH3 0x68E JUMP JUMPDEST SWAP6 POP POP PUSH1 0xC0 PUSH3 0x74E DUP14 DUP3 DUP15 ADD PUSH3 0x68E JUMP JUMPDEST SWAP5 POP POP PUSH1 0xE0 PUSH3 0x761 DUP14 DUP3 DUP15 ADD PUSH3 0x68E JUMP JUMPDEST SWAP4 POP POP PUSH2 0x100 PUSH3 0x775 DUP14 DUP3 DUP15 ADD PUSH3 0x68E JUMP JUMPDEST SWAP3 POP POP PUSH2 0x120 PUSH3 0x789 DUP14 DUP3 DUP15 ADD PUSH3 0x653 JUMP JUMPDEST SWAP2 POP POP SWAP3 SWAP6 SWAP9 SWAP12 SWAP2 SWAP5 SWAP8 SWAP11 POP SWAP3 SWAP6 SWAP9 POP JUMP JUMPDEST PUSH1 0x0 DUP3 DUP3 MSTORE PUSH1 0x20 DUP3 ADD SWAP1 POP SWAP3 SWAP2 POP POP JUMP JUMPDEST PUSH32 0x496E76616C696420707269636573000000000000000000000000000000000000 PUSH1 0x0 DUP3 ADD MSTORE POP JUMP JUMPDEST PUSH1 0x0 PUSH3 0x7E4 PUSH1 0xE DUP4 PUSH3 0x79B JUMP JUMPDEST SWAP2 POP PUSH3 0x7F1 DUP3 PUSH3 0x7AC JUMP JUMPDEST PUSH1 0x20 DUP3 ADD SWAP1 POP SWAP2 SWAP1 POP JUMP JUMPDEST PUSH1 0x0 PUSH1 0x20 DUP3 ADD SWAP1 POP DUP2 DUP2 SUB PUSH1 0x0 DUP4 ADD MSTORE PUSH3 0x817 DUP2 PUSH3 0x7D5 JUMP JUMPDEST SWAP1 POP SWAP2 SWAP1 POP JUMP JUMPDEST PUSH32 0x496E76616C6964207461726765742066756E64696E6700000000000000000000 PUSH1 0x0 DUP3 ADD MSTORE POP JUMP JUMPDEST PUSH1 0x0 PUSH3 0x856 PUSH1 0x16 DUP4 PUSH3 0x79B JUMP JUMPDEST SWAP2 POP PUSH3 0x863 DUP3 PUSH3 0x81E JUMP JUMPDEST PUSH1 0x20 DUP3 ADD SWAP1 POP SWAP2 SWAP1 POP JUMP JUMPDEST PUSH1 0x0 PUSH1 0x20 DUP3 ADD SWAP1 POP DUP2 DUP2 SUB PUSH1 0x0 DUP4 ADD MSTORE PUSH3 0x889 DUP2 PUSH3 0x847 JUMP JUMPDEST SWAP1 POP SWAP2 SWAP1 POP JUMP JUMPDEST PUSH32 0x557066726F6E742072616B65206D757374206265203E3D204F74746572506164 PUSH1 0x0 DUP3 ADD MSTORE PUSH32 0x2066656500000000000000000000000000000000000000000000000000000000 PUSH1 0x20 DUP3 ADD MSTORE POP JUMP JUMPDEST PUSH1 0x0 PUSH3 0x8EE PUSH1 0x24 DUP4 PUSH3 0x79B JUMP JUMPDEST SWAP2 POP PUSH3 0x8FB DUP3 PUSH3 0x890 JUMP JUMPDEST PUSH1 0x40 DUP3 ADD SWAP1 POP SWAP2 SWAP1 POP JUMP JUMPDEST PUSH1 0x0 PUSH1 0x20 DUP3 ADD SWAP1 POP DUP2 DUP2 SUB PUSH1 0x0 DUP4 ADD MSTORE PUSH3 0x921 DUP2 PUSH3 0x8DF JUMP JUMPDEST SWAP1 POP SWAP2 SWAP1 POP JUMP JUMPDEST PUSH32 0x4E487B7100000000000000000000000000000000000000000000000000000000 PUSH1 0x0 MSTORE PUSH1 0x11 PUSH1 0x4 MSTORE PUSH1 0x24 PUSH1 0x0 REVERT JUMPDEST PUSH1 0x0 PUSH3 0x964 DUP3 PUSH3 0x66A JUMP JUMPDEST SWAP2 POP PUSH3 0x971 DUP4 PUSH3 0x66A JUMP JUMPDEST SWAP3 POP DUP3 DUP3 ADD SWAP1 POP DUP1 DUP3 GT ISZERO PUSH3 0x98C JUMPI PUSH3 0x98B PUSH3 0x928 JUMP JUMPDEST JUMPDEST SWAP3 SWAP2 POP POP JUMP JUMPDEST PUSH32 0x436F6D62696E65642072616B6520373025206578636565646564000000000000 PUSH1 0x0 DUP3 ADD MSTORE POP JUMP JUMPDEST PUSH1 0x0 PUSH3 0x9CA PUSH1 0x1A DUP4 PUSH3 0x79B JUMP JUMPDEST SWAP2 POP PUSH3 0x9D7 DUP3 PUSH3 0x992 JUMP JUMPDEST PUSH1 0x20 DUP3 ADD SWAP1 POP SWAP2 SWAP1 POP JUMP JUMPDEST PUSH1 0x0 PUSH1 0x20 DUP3 ADD SWAP1 POP DUP2 DUP2 SUB PUSH1 0x0 DUP4 ADD MSTORE PUSH3 0x9FD DUP2 PUSH3 0x9BB JUMP JUMPDEST SWAP1 POP SWAP2 SWAP1 POP JUMP JUMPDEST PUSH32 0x496E76616C696420666F756E646572732077616C6C6574000000000000000000 PUSH1 0x0 DUP3 ADD MSTORE POP JUMP JUMPDEST PUSH1 0x0 PUSH3 0xA3C PUSH1 0x17 DUP4 PUSH3 0x79B JUMP JUMPDEST SWAP2 POP PUSH3 0xA49 DUP3 PUSH3 0xA04 JUMP JUMPDEST PUSH1 0x20 DUP3 ADD SWAP1 POP SWAP2 SWAP1 POP JUMP JUMPDEST PUSH1 0x0 PUSH1 0x20 DUP3 ADD SWAP1 POP DUP2 DUP2 SUB PUSH1 0x0 DUP4 ADD MSTORE PUSH3 0xA6F DUP2 PUSH3 0xA2D JUMP JUMPDEST SWAP1 POP SWAP2 SWAP1 POP JUMP JUMPDEST PUSH32 0x496E76616C696420746F6B656E20616464726573736573000000000000000000 PUSH1 0x0 DUP3 ADD MSTORE POP JUMP JUMPDEST PUSH1 0x0 PUSH3 0xAAE PUSH1 0x17 DUP4 PUSH3 0x79B JUMP JUMPDEST SWAP2 POP PUSH3 0xABB DUP3 PUSH3 0xA76 JUMP JUMPDEST PUSH1 0x20 DUP3 ADD SWAP1 POP SWAP2 SWAP1 POP JUMP JUMPDEST PUSH1 0x0 PUSH1 0x20 DUP3 ADD SWAP1 POP DUP2 DUP2 SUB PUSH1 0x0 DUP4 ADD MSTORE PUSH3 0xAE1 DUP2 PUSH3 0xA9F JUMP JUMPDEST SWAP1 POP SWAP2 SWAP1 POP JUMP JUMPDEST PUSH32 0x546F6B656E73206D75737420626520646966666572656E740000000000000000 PUSH1 0x0 DUP3 ADD MSTORE POP JUMP JUMPDEST PUSH1 0x0 PUSH3 0xB20 PUSH1 0x18 DUP4 PUSH3 0x79B JUMP JUMPDEST SWAP2 POP PUSH3 0xB2D DUP3 PUSH3 0xAE8 JUMP JUMPDEST PUSH1 0x20 DUP3 ADD SWAP1 POP SWAP2 SWAP1 POP JUMP JUMPDEST PUSH1 0x0 PUSH1 0x20 DUP3 ADD SWAP1 POP DUP2 DUP2 SUB PUSH1 0x0 DUP4 ADD MSTORE PUSH3 0xB53 DUP2 PUSH3 0xB11 JUMP JUMPDEST SWAP1 POP SWAP2 SWAP1 POP JUMP JUMPDEST PUSH32 0x496E76616C696420556E69737761702061646472657373657300000000000000 PUSH1 0x0 DUP3 ADD MSTORE POP JUMP JUMPDEST PUSH1 0x0 PUSH3 0xB92 PUSH1 0x19 DUP4 PUSH3 0x79B JUMP JUMPDEST SWAP2 POP PUSH3 0xB9F DUP3 PUSH3 0xB5A JUMP JUMPDEST PUSH1 0x20 DUP3 ADD SWAP1 POP SWAP2 SWAP1 POP JUMP JUMPDEST PUSH1 0x0 PUSH1 0x20 DUP3 ADD SWAP1 POP DUP2 DUP2 SUB PUSH1 0x0 DUP4 ADD MSTORE PUSH3 0xBC5 DUP2 PUSH3 0xB83 JUMP JUMPDEST SWAP1 POP SWAP2 SWAP1 POP JUMP JUMPDEST PUSH1 0x0 PUSH1 0xFF DUP3 AND SWAP1 POP SWAP2 SWAP1 POP JUMP JUMPDEST PUSH3 0xBE4 DUP2 PUSH3 0xBCC JUMP JUMPDEST DUP2 EQ PUSH3 0xBF0 JUMPI PUSH1 0x0 DUP1 REVERT JUMPDEST POP JUMP JUMPDEST PUSH1 0x0 DUP2 MLOAD SWAP1 POP PUSH3 0xC04 DUP2 PUSH3 0xBD9 JUMP JUMPDEST SWAP3 SWAP2 POP POP JUMP JUMPDEST PUSH1 0x0 PUSH1 0x20 DUP3 DUP5 SUB SLT ISZERO PUSH3 0xC23 JUMPI PUSH3 0xC22 PUSH3 0x600 JUMP JUMPDEST JUMPDEST PUSH1 0x0 PUSH3 0xC33 DUP5 DUP3 DUP6 ADD PUSH3 0xBF3 JUMP JUMPDEST SWAP2 POP POP SWAP3 SWAP2 POP POP JUMP JUMPDEST PUSH1 0x80 MLOAD PUSH1 0xA0 MLOAD PUSH1 0xC0 MLOAD PUSH1 0xE0 MLOAD PUSH2 0x100 MLOAD PUSH2 0x120 MLOAD PUSH2 0x140 MLOAD PUSH2 0x160 MLOAD PUSH2 0x180 MLOAD PUSH2 0x1A0 MLOAD PUSH2 0x1C0 MLOAD PUSH2 0x1E0 MLOAD PUSH2 0x466F PUSH3 0xE79 PUSH1 0x0 CODECOPY PUSH1 0x0 DUP2 DUP2 PUSH2 0xB98 ADD MSTORE DUP2 DUP2 PUSH2 0x122C ADD MSTORE DUP2 DUP2 PUSH2 0x130F ADD MSTORE DUP2 DUP2 PUSH2 0x1528 ADD MSTORE DUP2 DUP2 PUSH2 0x1E2B ADD MSTORE DUP2 DUP2 PUSH2 0x2078 ADD MSTORE PUSH2 0x25E1 ADD MSTORE PUSH1 0x0 DUP2 DUP2 PUSH2 0xAFD ADD MSTORE DUP2 DUP2 PUSH2 0x1A38 ADD MSTORE PUSH2 0x1AA7 ADD MSTORE PUSH1 0x0 DUP2 DUP2 PUSH2 0xB1E ADD MSTORE DUP2 DUP2 PUSH2 0xB47 ADD MSTORE DUP2 DUP2 PUSH2 0x1A59 ADD MSTORE DUP2 DUP2 PUSH2 0x1AC8 ADD MSTORE DUP2 DUP2 PUSH2 0x1B0F ADD MSTORE PUSH2 0x1B56 ADD MSTORE PUSH1 0x0 DUP2 DUP2 PUSH2 0x943 ADD MSTORE DUP2 DUP2 PUSH2 0x197A ADD MSTORE DUP2 DUP2 PUSH2 0x1C77 ADD MSTORE DUP2 DUP2 PUSH2 0x1D38 ADD MSTORE PUSH2 0x22A4 ADD MSTORE PUSH1 0x0 DUP2 DUP2 PUSH2 0x8FC ADD MSTORE DUP2 DUP2 PUSH2 0x1922 ADD MSTORE DUP2 DUP2 PUSH2 0x199B ADD MSTORE PUSH2 0x225D ADD MSTORE PUSH1 0x0 DUP2 DUP2 PUSH2 0x9A1 ADD MSTORE DUP2 DUP2 PUSH2 0xA1F ADD MSTORE DUP2 DUP2 PUSH2 0x19DB ADD MSTORE DUP2 DUP2 PUSH2 0x1B83 ADD MSTORE DUP2 DUP2 PUSH2 0x1CD8 ADD MSTORE DUP2 DUP2 PUSH2 0x1D08 ADD MSTORE DUP2 DUP2 PUSH2 0x2302 ADD MSTORE DUP2 DUP2 PUSH2 0x28D9 ADD MSTORE DUP2 DUP2 PUSH2 0x2CA3 ADD MSTORE PUSH2 0x2CF4 ADD MSTORE PUSH1 0x0 DUP2 DUP2 PUSH2 0xA6F ADD MSTORE DUP2 DUP2 PUSH2 0x1A86 ADD MSTORE DUP2 DUP2 PUSH2 0x1D62 ADD MSTORE DUP2 DUP2 PUSH2 0x2CCC ADD MSTORE PUSH2 0x2D39 ADD MSTORE PUSH1 0x0 DUP2 DUP2 PUSH2 0xA4E ADD MSTORE DUP2 DUP2 PUSH2 0xAAE ADD MSTORE DUP2 DUP2 PUSH2 0x1A17 ADD MSTORE DUP2 DUP2 PUSH2 0x2D18 ADD MSTORE DUP2 DUP2 PUSH2 0x2D78 ADD MSTORE PUSH2 0x2DC6 ADD MSTORE PUSH1 0x0 DUP2 DUP2 PUSH2 0x1383 ADD MSTORE PUSH2 0x1CB4 ADD MSTORE PUSH1 0x0 DUP2 DUP2 PUSH2 0xF22 ADD MSTORE DUP2 DUP2 PUSH2 0x1021 ADD MSTORE DUP2 DUP2 PUSH2 0x10E7 ADD MSTORE PUSH2 0x1BD2 ADD MSTORE PUSH1 0x0 DUP2 DUP2 PUSH2 0x838 ADD MSTORE DUP2 DUP2 PUSH2 0xE0B ADD MSTORE DUP2 DUP2 PUSH2 0xFE5 ADD MSTORE DUP2 DUP2 PUSH2 0x1144 ADD MSTORE DUP2 DUP2 PUSH2 0x11F0 ADD MSTORE DUP2 DUP2 PUSH2 0x13E0 ADD MSTORE DUP2 DUP2 PUSH2 0x17AB ADD MSTORE DUP2 DUP2 PUSH2 0x18EB ADD MSTORE DUP2 DUP2 PUSH2 0x237F ADD MSTORE DUP2 DUP2 PUSH2 0x24B4 ADD MSTORE PUSH2 0x25A5 ADD MSTORE PUSH1 0x0 DUP2 DUP2 PUSH2 0xD2D ADD MSTORE DUP2 DUP2 PUSH2 0xEE6 ADD MSTORE DUP2 DUP2 PUSH2 0x1123 ADD MSTORE DUP2 DUP2 PUSH2 0x13BF ADD MSTORE DUP2 DUP2 PUSH2 0x1487 ADD MSTORE DUP2 DUP2 PUSH2 0x1F08 ADD MSTORE DUP2 DUP2 PUSH2 0x2B37 ADD MSTORE DUP2 DUP2 PUSH2 0x2C7D ADD MSTORE DUP2 DUP2 PUSH2 0x2DEC ADD MSTORE PUSH2 0x2F11 ADD MSTORE PUSH2 0x466F PUSH1 0x0 RETURN INVALID PUSH1 0x80 PUSH1 0x40 MSTORE CALLVALUE DUP1 ISZERO PUSH2 0x10 JUMPI PUSH1 0x0 DUP1 REVERT JUMPDEST POP PUSH1 0x4 CALLDATASIZE LT PUSH2 0x211 JUMPI PUSH1 0x0 CALLDATALOAD PUSH1 0xE0 SHR DUP1 PUSH4 0x92258EC8 GT PUSH2 0x125 JUMPI DUP1 PUSH4 0xD96A094A GT PUSH2 0xAD JUMPI DUP1 PUSH4 0xEB91D37E GT PUSH2 0x7C JUMPI DUP1 PUSH4 0xEB91D37E EQ PUSH2 0x5DE JUMPI DUP1 PUSH4 0xEDAFC9AF EQ PUSH2 0x5FC JUMPI DUP1 PUSH4 0xEF5EE995 EQ PUSH2 0x61A JUMPI DUP1 PUSH4 0xF1A9AF89 EQ PUSH2 0x638 JUMPI DUP1 PUSH4 0xF6A55A29 EQ PUSH2 0x656 JUMPI PUSH2 0x211 JUMP JUMPDEST DUP1 PUSH4 0xD96A094A EQ PUSH2 0x56A JUMPI DUP1 PUSH4 0xDB006A75 EQ PUSH2 0x586 JUMPI DUP1 PUSH4 0xDE7E3310 EQ PUSH2 0x5A2 JUMPI DUP1 PUSH4 0xE985E367 EQ PUSH2 0x5C0 JUMPI PUSH2 0x211 JUMP JUMPDEST DUP1 PUSH4 0xB789BF52 GT PUSH2 0xF4 JUMPI DUP1 PUSH4 0xB789BF52 EQ PUSH2 0x4C4 JUMPI DUP1 PUSH4 0xB868723E EQ PUSH2 0x4E2 JUMPI DUP1 PUSH4 0xBEF08860 EQ PUSH2 0x500 JUMPI DUP1 PUSH4 0xC07F773A EQ PUSH2 0x530 JUMPI DUP1 PUSH4 0xC596F3FE EQ PUSH2 0x54E JUMPI PUSH2 0x211 JUMP JUMPDEST DUP1 PUSH4 0x92258EC8 EQ PUSH2 0x44C JUMPI DUP1 PUSH4 0x9513A0FD EQ PUSH2 0x46A JUMPI DUP1 PUSH4 0xAF5B065A EQ PUSH2 0x488 JUMPI DUP1 PUSH4 0xB704A0C4 EQ PUSH2 0x4A6 JUMPI PUSH2 0x211 JUMP JUMPDEST DUP1 PUSH4 0x3013CE29 GT PUSH2 0x1A8 JUMPI DUP1 PUSH4 0x5F655EA7 GT PUSH2 0x177 JUMPI DUP1 PUSH4 0x5F655EA7 EQ PUSH2 0x39E JUMPI DUP1 PUSH4 0x735DE9F7 EQ PUSH2 0x3BC JUMPI DUP1 PUSH4 0x8392FE31 EQ PUSH2 0x3DA JUMPI DUP1 PUSH4 0x8A19ECEF EQ PUSH2 0x410 JUMPI DUP1 PUSH4 0x8BDB2AFA EQ PUSH2 0x42E JUMPI PUSH2 0x211 JUMP JUMPDEST DUP1 PUSH4 0x3013CE29 EQ PUSH2 0x314 JUMPI DUP1 PUSH4 0x3BDE5BA8 EQ PUSH2 0x332 JUMPI DUP1 PUSH4 0x560B842C EQ PUSH2 0x350 JUMPI DUP1 PUSH4 0x5A59C551 EQ PUSH2 0x36E JUMPI PUSH2 0x211 JUMP JUMPDEST DUP1 PUSH4 0x16C04948 GT PUSH2 0x1E4 JUMPI DUP1 PUSH4 0x16C04948 EQ PUSH2 0x29E JUMPI DUP1 PUSH4 0x1BFAF155 EQ PUSH2 0x2BC JUMPI DUP1 PUSH4 0x25F97FB9 EQ PUSH2 0x2DA JUMPI DUP1 PUSH4 0x278ECDE1 EQ PUSH2 0x2F8 JUMPI PUSH2 0x211 JUMP JUMPDEST DUP1 PUSH4 0xE022923 EQ PUSH2 0x216 JUMPI DUP1 PUSH4 0xF8C2798 EQ PUSH2 0x246 JUMPI DUP1 PUSH4 0x10D0FFDD EQ PUSH2 0x264 JUMPI DUP1 PUSH4 0x12EFF12C EQ PUSH2 0x294 JUMPI JUMPDEST PUSH1 0x0 DUP1 REVERT JUMPDEST PUSH2 0x230 PUSH1 0x4 DUP1 CALLDATASIZE SUB DUP2 ADD SWAP1 PUSH2 0x22B SWAP2 SWAP1 PUSH2 0x3063 JUMP JUMPDEST PUSH2 0x674 JUMP JUMPDEST PUSH1 0x40 MLOAD PUSH2 0x23D SWAP2 SWAP1 PUSH2 0x30A9 JUMP JUMPDEST PUSH1 0x40 MLOAD DUP1 SWAP2 SUB SWAP1 RETURN JUMPDEST PUSH2 0x24E PUSH2 0x834 JUMP JUMPDEST PUSH1 0x40 MLOAD PUSH2 0x25B SWAP2 SWAP1 PUSH2 0x30A9 JUMP JUMPDEST PUSH1 0x40 MLOAD DUP1 SWAP2 SUB SWAP1 RETURN JUMPDEST PUSH2 0x27E PUSH1 0x4 DUP1 CALLDATASIZE SUB DUP2 ADD SWAP1 PUSH2 0x279 SWAP2 SWAP1 PUSH2 0x30F0 JUMP JUMPDEST PUSH2 0x8D5 JUMP JUMPDEST PUSH1 0x40 MLOAD PUSH2 0x28B SWAP2 SWAP1 PUSH2 0x30A9 JUMP JUMPDEST PUSH1 0x40 MLOAD DUP1 SWAP2 SUB SWAP1 RETURN JUMPDEST PUSH2 0x29C PUSH2 0xB96 JUMP JUMPDEST STOP JUMPDEST PUSH2 0x2A6 PUSH2 0x147B JUMP JUMPDEST PUSH1 0x40 MLOAD PUSH2 0x2B3 SWAP2 SWAP1 PUSH2 0x3138 JUMP JUMPDEST PUSH1 0x40 MLOAD DUP1 SWAP2 SUB SWAP1 RETURN JUMPDEST PUSH2 0x2C4 PUSH2 0x1526 JUMP JUMPDEST PUSH1 0x40 MLOAD PUSH2 0x2D1 SWAP2 SWAP1 PUSH2 0x3162 JUMP JUMPDEST PUSH1 0x40 MLOAD DUP1 SWAP2 SUB SWAP1 RETURN JUMPDEST PUSH2 0x2E2 PUSH2 0x154A JUMP JUMPDEST PUSH1 0x40 MLOAD PUSH2 0x2EF SWAP2 SWAP1 PUSH2 0x3138 JUMP JUMPDEST PUSH1 0x40 MLOAD DUP1 SWAP2 SUB SWAP1 RETURN JUMPDEST PUSH2 0x312 PUSH1 0x4 DUP1 CALLDATASIZE SUB DUP2 ADD SWAP1 PUSH2 0x30D SWAP2 SWAP1 PUSH2 0x30F0 JUMP JUMPDEST PUSH2 0x155D JUMP JUMPDEST STOP JUMPDEST PUSH2 0x31C PUSH2 0x18E9 JUMP JUMPDEST PUSH1 0x40 MLOAD PUSH2 0x329 SWAP2 SWAP1 PUSH2 0x31DC JUMP JUMPDEST PUSH1 0x40 MLOAD DUP1 SWAP2 SUB SWAP1 RETURN JUMPDEST PUSH2 0x33A PUSH2 0x190D JUMP JUMPDEST PUSH1 0x40 MLOAD PUSH2 0x347 SWAP2 SWAP1 PUSH2 0x3138 JUMP JUMPDEST PUSH1 0x40 MLOAD DUP1 SWAP2 SUB SWAP1 RETURN JUMPDEST PUSH2 0x358 PUSH2 0x1920 JUMP JUMPDEST PUSH1 0x40 MLOAD PUSH2 0x365 SWAP2 SWAP1 PUSH2 0x30A9 JUMP JUMPDEST PUSH1 0x40 MLOAD DUP1 SWAP2 SUB SWAP1 RETURN JUMPDEST PUSH2 0x388 PUSH1 0x4 DUP1 CALLDATASIZE SUB DUP2 ADD SWAP1 PUSH2 0x383 SWAP2 SWAP1 PUSH2 0x31F7 JUMP JUMPDEST PUSH2 0x1944 JUMP JUMPDEST PUSH1 0x40 MLOAD PUSH2 0x395 SWAP2 SWAP1 PUSH2 0x30A9 JUMP JUMPDEST PUSH1 0x40 MLOAD DUP1 SWAP2 SUB SWAP1 RETURN JUMPDEST PUSH2 0x3A6 PUSH2 0x1975 JUMP JUMPDEST PUSH1 0x40 MLOAD PUSH2 0x3B3 SWAP2 SWAP1 PUSH2 0x30A9 JUMP JUMPDEST PUSH1 0x40 MLOAD DUP1 SWAP2 SUB SWAP1 RETURN JUMPDEST PUSH2 0x3C4 PUSH2 0x1BD0 JUMP JUMPDEST PUSH1 0x40 MLOAD PUSH2 0x3D1 SWAP2 SWAP1 PUSH2 0x3258 JUMP JUMPDEST PUSH1 0x40 MLOAD DUP1 SWAP2 SUB SWAP1 RETURN JUMPDEST PUSH2 0x3F4 PUSH1 0x4 DUP1 CALLDATASIZE SUB DUP2 ADD SWAP1 PUSH2 0x3EF SWAP2 SWAP1 PUSH2 0x30F0 JUMP JUMPDEST PUSH2 0x1BF4 JUMP JUMPDEST PUSH1 0x40 MLOAD PUSH2 0x407 SWAP8 SWAP7 SWAP6 SWAP5 SWAP4 SWAP3 SWAP2 SWAP1 PUSH2 0x3273 JUMP JUMPDEST PUSH1 0x40 MLOAD DUP1 SWAP2 SUB SWAP1 RETURN JUMPDEST PUSH2 0x418 PUSH2 0x1C70 JUMP JUMPDEST PUSH1 0x40 MLOAD PUSH2 0x425 SWAP2 SWAP1 PUSH2 0x30A9 JUMP JUMPDEST PUSH1 0x40 MLOAD DUP1 SWAP2 SUB SWAP1 RETURN JUMPDEST PUSH2 0x436 PUSH2 0x1CB2 JUMP JUMPDEST PUSH1 0x40 MLOAD PUSH2 0x443 SWAP2 SWAP1 PUSH2 0x3303 JUMP JUMPDEST PUSH1 0x40 MLOAD DUP1 SWAP2 SUB SWAP1 RETURN JUMPDEST PUSH2 0x454 PUSH2 0x1CD6 JUMP JUMPDEST PUSH1 0x40 MLOAD PUSH2 0x461 SWAP2 SWAP1 PUSH2 0x30A9 JUMP JUMPDEST PUSH1 0x40 MLOAD DUP1 SWAP2 SUB SWAP1 RETURN JUMPDEST PUSH2 0x472 PUSH2 0x1CFA JUMP JUMPDEST PUSH1 0x40 MLOAD PUSH2 0x47F SWAP2 SWAP1 PUSH2 0x30A9 JUMP JUMPDEST PUSH1 0x40 MLOAD DUP1 SWAP2 SUB SWAP1 RETURN JUMPDEST PUSH2 0x490 PUSH2 0x1D00 JUMP JUMPDEST PUSH1 0x40 MLOAD PUSH2 0x49D SWAP2 SWAP1 PUSH2 0x30A9 JUMP JUMPDEST PUSH1 0x40 MLOAD DUP1 SWAP2 SUB SWAP1 RETURN JUMPDEST PUSH2 0x4AE PUSH2 0x1D36 JUMP JUMPDEST PUSH1 0x40 MLOAD PUSH2 0x4BB SWAP2 SWAP1 PUSH2 0x30A9 JUMP JUMPDEST PUSH1 0x40 MLOAD DUP1 SWAP2 SUB SWAP1 RETURN JUMPDEST PUSH2 0x4CC PUSH2 0x1D5A JUMP JUMPDEST PUSH1 0x40 MLOAD PUSH2 0x4D9 SWAP2 SWAP1 PUSH2 0x30A9 JUMP JUMPDEST PUSH1 0x40 MLOAD DUP1 SWAP2 SUB SWAP1 RETURN JUMPDEST PUSH2 0x4EA PUSH2 0x1D60 JUMP JUMPDEST PUSH1 0x40 MLOAD PUSH2 0x4F7 SWAP2 SWAP1 PUSH2 0x30A9 JUMP JUMPDEST PUSH1 0x40 MLOAD DUP1 SWAP2 SUB SWAP1 RETURN JUMPDEST PUSH2 0x51A PUSH1 0x4 DUP1 CALLDATASIZE SUB DUP2 ADD SWAP1 PUSH2 0x515 SWAP2 SWAP1 PUSH2 0x3063 JUMP JUMPDEST PUSH2 0x1D84 JUMP JUMPDEST PUSH1 0x40 MLOAD PUSH2 0x527 SWAP2 SWAP1 PUSH2 0x33DC JUMP JUMPDEST PUSH1 0x40 MLOAD DUP1 SWAP2 SUB SWAP1 RETURN JUMPDEST PUSH2 0x538 PUSH2 0x1E1B JUMP JUMPDEST PUSH1 0x40 MLOAD PUSH2 0x545 SWAP2 SWAP1 PUSH2 0x30A9 JUMP JUMPDEST PUSH1 0x40 MLOAD DUP1 SWAP2 SUB SWAP1 RETURN JUMPDEST PUSH2 0x568 PUSH1 0x4 DUP1 CALLDATASIZE SUB DUP2 ADD SWAP1 PUSH2 0x563 SWAP2 SWAP1 PUSH2 0x31F7 JUMP JUMPDEST PUSH2 0x1E21 JUMP JUMPDEST STOP JUMPDEST PUSH2 0x584 PUSH1 0x4 DUP1 CALLDATASIZE SUB DUP2 ADD SWAP1 PUSH2 0x57F SWAP2 SWAP1 PUSH2 0x30F0 JUMP JUMPDEST PUSH2 0x2145 JUMP JUMPDEST STOP JUMPDEST PUSH2 0x5A0 PUSH1 0x4 DUP1 CALLDATASIZE SUB DUP2 ADD SWAP1 PUSH2 0x59B SWAP2 SWAP1 PUSH2 0x30F0 JUMP JUMPDEST PUSH2 0x292D JUMP JUMPDEST STOP JUMPDEST PUSH2 0x5AA PUSH2 0x2C75 JUMP JUMPDEST PUSH1 0x40 MLOAD PUSH2 0x5B7 SWAP2 SWAP1 PUSH2 0x30A9 JUMP JUMPDEST PUSH1 0x40 MLOAD DUP1 SWAP2 SUB SWAP1 RETURN JUMPDEST PUSH2 0x5C8 PUSH2 0x2C7B JUMP JUMPDEST PUSH1 0x40 MLOAD PUSH2 0x5D5 SWAP2 SWAP1 PUSH2 0x31DC JUMP JUMPDEST PUSH1 0x40 MLOAD DUP1 SWAP2 SUB SWAP1 RETURN JUMPDEST PUSH2 0x5E6 PUSH2 0x2C9F JUMP JUMPDEST PUSH1 0x40 MLOAD PUSH2 0x5F3 SWAP2 SWAP1 PUSH2 0x30A9 JUMP JUMPDEST PUSH1 0x40 MLOAD DUP1 SWAP2 SUB SWAP1 RETURN JUMPDEST PUSH2 0x604 PUSH2 0x2DA7 JUMP JUMPDEST PUSH1 0x40 MLOAD PUSH2 0x611 SWAP2 SWAP1 PUSH2 0x3162 JUMP JUMPDEST PUSH1 0x40 MLOAD DUP1 SWAP2 SUB SWAP1 RETURN JUMPDEST PUSH2 0x622 PUSH2 0x2DBF JUMP JUMPDEST PUSH1 0x40 MLOAD PUSH2 0x62F SWAP2 SWAP1 PUSH2 0x30A9 JUMP JUMPDEST PUSH1 0x40 MLOAD DUP1 SWAP2 SUB SWAP1 RETURN JUMPDEST PUSH2 0x640 PUSH2 0x2DC4 JUMP JUMPDEST PUSH1 0x40 MLOAD PUSH2 0x64D SWAP2 SWAP1 PUSH2 0x30A9 JUMP JUMPDEST PUSH1 0x40 MLOAD DUP1 SWAP2 SUB SWAP1 RETURN JUMPDEST PUSH2 0x65E PUSH2 0x2DE8 JUMP JUMPDEST PUSH1 0x40 MLOAD PUSH2 0x66B SWAP2 SWAP1 PUSH2 0x30A9 JUMP JUMPDEST PUSH1 0x40 MLOAD DUP1 SWAP2 SUB SWAP1 RETURN JUMPDEST PUSH1 0x0 DUP1 PUSH1 0x7 PUSH1 0x0 DUP5 PUSH20 0xFFFFFFFFFFFFFFFFFFFFFFFFFFFFFFFFFFFFFFFF AND PUSH20 0xFFFFFFFFFFFFFFFFFFFFFFFFFFFFFFFFFFFFFFFF AND DUP2 MSTORE PUSH1 0x20 ADD SWAP1 DUP2 MSTORE PUSH1 0x20 ADD PUSH1 0x0 KECCAK256 DUP1 SLOAD DUP1 PUSH1 0x20 MUL PUSH1 0x20 ADD PUSH1 0x40 MLOAD SWAP1 DUP2 ADD PUSH1 0x40 MSTORE DUP1 SWAP3 SWAP2 SWAP1 DUP2 DUP2 MSTORE PUSH1 0x20 ADD DUP3 DUP1 SLOAD DUP1 ISZERO PUSH2 0x700 JUMPI PUSH1 0x20 MUL DUP3 ADD SWAP2 SWAP1 PUSH1 0x0 MSTORE PUSH1 0x20 PUSH1 0x0 KECCAK256 SWAP1 JUMPDEST DUP2 SLOAD DUP2 MSTORE PUSH1 0x20 ADD SWAP1 PUSH1 0x1 ADD SWAP1 DUP1 DUP4 GT PUSH2 0x6EC JUMPI JUMPDEST POP POP POP POP POP SWAP1 POP PUSH1 0x0 JUMPDEST DUP2 MLOAD DUP2 LT ISZERO PUSH2 0x82D JUMPI PUSH1 0x0 PUSH1 0x6 PUSH1 0x0 DUP5 DUP5 DUP2 MLOAD DUP2 LT PUSH2 0x72C JUMPI PUSH2 0x72B PUSH2 0x33FE JUMP JUMPDEST JUMPDEST PUSH1 0x20 MUL PUSH1 0x20 ADD ADD MLOAD DUP2 MSTORE PUSH1 0x20 ADD SWAP1 DUP2 MSTORE PUSH1 0x20 ADD PUSH1 0x0 KECCAK256 PUSH1 0x40 MLOAD DUP1 PUSH1 0xE0 ADD PUSH1 0x40 MSTORE SWAP1 DUP2 PUSH1 0x0 DUP3 ADD SLOAD DUP2 MSTORE PUSH1 0x20 ADD PUSH1 0x1 DUP3 ADD SLOAD DUP2 MSTORE PUSH1 0x20 ADD PUSH1 0x2 DUP3 ADD SLOAD DUP2 MSTORE PUSH1 0x20 ADD PUSH1 0x3 DUP3 ADD PUSH1 0x0 SWAP1 SLOAD SWAP1 PUSH2 0x100 EXP SWAP1 DIV PUSH20 0xFFFFFFFFFFFFFFFFFFFFFFFFFFFFFFFFFFFFFFFF AND PUSH20 0xFFFFFFFFFFFFFFFFFFFFFFFFFFFFFFFFFFFFFFFF AND PUSH20 0xFFFFFFFFFFFFFFFFFFFFFFFFFFFFFFFFFFFFFFFF AND DUP2 MSTORE PUSH1 0x20 ADD PUSH1 0x3 DUP3 ADD PUSH1 0x14 SWAP1 SLOAD SWAP1 PUSH2 0x100 EXP SWAP1 DIV PUSH1 0xFF AND ISZERO ISZERO ISZERO ISZERO DUP2 MSTORE PUSH1 0x20 ADD PUSH1 0x3 DUP3 ADD PUSH1 0x15 SWAP1 SLOAD SWAP1 PUSH2 0x100 EXP SWAP1 DIV PUSH1 0xFF AND ISZERO ISZERO ISZERO ISZERO DUP2 MSTORE PUSH1 0x20 ADD PUSH1 0x4 DUP3 ADD SLOAD DUP2 MSTORE POP POP SWAP1 POP DUP1 PUSH1 0x80 ADD MLOAD PUSH2 0x81F JUMPI DUP1 PUSH1 0x40 ADD MLOAD DUP5 PUSH2 0x81C SWAP2 SWAP1 PUSH2 0x345C JUMP JUMPDEST SWAP4 POP JUMPDEST POP DUP1 DUP1 PUSH1 0x1 ADD SWAP2 POP POP PUSH2 0x70A JUMP JUMPDEST POP POP SWAP2 SWAP1 POP JUMP JUMPDEST PUSH1 0x0 PUSH32 0x0 PUSH20 0xFFFFFFFFFFFFFFFFFFFFFFFFFFFFFFFFFFFFFFFF AND PUSH4 0x70A08231 ADDRESS PUSH1 0x40 MLOAD DUP3 PUSH4 0xFFFFFFFF AND PUSH1 0xE0 SHL DUP2 MSTORE PUSH1 0x4 ADD PUSH2 0x88F SWAP2 SWAP1 PUSH2 0x3162 JUMP JUMPDEST PUSH1 0x20 PUSH1 0x40 MLOAD DUP1 DUP4 SUB DUP2 DUP7 GAS STATICCALL ISZERO DUP1 ISZERO PUSH2 0x8AC JUMPI RETURNDATASIZE PUSH1 0x0 DUP1 RETURNDATACOPY RETURNDATASIZE PUSH1 0x0 REVERT JUMPDEST POP POP POP POP PUSH1 0x40 MLOAD RETURNDATASIZE PUSH1 0x1F NOT PUSH1 0x1F DUP3 ADD AND DUP3 ADD DUP1 PUSH1 0x40 MSTORE POP DUP2 ADD SWAP1 PUSH2 0x8D0 SWAP2 SWAP1 PUSH2 0x34A5 JUMP JUMPDEST SWAP1 POP SWAP1 JUMP JUMPDEST PUSH1 0x0 DUP1 PUSH2 0x2710 PUSH1 0x64 DUP5 PUSH2 0x8E8 SWAP2 SWAP1 PUSH2 0x34D2 JUMP JUMPDEST PUSH2 0x8F2 SWAP2 SWAP1 PUSH2 0x3543 JUMP JUMPDEST SWAP1 POP PUSH1 0x0 DUP2 PUSH2 0x2710 PUSH32 0x0 DUP7 PUSH2 0x926 SWAP2 SWAP1 PUSH2 0x34D2 JUMP JUMPDEST PUSH2 0x930 SWAP2 SWAP1 PUSH2 0x3543 JUMP JUMPDEST PUSH2 0x93A SWAP2 SWAP1 PUSH2 0x3574 JUMP JUMPDEST SWAP1 POP PUSH1 0x0 PUSH2 0x2710 PUSH32 0x0 DUP7 PUSH2 0x96D SWAP2 SWAP1 PUSH2 0x34D2 JUMP JUMPDEST PUSH2 0x977 SWAP2 SWAP1 PUSH2 0x3543 JUMP JUMPDEST SWAP1 POP PUSH1 0x0 DUP2 DUP4 DUP6 DUP9 PUSH2 0x989 SWAP2 SWAP1 PUSH2 0x3574 JUMP JUMPDEST PUSH2 0x993 SWAP2 SWAP1 PUSH2 0x3574 JUMP JUMPDEST PUSH2 0x99D SWAP2 SWAP1 PUSH2 0x3574 JUMP JUMPDEST SWAP1 POP PUSH32 0x0 DUP2 PUSH1 0x4 SLOAD PUSH2 0x9CE SWAP2 SWAP1 PUSH2 0x345C JUMP JUMPDEST GT ISZERO PUSH2 0xA0F JUMPI PUSH1 0x40 MLOAD PUSH32 0x8C379A000000000000000000000000000000000000000000000000000000000 DUP2 MSTORE PUSH1 0x4 ADD PUSH2 0xA06 SWAP1 PUSH2 0x3605 JUMP JUMPDEST PUSH1 0x40 MLOAD DUP1 SWAP2 SUB SWAP1 REVERT JUMPDEST PUSH1 0x0 PUSH2 0xA19 PUSH2 0x2C9F JUMP JUMPDEST SWAP1 POP PUSH1 0x0 PUSH32 0x0 DUP4 PUSH1 0x4 SLOAD PUSH2 0xA4C SWAP2 SWAP1 PUSH2 0x345C JUMP JUMPDEST PUSH32 0x0 PUSH32 0x0 PUSH2 0xA98 SWAP2 SWAP1 PUSH2 0x3574 JUMP JUMPDEST PUSH2 0xAA2 SWAP2 SWAP1 PUSH2 0x34D2 JUMP JUMPDEST PUSH2 0xAAC SWAP2 SWAP1 PUSH2 0x3543 JUMP JUMPDEST PUSH32 0x0 PUSH2 0xAD7 SWAP2 SWAP1 PUSH2 0x345C JUMP JUMPDEST SWAP1 POP PUSH1 0x0 PUSH1 0x2 DUP3 DUP5 PUSH2 0xAE9 SWAP2 SWAP1 PUSH2 0x345C JUMP JUMPDEST PUSH2 0xAF3 SWAP2 SWAP1 PUSH2 0x3543 JUMP JUMPDEST SWAP1 POP PUSH1 0x0 PUSH2 0xB42 DUP11 PUSH32 0x0 PUSH32 0x0 PUSH2 0x2E89 JUMP JUMPDEST SWAP1 POP DUP2 PUSH32 0x0 PUSH1 0xA PUSH2 0xB72 SWAP2 SWAP1 PUSH2 0x3765 JUMP JUMPDEST DUP3 PUSH2 0xB7D SWAP2 SWAP1 PUSH2 0x34D2 JUMP JUMPDEST PUSH2 0xB87 SWAP2 SWAP1 PUSH2 0x3543 JUMP JUMPDEST SWAP9 POP POP POP POP POP POP POP POP POP SWAP2 SWAP1 POP JUMP JUMPDEST PUSH32 0x0 PUSH20 0xFFFFFFFFFFFFFFFFFFFFFFFFFFFFFFFFFFFFFFFF AND CALLER PUSH20 0xFFFFFFFFFFFFFFFFFFFFFFFFFFFFFFFFFFFFFFFF AND EQ PUSH2 0xC24 JUMPI PUSH1 0x40 MLOAD PUSH32 0x8C379A000000000000000000000000000000000000000000000000000000000 DUP2 MSTORE PUSH1 0x4 ADD PUSH2 0xC1B SWAP1 PUSH2 0x37FC JUMP JUMPDEST PUSH1 0x40 MLOAD DUP1 SWAP2 SUB SWAP1 REVERT JUMPDEST PUSH1 0x2 PUSH1 0x1 SWAP1 SLOAD SWAP1 PUSH2 0x100 EXP SWAP1 DIV PUSH1 0xFF AND PUSH2 0xC73 JUMPI PUSH1 0x40 MLOAD PUSH32 0x8C379A000000000000000000000000000000000000000000000000000000000 DUP2 MSTORE PUSH1 0x4 ADD PUSH2 0xC6A SWAP1 PUSH2 0x3868 JUMP JUMPDEST PUSH1 0x40 MLOAD DUP1 SWAP2 SUB SWAP1 REVERT JUMPDEST PUSH1 0x2 PUSH1 0x0 SWAP1 SLOAD SWAP1 PUSH2 0x100 EXP SWAP1 DIV PUSH1 0xFF AND ISZERO PUSH2 0xCC3 JUMPI PUSH1 0x40 MLOAD PUSH32 0x8C379A000000000000000000000000000000000000000000000000000000000 DUP2 MSTORE PUSH1 0x4 ADD PUSH2 0xCBA SWAP1 PUSH2 0x38D4 JUMP JUMPDEST PUSH1 0x40 MLOAD DUP1 SWAP2 SUB SWAP1 REVERT JUMPDEST PUSH1 0x0 PUSH2 0xCCD PUSH2 0x1C70 JUMP JUMPDEST SWAP1 POP PUSH1 0x0 DUP2 PUSH1 0x4 SLOAD PUSH2 0xCDF SWAP2 SWAP1 PUSH2 0x3574 JUMP JUMPDEST SWAP1 POP PUSH2 0xCE9 PUSH2 0x2F05 JUMP JUMPDEST PUSH2 0xD28 JUMPI PUSH1 0x40 MLOAD PUSH32 0x8C379A000000000000000000000000000000000000000000000000000000000 DUP2 MSTORE PUSH1 0x4 ADD PUSH2 0xD1F SWAP1 PUSH2 0x3940 JUMP JUMPDEST PUSH1 0x40 MLOAD DUP1 SWAP2 SUB SWAP1 REVERT JUMPDEST PUSH1 0x3 SLOAD PUSH32 0x0 PUSH20 0xFFFFFFFFFFFFFFFFFFFFFFFFFFFFFFFFFFFFFFFF AND PUSH4 0x70A08231 ADDRESS PUSH1 0x40 MLOAD DUP3 PUSH4 0xFFFFFFFF AND PUSH1 0xE0 SHL DUP2 MSTORE PUSH1 0x4 ADD PUSH2 0xD84 SWAP2 SWAP1 PUSH2 0x3162 JUMP JUMPDEST PUSH1 0x20 PUSH1 0x40 MLOAD DUP1 DUP4 SUB DUP2 DUP7 GAS STATICCALL ISZERO DUP1 ISZERO PUSH2 0xDA1 JUMPI RETURNDATASIZE PUSH1 0x0 DUP1 RETURNDATACOPY RETURNDATASIZE PUSH1 0x0 REVERT JUMPDEST POP POP POP POP PUSH1 0x40 MLOAD RETURNDATASIZE PUSH1 0x1F NOT PUSH1 0x1F DUP3 ADD AND DUP3 ADD DUP1 PUSH1 0x40 MSTORE POP DUP2 ADD SWAP1 PUSH2 0xDC5 SWAP2 SWAP1 PUSH2 0x34A5 JUMP JUMPDEST LT ISZERO PUSH2 0xE06 JUMPI PUSH1 0x40 MLOAD PUSH32 0x8C379A000000000000000000000000000000000000000000000000000000000 DUP2 MSTORE PUSH1 0x4 ADD PUSH2 0xDFD SWAP1 PUSH2 0x3940 JUMP JUMPDEST PUSH1 0x40 MLOAD DUP1 SWAP2 SUB SWAP1 REVERT JUMPDEST PUSH1 0x4 SLOAD PUSH32 0x0 PUSH20 0xFFFFFFFFFFFFFFFFFFFFFFFFFFFFFFFFFFFFFFFF AND PUSH4 0x70A08231 ADDRESS PUSH1 0x40 MLOAD DUP3 PUSH4 0xFFFFFFFF AND PUSH1 0xE0 SHL DUP2 MSTORE PUSH1 0x4 ADD PUSH2 0xE62 SWAP2 SWAP1 PUSH2 0x3162 JUMP JUMPDEST PUSH1 0x20 PUSH1 0x40 MLOAD DUP1 DUP4 SUB DUP2 DUP7 GAS STATICCALL ISZERO DUP1 ISZERO PUSH2 0xE7F JUMPI RETURNDATASIZE PUSH1 0x0 DUP1 RETURNDATACOPY RETURNDATASIZE PUSH1 0x0 REVERT JUMPDEST POP POP POP POP PUSH1 0x40 MLOAD RETURNDATASIZE PUSH1 0x1F NOT PUSH1 0x1F DUP3 ADD AND DUP3 ADD DUP1 PUSH1 0x40 MSTORE POP DUP2 ADD SWAP1 PUSH2 0xEA3 SWAP2 SWAP1 PUSH2 0x34A5 JUMP JUMPDEST LT ISZERO PUSH2 0xEE4 JUMPI PUSH1 0x40 MLOAD PUSH32 0x8C379A000000000000000000000000000000000000000000000000000000000 DUP2 MSTORE PUSH1 0x4 ADD PUSH2 0xEDB SWAP1 PUSH2 0x39AC JUMP JUMPDEST PUSH1 0x40 MLOAD DUP1 SWAP2 SUB SWAP1 REVERT JUMPDEST PUSH32 0x0 PUSH20 0xFFFFFFFFFFFFFFFFFFFFFFFFFFFFFFFFFFFFFFFF AND PUSH4 0x95EA7B3 PUSH32 0x0 PUSH1 0x3 SLOAD PUSH1 0x40 MLOAD DUP4 PUSH4 0xFFFFFFFF AND PUSH1 0xE0 SHL DUP2 MSTORE PUSH1 0x4 ADD PUSH2 0xF61 SWAP3 SWAP2 SWAP1 PUSH2 0x39CC JUMP JUMPDEST PUSH1 0x20 PUSH1 0x40 MLOAD DUP1 DUP4 SUB DUP2 PUSH1 0x0 DUP8 GAS CALL ISZERO DUP1 ISZERO PUSH2 0xF80 JUMPI RETURNDATASIZE PUSH1 0x0 DUP1 RETURNDATACOPY RETURNDATASIZE PUSH1 0x0 REVERT JUMPDEST POP POP POP POP PUSH1 0x40 MLOAD RETURNDATASIZE PUSH1 0x1F NOT PUSH1 0x1F DUP3 ADD AND DUP3 ADD DUP1 PUSH1 0x40 MSTORE POP DUP2 ADD SWAP1 PUSH2 0xFA4 SWAP2 SWAP1 PUSH2 0x3A21 JUMP JUMPDEST PUSH2 0xFE3 JUMPI PUSH1 0x40 MLOAD PUSH32 0x8C379A000000000000000000000000000000000000000000000000000000000 DUP2 MSTORE PUSH1 0x4 ADD PUSH2 0xFDA SWAP1 PUSH2 0x3A9A JUMP JUMPDEST PUSH1 0x40 MLOAD DUP1 SWAP2 SUB SWAP1 REVERT JUMPDEST PUSH32 0x0 PUSH20 0xFFFFFFFFFFFFFFFFFFFFFFFFFFFFFFFFFFFFFFFF AND PUSH4 0x95EA7B3 PUSH32 0x0 DUP4 PUSH1 0x40 MLOAD DUP4 PUSH4 0xFFFFFFFF AND PUSH1 0xE0 SHL DUP2 MSTORE PUSH1 0x4 ADD PUSH2 0x105E SWAP3 SWAP2 SWAP1 PUSH2 0x39CC JUMP JUMPDEST PUSH1 0x20 PUSH1 0x40 MLOAD DUP1 DUP4 SUB DUP2 PUSH1 0x0 DUP8 GAS CALL ISZERO DUP1 ISZERO PUSH2 0x107D JUMPI RETURNDATASIZE PUSH1 0x0 DUP1 RETURNDATACOPY RETURNDATASIZE PUSH1 0x0 REVERT JUMPDEST POP POP POP POP PUSH1 0x40 MLOAD RETURNDATASIZE PUSH1 0x1F NOT PUSH1 0x1F DUP3 ADD AND DUP3 ADD DUP1 PUSH1 0x40 MSTORE POP DUP2 ADD SWAP1 PUSH2 0x10A1 SWAP2 SWAP1 PUSH2 0x3A21 JUMP JUMPDEST PUSH2 0x10E0 JUMPI PUSH1 0x40 MLOAD PUSH32 0x8C379A000000000000000000000000000000000000000000000000000000000 DUP2 MSTORE PUSH1 0x4 ADD PUSH2 0x10D7 SWAP1 PUSH2 0x3B06 JUMP JUMPDEST PUSH1 0x40 MLOAD DUP1 SWAP2 SUB SWAP1 REVERT JUMPDEST PUSH1 0x0 DUP1 PUSH1 0x0 PUSH32 0x0 PUSH20 0xFFFFFFFFFFFFFFFFFFFFFFFFFFFFFFFFFFFFFFFF AND PUSH4 0xE8E33700 PUSH32 0x0 PUSH32 0x0 PUSH1 0x3 SLOAD DUP9 PUSH1 0x3 SLOAD DUP11 ADDRESS PUSH1 0x78 TIMESTAMP PUSH2 0x1179 SWAP2 SWAP1 PUSH2 0x345C JUMP JUMPDEST PUSH1 0x40 MLOAD DUP10 PUSH4 0xFFFFFFFF AND PUSH1 0xE0 SHL DUP2 MSTORE PUSH1 0x4 ADD PUSH2 0x119C SWAP9 SWAP8 SWAP7 SWAP6 SWAP5 SWAP4 SWAP3 SWAP2 SWAP1 PUSH2 0x3B26 JUMP JUMPDEST PUSH1 0x60 PUSH1 0x40 MLOAD DUP1 DUP4 SUB DUP2 PUSH1 0x0 DUP8 GAS CALL ISZERO DUP1 ISZERO PUSH2 0x11BB JUMPI RETURNDATASIZE PUSH1 0x0 DUP1 RETURNDATACOPY RETURNDATASIZE PUSH1 0x0 REVERT JUMPDEST POP POP POP POP PUSH1 0x40 MLOAD RETURNDATASIZE PUSH1 0x1F NOT PUSH1 0x1F DUP3 ADD AND DUP3 ADD DUP1 PUSH1 0x40 MSTORE POP DUP2 ADD SWAP1 PUSH2 0x11DF SWAP2 SWAP1 PUSH2 0x3BA4 JUMP JUMPDEST SWAP3 POP SWAP3 POP SWAP3 POP PUSH1 0x0 DUP6 GT ISZERO PUSH2 0x1345 JUMPI PUSH32 0x0 PUSH20 0xFFFFFFFFFFFFFFFFFFFFFFFFFFFFFFFFFFFFFFFF AND PUSH4 0xA9059CBB PUSH32 0x0 DUP8 PUSH1 0x40 MLOAD DUP4 PUSH4 0xFFFFFFFF AND PUSH1 0xE0 SHL DUP2 MSTORE PUSH1 0x4 ADD PUSH2 0x1269 SWAP3 SWAP2 SWAP1 PUSH2 0x39CC JUMP JUMPDEST PUSH1 0x20 PUSH1 0x40 MLOAD DUP1 DUP4 SUB DUP2 PUSH1 0x0 DUP8 GAS CALL ISZERO DUP1 ISZERO PUSH2 0x1288 JUMPI RETURNDATASIZE PUSH1 0x0 DUP1 RETURNDATACOPY RETURNDATASIZE PUSH1 0x0 REVERT JUMPDEST POP POP POP POP PUSH1 0x40 MLOAD RETURNDATASIZE PUSH1 0x1F NOT PUSH1 0x1F DUP3 ADD AND DUP3 ADD DUP1 PUSH1 0x40 MSTORE POP DUP2 ADD SWAP1 PUSH2 0x12AC SWAP2 SWAP1 PUSH2 0x3A21 JUMP JUMPDEST PUSH2 0x12EB JUMPI PUSH1 0x40 MLOAD PUSH32 0x8C379A000000000000000000000000000000000000000000000000000000000 DUP2 MSTORE PUSH1 0x4 ADD PUSH2 0x12E2 SWAP1 PUSH2 0x3C43 JUMP JUMPDEST PUSH1 0x40 MLOAD DUP1 SWAP2 SUB SWAP1 REVERT JUMPDEST PUSH32 0xEFC7F1F15BECFAEC7A3C17EEC78BE3FA7ADB45698F26FCFD25EFE1754C242331 DUP6 PUSH32 0x0 PUSH1 0x40 MLOAD PUSH2 0x133C SWAP3 SWAP2 SWAP1 PUSH2 0x3C63 JUMP JUMPDEST PUSH1 0x40 MLOAD DUP1 SWAP2 SUB SWAP1 LOG1 JUMPDEST PUSH1 0x1 PUSH1 0x2 PUSH1 0x0 PUSH2 0x100 EXP DUP2 SLOAD DUP2 PUSH1 0xFF MUL NOT AND SWAP1 DUP4 ISZERO ISZERO MUL OR SWAP1 SSTORE POP PUSH32 0x4DB0962B68E799B508143F50800F1504D656CBD0FE6395510C0DCA385BFD8407 PUSH32 0x0 PUSH20 0xFFFFFFFFFFFFFFFFFFFFFFFFFFFFFFFFFFFFFFFF AND PUSH4 0xE6A43905 PUSH32 0x0 PUSH32 0x0 PUSH1 0x40 MLOAD DUP4 PUSH4 0xFFFFFFFF AND PUSH1 0xE0 SHL DUP2 MSTORE PUSH1 0x4 ADD PUSH2 0x141C SWAP3 SWAP2 SWAP1 PUSH2 0x3C8C JUMP JUMPDEST PUSH1 0x20 PUSH1 0x40 MLOAD DUP1 DUP4 SUB DUP2 DUP7 GAS STATICCALL ISZERO DUP1 ISZERO PUSH2 0x1439 JUMPI RETURNDATASIZE PUSH1 0x0 DUP1 RETURNDATACOPY RETURNDATASIZE PUSH1 0x0 REVERT JUMPDEST POP POP POP POP PUSH1 0x40 MLOAD RETURNDATASIZE PUSH1 0x1F NOT PUSH1 0x1F DUP3 ADD AND DUP3 ADD DUP1 PUSH1 0x40 MSTORE POP DUP2 ADD SWAP1 PUSH2 0x145D SWAP2 SWAP1 PUSH2 0x3CCA JUMP JUMPDEST DUP3 PUSH1 0x40 MLOAD PUSH2 0x146C SWAP3 SWAP2 SWAP1 PUSH2 0x39CC JUMP JUMPDEST PUSH1 0x40 MLOAD DUP1 SWAP2 SUB SWAP1 LOG1 POP POP POP POP POP JUMP JUMPDEST PUSH1 0x0 PUSH2 0x1485 PUSH2 0x1975 JUMP JUMPDEST PUSH32 0x0 PUSH20 0xFFFFFFFFFFFFFFFFFFFFFFFFFFFFFFFFFFFFFFFF AND PUSH4 0x70A08231 ADDRESS PUSH1 0x40 MLOAD DUP3 PUSH4 0xFFFFFFFF AND PUSH1 0xE0 SHL DUP2 MSTORE PUSH1 0x4 ADD PUSH2 0x14DE SWAP2 SWAP1 PUSH2 0x3162 JUMP JUMPDEST PUSH1 0x20 PUSH1 0x40 MLOAD DUP1 DUP4 SUB DUP2 DUP7 GAS STATICCALL ISZERO DUP1 ISZERO PUSH2 0x14FB JUMPI RETURNDATASIZE PUSH1 0x0 DUP1 RETURNDATACOPY RETURNDATASIZE PUSH1 0x0 REVERT JUMPDEST POP POP POP POP PUSH1 0x40 MLOAD RETURNDATASIZE PUSH1 0x1F NOT PUSH1 0x1F DUP3 ADD AND DUP3 ADD DUP1 PUSH1 0x40 MSTORE POP DUP2 ADD SWAP1 PUSH2 0x151F SWAP2 SWAP1 PUSH2 0x34A5 JUMP JUMPDEST LT ISZERO SWAP1 POP SWAP1 JUMP JUMPDEST PUSH32 0x0 DUP2 JUMP JUMPDEST PUSH1 0x2 PUSH1 0x0 SWAP1 SLOAD SWAP1 PUSH2 0x100 EXP SWAP1 DIV PUSH1 0xFF AND DUP2 JUMP JUMPDEST PUSH2 0x1565 PUSH2 0x2FB0 JUMP JUMPDEST PUSH1 0x2 PUSH1 0x0 SWAP1 SLOAD SWAP1 PUSH2 0x100 EXP SWAP1 DIV PUSH1 0xFF AND ISZERO PUSH2 0x15B5 JUMPI PUSH1 0x40 MLOAD PUSH32 0x8C379A000000000000000000000000000000000000000000000000000000000 DUP2 MSTORE PUSH1 0x4 ADD PUSH2 0x15AC SWAP1 PUSH2 0x3D43 JUMP JUMPDEST PUSH1 0x40 MLOAD DUP1 SWAP2 SUB SWAP1 REVERT JUMPDEST PUSH1 0x2 PUSH1 0x1 SWAP1 SLOAD SWAP1 PUSH2 0x100 EXP SWAP1 DIV PUSH1 0xFF AND ISZERO PUSH2 0x1605 JUMPI PUSH1 0x40 MLOAD PUSH32 0x8C379A000000000000000000000000000000000000000000000000000000000 DUP2 MSTORE PUSH1 0x4 ADD PUSH2 0x15FC SWAP1 PUSH2 0x3DAF JUMP JUMPDEST PUSH1 0x40 MLOAD DUP1 SWAP2 SUB SWAP1 REVERT JUMPDEST PUSH1 0x0 PUSH1 0x6 PUSH1 0x0 DUP4 DUP2 MSTORE PUSH1 0x20 ADD SWAP1 DUP2 MSTORE PUSH1 0x20 ADD PUSH1 0x0 KECCAK256 SWAP1 POP CALLER PUSH20 0xFFFFFFFFFFFFFFFFFFFFFFFFFFFFFFFFFFFFFFFF AND DUP2 PUSH1 0x3 ADD PUSH1 0x0 SWAP1 SLOAD SWAP1 PUSH2 0x100 EXP SWAP1 DIV PUSH20 0xFFFFFFFFFFFFFFFFFFFFFFFFFFFFFFFFFFFFFFFF AND PUSH20 0xFFFFFFFFFFFFFFFFFFFFFFFFFFFFFFFFFFFFFFFF AND EQ PUSH2 0x16AE JUMPI PUSH1 0x40 MLOAD PUSH32 0x8C379A000000000000000000000000000000000000000000000000000000000 DUP2 MSTORE PUSH1 0x4 ADD PUSH2 0x16A5 SWAP1 PUSH2 0x3E1B JUMP JUMPDEST PUSH1 0x40 MLOAD DUP1 SWAP2 SUB SWAP1 REVERT JUMPDEST DUP1 PUSH1 0x3 ADD PUSH1 0x14 SWAP1 SLOAD SWAP1 PUSH2 0x100 EXP SWAP1 DIV PUSH1 0xFF AND ISZERO PUSH2 0x1700 JUMPI PUSH1 0x40 MLOAD PUSH32 0x8C379A000000000000000000000000000000000000000000000000000000000 DUP2 MSTORE PUSH1 0x4 ADD PUSH2 0x16F7 SWAP1 PUSH2 0x3E87 JUMP JUMPDEST PUSH1 0x40 MLOAD DUP1 SWAP2 SUB SWAP1 REVERT JUMPDEST DUP1 PUSH1 0x3 ADD PUSH1 0x15 SWAP1 SLOAD SWAP1 PUSH2 0x100 EXP SWAP1 DIV PUSH1 0xFF AND ISZERO PUSH2 0x1752 JUMPI PUSH1 0x40 MLOAD PUSH32 0x8C379A000000000000000000000000000000000000000000000000000000000 DUP2 MSTORE PUSH1 0x4 ADD PUSH2 0x1749 SWAP1 PUSH2 0x3EF3 JUMP JUMPDEST PUSH1 0x40 MLOAD DUP1 SWAP2 SUB SWAP1 REVERT JUMPDEST PUSH1 0x1 DUP2 PUSH1 0x3 ADD PUSH1 0x14 PUSH2 0x100 EXP DUP2 SLOAD DUP2 PUSH1 0xFF MUL NOT AND SWAP1 DUP4 ISZERO ISZERO MUL OR SWAP1 SSTORE POP DUP1 PUSH1 0x2 ADD SLOAD PUSH1 0x3 PUSH1 0x0 DUP3 DUP3 SLOAD PUSH2 0x1785 SWAP2 SWAP1 PUSH2 0x3574 JUMP JUMPDEST SWAP3 POP POP DUP2 SWAP1 SSTORE POP DUP1 PUSH1 0x1 ADD SLOAD PUSH1 0x4 PUSH1 0x0 DUP3 DUP3 SLOAD PUSH2 0x17A2 SWAP2 SWAP1 PUSH2 0x3574 JUMP JUMPDEST SWAP3 POP POP DUP2 SWAP1 SSTORE POP PUSH32 0x0 PUSH20 0xFFFFFFFFFFFFFFFFFFFFFFFFFFFFFFFFFFFFFFFF AND PUSH4 0xA9059CBB CALLER DUP4 PUSH1 0x1 ADD SLOAD PUSH1 0x40 MLOAD DUP4 PUSH4 0xFFFFFFFF AND PUSH1 0xE0 SHL DUP2 MSTORE PUSH1 0x4 ADD PUSH2 0x1808 SWAP3 SWAP2 SWAP1 PUSH2 0x39CC JUMP JUMPDEST PUSH1 0x20 PUSH1 0x40 MLOAD DUP1 DUP4 SUB DUP2 PUSH1 0x0 DUP8 GAS CALL ISZERO DUP1 ISZERO PUSH2 0x1827 JUMPI RETURNDATASIZE PUSH1 0x0 DUP1 RETURNDATACOPY RETURNDATASIZE PUSH1 0x0 REVERT JUMPDEST POP POP POP POP PUSH1 0x40 MLOAD RETURNDATASIZE PUSH1 0x1F NOT PUSH1 0x1F DUP3 ADD AND DUP3 ADD DUP1 PUSH1 0x40 MSTORE POP DUP2 ADD SWAP1 PUSH2 0x184B SWAP2 SWAP1 PUSH2 0x3A21 JUMP JUMPDEST PUSH2 0x188A JUMPI PUSH1 0x40 MLOAD PUSH32 0x8C379A000000000000000000000000000000000000000000000000000000000 DUP2 MSTORE PUSH1 0x4 ADD PUSH2 0x1881 SWAP1 PUSH2 0x3F5F JUMP JUMPDEST PUSH1 0x40 MLOAD DUP1 SWAP2 SUB SWAP1 REVERT JUMPDEST DUP2 CALLER PUSH20 0xFFFFFFFFFFFFFFFFFFFFFFFFFFFFFFFFFFFFFFFF AND PUSH32 0x2DC8E290002F06FC0085BBCA9DFB8B415CF4D1178950C72FF9EE8F4D8878EE66 DUP4 PUSH1 0x1 ADD SLOAD PUSH1 0x40 MLOAD PUSH2 0x18D5 SWAP2 SWAP1 PUSH2 0x30A9 JUMP JUMPDEST PUSH1 0x40 MLOAD DUP1 SWAP2 SUB SWAP1 LOG3 POP PUSH2 0x18E6 PUSH2 0x2FF6 JUMP JUMPDEST POP JUMP JUMPDEST PUSH32 0x0 DUP2 JUMP JUMPDEST PUSH1 0x2 PUSH1 0x1 SWAP1 SLOAD SWAP1 PUSH2 0x100 EXP SWAP1 DIV PUSH1 0xFF AND DUP2 JUMP JUMPDEST PUSH32 0x0 DUP2 JUMP JUMPDEST PUSH1 0x7 PUSH1 0x20 MSTORE DUP2 PUSH1 0x0 MSTORE PUSH1 0x40 PUSH1 0x0 KECCAK256 DUP2 DUP2 SLOAD DUP2 LT PUSH2 0x1960 JUMPI PUSH1 0x0 DUP1 REVERT JUMPDEST SWAP1 PUSH1 0x0 MSTORE PUSH1 0x20 PUSH1 0x0 KECCAK256 ADD PUSH1 0x0 SWAP2 POP SWAP2 POP POP SLOAD DUP2 JUMP JUMPDEST PUSH1 0x0 DUP1 PUSH32 0x0 PUSH32 0x0 PUSH2 0x2710 PUSH2 0x19C7 SWAP2 SWAP1 PUSH2 0x3574 JUMP JUMPDEST PUSH2 0x19D1 SWAP2 SWAP1 PUSH2 0x3574 JUMP JUMPDEST SWAP1 POP PUSH1 0x0 DUP2 PUSH2 0x2710 PUSH32 0x0 PUSH2 0x1A04 SWAP2 SWAP1 PUSH2 0x34D2 JUMP JUMPDEST PUSH2 0x1A0E SWAP2 SWAP1 PUSH2 0x3543 JUMP JUMPDEST SWAP1 POP PUSH1 0x0 PUSH2 0x1A7D PUSH32 0x0 PUSH32 0x0 PUSH32 0x0 PUSH2 0x2E89 JUMP JUMPDEST SWAP1 POP PUSH1 0x0 PUSH2 0x1AEC PUSH32 0x0 PUSH32 0x0 PUSH32 0x0 PUSH2 0x2E89 JUMP JUMPDEST SWAP1 POP PUSH1 0x0 PUSH1 0x2 DUP3 DUP5 PUSH2 0x1AFE SWAP2 SWAP1 PUSH2 0x345C JUMP JUMPDEST PUSH2 0x1B08 SWAP2 SWAP1 PUSH2 0x3543 JUMP JUMPDEST SWAP1 POP PUSH1 0x0 DUP2 PUSH32 0x0 PUSH1 0xA PUSH2 0x1B3A SWAP2 SWAP1 PUSH2 0x3765 JUMP JUMPDEST DUP7 PUSH2 0x1B45 SWAP2 SWAP1 PUSH2 0x34D2 JUMP JUMPDEST PUSH2 0x1B4F SWAP2 SWAP1 PUSH2 0x3543 JUMP JUMPDEST SWAP1 POP PUSH1 0x0 DUP4 PUSH32 0x0 PUSH1 0xA PUSH2 0x1B81 SWAP2 SWAP1 PUSH2 0x3765 JUMP JUMPDEST PUSH32 0x0 PUSH2 0x1BAC SWAP2 SWAP1 PUSH2 0x34D2 JUMP JUMPDEST PUSH2 0x1BB6 SWAP2 SWAP1 PUSH2 0x3543 JUMP JUMPDEST SWAP1 POP DUP1 DUP3 PUSH2 0x1BC4 SWAP2 SWAP1 PUSH2 0x345C JUMP JUMPDEST SWAP8 POP POP POP POP POP POP POP POP SWAP1 JUMP JUMPDEST PUSH32 0x0 DUP2 JUMP JUMPDEST PUSH1 0x6 PUSH1 0x20 MSTORE DUP1 PUSH1 0x0 MSTORE PUSH1 0x40 PUSH1 0x0 KECCAK256 PUSH1 0x0 SWAP2 POP SWAP1 POP DUP1 PUSH1 0x0 ADD SLOAD SWAP1 DUP1 PUSH1 0x1 ADD SLOAD SWAP1 DUP1 PUSH1 0x2 ADD SLOAD SWAP1 DUP1 PUSH1 0x3 ADD PUSH1 0x0 SWAP1 SLOAD SWAP1 PUSH2 0x100 EXP SWAP1 DIV PUSH20 0xFFFFFFFFFFFFFFFFFFFFFFFFFFFFFFFFFFFFFFFF AND SWAP1 DUP1 PUSH1 0x3 ADD PUSH1 0x14 SWAP1 SLOAD SWAP1 PUSH2 0x100 EXP SWAP1 DIV PUSH1 0xFF AND SWAP1 DUP1 PUSH1 0x3 ADD PUSH1 0x15 SWAP1 SLOAD SWAP1 PUSH2 0x100 EXP SWAP1 DIV PUSH1 0xFF AND SWAP1 DUP1 PUSH1 0x4 ADD SLOAD SWAP1 POP DUP8 JUMP JUMPDEST PUSH1 0x0 PUSH2 0x2710 PUSH32 0x0 PUSH1 0x5 SLOAD PUSH2 0x1CA3 SWAP2 SWAP1 PUSH2 0x34D2 JUMP JUMPDEST PUSH2 0x1CAD SWAP2 SWAP1 PUSH2 0x3543 JUMP JUMPDEST SWAP1 POP SWAP1 JUMP JUMPDEST PUSH32 0x0 DUP2 JUMP JUMPDEST PUSH32 0x0 DUP2 JUMP JUMPDEST PUSH1 0x4 SLOAD DUP2 JUMP JUMPDEST PUSH1 0x0 PUSH3 0xF4240 PUSH32 0x0 PUSH2 0x1D31 SWAP2 SWAP1 PUSH2 0x3543 JUMP JUMPDEST SWAP1 POP SWAP1 JUMP JUMPDEST PUSH32 0x0 DUP2 JUMP JUMPDEST PUSH1 0x1 SLOAD DUP2 JUMP JUMPDEST PUSH32 0x0 DUP2 JUMP JUMPDEST PUSH1 0x60 PUSH1 0x7 PUSH1 0x0 DUP4 PUSH20 0xFFFFFFFFFFFFFFFFFFFFFFFFFFFFFFFFFFFFFFFF AND PUSH20 0xFFFFFFFFFFFFFFFFFFFFFFFFFFFFFFFFFFFFFFFF AND DUP2 MSTORE PUSH1 0x20 ADD SWAP1 DUP2 MSTORE PUSH1 0x20 ADD PUSH1 0x0 KECCAK256 DUP1 SLOAD DUP1 PUSH1 0x20 MUL PUSH1 0x20 ADD PUSH1 0x40 MLOAD SWAP1 DUP2 ADD PUSH1 0x40 MSTORE DUP1 SWAP3 SWAP2 SWAP1 DUP2 DUP2 MSTORE PUSH1 0x20 ADD DUP3 DUP1 SLOAD DUP1 ISZERO PUSH2 0x1E0F JUMPI PUSH1 0x20 MUL DUP3 ADD SWAP2 SWAP1 PUSH1 0x0 MSTORE PUSH1 0x20 PUSH1 0x0 KECCAK256 SWAP1 JUMPDEST DUP2 SLOAD DUP2 MSTORE PUSH1 0x20 ADD SWAP1 PUSH1 0x1 ADD SWAP1 DUP1 DUP4 GT PUSH2 0x1DFB JUMPI JUMPDEST POP POP POP POP POP SWAP1 POP SWAP2 SWAP1 POP JUMP JUMPDEST PUSH1 0x3 SLOAD DUP2 JUMP JUMPDEST PUSH2 0x1E29 PUSH2 0x2FB0 JUMP JUMPDEST PUSH32 0x0 PUSH20 0xFFFFFFFFFFFFFFFFFFFFFFFFFFFFFFFFFFFFFFFF AND CALLER PUSH20 0xFFFFFFFFFFFFFFFFFFFFFFFFFFFFFFFFFFFFFFFF AND EQ PUSH2 0x1EB7 JUMPI PUSH1 0x40 MLOAD PUSH32 0x8C379A000000000000000000000000000000000000000000000000000000000 DUP2 MSTORE PUSH1 0x4 ADD PUSH2 0x1EAE SWAP1 PUSH2 0x3FCB JUMP JUMPDEST PUSH1 0x40 MLOAD DUP1 SWAP2 SUB SWAP1 REVERT JUMPDEST PUSH1 0x2 PUSH1 0x0 SWAP1 SLOAD SWAP1 PUSH2 0x100 EXP SWAP1 DIV PUSH1 0xFF AND PUSH2 0x1F06 JUMPI PUSH1 0x40 MLOAD PUSH32 0x8C379A000000000000000000000000000000000000000000000000000000000 DUP2 MSTORE PUSH1 0x4 ADD PUSH2 0x1EFD SWAP1 PUSH2 0x4037 JUMP JUMPDEST PUSH1 0x40 MLOAD DUP1 SWAP2 SUB SWAP1 REVERT JUMPDEST PUSH32 0x0 PUSH20 0xFFFFFFFFFFFFFFFFFFFFFFFFFFFFFFFFFFFFFFFF AND DUP3 PUSH20 0xFFFFFFFFFFFFFFFFFFFFFFFFFFFFFFFFFFFFFFFF AND SUB PUSH2 0x1F94 JUMPI PUSH1 0x40 MLOAD PUSH32 0x8C379A000000000000000000000000000000000000000000000000000000000 DUP2 MSTORE PUSH1 0x4 ADD PUSH2 0x1F8B SWAP1 PUSH2 0x40A3 JUMP JUMPDEST PUSH1 0x40 MLOAD DUP1 SWAP2 SUB SWAP1 REVERT JUMPDEST PUSH1 0x0 DUP3 SWAP1 POP PUSH1 0x0 DUP2 PUSH20 0xFFFFFFFFFFFFFFFFFFFFFFFFFFFFFFFFFFFFFFFF AND PUSH4 0x70A08231 ADDRESS PUSH1 0x40 MLOAD DUP3 PUSH4 0xFFFFFFFF AND PUSH1 0xE0 SHL DUP2 MSTORE PUSH1 0x4 ADD PUSH2 0x1FD4 SWAP2 SWAP1 PUSH2 0x3162 JUMP JUMPDEST PUSH1 0x20 PUSH1 0x40 MLOAD DUP1 DUP4 SUB DUP2 DUP7 GAS STATICCALL ISZERO DUP1 ISZERO PUSH2 0x1FF1 JUMPI RETURNDATASIZE PUSH1 0x0 DUP1 RETURNDATACOPY RETURNDATASIZE PUSH1 0x0 REVERT JUMPDEST POP POP POP POP PUSH1 0x40 MLOAD RETURNDATASIZE PUSH1 0x1F NOT PUSH1 0x1F DUP3 ADD AND DUP3 ADD DUP1 PUSH1 0x40 MSTORE POP DUP2 ADD SWAP1 PUSH2 0x2015 SWAP2 SWAP1 PUSH2 0x34A5 JUMP JUMPDEST SWAP1 POP DUP3 DUP2 LT ISZERO PUSH2 0x205A JUMPI PUSH1 0x40 MLOAD PUSH32 0x8C379A000000000000000000000000000000000000000000000000000000000 DUP2 MSTORE PUSH1 0x4 ADD PUSH2 0x2051 SWAP1 PUSH2 0x410F JUMP JUMPDEST PUSH1 0x40 MLOAD DUP1 SWAP2 SUB SWAP1 REVERT JUMPDEST DUP2 PUSH20 0xFFFFFFFFFFFFFFFFFFFFFFFFFFFFFFFFFFFFFFFF AND PUSH4 0xA9059CBB PUSH32 0x0 DUP6 PUSH1 0x40 MLOAD DUP4 PUSH4 0xFFFFFFFF AND PUSH1 0xE0 SHL DUP2 MSTORE PUSH1 0x4 ADD PUSH2 0x20B5 SWAP3 SWAP2 SWAP1 PUSH2 0x39CC JUMP JUMPDEST PUSH1 0x20 PUSH1 0x40 MLOAD DUP1 DUP4 SUB DUP2 PUSH1 0x0 DUP8 GAS CALL ISZERO DUP1 ISZERO PUSH2 0x20D4 JUMPI RETURNDATASIZE PUSH1 0x0 DUP1 RETURNDATACOPY RETURNDATASIZE PUSH1 0x0 REVERT JUMPDEST POP POP POP POP PUSH1 0x40 MLOAD RETURNDATASIZE PUSH1 0x1F NOT PUSH1 0x1F DUP3 ADD AND DUP3 ADD DUP1 PUSH1 0x40 MSTORE POP DUP2 ADD SWAP1 PUSH2 0x20F8 SWAP2 SWAP1 PUSH2 0x3A21 JUMP JUMPDEST PUSH2 0x2137 JUMPI PUSH1 0x40 MLOAD PUSH32 0x8C379A000000000000000000000000000000000000000000000000000000000 DUP2 MSTORE PUSH1 0x4 ADD PUSH2 0x212E SWAP1 PUSH2 0x417B JUMP JUMPDEST PUSH1 0x40 MLOAD DUP1 SWAP2 SUB SWAP1 REVERT JUMPDEST POP POP PUSH2 0x2141 PUSH2 0x2FF6 JUMP JUMPDEST POP POP JUMP JUMPDEST PUSH2 0x214D PUSH2 0x2FB0 JUMP JUMPDEST PUSH1 0x2 PUSH1 0x0 SWAP1 SLOAD SWAP1 PUSH2 0x100 EXP SWAP1 DIV PUSH1 0xFF AND ISZERO PUSH2 0x219D JUMPI PUSH1 0x40 MLOAD PUSH32 0x8C379A000000000000000000000000000000000000000000000000000000000 DUP2 MSTORE PUSH1 0x4 ADD PUSH2 0x2194 SWAP1 PUSH2 0x3D43 JUMP JUMPDEST PUSH1 0x40 MLOAD DUP1 SWAP2 SUB SWAP1 REVERT JUMPDEST PUSH1 0x2 PUSH1 0x1 SWAP1 SLOAD SWAP1 PUSH2 0x100 EXP SWAP1 DIV PUSH1 0xFF AND ISZERO PUSH2 0x21ED JUMPI PUSH1 0x40 MLOAD PUSH32 0x8C379A000000000000000000000000000000000000000000000000000000000 DUP2 MSTORE PUSH1 0x4 ADD PUSH2 0x21E4 SWAP1 PUSH2 0x3DAF JUMP JUMPDEST PUSH1 0x40 MLOAD DUP1 SWAP2 SUB SWAP1 REVERT JUMPDEST PUSH2 0x21F5 PUSH2 0x1D00 JUMP JUMPDEST DUP2 LT ISZERO PUSH2 0x2237 JUMPI PUSH1 0x40 MLOAD PUSH32 0x8C379A000000000000000000000000000000000000000000000000000000000 DUP2 MSTORE PUSH1 0x4 ADD PUSH2 0x222E SWAP1 PUSH2 0x41E7 JUMP JUMPDEST PUSH1 0x40 MLOAD DUP1 SWAP2 SUB SWAP1 REVERT JUMPDEST PUSH1 0x0 PUSH2 0x2710 PUSH1 0x64 DUP4 PUSH2 0x2249 SWAP2 SWAP1 PUSH2 0x34D2 JUMP JUMPDEST PUSH2 0x2253 SWAP2 SWAP1 PUSH2 0x3543 JUMP JUMPDEST SWAP1 POP PUSH1 0x0 DUP2 PUSH2 0x2710 PUSH32 0x0 DUP6 PUSH2 0x2287 SWAP2 SWAP1 PUSH2 0x34D2 JUMP JUMPDEST PUSH2 0x2291 SWAP2 SWAP1 PUSH2 0x3543 JUMP JUMPDEST PUSH2 0x229B SWAP2 SWAP1 PUSH2 0x3574 JUMP JUMPDEST SWAP1 POP PUSH1 0x0 PUSH2 0x2710 PUSH32 0x0 DUP6 PUSH2 0x22CE SWAP2 SWAP1 PUSH2 0x34D2 JUMP JUMPDEST PUSH2 0x22D8 SWAP2 SWAP1 PUSH2 0x3543 JUMP JUMPDEST SWAP1 POP PUSH1 0x0 DUP2 DUP4 DUP6 DUP8 PUSH2 0x22EA SWAP2 SWAP1 PUSH2 0x3574 JUMP JUMPDEST PUSH2 0x22F4 SWAP2 SWAP1 PUSH2 0x3574 JUMP JUMPDEST PUSH2 0x22FE SWAP2 SWAP1 PUSH2 0x3574 JUMP JUMPDEST SWAP1 POP PUSH32 0x0 DUP2 PUSH1 0x4 SLOAD PUSH2 0x232F SWAP2 SWAP1 PUSH2 0x345C JUMP JUMPDEST GT ISZERO PUSH2 0x2370 JUMPI PUSH1 0x40 MLOAD PUSH32 0x8C379A000000000000000000000000000000000000000000000000000000000 DUP2 MSTORE PUSH1 0x4 ADD PUSH2 0x2367 SWAP1 PUSH2 0x3605 JUMP JUMPDEST PUSH1 0x40 MLOAD DUP1 SWAP2 SUB SWAP1 REVERT JUMPDEST PUSH1 0x0 PUSH2 0x237B DUP7 PUSH2 0x8D5 JUMP JUMPDEST SWAP1 POP PUSH32 0x0 PUSH20 0xFFFFFFFFFFFFFFFFFFFFFFFFFFFFFFFFFFFFFFFF AND PUSH4 0x23B872DD CALLER ADDRESS DUP10 PUSH1 0x40 MLOAD DUP5 PUSH4 0xFFFFFFFF AND PUSH1 0xE0 SHL DUP2 MSTORE PUSH1 0x4 ADD PUSH2 0x23DA SWAP4 SWAP3 SWAP2 SWAP1 PUSH2 0x4207 JUMP JUMPDEST PUSH1 0x20 PUSH1 0x40 MLOAD DUP1 DUP4 SUB DUP2 PUSH1 0x0 DUP8 GAS CALL ISZERO DUP1 ISZERO PUSH2 0x23F9 JUMPI RETURNDATASIZE PUSH1 0x0 DUP1 RETURNDATACOPY RETURNDATASIZE PUSH1 0x0 REVERT JUMPDEST POP POP POP POP PUSH1 0x40 MLOAD RETURNDATASIZE PUSH1 0x1F NOT PUSH1 0x1F DUP3 ADD AND DUP3 ADD DUP1 PUSH1 0x40 MSTORE POP DUP2 ADD SWAP1 PUSH2 0x241D SWAP2 SWAP1 PUSH2 0x3A21 JUMP JUMPDEST PUSH2 0x245C JUMPI PUSH1 0x40 MLOAD PUSH32 0x8C379A000000000000000000000000000000000000000000000000000000000 DUP2 MSTORE PUSH1 0x4 ADD PUSH2 0x2453 SWAP1 PUSH2 0x428A JUMP JUMPDEST PUSH1 0x40 MLOAD DUP1 SWAP2 SUB SWAP1 REVERT JUMPDEST CALLER PUSH20 0xFFFFFFFFFFFFFFFFFFFFFFFFFFFFFFFFFFFFFFFF AND PUSH32 0xBEFB6E85B11F40EE4D9E3E8BB0BEDBC3D1EEE123B1328C0EA0A4B842CBFFF749 DUP8 DUP8 DUP8 DUP8 DUP8 PUSH1 0x40 MLOAD PUSH2 0x24AA SWAP6 SWAP5 SWAP4 SWAP3 SWAP2 SWAP1 PUSH2 0x42AA JUMP JUMPDEST PUSH1 0x40 MLOAD DUP1 SWAP2 SUB SWAP1 LOG2 PUSH32 0x0 PUSH20 0xFFFFFFFFFFFFFFFFFFFFFFFFFFFFFFFFFFFFFFFF AND PUSH4 0xA9059CBB PUSH20 0x6C83E86E05697C995D718C1CFA3F9045A38C7CD4 DUP8 PUSH1 0x40 MLOAD DUP4 PUSH4 0xFFFFFFFF AND PUSH1 0xE0 SHL DUP2 MSTORE PUSH1 0x4 ADD PUSH2 0x2521 SWAP3 SWAP2 SWAP1 PUSH2 0x39CC JUMP JUMPDEST PUSH1 0x20 PUSH1 0x40 MLOAD DUP1 DUP4 SUB DUP2 PUSH1 0x0 DUP8 GAS CALL ISZERO DUP1 ISZERO PUSH2 0x2540 JUMPI RETURNDATASIZE PUSH1 0x0 DUP1 RETURNDATACOPY RETURNDATASIZE PUSH1 0x0 REVERT JUMPDEST POP POP POP POP PUSH1 0x40 MLOAD RETURNDATASIZE PUSH1 0x1F NOT PUSH1 0x1F DUP3 ADD AND DUP3 ADD DUP1 PUSH1 0x40 MSTORE POP DUP2 ADD SWAP1 PUSH2 0x2564 SWAP2 SWAP1 PUSH2 0x3A21 JUMP JUMPDEST PUSH2 0x25A3 JUMPI PUSH1 0x40 MLOAD PUSH32 0x8C379A000000000000000000000000000000000000000000000000000000000 DUP2 MSTORE PUSH1 0x4 ADD PUSH2 0x259A SWAP1 PUSH2 0x4349 JUMP JUMPDEST PUSH1 0x40 MLOAD DUP1 SWAP2 SUB SWAP1 REVERT JUMPDEST PUSH32 0x0 PUSH20 0xFFFFFFFFFFFFFFFFFFFFFFFFFFFFFFFFFFFFFFFF AND PUSH4 0xA9059CBB PUSH32 0x0 DUP7 PUSH1 0x40 MLOAD DUP4 PUSH4 0xFFFFFFFF AND PUSH1 0xE0 SHL DUP2 MSTORE PUSH1 0x4 ADD PUSH2 0x261E SWAP3 SWAP2 SWAP1 PUSH2 0x39CC JUMP JUMPDEST PUSH1 0x20 PUSH1 0x40 MLOAD DUP1 DUP4 SUB DUP2 PUSH1 0x0 DUP8 GAS CALL ISZERO DUP1 ISZERO PUSH2 0x263D JUMPI RETURNDATASIZE PUSH1 0x0 DUP1 RETURNDATACOPY RETURNDATASIZE PUSH1 0x0 REVERT JUMPDEST POP POP POP POP PUSH1 0x40 MLOAD RETURNDATASIZE PUSH1 0x1F NOT PUSH1 0x1F DUP3 ADD AND DUP3 ADD DUP1 PUSH1 0x40 MSTORE POP DUP2 ADD SWAP1 PUSH2 0x2661 SWAP2 SWAP1 PUSH2 0x3A21 JUMP JUMPDEST PUSH2 0x26A0 JUMPI PUSH1 0x40 MLOAD PUSH32 0x8C379A000000000000000000000000000000000000000000000000000000000 DUP2 MSTORE PUSH1 0x4 ADD PUSH2 0x2697 SWAP1 PUSH2 0x43B5 JUMP JUMPDEST PUSH1 0x40 MLOAD DUP1 SWAP2 SUB SWAP1 REVERT JUMPDEST PUSH1 0x0 PUSH1 0x1 SLOAD SWAP1 POP PUSH1 0x1 PUSH1 0x0 DUP2 SLOAD DUP1 SWAP3 SWAP2 SWAP1 PUSH2 0x26BA SWAP1 PUSH2 0x43D5 JUMP JUMPDEST SWAP2 SWAP1 POP SSTORE POP PUSH1 0x40 MLOAD DUP1 PUSH1 0xE0 ADD PUSH1 0x40 MSTORE DUP1 DUP9 DUP2 MSTORE PUSH1 0x20 ADD DUP5 DUP2 MSTORE PUSH1 0x20 ADD DUP4 DUP2 MSTORE PUSH1 0x20 ADD CALLER PUSH20 0xFFFFFFFFFFFFFFFFFFFFFFFFFFFFFFFFFFFFFFFF AND DUP2 MSTORE PUSH1 0x20 ADD PUSH1 0x0 ISZERO ISZERO DUP2 MSTORE PUSH1 0x20 ADD PUSH1 0x0 ISZERO ISZERO DUP2 MSTORE PUSH1 0x20 ADD NUMBER DUP2 MSTORE POP PUSH1 0x6 PUSH1 0x0 DUP4 DUP2 MSTORE PUSH1 0x20 ADD SWAP1 DUP2 MSTORE PUSH1 0x20 ADD PUSH1 0x0 KECCAK256 PUSH1 0x0 DUP3 ADD MLOAD DUP2 PUSH1 0x0 ADD SSTORE PUSH1 0x20 DUP3 ADD MLOAD DUP2 PUSH1 0x1 ADD SSTORE PUSH1 0x40 DUP3 ADD MLOAD DUP2 PUSH1 0x2 ADD SSTORE PUSH1 0x60 DUP3 ADD MLOAD DUP2 PUSH1 0x3 ADD PUSH1 0x0 PUSH2 0x100 EXP DUP2 SLOAD DUP2 PUSH20 0xFFFFFFFFFFFFFFFFFFFFFFFFFFFFFFFFFFFFFFFF MUL NOT AND SWAP1 DUP4 PUSH20 0xFFFFFFFFFFFFFFFFFFFFFFFFFFFFFFFFFFFFFFFF AND MUL OR SWAP1 SSTORE POP PUSH1 0x80 DUP3 ADD MLOAD DUP2 PUSH1 0x3 ADD PUSH1 0x14 PUSH2 0x100 EXP DUP2 SLOAD DUP2 PUSH1 0xFF MUL NOT AND SWAP1 DUP4 ISZERO ISZERO MUL OR SWAP1 SSTORE POP PUSH1 0xA0 DUP3 ADD MLOAD DUP2 PUSH1 0x3 ADD PUSH1 0x15 PUSH2 0x100 EXP DUP2 SLOAD DUP2 PUSH1 0xFF MUL NOT AND SWAP1 DUP4 ISZERO ISZERO MUL OR SWAP1 SSTORE POP PUSH1 0xC0 DUP3 ADD MLOAD DUP2 PUSH1 0x4 ADD SSTORE SWAP1 POP POP PUSH1 0x7 PUSH1 0x0 CALLER PUSH20 0xFFFFFFFFFFFFFFFFFFFFFFFFFFFFFFFFFFFFFFFF AND PUSH20 0xFFFFFFFFFFFFFFFFFFFFFFFFFFFFFFFFFFFFFFFF AND DUP2 MSTORE PUSH1 0x20 ADD SWAP1 DUP2 MSTORE PUSH1 0x20 ADD PUSH1 0x0 KECCAK256 DUP2 SWAP1 DUP1 PUSH1 0x1 DUP2 SLOAD ADD DUP1 DUP3 SSTORE DUP1 SWAP2 POP POP PUSH1 0x1 SWAP1 SUB SWAP1 PUSH1 0x0 MSTORE PUSH1 0x20 PUSH1 0x0 KECCAK256 ADD PUSH1 0x0 SWAP1 SWAP2 SWAP1 SWAP2 SWAP1 SWAP2 POP SSTORE DUP2 PUSH1 0x3 PUSH1 0x0 DUP3 DUP3 SLOAD PUSH2 0x284B SWAP2 SWAP1 PUSH2 0x345C JUMP JUMPDEST SWAP3 POP POP DUP2 SWAP1 SSTORE POP DUP3 PUSH1 0x4 PUSH1 0x0 DUP3 DUP3 SLOAD PUSH2 0x2864 SWAP2 SWAP1 PUSH2 0x345C JUMP JUMPDEST SWAP3 POP POP DUP2 SWAP1 SSTORE POP DUP7 PUSH1 0x5 PUSH1 0x0 DUP3 DUP3 SLOAD PUSH2 0x287D SWAP2 SWAP1 PUSH2 0x345C JUMP JUMPDEST SWAP3 POP POP DUP2 SWAP1 SSTORE POP DUP1 CALLER PUSH20 0xFFFFFFFFFFFFFFFFFFFFFFFFFFFFFFFFFFFFFFFF AND PUSH32 0x34987D73948B60CFBA9BEEB35760C345A3BE430F3540605113911EAD78A0830E DUP10 DUP7 DUP7 PUSH1 0x40 MLOAD PUSH2 0x28CF SWAP4 SWAP3 SWAP2 SWAP1 PUSH2 0x441D JUMP JUMPDEST PUSH1 0x40 MLOAD DUP1 SWAP2 SUB SWAP1 LOG3 PUSH32 0x0 PUSH1 0x4 SLOAD LT PUSH2 0x291C JUMPI PUSH1 0x1 PUSH1 0x2 PUSH1 0x1 PUSH2 0x100 EXP DUP2 SLOAD DUP2 PUSH1 0xFF MUL NOT AND SWAP1 DUP4 ISZERO ISZERO MUL OR SWAP1 SSTORE POP JUMPDEST POP POP POP POP POP POP PUSH2 0x292A PUSH2 0x2FF6 JUMP JUMPDEST POP JUMP JUMPDEST PUSH2 0x2935 PUSH2 0x2FB0 JUMP JUMPDEST PUSH1 0x2 PUSH1 0x1 SWAP1 SLOAD SWAP1 PUSH2 0x100 EXP SWAP1 DIV PUSH1 0xFF AND PUSH2 0x2984 JUMPI PUSH1 0x40 MLOAD PUSH32 0x8C379A000000000000000000000000000000000000000000000000000000000 DUP2 MSTORE PUSH1 0x4 ADD PUSH2 0x297B SWAP1 PUSH2 0x44A0 JUMP JUMPDEST PUSH1 0x40 MLOAD DUP1 SWAP2 SUB SWAP1 REVERT JUMPDEST PUSH1 0x0 PUSH1 0x6 PUSH1 0x0 DUP4 DUP2 MSTORE PUSH1 0x20 ADD SWAP1 DUP2 MSTORE PUSH1 0x20 ADD PUSH1 0x0 KECCAK256 SWAP1 POP CALLER PUSH20 0xFFFFFFFFFFFFFFFFFFFFFFFFFFFFFFFFFFFFFFFF AND DUP2 PUSH1 0x3 ADD PUSH1 0x0 SWAP1 SLOAD SWAP1 PUSH2 0x100 EXP SWAP1 DIV PUSH20 0xFFFFFFFFFFFFFFFFFFFFFFFFFFFFFFFFFFFFFFFF AND PUSH20 0xFFFFFFFFFFFFFFFFFFFFFFFFFFFFFFFFFFFFFFFF AND EQ PUSH2 0x2A2D JUMPI PUSH1 0x40 MLOAD PUSH32 0x8C379A000000000000000000000000000000000000000000000000000000000 DUP2 MSTORE PUSH1 0x4 ADD PUSH2 0x2A24 SWAP1 PUSH2 0x3E1B JUMP JUMPDEST PUSH1 0x40 MLOAD DUP1 SWAP2 SUB SWAP1 REVERT JUMPDEST DUP1 PUSH1 0x3 ADD PUSH1 0x14 SWAP1 SLOAD SWAP1 PUSH2 0x100 EXP SWAP1 DIV PUSH1 0xFF AND ISZERO PUSH2 0x2A7F JUMPI PUSH1 0x40 MLOAD PUSH32 0x8C379A000000000000000000000000000000000000000000000000000000000 DUP2 MSTORE PUSH1 0x4 ADD PUSH2 0x2A76 SWAP1 PUSH2 0x450C JUMP JUMPDEST PUSH1 0x40 MLOAD DUP1 SWAP2 SUB SWAP1 REVERT JUMPDEST DUP1 PUSH1 0x3 ADD PUSH1 0x15 SWAP1 SLOAD SWAP1 PUSH2 0x100 EXP SWAP1 DIV PUSH1 0xFF AND ISZERO PUSH2 0x2AD1 JUMPI PUSH1 0x40 MLOAD PUSH32 0x8C379A000000000000000000000000000000000000000000000000000000000 DUP2 MSTORE PUSH1 0x4 ADD PUSH2 0x2AC8 SWAP1 PUSH2 0x3EF3 JUMP JUMPDEST PUSH1 0x40 MLOAD DUP1 SWAP2 SUB SWAP1 REVERT JUMPDEST PUSH1 0x0 DUP2 PUSH1 0x2 ADD SLOAD GT PUSH2 0x2B18 JUMPI PUSH1 0x40 MLOAD PUSH32 0x8C379A000000000000000000000000000000000000000000000000000000000 DUP2 MSTORE PUSH1 0x4 ADD PUSH2 0x2B0F SWAP1 PUSH2 0x4578 JUMP JUMPDEST PUSH1 0x40 MLOAD DUP1 SWAP2 SUB SWAP1 REVERT JUMPDEST PUSH1 0x1 DUP2 PUSH1 0x3 ADD PUSH1 0x15 PUSH2 0x100 EXP DUP2 SLOAD DUP2 PUSH1 0xFF MUL NOT AND SWAP1 DUP4 ISZERO ISZERO MUL OR SWAP1 SSTORE POP PUSH32 0x0 PUSH20 0xFFFFFFFFFFFFFFFFFFFFFFFFFFFFFFFFFFFFFFFF AND PUSH4 0xA9059CBB CALLER DUP4 PUSH1 0x2 ADD SLOAD PUSH1 0x40 MLOAD DUP4 PUSH4 0xFFFFFFFF AND PUSH1 0xE0 SHL DUP2 MSTORE PUSH1 0x4 ADD PUSH2 0x2B94 SWAP3 SWAP2 SWAP1 PUSH2 0x39CC JUMP JUMPDEST PUSH1 0x20 PUSH1 0x40 MLOAD DUP1 DUP4 SUB DUP2 PUSH1 0x0 DUP8 GAS CALL ISZERO DUP1 ISZERO PUSH2 0x2BB3 JUMPI RETURNDATASIZE PUSH1 0x0 DUP1 RETURNDATACOPY RETURNDATASIZE PUSH1 0x0 REVERT JUMPDEST POP POP POP POP PUSH1 0x40 MLOAD RETURNDATASIZE PUSH1 0x1F NOT PUSH1 0x1F DUP3 ADD AND DUP3 ADD DUP1 PUSH1 0x40 MSTORE POP DUP2 ADD SWAP1 PUSH2 0x2BD7 SWAP2 SWAP1 PUSH2 0x3A21 JUMP JUMPDEST PUSH2 0x2C16 JUMPI PUSH1 0x40 MLOAD PUSH32 0x8C379A000000000000000000000000000000000000000000000000000000000 DUP2 MSTORE PUSH1 0x4 ADD PUSH2 0x2C0D SWAP1 PUSH2 0x45E4 JUMP JUMPDEST PUSH1 0x40 MLOAD DUP1 SWAP2 SUB SWAP1 REVERT JUMPDEST DUP2 CALLER PUSH20 0xFFFFFFFFFFFFFFFFFFFFFFFFFFFFFFFFFFFFFFFF AND PUSH32 0xD171FB179B26C49E23FE46EDDD44D3048A1AD277B62144AC0725FBCF1DBF6D52 DUP4 PUSH1 0x2 ADD SLOAD PUSH1 0x40 MLOAD PUSH2 0x2C61 SWAP2 SWAP1 PUSH2 0x30A9 JUMP JUMPDEST PUSH1 0x40 MLOAD DUP1 SWAP2 SUB SWAP1 LOG3 POP PUSH2 0x2C72 PUSH2 0x2FF6 JUMP JUMPDEST POP JUMP JUMPDEST PUSH1 0x5 SLOAD DUP2 JUMP JUMPDEST PUSH32 0x0 DUP2 JUMP JUMPDEST PUSH1 0x0 PUSH32 0x0 PUSH1 0x4 SLOAD LT PUSH2 0x2CF2 JUMPI PUSH32 0x0 SWAP1 POP PUSH2 0x2DA4 JUMP JUMPDEST PUSH32 0x0 PUSH1 0x4 SLOAD PUSH32 0x0 PUSH32 0x0 PUSH2 0x2D62 SWAP2 SWAP1 PUSH2 0x3574 JUMP JUMPDEST PUSH2 0x2D6C SWAP2 SWAP1 PUSH2 0x34D2 JUMP JUMPDEST PUSH2 0x2D76 SWAP2 SWAP1 PUSH2 0x3543 JUMP JUMPDEST PUSH32 0x0 PUSH2 0x2DA1 SWAP2 SWAP1 PUSH2 0x345C JUMP JUMPDEST SWAP1 POP JUMPDEST SWAP1 JUMP JUMPDEST PUSH20 0x6C83E86E05697C995D718C1CFA3F9045A38C7CD4 DUP2 JUMP JUMPDEST PUSH1 0x64 DUP2 JUMP JUMPDEST PUSH32 0x0 DUP2 JUMP JUMPDEST PUSH1 0x0 PUSH32 0x0 PUSH20 0xFFFFFFFFFFFFFFFFFFFFFFFFFFFFFFFFFFFFFFFF AND PUSH4 0x70A08231 ADDRESS PUSH1 0x40 MLOAD DUP3 PUSH4 0xFFFFFFFF AND PUSH1 0xE0 SHL DUP2 MSTORE PUSH1 0x4 ADD PUSH2 0x2E43 SWAP2 SWAP1 PUSH2 0x3162 JUMP JUMPDEST PUSH1 0x20 PUSH1 0x40 MLOAD DUP1 DUP4 SUB DUP2 DUP7 GAS STATICCALL ISZERO DUP1 ISZERO PUSH2 0x2E60 JUMPI RETURNDATASIZE PUSH1 0x0 DUP1 RETURNDATACOPY RETURNDATASIZE PUSH1 0x0 REVERT JUMPDEST POP POP POP POP PUSH1 0x40 MLOAD RETURNDATASIZE PUSH1 0x1F NOT PUSH1 0x1F DUP3 ADD AND DUP3 ADD DUP1 PUSH1 0x40 MSTORE POP DUP2 ADD SWAP1 PUSH2 0x2E84 SWAP2 SWAP1 PUSH2 0x34A5 JUMP JUMPDEST SWAP1 POP SWAP1 JUMP JUMPDEST PUSH1 0x0 DUP2 PUSH1 0xFF AND DUP4 PUSH1 0xFF AND SUB PUSH2 0x2EA0 JUMPI DUP4 SWAP1 POP PUSH2 0x2EFE JUMP JUMPDEST DUP2 PUSH1 0xFF AND DUP4 PUSH1 0xFF AND LT ISZERO PUSH2 0x2ED8 JUMPI DUP3 DUP3 PUSH2 0x2EBA SWAP2 SWAP1 PUSH2 0x4604 JUMP JUMPDEST PUSH1 0xA PUSH2 0x2EC6 SWAP2 SWAP1 PUSH2 0x3765 JUMP JUMPDEST DUP5 PUSH2 0x2ED1 SWAP2 SWAP1 PUSH2 0x34D2 JUMP JUMPDEST SWAP1 POP PUSH2 0x2EFE JUMP JUMPDEST DUP2 DUP4 PUSH2 0x2EE4 SWAP2 SWAP1 PUSH2 0x4604 JUMP JUMPDEST PUSH1 0xA PUSH2 0x2EF0 SWAP2 SWAP1 PUSH2 0x3765 JUMP JUMPDEST DUP5 PUSH2 0x2EFB SWAP2 SWAP1 PUSH2 0x3543 JUMP JUMPDEST SWAP1 POP JUMPDEST SWAP4 SWAP3 POP POP POP JUMP JUMPDEST PUSH1 0x0 PUSH2 0x2F0F PUSH2 0x1975 JUMP JUMPDEST PUSH32 0x0 PUSH20 0xFFFFFFFFFFFFFFFFFFFFFFFFFFFFFFFFFFFFFFFF AND PUSH4 0x70A08231 ADDRESS PUSH1 0x40 MLOAD DUP3 PUSH4 0xFFFFFFFF AND PUSH1 0xE0 SHL DUP2 MSTORE PUSH1 0x4 ADD PUSH2 0x2F68 SWAP2 SWAP1 PUSH2 0x3162 JUMP JUMPDEST PUSH1 0x20 PUSH1 0x40 MLOAD DUP1 DUP4 SUB DUP2 DUP7 GAS STATICCALL ISZERO DUP1 ISZERO PUSH2 0x2F85 JUMPI RETURNDATASIZE PUSH1 0x0 DUP1 RETURNDATACOPY RETURNDATASIZE PUSH1 0x0 REVERT JUMPDEST POP POP POP POP PUSH1 0x40 MLOAD RETURNDATASIZE PUSH1 0x1F NOT PUSH1 0x1F DUP3 ADD AND DUP3 ADD DUP1 PUSH1 0x40 MSTORE POP DUP2 ADD SWAP1 PUSH2 0x2FA9 SWAP2 SWAP1 PUSH2 0x34A5 JUMP JUMPDEST LT ISZERO SWAP1 POP SWAP1 JUMP JUMPDEST PUSH1 0x2 PUSH1 0x0 SLOAD SUB PUSH2 0x2FEC JUMPI PUSH1 0x40 MLOAD PUSH32 0x3EE5AEB500000000000000000000000000000000000000000000000000000000 DUP2 MSTORE PUSH1 0x4 ADD PUSH1 0x40 MLOAD DUP1 SWAP2 SUB SWAP1 REVERT JUMPDEST PUSH1 0x2 PUSH1 0x0 DUP2 SWAP1 SSTORE POP JUMP JUMPDEST PUSH1 0x1 PUSH1 0x0 DUP2 SWAP1 SSTORE POP JUMP JUMPDEST PUSH1 0x0 DUP1 REVERT JUMPDEST PUSH1 0x0 PUSH20 0xFFFFFFFFFFFFFFFFFFFFFFFFFFFFFFFFFFFFFFFF DUP3 AND SWAP1 POP SWAP2 SWAP1 POP JUMP JUMPDEST PUSH1 0x0 PUSH2 0x3030 DUP3 PUSH2 0x3005 JUMP JUMPDEST SWAP1 POP SWAP2 SWAP1 POP JUMP JUMPDEST PUSH2 0x3040 DUP2 PUSH2 0x3025 JUMP JUMPDEST DUP2 EQ PUSH2 0x304B JUMPI PUSH1 0x0 DUP1 REVERT JUMPDEST POP JUMP JUMPDEST PUSH1 0x0 DUP2 CALLDATALOAD SWAP1 POP PUSH2 0x305D DUP2 PUSH2 0x3037 JUMP JUMPDEST SWAP3 SWAP2 POP POP JUMP JUMPDEST PUSH1 0x0 PUSH1 0x20 DUP3 DUP5 SUB SLT ISZERO PUSH2 0x3079 JUMPI PUSH2 0x3078 PUSH2 0x3000 JUMP JUMPDEST JUMPDEST PUSH1 0x0 PUSH2 0x3087 DUP5 DUP3 DUP6 ADD PUSH2 0x304E JUMP JUMPDEST SWAP2 POP POP SWAP3 SWAP2 POP POP JUMP JUMPDEST PUSH1 0x0 DUP2 SWAP1 POP SWAP2 SWAP1 POP JUMP JUMPDEST PUSH2 0x30A3 DUP2 PUSH2 0x3090 JUMP JUMPDEST DUP3 MSTORE POP POP JUMP JUMPDEST PUSH1 0x0 PUSH1 0x20 DUP3 ADD SWAP1 POP PUSH2 0x30BE PUSH1 0x0 DUP4 ADD DUP5 PUSH2 0x309A JUMP JUMPDEST SWAP3 SWAP2 POP POP JUMP JUMPDEST PUSH2 0x30CD DUP2 PUSH2 0x3090 JUMP JUMPDEST DUP2 EQ PUSH2 0x30D8 JUMPI PUSH1 0x0 DUP1 REVERT JUMPDEST POP JUMP JUMPDEST PUSH1 0x0 DUP2 CALLDATALOAD SWAP1 POP PUSH2 0x30EA DUP2 PUSH2 0x30C4 JUMP JUMPDEST SWAP3 SWAP2 POP POP JUMP JUMPDEST PUSH1 0x0 PUSH1 0x20 DUP3 DUP5 SUB SLT ISZERO PUSH2 0x3106 JUMPI PUSH2 0x3105 PUSH2 0x3000 JUMP JUMPDEST JUMPDEST PUSH1 0x0 PUSH2 0x3114 DUP5 DUP3 DUP6 ADD PUSH2 0x30DB JUMP JUMPDEST SWAP2 POP POP SWAP3 SWAP2 POP POP JUMP JUMPDEST PUSH1 0x0 DUP2 ISZERO ISZERO SWAP1 POP SWAP2 SWAP1 POP JUMP JUMPDEST PUSH2 0x3132 DUP2 PUSH2 0x311D JUMP JUMPDEST DUP3 MSTORE POP POP JUMP JUMPDEST PUSH1 0x0 PUSH1 0x20 DUP3 ADD SWAP1 POP PUSH2 0x314D PUSH1 0x0 DUP4 ADD DUP5 PUSH2 0x3129 JUMP JUMPDEST SWAP3 SWAP2 POP POP JUMP JUMPDEST PUSH2 0x315C DUP2 PUSH2 0x3025 JUMP JUMPDEST DUP3 MSTORE POP POP JUMP JUMPDEST PUSH1 0x0 PUSH1 0x20 DUP3 ADD SWAP1 POP PUSH2 0x3177 PUSH1 0x0 DUP4 ADD DUP5 PUSH2 0x3153 JUMP JUMPDEST SWAP3 SWAP2 POP POP JUMP JUMPDEST PUSH1 0x0 DUP2 SWAP1 POP SWAP2 SWAP1 POP JUMP JUMPDEST PUSH1 0x0 PUSH2 0x31A2 PUSH2 0x319D PUSH2 0x3198 DUP5 PUSH2 0x3005 JUMP JUMPDEST PUSH2 0x317D JUMP JUMPDEST PUSH2 0x3005 JUMP JUMPDEST SWAP1 POP SWAP2 SWAP1 POP JUMP JUMPDEST PUSH1 0x0 PUSH2 0x31B4 DUP3 PUSH2 0x3187 JUMP JUMPDEST SWAP1 POP SWAP2 SWAP1 POP JUMP JUMPDEST PUSH1 0x0 PUSH2 0x31C6 DUP3 PUSH2 0x31A9 JUMP JUMPDEST SWAP1 POP SWAP2 SWAP1 POP JUMP JUMPDEST PUSH2 0x31D6 DUP2 PUSH2 0x31BB JUMP JUMPDEST DUP3 MSTORE POP POP JUMP JUMPDEST PUSH1 0x0 PUSH1 0x20 DUP3 ADD SWAP1 POP PUSH2 0x31F1 PUSH1 0x0 DUP4 ADD DUP5 PUSH2 0x31CD JUMP JUMPDEST SWAP3 SWAP2 POP POP JUMP JUMPDEST PUSH1 0x0 DUP1 PUSH1 0x40 DUP4 DUP6 SUB SLT ISZERO PUSH2 0x320E JUMPI PUSH2 0x320D PUSH2 0x3000 JUMP JUMPDEST JUMPDEST PUSH1 0x0 PUSH2 0x321C DUP6 DUP3 DUP7 ADD PUSH2 0x304E JUMP JUMPDEST SWAP3 POP POP PUSH1 0x20 PUSH2 0x322D DUP6 DUP3 DUP7 ADD PUSH2 0x30DB JUMP JUMPDEST SWAP2 POP POP SWAP3 POP SWAP3 SWAP1 POP JUMP JUMPDEST PUSH1 0x0 PUSH2 0x3242 DUP3 PUSH2 0x31A9 JUMP JUMPDEST SWAP1 POP SWAP2 SWAP1 POP JUMP JUMPDEST PUSH2 0x3252 DUP2 PUSH2 0x3237 JUMP JUMPDEST DUP3 MSTORE POP POP JUMP JUMPDEST PUSH1 0x0 PUSH1 0x20 DUP3 ADD SWAP1 POP PUSH2 0x326D PUSH1 0x0 DUP4 ADD DUP5 PUSH2 0x3249 JUMP JUMPDEST SWAP3 SWAP2 POP POP JUMP JUMPDEST PUSH1 0x0 PUSH1 0xE0 DUP3 ADD SWAP1 POP PUSH2 0x3288 PUSH1 0x0 DUP4 ADD DUP11 PUSH2 0x309A JUMP JUMPDEST PUSH2 0x3295 PUSH1 0x20 DUP4 ADD DUP10 PUSH2 0x309A JUMP JUMPDEST PUSH2 0x32A2 PUSH1 0x40 DUP4 ADD DUP9 PUSH2 0x309A JUMP JUMPDEST PUSH2 0x32AF PUSH1 0x60 DUP4 ADD DUP8 PUSH2 0x3153 JUMP JUMPDEST PUSH2 0x32BC PUSH1 0x80 DUP4 ADD DUP7 PUSH2 0x3129 JUMP JUMPDEST PUSH2 0x32C9 PUSH1 0xA0 DUP4 ADD DUP6 PUSH2 0x3129 JUMP JUMPDEST PUSH2 0x32D6 PUSH1 0xC0 DUP4 ADD DUP5 PUSH2 0x309A JUMP JUMPDEST SWAP9 SWAP8 POP POP POP POP POP POP POP POP JUMP JUMPDEST PUSH1 0x0 PUSH2 0x32ED DUP3 PUSH2 0x31A9 JUMP JUMPDEST SWAP1 POP SWAP2 SWAP1 POP JUMP JUMPDEST PUSH2 0x32FD DUP2 PUSH2 0x32E2 JUMP JUMPDEST DUP3 MSTORE POP POP JUMP JUMPDEST PUSH1 0x0 PUSH1 0x20 DUP3 ADD SWAP1 POP PUSH2 0x3318 PUSH1 0x0 DUP4 ADD DUP5 PUSH2 0x32F4 JUMP JUMPDEST SWAP3 SWAP2 POP POP JUMP JUMPDEST PUSH1 0x0 DUP2 MLOAD SWAP1 POP SWAP2 SWAP1 POP JUMP JUMPDEST PUSH1 0x0 DUP3 DUP3 MSTORE PUSH1 0x20 DUP3 ADD SWAP1 POP SWAP3 SWAP2 POP POP JUMP JUMPDEST PUSH1 0x0 DUP2 SWAP1 POP PUSH1 0x20 DUP3 ADD SWAP1 POP SWAP2 SWAP1 POP JUMP JUMPDEST PUSH2 0x3353 DUP2 PUSH2 0x3090 JUMP JUMPDEST DUP3 MSTORE POP POP JUMP JUMPDEST PUSH1 0x0 PUSH2 0x3365 DUP4 DUP4 PUSH2 0x334A JUMP JUMPDEST PUSH1 0x20 DUP4 ADD SWAP1 POP SWAP3 SWAP2 POP POP JUMP JUMPDEST PUSH1 0x0 PUSH1 0x20 DUP3 ADD SWAP1 POP SWAP2 SWAP1 POP JUMP JUMPDEST PUSH1 0x0 PUSH2 0x3389 DUP3 PUSH2 0x331E JUMP JUMPDEST PUSH2 0x3393 DUP2 DUP6 PUSH2 0x3329 JUMP JUMPDEST SWAP4 POP PUSH2 0x339E DUP4 PUSH2 0x333A JUMP JUMPDEST DUP1 PUSH1 0x0 JUMPDEST DUP4 DUP2 LT ISZERO PUSH2 0x33CF JUMPI DUP2 MLOAD PUSH2 0x33B6 DUP9 DUP3 PUSH2 0x3359 JUMP JUMPDEST SWAP8 POP PUSH2 0x33C1 DUP4 PUSH2 0x3371 JUMP JUMPDEST SWAP3 POP POP PUSH1 0x1 DUP2 ADD SWAP1 POP PUSH2 0x33A2 JUMP JUMPDEST POP DUP6 SWAP4 POP POP POP POP SWAP3 SWAP2 POP POP JUMP JUMPDEST PUSH1 0x0 PUSH1 0x20 DUP3 ADD SWAP1 POP DUP2 DUP2 SUB PUSH1 0x0 DUP4 ADD MSTORE PUSH2 0x33F6 DUP2 DUP5 PUSH2 0x337E JUMP JUMPDEST SWAP1 POP SWAP3 SWAP2 POP POP JUMP JUMPDEST PUSH32 0x4E487B7100000000000000000000000000000000000000000000000000000000 PUSH1 0x0 MSTORE PUSH1 0x32 PUSH1 0x4 MSTORE PUSH1 0x24 PUSH1 0x0 REVERT JUMPDEST PUSH32 0x4E487B7100000000000000000000000000000000000000000000000000000000 PUSH1 0x0 MSTORE PUSH1 0x11 PUSH1 0x4 MSTORE PUSH1 0x24 PUSH1 0x0 REVERT JUMPDEST PUSH1 0x0 PUSH2 0x3467 DUP3 PUSH2 0x3090 JUMP JUMPDEST SWAP2 POP PUSH2 0x3472 DUP4 PUSH2 0x3090 JUMP JUMPDEST SWAP3 POP DUP3 DUP3 ADD SWAP1 POP DUP1 DUP3 GT ISZERO PUSH2 0x348A JUMPI PUSH2 0x3489 PUSH2 0x342D JUMP JUMPDEST JUMPDEST SWAP3 SWAP2 POP POP JUMP JUMPDEST PUSH1 0x0 DUP2 MLOAD SWAP1 POP PUSH2 0x349F DUP2 PUSH2 0x30C4 JUMP JUMPDEST SWAP3 SWAP2 POP POP JUMP JUMPDEST PUSH1 0x0 PUSH1 0x20 DUP3 DUP5 SUB SLT ISZERO PUSH2 0x34BB JUMPI PUSH2 0x34BA PUSH2 0x3000 JUMP JUMPDEST JUMPDEST PUSH1 0x0 PUSH2 0x34C9 DUP5 DUP3 DUP6 ADD PUSH2 0x3490 JUMP JUMPDEST SWAP2 POP POP SWAP3 SWAP2 POP POP JUMP JUMPDEST PUSH1 0x0 PUSH2 0x34DD DUP3 PUSH2 0x3090 JUMP JUMPDEST SWAP2 POP PUSH2 0x34E8 DUP4 PUSH2 0x3090 JUMP JUMPDEST SWAP3 POP DUP3 DUP3 MUL PUSH2 0x34F6 DUP2 PUSH2 0x3090 JUMP JUMPDEST SWAP2 POP DUP3 DUP3 DIV DUP5 EQ DUP4 ISZERO OR PUSH2 0x350D JUMPI PUSH2 0x350C PUSH2 0x342D JUMP JUMPDEST JUMPDEST POP SWAP3 SWAP2 POP POP JUMP JUMPDEST PUSH32 0x4E487B7100000000000000000000000000000000000000000000000000000000 PUSH1 0x0 MSTORE PUSH1 0x12 PUSH1 0x4 MSTORE PUSH1 0x24 PUSH1 0x0 REVERT JUMPDEST PUSH1 0x0 PUSH2 0x354E DUP3 PUSH2 0x3090 JUMP JUMPDEST SWAP2 POP PUSH2 0x3559 DUP4 PUSH2 0x3090 JUMP JUMPDEST SWAP3 POP DUP3 PUSH2 0x3569 JUMPI PUSH2 0x3568 PUSH2 0x3514 JUMP JUMPDEST JUMPDEST DUP3 DUP3 DIV SWAP1 POP SWAP3 SWAP2 POP POP JUMP JUMPDEST PUSH1 0x0 PUSH2 0x357F DUP3 PUSH2 0x3090 JUMP JUMPDEST SWAP2 POP PUSH2 0x358A DUP4 PUSH2 0x3090 JUMP JUMPDEST SWAP3 POP DUP3 DUP3 SUB SWAP1 POP DUP2 DUP2 GT ISZERO PUSH2 0x35A2 JUMPI PUSH2 0x35A1 PUSH2 0x342D JUMP JUMPDEST JUMPDEST SWAP3 SWAP2 POP POP JUMP JUMPDEST PUSH1 0x0 DUP3 DUP3 MSTORE PUSH1 0x20 DUP3 ADD SWAP1 POP SWAP3 SWAP2 POP POP JUMP JUMPDEST PUSH32 0x4578636565647320746172676574000000000000000000000000000000000000 PUSH1 0x0 DUP3 ADD MSTORE POP JUMP JUMPDEST PUSH1 0x0 PUSH2 0x35EF PUSH1 0xE DUP4 PUSH2 0x35A8 JUMP JUMPDEST SWAP2 POP PUSH2 0x35FA DUP3 PUSH2 0x35B9 JUMP JUMPDEST PUSH1 0x20 DUP3 ADD SWAP1 POP SWAP2 SWAP1 POP JUMP JUMPDEST PUSH1 0x0 PUSH1 0x20 DUP3 ADD SWAP1 POP DUP2 DUP2 SUB PUSH1 0x0 DUP4 ADD MSTORE PUSH2 0x361E DUP2 PUSH2 0x35E2 JUMP JUMPDEST SWAP1 POP SWAP2 SWAP1 POP JUMP JUMPDEST PUSH1 0x0 DUP2 PUSH1 0x1 SHR SWAP1 POP SWAP2 SWAP1 POP JUMP JUMPDEST PUSH1 0x0 DUP1 DUP3 SWAP2 POP DUP4 SWAP1 POP JUMPDEST PUSH1 0x1 DUP6 GT ISZERO PUSH2 0x367C JUMPI DUP1 DUP7 DIV DUP2 GT ISZERO PUSH2 0x3658 JUMPI PUSH2 0x3657 PUSH2 0x342D JUMP JUMPDEST JUMPDEST PUSH1 0x1 DUP6 AND ISZERO PUSH2 0x3667 JUMPI DUP1 DUP3 MUL SWAP2 POP JUMPDEST DUP1 DUP2 MUL SWAP1 POP PUSH2 0x3675 DUP6 PUSH2 0x3625 JUMP JUMPDEST SWAP5 POP PUSH2 0x363C JUMP JUMPDEST SWAP5 POP SWAP5 SWAP3 POP POP POP JUMP JUMPDEST PUSH1 0x0 DUP3 PUSH2 0x3695 JUMPI PUSH1 0x1 SWAP1 POP PUSH2 0x3751 JUMP JUMPDEST DUP2 PUSH2 0x36A3 JUMPI PUSH1 0x0 SWAP1 POP PUSH2 0x3751 JUMP JUMPDEST DUP2 PUSH1 0x1 DUP2 EQ PUSH2 0x36B9 JUMPI PUSH1 0x2 DUP2 EQ PUSH2 0x36C3 JUMPI PUSH2 0x36F2 JUMP JUMPDEST PUSH1 0x1 SWAP2 POP POP PUSH2 0x3751 JUMP JUMPDEST PUSH1 0xFF DUP5 GT ISZERO PUSH2 0x36D5 JUMPI PUSH2 0x36D4 PUSH2 0x342D JUMP JUMPDEST JUMPDEST DUP4 PUSH1 0x2 EXP SWAP2 POP DUP5 DUP3 GT ISZERO PUSH2 0x36EC JUMPI PUSH2 0x36EB PUSH2 0x342D JUMP JUMPDEST JUMPDEST POP PUSH2 0x3751 JUMP JUMPDEST POP PUSH1 0x20 DUP4 LT PUSH2 0x133 DUP4 LT AND PUSH1 0x4E DUP5 LT PUSH1 0xB DUP5 LT AND OR ISZERO PUSH2 0x3727 JUMPI DUP3 DUP3 EXP SWAP1 POP DUP4 DUP2 GT ISZERO PUSH2 0x3722 JUMPI PUSH2 0x3721 PUSH2 0x342D JUMP JUMPDEST JUMPDEST PUSH2 0x3751 JUMP JUMPDEST PUSH2 0x3734 DUP5 DUP5 DUP5 PUSH1 0x1 PUSH2 0x3632 JUMP JUMPDEST SWAP3 POP SWAP1 POP DUP2 DUP5 DIV DUP2 GT ISZERO PUSH2 0x374B JUMPI PUSH2 0x374A PUSH2 0x342D JUMP JUMPDEST JUMPDEST DUP2 DUP2 MUL SWAP1 POP JUMPDEST SWAP4 SWAP3 POP POP POP JUMP JUMPDEST PUSH1 0x0 PUSH1 0xFF DUP3 AND SWAP1 POP SWAP2 SWAP1 POP JUMP JUMPDEST PUSH1 0x0 PUSH2 0x3770 DUP3 PUSH2 0x3090 JUMP JUMPDEST SWAP2 POP PUSH2 0x377B DUP4 PUSH2 0x3758 JUMP JUMPDEST SWAP3 POP PUSH2 0x37A8 PUSH32 0xFFFFFFFFFFFFFFFFFFFFFFFFFFFFFFFFFFFFFFFFFFFFFFFFFFFFFFFFFFFFFFFF DUP5 DUP5 PUSH2 0x3685 JUMP JUMPDEST SWAP1 POP SWAP3 SWAP2 POP POP JUMP JUMPDEST PUSH32 0x4F6E6C7920666F756E646572732063616E206465706C6F790000000000000000 PUSH1 0x0 DUP3 ADD MSTORE POP JUMP JUMPDEST PUSH1 0x0 PUSH2 0x37E6 PUSH1 0x18 DUP4 PUSH2 0x35A8 JUMP JUMPDEST SWAP2 POP PUSH2 0x37F1 DUP3 PUSH2 0x37B0 JUMP JUMPDEST PUSH1 0x20 DUP3 ADD SWAP1 POP SWAP2 SWAP1 POP JUMP JUMPDEST PUSH1 0x0 PUSH1 0x20 DUP3 ADD SWAP1 POP DUP2 DUP2 SUB PUSH1 0x0 DUP4 ADD MSTORE PUSH2 0x3815 DUP2 PUSH2 0x37D9 JUMP JUMPDEST SWAP1 POP SWAP2 SWAP1 POP JUMP JUMPDEST PUSH32 0x546172676574206E6F7420726561636865640000000000000000000000000000 PUSH1 0x0 DUP3 ADD MSTORE POP JUMP JUMPDEST PUSH1 0x0 PUSH2 0x3852 PUSH1 0x12 DUP4 PUSH2 0x35A8 JUMP JUMPDEST SWAP2 POP PUSH2 0x385D DUP3 PUSH2 0x381C JUMP JUMPDEST PUSH1 0x20 DUP3 ADD SWAP1 POP SWAP2 SWAP1 POP JUMP JUMPDEST PUSH1 0x0 PUSH1 0x20 DUP3 ADD SWAP1 POP DUP2 DUP2 SUB PUSH1 0x0 DUP4 ADD MSTORE PUSH2 0x3881 DUP2 PUSH2 0x3845 JUMP JUMPDEST SWAP1 POP SWAP2 SWAP1 POP JUMP JUMPDEST PUSH32 0x416C7265616479206465706C6F79656400000000000000000000000000000000 PUSH1 0x0 DUP3 ADD MSTORE POP JUMP JUMPDEST PUSH1 0x0 PUSH2 0x38BE PUSH1 0x10 DUP4 PUSH2 0x35A8 JUMP JUMPDEST SWAP2 POP PUSH2 0x38C9 DUP3 PUSH2 0x3888 JUMP JUMPDEST PUSH1 0x20 DUP3 ADD SWAP1 POP SWAP2 SWAP1 POP JUMP JUMPDEST PUSH1 0x0 PUSH1 0x20 DUP3 ADD SWAP1 POP DUP2 DUP2 SUB PUSH1 0x0 DUP4 ADD MSTORE PUSH2 0x38ED DUP2 PUSH2 0x38B1 JUMP JUMPDEST SWAP1 POP SWAP2 SWAP1 POP JUMP JUMPDEST PUSH32 0x496E73756666696369656E742073616C6520746F6B656E730000000000000000 PUSH1 0x0 DUP3 ADD MSTORE POP JUMP JUMPDEST PUSH1 0x0 PUSH2 0x392A PUSH1 0x18 DUP4 PUSH2 0x35A8 JUMP JUMPDEST SWAP2 POP PUSH2 0x3935 DUP3 PUSH2 0x38F4 JUMP JUMPDEST PUSH1 0x20 DUP3 ADD SWAP1 POP SWAP2 SWAP1 POP JUMP JUMPDEST PUSH1 0x0 PUSH1 0x20 DUP3 ADD SWAP1 POP DUP2 DUP2 SUB PUSH1 0x0 DUP4 ADD MSTORE PUSH2 0x3959 DUP2 PUSH2 0x391D JUMP JUMPDEST SWAP1 POP SWAP2 SWAP1 POP JUMP JUMPDEST PUSH32 0x496E73756666696369656E74207061796D656E7420746F6B656E730000000000 PUSH1 0x0 DUP3 ADD MSTORE POP JUMP JUMPDEST PUSH1 0x0 PUSH2 0x3996 PUSH1 0x1B DUP4 PUSH2 0x35A8 JUMP JUMPDEST SWAP2 POP PUSH2 0x39A1 DUP3 PUSH2 0x3960 JUMP JUMPDEST PUSH1 0x20 DUP3 ADD SWAP1 POP SWAP2 SWAP1 POP JUMP JUMPDEST PUSH1 0x0 PUSH1 0x20 DUP3 ADD SWAP1 POP DUP2 DUP2 SUB PUSH1 0x0 DUP4 ADD MSTORE PUSH2 0x39C5 DUP2 PUSH2 0x3989 JUMP JUMPDEST SWAP1 POP SWAP2 SWAP1 POP JUMP JUMPDEST PUSH1 0x0 PUSH1 0x40 DUP3 ADD SWAP1 POP PUSH2 0x39E1 PUSH1 0x0 DUP4 ADD DUP6 PUSH2 0x3153 JUMP JUMPDEST PUSH2 0x39EE PUSH1 0x20 DUP4 ADD DUP5 PUSH2 0x309A JUMP JUMPDEST SWAP4 SWAP3 POP POP POP JUMP JUMPDEST PUSH2 0x39FE DUP2 PUSH2 0x311D JUMP JUMPDEST DUP2 EQ PUSH2 0x3A09 JUMPI PUSH1 0x0 DUP1 REVERT JUMPDEST POP JUMP JUMPDEST PUSH1 0x0 DUP2 MLOAD SWAP1 POP PUSH2 0x3A1B DUP2 PUSH2 0x39F5 JUMP JUMPDEST SWAP3 SWAP2 POP POP JUMP JUMPDEST PUSH1 0x0 PUSH1 0x20 DUP3 DUP5 SUB SLT ISZERO PUSH2 0x3A37 JUMPI PUSH2 0x3A36 PUSH2 0x3000 JUMP JUMPDEST JUMPDEST PUSH1 0x0 PUSH2 0x3A45 DUP5 DUP3 DUP6 ADD PUSH2 0x3A0C JUMP JUMPDEST SWAP2 POP POP SWAP3 SWAP2 POP POP JUMP JUMPDEST PUSH32 0x546F6B656E20617070726F7665206661696C6564000000000000000000000000 PUSH1 0x0 DUP3 ADD MSTORE POP JUMP JUMPDEST PUSH1 0x0 PUSH2 0x3A84 PUSH1 0x14 DUP4 PUSH2 0x35A8 JUMP JUMPDEST SWAP2 POP PUSH2 0x3A8F DUP3 PUSH2 0x3A4E JUMP JUMPDEST PUSH1 0x20 DUP3 ADD SWAP1 POP SWAP2 SWAP1 POP JUMP JUMPDEST PUSH1 0x0 PUSH1 0x20 DUP3 ADD SWAP1 POP DUP2 DUP2 SUB PUSH1 0x0 DUP4 ADD MSTORE PUSH2 0x3AB3 DUP2 PUSH2 0x3A77 JUMP JUMPDEST SWAP1 POP SWAP2 SWAP1 POP JUMP JUMPDEST PUSH32 0x5061796D656E7420617070726F7665206661696C656400000000000000000000 PUSH1 0x0 DUP3 ADD MSTORE POP JUMP JUMPDEST PUSH1 0x0 PUSH2 0x3AF0 PUSH1 0x16 DUP4 PUSH2 0x35A8 JUMP JUMPDEST SWAP2 POP PUSH2 0x3AFB DUP3 PUSH2 0x3ABA JUMP JUMPDEST PUSH1 0x20 DUP3 ADD SWAP1 POP SWAP2 SWAP1 POP JUMP JUMPDEST PUSH1 0x0 PUSH1 0x20 DUP3 ADD SWAP1 POP DUP2 DUP2 SUB PUSH1 0x0 DUP4 ADD MSTORE PUSH2 0x3B1F DUP2 PUSH2 0x3AE3 JUMP JUMPDEST SWAP1 POP SWAP2 SWAP1 POP JUMP JUMPDEST PUSH1 0x0 PUSH2 0x100 DUP3 ADD SWAP1 POP PUSH2 0x3B3C PUSH1 0x0 DUP4 ADD DUP12 PUSH2 0x3153 JUMP JUMPDEST PUSH2 0x3B49 PUSH1 0x20 DUP4 ADD DUP11 PUSH2 0x3153 JUMP JUMPDEST PUSH2 0x3B56 PUSH1 0x40 DUP4 ADD DUP10 PUSH2 0x309A JUMP JUMPDEST PUSH2 0x3B63 PUSH1 0x60 DUP4 ADD DUP9 PUSH2 0x309A JUMP JUMPDEST PUSH2 0x3B70 PUSH1 0x80 DUP4 ADD DUP8 PUSH2 0x309A JUMP JUMPDEST PUSH2 0x3B7D PUSH1 0xA0 DUP4 ADD DUP7 PUSH2 0x309A JUMP JUMPDEST PUSH2 0x3B8A PUSH1 0xC0 DUP4 ADD DUP6 PUSH2 0x3153 JUMP JUMPDEST PUSH2 0x3B97 PUSH1 0xE0 DUP4 ADD DUP5 PUSH2 0x309A JUMP JUMPDEST SWAP10 SWAP9 POP POP POP POP POP POP POP POP POP JUMP JUMPDEST PUSH1 0x0 DUP1 PUSH1 0x0 PUSH1 0x60 DUP5 DUP7 SUB SLT ISZERO PUSH2 0x3BBD JUMPI PUSH2 0x3BBC PUSH2 0x3000 JUMP JUMPDEST JUMPDEST PUSH1 0x0 PUSH2 0x3BCB DUP7 DUP3 DUP8 ADD PUSH2 0x3490 JUMP JUMPDEST SWAP4 POP POP PUSH1 0x20 PUSH2 0x3BDC DUP7 DUP3 DUP8 ADD PUSH2 0x3490 JUMP JUMPDEST SWAP3 POP POP PUSH1 0x40 PUSH2 0x3BED DUP7 DUP3 DUP8 ADD PUSH2 0x3490 JUMP JUMPDEST SWAP2 POP POP SWAP3 POP SWAP3 POP SWAP3 JUMP JUMPDEST PUSH32 0x457363726F772072656C65617365206661696C65640000000000000000000000 PUSH1 0x0 DUP3 ADD MSTORE POP JUMP JUMPDEST PUSH1 0x0 PUSH2 0x3C2D PUSH1 0x15 DUP4 PUSH2 0x35A8 JUMP JUMPDEST SWAP2 POP PUSH2 0x3C38 DUP3 PUSH2 0x3BF7 JUMP JUMPDEST PUSH1 0x20 DUP3 ADD SWAP1 POP SWAP2 SWAP1 POP JUMP JUMPDEST PUSH1 0x0 PUSH1 0x20 DUP3 ADD SWAP1 POP DUP2 DUP2 SUB PUSH1 0x0 DUP4 ADD MSTORE PUSH2 0x3C5C DUP2 PUSH2 0x3C20 JUMP JUMPDEST SWAP1 POP SWAP2 SWAP1 POP JUMP JUMPDEST PUSH1 0x0 PUSH1 0x40 DUP3 ADD SWAP1 POP PUSH2 0x3C78 PUSH1 0x0 DUP4 ADD DUP6 PUSH2 0x309A JUMP JUMPDEST PUSH2 0x3C85 PUSH1 0x20 DUP4 ADD DUP5 PUSH2 0x3153 JUMP JUMPDEST SWAP4 SWAP3 POP POP POP JUMP JUMPDEST PUSH1 0x0 PUSH1 0x40 DUP3 ADD SWAP1 POP PUSH2 0x3CA1 PUSH1 0x0 DUP4 ADD DUP6 PUSH2 0x3153 JUMP JUMPDEST PUSH2 0x3CAE PUSH1 0x20 DUP4 ADD DUP5 PUSH2 0x3153 JUMP JUMPDEST SWAP4 SWAP3 POP POP POP JUMP JUMPDEST PUSH1 0x0 DUP2 MLOAD SWAP1 POP PUSH2 0x3CC4 DUP2 PUSH2 0x3037 JUMP JUMPDEST SWAP3 SWAP2 POP POP JUMP JUMPDEST PUSH1 0x0 PUSH1 0x20 DUP3 DUP5 SUB SLT ISZERO PUSH2 0x3CE0 JUMPI PUSH2 0x3CDF PUSH2 0x3000 JUMP JUMPDEST JUMPDEST PUSH1 0x0 PUSH2 0x3CEE DUP5 DUP3 DUP6 ADD PUSH2 0x3CB5 JUMP JUMPDEST SWAP2 POP POP SWAP3 SWAP2 POP POP JUMP JUMPDEST PUSH32 0x53616C6520636F6D706C65746564000000000000000000000000000000000000 PUSH1 0x0 DUP3 ADD MSTORE POP JUMP JUMPDEST PUSH1 0x0 PUSH2 0x3D2D PUSH1 0xE DUP4 PUSH2 0x35A8 JUMP JUMPDEST SWAP2 POP PUSH2 0x3D38 DUP3 PUSH2 0x3CF7 JUMP JUMPDEST PUSH1 0x20 DUP3 ADD SWAP1 POP SWAP2 SWAP1 POP JUMP JUMPDEST PUSH1 0x0 PUSH1 0x20 DUP3 ADD SWAP1 POP DUP2 DUP2 SUB PUSH1 0x0 DUP4 ADD MSTORE PUSH2 0x3D5C DUP2 PUSH2 0x3D20 JUMP JUMPDEST SWAP1 POP SWAP2 SWAP1 POP JUMP JUMPDEST PUSH32 0x54617267657420616C7265616479207265616368656400000000000000000000 PUSH1 0x0 DUP3 ADD MSTORE POP JUMP JUMPDEST PUSH1 0x0 PUSH2 0x3D99 PUSH1 0x16 DUP4 PUSH2 0x35A8 JUMP JUMPDEST SWAP2 POP PUSH2 0x3DA4 DUP3 PUSH2 0x3D63 JUMP JUMPDEST PUSH1 0x20 DUP3 ADD SWAP1 POP SWAP2 SWAP1 POP JUMP JUMPDEST PUSH1 0x0 PUSH1 0x20 DUP3 ADD SWAP1 POP DUP2 DUP2 SUB PUSH1 0x0 DUP4 ADD MSTORE PUSH2 0x3DC8 DUP2 PUSH2 0x3D8C JUMP JUMPDEST SWAP1 POP SWAP2 SWAP1 POP JUMP JUMPDEST PUSH32 0x4E6F742074686520707572636861736572000000000000000000000000000000 PUSH1 0x0 DUP3 ADD MSTORE POP JUMP JUMPDEST PUSH1 0x0 PUSH2 0x3E05 PUSH1 0x11 DUP4 PUSH2 0x35A8 JUMP JUMPDEST SWAP2 POP PUSH2 0x3E10 DUP3 PUSH2 0x3DCF JUMP JUMPDEST PUSH1 0x20 DUP3 ADD SWAP1 POP SWAP2 SWAP1 POP JUMP JUMPDEST PUSH1 0x0 PUSH1 0x20 DUP3 ADD SWAP1 POP DUP2 DUP2 SUB PUSH1 0x0 DUP4 ADD MSTORE PUSH2 0x3E34 DUP2 PUSH2 0x3DF8 JUMP JUMPDEST SWAP1 POP SWAP2 SWAP1 POP JUMP JUMPDEST PUSH32 0x416C726561647920726566756E64656400000000000000000000000000000000 PUSH1 0x0 DUP3 ADD MSTORE POP JUMP JUMPDEST PUSH1 0x0 PUSH2 0x3E71 PUSH1 0x10 DUP4 PUSH2 0x35A8 JUMP JUMPDEST SWAP2 POP PUSH2 0x3E7C DUP3 PUSH2 0x3E3B JUMP JUMPDEST PUSH1 0x20 DUP3 ADD SWAP1 POP SWAP2 SWAP1 POP JUMP JUMPDEST PUSH1 0x0 PUSH1 0x20 DUP3 ADD SWAP1 POP DUP2 DUP2 SUB PUSH1 0x0 DUP4 ADD MSTORE PUSH2 0x3EA0 DUP2 PUSH2 0x3E64 JUMP JUMPDEST SWAP1 POP SWAP2 SWAP1 POP JUMP JUMPDEST PUSH32 0x416C72656164792072656465656D656400000000000000000000000000000000 PUSH1 0x0 DUP3 ADD MSTORE POP JUMP JUMPDEST PUSH1 0x0 PUSH2 0x3EDD PUSH1 0x10 DUP4 PUSH2 0x35A8 JUMP JUMPDEST SWAP2 POP PUSH2 0x3EE8 DUP3 PUSH2 0x3EA7 JUMP JUMPDEST PUSH1 0x20 DUP3 ADD SWAP1 POP SWAP2 SWAP1 POP JUMP JUMPDEST PUSH1 0x0 PUSH1 0x20 DUP3 ADD SWAP1 POP DUP2 DUP2 SUB PUSH1 0x0 DUP4 ADD MSTORE PUSH2 0x3F0C DUP2 PUSH2 0x3ED0 JUMP JUMPDEST SWAP1 POP SWAP2 SWAP1 POP JUMP JUMPDEST PUSH32 0x526566756E64206661696C656400000000000000000000000000000000000000 PUSH1 0x0 DUP3 ADD MSTORE POP JUMP JUMPDEST PUSH1 0x0 PUSH2 0x3F49 PUSH1 0xD DUP4 PUSH2 0x35A8 JUMP JUMPDEST SWAP2 POP PUSH2 0x3F54 DUP3 PUSH2 0x3F13 JUMP JUMPDEST PUSH1 0x20 DUP3 ADD SWAP1 POP SWAP2 SWAP1 POP JUMP JUMPDEST PUSH1 0x0 PUSH1 0x20 DUP3 ADD SWAP1 POP DUP2 DUP2 SUB PUSH1 0x0 DUP4 ADD MSTORE PUSH2 0x3F78 DUP2 PUSH2 0x3F3C JUMP JUMPDEST SWAP1 POP SWAP2 SWAP1 POP JUMP JUMPDEST PUSH32 0x4F6E6C7920666F756E646572732063616E207265636F76657200000000000000 PUSH1 0x0 DUP3 ADD MSTORE POP JUMP JUMPDEST PUSH1 0x0 PUSH2 0x3FB5 PUSH1 0x19 DUP4 PUSH2 0x35A8 JUMP JUMPDEST SWAP2 POP PUSH2 0x3FC0 DUP3 PUSH2 0x3F7F JUMP JUMPDEST PUSH1 0x20 DUP3 ADD SWAP1 POP SWAP2 SWAP1 POP JUMP JUMPDEST PUSH1 0x0 PUSH1 0x20 DUP3 ADD SWAP1 POP DUP2 DUP2 SUB PUSH1 0x0 DUP4 ADD MSTORE PUSH2 0x3FE4 DUP2 PUSH2 0x3FA8 JUMP JUMPDEST SWAP1 POP SWAP2 SWAP1 POP JUMP JUMPDEST PUSH32 0x4E6F7420796574206465706C6F79656420746F20556E69737761700000000000 PUSH1 0x0 DUP3 ADD MSTORE POP JUMP JUMPDEST PUSH1 0x0 PUSH2 0x4021 PUSH1 0x1B DUP4 PUSH2 0x35A8 JUMP JUMPDEST SWAP2 POP PUSH2 0x402C DUP3 PUSH2 0x3FEB JUMP JUMPDEST PUSH1 0x20 DUP3 ADD SWAP1 POP SWAP2 SWAP1 POP JUMP JUMPDEST PUSH1 0x0 PUSH1 0x20 DUP3 ADD SWAP1 POP DUP2 DUP2 SUB PUSH1 0x0 DUP4 ADD MSTORE PUSH2 0x4050 DUP2 PUSH2 0x4014 JUMP JUMPDEST SWAP1 POP SWAP2 SWAP1 POP JUMP JUMPDEST PUSH32 0x43616E6E6F74207265636F7665722073616C6520746F6B656E00000000000000 PUSH1 0x0 DUP3 ADD MSTORE POP JUMP JUMPDEST PUSH1 0x0 PUSH2 0x408D PUSH1 0x19 DUP4 PUSH2 0x35A8 JUMP JUMPDEST SWAP2 POP PUSH2 0x4098 DUP3 PUSH2 0x4057 JUMP JUMPDEST PUSH1 0x20 DUP3 ADD SWAP1 POP SWAP2 SWAP1 POP JUMP JUMPDEST PUSH1 0x0 PUSH1 0x20 DUP3 ADD SWAP1 POP DUP2 DUP2 SUB PUSH1 0x0 DUP4 ADD MSTORE PUSH2 0x40BC DUP2 PUSH2 0x4080 JUMP JUMPDEST SWAP1 POP SWAP2 SWAP1 POP JUMP JUMPDEST PUSH32 0x496E73756666696369656E742062616C616E6365000000000000000000000000 PUSH1 0x0 DUP3 ADD MSTORE POP JUMP JUMPDEST PUSH1 0x0 PUSH2 0x40F9 PUSH1 0x14 DUP4 PUSH2 0x35A8 JUMP JUMPDEST SWAP2 POP PUSH2 0x4104 DUP3 PUSH2 0x40C3 JUMP JUMPDEST PUSH1 0x20 DUP3 ADD SWAP1 POP SWAP2 SWAP1 POP JUMP JUMPDEST PUSH1 0x0 PUSH1 0x20 DUP3 ADD SWAP1 POP DUP2 DUP2 SUB PUSH1 0x0 DUP4 ADD MSTORE PUSH2 0x4128 DUP2 PUSH2 0x40EC JUMP JUMPDEST SWAP1 POP SWAP2 SWAP1 POP JUMP JUMPDEST PUSH32 0x546F6B656E207265636F76657279206661696C65640000000000000000000000 PUSH1 0x0 DUP3 ADD MSTORE POP JUMP JUMPDEST PUSH1 0x0 PUSH2 0x4165 PUSH1 0x15 DUP4 PUSH2 0x35A8 JUMP JUMPDEST SWAP2 POP PUSH2 0x4170 DUP3 PUSH2 0x412F JUMP JUMPDEST PUSH1 0x20 DUP3 ADD SWAP1 POP SWAP2 SWAP1 POP JUMP JUMPDEST PUSH1 0x0 PUSH1 0x20 DUP3 ADD SWAP1 POP DUP2 DUP2 SUB PUSH1 0x0 DUP4 ADD MSTORE PUSH2 0x4194 DUP2 PUSH2 0x4158 JUMP JUMPDEST SWAP1 POP SWAP2 SWAP1 POP JUMP JUMPDEST PUSH32 0x42656C6F77206D696E696D756D20707572636861736500000000000000000000 PUSH1 0x0 DUP3 ADD MSTORE POP JUMP JUMPDEST PUSH1 0x0 PUSH2 0x41D1 PUSH1 0x16 DUP4 PUSH2 0x35A8 JUMP JUMPDEST SWAP2 POP PUSH2 0x41DC DUP3 PUSH2 0x419B JUMP JUMPDEST PUSH1 0x20 DUP3 ADD SWAP1 POP SWAP2 SWAP1 POP JUMP JUMPDEST PUSH1 0x0 PUSH1 0x20 DUP3 ADD SWAP1 POP DUP2 DUP2 SUB PUSH1 0x0 DUP4 ADD MSTORE PUSH2 0x4200 DUP2 PUSH2 0x41C4 JUMP JUMPDEST SWAP1 POP SWAP2 SWAP1 POP JUMP JUMPDEST PUSH1 0x0 PUSH1 0x60 DUP3 ADD SWAP1 POP PUSH2 0x421C PUSH1 0x0 DUP4 ADD DUP7 PUSH2 0x3153 JUMP JUMPDEST PUSH2 0x4229 PUSH1 0x20 DUP4 ADD DUP6 PUSH2 0x3153 JUMP JUMPDEST PUSH2 0x4236 PUSH1 0x40 DUP4 ADD DUP5 PUSH2 0x309A JUMP JUMPDEST SWAP5 SWAP4 POP POP POP POP JUMP JUMPDEST PUSH32 0x5061796D656E74207472616E73666572206661696C6564000000000000000000 PUSH1 0x0 DUP3 ADD MSTORE POP JUMP JUMPDEST PUSH1 0x0 PUSH2 0x4274 PUSH1 0x17 DUP4 PUSH2 0x35A8 JUMP JUMPDEST SWAP2 POP PUSH2 0x427F DUP3 PUSH2 0x423E JUMP JUMPDEST PUSH1 0x20 DUP3 ADD SWAP1 POP SWAP2 SWAP1 POP JUMP JUMPDEST PUSH1 0x0 PUSH1 0x20 DUP3 ADD SWAP1 POP DUP2 DUP2 SUB PUSH1 0x0 DUP4 ADD MSTORE PUSH2 0x42A3 DUP2 PUSH2 0x4267 JUMP JUMPDEST SWAP1 POP SWAP2 SWAP1 POP JUMP JUMPDEST PUSH1 0x0 PUSH1 0xA0 DUP3 ADD SWAP1 POP PUSH2 0x42BF PUSH1 0x0 DUP4 ADD DUP9 PUSH2 0x309A JUMP JUMPDEST PUSH2 0x42CC PUSH1 0x20 DUP4 ADD DUP8 PUSH2 0x309A JUMP JUMPDEST PUSH2 0x42D9 PUSH1 0x40 DUP4 ADD DUP7 PUSH2 0x309A JUMP JUMPDEST PUSH2 0x42E6 PUSH1 0x60 DUP4 ADD DUP6 PUSH2 0x309A JUMP JUMPDEST PUSH2 0x42F3 PUSH1 0x80 DUP4 ADD DUP5 PUSH2 0x309A JUMP JUMPDEST SWAP7 SWAP6 POP POP POP POP POP POP JUMP JUMPDEST PUSH32 0x466565207472616E73666572206661696C656400000000000000000000000000 PUSH1 0x0 DUP3 ADD MSTORE POP JUMP JUMPDEST PUSH1 0x0 PUSH2 0x4333 PUSH1 0x13 DUP4 PUSH2 0x35A8 JUMP JUMPDEST SWAP2 POP PUSH2 0x433E DUP3 PUSH2 0x42FD JUMP JUMPDEST PUSH1 0x20 DUP3 ADD SWAP1 POP SWAP2 SWAP1 POP JUMP JUMPDEST PUSH1 0x0 PUSH1 0x20 DUP3 ADD SWAP1 POP DUP2 DUP2 SUB PUSH1 0x0 DUP4 ADD MSTORE PUSH2 0x4362 DUP2 PUSH2 0x4326 JUMP JUMPDEST SWAP1 POP SWAP2 SWAP1 POP JUMP JUMPDEST PUSH32 0x557066726F6E74207472616E73666572206661696C6564000000000000000000 PUSH1 0x0 DUP3 ADD MSTORE POP JUMP JUMPDEST PUSH1 0x0 PUSH2 0x439F PUSH1 0x17 DUP4 PUSH2 0x35A8 JUMP JUMPDEST SWAP2 POP PUSH2 0x43AA DUP3 PUSH2 0x4369 JUMP JUMPDEST PUSH1 0x20 DUP3 ADD SWAP1 POP SWAP2 SWAP1 POP JUMP JUMPDEST PUSH1 0x0 PUSH1 0x20 DUP3 ADD SWAP1 POP DUP2 DUP2 SUB PUSH1 0x0 DUP4 ADD MSTORE PUSH2 0x43CE DUP2 PUSH2 0x4392 JUMP JUMPDEST SWAP1 POP SWAP2 SWAP1 POP JUMP JUMPDEST PUSH1 0x0 PUSH2 0x43E0 DUP3 PUSH2 0x3090 JUMP JUMPDEST SWAP2 POP PUSH32 0xFFFFFFFFFFFFFFFFFFFFFFFFFFFFFFFFFFFFFFFFFFFFFFFFFFFFFFFFFFFFFFFF DUP3 SUB PUSH2 0x4412 JUMPI PUSH2 0x4411 PUSH2 0x342D JUMP JUMPDEST JUMPDEST PUSH1 0x1 DUP3 ADD SWAP1 POP SWAP2 SWAP1 POP JUMP JUMPDEST PUSH1 0x0 PUSH1 0x60 DUP3 ADD SWAP1 POP PUSH2 0x4432 PUSH1 0x0 DUP4 ADD DUP7 PUSH2 0x309A JUMP JUMPDEST PUSH2 0x443F PUSH1 0x20 DUP4 ADD DUP6 PUSH2 0x309A JUMP JUMPDEST PUSH2 0x444C PUSH1 0x40 DUP4 ADD DUP5 PUSH2 0x309A JUMP JUMPDEST SWAP5 SWAP4 POP POP POP POP JUMP JUMPDEST PUSH32 0x546172676574206E6F7420726561636865642079657400000000000000000000 PUSH1 0x0 DUP3 ADD MSTORE POP JUMP JUMPDEST PUSH1 0x0 PUSH2 0x448A PUSH1 0x16 DUP4 PUSH2 0x35A8 JUMP JUMPDEST SWAP2 POP PUSH2 0x4495 DUP3 PUSH2 0x4454 JUMP JUMPDEST PUSH1 0x20 DUP3 ADD SWAP1 POP SWAP2 SWAP1 POP JUMP JUMPDEST PUSH1 0x0 PUSH1 0x20 DUP3 ADD SWAP1 POP DUP2 DUP2 SUB PUSH1 0x0 DUP4 ADD MSTORE PUSH2 0x44B9 DUP2 PUSH2 0x447D JUMP JUMPDEST SWAP1 POP SWAP2 SWAP1 POP JUMP JUMPDEST PUSH32 0x4F726465722077617320726566756E6465640000000000000000000000000000 PUSH1 0x0 DUP3 ADD MSTORE POP JUMP JUMPDEST PUSH1 0x0 PUSH2 0x44F6 PUSH1 0x12 DUP4 PUSH2 0x35A8 JUMP JUMPDEST SWAP2 POP PUSH2 0x4501 DUP3 PUSH2 0x44C0 JUMP JUMPDEST PUSH1 0x20 DUP3 ADD SWAP1 POP SWAP2 SWAP1 POP JUMP JUMPDEST PUSH1 0x0 PUSH1 0x20 DUP3 ADD SWAP1 POP DUP2 DUP2 SUB PUSH1 0x0 DUP4 ADD MSTORE PUSH2 0x4525 DUP2 PUSH2 0x44E9 JUMP JUMPDEST SWAP1 POP SWAP2 SWAP1 POP JUMP JUMPDEST PUSH32 0x4E6F20746F6B656E7320746F2072656465656D00000000000000000000000000 PUSH1 0x0 DUP3 ADD MSTORE POP JUMP JUMPDEST PUSH1 0x0 PUSH2 0x4562 PUSH1 0x13 DUP4 PUSH2 0x35A8 JUMP JUMPDEST SWAP2 POP PUSH2 0x456D DUP3 PUSH2 0x452C JUMP JUMPDEST PUSH1 0x20 DUP3 ADD SWAP1 POP SWAP2 SWAP1 POP JUMP JUMPDEST PUSH1 0x0 PUSH1 0x20 DUP3 ADD SWAP1 POP DUP2 DUP2 SUB PUSH1 0x0 DUP4 ADD MSTORE PUSH2 0x4591 DUP2 PUSH2 0x4555 JUMP JUMPDEST SWAP1 POP SWAP2 SWAP1 POP JUMP JUMPDEST PUSH32 0x546F6B656E207472616E73666572206661696C65640000000000000000000000 PUSH1 0x0 DUP3 ADD MSTORE POP JUMP JUMPDEST PUSH1 0x0 PUSH2 0x45CE PUSH1 0x15 DUP4 PUSH2 0x35A8 JUMP JUMPDEST SWAP2 POP PUSH2 0x45D9 DUP3 PUSH2 0x4598 JUMP JUMPDEST PUSH1 0x20 DUP3 ADD SWAP1 POP SWAP2 SWAP1 POP JUMP JUMPDEST PUSH1 0x0 PUSH1 0x20 DUP3 ADD SWAP1 POP DUP2 DUP2 SUB PUSH1 0x0 DUP4 ADD MSTORE PUSH2 0x45FD DUP2 PUSH2 0x45C1 JUMP JUMPDEST SWAP1 POP SWAP2 SWAP1 POP JUMP JUMPDEST PUSH1 0x0 PUSH2 0x460F DUP3 PUSH2 0x3758 JUMP JUMPDEST SWAP2 POP PUSH2 0x461A DUP4 PUSH2 0x3758 JUMP JUMPDEST SWAP3 POP DUP3 DUP3 SUB SWAP1 POP PUSH1 0xFF DUP2 GT ISZERO PUSH2 0x4633 JUMPI PUSH2 0x4632 PUSH2 0x342D JUMP JUMPDEST JUMPDEST SWAP3 SWAP2 POP POP JUMP INVALID LOG2 PUSH5 0x6970667358 0x22 SLT KECCAK256 PUSH31 0xB5D80986D0C42E911D224CAB7D2AA88E231D49F8A63D3AF74911E49B89F034 PUSH5 0x736F6C6343 STOP ADDMOD XOR STOP CALLER "
        },
        "methodIdentifiers": {
          "OTTERPAD_DAO()": "edafc9af",
          "OTTERPAD_FEE_BPS()": "ef5ee995",
          "buy(uint256)": "d96a094a",
          "calculateTokensReceived(uint256)": "10d0ffdd",
          "checkSaleTokensRequired()": "5f655ea7",
          "deployToUniswap()": "12eff12c",
          "endPrice()": "b868723e",
          "escrowRakeBPS()": "b704a0c4",
          "foundersWallet()": "1bfaf155",
          "getAllocation(address)": "0e022923",
          "getCurrentPrice()": "eb91d37e",
          "getEscrowedAmount()": "8a19ecef",
          "getMinimumPurchase()": "af5b065a",
          "getPaymentTokenBalance()": "0f8c2798",
          "getSaleTokenBalance()": "f6a55a29",
          "getUserOrderIndices(address)": "bef08860",
          "hasSufficientSaleTokens()": "16c04948",
          "isDeployedToUniswap()": "25f97fb9",
          "orderCounter()": "b789bf52",
          "paymentToken()": "3013ce29",
          "purchases(uint256)": "8392fe31",
          "recoverStuckTokens(address,uint256)": "c596f3fe",
          "redeem(uint256)": "db006a75",
          "refund(uint256)": "278ecde1",
          "saleToken()": "e985e367",
          "startPrice()": "f1a9af89",
          "targetLiquidity()": "92258ec8",
          "targetReached()": "3bde5ba8",
          "totalActiveContributions()": "9513a0fd",
          "totalPaymentsIn()": "de7e3310",
          "totalTokensAllocated()": "c07f773a",
          "uniswapFactory()": "8bdb2afa",
          "uniswapRouter()": "735de9f7",
          "upfrontRakeBPS()": "560b842c",
          "userOrderIndices(address,uint256)": "5a59c551"
        }
      }
    }
  }
}