{
  "contracts/OtterPadFund.sol": {
    "OtterPadFund": {
      "abi": [
        {
          "inputs": [
            {
              "internalType": "string",
              "name": "_title",
              "type": "string"
            },
            {
              "internalType": "string",
              "name": "_richInfoUrl",
              "type": "string"
            },
            {
              "internalType": "address",
              "name": "_saleToken",
              "type": "address"
            },
            {
              "internalType": "address",
              "name": "_paymentToken",
              "type": "address"
            },
            {
              "internalType": "address",
              "name": "_uniswapRouter",
              "type": "address"
            },
            {
              "internalType": "address",
              "name": "_uniswapFactory",
              "type": "address"
            },
            {
              "internalType": "uint256",
              "name": "_startPrice",
              "type": "uint256"
            },
            {
              "internalType": "uint256",
              "name": "_endPrice",
              "type": "uint256"
            },
            {
              "internalType": "uint256",
              "name": "_targetLiquidity",
              "type": "uint256"
            },
            {
              "internalType": "uint256",
              "name": "_upfrontRakeBPS",
              "type": "uint256"
            },
            {
              "internalType": "uint256",
              "name": "_escrowRakeBPS",
              "type": "uint256"
            },
            {
              "internalType": "address",
              "name": "_foundersWallet",
              "type": "address"
            },
            {
              "internalType": "address",
              "name": "_lockLPTokenWallet",
              "type": "address"
            }
          ],
          "stateMutability": "nonpayable",
          "type": "constructor"
        },
        {
          "inputs": [],
          "name": "ReentrancyGuardReentrantCall",
          "type": "error"
        },
        {
          "anonymous": false,
          "inputs": [
            {
              "indexed": false,
              "internalType": "address",
              "name": "pair",
              "type": "address"
            },
            {
              "indexed": false,
              "internalType": "uint256",
              "name": "liquidity",
              "type": "uint256"
            }
          ],
          "name": "DeployedToUniswap",
          "type": "event"
        },
        {
          "anonymous": false,
          "inputs": [
            {
              "indexed": false,
              "internalType": "uint256",
              "name": "amount",
              "type": "uint256"
            },
            {
              "indexed": false,
              "internalType": "address",
              "name": "foundersWallet",
              "type": "address"
            }
          ],
          "name": "EscrowReleased",
          "type": "event"
        },
        {
          "anonymous": false,
          "inputs": [
            {
              "indexed": true,
              "internalType": "address",
              "name": "purchaser",
              "type": "address"
            },
            {
              "indexed": false,
              "internalType": "uint256",
              "name": "totalAmount",
              "type": "uint256"
            },
            {
              "indexed": false,
              "internalType": "uint256",
              "name": "otterpadFee",
              "type": "uint256"
            },
            {
              "indexed": false,
              "internalType": "uint256",
              "name": "upfrontAmount",
              "type": "uint256"
            },
            {
              "indexed": false,
              "internalType": "uint256",
              "name": "escrowAmount",
              "type": "uint256"
            },
            {
              "indexed": false,
              "internalType": "uint256",
              "name": "contributionAmount",
              "type": "uint256"
            }
          ],
          "name": "PaymentReceived",
          "type": "event"
        },
        {
          "anonymous": false,
          "inputs": [
            {
              "indexed": true,
              "internalType": "address",
              "name": "purchaser",
              "type": "address"
            },
            {
              "indexed": false,
              "internalType": "uint256",
              "name": "contributionAmount",
              "type": "uint256"
            },
            {
              "indexed": true,
              "internalType": "uint256",
              "name": "orderIndex",
              "type": "uint256"
            },
            {
              "indexed": false,
              "internalType": "uint256",
              "name": "netActiveContributions",
              "type": "uint256"
            },
            {
              "indexed": false,
              "internalType": "uint256",
              "name": "timestamp",
              "type": "uint256"
            }
          ],
          "name": "Refunded",
          "type": "event"
        },
        {
          "anonymous": false,
          "inputs": [
            {
              "indexed": true,
              "internalType": "address",
              "name": "purchaser",
              "type": "address"
            },
            {
              "indexed": false,
              "internalType": "uint256",
              "name": "paymentAmount",
              "type": "uint256"
            },
            {
              "indexed": false,
              "internalType": "uint256",
              "name": "contributionAmount",
              "type": "uint256"
            },
            {
              "indexed": false,
              "internalType": "uint256",
              "name": "tokenAmount",
              "type": "uint256"
            },
            {
              "indexed": true,
              "internalType": "uint256",
              "name": "orderIndex",
              "type": "uint256"
            },
            {
              "indexed": false,
              "internalType": "uint256",
              "name": "netActiveContributions",
              "type": "uint256"
            },
            {
              "indexed": false,
              "internalType": "uint256",
              "name": "timestamp",
              "type": "uint256"
            }
          ],
          "name": "TokensPurchased",
          "type": "event"
        },
        {
          "anonymous": false,
          "inputs": [
            {
              "indexed": true,
              "internalType": "address",
              "name": "purchaser",
              "type": "address"
            },
            {
              "indexed": false,
              "internalType": "uint256",
              "name": "tokenAmount",
              "type": "uint256"
            },
            {
              "indexed": true,
              "internalType": "uint256",
              "name": "orderIndex",
              "type": "uint256"
            }
          ],
          "name": "TokensRedeemed",
          "type": "event"
        },
        {
          "inputs": [],
          "name": "OTTERPAD_DAO",
          "outputs": [
            {
              "internalType": "address",
              "name": "",
              "type": "address"
            }
          ],
          "stateMutability": "view",
          "type": "function"
        },
        {
          "inputs": [],
          "name": "OTTERPAD_FEE_BPS",
          "outputs": [
            {
              "internalType": "uint256",
              "name": "",
              "type": "uint256"
            }
          ],
          "stateMutability": "view",
          "type": "function"
        },
        {
          "inputs": [
            {
              "internalType": "uint256",
              "name": "paymentAmount",
              "type": "uint256"
            }
          ],
          "name": "buy",
          "outputs": [],
          "stateMutability": "nonpayable",
          "type": "function"
        },
        {
          "inputs": [
            {
              "internalType": "uint256",
              "name": "paymentAmount",
              "type": "uint256"
            }
          ],
          "name": "calculateTokensReceived",
          "outputs": [
            {
              "internalType": "uint256",
              "name": "",
              "type": "uint256"
            }
          ],
          "stateMutability": "view",
          "type": "function"
        },
        {
          "inputs": [],
          "name": "checkSaleTokensRequired",
          "outputs": [
            {
              "internalType": "uint256",
              "name": "",
              "type": "uint256"
            }
          ],
          "stateMutability": "view",
          "type": "function"
        },
        {
          "inputs": [],
          "name": "deployToUniswap",
          "outputs": [
            {
              "internalType": "address",
              "name": "pool",
              "type": "address"
            }
          ],
          "stateMutability": "nonpayable",
          "type": "function"
        },
        {
          "inputs": [],
          "name": "endPrice",
          "outputs": [
            {
              "internalType": "uint256",
              "name": "",
              "type": "uint256"
            }
          ],
          "stateMutability": "view",
          "type": "function"
        },
        {
          "inputs": [],
          "name": "escrowRakeBPS",
          "outputs": [
            {
              "internalType": "uint256",
              "name": "",
              "type": "uint256"
            }
          ],
          "stateMutability": "view",
          "type": "function"
        },
        {
          "inputs": [],
          "name": "foundersWallet",
          "outputs": [
            {
              "internalType": "address",
              "name": "",
              "type": "address"
            }
          ],
          "stateMutability": "view",
          "type": "function"
        },
        {
          "inputs": [
            {
              "internalType": "address",
              "name": "user",
              "type": "address"
            }
          ],
          "name": "getAllocation",
          "outputs": [
            {
              "internalType": "uint256",
              "name": "totalTokens",
              "type": "uint256"
            }
          ],
          "stateMutability": "view",
          "type": "function"
        },
        {
          "inputs": [],
          "name": "getCurrentPrice",
          "outputs": [
            {
              "internalType": "uint256",
              "name": "",
              "type": "uint256"
            }
          ],
          "stateMutability": "view",
          "type": "function"
        },
        {
          "inputs": [],
          "name": "getEscrowedAmount",
          "outputs": [
            {
              "internalType": "uint256",
              "name": "",
              "type": "uint256"
            }
          ],
          "stateMutability": "view",
          "type": "function"
        },
        {
          "inputs": [],
          "name": "getMinimumPurchase",
          "outputs": [
            {
              "internalType": "uint256",
              "name": "",
              "type": "uint256"
            }
          ],
          "stateMutability": "view",
          "type": "function"
        },
        {
          "inputs": [],
          "name": "getPaymentTokenBalance",
          "outputs": [
            {
              "internalType": "uint256",
              "name": "",
              "type": "uint256"
            }
          ],
          "stateMutability": "view",
          "type": "function"
        },
        {
          "inputs": [],
          "name": "getSaleTokenBalance",
          "outputs": [
            {
              "internalType": "uint256",
              "name": "",
              "type": "uint256"
            }
          ],
          "stateMutability": "view",
          "type": "function"
        },
        {
          "inputs": [
            {
              "internalType": "address",
              "name": "user",
              "type": "address"
            }
          ],
          "name": "getUserOrderIndices",
          "outputs": [
            {
              "internalType": "uint256[]",
              "name": "",
              "type": "uint256[]"
            }
          ],
          "stateMutability": "view",
          "type": "function"
        },
        {
          "inputs": [],
          "name": "hasSufficientSaleTokens",
          "outputs": [
            {
              "internalType": "bool",
              "name": "",
              "type": "bool"
            }
          ],
          "stateMutability": "view",
          "type": "function"
        },
        {
          "inputs": [],
          "name": "isDeployedToUniswap",
          "outputs": [
            {
              "internalType": "bool",
              "name": "",
              "type": "bool"
            }
          ],
          "stateMutability": "view",
          "type": "function"
        },
        {
          "inputs": [],
          "name": "lockLPTokenWallet",
          "outputs": [
            {
              "internalType": "address",
              "name": "",
              "type": "address"
            }
          ],
          "stateMutability": "view",
          "type": "function"
        },
        {
          "inputs": [],
          "name": "orderCounter",
          "outputs": [
            {
              "internalType": "uint256",
              "name": "",
              "type": "uint256"
            }
          ],
          "stateMutability": "view",
          "type": "function"
        },
        {
          "inputs": [],
          "name": "paymentToken",
          "outputs": [
            {
              "internalType": "contract IERC20Metadata",
              "name": "",
              "type": "address"
            }
          ],
          "stateMutability": "view",
          "type": "function"
        },
        {
          "inputs": [],
          "name": "paymentTokenDecimals",
          "outputs": [
            {
              "internalType": "uint8",
              "name": "",
              "type": "uint8"
            }
          ],
          "stateMutability": "view",
          "type": "function"
        },
        {
          "inputs": [],
          "name": "paymentTokenSymbol",
          "outputs": [
            {
              "internalType": "string",
              "name": "",
              "type": "string"
            }
          ],
          "stateMutability": "view",
          "type": "function"
        },
        {
          "inputs": [
            {
              "internalType": "uint256",
              "name": "",
              "type": "uint256"
            }
          ],
          "name": "purchases",
          "outputs": [
            {
              "internalType": "uint256",
              "name": "paymentAmount",
              "type": "uint256"
            },
            {
              "internalType": "uint256",
              "name": "contributionAmount",
              "type": "uint256"
            },
            {
              "internalType": "uint256",
              "name": "tokenAmount",
              "type": "uint256"
            },
            {
              "internalType": "address",
              "name": "purchaser",
              "type": "address"
            },
            {
              "internalType": "bool",
              "name": "isRefunded",
              "type": "bool"
            },
            {
              "internalType": "bool",
              "name": "isRedeemed",
              "type": "bool"
            },
            {
              "internalType": "uint256",
              "name": "purchaseBlock",
              "type": "uint256"
            }
          ],
          "stateMutability": "view",
          "type": "function"
        },
        {
          "inputs": [
            {
              "internalType": "address",
              "name": "tokenAddress",
              "type": "address"
            },
            {
              "internalType": "uint256",
              "name": "amount",
              "type": "uint256"
            }
          ],
          "name": "recoverStuckTokens",
          "outputs": [],
          "stateMutability": "nonpayable",
          "type": "function"
        },
        {
          "inputs": [
            {
              "internalType": "uint256",
              "name": "orderIndex",
              "type": "uint256"
            }
          ],
          "name": "redeem",
          "outputs": [],
          "stateMutability": "nonpayable",
          "type": "function"
        },
        {
          "inputs": [
            {
              "internalType": "uint256",
              "name": "orderIndex",
              "type": "uint256"
            }
          ],
          "name": "refund",
          "outputs": [],
          "stateMutability": "nonpayable",
          "type": "function"
        },
        {
          "inputs": [],
          "name": "richInfoUrl",
          "outputs": [
            {
              "internalType": "string",
              "name": "",
              "type": "string"
            }
          ],
          "stateMutability": "view",
          "type": "function"
        },
        {
          "inputs": [],
          "name": "saleToken",
          "outputs": [
            {
              "internalType": "contract IERC20Metadata",
              "name": "",
              "type": "address"
            }
          ],
          "stateMutability": "view",
          "type": "function"
        },
        {
          "inputs": [],
          "name": "saleTokenDecimals",
          "outputs": [
            {
              "internalType": "uint8",
              "name": "",
              "type": "uint8"
            }
          ],
          "stateMutability": "view",
          "type": "function"
        },
        {
          "inputs": [],
          "name": "saleTokenSymbol",
          "outputs": [
            {
              "internalType": "string",
              "name": "",
              "type": "string"
            }
          ],
          "stateMutability": "view",
          "type": "function"
        },
        {
          "inputs": [],
          "name": "startPrice",
          "outputs": [
            {
              "internalType": "uint256",
              "name": "",
              "type": "uint256"
            }
          ],
          "stateMutability": "view",
          "type": "function"
        },
        {
          "inputs": [],
          "name": "targetLiquidity",
          "outputs": [
            {
              "internalType": "uint256",
              "name": "",
              "type": "uint256"
            }
          ],
          "stateMutability": "view",
          "type": "function"
        },
        {
          "inputs": [],
          "name": "targetReached",
          "outputs": [
            {
              "internalType": "bool",
              "name": "",
              "type": "bool"
            }
          ],
          "stateMutability": "view",
          "type": "function"
        },
        {
          "inputs": [],
          "name": "title",
          "outputs": [
            {
              "internalType": "string",
              "name": "",
              "type": "string"
            }
          ],
          "stateMutability": "view",
          "type": "function"
        },
        {
          "inputs": [],
          "name": "totalActiveContributions",
          "outputs": [
            {
              "internalType": "uint256",
              "name": "",
              "type": "uint256"
            }
          ],
          "stateMutability": "view",
          "type": "function"
        },
        {
          "inputs": [],
          "name": "totalPaymentsIn",
          "outputs": [
            {
              "internalType": "uint256",
              "name": "",
              "type": "uint256"
            }
          ],
          "stateMutability": "view",
          "type": "function"
        },
        {
          "inputs": [],
          "name": "totalTokensAllocated",
          "outputs": [
            {
              "internalType": "uint256",
              "name": "",
              "type": "uint256"
            }
          ],
          "stateMutability": "view",
          "type": "function"
        },
        {
          "inputs": [],
          "name": "uniswapFactory",
          "outputs": [
            {
              "internalType": "contract IUniswapV2Factory",
              "name": "",
              "type": "address"
            }
          ],
          "stateMutability": "view",
          "type": "function"
        },
        {
          "inputs": [],
          "name": "uniswapPool",
          "outputs": [
            {
              "internalType": "address",
              "name": "",
              "type": "address"
            }
          ],
          "stateMutability": "view",
          "type": "function"
        },
        {
          "inputs": [],
          "name": "uniswapRouter",
          "outputs": [
            {
              "internalType": "contract IUniswapV2Router02",
              "name": "",
              "type": "address"
            }
          ],
          "stateMutability": "view",
          "type": "function"
        },
        {
          "inputs": [],
          "name": "upfrontRakeBPS",
          "outputs": [
            {
              "internalType": "uint256",
              "name": "",
              "type": "uint256"
            }
          ],
          "stateMutability": "view",
          "type": "function"
        },
        {
          "inputs": [
            {
              "internalType": "address",
              "name": "",
              "type": "address"
            },
            {
              "internalType": "uint256",
              "name": "",
              "type": "uint256"
            }
          ],
          "name": "userOrderIndices",
          "outputs": [
            {
              "internalType": "uint256",
              "name": "",
              "type": "uint256"
            }
          ],
          "stateMutability": "view",
          "type": "function"
        }
      ],
      "evm": {
        "bytecode": {
          "linkReferences": {},
          "object": "6101e06040523462000da05762003815803803809162000022826101e062000da5565b6101e0396101e0016101a06101e082031262000da0576101e0516001600160401b03811162000da057816200005b916101e00162000dc9565b6102005190916001600160401b03821162000da0576200007f916101e00162000dc9565b906200008d61022062000e3f565b916200009b61024062000e3f565b92620000a961026062000e3f565b90620000b761028062000e3f565b6102a0516102c0516102e05161030051610320516101009a909791969295939493909291620000e861034062000e3f565b99620000f661036062000e3f565b9b600160005580511562000d6b578615158062000d61575b8062000d57575b1562000d2157881562000cdc5760c88a1062000c8b578a8a01808b1162000af657611b581062000c46576001600160a01b038c161562000c01576001600160a01b03851615158062000bee575b1562000ba9576001600160a01b038581169087161462000b64576001600160a01b03831615158062000b51575b1562000b0c57610160516127108181031162000af657610180518101906127100381612710031162000af6576127101462000ab1578051906001600160401b038211620006f057600a5490600182811c9216801562000aa6575b6020831014620006cf5781601f84931162000a42575b50602090601f8311600114620009c857600092620009bc575b50508160011b916000199060031b1c191617600a555b8051906001600160401b038211620006f057600b5490600182811c92168015620009b1575b6020831014620006cf5781601f8493116200093c575b50602090601f8311600114620008b157600092620008a5575b50508160011b916000199060031b1c191617600b555b6001600160a01b03838116608081905285821660a05291811660c0529190911660e05260405163313ce56760e01b815290602090829060049082905afa80156200072e5760ff9160009162000881575b501660ff1960025416176002556040519063313ce56760e01b825260208260048160018060a01b0387165afa9081156200072e5760ff60009260049484916200084b575b50845460ff191691161783556040516395d89b4160e01b815292839182906001600160a01b03165afa9081156200072e576000916200082c575b508051906001600160401b038211620006f057600154600181811c9116801562000821575b6020821014620006cf57601f8111620007bb575b50602090601f8311600114620007465791806004949260009485926200073a575b50508160011b9184199060031b1c1916176001555b6040516395d89b4160e01b815292839182906001600160a01b03165afa9081156200072e5760009162000706575b5080516001600160401b038111620006f057600391825490600182811c92168015620006e5575b6020831014620006cf5781601f84931162000677575b50602090601f83116001146200060d5760009262000601575b50508160011b9160001990841b1c19161790555b6101c09687528752610120526101405261016052610180526101a05260405190612959928362000e9c8439608051838181610229015281816103740152818161048701528181610db001528181611a3d0152612583015260a051838181610778015281816116810152818161179201528181611a8e015261209c015260c0518381816113cb0152611aed015260e0518381816112370152611c440152518281816102c90152818161248e0152818161272f015261289001526101205182818161110b015281816119f9015281816124b401528181612706015281816128b601526128de01526101405182818161068e015281816111a4015281816111ff015281816119d101528181612455015281816126d4015261285c0152610160518281816106dc01528181611485015281816123e40152818161276d01526127de01526101805182818161070d015281816111650152818161240f015281816127a9015261280b01526101a05182818161087701528181610d6e015281816118d20152611d350152518181816119160152611bd90152f35b01519050388062000459565b6000858152602081209350601f198516905b8181106200065e575090846001959493921062000645575b505050811b0190556200046d565b015160001983861b60f8161c1916905538808062000637565b929360206001819287860151815501950193016200061f565b909150836000526020600020601f840160051c81019160208510620006c4575b90601f859493920160051c01905b818110620006b4575062000440565b60008155849350600101620006a5565b909150819062000697565b634e487b7160e01b600052602260045260246000fd5b91607f16916200042a565b634e487b7160e01b600052604160045260246000fd5b6200072791503d806000833e6200071e818362000da5565b81019062000e6f565b3862000403565b6040513d6000823e3d90fd5b015190503880620003c0565b90600160005260206000209160005b601f1985168110620007a25750926004949260019260009583601f1981161062000789575b505050811b01600155620003d5565b0151851960f88460031b161c191690553880806200077a565b9192602060018192868501518155019401920162000755565b60016000527fb10e2d527612073b26eecdfd717e6a320cf44b4afac2b0732d9fcbe2b7fa0cf6601f840160051c81016020851062000819575b601f830160051c820181106200080c5750506200039f565b60008155600101620007f4565b5080620007f4565b90607f16906200038b565b6200084491503d806000833e6200071e818362000da5565b3862000366565b62000872915060203d60201162000879575b62000869818362000da5565b81019062000e54565b386200032c565b503d6200085d565b6200089e915060203d602011620008795762000869818362000da5565b38620002e8565b01519050388062000282565b600b60009081527f0175b7a638427703f0dbe7bb9bbf987a2551717b34e79f33b5b1008d1fa01db99350601f198516905b81811062000923575090846001959493921062000909575b505050811b01600b5562000298565b015160001960f88460031b161c19169055388080620008fa565b92936020600181928786015181550195019301620008e2565b600b6000529091507f0175b7a638427703f0dbe7bb9bbf987a2551717b34e79f33b5b1008d1fa01db9601f840160051c81019160208510620009a6575b90601f859493920160051c01905b81811062000996575062000269565b6000815584935060010162000987565b909150819062000979565b91607f169162000253565b01519050388062000218565b600a6000908152600080516020620037f58339815191529350601f198516905b81811062000a29575090846001959493921062000a0f575b505050811b01600a556200022e565b015160001960f88460031b161c1916905538808062000a00565b92936020600181928786015181550195019301620009e8565b600a600052909150600080516020620037f5833981519152601f840160051c8101916020851062000a9b575b90601f859493920160051c01905b81811062000a8b5750620001ff565b6000815584935060010162000a7c565b909150819062000a6e565b91607f1691620001e9565b60405162461bcd60e51b815260206004820152601760248201527f496e76616c69642072616b6520706172616d65746572730000000000000000006044820152606490fd5b634e487b7160e01b600052601160045260246000fd5b60405162461bcd60e51b815260206004820152601960248201527f496e76616c696420556e697377617020616464726573736573000000000000006044820152606490fd5b506001600160a01b03841615156200018f565b60405162461bcd60e51b815260206004820152601860248201527f546f6b656e73206d75737420626520646966666572656e7400000000000000006044820152606490fd5b60405162461bcd60e51b815260206004820152601760248201527f496e76616c696420746f6b656e206164647265737365730000000000000000006044820152606490fd5b506001600160a01b038616151562000162565b60405162461bcd60e51b815260206004820152601760248201527f496e76616c696420666f756e646572732077616c6c65740000000000000000006044820152606490fd5b60405162461bcd60e51b815260206004820152601a60248201527f436f6d62696e65642072616b65203730252065786365656465640000000000006044820152606490fd5b60405162461bcd60e51b8152602060048201526024808201527f557066726f6e742072616b65206d757374206265203e3d204f747465725061646044820152632066656560e01b6064820152608490fd5b60405162461bcd60e51b815260206004820152601660248201527f496e76616c6964207461726765742066756e64696e67000000000000000000006044820152606490fd5b60405162461bcd60e51b815260206004820152600e60248201526d496e76616c69642070726963657360901b6044820152606490fd5b5086881162000115565b508715156200010e565b60405162461bcd60e51b815260206004820152600d60248201526c496e76616c6964207469746c6560981b6044820152606490fd5b600080fd5b601f909101601f19168101906001600160401b03821190821017620006f057604052565b919080601f8401121562000da05782516001600160401b038111620006f0576020906040519262000e0483601f19601f850116018562000da5565b81845282828701011162000da05760005b81811062000e2b57508260009394955001015290565b858101830151848201840152820162000e15565b51906001600160a01b038216820362000da057565b9081602091031262000da0575160ff8116810362000da05790565b9060208282031262000da05781516001600160401b03811162000da05762000e98920162000dc9565b9056fe608060408181526004908136101561001657600080fd5b600092833560e01c90816302a9e714146121f7575080630e022923146120dd5780630f8c27981461206f57806310d0ffdd1461204f57806312eff12c1461196b57806316c049481461194557806316c94b38146119015780631bfaf155146118bd57806325f97fb914611899578063278ecde1146116b05780633013ce291461166c578063325cd7961461164b5780633bde5ba81461162457806344af14a8146115675780634a79d50c146114a8578063560b842c1461146d5780635a59c551146114175780635f655ea7146113fa578063735de9f7146113b657806373ee6084146112f75780638392fe31146112835780638a19ecef146112665780638bdb2afa1461122257806392258ec8146111e75780639513a0fd146111c8578063af5b065a14611188578063b704a0c41461114d578063b789bf521461112e578063b868723e146110f3578063bdd3d825146110c7578063bef0886014611017578063c07f773a14610ff8578063c596f3fe14610d46578063c7c8b43714610c43578063d96a094a14610654578063db006a75146103c2578063de7e3310146103a3578063e985e3671461035f578063eb91d37e1461033b578063edafc9af1461030c578063ef5ee995146102f0578063f1a9af89146102b15763f6a55a29146101fd57600080fd5b3461029b578260031936011261029b5780516370a0823160e01b815230928101929092526020826024817f00000000000000000000000000000000000000000000000000000000000000006001600160a01b03165afa9182156102a757839261026b575b6020838351908152f35b9091506020813d60201161029f575b8161028760209383612263565b8101031261029b5760209250519038610261565b8280fd5b3d915061027a565b81513d85823e3d90fd5b8382346102ec57816003193601126102ec57602090517f00000000000000000000000000000000000000000000000000000000000000008152f35b5080fd5b8382346102ec57816003193601126102ec576020905160c88152f35b8382346102ec57816003193601126102ec5760209051736c83e86e05697c995d718c1cfa3f9045a38c7cd48152f35b8382346102ec57816003193601126102ec57602090610358612857565b9051908152f35b8382346102ec57816003193601126102ec57517f00000000000000000000000000000000000000000000000000000000000000006001600160a01b03168152602090f35b8382346102ec57816003193601126102ec576020906009549051908152f35b503461029b57602080600319360112610650578235926103e0612900565b60065460ff8160081c16156106155760ff16156105d457838552600c82528285206003810180549092916001600160a01b0391906104218383163314612645565b60ff8260a01c1661059c5760029061043f60ff8460a81c1615612685565b019384549182156105635760ff60a81b1916600160a81b179055855163a9059cbb60e01b815233848201908152602081019290925291859183919082908b90829060400103927f0000000000000000000000000000000000000000000000000000000000000000165af190811561055957879161052c575b50156104f15750907fd171fb179b26c49e23fe46eddd44d3048a1ad277b62144ac0725fbcf1dbf6d52915492519283523392a36001815580f35b835162461bcd60e51b81529081018390526015602482015274151bdad95b881d1c985b9cd9995c8819985a5b1959605a1b6044820152606490fd5b61054c9150843d8611610552575b6105448183612263565b810190612550565b386104b7565b503d61053a565b85513d89823e3d90fd5b875162461bcd60e51b815280860188905260136024820152724e6f20746f6b656e7320746f2072656465656d60681b6044820152606490fd5b865162461bcd60e51b8152808501879052601260248201527113dc99195c881dd85cc81c99599d5b99195960721b6044820152606490fd5b915162461bcd60e51b815291820152601760248201527f4e6f7420796574206465706c6f79656420746f204445580000000000000000006044820152606490fd5b50915162461bcd60e51b815291820152601660248201527515185c99d95d081b9bdd081c995858da1959081e595d60521b6044820152606490fd5b8380fd5b50903461029b5760208060031936011261065057813591610673612900565b60ff60065461068482821615612608565b60081c16610c09577f000000000000000000000000000000000000000000000000000000000000000093620f424085048410610bcf5760c8840284810460c81485151715610bbc5761271080910461070781836107017f00000000000000000000000000000000000000000000000000000000000000008a61231f565b04612352565b916107327f00000000000000000000000000000000000000000000000000000000000000008861231f565b049361074b8561074685610746868c612352565b612352565b946107638961075c886008546122fc565b111561235f565b61076c886123ad565b9360018060a01b0393847f000000000000000000000000000000000000000000000000000000000000000016908751936323b872dd60e01b855233868601528d60249530878201528d60448201528c8160648185895af1918215610bb15791610b94575b5015610b525788518c815260208101839052604081018590526060810191909152608081018a905233907fbefb6e85b11f40ee4d9e3e8bb0bedbc3d1eee123b1328c0ea0a4b842cbfff7499060a090a28c885163a9059cbb60e01b92838252736c83e86e05697c995d718c1cfa3f9045a38c7cd488830152868201528b8160448185885af1918215610b475791610b2a575b5015610af25787519081526001600160a01b037f0000000000000000000000000000000000000000000000000000000000000000168582019081526020810193909352918991839182908f90829060400103925af1908115610ae8578b91610acb575b5015610a89576005549660001993848914610a77579089848a8a8f8b90600d97600185016005558251966108f888612231565b87528787019384528287018d81526060880194338652608089019484865260a08a019480865260c08b0198438a528152600c8c5220985189555160018901555160028801556003870193511683549260ff60a01b9051151560a01b169160ff60a81b9051151560a81b169269ffffffffffffffffffff60b01b16171717905551910155338c5252848a209081549268010000000000000000841015610a66575050816109cd9160017fb176b33ad40225c8f67dc6ef0cba96c0c88f67afd36396e2198a3f48a44fc7a0979695940181556122ce565b819291549060031b9188831b921b19161790556109ec816007546122fc565b600755610a416109fe856008546122fc565b96879384600855610a11826009546122fc565b6009555193849333974293869192608093969594919660a084019784526020840152604083015260608201520152565b0390a31015610a52575b6001815580f35b61010061ff00196006541617600655610a4b565b634e487b7160e01b8c52604190528afd5b634e487b7160e01b8c5260118452828cfd5b845162461bcd60e51b81529182018790526017908201527f557066726f6e74207472616e73666572206661696c65640000000000000000006044820152606490fd5b610ae29150883d8a11610552576105448183612263565b386108c5565b86513d8d823e3d90fd5b875162461bcd60e51b81528086018b905260138186015272119959481d1c985b9cd9995c8819985a5b1959606a1b6044820152606490fd5b610b4191508b3d8d11610552576105448183612263565b38610862565b8a51903d90823e3d90fd5b885162461bcd60e51b81528087018c90526017818701527f5061796d656e74207472616e73666572206661696c65640000000000000000006044820152606490fd5b610bab91508c8d3d10610552576105448183612263565b386107d0565b8b51903d90823e3d90fd5b634e487b7160e01b875260118352602487fd5b91606492519162461bcd60e51b8352820152601660248201527542656c6f77206d696e696d756d20707572636861736560501b6044820152fd5b60649184519162461bcd60e51b8352820152601660248201527515185c99d95d08185b1c9958591e481c995858da195960521b6044820152fd5b503461029b578260031936011261029b5780519183600b54906001908260011c92600181168015610d3c575b6020958686108214610d295750848852908115610d075750600114610cae575b610caa8686610ca0828b0383612263565b5191829182612285565b0390f35b929550600b83527f0175b7a638427703f0dbe7bb9bbf987a2551717b34e79f33b5b1008d1fa01db95b828410610cf45750505082610caa94610ca0928201019438610c8f565b8054868501880152928601928101610cd7565b60ff191687860152505050151560051b8301019250610ca082610caa38610c8f565b634e487b7160e01b845260229052602483fd5b93607f1693610c6f565b503461029b578060031936011261029b57610d5f612216565b6024918235610d6c612900565b7f0000000000000000000000000000000000000000000000000000000000000000926001600160a01b03908185163303610fb65760ff6006541615610f74578116907f0000000000000000000000000000000000000000000000000000000000000000168114610f325782516370a0823160e01b815230878201526020949085818881865afa908115610f28579084918a91610ef3575b5010610eba57835163a9059cbb60e01b81526001600160a01b039091168782019081526020810193909352918491839182908a90829060400103925af1908115610eb0578691610e93575b5015610e5c57846001815580f35b5162461bcd60e51b81529283015260159082015274151bdad95b881c9958dbdd995c9e4819985a5b1959605a1b6044820152606490fd5b610eaa9150833d8511610552576105448183612263565b38610e4e565b82513d88823e3d90fd5b835162461bcd60e51b815280880186905260148188015273496e73756666696369656e742062616c616e636560601b6044820152606490fd5b809250878092503d8311610f21575b610f0c8183612263565b81010312610f1d5783905138610e03565b8880fd5b503d610f02565b85513d8b823e3d90fd5b825162461bcd60e51b81526020818801526019818701527f43616e6e6f74207265636f7665722073616c6520746f6b656e000000000000006044820152606490fd5b835162461bcd60e51b8152602081890152601b818801527f4e6f7420796574206465706c6f79656420746f20556e697377617000000000006044820152606490fd5b835162461bcd60e51b81526020818901526019818801527f4f6e6c7920666f756e646572732063616e207265636f766572000000000000006044820152606490fd5b8382346102ec57816003193601126102ec576020906007549051908152f35b5082346110c457602090816003193601126110c45782906001600160a01b0361103e612216565b168152600d8352818120908251808584549182815201908194845286842090845b8181106110b05750505081611075910382612263565b83519485948186019282875251809352850193925b82811061109957505050500390f35b83518552869550938101939281019260010161108a565b82548452928801926001928301920161105f565b80fd5b50903461029b578260031936011261029b5754905160089190911c6001600160a01b0316815260209150f35b8382346102ec57816003193601126102ec57602090517f00000000000000000000000000000000000000000000000000000000000000008152f35b8382346102ec57816003193601126102ec576020906005549051908152f35b8382346102ec57816003193601126102ec57602090517f00000000000000000000000000000000000000000000000000000000000000008152f35b8382346102ec57816003193601126102ec5760209051620f42407f0000000000000000000000000000000000000000000000000000000000000000048152f35b8382346102ec57816003193601126102ec576020906008549051908152f35b8382346102ec57816003193601126102ec57602090517f00000000000000000000000000000000000000000000000000000000000000008152f35b8382346102ec57816003193601126102ec57517f00000000000000000000000000000000000000000000000000000000000000006001600160a01b03168152602090f35b8382346102ec57816003193601126102ec576020906103586127d9565b503461029b57602036600319011261029b5760ff8160e09484358152600c602052208054936001820154936002830154916003840154930154948151968752602087015285015260018060a01b0381166060850152818160a01c161515608085015260a81c16151560a083015260c0820152f35b503461029b578260031936011261029b5780519183600354906001908260011c926001811680156113ac575b6020958686108214610d295750848852908115610d07575060011461135357610caa8686610ca0828b0383612263565b929550600383527fc2575a0e9e593c00f959f8c92f12db2869c3395a3b0502d05e2516446f71f85b5b8284106113995750505082610caa94610ca0928201019438610c8f565b805486850188015292860192810161137c565b93607f1693611323565b8382346102ec57816003193601126102ec57517f00000000000000000000000000000000000000000000000000000000000000006001600160a01b03168152602090f35b8382346102ec57816003193601126102ec576020906103586126c4565b8382346102ec57806003193601126102ec57611431612216565b6001600160a01b03168252600d602052808220805460243593908410156110c4575060209261145f916122ce565b91905490519160031b1c8152f35b8382346102ec57816003193601126102ec57602090517f00000000000000000000000000000000000000000000000000000000000000008152f35b503461029b578260031936011261029b5780519183600a54906001908260011c9260018116801561155d575b6020958686108214610d295750848852908115610d07575060011461150457610caa8686610ca0828b0383612263565b929550600a83527fc65a7bb8d6351c1cf70c95a316cc6a92839c986682d98bc35f958f4883f9d2a85b82841061154a5750505082610caa94610ca0928201019438610c8f565b805486850188015292860192810161152d565b93607f16936114d4565b503461029b578260031936011261029b578051918360018054918260011c9260018116801561161a575b6020958686108214610d295750848852908115610d0757506001146115c157610caa8686610ca0828b0383612263565b929550600183527fb10e2d527612073b26eecdfd717e6a320cf44b4afac2b0732d9fcbe2b7fa0cf65b8284106116075750505082610caa94610ca0928201019438610c8f565b80548685018801529286019281016115ea565b93607f1693611591565b8382346102ec57816003193601126102ec5760209060ff60065460081c1690519015158152f35b5082346110c457806003193601126110c4575060ff60209254169051908152f35b8382346102ec57816003193601126102ec57517f00000000000000000000000000000000000000000000000000000000000000006001600160a01b03168152602090f35b503461029b5760209081600319360112610650578235926116cf612900565b6116de60ff6006541615612608565b838552600c83528185206003810180546001600160a01b03939291906117078582163314612645565b60ff8160a01c16611863576001899388938361172c60ff61178e9660a81c1615612685565b60ff60a01b191660a084901b179055600281015460075461174d9190612352565b600755019461175f8654600854612352565b6008558554875163a9059cbb60e01b815233878201908152602081019290925294859384928391604090910190565b03927f0000000000000000000000000000000000000000000000000000000000000000165af190811561185957879161183c575b50156118095750549160085490825193845283015242908201527f40afc61aabce83a502901d9dc66b15d1ee92bfcc1f4f56923b8434dcd041e19f60603392a36001815580f35b825162461bcd60e51b8152908101849052600d60248201526c1499599d5b990819985a5b1959609a1b6044820152606490fd5b6118539150853d8711610552576105448183612263565b386117c2565b84513d89823e3d90fd5b855162461bcd60e51b8152808501889052601060248201526f105b1c9958591e481c99599d5b99195960821b6044820152606490fd5b8382346102ec57816003193601126102ec5760209060ff6006541690519015158152f35b8382346102ec57816003193601126102ec57517f00000000000000000000000000000000000000000000000000000000000000006001600160a01b03168152602090f35b8382346102ec57816003193601126102ec57517f00000000000000000000000000000000000000000000000000000000000000006001600160a01b03168152602090f35b8382346102ec57816003193601126102ec57602090611962612568565b90519015158152f35b5082346110c457806003193601126110c45760065460ff8160081c16156120175760ff16611fe15761199b6127d9565b916119ac6119a7612568565b612504565b6119ba60ff6002541661239c565b936119c860ff82541661239c565b50611a1e6119f77f0000000000000000000000000000000000000000000000000000000000000000968761231f565b7f000000000000000000000000000000000000000000000000000000000000000090612332565b82516370a0823160e01b80825230848301526020976001600160a01b037f0000000000000000000000000000000000000000000000000000000000000000811698909794959493602492908b8185818e5afa8015611e1e5788908790611fb0575b611a8b92501015612504565b887f00000000000000000000000000000000000000000000000000000000000000001693885190815230878201528b818581885afa908115611e1e578691611f7f575b50611ad983836122fc565b11611f3d57875163095ea7b360e01b8082527f00000000000000000000000000000000000000000000000000000000000000008b166001600160a01b038116898401908152602081018b9052909392908e9082908f9082908c90829060400103925af1908115611f33578e8992611f16575b505015611edc5789519081526001600160a01b038316888201908152602081018390528d908290819060400103818a8a5af1908115611ed2578791611eb5575b5015611e7a576078420190814211611e685787876060948e948e610104958f519e8f98899762e8e33760e81b89528801528c8c880152806044880152816064880152608487015260a48601527f00000000000000000000000000000000000000000000000000000000000000001660c485015260e48401525af1958615611e5e578496611e28575b5080611d27575b50600160ff19600654161760065585519763e6a4390560e01b8952848901528701528686604481887f0000000000000000000000000000000000000000000000000000000000000000165afa958615611d1b578196611cdd575b50508054610100600160a81b031916600886901b610100600160a81b031617905581516001600160a01b038516815260208101919091527f4db0962b68e799b508143f50800f1504d656cbd0fe6395510c0dca385bfd84079080604081015b0390a15191168152f35b909195508681813d8311611d14575b611cf68183612263565b810103126102ec57519084821682036110c457509381611cd3611c74565b503d611cec565b508351903d90823e3d90fd5b865163a9059cbb60e01b81527f00000000000000000000000000000000000000000000000000000000000000006001600160a01b038116878301908152602081018490529091908c9082908190604001038189895af1908115611e1e578691611e01575b5015611dc7577fefc7f1f15becfaec7a3c17eec78be3fa7adb45698f26fcfd25efe1754c242331918989928351928352168c820152a189611c1a565b875162461bcd60e51b81528087018c905260158185015274115cd8dc9bddc81c995b19585cd94819985a5b1959605a1b6044820152606490fd5b611e1891508c8d3d10610552576105448183612263565b8c611d8b565b89513d88823e3d90fd5b9095506060813d606011611e56575b81611e4460609383612263565b8101031261065057860151948a611c13565b3d9150611e37565b87513d86823e3d90fd5b634e487b7160e01b8752601188528487fd5b885162461bcd60e51b81528088018d90526016818601527514185e5b595b9d08185c1c1c9bdd994819985a5b195960521b6044820152606490fd5b611ecc91508d803d10610552576105448183612263565b8d611b8b565b8a513d89823e3d90fd5b50885162461bcd60e51b81528088018d905260148186015273151bdad95b88185c1c1c9bdd994819985a5b195960621b6044820152606490fd5b611f2c9250803d10610552576105448183612263565b8e8e611b4b565b8b513d8a823e3d90fd5b875162461bcd60e51b81528087018c9052601b818501527f496e73756666696369656e74207061796d656e7420746f6b656e7300000000006044820152606490fd5b90508b81813d8311611fa9575b611f968183612263565b81010312611fa557518c611ace565b8580fd5b503d611f8c565b50508b81813d8311611fda575b611fc78183612263565b81010312611fa55787611a8b9151611a7f565b503d611fbd565b815162461bcd60e51b8152602081850152601060248201526f105b1c9958591e4819195c1b1bde595960821b6044820152606490fd5b825162461bcd60e51b8152602081860152601260248201527115185c99d95d081b9bdd081c995858da195960721b6044820152606490fd5b5082346110c45760203660031901126110c45750610358602092356123ad565b503461029b578260031936011261029b5780516370a0823160e01b815230928101929092526020826024817f00000000000000000000000000000000000000000000000000000000000000006001600160a01b03165afa9182156102a757839261026b576020838351908152f35b509190346102ec576020928360031936011261029b576120fb612216565b6001600160a01b039081168452600d855281842082518154808252918652868620909594918591908790818a0190845b8b8282106121e15750505061214292500387612263565b805b86518110156121d857878160051b880101518252600c885284822085519061216b82612231565b8054825260018101548a830152600281015491828882015260c086600384015493898516606085015260ff60a0908087831c1615968715608088015260a81c1615159085015201549101526121c4575b50600101612144565b6121d190600192976122fc565b95906121bb565b87868651908152f35b855484526001958601958c95509301920161212b565b8490346102ec57816003193601126102ec5760209060ff600254168152f35b600435906001600160a01b038216820361222c57565b600080fd5b60e0810190811067ffffffffffffffff82111761224d57604052565b634e487b7160e01b600052604160045260246000fd5b90601f8019910116810190811067ffffffffffffffff82111761224d57604052565b6020808252825181830181905290939260005b8281106122ba57505060409293506000838284010152601f8019910116010190565b818101860151848201604001528501612298565b80548210156122e65760005260206000200190600090565b634e487b7160e01b600052603260045260246000fd5b9190820180921161230957565b634e487b7160e01b600052601160045260246000fd5b8181029291811591840414171561230957565b811561233c570490565b634e487b7160e01b600052601260045260246000fd5b9190820391821161230957565b1561236657565b60405162461bcd60e51b815260206004820152600e60248201526d115e18d959591cc81d185c99d95d60921b6044820152606490fd5b60ff16604d811161230957600a0a90565b60c881029080820460c81481151715612309576124e46124ef61243c612501946107466127108092049161074661240984836107017f00000000000000000000000000000000000000000000000000000000000000008c61231f565b916124347f00000000000000000000000000000000000000000000000000000000000000008a61231f565b049188612352565b6124e9600854916124e961245082856122fc565b61247d7f00000000000000000000000000000000000000000000000000000000000000008092111561235f565b6124e4612488612857565b956124de7f0000000000000000000000000000000000000000000000000000000000000000956124d8877f0000000000000000000000000000000000000000000000000000000000000000612352565b926122fc565b9061231f565b612332565b906122fc565b60011c916124de60ff6002541661239c565b90565b1561250b57565b60405162461bcd60e51b815260206004820152601860248201527f496e73756666696369656e742073616c6520746f6b656e7300000000000000006044820152606490fd5b9081602091031261222c5751801515810361222c5790565b6040516370a0823160e01b81523060048201526020816024817f00000000000000000000000000000000000000000000000000000000000000006001600160a01b03165afa9081156125fc576000916125ca575b506125c56126c4565b111590565b90506020813d6020116125f4575b816125e560209383612263565b8101031261222c5751386125bc565b3d91506125d8565b6040513d6000823e3d90fd5b1561260f57565b60405162461bcd60e51b815260206004820152600e60248201526d14d85b194818dbdb5c1b195d195960921b6044820152606490fd5b1561264c57565b60405162461bcd60e51b81526020600482015260116024820152702737ba103a343290383ab931b430b9b2b960791b6044820152606490fd5b1561268c57565b60405162461bcd60e51b815260206004820152601060248201526f105b1c9958591e481c995919595b595960821b6044820152606490fd5b6126d260ff6002541661239c565b7f00000000000000000000000000000000000000000000000000000000000000006126fd828261231f565b9061275361272c7f00000000000000000000000000000000000000000000000000000000000000008094612332565b927f00000000000000000000000000000000000000000000000000000000000000006122fc565b60011c6127109182810290808204841490151715612309577f0000000000000000000000000000000000000000000000000000000000000000830392831161230957612501946127d46124e4926127ce6124e9967f000000000000000000000000000000000000000000000000000000000000000090612352565b90612332565b61231f565b6127107f00000000000000000000000000000000000000000000000000000000000000008103818111612309576128317f00000000000000000000000000000000000000000000000000000000000000008092612352565b906008548381029080820485149015171561230957612853926127d491612332565b0490565b6008547f000000000000000000000000000000000000000000000000000000000000000090818110156128da576124e9612501926124e47f0000000000000000000000000000000000000000000000000000000000000000936127d4857f0000000000000000000000000000000000000000000000000000000000000000612352565b50507f000000000000000000000000000000000000000000000000000000000000000090565b600260005414612911576002600055565b604051633ee5aeb560e01b8152600490fdfea26469706673582212208c84b33addf7ffc8ad1261b40d65bc0116279d12c4a8426d3309728a6900e95d64736f6c63430008180033c65a7bb8d6351c1cf70c95a316cc6a92839c986682d98bc35f958f4883f9d2a8",
          "opcodes": "PUSH2 0x1E0 PUSH1 0x40 MSTORE CALLVALUE PUSH3 0xDA0 JUMPI PUSH3 0x3815 DUP1 CODESIZE SUB DUP1 SWAP2 PUSH3 0x22 DUP3 PUSH2 0x1E0 PUSH3 0xDA5 JUMP JUMPDEST PUSH2 0x1E0 CODECOPY PUSH2 0x1E0 ADD PUSH2 0x1A0 PUSH2 0x1E0 DUP3 SUB SLT PUSH3 0xDA0 JUMPI PUSH2 0x1E0 MLOAD PUSH1 0x1 PUSH1 0x1 PUSH1 0x40 SHL SUB DUP2 GT PUSH3 0xDA0 JUMPI DUP2 PUSH3 0x5B SWAP2 PUSH2 0x1E0 ADD PUSH3 0xDC9 JUMP JUMPDEST PUSH2 0x200 MLOAD SWAP1 SWAP2 PUSH1 0x1 PUSH1 0x1 PUSH1 0x40 SHL SUB DUP3 GT PUSH3 0xDA0 JUMPI PUSH3 0x7F SWAP2 PUSH2 0x1E0 ADD PUSH3 0xDC9 JUMP JUMPDEST SWAP1 PUSH3 0x8D PUSH2 0x220 PUSH3 0xE3F JUMP JUMPDEST SWAP2 PUSH3 0x9B PUSH2 0x240 PUSH3 0xE3F JUMP JUMPDEST SWAP3 PUSH3 0xA9 PUSH2 0x260 PUSH3 0xE3F JUMP JUMPDEST SWAP1 PUSH3 0xB7 PUSH2 0x280 PUSH3 0xE3F JUMP JUMPDEST PUSH2 0x2A0 MLOAD PUSH2 0x2C0 MLOAD PUSH2 0x2E0 MLOAD PUSH2 0x300 MLOAD PUSH2 0x320 MLOAD PUSH2 0x100 SWAP11 SWAP1 SWAP8 SWAP2 SWAP7 SWAP3 SWAP6 SWAP4 SWAP5 SWAP4 SWAP1 SWAP3 SWAP2 PUSH3 0xE8 PUSH2 0x340 PUSH3 0xE3F JUMP JUMPDEST SWAP10 PUSH3 0xF6 PUSH2 0x360 PUSH3 0xE3F JUMP JUMPDEST SWAP12 PUSH1 0x1 PUSH1 0x0 SSTORE DUP1 MLOAD ISZERO PUSH3 0xD6B JUMPI DUP7 ISZERO ISZERO DUP1 PUSH3 0xD61 JUMPI JUMPDEST DUP1 PUSH3 0xD57 JUMPI JUMPDEST ISZERO PUSH3 0xD21 JUMPI DUP9 ISZERO PUSH3 0xCDC JUMPI PUSH1 0xC8 DUP11 LT PUSH3 0xC8B JUMPI DUP11 DUP11 ADD DUP1 DUP12 GT PUSH3 0xAF6 JUMPI PUSH2 0x1B58 LT PUSH3 0xC46 JUMPI PUSH1 0x1 PUSH1 0x1 PUSH1 0xA0 SHL SUB DUP13 AND ISZERO PUSH3 0xC01 JUMPI PUSH1 0x1 PUSH1 0x1 PUSH1 0xA0 SHL SUB DUP6 AND ISZERO ISZERO DUP1 PUSH3 0xBEE JUMPI JUMPDEST ISZERO PUSH3 0xBA9 JUMPI PUSH1 0x1 PUSH1 0x1 PUSH1 0xA0 SHL SUB DUP6 DUP2 AND SWAP1 DUP8 AND EQ PUSH3 0xB64 JUMPI PUSH1 0x1 PUSH1 0x1 PUSH1 0xA0 SHL SUB DUP4 AND ISZERO ISZERO DUP1 PUSH3 0xB51 JUMPI JUMPDEST ISZERO PUSH3 0xB0C JUMPI PUSH2 0x160 MLOAD PUSH2 0x2710 DUP2 DUP2 SUB GT PUSH3 0xAF6 JUMPI PUSH2 0x180 MLOAD DUP2 ADD SWAP1 PUSH2 0x2710 SUB DUP2 PUSH2 0x2710 SUB GT PUSH3 0xAF6 JUMPI PUSH2 0x2710 EQ PUSH3 0xAB1 JUMPI DUP1 MLOAD SWAP1 PUSH1 0x1 PUSH1 0x1 PUSH1 0x40 SHL SUB DUP3 GT PUSH3 0x6F0 JUMPI PUSH1 0xA SLOAD SWAP1 PUSH1 0x1 DUP3 DUP2 SHR SWAP3 AND DUP1 ISZERO PUSH3 0xAA6 JUMPI JUMPDEST PUSH1 0x20 DUP4 LT EQ PUSH3 0x6CF JUMPI DUP2 PUSH1 0x1F DUP5 SWAP4 GT PUSH3 0xA42 JUMPI JUMPDEST POP PUSH1 0x20 SWAP1 PUSH1 0x1F DUP4 GT PUSH1 0x1 EQ PUSH3 0x9C8 JUMPI PUSH1 0x0 SWAP3 PUSH3 0x9BC JUMPI JUMPDEST POP POP DUP2 PUSH1 0x1 SHL SWAP2 PUSH1 0x0 NOT SWAP1 PUSH1 0x3 SHL SHR NOT AND OR PUSH1 0xA SSTORE JUMPDEST DUP1 MLOAD SWAP1 PUSH1 0x1 PUSH1 0x1 PUSH1 0x40 SHL SUB DUP3 GT PUSH3 0x6F0 JUMPI PUSH1 0xB SLOAD SWAP1 PUSH1 0x1 DUP3 DUP2 SHR SWAP3 AND DUP1 ISZERO PUSH3 0x9B1 JUMPI JUMPDEST PUSH1 0x20 DUP4 LT EQ PUSH3 0x6CF JUMPI DUP2 PUSH1 0x1F DUP5 SWAP4 GT PUSH3 0x93C JUMPI JUMPDEST POP PUSH1 0x20 SWAP1 PUSH1 0x1F DUP4 GT PUSH1 0x1 EQ PUSH3 0x8B1 JUMPI PUSH1 0x0 SWAP3 PUSH3 0x8A5 JUMPI JUMPDEST POP POP DUP2 PUSH1 0x1 SHL SWAP2 PUSH1 0x0 NOT SWAP1 PUSH1 0x3 SHL SHR NOT AND OR PUSH1 0xB SSTORE JUMPDEST PUSH1 0x1 PUSH1 0x1 PUSH1 0xA0 SHL SUB DUP4 DUP2 AND PUSH1 0x80 DUP2 SWAP1 MSTORE DUP6 DUP3 AND PUSH1 0xA0 MSTORE SWAP2 DUP2 AND PUSH1 0xC0 MSTORE SWAP2 SWAP1 SWAP2 AND PUSH1 0xE0 MSTORE PUSH1 0x40 MLOAD PUSH4 0x313CE567 PUSH1 0xE0 SHL DUP2 MSTORE SWAP1 PUSH1 0x20 SWAP1 DUP3 SWAP1 PUSH1 0x4 SWAP1 DUP3 SWAP1 GAS STATICCALL DUP1 ISZERO PUSH3 0x72E JUMPI PUSH1 0xFF SWAP2 PUSH1 0x0 SWAP2 PUSH3 0x881 JUMPI JUMPDEST POP AND PUSH1 0xFF NOT PUSH1 0x2 SLOAD AND OR PUSH1 0x2 SSTORE PUSH1 0x40 MLOAD SWAP1 PUSH4 0x313CE567 PUSH1 0xE0 SHL DUP3 MSTORE PUSH1 0x20 DUP3 PUSH1 0x4 DUP2 PUSH1 0x1 DUP1 PUSH1 0xA0 SHL SUB DUP8 AND GAS STATICCALL SWAP1 DUP2 ISZERO PUSH3 0x72E JUMPI PUSH1 0xFF PUSH1 0x0 SWAP3 PUSH1 0x4 SWAP5 DUP5 SWAP2 PUSH3 0x84B JUMPI JUMPDEST POP DUP5 SLOAD PUSH1 0xFF NOT AND SWAP2 AND OR DUP4 SSTORE PUSH1 0x40 MLOAD PUSH4 0x95D89B41 PUSH1 0xE0 SHL DUP2 MSTORE SWAP3 DUP4 SWAP2 DUP3 SWAP1 PUSH1 0x1 PUSH1 0x1 PUSH1 0xA0 SHL SUB AND GAS STATICCALL SWAP1 DUP2 ISZERO PUSH3 0x72E JUMPI PUSH1 0x0 SWAP2 PUSH3 0x82C JUMPI JUMPDEST POP DUP1 MLOAD SWAP1 PUSH1 0x1 PUSH1 0x1 PUSH1 0x40 SHL SUB DUP3 GT PUSH3 0x6F0 JUMPI PUSH1 0x1 SLOAD PUSH1 0x1 DUP2 DUP2 SHR SWAP2 AND DUP1 ISZERO PUSH3 0x821 JUMPI JUMPDEST PUSH1 0x20 DUP3 LT EQ PUSH3 0x6CF JUMPI PUSH1 0x1F DUP2 GT PUSH3 0x7BB JUMPI JUMPDEST POP PUSH1 0x20 SWAP1 PUSH1 0x1F DUP4 GT PUSH1 0x1 EQ PUSH3 0x746 JUMPI SWAP2 DUP1 PUSH1 0x4 SWAP5 SWAP3 PUSH1 0x0 SWAP5 DUP6 SWAP3 PUSH3 0x73A JUMPI JUMPDEST POP POP DUP2 PUSH1 0x1 SHL SWAP2 DUP5 NOT SWAP1 PUSH1 0x3 SHL SHR NOT AND OR PUSH1 0x1 SSTORE JUMPDEST PUSH1 0x40 MLOAD PUSH4 0x95D89B41 PUSH1 0xE0 SHL DUP2 MSTORE SWAP3 DUP4 SWAP2 DUP3 SWAP1 PUSH1 0x1 PUSH1 0x1 PUSH1 0xA0 SHL SUB AND GAS STATICCALL SWAP1 DUP2 ISZERO PUSH3 0x72E JUMPI PUSH1 0x0 SWAP2 PUSH3 0x706 JUMPI JUMPDEST POP DUP1 MLOAD PUSH1 0x1 PUSH1 0x1 PUSH1 0x40 SHL SUB DUP2 GT PUSH3 0x6F0 JUMPI PUSH1 0x3 SWAP2 DUP3 SLOAD SWAP1 PUSH1 0x1 DUP3 DUP2 SHR SWAP3 AND DUP1 ISZERO PUSH3 0x6E5 JUMPI JUMPDEST PUSH1 0x20 DUP4 LT EQ PUSH3 0x6CF JUMPI DUP2 PUSH1 0x1F DUP5 SWAP4 GT PUSH3 0x677 JUMPI JUMPDEST POP PUSH1 0x20 SWAP1 PUSH1 0x1F DUP4 GT PUSH1 0x1 EQ PUSH3 0x60D JUMPI PUSH1 0x0 SWAP3 PUSH3 0x601 JUMPI JUMPDEST POP POP DUP2 PUSH1 0x1 SHL SWAP2 PUSH1 0x0 NOT SWAP1 DUP5 SHL SHR NOT AND OR SWAP1 SSTORE JUMPDEST PUSH2 0x1C0 SWAP7 DUP8 MSTORE DUP8 MSTORE PUSH2 0x120 MSTORE PUSH2 0x140 MSTORE PUSH2 0x160 MSTORE PUSH2 0x180 MSTORE PUSH2 0x1A0 MSTORE PUSH1 0x40 MLOAD SWAP1 PUSH2 0x2959 SWAP3 DUP4 PUSH3 0xE9C DUP5 CODECOPY PUSH1 0x80 MLOAD DUP4 DUP2 DUP2 PUSH2 0x229 ADD MSTORE DUP2 DUP2 PUSH2 0x374 ADD MSTORE DUP2 DUP2 PUSH2 0x487 ADD MSTORE DUP2 DUP2 PUSH2 0xDB0 ADD MSTORE DUP2 DUP2 PUSH2 0x1A3D ADD MSTORE PUSH2 0x2583 ADD MSTORE PUSH1 0xA0 MLOAD DUP4 DUP2 DUP2 PUSH2 0x778 ADD MSTORE DUP2 DUP2 PUSH2 0x1681 ADD MSTORE DUP2 DUP2 PUSH2 0x1792 ADD MSTORE DUP2 DUP2 PUSH2 0x1A8E ADD MSTORE PUSH2 0x209C ADD MSTORE PUSH1 0xC0 MLOAD DUP4 DUP2 DUP2 PUSH2 0x13CB ADD MSTORE PUSH2 0x1AED ADD MSTORE PUSH1 0xE0 MLOAD DUP4 DUP2 DUP2 PUSH2 0x1237 ADD MSTORE PUSH2 0x1C44 ADD MSTORE MLOAD DUP3 DUP2 DUP2 PUSH2 0x2C9 ADD MSTORE DUP2 DUP2 PUSH2 0x248E ADD MSTORE DUP2 DUP2 PUSH2 0x272F ADD MSTORE PUSH2 0x2890 ADD MSTORE PUSH2 0x120 MLOAD DUP3 DUP2 DUP2 PUSH2 0x110B ADD MSTORE DUP2 DUP2 PUSH2 0x19F9 ADD MSTORE DUP2 DUP2 PUSH2 0x24B4 ADD MSTORE DUP2 DUP2 PUSH2 0x2706 ADD MSTORE DUP2 DUP2 PUSH2 0x28B6 ADD MSTORE PUSH2 0x28DE ADD MSTORE PUSH2 0x140 MLOAD DUP3 DUP2 DUP2 PUSH2 0x68E ADD MSTORE DUP2 DUP2 PUSH2 0x11A4 ADD MSTORE DUP2 DUP2 PUSH2 0x11FF ADD MSTORE DUP2 DUP2 PUSH2 0x19D1 ADD MSTORE DUP2 DUP2 PUSH2 0x2455 ADD MSTORE DUP2 DUP2 PUSH2 0x26D4 ADD MSTORE PUSH2 0x285C ADD MSTORE PUSH2 0x160 MLOAD DUP3 DUP2 DUP2 PUSH2 0x6DC ADD MSTORE DUP2 DUP2 PUSH2 0x1485 ADD MSTORE DUP2 DUP2 PUSH2 0x23E4 ADD MSTORE DUP2 DUP2 PUSH2 0x276D ADD MSTORE PUSH2 0x27DE ADD MSTORE PUSH2 0x180 MLOAD DUP3 DUP2 DUP2 PUSH2 0x70D ADD MSTORE DUP2 DUP2 PUSH2 0x1165 ADD MSTORE DUP2 DUP2 PUSH2 0x240F ADD MSTORE DUP2 DUP2 PUSH2 0x27A9 ADD MSTORE PUSH2 0x280B ADD MSTORE PUSH2 0x1A0 MLOAD DUP3 DUP2 DUP2 PUSH2 0x877 ADD MSTORE DUP2 DUP2 PUSH2 0xD6E ADD MSTORE DUP2 DUP2 PUSH2 0x18D2 ADD MSTORE PUSH2 0x1D35 ADD MSTORE MLOAD DUP2 DUP2 DUP2 PUSH2 0x1916 ADD MSTORE PUSH2 0x1BD9 ADD MSTORE RETURN JUMPDEST ADD MLOAD SWAP1 POP CODESIZE DUP1 PUSH3 0x459 JUMP JUMPDEST PUSH1 0x0 DUP6 DUP2 MSTORE PUSH1 0x20 DUP2 KECCAK256 SWAP4 POP PUSH1 0x1F NOT DUP6 AND SWAP1 JUMPDEST DUP2 DUP2 LT PUSH3 0x65E JUMPI POP SWAP1 DUP5 PUSH1 0x1 SWAP6 SWAP5 SWAP4 SWAP3 LT PUSH3 0x645 JUMPI JUMPDEST POP POP POP DUP2 SHL ADD SWAP1 SSTORE PUSH3 0x46D JUMP JUMPDEST ADD MLOAD PUSH1 0x0 NOT DUP4 DUP7 SHL PUSH1 0xF8 AND SHR NOT AND SWAP1 SSTORE CODESIZE DUP1 DUP1 PUSH3 0x637 JUMP JUMPDEST SWAP3 SWAP4 PUSH1 0x20 PUSH1 0x1 DUP2 SWAP3 DUP8 DUP7 ADD MLOAD DUP2 SSTORE ADD SWAP6 ADD SWAP4 ADD PUSH3 0x61F JUMP JUMPDEST SWAP1 SWAP2 POP DUP4 PUSH1 0x0 MSTORE PUSH1 0x20 PUSH1 0x0 KECCAK256 PUSH1 0x1F DUP5 ADD PUSH1 0x5 SHR DUP2 ADD SWAP2 PUSH1 0x20 DUP6 LT PUSH3 0x6C4 JUMPI JUMPDEST SWAP1 PUSH1 0x1F DUP6 SWAP5 SWAP4 SWAP3 ADD PUSH1 0x5 SHR ADD SWAP1 JUMPDEST DUP2 DUP2 LT PUSH3 0x6B4 JUMPI POP PUSH3 0x440 JUMP JUMPDEST PUSH1 0x0 DUP2 SSTORE DUP5 SWAP4 POP PUSH1 0x1 ADD PUSH3 0x6A5 JUMP JUMPDEST SWAP1 SWAP2 POP DUP2 SWAP1 PUSH3 0x697 JUMP JUMPDEST PUSH4 0x4E487B71 PUSH1 0xE0 SHL PUSH1 0x0 MSTORE PUSH1 0x22 PUSH1 0x4 MSTORE PUSH1 0x24 PUSH1 0x0 REVERT JUMPDEST SWAP2 PUSH1 0x7F AND SWAP2 PUSH3 0x42A JUMP JUMPDEST PUSH4 0x4E487B71 PUSH1 0xE0 SHL PUSH1 0x0 MSTORE PUSH1 0x41 PUSH1 0x4 MSTORE PUSH1 0x24 PUSH1 0x0 REVERT JUMPDEST PUSH3 0x727 SWAP2 POP RETURNDATASIZE DUP1 PUSH1 0x0 DUP4 RETURNDATACOPY PUSH3 0x71E DUP2 DUP4 PUSH3 0xDA5 JUMP JUMPDEST DUP2 ADD SWAP1 PUSH3 0xE6F JUMP JUMPDEST CODESIZE PUSH3 0x403 JUMP JUMPDEST PUSH1 0x40 MLOAD RETURNDATASIZE PUSH1 0x0 DUP3 RETURNDATACOPY RETURNDATASIZE SWAP1 REVERT JUMPDEST ADD MLOAD SWAP1 POP CODESIZE DUP1 PUSH3 0x3C0 JUMP JUMPDEST SWAP1 PUSH1 0x1 PUSH1 0x0 MSTORE PUSH1 0x20 PUSH1 0x0 KECCAK256 SWAP2 PUSH1 0x0 JUMPDEST PUSH1 0x1F NOT DUP6 AND DUP2 LT PUSH3 0x7A2 JUMPI POP SWAP3 PUSH1 0x4 SWAP5 SWAP3 PUSH1 0x1 SWAP3 PUSH1 0x0 SWAP6 DUP4 PUSH1 0x1F NOT DUP2 AND LT PUSH3 0x789 JUMPI JUMPDEST POP POP POP DUP2 SHL ADD PUSH1 0x1 SSTORE PUSH3 0x3D5 JUMP JUMPDEST ADD MLOAD DUP6 NOT PUSH1 0xF8 DUP5 PUSH1 0x3 SHL AND SHR NOT AND SWAP1 SSTORE CODESIZE DUP1 DUP1 PUSH3 0x77A JUMP JUMPDEST SWAP2 SWAP3 PUSH1 0x20 PUSH1 0x1 DUP2 SWAP3 DUP7 DUP6 ADD MLOAD DUP2 SSTORE ADD SWAP5 ADD SWAP3 ADD PUSH3 0x755 JUMP JUMPDEST PUSH1 0x1 PUSH1 0x0 MSTORE PUSH32 0xB10E2D527612073B26EECDFD717E6A320CF44B4AFAC2B0732D9FCBE2B7FA0CF6 PUSH1 0x1F DUP5 ADD PUSH1 0x5 SHR DUP2 ADD PUSH1 0x20 DUP6 LT PUSH3 0x819 JUMPI JUMPDEST PUSH1 0x1F DUP4 ADD PUSH1 0x5 SHR DUP3 ADD DUP2 LT PUSH3 0x80C JUMPI POP POP PUSH3 0x39F JUMP JUMPDEST PUSH1 0x0 DUP2 SSTORE PUSH1 0x1 ADD PUSH3 0x7F4 JUMP JUMPDEST POP DUP1 PUSH3 0x7F4 JUMP JUMPDEST SWAP1 PUSH1 0x7F AND SWAP1 PUSH3 0x38B JUMP JUMPDEST PUSH3 0x844 SWAP2 POP RETURNDATASIZE DUP1 PUSH1 0x0 DUP4 RETURNDATACOPY PUSH3 0x71E DUP2 DUP4 PUSH3 0xDA5 JUMP JUMPDEST CODESIZE PUSH3 0x366 JUMP JUMPDEST PUSH3 0x872 SWAP2 POP PUSH1 0x20 RETURNDATASIZE PUSH1 0x20 GT PUSH3 0x879 JUMPI JUMPDEST PUSH3 0x869 DUP2 DUP4 PUSH3 0xDA5 JUMP JUMPDEST DUP2 ADD SWAP1 PUSH3 0xE54 JUMP JUMPDEST CODESIZE PUSH3 0x32C JUMP JUMPDEST POP RETURNDATASIZE PUSH3 0x85D JUMP JUMPDEST PUSH3 0x89E SWAP2 POP PUSH1 0x20 RETURNDATASIZE PUSH1 0x20 GT PUSH3 0x879 JUMPI PUSH3 0x869 DUP2 DUP4 PUSH3 0xDA5 JUMP JUMPDEST CODESIZE PUSH3 0x2E8 JUMP JUMPDEST ADD MLOAD SWAP1 POP CODESIZE DUP1 PUSH3 0x282 JUMP JUMPDEST PUSH1 0xB PUSH1 0x0 SWAP1 DUP2 MSTORE PUSH32 0x175B7A638427703F0DBE7BB9BBF987A2551717B34E79F33B5B1008D1FA01DB9 SWAP4 POP PUSH1 0x1F NOT DUP6 AND SWAP1 JUMPDEST DUP2 DUP2 LT PUSH3 0x923 JUMPI POP SWAP1 DUP5 PUSH1 0x1 SWAP6 SWAP5 SWAP4 SWAP3 LT PUSH3 0x909 JUMPI JUMPDEST POP POP POP DUP2 SHL ADD PUSH1 0xB SSTORE PUSH3 0x298 JUMP JUMPDEST ADD MLOAD PUSH1 0x0 NOT PUSH1 0xF8 DUP5 PUSH1 0x3 SHL AND SHR NOT AND SWAP1 SSTORE CODESIZE DUP1 DUP1 PUSH3 0x8FA JUMP JUMPDEST SWAP3 SWAP4 PUSH1 0x20 PUSH1 0x1 DUP2 SWAP3 DUP8 DUP7 ADD MLOAD DUP2 SSTORE ADD SWAP6 ADD SWAP4 ADD PUSH3 0x8E2 JUMP JUMPDEST PUSH1 0xB PUSH1 0x0 MSTORE SWAP1 SWAP2 POP PUSH32 0x175B7A638427703F0DBE7BB9BBF987A2551717B34E79F33B5B1008D1FA01DB9 PUSH1 0x1F DUP5 ADD PUSH1 0x5 SHR DUP2 ADD SWAP2 PUSH1 0x20 DUP6 LT PUSH3 0x9A6 JUMPI JUMPDEST SWAP1 PUSH1 0x1F DUP6 SWAP5 SWAP4 SWAP3 ADD PUSH1 0x5 SHR ADD SWAP1 JUMPDEST DUP2 DUP2 LT PUSH3 0x996 JUMPI POP PUSH3 0x269 JUMP JUMPDEST PUSH1 0x0 DUP2 SSTORE DUP5 SWAP4 POP PUSH1 0x1 ADD PUSH3 0x987 JUMP JUMPDEST SWAP1 SWAP2 POP DUP2 SWAP1 PUSH3 0x979 JUMP JUMPDEST SWAP2 PUSH1 0x7F AND SWAP2 PUSH3 0x253 JUMP JUMPDEST ADD MLOAD SWAP1 POP CODESIZE DUP1 PUSH3 0x218 JUMP JUMPDEST PUSH1 0xA PUSH1 0x0 SWAP1 DUP2 MSTORE PUSH1 0x0 DUP1 MLOAD PUSH1 0x20 PUSH3 0x37F5 DUP4 CODECOPY DUP2 MLOAD SWAP2 MSTORE SWAP4 POP PUSH1 0x1F NOT DUP6 AND SWAP1 JUMPDEST DUP2 DUP2 LT PUSH3 0xA29 JUMPI POP SWAP1 DUP5 PUSH1 0x1 SWAP6 SWAP5 SWAP4 SWAP3 LT PUSH3 0xA0F JUMPI JUMPDEST POP POP POP DUP2 SHL ADD PUSH1 0xA SSTORE PUSH3 0x22E JUMP JUMPDEST ADD MLOAD PUSH1 0x0 NOT PUSH1 0xF8 DUP5 PUSH1 0x3 SHL AND SHR NOT AND SWAP1 SSTORE CODESIZE DUP1 DUP1 PUSH3 0xA00 JUMP JUMPDEST SWAP3 SWAP4 PUSH1 0x20 PUSH1 0x1 DUP2 SWAP3 DUP8 DUP7 ADD MLOAD DUP2 SSTORE ADD SWAP6 ADD SWAP4 ADD PUSH3 0x9E8 JUMP JUMPDEST PUSH1 0xA PUSH1 0x0 MSTORE SWAP1 SWAP2 POP PUSH1 0x0 DUP1 MLOAD PUSH1 0x20 PUSH3 0x37F5 DUP4 CODECOPY DUP2 MLOAD SWAP2 MSTORE PUSH1 0x1F DUP5 ADD PUSH1 0x5 SHR DUP2 ADD SWAP2 PUSH1 0x20 DUP6 LT PUSH3 0xA9B JUMPI JUMPDEST SWAP1 PUSH1 0x1F DUP6 SWAP5 SWAP4 SWAP3 ADD PUSH1 0x5 SHR ADD SWAP1 JUMPDEST DUP2 DUP2 LT PUSH3 0xA8B JUMPI POP PUSH3 0x1FF JUMP JUMPDEST PUSH1 0x0 DUP2 SSTORE DUP5 SWAP4 POP PUSH1 0x1 ADD PUSH3 0xA7C JUMP JUMPDEST SWAP1 SWAP2 POP DUP2 SWAP1 PUSH3 0xA6E JUMP JUMPDEST SWAP2 PUSH1 0x7F AND SWAP2 PUSH3 0x1E9 JUMP JUMPDEST PUSH1 0x40 MLOAD PUSH3 0x461BCD PUSH1 0xE5 SHL DUP2 MSTORE PUSH1 0x20 PUSH1 0x4 DUP3 ADD MSTORE PUSH1 0x17 PUSH1 0x24 DUP3 ADD MSTORE PUSH32 0x496E76616C69642072616B6520706172616D6574657273000000000000000000 PUSH1 0x44 DUP3 ADD MSTORE PUSH1 0x64 SWAP1 REVERT JUMPDEST PUSH4 0x4E487B71 PUSH1 0xE0 SHL PUSH1 0x0 MSTORE PUSH1 0x11 PUSH1 0x4 MSTORE PUSH1 0x24 PUSH1 0x0 REVERT JUMPDEST PUSH1 0x40 MLOAD PUSH3 0x461BCD PUSH1 0xE5 SHL DUP2 MSTORE PUSH1 0x20 PUSH1 0x4 DUP3 ADD MSTORE PUSH1 0x19 PUSH1 0x24 DUP3 ADD MSTORE PUSH32 0x496E76616C696420556E69737761702061646472657373657300000000000000 PUSH1 0x44 DUP3 ADD MSTORE PUSH1 0x64 SWAP1 REVERT JUMPDEST POP PUSH1 0x1 PUSH1 0x1 PUSH1 0xA0 SHL SUB DUP5 AND ISZERO ISZERO PUSH3 0x18F JUMP JUMPDEST PUSH1 0x40 MLOAD PUSH3 0x461BCD PUSH1 0xE5 SHL DUP2 MSTORE PUSH1 0x20 PUSH1 0x4 DUP3 ADD MSTORE PUSH1 0x18 PUSH1 0x24 DUP3 ADD MSTORE PUSH32 0x546F6B656E73206D75737420626520646966666572656E740000000000000000 PUSH1 0x44 DUP3 ADD MSTORE PUSH1 0x64 SWAP1 REVERT JUMPDEST PUSH1 0x40 MLOAD PUSH3 0x461BCD PUSH1 0xE5 SHL DUP2 MSTORE PUSH1 0x20 PUSH1 0x4 DUP3 ADD MSTORE PUSH1 0x17 PUSH1 0x24 DUP3 ADD MSTORE PUSH32 0x496E76616C696420746F6B656E20616464726573736573000000000000000000 PUSH1 0x44 DUP3 ADD MSTORE PUSH1 0x64 SWAP1 REVERT JUMPDEST POP PUSH1 0x1 PUSH1 0x1 PUSH1 0xA0 SHL SUB DUP7 AND ISZERO ISZERO PUSH3 0x162 JUMP JUMPDEST PUSH1 0x40 MLOAD PUSH3 0x461BCD PUSH1 0xE5 SHL DUP2 MSTORE PUSH1 0x20 PUSH1 0x4 DUP3 ADD MSTORE PUSH1 0x17 PUSH1 0x24 DUP3 ADD MSTORE PUSH32 0x496E76616C696420666F756E646572732077616C6C6574000000000000000000 PUSH1 0x44 DUP3 ADD MSTORE PUSH1 0x64 SWAP1 REVERT JUMPDEST PUSH1 0x40 MLOAD PUSH3 0x461BCD PUSH1 0xE5 SHL DUP2 MSTORE PUSH1 0x20 PUSH1 0x4 DUP3 ADD MSTORE PUSH1 0x1A PUSH1 0x24 DUP3 ADD MSTORE PUSH32 0x436F6D62696E65642072616B6520373025206578636565646564000000000000 PUSH1 0x44 DUP3 ADD MSTORE PUSH1 0x64 SWAP1 REVERT JUMPDEST PUSH1 0x40 MLOAD PUSH3 0x461BCD PUSH1 0xE5 SHL DUP2 MSTORE PUSH1 0x20 PUSH1 0x4 DUP3 ADD MSTORE PUSH1 0x24 DUP1 DUP3 ADD MSTORE PUSH32 0x557066726F6E742072616B65206D757374206265203E3D204F74746572506164 PUSH1 0x44 DUP3 ADD MSTORE PUSH4 0x20666565 PUSH1 0xE0 SHL PUSH1 0x64 DUP3 ADD MSTORE PUSH1 0x84 SWAP1 REVERT JUMPDEST PUSH1 0x40 MLOAD PUSH3 0x461BCD PUSH1 0xE5 SHL DUP2 MSTORE PUSH1 0x20 PUSH1 0x4 DUP3 ADD MSTORE PUSH1 0x16 PUSH1 0x24 DUP3 ADD MSTORE PUSH32 0x496E76616C6964207461726765742066756E64696E6700000000000000000000 PUSH1 0x44 DUP3 ADD MSTORE PUSH1 0x64 SWAP1 REVERT JUMPDEST PUSH1 0x40 MLOAD PUSH3 0x461BCD PUSH1 0xE5 SHL DUP2 MSTORE PUSH1 0x20 PUSH1 0x4 DUP3 ADD MSTORE PUSH1 0xE PUSH1 0x24 DUP3 ADD MSTORE PUSH14 0x496E76616C696420707269636573 PUSH1 0x90 SHL PUSH1 0x44 DUP3 ADD MSTORE PUSH1 0x64 SWAP1 REVERT JUMPDEST POP DUP7 DUP9 GT PUSH3 0x115 JUMP JUMPDEST POP DUP8 ISZERO ISZERO PUSH3 0x10E JUMP JUMPDEST PUSH1 0x40 MLOAD PUSH3 0x461BCD PUSH1 0xE5 SHL DUP2 MSTORE PUSH1 0x20 PUSH1 0x4 DUP3 ADD MSTORE PUSH1 0xD PUSH1 0x24 DUP3 ADD MSTORE PUSH13 0x496E76616C6964207469746C65 PUSH1 0x98 SHL PUSH1 0x44 DUP3 ADD MSTORE PUSH1 0x64 SWAP1 REVERT JUMPDEST PUSH1 0x0 DUP1 REVERT JUMPDEST PUSH1 0x1F SWAP1 SWAP2 ADD PUSH1 0x1F NOT AND DUP2 ADD SWAP1 PUSH1 0x1 PUSH1 0x1 PUSH1 0x40 SHL SUB DUP3 GT SWAP1 DUP3 LT OR PUSH3 0x6F0 JUMPI PUSH1 0x40 MSTORE JUMP JUMPDEST SWAP2 SWAP1 DUP1 PUSH1 0x1F DUP5 ADD SLT ISZERO PUSH3 0xDA0 JUMPI DUP3 MLOAD PUSH1 0x1 PUSH1 0x1 PUSH1 0x40 SHL SUB DUP2 GT PUSH3 0x6F0 JUMPI PUSH1 0x20 SWAP1 PUSH1 0x40 MLOAD SWAP3 PUSH3 0xE04 DUP4 PUSH1 0x1F NOT PUSH1 0x1F DUP6 ADD AND ADD DUP6 PUSH3 0xDA5 JUMP JUMPDEST DUP2 DUP5 MSTORE DUP3 DUP3 DUP8 ADD ADD GT PUSH3 0xDA0 JUMPI PUSH1 0x0 JUMPDEST DUP2 DUP2 LT PUSH3 0xE2B JUMPI POP DUP3 PUSH1 0x0 SWAP4 SWAP5 SWAP6 POP ADD ADD MSTORE SWAP1 JUMP JUMPDEST DUP6 DUP2 ADD DUP4 ADD MLOAD DUP5 DUP3 ADD DUP5 ADD MSTORE DUP3 ADD PUSH3 0xE15 JUMP JUMPDEST MLOAD SWAP1 PUSH1 0x1 PUSH1 0x1 PUSH1 0xA0 SHL SUB DUP3 AND DUP3 SUB PUSH3 0xDA0 JUMPI JUMP JUMPDEST SWAP1 DUP2 PUSH1 0x20 SWAP2 SUB SLT PUSH3 0xDA0 JUMPI MLOAD PUSH1 0xFF DUP2 AND DUP2 SUB PUSH3 0xDA0 JUMPI SWAP1 JUMP JUMPDEST SWAP1 PUSH1 0x20 DUP3 DUP3 SUB SLT PUSH3 0xDA0 JUMPI DUP2 MLOAD PUSH1 0x1 PUSH1 0x1 PUSH1 0x40 SHL SUB DUP2 GT PUSH3 0xDA0 JUMPI PUSH3 0xE98 SWAP3 ADD PUSH3 0xDC9 JUMP JUMPDEST SWAP1 JUMP INVALID PUSH1 0x80 PUSH1 0x40 DUP2 DUP2 MSTORE PUSH1 0x4 SWAP1 DUP2 CALLDATASIZE LT ISZERO PUSH2 0x16 JUMPI PUSH1 0x0 DUP1 REVERT JUMPDEST PUSH1 0x0 SWAP3 DUP4 CALLDATALOAD PUSH1 0xE0 SHR SWAP1 DUP2 PUSH4 0x2A9E714 EQ PUSH2 0x21F7 JUMPI POP DUP1 PUSH4 0xE022923 EQ PUSH2 0x20DD JUMPI DUP1 PUSH4 0xF8C2798 EQ PUSH2 0x206F JUMPI DUP1 PUSH4 0x10D0FFDD EQ PUSH2 0x204F JUMPI DUP1 PUSH4 0x12EFF12C EQ PUSH2 0x196B JUMPI DUP1 PUSH4 0x16C04948 EQ PUSH2 0x1945 JUMPI DUP1 PUSH4 0x16C94B38 EQ PUSH2 0x1901 JUMPI DUP1 PUSH4 0x1BFAF155 EQ PUSH2 0x18BD JUMPI DUP1 PUSH4 0x25F97FB9 EQ PUSH2 0x1899 JUMPI DUP1 PUSH4 0x278ECDE1 EQ PUSH2 0x16B0 JUMPI DUP1 PUSH4 0x3013CE29 EQ PUSH2 0x166C JUMPI DUP1 PUSH4 0x325CD796 EQ PUSH2 0x164B JUMPI DUP1 PUSH4 0x3BDE5BA8 EQ PUSH2 0x1624 JUMPI DUP1 PUSH4 0x44AF14A8 EQ PUSH2 0x1567 JUMPI DUP1 PUSH4 0x4A79D50C EQ PUSH2 0x14A8 JUMPI DUP1 PUSH4 0x560B842C EQ PUSH2 0x146D JUMPI DUP1 PUSH4 0x5A59C551 EQ PUSH2 0x1417 JUMPI DUP1 PUSH4 0x5F655EA7 EQ PUSH2 0x13FA JUMPI DUP1 PUSH4 0x735DE9F7 EQ PUSH2 0x13B6 JUMPI DUP1 PUSH4 0x73EE6084 EQ PUSH2 0x12F7 JUMPI DUP1 PUSH4 0x8392FE31 EQ PUSH2 0x1283 JUMPI DUP1 PUSH4 0x8A19ECEF EQ PUSH2 0x1266 JUMPI DUP1 PUSH4 0x8BDB2AFA EQ PUSH2 0x1222 JUMPI DUP1 PUSH4 0x92258EC8 EQ PUSH2 0x11E7 JUMPI DUP1 PUSH4 0x9513A0FD EQ PUSH2 0x11C8 JUMPI DUP1 PUSH4 0xAF5B065A EQ PUSH2 0x1188 JUMPI DUP1 PUSH4 0xB704A0C4 EQ PUSH2 0x114D JUMPI DUP1 PUSH4 0xB789BF52 EQ PUSH2 0x112E JUMPI DUP1 PUSH4 0xB868723E EQ PUSH2 0x10F3 JUMPI DUP1 PUSH4 0xBDD3D825 EQ PUSH2 0x10C7 JUMPI DUP1 PUSH4 0xBEF08860 EQ PUSH2 0x1017 JUMPI DUP1 PUSH4 0xC07F773A EQ PUSH2 0xFF8 JUMPI DUP1 PUSH4 0xC596F3FE EQ PUSH2 0xD46 JUMPI DUP1 PUSH4 0xC7C8B437 EQ PUSH2 0xC43 JUMPI DUP1 PUSH4 0xD96A094A EQ PUSH2 0x654 JUMPI DUP1 PUSH4 0xDB006A75 EQ PUSH2 0x3C2 JUMPI DUP1 PUSH4 0xDE7E3310 EQ PUSH2 0x3A3 JUMPI DUP1 PUSH4 0xE985E367 EQ PUSH2 0x35F JUMPI DUP1 PUSH4 0xEB91D37E EQ PUSH2 0x33B JUMPI DUP1 PUSH4 0xEDAFC9AF EQ PUSH2 0x30C JUMPI DUP1 PUSH4 0xEF5EE995 EQ PUSH2 0x2F0 JUMPI DUP1 PUSH4 0xF1A9AF89 EQ PUSH2 0x2B1 JUMPI PUSH4 0xF6A55A29 EQ PUSH2 0x1FD JUMPI PUSH1 0x0 DUP1 REVERT JUMPDEST CALLVALUE PUSH2 0x29B JUMPI DUP3 PUSH1 0x3 NOT CALLDATASIZE ADD SLT PUSH2 0x29B JUMPI DUP1 MLOAD PUSH4 0x70A08231 PUSH1 0xE0 SHL DUP2 MSTORE ADDRESS SWAP3 DUP2 ADD SWAP3 SWAP1 SWAP3 MSTORE PUSH1 0x20 DUP3 PUSH1 0x24 DUP2 PUSH32 0x0 PUSH1 0x1 PUSH1 0x1 PUSH1 0xA0 SHL SUB AND GAS STATICCALL SWAP2 DUP3 ISZERO PUSH2 0x2A7 JUMPI DUP4 SWAP3 PUSH2 0x26B JUMPI JUMPDEST PUSH1 0x20 DUP4 DUP4 MLOAD SWAP1 DUP2 MSTORE RETURN JUMPDEST SWAP1 SWAP2 POP PUSH1 0x20 DUP2 RETURNDATASIZE PUSH1 0x20 GT PUSH2 0x29F JUMPI JUMPDEST DUP2 PUSH2 0x287 PUSH1 0x20 SWAP4 DUP4 PUSH2 0x2263 JUMP JUMPDEST DUP2 ADD SUB SLT PUSH2 0x29B JUMPI PUSH1 0x20 SWAP3 POP MLOAD SWAP1 CODESIZE PUSH2 0x261 JUMP JUMPDEST DUP3 DUP1 REVERT JUMPDEST RETURNDATASIZE SWAP2 POP PUSH2 0x27A JUMP JUMPDEST DUP2 MLOAD RETURNDATASIZE DUP6 DUP3 RETURNDATACOPY RETURNDATASIZE SWAP1 REVERT JUMPDEST DUP4 DUP3 CALLVALUE PUSH2 0x2EC JUMPI DUP2 PUSH1 0x3 NOT CALLDATASIZE ADD SLT PUSH2 0x2EC JUMPI PUSH1 0x20 SWAP1 MLOAD PUSH32 0x0 DUP2 MSTORE RETURN JUMPDEST POP DUP1 REVERT JUMPDEST DUP4 DUP3 CALLVALUE PUSH2 0x2EC JUMPI DUP2 PUSH1 0x3 NOT CALLDATASIZE ADD SLT PUSH2 0x2EC JUMPI PUSH1 0x20 SWAP1 MLOAD PUSH1 0xC8 DUP2 MSTORE RETURN JUMPDEST DUP4 DUP3 CALLVALUE PUSH2 0x2EC JUMPI DUP2 PUSH1 0x3 NOT CALLDATASIZE ADD SLT PUSH2 0x2EC JUMPI PUSH1 0x20 SWAP1 MLOAD PUSH20 0x6C83E86E05697C995D718C1CFA3F9045A38C7CD4 DUP2 MSTORE RETURN JUMPDEST DUP4 DUP3 CALLVALUE PUSH2 0x2EC JUMPI DUP2 PUSH1 0x3 NOT CALLDATASIZE ADD SLT PUSH2 0x2EC JUMPI PUSH1 0x20 SWAP1 PUSH2 0x358 PUSH2 0x2857 JUMP JUMPDEST SWAP1 MLOAD SWAP1 DUP2 MSTORE RETURN JUMPDEST DUP4 DUP3 CALLVALUE PUSH2 0x2EC JUMPI DUP2 PUSH1 0x3 NOT CALLDATASIZE ADD SLT PUSH2 0x2EC JUMPI MLOAD PUSH32 0x0 PUSH1 0x1 PUSH1 0x1 PUSH1 0xA0 SHL SUB AND DUP2 MSTORE PUSH1 0x20 SWAP1 RETURN JUMPDEST DUP4 DUP3 CALLVALUE PUSH2 0x2EC JUMPI DUP2 PUSH1 0x3 NOT CALLDATASIZE ADD SLT PUSH2 0x2EC JUMPI PUSH1 0x20 SWAP1 PUSH1 0x9 SLOAD SWAP1 MLOAD SWAP1 DUP2 MSTORE RETURN JUMPDEST POP CALLVALUE PUSH2 0x29B JUMPI PUSH1 0x20 DUP1 PUSH1 0x3 NOT CALLDATASIZE ADD SLT PUSH2 0x650 JUMPI DUP3 CALLDATALOAD SWAP3 PUSH2 0x3E0 PUSH2 0x2900 JUMP JUMPDEST PUSH1 0x6 SLOAD PUSH1 0xFF DUP2 PUSH1 0x8 SHR AND ISZERO PUSH2 0x615 JUMPI PUSH1 0xFF AND ISZERO PUSH2 0x5D4 JUMPI DUP4 DUP6 MSTORE PUSH1 0xC DUP3 MSTORE DUP3 DUP6 KECCAK256 PUSH1 0x3 DUP2 ADD DUP1 SLOAD SWAP1 SWAP3 SWAP2 PUSH1 0x1 PUSH1 0x1 PUSH1 0xA0 SHL SUB SWAP2 SWAP1 PUSH2 0x421 DUP4 DUP4 AND CALLER EQ PUSH2 0x2645 JUMP JUMPDEST PUSH1 0xFF DUP3 PUSH1 0xA0 SHR AND PUSH2 0x59C JUMPI PUSH1 0x2 SWAP1 PUSH2 0x43F PUSH1 0xFF DUP5 PUSH1 0xA8 SHR AND ISZERO PUSH2 0x2685 JUMP JUMPDEST ADD SWAP4 DUP5 SLOAD SWAP2 DUP3 ISZERO PUSH2 0x563 JUMPI PUSH1 0xFF PUSH1 0xA8 SHL NOT AND PUSH1 0x1 PUSH1 0xA8 SHL OR SWAP1 SSTORE DUP6 MLOAD PUSH4 0xA9059CBB PUSH1 0xE0 SHL DUP2 MSTORE CALLER DUP5 DUP3 ADD SWAP1 DUP2 MSTORE PUSH1 0x20 DUP2 ADD SWAP3 SWAP1 SWAP3 MSTORE SWAP2 DUP6 SWAP2 DUP4 SWAP2 SWAP1 DUP3 SWAP1 DUP12 SWAP1 DUP3 SWAP1 PUSH1 0x40 ADD SUB SWAP3 PUSH32 0x0 AND GAS CALL SWAP1 DUP2 ISZERO PUSH2 0x559 JUMPI DUP8 SWAP2 PUSH2 0x52C JUMPI JUMPDEST POP ISZERO PUSH2 0x4F1 JUMPI POP SWAP1 PUSH32 0xD171FB179B26C49E23FE46EDDD44D3048A1AD277B62144AC0725FBCF1DBF6D52 SWAP2 SLOAD SWAP3 MLOAD SWAP3 DUP4 MSTORE CALLER SWAP3 LOG3 PUSH1 0x1 DUP2 SSTORE DUP1 RETURN JUMPDEST DUP4 MLOAD PUSH3 0x461BCD PUSH1 0xE5 SHL DUP2 MSTORE SWAP1 DUP2 ADD DUP4 SWAP1 MSTORE PUSH1 0x15 PUSH1 0x24 DUP3 ADD MSTORE PUSH21 0x151BDAD95B881D1C985B9CD9995C8819985A5B1959 PUSH1 0x5A SHL PUSH1 0x44 DUP3 ADD MSTORE PUSH1 0x64 SWAP1 REVERT JUMPDEST PUSH2 0x54C SWAP2 POP DUP5 RETURNDATASIZE DUP7 GT PUSH2 0x552 JUMPI JUMPDEST PUSH2 0x544 DUP2 DUP4 PUSH2 0x2263 JUMP JUMPDEST DUP2 ADD SWAP1 PUSH2 0x2550 JUMP JUMPDEST CODESIZE PUSH2 0x4B7 JUMP JUMPDEST POP RETURNDATASIZE PUSH2 0x53A JUMP JUMPDEST DUP6 MLOAD RETURNDATASIZE DUP10 DUP3 RETURNDATACOPY RETURNDATASIZE SWAP1 REVERT JUMPDEST DUP8 MLOAD PUSH3 0x461BCD PUSH1 0xE5 SHL DUP2 MSTORE DUP1 DUP7 ADD DUP9 SWAP1 MSTORE PUSH1 0x13 PUSH1 0x24 DUP3 ADD MSTORE PUSH19 0x4E6F20746F6B656E7320746F2072656465656D PUSH1 0x68 SHL PUSH1 0x44 DUP3 ADD MSTORE PUSH1 0x64 SWAP1 REVERT JUMPDEST DUP7 MLOAD PUSH3 0x461BCD PUSH1 0xE5 SHL DUP2 MSTORE DUP1 DUP6 ADD DUP8 SWAP1 MSTORE PUSH1 0x12 PUSH1 0x24 DUP3 ADD MSTORE PUSH18 0x13DC99195C881DD85CC81C99599D5B991959 PUSH1 0x72 SHL PUSH1 0x44 DUP3 ADD MSTORE PUSH1 0x64 SWAP1 REVERT JUMPDEST SWAP2 MLOAD PUSH3 0x461BCD PUSH1 0xE5 SHL DUP2 MSTORE SWAP2 DUP3 ADD MSTORE PUSH1 0x17 PUSH1 0x24 DUP3 ADD MSTORE PUSH32 0x4E6F7420796574206465706C6F79656420746F20444558000000000000000000 PUSH1 0x44 DUP3 ADD MSTORE PUSH1 0x64 SWAP1 REVERT JUMPDEST POP SWAP2 MLOAD PUSH3 0x461BCD PUSH1 0xE5 SHL DUP2 MSTORE SWAP2 DUP3 ADD MSTORE PUSH1 0x16 PUSH1 0x24 DUP3 ADD MSTORE PUSH22 0x15185C99D95D081B9BDD081C995858DA1959081E595D PUSH1 0x52 SHL PUSH1 0x44 DUP3 ADD MSTORE PUSH1 0x64 SWAP1 REVERT JUMPDEST DUP4 DUP1 REVERT JUMPDEST POP SWAP1 CALLVALUE PUSH2 0x29B JUMPI PUSH1 0x20 DUP1 PUSH1 0x3 NOT CALLDATASIZE ADD SLT PUSH2 0x650 JUMPI DUP2 CALLDATALOAD SWAP2 PUSH2 0x673 PUSH2 0x2900 JUMP JUMPDEST PUSH1 0xFF PUSH1 0x6 SLOAD PUSH2 0x684 DUP3 DUP3 AND ISZERO PUSH2 0x2608 JUMP JUMPDEST PUSH1 0x8 SHR AND PUSH2 0xC09 JUMPI PUSH32 0x0 SWAP4 PUSH3 0xF4240 DUP6 DIV DUP5 LT PUSH2 0xBCF JUMPI PUSH1 0xC8 DUP5 MUL DUP5 DUP2 DIV PUSH1 0xC8 EQ DUP6 ISZERO OR ISZERO PUSH2 0xBBC JUMPI PUSH2 0x2710 DUP1 SWAP2 DIV PUSH2 0x707 DUP2 DUP4 PUSH2 0x701 PUSH32 0x0 DUP11 PUSH2 0x231F JUMP JUMPDEST DIV PUSH2 0x2352 JUMP JUMPDEST SWAP2 PUSH2 0x732 PUSH32 0x0 DUP9 PUSH2 0x231F JUMP JUMPDEST DIV SWAP4 PUSH2 0x74B DUP6 PUSH2 0x746 DUP6 PUSH2 0x746 DUP7 DUP13 PUSH2 0x2352 JUMP JUMPDEST PUSH2 0x2352 JUMP JUMPDEST SWAP5 PUSH2 0x763 DUP10 PUSH2 0x75C DUP9 PUSH1 0x8 SLOAD PUSH2 0x22FC JUMP JUMPDEST GT ISZERO PUSH2 0x235F JUMP JUMPDEST PUSH2 0x76C DUP9 PUSH2 0x23AD JUMP JUMPDEST SWAP4 PUSH1 0x1 DUP1 PUSH1 0xA0 SHL SUB SWAP4 DUP5 PUSH32 0x0 AND SWAP1 DUP8 MLOAD SWAP4 PUSH4 0x23B872DD PUSH1 0xE0 SHL DUP6 MSTORE CALLER DUP7 DUP7 ADD MSTORE DUP14 PUSH1 0x24 SWAP6 ADDRESS DUP8 DUP3 ADD MSTORE DUP14 PUSH1 0x44 DUP3 ADD MSTORE DUP13 DUP2 PUSH1 0x64 DUP2 DUP6 DUP10 GAS CALL SWAP2 DUP3 ISZERO PUSH2 0xBB1 JUMPI SWAP2 PUSH2 0xB94 JUMPI JUMPDEST POP ISZERO PUSH2 0xB52 JUMPI DUP9 MLOAD DUP13 DUP2 MSTORE PUSH1 0x20 DUP2 ADD DUP4 SWAP1 MSTORE PUSH1 0x40 DUP2 ADD DUP6 SWAP1 MSTORE PUSH1 0x60 DUP2 ADD SWAP2 SWAP1 SWAP2 MSTORE PUSH1 0x80 DUP2 ADD DUP11 SWAP1 MSTORE CALLER SWAP1 PUSH32 0xBEFB6E85B11F40EE4D9E3E8BB0BEDBC3D1EEE123B1328C0EA0A4B842CBFFF749 SWAP1 PUSH1 0xA0 SWAP1 LOG2 DUP13 DUP9 MLOAD PUSH4 0xA9059CBB PUSH1 0xE0 SHL SWAP3 DUP4 DUP3 MSTORE PUSH20 0x6C83E86E05697C995D718C1CFA3F9045A38C7CD4 DUP9 DUP4 ADD MSTORE DUP7 DUP3 ADD MSTORE DUP12 DUP2 PUSH1 0x44 DUP2 DUP6 DUP9 GAS CALL SWAP2 DUP3 ISZERO PUSH2 0xB47 JUMPI SWAP2 PUSH2 0xB2A JUMPI JUMPDEST POP ISZERO PUSH2 0xAF2 JUMPI DUP8 MLOAD SWAP1 DUP2 MSTORE PUSH1 0x1 PUSH1 0x1 PUSH1 0xA0 SHL SUB PUSH32 0x0 AND DUP6 DUP3 ADD SWAP1 DUP2 MSTORE PUSH1 0x20 DUP2 ADD SWAP4 SWAP1 SWAP4 MSTORE SWAP2 DUP10 SWAP2 DUP4 SWAP2 DUP3 SWAP1 DUP16 SWAP1 DUP3 SWAP1 PUSH1 0x40 ADD SUB SWAP3 GAS CALL SWAP1 DUP2 ISZERO PUSH2 0xAE8 JUMPI DUP12 SWAP2 PUSH2 0xACB JUMPI JUMPDEST POP ISZERO PUSH2 0xA89 JUMPI PUSH1 0x5 SLOAD SWAP7 PUSH1 0x0 NOT SWAP4 DUP5 DUP10 EQ PUSH2 0xA77 JUMPI SWAP1 DUP10 DUP5 DUP11 DUP11 DUP16 DUP12 SWAP1 PUSH1 0xD SWAP8 PUSH1 0x1 DUP6 ADD PUSH1 0x5 SSTORE DUP3 MLOAD SWAP7 PUSH2 0x8F8 DUP9 PUSH2 0x2231 JUMP JUMPDEST DUP8 MSTORE DUP8 DUP8 ADD SWAP4 DUP5 MSTORE DUP3 DUP8 ADD DUP14 DUP2 MSTORE PUSH1 0x60 DUP9 ADD SWAP5 CALLER DUP7 MSTORE PUSH1 0x80 DUP10 ADD SWAP5 DUP5 DUP7 MSTORE PUSH1 0xA0 DUP11 ADD SWAP5 DUP1 DUP7 MSTORE PUSH1 0xC0 DUP12 ADD SWAP9 NUMBER DUP11 MSTORE DUP2 MSTORE PUSH1 0xC DUP13 MSTORE KECCAK256 SWAP9 MLOAD DUP10 SSTORE MLOAD PUSH1 0x1 DUP10 ADD SSTORE MLOAD PUSH1 0x2 DUP9 ADD SSTORE PUSH1 0x3 DUP8 ADD SWAP4 MLOAD AND DUP4 SLOAD SWAP3 PUSH1 0xFF PUSH1 0xA0 SHL SWAP1 MLOAD ISZERO ISZERO PUSH1 0xA0 SHL AND SWAP2 PUSH1 0xFF PUSH1 0xA8 SHL SWAP1 MLOAD ISZERO ISZERO PUSH1 0xA8 SHL AND SWAP3 PUSH10 0xFFFFFFFFFFFFFFFFFFFF PUSH1 0xB0 SHL AND OR OR OR SWAP1 SSTORE MLOAD SWAP2 ADD SSTORE CALLER DUP13 MSTORE MSTORE DUP5 DUP11 KECCAK256 SWAP1 DUP2 SLOAD SWAP3 PUSH9 0x10000000000000000 DUP5 LT ISZERO PUSH2 0xA66 JUMPI POP POP DUP2 PUSH2 0x9CD SWAP2 PUSH1 0x1 PUSH32 0xB176B33AD40225C8F67DC6EF0CBA96C0C88F67AFD36396E2198A3F48A44FC7A0 SWAP8 SWAP7 SWAP6 SWAP5 ADD DUP2 SSTORE PUSH2 0x22CE JUMP JUMPDEST DUP2 SWAP3 SWAP2 SLOAD SWAP1 PUSH1 0x3 SHL SWAP2 DUP9 DUP4 SHL SWAP3 SHL NOT AND OR SWAP1 SSTORE PUSH2 0x9EC DUP2 PUSH1 0x7 SLOAD PUSH2 0x22FC JUMP JUMPDEST PUSH1 0x7 SSTORE PUSH2 0xA41 PUSH2 0x9FE DUP6 PUSH1 0x8 SLOAD PUSH2 0x22FC JUMP JUMPDEST SWAP7 DUP8 SWAP4 DUP5 PUSH1 0x8 SSTORE PUSH2 0xA11 DUP3 PUSH1 0x9 SLOAD PUSH2 0x22FC JUMP JUMPDEST PUSH1 0x9 SSTORE MLOAD SWAP4 DUP5 SWAP4 CALLER SWAP8 TIMESTAMP SWAP4 DUP7 SWAP2 SWAP3 PUSH1 0x80 SWAP4 SWAP7 SWAP6 SWAP5 SWAP2 SWAP7 PUSH1 0xA0 DUP5 ADD SWAP8 DUP5 MSTORE PUSH1 0x20 DUP5 ADD MSTORE PUSH1 0x40 DUP4 ADD MSTORE PUSH1 0x60 DUP3 ADD MSTORE ADD MSTORE JUMP JUMPDEST SUB SWAP1 LOG3 LT ISZERO PUSH2 0xA52 JUMPI JUMPDEST PUSH1 0x1 DUP2 SSTORE DUP1 RETURN JUMPDEST PUSH2 0x100 PUSH2 0xFF00 NOT PUSH1 0x6 SLOAD AND OR PUSH1 0x6 SSTORE PUSH2 0xA4B JUMP JUMPDEST PUSH4 0x4E487B71 PUSH1 0xE0 SHL DUP13 MSTORE PUSH1 0x41 SWAP1 MSTORE DUP11 REVERT JUMPDEST PUSH4 0x4E487B71 PUSH1 0xE0 SHL DUP13 MSTORE PUSH1 0x11 DUP5 MSTORE DUP3 DUP13 REVERT JUMPDEST DUP5 MLOAD PUSH3 0x461BCD PUSH1 0xE5 SHL DUP2 MSTORE SWAP2 DUP3 ADD DUP8 SWAP1 MSTORE PUSH1 0x17 SWAP1 DUP3 ADD MSTORE PUSH32 0x557066726F6E74207472616E73666572206661696C6564000000000000000000 PUSH1 0x44 DUP3 ADD MSTORE PUSH1 0x64 SWAP1 REVERT JUMPDEST PUSH2 0xAE2 SWAP2 POP DUP9 RETURNDATASIZE DUP11 GT PUSH2 0x552 JUMPI PUSH2 0x544 DUP2 DUP4 PUSH2 0x2263 JUMP JUMPDEST CODESIZE PUSH2 0x8C5 JUMP JUMPDEST DUP7 MLOAD RETURNDATASIZE DUP14 DUP3 RETURNDATACOPY RETURNDATASIZE SWAP1 REVERT JUMPDEST DUP8 MLOAD PUSH3 0x461BCD PUSH1 0xE5 SHL DUP2 MSTORE DUP1 DUP7 ADD DUP12 SWAP1 MSTORE PUSH1 0x13 DUP2 DUP7 ADD MSTORE PUSH19 0x119959481D1C985B9CD9995C8819985A5B1959 PUSH1 0x6A SHL PUSH1 0x44 DUP3 ADD MSTORE PUSH1 0x64 SWAP1 REVERT JUMPDEST PUSH2 0xB41 SWAP2 POP DUP12 RETURNDATASIZE DUP14 GT PUSH2 0x552 JUMPI PUSH2 0x544 DUP2 DUP4 PUSH2 0x2263 JUMP JUMPDEST CODESIZE PUSH2 0x862 JUMP JUMPDEST DUP11 MLOAD SWAP1 RETURNDATASIZE SWAP1 DUP3 RETURNDATACOPY RETURNDATASIZE SWAP1 REVERT JUMPDEST DUP9 MLOAD PUSH3 0x461BCD PUSH1 0xE5 SHL DUP2 MSTORE DUP1 DUP8 ADD DUP13 SWAP1 MSTORE PUSH1 0x17 DUP2 DUP8 ADD MSTORE PUSH32 0x5061796D656E74207472616E73666572206661696C6564000000000000000000 PUSH1 0x44 DUP3 ADD MSTORE PUSH1 0x64 SWAP1 REVERT JUMPDEST PUSH2 0xBAB SWAP2 POP DUP13 DUP14 RETURNDATASIZE LT PUSH2 0x552 JUMPI PUSH2 0x544 DUP2 DUP4 PUSH2 0x2263 JUMP JUMPDEST CODESIZE PUSH2 0x7D0 JUMP JUMPDEST DUP12 MLOAD SWAP1 RETURNDATASIZE SWAP1 DUP3 RETURNDATACOPY RETURNDATASIZE SWAP1 REVERT JUMPDEST PUSH4 0x4E487B71 PUSH1 0xE0 SHL DUP8 MSTORE PUSH1 0x11 DUP4 MSTORE PUSH1 0x24 DUP8 REVERT JUMPDEST SWAP2 PUSH1 0x64 SWAP3 MLOAD SWAP2 PUSH3 0x461BCD PUSH1 0xE5 SHL DUP4 MSTORE DUP3 ADD MSTORE PUSH1 0x16 PUSH1 0x24 DUP3 ADD MSTORE PUSH22 0x42656C6F77206D696E696D756D207075726368617365 PUSH1 0x50 SHL PUSH1 0x44 DUP3 ADD MSTORE REVERT JUMPDEST PUSH1 0x64 SWAP2 DUP5 MLOAD SWAP2 PUSH3 0x461BCD PUSH1 0xE5 SHL DUP4 MSTORE DUP3 ADD MSTORE PUSH1 0x16 PUSH1 0x24 DUP3 ADD MSTORE PUSH22 0x15185C99D95D08185B1C9958591E481C995858DA1959 PUSH1 0x52 SHL PUSH1 0x44 DUP3 ADD MSTORE REVERT JUMPDEST POP CALLVALUE PUSH2 0x29B JUMPI DUP3 PUSH1 0x3 NOT CALLDATASIZE ADD SLT PUSH2 0x29B JUMPI DUP1 MLOAD SWAP2 DUP4 PUSH1 0xB SLOAD SWAP1 PUSH1 0x1 SWAP1 DUP3 PUSH1 0x1 SHR SWAP3 PUSH1 0x1 DUP2 AND DUP1 ISZERO PUSH2 0xD3C JUMPI JUMPDEST PUSH1 0x20 SWAP6 DUP7 DUP7 LT DUP3 EQ PUSH2 0xD29 JUMPI POP DUP5 DUP9 MSTORE SWAP1 DUP2 ISZERO PUSH2 0xD07 JUMPI POP PUSH1 0x1 EQ PUSH2 0xCAE JUMPI JUMPDEST PUSH2 0xCAA DUP7 DUP7 PUSH2 0xCA0 DUP3 DUP12 SUB DUP4 PUSH2 0x2263 JUMP JUMPDEST MLOAD SWAP2 DUP3 SWAP2 DUP3 PUSH2 0x2285 JUMP JUMPDEST SUB SWAP1 RETURN JUMPDEST SWAP3 SWAP6 POP PUSH1 0xB DUP4 MSTORE PUSH32 0x175B7A638427703F0DBE7BB9BBF987A2551717B34E79F33B5B1008D1FA01DB9 JUMPDEST DUP3 DUP5 LT PUSH2 0xCF4 JUMPI POP POP POP DUP3 PUSH2 0xCAA SWAP5 PUSH2 0xCA0 SWAP3 DUP3 ADD ADD SWAP5 CODESIZE PUSH2 0xC8F JUMP JUMPDEST DUP1 SLOAD DUP7 DUP6 ADD DUP9 ADD MSTORE SWAP3 DUP7 ADD SWAP3 DUP2 ADD PUSH2 0xCD7 JUMP JUMPDEST PUSH1 0xFF NOT AND DUP8 DUP7 ADD MSTORE POP POP POP ISZERO ISZERO PUSH1 0x5 SHL DUP4 ADD ADD SWAP3 POP PUSH2 0xCA0 DUP3 PUSH2 0xCAA CODESIZE PUSH2 0xC8F JUMP JUMPDEST PUSH4 0x4E487B71 PUSH1 0xE0 SHL DUP5 MSTORE PUSH1 0x22 SWAP1 MSTORE PUSH1 0x24 DUP4 REVERT JUMPDEST SWAP4 PUSH1 0x7F AND SWAP4 PUSH2 0xC6F JUMP JUMPDEST POP CALLVALUE PUSH2 0x29B JUMPI DUP1 PUSH1 0x3 NOT CALLDATASIZE ADD SLT PUSH2 0x29B JUMPI PUSH2 0xD5F PUSH2 0x2216 JUMP JUMPDEST PUSH1 0x24 SWAP2 DUP3 CALLDATALOAD PUSH2 0xD6C PUSH2 0x2900 JUMP JUMPDEST PUSH32 0x0 SWAP3 PUSH1 0x1 PUSH1 0x1 PUSH1 0xA0 SHL SUB SWAP1 DUP2 DUP6 AND CALLER SUB PUSH2 0xFB6 JUMPI PUSH1 0xFF PUSH1 0x6 SLOAD AND ISZERO PUSH2 0xF74 JUMPI DUP2 AND SWAP1 PUSH32 0x0 AND DUP2 EQ PUSH2 0xF32 JUMPI DUP3 MLOAD PUSH4 0x70A08231 PUSH1 0xE0 SHL DUP2 MSTORE ADDRESS DUP8 DUP3 ADD MSTORE PUSH1 0x20 SWAP5 SWAP1 DUP6 DUP2 DUP9 DUP2 DUP7 GAS STATICCALL SWAP1 DUP2 ISZERO PUSH2 0xF28 JUMPI SWAP1 DUP5 SWAP2 DUP11 SWAP2 PUSH2 0xEF3 JUMPI JUMPDEST POP LT PUSH2 0xEBA JUMPI DUP4 MLOAD PUSH4 0xA9059CBB PUSH1 0xE0 SHL DUP2 MSTORE PUSH1 0x1 PUSH1 0x1 PUSH1 0xA0 SHL SUB SWAP1 SWAP2 AND DUP8 DUP3 ADD SWAP1 DUP2 MSTORE PUSH1 0x20 DUP2 ADD SWAP4 SWAP1 SWAP4 MSTORE SWAP2 DUP5 SWAP2 DUP4 SWAP2 DUP3 SWAP1 DUP11 SWAP1 DUP3 SWAP1 PUSH1 0x40 ADD SUB SWAP3 GAS CALL SWAP1 DUP2 ISZERO PUSH2 0xEB0 JUMPI DUP7 SWAP2 PUSH2 0xE93 JUMPI JUMPDEST POP ISZERO PUSH2 0xE5C JUMPI DUP5 PUSH1 0x1 DUP2 SSTORE DUP1 RETURN JUMPDEST MLOAD PUSH3 0x461BCD PUSH1 0xE5 SHL DUP2 MSTORE SWAP3 DUP4 ADD MSTORE PUSH1 0x15 SWAP1 DUP3 ADD MSTORE PUSH21 0x151BDAD95B881C9958DBDD995C9E4819985A5B1959 PUSH1 0x5A SHL PUSH1 0x44 DUP3 ADD MSTORE PUSH1 0x64 SWAP1 REVERT JUMPDEST PUSH2 0xEAA SWAP2 POP DUP4 RETURNDATASIZE DUP6 GT PUSH2 0x552 JUMPI PUSH2 0x544 DUP2 DUP4 PUSH2 0x2263 JUMP JUMPDEST CODESIZE PUSH2 0xE4E JUMP JUMPDEST DUP3 MLOAD RETURNDATASIZE DUP9 DUP3 RETURNDATACOPY RETURNDATASIZE SWAP1 REVERT JUMPDEST DUP4 MLOAD PUSH3 0x461BCD PUSH1 0xE5 SHL DUP2 MSTORE DUP1 DUP9 ADD DUP7 SWAP1 MSTORE PUSH1 0x14 DUP2 DUP9 ADD MSTORE PUSH20 0x496E73756666696369656E742062616C616E6365 PUSH1 0x60 SHL PUSH1 0x44 DUP3 ADD MSTORE PUSH1 0x64 SWAP1 REVERT JUMPDEST DUP1 SWAP3 POP DUP8 DUP1 SWAP3 POP RETURNDATASIZE DUP4 GT PUSH2 0xF21 JUMPI JUMPDEST PUSH2 0xF0C DUP2 DUP4 PUSH2 0x2263 JUMP JUMPDEST DUP2 ADD SUB SLT PUSH2 0xF1D JUMPI DUP4 SWAP1 MLOAD CODESIZE PUSH2 0xE03 JUMP JUMPDEST DUP9 DUP1 REVERT JUMPDEST POP RETURNDATASIZE PUSH2 0xF02 JUMP JUMPDEST DUP6 MLOAD RETURNDATASIZE DUP12 DUP3 RETURNDATACOPY RETURNDATASIZE SWAP1 REVERT JUMPDEST DUP3 MLOAD PUSH3 0x461BCD PUSH1 0xE5 SHL DUP2 MSTORE PUSH1 0x20 DUP2 DUP9 ADD MSTORE PUSH1 0x19 DUP2 DUP8 ADD MSTORE PUSH32 0x43616E6E6F74207265636F7665722073616C6520746F6B656E00000000000000 PUSH1 0x44 DUP3 ADD MSTORE PUSH1 0x64 SWAP1 REVERT JUMPDEST DUP4 MLOAD PUSH3 0x461BCD PUSH1 0xE5 SHL DUP2 MSTORE PUSH1 0x20 DUP2 DUP10 ADD MSTORE PUSH1 0x1B DUP2 DUP9 ADD MSTORE PUSH32 0x4E6F7420796574206465706C6F79656420746F20556E69737761700000000000 PUSH1 0x44 DUP3 ADD MSTORE PUSH1 0x64 SWAP1 REVERT JUMPDEST DUP4 MLOAD PUSH3 0x461BCD PUSH1 0xE5 SHL DUP2 MSTORE PUSH1 0x20 DUP2 DUP10 ADD MSTORE PUSH1 0x19 DUP2 DUP9 ADD MSTORE PUSH32 0x4F6E6C7920666F756E646572732063616E207265636F76657200000000000000 PUSH1 0x44 DUP3 ADD MSTORE PUSH1 0x64 SWAP1 REVERT JUMPDEST DUP4 DUP3 CALLVALUE PUSH2 0x2EC JUMPI DUP2 PUSH1 0x3 NOT CALLDATASIZE ADD SLT PUSH2 0x2EC JUMPI PUSH1 0x20 SWAP1 PUSH1 0x7 SLOAD SWAP1 MLOAD SWAP1 DUP2 MSTORE RETURN JUMPDEST POP DUP3 CALLVALUE PUSH2 0x10C4 JUMPI PUSH1 0x20 SWAP1 DUP2 PUSH1 0x3 NOT CALLDATASIZE ADD SLT PUSH2 0x10C4 JUMPI DUP3 SWAP1 PUSH1 0x1 PUSH1 0x1 PUSH1 0xA0 SHL SUB PUSH2 0x103E PUSH2 0x2216 JUMP JUMPDEST AND DUP2 MSTORE PUSH1 0xD DUP4 MSTORE DUP2 DUP2 KECCAK256 SWAP1 DUP3 MLOAD DUP1 DUP6 DUP5 SLOAD SWAP2 DUP3 DUP2 MSTORE ADD SWAP1 DUP2 SWAP5 DUP5 MSTORE DUP7 DUP5 KECCAK256 SWAP1 DUP5 JUMPDEST DUP2 DUP2 LT PUSH2 0x10B0 JUMPI POP POP POP DUP2 PUSH2 0x1075 SWAP2 SUB DUP3 PUSH2 0x2263 JUMP JUMPDEST DUP4 MLOAD SWAP5 DUP6 SWAP5 DUP2 DUP7 ADD SWAP3 DUP3 DUP8 MSTORE MLOAD DUP1 SWAP4 MSTORE DUP6 ADD SWAP4 SWAP3 JUMPDEST DUP3 DUP2 LT PUSH2 0x1099 JUMPI POP POP POP POP SUB SWAP1 RETURN JUMPDEST DUP4 MLOAD DUP6 MSTORE DUP7 SWAP6 POP SWAP4 DUP2 ADD SWAP4 SWAP3 DUP2 ADD SWAP3 PUSH1 0x1 ADD PUSH2 0x108A JUMP JUMPDEST DUP3 SLOAD DUP5 MSTORE SWAP3 DUP9 ADD SWAP3 PUSH1 0x1 SWAP3 DUP4 ADD SWAP3 ADD PUSH2 0x105F JUMP JUMPDEST DUP1 REVERT JUMPDEST POP SWAP1 CALLVALUE PUSH2 0x29B JUMPI DUP3 PUSH1 0x3 NOT CALLDATASIZE ADD SLT PUSH2 0x29B JUMPI SLOAD SWAP1 MLOAD PUSH1 0x8 SWAP2 SWAP1 SWAP2 SHR PUSH1 0x1 PUSH1 0x1 PUSH1 0xA0 SHL SUB AND DUP2 MSTORE PUSH1 0x20 SWAP2 POP RETURN JUMPDEST DUP4 DUP3 CALLVALUE PUSH2 0x2EC JUMPI DUP2 PUSH1 0x3 NOT CALLDATASIZE ADD SLT PUSH2 0x2EC JUMPI PUSH1 0x20 SWAP1 MLOAD PUSH32 0x0 DUP2 MSTORE RETURN JUMPDEST DUP4 DUP3 CALLVALUE PUSH2 0x2EC JUMPI DUP2 PUSH1 0x3 NOT CALLDATASIZE ADD SLT PUSH2 0x2EC JUMPI PUSH1 0x20 SWAP1 PUSH1 0x5 SLOAD SWAP1 MLOAD SWAP1 DUP2 MSTORE RETURN JUMPDEST DUP4 DUP3 CALLVALUE PUSH2 0x2EC JUMPI DUP2 PUSH1 0x3 NOT CALLDATASIZE ADD SLT PUSH2 0x2EC JUMPI PUSH1 0x20 SWAP1 MLOAD PUSH32 0x0 DUP2 MSTORE RETURN JUMPDEST DUP4 DUP3 CALLVALUE PUSH2 0x2EC JUMPI DUP2 PUSH1 0x3 NOT CALLDATASIZE ADD SLT PUSH2 0x2EC JUMPI PUSH1 0x20 SWAP1 MLOAD PUSH3 0xF4240 PUSH32 0x0 DIV DUP2 MSTORE RETURN JUMPDEST DUP4 DUP3 CALLVALUE PUSH2 0x2EC JUMPI DUP2 PUSH1 0x3 NOT CALLDATASIZE ADD SLT PUSH2 0x2EC JUMPI PUSH1 0x20 SWAP1 PUSH1 0x8 SLOAD SWAP1 MLOAD SWAP1 DUP2 MSTORE RETURN JUMPDEST DUP4 DUP3 CALLVALUE PUSH2 0x2EC JUMPI DUP2 PUSH1 0x3 NOT CALLDATASIZE ADD SLT PUSH2 0x2EC JUMPI PUSH1 0x20 SWAP1 MLOAD PUSH32 0x0 DUP2 MSTORE RETURN JUMPDEST DUP4 DUP3 CALLVALUE PUSH2 0x2EC JUMPI DUP2 PUSH1 0x3 NOT CALLDATASIZE ADD SLT PUSH2 0x2EC JUMPI MLOAD PUSH32 0x0 PUSH1 0x1 PUSH1 0x1 PUSH1 0xA0 SHL SUB AND DUP2 MSTORE PUSH1 0x20 SWAP1 RETURN JUMPDEST DUP4 DUP3 CALLVALUE PUSH2 0x2EC JUMPI DUP2 PUSH1 0x3 NOT CALLDATASIZE ADD SLT PUSH2 0x2EC JUMPI PUSH1 0x20 SWAP1 PUSH2 0x358 PUSH2 0x27D9 JUMP JUMPDEST POP CALLVALUE PUSH2 0x29B JUMPI PUSH1 0x20 CALLDATASIZE PUSH1 0x3 NOT ADD SLT PUSH2 0x29B JUMPI PUSH1 0xFF DUP2 PUSH1 0xE0 SWAP5 DUP5 CALLDATALOAD DUP2 MSTORE PUSH1 0xC PUSH1 0x20 MSTORE KECCAK256 DUP1 SLOAD SWAP4 PUSH1 0x1 DUP3 ADD SLOAD SWAP4 PUSH1 0x2 DUP4 ADD SLOAD SWAP2 PUSH1 0x3 DUP5 ADD SLOAD SWAP4 ADD SLOAD SWAP5 DUP2 MLOAD SWAP7 DUP8 MSTORE PUSH1 0x20 DUP8 ADD MSTORE DUP6 ADD MSTORE PUSH1 0x1 DUP1 PUSH1 0xA0 SHL SUB DUP2 AND PUSH1 0x60 DUP6 ADD MSTORE DUP2 DUP2 PUSH1 0xA0 SHR AND ISZERO ISZERO PUSH1 0x80 DUP6 ADD MSTORE PUSH1 0xA8 SHR AND ISZERO ISZERO PUSH1 0xA0 DUP4 ADD MSTORE PUSH1 0xC0 DUP3 ADD MSTORE RETURN JUMPDEST POP CALLVALUE PUSH2 0x29B JUMPI DUP3 PUSH1 0x3 NOT CALLDATASIZE ADD SLT PUSH2 0x29B JUMPI DUP1 MLOAD SWAP2 DUP4 PUSH1 0x3 SLOAD SWAP1 PUSH1 0x1 SWAP1 DUP3 PUSH1 0x1 SHR SWAP3 PUSH1 0x1 DUP2 AND DUP1 ISZERO PUSH2 0x13AC JUMPI JUMPDEST PUSH1 0x20 SWAP6 DUP7 DUP7 LT DUP3 EQ PUSH2 0xD29 JUMPI POP DUP5 DUP9 MSTORE SWAP1 DUP2 ISZERO PUSH2 0xD07 JUMPI POP PUSH1 0x1 EQ PUSH2 0x1353 JUMPI PUSH2 0xCAA DUP7 DUP7 PUSH2 0xCA0 DUP3 DUP12 SUB DUP4 PUSH2 0x2263 JUMP JUMPDEST SWAP3 SWAP6 POP PUSH1 0x3 DUP4 MSTORE PUSH32 0xC2575A0E9E593C00F959F8C92F12DB2869C3395A3B0502D05E2516446F71F85B JUMPDEST DUP3 DUP5 LT PUSH2 0x1399 JUMPI POP POP POP DUP3 PUSH2 0xCAA SWAP5 PUSH2 0xCA0 SWAP3 DUP3 ADD ADD SWAP5 CODESIZE PUSH2 0xC8F JUMP JUMPDEST DUP1 SLOAD DUP7 DUP6 ADD DUP9 ADD MSTORE SWAP3 DUP7 ADD SWAP3 DUP2 ADD PUSH2 0x137C JUMP JUMPDEST SWAP4 PUSH1 0x7F AND SWAP4 PUSH2 0x1323 JUMP JUMPDEST DUP4 DUP3 CALLVALUE PUSH2 0x2EC JUMPI DUP2 PUSH1 0x3 NOT CALLDATASIZE ADD SLT PUSH2 0x2EC JUMPI MLOAD PUSH32 0x0 PUSH1 0x1 PUSH1 0x1 PUSH1 0xA0 SHL SUB AND DUP2 MSTORE PUSH1 0x20 SWAP1 RETURN JUMPDEST DUP4 DUP3 CALLVALUE PUSH2 0x2EC JUMPI DUP2 PUSH1 0x3 NOT CALLDATASIZE ADD SLT PUSH2 0x2EC JUMPI PUSH1 0x20 SWAP1 PUSH2 0x358 PUSH2 0x26C4 JUMP JUMPDEST DUP4 DUP3 CALLVALUE PUSH2 0x2EC JUMPI DUP1 PUSH1 0x3 NOT CALLDATASIZE ADD SLT PUSH2 0x2EC JUMPI PUSH2 0x1431 PUSH2 0x2216 JUMP JUMPDEST PUSH1 0x1 PUSH1 0x1 PUSH1 0xA0 SHL SUB AND DUP3 MSTORE PUSH1 0xD PUSH1 0x20 MSTORE DUP1 DUP3 KECCAK256 DUP1 SLOAD PUSH1 0x24 CALLDATALOAD SWAP4 SWAP1 DUP5 LT ISZERO PUSH2 0x10C4 JUMPI POP PUSH1 0x20 SWAP3 PUSH2 0x145F SWAP2 PUSH2 0x22CE JUMP JUMPDEST SWAP2 SWAP1 SLOAD SWAP1 MLOAD SWAP2 PUSH1 0x3 SHL SHR DUP2 MSTORE RETURN JUMPDEST DUP4 DUP3 CALLVALUE PUSH2 0x2EC JUMPI DUP2 PUSH1 0x3 NOT CALLDATASIZE ADD SLT PUSH2 0x2EC JUMPI PUSH1 0x20 SWAP1 MLOAD PUSH32 0x0 DUP2 MSTORE RETURN JUMPDEST POP CALLVALUE PUSH2 0x29B JUMPI DUP3 PUSH1 0x3 NOT CALLDATASIZE ADD SLT PUSH2 0x29B JUMPI DUP1 MLOAD SWAP2 DUP4 PUSH1 0xA SLOAD SWAP1 PUSH1 0x1 SWAP1 DUP3 PUSH1 0x1 SHR SWAP3 PUSH1 0x1 DUP2 AND DUP1 ISZERO PUSH2 0x155D JUMPI JUMPDEST PUSH1 0x20 SWAP6 DUP7 DUP7 LT DUP3 EQ PUSH2 0xD29 JUMPI POP DUP5 DUP9 MSTORE SWAP1 DUP2 ISZERO PUSH2 0xD07 JUMPI POP PUSH1 0x1 EQ PUSH2 0x1504 JUMPI PUSH2 0xCAA DUP7 DUP7 PUSH2 0xCA0 DUP3 DUP12 SUB DUP4 PUSH2 0x2263 JUMP JUMPDEST SWAP3 SWAP6 POP PUSH1 0xA DUP4 MSTORE PUSH32 0xC65A7BB8D6351C1CF70C95A316CC6A92839C986682D98BC35F958F4883F9D2A8 JUMPDEST DUP3 DUP5 LT PUSH2 0x154A JUMPI POP POP POP DUP3 PUSH2 0xCAA SWAP5 PUSH2 0xCA0 SWAP3 DUP3 ADD ADD SWAP5 CODESIZE PUSH2 0xC8F JUMP JUMPDEST DUP1 SLOAD DUP7 DUP6 ADD DUP9 ADD MSTORE SWAP3 DUP7 ADD SWAP3 DUP2 ADD PUSH2 0x152D JUMP JUMPDEST SWAP4 PUSH1 0x7F AND SWAP4 PUSH2 0x14D4 JUMP JUMPDEST POP CALLVALUE PUSH2 0x29B JUMPI DUP3 PUSH1 0x3 NOT CALLDATASIZE ADD SLT PUSH2 0x29B JUMPI DUP1 MLOAD SWAP2 DUP4 PUSH1 0x1 DUP1 SLOAD SWAP2 DUP3 PUSH1 0x1 SHR SWAP3 PUSH1 0x1 DUP2 AND DUP1 ISZERO PUSH2 0x161A JUMPI JUMPDEST PUSH1 0x20 SWAP6 DUP7 DUP7 LT DUP3 EQ PUSH2 0xD29 JUMPI POP DUP5 DUP9 MSTORE SWAP1 DUP2 ISZERO PUSH2 0xD07 JUMPI POP PUSH1 0x1 EQ PUSH2 0x15C1 JUMPI PUSH2 0xCAA DUP7 DUP7 PUSH2 0xCA0 DUP3 DUP12 SUB DUP4 PUSH2 0x2263 JUMP JUMPDEST SWAP3 SWAP6 POP PUSH1 0x1 DUP4 MSTORE PUSH32 0xB10E2D527612073B26EECDFD717E6A320CF44B4AFAC2B0732D9FCBE2B7FA0CF6 JUMPDEST DUP3 DUP5 LT PUSH2 0x1607 JUMPI POP POP POP DUP3 PUSH2 0xCAA SWAP5 PUSH2 0xCA0 SWAP3 DUP3 ADD ADD SWAP5 CODESIZE PUSH2 0xC8F JUMP JUMPDEST DUP1 SLOAD DUP7 DUP6 ADD DUP9 ADD MSTORE SWAP3 DUP7 ADD SWAP3 DUP2 ADD PUSH2 0x15EA JUMP JUMPDEST SWAP4 PUSH1 0x7F AND SWAP4 PUSH2 0x1591 JUMP JUMPDEST DUP4 DUP3 CALLVALUE PUSH2 0x2EC JUMPI DUP2 PUSH1 0x3 NOT CALLDATASIZE ADD SLT PUSH2 0x2EC JUMPI PUSH1 0x20 SWAP1 PUSH1 0xFF PUSH1 0x6 SLOAD PUSH1 0x8 SHR AND SWAP1 MLOAD SWAP1 ISZERO ISZERO DUP2 MSTORE RETURN JUMPDEST POP DUP3 CALLVALUE PUSH2 0x10C4 JUMPI DUP1 PUSH1 0x3 NOT CALLDATASIZE ADD SLT PUSH2 0x10C4 JUMPI POP PUSH1 0xFF PUSH1 0x20 SWAP3 SLOAD AND SWAP1 MLOAD SWAP1 DUP2 MSTORE RETURN JUMPDEST DUP4 DUP3 CALLVALUE PUSH2 0x2EC JUMPI DUP2 PUSH1 0x3 NOT CALLDATASIZE ADD SLT PUSH2 0x2EC JUMPI MLOAD PUSH32 0x0 PUSH1 0x1 PUSH1 0x1 PUSH1 0xA0 SHL SUB AND DUP2 MSTORE PUSH1 0x20 SWAP1 RETURN JUMPDEST POP CALLVALUE PUSH2 0x29B JUMPI PUSH1 0x20 SWAP1 DUP2 PUSH1 0x3 NOT CALLDATASIZE ADD SLT PUSH2 0x650 JUMPI DUP3 CALLDATALOAD SWAP3 PUSH2 0x16CF PUSH2 0x2900 JUMP JUMPDEST PUSH2 0x16DE PUSH1 0xFF PUSH1 0x6 SLOAD AND ISZERO PUSH2 0x2608 JUMP JUMPDEST DUP4 DUP6 MSTORE PUSH1 0xC DUP4 MSTORE DUP2 DUP6 KECCAK256 PUSH1 0x3 DUP2 ADD DUP1 SLOAD PUSH1 0x1 PUSH1 0x1 PUSH1 0xA0 SHL SUB SWAP4 SWAP3 SWAP2 SWAP1 PUSH2 0x1707 DUP6 DUP3 AND CALLER EQ PUSH2 0x2645 JUMP JUMPDEST PUSH1 0xFF DUP2 PUSH1 0xA0 SHR AND PUSH2 0x1863 JUMPI PUSH1 0x1 DUP10 SWAP4 DUP9 SWAP4 DUP4 PUSH2 0x172C PUSH1 0xFF PUSH2 0x178E SWAP7 PUSH1 0xA8 SHR AND ISZERO PUSH2 0x2685 JUMP JUMPDEST PUSH1 0xFF PUSH1 0xA0 SHL NOT AND PUSH1 0xA0 DUP5 SWAP1 SHL OR SWAP1 SSTORE PUSH1 0x2 DUP2 ADD SLOAD PUSH1 0x7 SLOAD PUSH2 0x174D SWAP2 SWAP1 PUSH2 0x2352 JUMP JUMPDEST PUSH1 0x7 SSTORE ADD SWAP5 PUSH2 0x175F DUP7 SLOAD PUSH1 0x8 SLOAD PUSH2 0x2352 JUMP JUMPDEST PUSH1 0x8 SSTORE DUP6 SLOAD DUP8 MLOAD PUSH4 0xA9059CBB PUSH1 0xE0 SHL DUP2 MSTORE CALLER DUP8 DUP3 ADD SWAP1 DUP2 MSTORE PUSH1 0x20 DUP2 ADD SWAP3 SWAP1 SWAP3 MSTORE SWAP5 DUP6 SWAP4 DUP5 SWAP3 DUP4 SWAP2 PUSH1 0x40 SWAP1 SWAP2 ADD SWAP1 JUMP JUMPDEST SUB SWAP3 PUSH32 0x0 AND GAS CALL SWAP1 DUP2 ISZERO PUSH2 0x1859 JUMPI DUP8 SWAP2 PUSH2 0x183C JUMPI JUMPDEST POP ISZERO PUSH2 0x1809 JUMPI POP SLOAD SWAP2 PUSH1 0x8 SLOAD SWAP1 DUP3 MLOAD SWAP4 DUP5 MSTORE DUP4 ADD MSTORE TIMESTAMP SWAP1 DUP3 ADD MSTORE PUSH32 0x40AFC61AABCE83A502901D9DC66B15D1EE92BFCC1F4F56923B8434DCD041E19F PUSH1 0x60 CALLER SWAP3 LOG3 PUSH1 0x1 DUP2 SSTORE DUP1 RETURN JUMPDEST DUP3 MLOAD PUSH3 0x461BCD PUSH1 0xE5 SHL DUP2 MSTORE SWAP1 DUP2 ADD DUP5 SWAP1 MSTORE PUSH1 0xD PUSH1 0x24 DUP3 ADD MSTORE PUSH13 0x1499599D5B990819985A5B1959 PUSH1 0x9A SHL PUSH1 0x44 DUP3 ADD MSTORE PUSH1 0x64 SWAP1 REVERT JUMPDEST PUSH2 0x1853 SWAP2 POP DUP6 RETURNDATASIZE DUP8 GT PUSH2 0x552 JUMPI PUSH2 0x544 DUP2 DUP4 PUSH2 0x2263 JUMP JUMPDEST CODESIZE PUSH2 0x17C2 JUMP JUMPDEST DUP5 MLOAD RETURNDATASIZE DUP10 DUP3 RETURNDATACOPY RETURNDATASIZE SWAP1 REVERT JUMPDEST DUP6 MLOAD PUSH3 0x461BCD PUSH1 0xE5 SHL DUP2 MSTORE DUP1 DUP6 ADD DUP9 SWAP1 MSTORE PUSH1 0x10 PUSH1 0x24 DUP3 ADD MSTORE PUSH16 0x105B1C9958591E481C99599D5B991959 PUSH1 0x82 SHL PUSH1 0x44 DUP3 ADD MSTORE PUSH1 0x64 SWAP1 REVERT JUMPDEST DUP4 DUP3 CALLVALUE PUSH2 0x2EC JUMPI DUP2 PUSH1 0x3 NOT CALLDATASIZE ADD SLT PUSH2 0x2EC JUMPI PUSH1 0x20 SWAP1 PUSH1 0xFF PUSH1 0x6 SLOAD AND SWAP1 MLOAD SWAP1 ISZERO ISZERO DUP2 MSTORE RETURN JUMPDEST DUP4 DUP3 CALLVALUE PUSH2 0x2EC JUMPI DUP2 PUSH1 0x3 NOT CALLDATASIZE ADD SLT PUSH2 0x2EC JUMPI MLOAD PUSH32 0x0 PUSH1 0x1 PUSH1 0x1 PUSH1 0xA0 SHL SUB AND DUP2 MSTORE PUSH1 0x20 SWAP1 RETURN JUMPDEST DUP4 DUP3 CALLVALUE PUSH2 0x2EC JUMPI DUP2 PUSH1 0x3 NOT CALLDATASIZE ADD SLT PUSH2 0x2EC JUMPI MLOAD PUSH32 0x0 PUSH1 0x1 PUSH1 0x1 PUSH1 0xA0 SHL SUB AND DUP2 MSTORE PUSH1 0x20 SWAP1 RETURN JUMPDEST DUP4 DUP3 CALLVALUE PUSH2 0x2EC JUMPI DUP2 PUSH1 0x3 NOT CALLDATASIZE ADD SLT PUSH2 0x2EC JUMPI PUSH1 0x20 SWAP1 PUSH2 0x1962 PUSH2 0x2568 JUMP JUMPDEST SWAP1 MLOAD SWAP1 ISZERO ISZERO DUP2 MSTORE RETURN JUMPDEST POP DUP3 CALLVALUE PUSH2 0x10C4 JUMPI DUP1 PUSH1 0x3 NOT CALLDATASIZE ADD SLT PUSH2 0x10C4 JUMPI PUSH1 0x6 SLOAD PUSH1 0xFF DUP2 PUSH1 0x8 SHR AND ISZERO PUSH2 0x2017 JUMPI PUSH1 0xFF AND PUSH2 0x1FE1 JUMPI PUSH2 0x199B PUSH2 0x27D9 JUMP JUMPDEST SWAP2 PUSH2 0x19AC PUSH2 0x19A7 PUSH2 0x2568 JUMP JUMPDEST PUSH2 0x2504 JUMP JUMPDEST PUSH2 0x19BA PUSH1 0xFF PUSH1 0x2 SLOAD AND PUSH2 0x239C JUMP JUMPDEST SWAP4 PUSH2 0x19C8 PUSH1 0xFF DUP3 SLOAD AND PUSH2 0x239C JUMP JUMPDEST POP PUSH2 0x1A1E PUSH2 0x19F7 PUSH32 0x0 SWAP7 DUP8 PUSH2 0x231F JUMP JUMPDEST PUSH32 0x0 SWAP1 PUSH2 0x2332 JUMP JUMPDEST DUP3 MLOAD PUSH4 0x70A08231 PUSH1 0xE0 SHL DUP1 DUP3 MSTORE ADDRESS DUP5 DUP4 ADD MSTORE PUSH1 0x20 SWAP8 PUSH1 0x1 PUSH1 0x1 PUSH1 0xA0 SHL SUB PUSH32 0x0 DUP2 AND SWAP9 SWAP1 SWAP8 SWAP5 SWAP6 SWAP5 SWAP4 PUSH1 0x24 SWAP3 SWAP1 DUP12 DUP2 DUP6 DUP2 DUP15 GAS STATICCALL DUP1 ISZERO PUSH2 0x1E1E JUMPI DUP9 SWAP1 DUP8 SWAP1 PUSH2 0x1FB0 JUMPI JUMPDEST PUSH2 0x1A8B SWAP3 POP LT ISZERO PUSH2 0x2504 JUMP JUMPDEST DUP9 PUSH32 0x0 AND SWAP4 DUP9 MLOAD SWAP1 DUP2 MSTORE ADDRESS DUP8 DUP3 ADD MSTORE DUP12 DUP2 DUP6 DUP2 DUP9 GAS STATICCALL SWAP1 DUP2 ISZERO PUSH2 0x1E1E JUMPI DUP7 SWAP2 PUSH2 0x1F7F JUMPI JUMPDEST POP PUSH2 0x1AD9 DUP4 DUP4 PUSH2 0x22FC JUMP JUMPDEST GT PUSH2 0x1F3D JUMPI DUP8 MLOAD PUSH4 0x95EA7B3 PUSH1 0xE0 SHL DUP1 DUP3 MSTORE PUSH32 0x0 DUP12 AND PUSH1 0x1 PUSH1 0x1 PUSH1 0xA0 SHL SUB DUP2 AND DUP10 DUP5 ADD SWAP1 DUP2 MSTORE PUSH1 0x20 DUP2 ADD DUP12 SWAP1 MSTORE SWAP1 SWAP4 SWAP3 SWAP1 DUP15 SWAP1 DUP3 SWAP1 DUP16 SWAP1 DUP3 SWAP1 DUP13 SWAP1 DUP3 SWAP1 PUSH1 0x40 ADD SUB SWAP3 GAS CALL SWAP1 DUP2 ISZERO PUSH2 0x1F33 JUMPI DUP15 DUP10 SWAP3 PUSH2 0x1F16 JUMPI JUMPDEST POP POP ISZERO PUSH2 0x1EDC JUMPI DUP10 MLOAD SWAP1 DUP2 MSTORE PUSH1 0x1 PUSH1 0x1 PUSH1 0xA0 SHL SUB DUP4 AND DUP9 DUP3 ADD SWAP1 DUP2 MSTORE PUSH1 0x20 DUP2 ADD DUP4 SWAP1 MSTORE DUP14 SWAP1 DUP3 SWAP1 DUP2 SWAP1 PUSH1 0x40 ADD SUB DUP2 DUP11 DUP11 GAS CALL SWAP1 DUP2 ISZERO PUSH2 0x1ED2 JUMPI DUP8 SWAP2 PUSH2 0x1EB5 JUMPI JUMPDEST POP ISZERO PUSH2 0x1E7A JUMPI PUSH1 0x78 TIMESTAMP ADD SWAP1 DUP2 TIMESTAMP GT PUSH2 0x1E68 JUMPI DUP8 DUP8 PUSH1 0x60 SWAP5 DUP15 SWAP5 DUP15 PUSH2 0x104 SWAP6 DUP16 MLOAD SWAP15 DUP16 SWAP9 DUP10 SWAP8 PUSH3 0xE8E337 PUSH1 0xE8 SHL DUP10 MSTORE DUP9 ADD MSTORE DUP13 DUP13 DUP9 ADD MSTORE DUP1 PUSH1 0x44 DUP9 ADD MSTORE DUP2 PUSH1 0x64 DUP9 ADD MSTORE PUSH1 0x84 DUP8 ADD MSTORE PUSH1 0xA4 DUP7 ADD MSTORE PUSH32 0x0 AND PUSH1 0xC4 DUP6 ADD MSTORE PUSH1 0xE4 DUP5 ADD MSTORE GAS CALL SWAP6 DUP7 ISZERO PUSH2 0x1E5E JUMPI DUP5 SWAP7 PUSH2 0x1E28 JUMPI JUMPDEST POP DUP1 PUSH2 0x1D27 JUMPI JUMPDEST POP PUSH1 0x1 PUSH1 0xFF NOT PUSH1 0x6 SLOAD AND OR PUSH1 0x6 SSTORE DUP6 MLOAD SWAP8 PUSH4 0xE6A43905 PUSH1 0xE0 SHL DUP10 MSTORE DUP5 DUP10 ADD MSTORE DUP8 ADD MSTORE DUP7 DUP7 PUSH1 0x44 DUP2 DUP9 PUSH32 0x0 AND GAS STATICCALL SWAP6 DUP7 ISZERO PUSH2 0x1D1B JUMPI DUP2 SWAP7 PUSH2 0x1CDD JUMPI JUMPDEST POP POP DUP1 SLOAD PUSH2 0x100 PUSH1 0x1 PUSH1 0xA8 SHL SUB NOT AND PUSH1 0x8 DUP7 SWAP1 SHL PUSH2 0x100 PUSH1 0x1 PUSH1 0xA8 SHL SUB AND OR SWAP1 SSTORE DUP2 MLOAD PUSH1 0x1 PUSH1 0x1 PUSH1 0xA0 SHL SUB DUP6 AND DUP2 MSTORE PUSH1 0x20 DUP2 ADD SWAP2 SWAP1 SWAP2 MSTORE PUSH32 0x4DB0962B68E799B508143F50800F1504D656CBD0FE6395510C0DCA385BFD8407 SWAP1 DUP1 PUSH1 0x40 DUP2 ADD JUMPDEST SUB SWAP1 LOG1 MLOAD SWAP2 AND DUP2 MSTORE RETURN JUMPDEST SWAP1 SWAP2 SWAP6 POP DUP7 DUP2 DUP2 RETURNDATASIZE DUP4 GT PUSH2 0x1D14 JUMPI JUMPDEST PUSH2 0x1CF6 DUP2 DUP4 PUSH2 0x2263 JUMP JUMPDEST DUP2 ADD SUB SLT PUSH2 0x2EC JUMPI MLOAD SWAP1 DUP5 DUP3 AND DUP3 SUB PUSH2 0x10C4 JUMPI POP SWAP4 DUP2 PUSH2 0x1CD3 PUSH2 0x1C74 JUMP JUMPDEST POP RETURNDATASIZE PUSH2 0x1CEC JUMP JUMPDEST POP DUP4 MLOAD SWAP1 RETURNDATASIZE SWAP1 DUP3 RETURNDATACOPY RETURNDATASIZE SWAP1 REVERT JUMPDEST DUP7 MLOAD PUSH4 0xA9059CBB PUSH1 0xE0 SHL DUP2 MSTORE PUSH32 0x0 PUSH1 0x1 PUSH1 0x1 PUSH1 0xA0 SHL SUB DUP2 AND DUP8 DUP4 ADD SWAP1 DUP2 MSTORE PUSH1 0x20 DUP2 ADD DUP5 SWAP1 MSTORE SWAP1 SWAP2 SWAP1 DUP13 SWAP1 DUP3 SWAP1 DUP2 SWAP1 PUSH1 0x40 ADD SUB DUP2 DUP10 DUP10 GAS CALL SWAP1 DUP2 ISZERO PUSH2 0x1E1E JUMPI DUP7 SWAP2 PUSH2 0x1E01 JUMPI JUMPDEST POP ISZERO PUSH2 0x1DC7 JUMPI PUSH32 0xEFC7F1F15BECFAEC7A3C17EEC78BE3FA7ADB45698F26FCFD25EFE1754C242331 SWAP2 DUP10 DUP10 SWAP3 DUP4 MLOAD SWAP3 DUP4 MSTORE AND DUP13 DUP3 ADD MSTORE LOG1 DUP10 PUSH2 0x1C1A JUMP JUMPDEST DUP8 MLOAD PUSH3 0x461BCD PUSH1 0xE5 SHL DUP2 MSTORE DUP1 DUP8 ADD DUP13 SWAP1 MSTORE PUSH1 0x15 DUP2 DUP6 ADD MSTORE PUSH21 0x115CD8DC9BDDC81C995B19585CD94819985A5B1959 PUSH1 0x5A SHL PUSH1 0x44 DUP3 ADD MSTORE PUSH1 0x64 SWAP1 REVERT JUMPDEST PUSH2 0x1E18 SWAP2 POP DUP13 DUP14 RETURNDATASIZE LT PUSH2 0x552 JUMPI PUSH2 0x544 DUP2 DUP4 PUSH2 0x2263 JUMP JUMPDEST DUP13 PUSH2 0x1D8B JUMP JUMPDEST DUP10 MLOAD RETURNDATASIZE DUP9 DUP3 RETURNDATACOPY RETURNDATASIZE SWAP1 REVERT JUMPDEST SWAP1 SWAP6 POP PUSH1 0x60 DUP2 RETURNDATASIZE PUSH1 0x60 GT PUSH2 0x1E56 JUMPI JUMPDEST DUP2 PUSH2 0x1E44 PUSH1 0x60 SWAP4 DUP4 PUSH2 0x2263 JUMP JUMPDEST DUP2 ADD SUB SLT PUSH2 0x650 JUMPI DUP7 ADD MLOAD SWAP5 DUP11 PUSH2 0x1C13 JUMP JUMPDEST RETURNDATASIZE SWAP2 POP PUSH2 0x1E37 JUMP JUMPDEST DUP8 MLOAD RETURNDATASIZE DUP7 DUP3 RETURNDATACOPY RETURNDATASIZE SWAP1 REVERT JUMPDEST PUSH4 0x4E487B71 PUSH1 0xE0 SHL DUP8 MSTORE PUSH1 0x11 DUP9 MSTORE DUP5 DUP8 REVERT JUMPDEST DUP9 MLOAD PUSH3 0x461BCD PUSH1 0xE5 SHL DUP2 MSTORE DUP1 DUP9 ADD DUP14 SWAP1 MSTORE PUSH1 0x16 DUP2 DUP7 ADD MSTORE PUSH22 0x14185E5B595B9D08185C1C1C9BDD994819985A5B1959 PUSH1 0x52 SHL PUSH1 0x44 DUP3 ADD MSTORE PUSH1 0x64 SWAP1 REVERT JUMPDEST PUSH2 0x1ECC SWAP2 POP DUP14 DUP1 RETURNDATASIZE LT PUSH2 0x552 JUMPI PUSH2 0x544 DUP2 DUP4 PUSH2 0x2263 JUMP JUMPDEST DUP14 PUSH2 0x1B8B JUMP JUMPDEST DUP11 MLOAD RETURNDATASIZE DUP10 DUP3 RETURNDATACOPY RETURNDATASIZE SWAP1 REVERT JUMPDEST POP DUP9 MLOAD PUSH3 0x461BCD PUSH1 0xE5 SHL DUP2 MSTORE DUP1 DUP9 ADD DUP14 SWAP1 MSTORE PUSH1 0x14 DUP2 DUP7 ADD MSTORE PUSH20 0x151BDAD95B88185C1C1C9BDD994819985A5B1959 PUSH1 0x62 SHL PUSH1 0x44 DUP3 ADD MSTORE PUSH1 0x64 SWAP1 REVERT JUMPDEST PUSH2 0x1F2C SWAP3 POP DUP1 RETURNDATASIZE LT PUSH2 0x552 JUMPI PUSH2 0x544 DUP2 DUP4 PUSH2 0x2263 JUMP JUMPDEST DUP15 DUP15 PUSH2 0x1B4B JUMP JUMPDEST DUP12 MLOAD RETURNDATASIZE DUP11 DUP3 RETURNDATACOPY RETURNDATASIZE SWAP1 REVERT JUMPDEST DUP8 MLOAD PUSH3 0x461BCD PUSH1 0xE5 SHL DUP2 MSTORE DUP1 DUP8 ADD DUP13 SWAP1 MSTORE PUSH1 0x1B DUP2 DUP6 ADD MSTORE PUSH32 0x496E73756666696369656E74207061796D656E7420746F6B656E730000000000 PUSH1 0x44 DUP3 ADD MSTORE PUSH1 0x64 SWAP1 REVERT JUMPDEST SWAP1 POP DUP12 DUP2 DUP2 RETURNDATASIZE DUP4 GT PUSH2 0x1FA9 JUMPI JUMPDEST PUSH2 0x1F96 DUP2 DUP4 PUSH2 0x2263 JUMP JUMPDEST DUP2 ADD SUB SLT PUSH2 0x1FA5 JUMPI MLOAD DUP13 PUSH2 0x1ACE JUMP JUMPDEST DUP6 DUP1 REVERT JUMPDEST POP RETURNDATASIZE PUSH2 0x1F8C JUMP JUMPDEST POP POP DUP12 DUP2 DUP2 RETURNDATASIZE DUP4 GT PUSH2 0x1FDA JUMPI JUMPDEST PUSH2 0x1FC7 DUP2 DUP4 PUSH2 0x2263 JUMP JUMPDEST DUP2 ADD SUB SLT PUSH2 0x1FA5 JUMPI DUP8 PUSH2 0x1A8B SWAP2 MLOAD PUSH2 0x1A7F JUMP JUMPDEST POP RETURNDATASIZE PUSH2 0x1FBD JUMP JUMPDEST DUP2 MLOAD PUSH3 0x461BCD PUSH1 0xE5 SHL DUP2 MSTORE PUSH1 0x20 DUP2 DUP6 ADD MSTORE PUSH1 0x10 PUSH1 0x24 DUP3 ADD MSTORE PUSH16 0x105B1C9958591E4819195C1B1BDE5959 PUSH1 0x82 SHL PUSH1 0x44 DUP3 ADD MSTORE PUSH1 0x64 SWAP1 REVERT JUMPDEST DUP3 MLOAD PUSH3 0x461BCD PUSH1 0xE5 SHL DUP2 MSTORE PUSH1 0x20 DUP2 DUP7 ADD MSTORE PUSH1 0x12 PUSH1 0x24 DUP3 ADD MSTORE PUSH18 0x15185C99D95D081B9BDD081C995858DA1959 PUSH1 0x72 SHL PUSH1 0x44 DUP3 ADD MSTORE PUSH1 0x64 SWAP1 REVERT JUMPDEST POP DUP3 CALLVALUE PUSH2 0x10C4 JUMPI PUSH1 0x20 CALLDATASIZE PUSH1 0x3 NOT ADD SLT PUSH2 0x10C4 JUMPI POP PUSH2 0x358 PUSH1 0x20 SWAP3 CALLDATALOAD PUSH2 0x23AD JUMP JUMPDEST POP CALLVALUE PUSH2 0x29B JUMPI DUP3 PUSH1 0x3 NOT CALLDATASIZE ADD SLT PUSH2 0x29B JUMPI DUP1 MLOAD PUSH4 0x70A08231 PUSH1 0xE0 SHL DUP2 MSTORE ADDRESS SWAP3 DUP2 ADD SWAP3 SWAP1 SWAP3 MSTORE PUSH1 0x20 DUP3 PUSH1 0x24 DUP2 PUSH32 0x0 PUSH1 0x1 PUSH1 0x1 PUSH1 0xA0 SHL SUB AND GAS STATICCALL SWAP2 DUP3 ISZERO PUSH2 0x2A7 JUMPI DUP4 SWAP3 PUSH2 0x26B JUMPI PUSH1 0x20 DUP4 DUP4 MLOAD SWAP1 DUP2 MSTORE RETURN JUMPDEST POP SWAP2 SWAP1 CALLVALUE PUSH2 0x2EC JUMPI PUSH1 0x20 SWAP3 DUP4 PUSH1 0x3 NOT CALLDATASIZE ADD SLT PUSH2 0x29B JUMPI PUSH2 0x20FB PUSH2 0x2216 JUMP JUMPDEST PUSH1 0x1 PUSH1 0x1 PUSH1 0xA0 SHL SUB SWAP1 DUP2 AND DUP5 MSTORE PUSH1 0xD DUP6 MSTORE DUP2 DUP5 KECCAK256 DUP3 MLOAD DUP2 SLOAD DUP1 DUP3 MSTORE SWAP2 DUP7 MSTORE DUP7 DUP7 KECCAK256 SWAP1 SWAP6 SWAP5 SWAP2 DUP6 SWAP2 SWAP1 DUP8 SWAP1 DUP2 DUP11 ADD SWAP1 DUP5 JUMPDEST DUP12 DUP3 DUP3 LT PUSH2 0x21E1 JUMPI POP POP POP PUSH2 0x2142 SWAP3 POP SUB DUP8 PUSH2 0x2263 JUMP JUMPDEST DUP1 JUMPDEST DUP7 MLOAD DUP2 LT ISZERO PUSH2 0x21D8 JUMPI DUP8 DUP2 PUSH1 0x5 SHL DUP9 ADD ADD MLOAD DUP3 MSTORE PUSH1 0xC DUP9 MSTORE DUP5 DUP3 KECCAK256 DUP6 MLOAD SWAP1 PUSH2 0x216B DUP3 PUSH2 0x2231 JUMP JUMPDEST DUP1 SLOAD DUP3 MSTORE PUSH1 0x1 DUP2 ADD SLOAD DUP11 DUP4 ADD MSTORE PUSH1 0x2 DUP2 ADD SLOAD SWAP2 DUP3 DUP9 DUP3 ADD MSTORE PUSH1 0xC0 DUP7 PUSH1 0x3 DUP5 ADD SLOAD SWAP4 DUP10 DUP6 AND PUSH1 0x60 DUP6 ADD MSTORE PUSH1 0xFF PUSH1 0xA0 SWAP1 DUP1 DUP8 DUP4 SHR AND ISZERO SWAP7 DUP8 ISZERO PUSH1 0x80 DUP9 ADD MSTORE PUSH1 0xA8 SHR AND ISZERO ISZERO SWAP1 DUP6 ADD MSTORE ADD SLOAD SWAP2 ADD MSTORE PUSH2 0x21C4 JUMPI JUMPDEST POP PUSH1 0x1 ADD PUSH2 0x2144 JUMP JUMPDEST PUSH2 0x21D1 SWAP1 PUSH1 0x1 SWAP3 SWAP8 PUSH2 0x22FC JUMP JUMPDEST SWAP6 SWAP1 PUSH2 0x21BB JUMP JUMPDEST DUP8 DUP7 DUP7 MLOAD SWAP1 DUP2 MSTORE RETURN JUMPDEST DUP6 SLOAD DUP5 MSTORE PUSH1 0x1 SWAP6 DUP7 ADD SWAP6 DUP13 SWAP6 POP SWAP4 ADD SWAP3 ADD PUSH2 0x212B JUMP JUMPDEST DUP5 SWAP1 CALLVALUE PUSH2 0x2EC JUMPI DUP2 PUSH1 0x3 NOT CALLDATASIZE ADD SLT PUSH2 0x2EC JUMPI PUSH1 0x20 SWAP1 PUSH1 0xFF PUSH1 0x2 SLOAD AND DUP2 MSTORE RETURN JUMPDEST PUSH1 0x4 CALLDATALOAD SWAP1 PUSH1 0x1 PUSH1 0x1 PUSH1 0xA0 SHL SUB DUP3 AND DUP3 SUB PUSH2 0x222C JUMPI JUMP JUMPDEST PUSH1 0x0 DUP1 REVERT JUMPDEST PUSH1 0xE0 DUP2 ADD SWAP1 DUP2 LT PUSH8 0xFFFFFFFFFFFFFFFF DUP3 GT OR PUSH2 0x224D JUMPI PUSH1 0x40 MSTORE JUMP JUMPDEST PUSH4 0x4E487B71 PUSH1 0xE0 SHL PUSH1 0x0 MSTORE PUSH1 0x41 PUSH1 0x4 MSTORE PUSH1 0x24 PUSH1 0x0 REVERT JUMPDEST SWAP1 PUSH1 0x1F DUP1 NOT SWAP2 ADD AND DUP2 ADD SWAP1 DUP2 LT PUSH8 0xFFFFFFFFFFFFFFFF DUP3 GT OR PUSH2 0x224D JUMPI PUSH1 0x40 MSTORE JUMP JUMPDEST PUSH1 0x20 DUP1 DUP3 MSTORE DUP3 MLOAD DUP2 DUP4 ADD DUP2 SWAP1 MSTORE SWAP1 SWAP4 SWAP3 PUSH1 0x0 JUMPDEST DUP3 DUP2 LT PUSH2 0x22BA JUMPI POP POP PUSH1 0x40 SWAP3 SWAP4 POP PUSH1 0x0 DUP4 DUP3 DUP5 ADD ADD MSTORE PUSH1 0x1F DUP1 NOT SWAP2 ADD AND ADD ADD SWAP1 JUMP JUMPDEST DUP2 DUP2 ADD DUP7 ADD MLOAD DUP5 DUP3 ADD PUSH1 0x40 ADD MSTORE DUP6 ADD PUSH2 0x2298 JUMP JUMPDEST DUP1 SLOAD DUP3 LT ISZERO PUSH2 0x22E6 JUMPI PUSH1 0x0 MSTORE PUSH1 0x20 PUSH1 0x0 KECCAK256 ADD SWAP1 PUSH1 0x0 SWAP1 JUMP JUMPDEST PUSH4 0x4E487B71 PUSH1 0xE0 SHL PUSH1 0x0 MSTORE PUSH1 0x32 PUSH1 0x4 MSTORE PUSH1 0x24 PUSH1 0x0 REVERT JUMPDEST SWAP2 SWAP1 DUP3 ADD DUP1 SWAP3 GT PUSH2 0x2309 JUMPI JUMP JUMPDEST PUSH4 0x4E487B71 PUSH1 0xE0 SHL PUSH1 0x0 MSTORE PUSH1 0x11 PUSH1 0x4 MSTORE PUSH1 0x24 PUSH1 0x0 REVERT JUMPDEST DUP2 DUP2 MUL SWAP3 SWAP2 DUP2 ISZERO SWAP2 DUP5 DIV EQ OR ISZERO PUSH2 0x2309 JUMPI JUMP JUMPDEST DUP2 ISZERO PUSH2 0x233C JUMPI DIV SWAP1 JUMP JUMPDEST PUSH4 0x4E487B71 PUSH1 0xE0 SHL PUSH1 0x0 MSTORE PUSH1 0x12 PUSH1 0x4 MSTORE PUSH1 0x24 PUSH1 0x0 REVERT JUMPDEST SWAP2 SWAP1 DUP3 SUB SWAP2 DUP3 GT PUSH2 0x2309 JUMPI JUMP JUMPDEST ISZERO PUSH2 0x2366 JUMPI JUMP JUMPDEST PUSH1 0x40 MLOAD PUSH3 0x461BCD PUSH1 0xE5 SHL DUP2 MSTORE PUSH1 0x20 PUSH1 0x4 DUP3 ADD MSTORE PUSH1 0xE PUSH1 0x24 DUP3 ADD MSTORE PUSH14 0x115E18D959591CC81D185C99D95D PUSH1 0x92 SHL PUSH1 0x44 DUP3 ADD MSTORE PUSH1 0x64 SWAP1 REVERT JUMPDEST PUSH1 0xFF AND PUSH1 0x4D DUP2 GT PUSH2 0x2309 JUMPI PUSH1 0xA EXP SWAP1 JUMP JUMPDEST PUSH1 0xC8 DUP2 MUL SWAP1 DUP1 DUP3 DIV PUSH1 0xC8 EQ DUP2 ISZERO OR ISZERO PUSH2 0x2309 JUMPI PUSH2 0x24E4 PUSH2 0x24EF PUSH2 0x243C PUSH2 0x2501 SWAP5 PUSH2 0x746 PUSH2 0x2710 DUP1 SWAP3 DIV SWAP2 PUSH2 0x746 PUSH2 0x2409 DUP5 DUP4 PUSH2 0x701 PUSH32 0x0 DUP13 PUSH2 0x231F JUMP JUMPDEST SWAP2 PUSH2 0x2434 PUSH32 0x0 DUP11 PUSH2 0x231F JUMP JUMPDEST DIV SWAP2 DUP9 PUSH2 0x2352 JUMP JUMPDEST PUSH2 0x24E9 PUSH1 0x8 SLOAD SWAP2 PUSH2 0x24E9 PUSH2 0x2450 DUP3 DUP6 PUSH2 0x22FC JUMP JUMPDEST PUSH2 0x247D PUSH32 0x0 DUP1 SWAP3 GT ISZERO PUSH2 0x235F JUMP JUMPDEST PUSH2 0x24E4 PUSH2 0x2488 PUSH2 0x2857 JUMP JUMPDEST SWAP6 PUSH2 0x24DE PUSH32 0x0 SWAP6 PUSH2 0x24D8 DUP8 PUSH32 0x0 PUSH2 0x2352 JUMP JUMPDEST SWAP3 PUSH2 0x22FC JUMP JUMPDEST SWAP1 PUSH2 0x231F JUMP JUMPDEST PUSH2 0x2332 JUMP JUMPDEST SWAP1 PUSH2 0x22FC JUMP JUMPDEST PUSH1 0x1 SHR SWAP2 PUSH2 0x24DE PUSH1 0xFF PUSH1 0x2 SLOAD AND PUSH2 0x239C JUMP JUMPDEST SWAP1 JUMP JUMPDEST ISZERO PUSH2 0x250B JUMPI JUMP JUMPDEST PUSH1 0x40 MLOAD PUSH3 0x461BCD PUSH1 0xE5 SHL DUP2 MSTORE PUSH1 0x20 PUSH1 0x4 DUP3 ADD MSTORE PUSH1 0x18 PUSH1 0x24 DUP3 ADD MSTORE PUSH32 0x496E73756666696369656E742073616C6520746F6B656E730000000000000000 PUSH1 0x44 DUP3 ADD MSTORE PUSH1 0x64 SWAP1 REVERT JUMPDEST SWAP1 DUP2 PUSH1 0x20 SWAP2 SUB SLT PUSH2 0x222C JUMPI MLOAD DUP1 ISZERO ISZERO DUP2 SUB PUSH2 0x222C JUMPI SWAP1 JUMP JUMPDEST PUSH1 0x40 MLOAD PUSH4 0x70A08231 PUSH1 0xE0 SHL DUP2 MSTORE ADDRESS PUSH1 0x4 DUP3 ADD MSTORE PUSH1 0x20 DUP2 PUSH1 0x24 DUP2 PUSH32 0x0 PUSH1 0x1 PUSH1 0x1 PUSH1 0xA0 SHL SUB AND GAS STATICCALL SWAP1 DUP2 ISZERO PUSH2 0x25FC JUMPI PUSH1 0x0 SWAP2 PUSH2 0x25CA JUMPI JUMPDEST POP PUSH2 0x25C5 PUSH2 0x26C4 JUMP JUMPDEST GT ISZERO SWAP1 JUMP JUMPDEST SWAP1 POP PUSH1 0x20 DUP2 RETURNDATASIZE PUSH1 0x20 GT PUSH2 0x25F4 JUMPI JUMPDEST DUP2 PUSH2 0x25E5 PUSH1 0x20 SWAP4 DUP4 PUSH2 0x2263 JUMP JUMPDEST DUP2 ADD SUB SLT PUSH2 0x222C JUMPI MLOAD CODESIZE PUSH2 0x25BC JUMP JUMPDEST RETURNDATASIZE SWAP2 POP PUSH2 0x25D8 JUMP JUMPDEST PUSH1 0x40 MLOAD RETURNDATASIZE PUSH1 0x0 DUP3 RETURNDATACOPY RETURNDATASIZE SWAP1 REVERT JUMPDEST ISZERO PUSH2 0x260F JUMPI JUMP JUMPDEST PUSH1 0x40 MLOAD PUSH3 0x461BCD PUSH1 0xE5 SHL DUP2 MSTORE PUSH1 0x20 PUSH1 0x4 DUP3 ADD MSTORE PUSH1 0xE PUSH1 0x24 DUP3 ADD MSTORE PUSH14 0x14D85B194818DBDB5C1B195D1959 PUSH1 0x92 SHL PUSH1 0x44 DUP3 ADD MSTORE PUSH1 0x64 SWAP1 REVERT JUMPDEST ISZERO PUSH2 0x264C JUMPI JUMP JUMPDEST PUSH1 0x40 MLOAD PUSH3 0x461BCD PUSH1 0xE5 SHL DUP2 MSTORE PUSH1 0x20 PUSH1 0x4 DUP3 ADD MSTORE PUSH1 0x11 PUSH1 0x24 DUP3 ADD MSTORE PUSH17 0x2737BA103A343290383AB931B430B9B2B9 PUSH1 0x79 SHL PUSH1 0x44 DUP3 ADD MSTORE PUSH1 0x64 SWAP1 REVERT JUMPDEST ISZERO PUSH2 0x268C JUMPI JUMP JUMPDEST PUSH1 0x40 MLOAD PUSH3 0x461BCD PUSH1 0xE5 SHL DUP2 MSTORE PUSH1 0x20 PUSH1 0x4 DUP3 ADD MSTORE PUSH1 0x10 PUSH1 0x24 DUP3 ADD MSTORE PUSH16 0x105B1C9958591E481C995919595B5959 PUSH1 0x82 SHL PUSH1 0x44 DUP3 ADD MSTORE PUSH1 0x64 SWAP1 REVERT JUMPDEST PUSH2 0x26D2 PUSH1 0xFF PUSH1 0x2 SLOAD AND PUSH2 0x239C JUMP JUMPDEST PUSH32 0x0 PUSH2 0x26FD DUP3 DUP3 PUSH2 0x231F JUMP JUMPDEST SWAP1 PUSH2 0x2753 PUSH2 0x272C PUSH32 0x0 DUP1 SWAP5 PUSH2 0x2332 JUMP JUMPDEST SWAP3 PUSH32 0x0 PUSH2 0x22FC JUMP JUMPDEST PUSH1 0x1 SHR PUSH2 0x2710 SWAP2 DUP3 DUP2 MUL SWAP1 DUP1 DUP3 DIV DUP5 EQ SWAP1 ISZERO OR ISZERO PUSH2 0x2309 JUMPI PUSH32 0x0 DUP4 SUB SWAP3 DUP4 GT PUSH2 0x2309 JUMPI PUSH2 0x2501 SWAP5 PUSH2 0x27D4 PUSH2 0x24E4 SWAP3 PUSH2 0x27CE PUSH2 0x24E9 SWAP7 PUSH32 0x0 SWAP1 PUSH2 0x2352 JUMP JUMPDEST SWAP1 PUSH2 0x2332 JUMP JUMPDEST PUSH2 0x231F JUMP JUMPDEST PUSH2 0x2710 PUSH32 0x0 DUP2 SUB DUP2 DUP2 GT PUSH2 0x2309 JUMPI PUSH2 0x2831 PUSH32 0x0 DUP1 SWAP3 PUSH2 0x2352 JUMP JUMPDEST SWAP1 PUSH1 0x8 SLOAD DUP4 DUP2 MUL SWAP1 DUP1 DUP3 DIV DUP6 EQ SWAP1 ISZERO OR ISZERO PUSH2 0x2309 JUMPI PUSH2 0x2853 SWAP3 PUSH2 0x27D4 SWAP2 PUSH2 0x2332 JUMP JUMPDEST DIV SWAP1 JUMP JUMPDEST PUSH1 0x8 SLOAD PUSH32 0x0 SWAP1 DUP2 DUP2 LT ISZERO PUSH2 0x28DA JUMPI PUSH2 0x24E9 PUSH2 0x2501 SWAP3 PUSH2 0x24E4 PUSH32 0x0 SWAP4 PUSH2 0x27D4 DUP6 PUSH32 0x0 PUSH2 0x2352 JUMP JUMPDEST POP POP PUSH32 0x0 SWAP1 JUMP JUMPDEST PUSH1 0x2 PUSH1 0x0 SLOAD EQ PUSH2 0x2911 JUMPI PUSH1 0x2 PUSH1 0x0 SSTORE JUMP JUMPDEST PUSH1 0x40 MLOAD PUSH4 0x3EE5AEB5 PUSH1 0xE0 SHL DUP2 MSTORE PUSH1 0x4 SWAP1 REVERT INVALID LOG2 PUSH5 0x6970667358 0x22 SLT KECCAK256 DUP13 DUP5 0xB3 GASPRICE 0xDD 0xF7 SELFDESTRUCT 0xC8 0xAD SLT PUSH2 0xB40D PUSH6 0xBC0116279D12 0xC4 0xA8 TIMESTAMP PUSH14 0x3309728A6900E95D64736F6C6343 STOP ADDMOD XOR STOP CALLER 0xC6 GAS PUSH28 0xB8D6351C1CF70C95A316CC6A92839C986682D98BC35F958F4883F9D2 0xA8 "
        },
        "methodIdentifiers": {
          "OTTERPAD_DAO()": "edafc9af",
          "OTTERPAD_FEE_BPS()": "ef5ee995",
          "buy(uint256)": "d96a094a",
          "calculateTokensReceived(uint256)": "10d0ffdd",
          "checkSaleTokensRequired()": "5f655ea7",
          "deployToUniswap()": "12eff12c",
          "endPrice()": "b868723e",
          "escrowRakeBPS()": "b704a0c4",
          "foundersWallet()": "1bfaf155",
          "getAllocation(address)": "0e022923",
          "getCurrentPrice()": "eb91d37e",
          "getEscrowedAmount()": "8a19ecef",
          "getMinimumPurchase()": "af5b065a",
          "getPaymentTokenBalance()": "0f8c2798",
          "getSaleTokenBalance()": "f6a55a29",
          "getUserOrderIndices(address)": "bef08860",
          "hasSufficientSaleTokens()": "16c04948",
          "isDeployedToUniswap()": "25f97fb9",
          "lockLPTokenWallet()": "16c94b38",
          "orderCounter()": "b789bf52",
          "paymentToken()": "3013ce29",
          "paymentTokenDecimals()": "325cd796",
          "paymentTokenSymbol()": "73ee6084",
          "purchases(uint256)": "8392fe31",
          "recoverStuckTokens(address,uint256)": "c596f3fe",
          "redeem(uint256)": "db006a75",
          "refund(uint256)": "278ecde1",
          "richInfoUrl()": "c7c8b437",
          "saleToken()": "e985e367",
          "saleTokenDecimals()": "02a9e714",
          "saleTokenSymbol()": "44af14a8",
          "startPrice()": "f1a9af89",
          "targetLiquidity()": "92258ec8",
          "targetReached()": "3bde5ba8",
          "title()": "4a79d50c",
          "totalActiveContributions()": "9513a0fd",
          "totalPaymentsIn()": "de7e3310",
          "totalTokensAllocated()": "c07f773a",
          "uniswapFactory()": "8bdb2afa",
          "uniswapPool()": "bdd3d825",
          "uniswapRouter()": "735de9f7",
          "upfrontRakeBPS()": "560b842c",
          "userOrderIndices(address,uint256)": "5a59c551"
        }
      }
    }
  }
}