{
  "contracts/OtterPadFund.sol": {
    "OtterPadFund": {
      "abi": [
        {
          "inputs": [
            {
              "internalType": "string",
              "name": "_title",
              "type": "string"
            },
            {
              "internalType": "string",
              "name": "_richInfoUrl",
              "type": "string"
            },
            {
              "internalType": "address",
              "name": "_saleToken",
              "type": "address"
            },
            {
              "internalType": "address",
              "name": "_paymentToken",
              "type": "address"
            },
            {
              "internalType": "address",
              "name": "_uniswapRouter",
              "type": "address"
            },
            {
              "internalType": "address",
              "name": "_uniswapFactory",
              "type": "address"
            },
            {
              "internalType": "uint256",
              "name": "_startPrice",
              "type": "uint256"
            },
            {
              "internalType": "uint256",
              "name": "_endPrice",
              "type": "uint256"
            },
            {
              "internalType": "uint256",
              "name": "_targetLiquidity",
              "type": "uint256"
            },
            {
              "internalType": "uint256",
              "name": "_upfrontRakeBPS",
              "type": "uint256"
            },
            {
              "internalType": "uint256",
              "name": "_escrowRakeBPS",
              "type": "uint256"
            },
            {
              "internalType": "address",
              "name": "_foundersWallet",
              "type": "address"
            }
          ],
          "stateMutability": "nonpayable",
          "type": "constructor"
        },
        {
          "inputs": [],
          "name": "ReentrancyGuardReentrantCall",
          "type": "error"
        },
        {
          "anonymous": false,
          "inputs": [
            {
              "indexed": false,
              "internalType": "address",
              "name": "pair",
              "type": "address"
            },
            {
              "indexed": false,
              "internalType": "uint256",
              "name": "liquidity",
              "type": "uint256"
            }
          ],
          "name": "DeployedToUniswap",
          "type": "event"
        },
        {
          "anonymous": false,
          "inputs": [
            {
              "indexed": false,
              "internalType": "uint256",
              "name": "amount",
              "type": "uint256"
            },
            {
              "indexed": false,
              "internalType": "address",
              "name": "foundersWallet",
              "type": "address"
            }
          ],
          "name": "EscrowReleased",
          "type": "event"
        },
        {
          "anonymous": false,
          "inputs": [
            {
              "indexed": true,
              "internalType": "address",
              "name": "purchaser",
              "type": "address"
            },
            {
              "indexed": false,
              "internalType": "uint256",
              "name": "totalAmount",
              "type": "uint256"
            },
            {
              "indexed": false,
              "internalType": "uint256",
              "name": "otterpadFee",
              "type": "uint256"
            },
            {
              "indexed": false,
              "internalType": "uint256",
              "name": "upfrontAmount",
              "type": "uint256"
            },
            {
              "indexed": false,
              "internalType": "uint256",
              "name": "escrowAmount",
              "type": "uint256"
            },
            {
              "indexed": false,
              "internalType": "uint256",
              "name": "contributionAmount",
              "type": "uint256"
            }
          ],
          "name": "PaymentReceived",
          "type": "event"
        },
        {
          "anonymous": false,
          "inputs": [
            {
              "indexed": true,
              "internalType": "address",
              "name": "purchaser",
              "type": "address"
            },
            {
              "indexed": false,
              "internalType": "uint256",
              "name": "contributionAmount",
              "type": "uint256"
            },
            {
              "indexed": true,
              "internalType": "uint256",
              "name": "orderIndex",
              "type": "uint256"
            }
          ],
          "name": "Refunded",
          "type": "event"
        },
        {
          "anonymous": false,
          "inputs": [
            {
              "indexed": true,
              "internalType": "address",
              "name": "purchaser",
              "type": "address"
            },
            {
              "indexed": false,
              "internalType": "uint256",
              "name": "paymentAmount",
              "type": "uint256"
            },
            {
              "indexed": false,
              "internalType": "uint256",
              "name": "contributionAmount",
              "type": "uint256"
            },
            {
              "indexed": false,
              "internalType": "uint256",
              "name": "tokenAmount",
              "type": "uint256"
            },
            {
              "indexed": true,
              "internalType": "uint256",
              "name": "orderIndex",
              "type": "uint256"
            }
          ],
          "name": "TokensPurchased",
          "type": "event"
        },
        {
          "anonymous": false,
          "inputs": [
            {
              "indexed": true,
              "internalType": "address",
              "name": "purchaser",
              "type": "address"
            },
            {
              "indexed": false,
              "internalType": "uint256",
              "name": "tokenAmount",
              "type": "uint256"
            },
            {
              "indexed": true,
              "internalType": "uint256",
              "name": "orderIndex",
              "type": "uint256"
            }
          ],
          "name": "TokensRedeemed",
          "type": "event"
        },
        {
          "inputs": [],
          "name": "OTTERPAD_DAO",
          "outputs": [
            {
              "internalType": "address",
              "name": "",
              "type": "address"
            }
          ],
          "stateMutability": "view",
          "type": "function"
        },
        {
          "inputs": [],
          "name": "OTTERPAD_FEE_BPS",
          "outputs": [
            {
              "internalType": "uint256",
              "name": "",
              "type": "uint256"
            }
          ],
          "stateMutability": "view",
          "type": "function"
        },
        {
          "inputs": [
            {
              "internalType": "uint256",
              "name": "paymentAmount",
              "type": "uint256"
            }
          ],
          "name": "buy",
          "outputs": [],
          "stateMutability": "nonpayable",
          "type": "function"
        },
        {
          "inputs": [
            {
              "internalType": "uint256",
              "name": "paymentAmount",
              "type": "uint256"
            }
          ],
          "name": "calculateTokensReceived",
          "outputs": [
            {
              "internalType": "uint256",
              "name": "",
              "type": "uint256"
            }
          ],
          "stateMutability": "view",
          "type": "function"
        },
        {
          "inputs": [],
          "name": "checkSaleTokensRequired",
          "outputs": [
            {
              "internalType": "uint256",
              "name": "",
              "type": "uint256"
            }
          ],
          "stateMutability": "view",
          "type": "function"
        },
        {
          "inputs": [],
          "name": "deployToUniswap",
          "outputs": [],
          "stateMutability": "nonpayable",
          "type": "function"
        },
        {
          "inputs": [],
          "name": "endPrice",
          "outputs": [
            {
              "internalType": "uint256",
              "name": "",
              "type": "uint256"
            }
          ],
          "stateMutability": "view",
          "type": "function"
        },
        {
          "inputs": [],
          "name": "escrowRakeBPS",
          "outputs": [
            {
              "internalType": "uint256",
              "name": "",
              "type": "uint256"
            }
          ],
          "stateMutability": "view",
          "type": "function"
        },
        {
          "inputs": [],
          "name": "foundersWallet",
          "outputs": [
            {
              "internalType": "address",
              "name": "",
              "type": "address"
            }
          ],
          "stateMutability": "view",
          "type": "function"
        },
        {
          "inputs": [
            {
              "internalType": "address",
              "name": "user",
              "type": "address"
            }
          ],
          "name": "getAllocation",
          "outputs": [
            {
              "internalType": "uint256",
              "name": "totalTokens",
              "type": "uint256"
            }
          ],
          "stateMutability": "view",
          "type": "function"
        },
        {
          "inputs": [],
          "name": "getCurrentPrice",
          "outputs": [
            {
              "internalType": "uint256",
              "name": "",
              "type": "uint256"
            }
          ],
          "stateMutability": "view",
          "type": "function"
        },
        {
          "inputs": [],
          "name": "getEscrowedAmount",
          "outputs": [
            {
              "internalType": "uint256",
              "name": "",
              "type": "uint256"
            }
          ],
          "stateMutability": "view",
          "type": "function"
        },
        {
          "inputs": [],
          "name": "getMinimumPurchase",
          "outputs": [
            {
              "internalType": "uint256",
              "name": "",
              "type": "uint256"
            }
          ],
          "stateMutability": "view",
          "type": "function"
        },
        {
          "inputs": [],
          "name": "getPaymentTokenBalance",
          "outputs": [
            {
              "internalType": "uint256",
              "name": "",
              "type": "uint256"
            }
          ],
          "stateMutability": "view",
          "type": "function"
        },
        {
          "inputs": [],
          "name": "getSaleTokenBalance",
          "outputs": [
            {
              "internalType": "uint256",
              "name": "",
              "type": "uint256"
            }
          ],
          "stateMutability": "view",
          "type": "function"
        },
        {
          "inputs": [
            {
              "internalType": "address",
              "name": "user",
              "type": "address"
            }
          ],
          "name": "getUserOrderIndices",
          "outputs": [
            {
              "internalType": "uint256[]",
              "name": "",
              "type": "uint256[]"
            }
          ],
          "stateMutability": "view",
          "type": "function"
        },
        {
          "inputs": [],
          "name": "hasSufficientSaleTokens",
          "outputs": [
            {
              "internalType": "bool",
              "name": "",
              "type": "bool"
            }
          ],
          "stateMutability": "view",
          "type": "function"
        },
        {
          "inputs": [],
          "name": "isDeployedToUniswap",
          "outputs": [
            {
              "internalType": "bool",
              "name": "",
              "type": "bool"
            }
          ],
          "stateMutability": "view",
          "type": "function"
        },
        {
          "inputs": [],
          "name": "orderCounter",
          "outputs": [
            {
              "internalType": "uint256",
              "name": "",
              "type": "uint256"
            }
          ],
          "stateMutability": "view",
          "type": "function"
        },
        {
          "inputs": [],
          "name": "paymentToken",
          "outputs": [
            {
              "internalType": "contract IERC20Metadata",
              "name": "",
              "type": "address"
            }
          ],
          "stateMutability": "view",
          "type": "function"
        },
        {
          "inputs": [
            {
              "internalType": "uint256",
              "name": "",
              "type": "uint256"
            }
          ],
          "name": "purchases",
          "outputs": [
            {
              "internalType": "uint256",
              "name": "paymentAmount",
              "type": "uint256"
            },
            {
              "internalType": "uint256",
              "name": "contributionAmount",
              "type": "uint256"
            },
            {
              "internalType": "uint256",
              "name": "tokenAmount",
              "type": "uint256"
            },
            {
              "internalType": "address",
              "name": "purchaser",
              "type": "address"
            },
            {
              "internalType": "bool",
              "name": "isRefunded",
              "type": "bool"
            },
            {
              "internalType": "bool",
              "name": "isRedeemed",
              "type": "bool"
            },
            {
              "internalType": "uint256",
              "name": "purchaseBlock",
              "type": "uint256"
            }
          ],
          "stateMutability": "view",
          "type": "function"
        },
        {
          "inputs": [
            {
              "internalType": "address",
              "name": "tokenAddress",
              "type": "address"
            },
            {
              "internalType": "uint256",
              "name": "amount",
              "type": "uint256"
            }
          ],
          "name": "recoverStuckTokens",
          "outputs": [],
          "stateMutability": "nonpayable",
          "type": "function"
        },
        {
          "inputs": [
            {
              "internalType": "uint256",
              "name": "orderIndex",
              "type": "uint256"
            }
          ],
          "name": "redeem",
          "outputs": [],
          "stateMutability": "nonpayable",
          "type": "function"
        },
        {
          "inputs": [
            {
              "internalType": "uint256",
              "name": "orderIndex",
              "type": "uint256"
            }
          ],
          "name": "refund",
          "outputs": [],
          "stateMutability": "nonpayable",
          "type": "function"
        },
        {
          "inputs": [],
          "name": "richInfoUrl",
          "outputs": [
            {
              "internalType": "string",
              "name": "",
              "type": "string"
            }
          ],
          "stateMutability": "view",
          "type": "function"
        },
        {
          "inputs": [],
          "name": "saleToken",
          "outputs": [
            {
              "internalType": "contract IERC20Metadata",
              "name": "",
              "type": "address"
            }
          ],
          "stateMutability": "view",
          "type": "function"
        },
        {
          "inputs": [],
          "name": "startPrice",
          "outputs": [
            {
              "internalType": "uint256",
              "name": "",
              "type": "uint256"
            }
          ],
          "stateMutability": "view",
          "type": "function"
        },
        {
          "inputs": [],
          "name": "targetLiquidity",
          "outputs": [
            {
              "internalType": "uint256",
              "name": "",
              "type": "uint256"
            }
          ],
          "stateMutability": "view",
          "type": "function"
        },
        {
          "inputs": [],
          "name": "targetReached",
          "outputs": [
            {
              "internalType": "bool",
              "name": "",
              "type": "bool"
            }
          ],
          "stateMutability": "view",
          "type": "function"
        },
        {
          "inputs": [],
          "name": "title",
          "outputs": [
            {
              "internalType": "string",
              "name": "",
              "type": "string"
            }
          ],
          "stateMutability": "view",
          "type": "function"
        },
        {
          "inputs": [],
          "name": "totalActiveContributions",
          "outputs": [
            {
              "internalType": "uint256",
              "name": "",
              "type": "uint256"
            }
          ],
          "stateMutability": "view",
          "type": "function"
        },
        {
          "inputs": [],
          "name": "totalPaymentsIn",
          "outputs": [
            {
              "internalType": "uint256",
              "name": "",
              "type": "uint256"
            }
          ],
          "stateMutability": "view",
          "type": "function"
        },
        {
          "inputs": [],
          "name": "totalTokensAllocated",
          "outputs": [
            {
              "internalType": "uint256",
              "name": "",
              "type": "uint256"
            }
          ],
          "stateMutability": "view",
          "type": "function"
        },
        {
          "inputs": [],
          "name": "uniswapFactory",
          "outputs": [
            {
              "internalType": "contract IUniswapV2Factory",
              "name": "",
              "type": "address"
            }
          ],
          "stateMutability": "view",
          "type": "function"
        },
        {
          "inputs": [],
          "name": "uniswapRouter",
          "outputs": [
            {
              "internalType": "contract IUniswapV2Router02",
              "name": "",
              "type": "address"
            }
          ],
          "stateMutability": "view",
          "type": "function"
        },
        {
          "inputs": [],
          "name": "upfrontRakeBPS",
          "outputs": [
            {
              "internalType": "uint256",
              "name": "",
              "type": "uint256"
            }
          ],
          "stateMutability": "view",
          "type": "function"
        },
        {
          "inputs": [
            {
              "internalType": "address",
              "name": "",
              "type": "address"
            },
            {
              "internalType": "uint256",
              "name": "",
              "type": "uint256"
            }
          ],
          "name": "userOrderIndices",
          "outputs": [
            {
              "internalType": "uint256",
              "name": "",
              "type": "uint256"
            }
          ],
          "stateMutability": "view",
          "type": "function"
        }
      ],
      "evm": {
        "bytecode": {
          "linkReferences": {},
          "object": "61020080604052346200098f5762003194803803809162000021828562000994565b8339810190610180818303126200098f5780516001600160401b0381116200098f578262000051918301620009b8565b602082015190926001600160401b0382116200098f5762000074918301620009b8565b91620000836040830162000a2e565b620000916060840162000a2e565b90620000a06080850162000a2e565b93620000af60a0820162000a2e565b9560c08201519660e0830151610100988985015192610120998a87015195620000e26101606101408a0151990162000a2e565b9a60016000558051156200095a578415158062000950575b8062000946575b1562000910578615620008cb57606488106200087a578888018089116200086457611b58106200081f576001600160a01b038c1615620007da576001600160a01b038a16151580620007c7575b1562000782576001600160a01b038a8116908c16146200073d576001600160a01b0383161515806200072a575b15620006e5578051906001600160401b038211620005dd5760065490600182811c92168015620006da575b6020831014620005bc5781601f84931162000679575b50602090601f8311600114620005ff57600092620005f3575b50508160011b916000199060031b1c1916176006555b8051906001600160401b038211620005dd5760075490600182811c92168015620005d2575b6020831014620005bc5781601f8493116200055b575b50602090601f8311600114620004dd57600092620004d1575b50508160011b916000199060031b1c1916176007555b6001600160a01b03978816608081905289891660a05290881660c052961660e05260405163313ce56760e01b8082529096602090889060049082905afa9687156200049e57600097620004aa575b506101a096875260405190815296602090889060049082906001600160a01b03165afa9687156200049e5760009762000466575b506101c0968752895287526101405261016052610180526101e0928352604051936126f5958662000a5f87396080518681816101e7015281816103320152818161043c01528181610cc20152818161173701526122ae015260a0518681816106f7015281816113f90152818161150c0152818161179a0152611da1015260c05186818161122101526117ee015260e05186818161111c0152611927015251858181610287015281816121710152818161252d01526125cb015251848181610ff10152818161219701528181612554015281816125f1015261261e0152610140518481816106050152818161108a015281816110e4015281816121380152818161248e0152612597015261016051848181610665015281816112db015281816120c701526124390152610180518481816106970152818161104b0152818161116b015281816116ef015281816120f201526124670152518381816121de01526124fc01525182818161220101526124d40152518181816107f501528181610c8001528181611635015261169d0152f35b6200048e91975060203d60201162000496575b62000485818362000994565b81019062000a43565b9538620002d7565b503d62000479565b6040513d6000823e3d90fd5b6020919750620004c990823d8411620004965762000485818362000994565b9690620002a3565b0151905038806200023f565b6007600090815293506000805160206200315483398151915291905b601f19841685106200053f576001945083601f1981161062000525575b505050811b0160075562000255565b015160001960f88460031b161c1916905538808062000516565b81810151835560209485019460019093019290910190620004f9565b600760005290915060008051602062003154833981519152601f840160051c810160208510620005b4575b90849392915b601f830160051c82018110620005a457505062000226565b600081558594506001016200058c565b508062000586565b634e487b7160e01b600052602260045260246000fd5b91607f169162000210565b634e487b7160e01b600052604160045260246000fd5b015190503880620001d5565b60066000908152600080516020620031748339815191529350601f198516905b81811062000660575090846001959493921062000646575b505050811b01600655620001eb565b015160001960f88460031b161c1916905538808062000637565b929360206001819287860151815501950193016200061f565b600660005290915060008051602062003174833981519152601f840160051c810160208510620006d2575b90849392915b601f830160051c82018110620006c2575050620001bc565b60008155859450600101620006aa565b5080620006a4565b91607f1691620001a6565b60405162461bcd60e51b815260206004820152601960248201527f496e76616c696420556e697377617020616464726573736573000000000000006044820152606490fd5b506001600160a01b03841615156200017b565b60405162461bcd60e51b815260206004820152601860248201527f546f6b656e73206d75737420626520646966666572656e7400000000000000006044820152606490fd5b60405162461bcd60e51b815260206004820152601760248201527f496e76616c696420746f6b656e206164647265737365730000000000000000006044820152606490fd5b506001600160a01b038b1615156200014e565b60405162461bcd60e51b815260206004820152601760248201527f496e76616c696420666f756e646572732077616c6c65740000000000000000006044820152606490fd5b60405162461bcd60e51b815260206004820152601a60248201527f436f6d62696e65642072616b65203730252065786365656465640000000000006044820152606490fd5b634e487b7160e01b600052601160045260246000fd5b60405162461bcd60e51b8152602060048201526024808201527f557066726f6e742072616b65206d757374206265203e3d204f747465725061646044820152632066656560e01b6064820152608490fd5b60405162461bcd60e51b815260206004820152601660248201527f496e76616c6964207461726765742066756e64696e67000000000000000000006044820152606490fd5b60405162461bcd60e51b815260206004820152600e60248201526d496e76616c69642070726963657360901b6044820152606490fd5b5084861162000101565b50851515620000fa565b60405162461bcd60e51b815260206004820152600d60248201526c496e76616c6964207469746c6560981b6044820152606490fd5b600080fd5b601f909101601f19168101906001600160401b03821190821017620005dd57604052565b919080601f840112156200098f5782516001600160401b038111620005dd5760209060405192620009f383601f19601f850116018562000994565b8184528282870101116200098f5760005b81811062000a1a57508260009394955001015290565b858101830151848201840152820162000a04565b51906001600160a01b03821682036200098f57565b908160209103126200098f575160ff811681036200098f579056fe608060408181526004908136101561001657600080fd5b600092833560e01c9081630e02292314611de2575080630f8c279814611d7457806310d0ffdd14611d5457806312eff12c1461168a57806316c04948146116645780631bfaf1551461162057806325f97fb9146115fc578063278ecde1146114285780633013ce29146113e45780633bde5ba8146113bd5780634a79d50c146112fe578063560b842c146112c35780635a59c5511461126d5780635f655ea714611250578063735de9f71461120c5780638392fe31146111985780638a19ecef1461114b5780638bdb2afa1461110757806392258ec8146110cc5780639513a0fd146110ae578063af5b065a1461106e578063b704a0c414611033578063b789bf5214611014578063b868723e14610fd9578063bef0886014610f29578063c07f773a14610f0a578063c596f3fe14610c58578063c7c8b43714610b55578063d96a094a146105c7578063db006a7514610380578063de7e331014610361578063e985e3671461031d578063eb91d37e146102f9578063edafc9af146102ca578063ef5ee995146102ae578063f1a9af891461026f5763f6a55a29146101bb57600080fd5b3461025957826003193601126102595780516370a0823160e01b815230928101929092526020826024817f00000000000000000000000000000000000000000000000000000000000000006001600160a01b03165afa918215610265578392610229575b6020838351908152f35b9091506020813d60201161025d575b8161024560209383611f46565b81010312610259576020925051903861021f565b8280fd5b3d9150610238565b81513d85823e3d90fd5b8382346102aa57816003193601126102aa57602090517f00000000000000000000000000000000000000000000000000000000000000008152f35b5080fd5b8382346102aa57816003193601126102aa576020905160648152f35b8382346102aa57816003193601126102aa5760209051736c83e86e05697c995d718c1cfa3f9045a38c7cd48152f35b8382346102aa57816003193601126102aa57602090610316612592565b9051908152f35b8382346102aa57816003193601126102aa57517f00000000000000000000000000000000000000000000000000000000000000006001600160a01b03168152602090f35b8382346102aa57816003193601126102aa576020906005549051908152f35b5034610259576020806003193601126105c35782359261039e61269c565b60ff60025460081c161561058957838552600882528285206003810180549092916001600160a01b0391906103d683831633146123b5565b60ff8260a01c16610551576002906103f460ff8460a81c16156123f5565b019384549182156105185760ff60a81b1916600160a81b179055855163a9059cbb60e01b815233848201908152602081019290925291859183919082908b90829060400103927f0000000000000000000000000000000000000000000000000000000000000000165af190811561050e5787916104e1575b50156104a65750907fd171fb179b26c49e23fe46eddd44d3048a1ad277b62144ac0725fbcf1dbf6d52915492519283523392a36001815580f35b835162461bcd60e51b81529081018390526015602482015274151bdad95b881d1c985b9cd9995c8819985a5b1959605a1b6044820152606490fd5b6105019150843d8611610507575b6104f98183611f46565b81019061227b565b3861046c565b503d6104ef565b85513d89823e3d90fd5b875162461bcd60e51b815280860188905260136024820152724e6f20746f6b656e7320746f2072656465656d60681b6044820152606490fd5b865162461bcd60e51b8152808501879052601260248201527113dc99195c881dd85cc81c99599d5b99195960721b6044820152606490fd5b915162461bcd60e51b815291820152601660248201527515185c99d95d081b9bdd081c995858da1959081e595d60521b6044820152606490fd5b8380fd5b503461025957602091826003193601126105c35780356105e561269c565b61060360ff6002546105f982821615612333565b60081c1615612370565b7f000000000000000000000000000000000000000000000000000000000000000092620f424084048210610b1a5760649485830290838204871484151715610b0757916106c691889493612710809204986106cb8a6106c6610690828761068a7f00000000000000000000000000000000000000000000000000000000000000008d612002565b04612035565b80966106bc7f00000000000000000000000000000000000000000000000000000000000000008c612002565b049889938b612035565b612035565b926106e28a6106db868c54611fdf565b1115612042565b6106eb87612090565b9560018060a01b039b8c7f0000000000000000000000000000000000000000000000000000000000000000169187519a6323b872dd60e01b8c52338d8d015260249b308d8201528b60448201528781888185895af1918215610afc5791610adf575b5015610a9e578b918f918951908c82528289830152868b83015260608201528860808201527fbefb6e85b11f40ee4d9e3e8bb0bedbc3d1eee123b1328c0ea0a4b842cbfff74960a03392a2885190736c83e86e05697c995d718c1cfa3f9045a38c7cd463a9059cbb60e01b948584528301528c820152868160448185885af1918215610a935791610a76575b5015610a3f579184918b8f610831958a519687958694859384527f000000000000000000000000000000000000000000000000000000000000000090840160209093929193604081019460018060a01b031681520152565b03925af1908115610a35578c91610a18575b50156109d95750600198895496600019918289146109c75789898e868f8a958c828f93870181558c8951998a9561087987611f14565b8652868601918252808601938452606086019733895260086080880198828a5260c060a08a0199848b52019b438d528352522099518a5551908901555160028801556003870193511683549260ff60a01b9051151560a01b169160ff60a81b9051151560a81b169269ffffffffffffffffffff60b01b16171717905551910155338c5260098352848c20805491680100000000000000008310156109b6575090610927918c82018155611fb1565b819291549060031b9189831b921b191617905561094684600354611fdf565b600355610954828854611fdf565b80975561096385600554611fdf565b60055582519485528401528201527f34987d73948b60cfba9beeb35760c345a3be430f3540605113911ead78a0830e60603392a310156109a257815580f35b61010061ff00196002541617600255815580f35b634e487b7160e01b8e5260418b528dfd5b50634e487b7160e01b8c52601189528bfd5b835162461bcd60e51b81528089018390526017818901527f557066726f6e74207472616e73666572206661696c65640000000000000000006044820152fd5b610a2f9150833d8511610507576104f98183611f46565b38610843565b85513d8e823e3d90fd5b865162461bcd60e51b8152808c018690526013818c015272119959481d1c985b9cd9995c8819985a5b1959606a1b60448201528490fd5b610a8d9150863d8811610507576104f98183611f46565b386107d9565b8951903d90823e3d90fd5b875162461bcd60e51b8152808d018790526017818d01527f5061796d656e74207472616e73666572206661696c656400000000000000000060448201528590fd5b610af69150873d8911610507576104f98183611f46565b3861074d565b8a51903d90823e3d90fd5b634e487b7160e01b885260118552602488fd5b5162461bcd60e51b8152808301859052601660248201527542656c6f77206d696e696d756d20707572636861736560501b6044820152606490fd5b503461025957826003193601126102595780519183600754906001908260011c92600181168015610c4e575b6020958686108214610c3b5750848852908115610c195750600114610bc0575b610bbc8686610bb2828b0383611f46565b5191829182611f68565b0390f35b929550600783527fa66cc928b5edb82af9bd49922954155ab7b0942694bea4ce44661d9a8736c6885b828410610c065750505082610bbc94610bb2928201019438610ba1565b8054868501880152928601928101610be9565b60ff191687860152505050151560051b8301019250610bb282610bbc38610ba1565b634e487b7160e01b845260229052602483fd5b93607f1693610b81565b5034610259578060031936011261025957610c71611ef9565b6024918235610c7e61269c565b7f0000000000000000000000000000000000000000000000000000000000000000926001600160a01b03908185163303610ec85760ff6002541615610e86578116907f0000000000000000000000000000000000000000000000000000000000000000168114610e445782516370a0823160e01b815230878201526020949085818881865afa908115610e3a579084918a91610e05575b5010610dcc57835163a9059cbb60e01b81526001600160a01b039091168782019081526020810193909352918491839182908a90829060400103925af1908115610dc2578691610da5575b5015610d6e57846001815580f35b5162461bcd60e51b81529283015260159082015274151bdad95b881c9958dbdd995c9e4819985a5b1959605a1b6044820152606490fd5b610dbc9150833d8511610507576104f98183611f46565b38610d60565b82513d88823e3d90fd5b835162461bcd60e51b815280880186905260148188015273496e73756666696369656e742062616c616e636560601b6044820152606490fd5b809250878092503d8311610e33575b610e1e8183611f46565b81010312610e2f5783905138610d15565b8880fd5b503d610e14565b85513d8b823e3d90fd5b825162461bcd60e51b81526020818801526019818701527f43616e6e6f74207265636f7665722073616c6520746f6b656e000000000000006044820152606490fd5b835162461bcd60e51b8152602081890152601b818801527f4e6f7420796574206465706c6f79656420746f20556e697377617000000000006044820152606490fd5b835162461bcd60e51b81526020818901526019818801527f4f6e6c7920666f756e646572732063616e207265636f766572000000000000006044820152606490fd5b8382346102aa57816003193601126102aa576020906003549051908152f35b508234610fd65760209081600319360112610fd65782906001600160a01b03610f50611ef9565b16815260098352818120908251808584549182815201908194845286842090845b818110610fc25750505081610f87910382611f46565b83519485948186019282875251809352850193925b828110610fab57505050500390f35b835185528695509381019392810192600101610f9c565b825484529288019260019283019201610f71565b80fd5b8382346102aa57816003193601126102aa57602090517f00000000000000000000000000000000000000000000000000000000000000008152f35b8382346102aa57816003193601126102aa576020906001549051908152f35b8382346102aa57816003193601126102aa57602090517f00000000000000000000000000000000000000000000000000000000000000008152f35b8382346102aa57816003193601126102aa5760209051620f42407f0000000000000000000000000000000000000000000000000000000000000000048152f35b50903461025957826003193601126102595760209250549051908152f35b8382346102aa57816003193601126102aa57602090517f00000000000000000000000000000000000000000000000000000000000000008152f35b8382346102aa57816003193601126102aa57517f00000000000000000000000000000000000000000000000000000000000000006001600160a01b03168152602090f35b8382346102aa57816003193601126102aa576020906127106111906005547f000000000000000000000000000000000000000000000000000000000000000090612002565b049051908152f35b50346102595760203660031901126102595760ff8160e094843581526008602052208054936001820154936002830154916003840154930154948151968752602087015285015260018060a01b0381166060850152818160a01c161515608085015260a81c16151560a083015260c0820152f35b8382346102aa57816003193601126102aa57517f00000000000000000000000000000000000000000000000000000000000000006001600160a01b03168152602090f35b8382346102aa57816003193601126102aa57602090610316612434565b8382346102aa57806003193601126102aa57611287611ef9565b6001600160a01b03168252600960205280822080546024359390841015610fd657506020926112b591611fb1565b91905490519160031b1c8152f35b8382346102aa57816003193601126102aa57602090517f00000000000000000000000000000000000000000000000000000000000000008152f35b503461025957826003193601126102595780519183600654906001908260011c926001811680156113b3575b6020958686108214610c3b5750848852908115610c19575060011461135a57610bbc8686610bb2828b0383611f46565b929550600683527ff652222313e28459528d920b65115c16c04f3efc82aaedc97be59f3f377c0d3f5b8284106113a05750505082610bbc94610bb2928201019438610ba1565b8054868501880152928601928101611383565b93607f169361132a565b8382346102aa57816003193601126102aa5760209060ff60025460081c1690519015158152f35b8382346102aa57816003193601126102aa57517f00000000000000000000000000000000000000000000000000000000000000006001600160a01b03168152602090f35b5034610259576020806003193601126105c35782359261144661269c565b61145a60ff6002546105f982821615612333565b838552600882528285206003810180546001600160a01b039392919061148385821633146123b5565b60ff8160a01c166115c657600189938793836114a860ff6115089660a81c16156123f5565b60ff60a01b191660a084901b17905560028101546003546114c99190612035565b60035501946114da86548654612035565b85558554885163a9059cbb60e01b815233818801908152602081019290925294859384928391604090910190565b03927f0000000000000000000000000000000000000000000000000000000000000000165af190811561050e5787916115a9575b50156115765750907f2dc8e290002f06fc0085bbca9dfb8b415cf4d1178950c72ff9ee8f4d8878ee66915492519283523392a36001815580f35b835162461bcd60e51b8152908101839052600d60248201526c1499599d5b990819985a5b1959609a1b6044820152606490fd5b6115c09150843d8611610507576104f98183611f46565b3861153c565b865162461bcd60e51b8152808501879052601060248201526f105b1c9958591e481c99599d5b99195960821b6044820152606490fd5b8382346102aa57816003193601126102aa5760209060ff6002541690519015158152f35b8382346102aa57816003193601126102aa57517f00000000000000000000000000000000000000000000000000000000000000006001600160a01b03168152602090f35b8382346102aa57816003193601126102aa57602090611681612293565b90519015158152f35b50346102595782600319360112610259577f0000000000000000000000000000000000000000000000000000000000000000906001600160a01b038083163303611d115760025460ff8160081c1615611cd95760ff16611ca3576127106117146005547f000000000000000000000000000000000000000000000000000000000000000090612002565b04938054936117238686612035565b9461173461172f612293565b61222f565b837f0000000000000000000000000000000000000000000000000000000000000000168551976370a0823160e01b93848a5230868b01526020996024948b828781885afa918215611b92578d92611c70575b506117966003548093101561222f565b8c897f000000000000000000000000000000000000000000000000000000000000000016978b51908152308a8201528d8189818c5afa918215611bf25791611c3f575b5010611bfd57885163095ea7b360e01b8082527f00000000000000000000000000000000000000000000000000000000000000008a166001600160a01b0381168a840190815260208101949094529290918e918e90829081906040010381858b5af1918215611bf25791611bd5575b5015611b9c5789519081526001600160a01b038216818901908152602081018c90528c9082908f908290819060400103918b5af1908115611b92578d91611b75575b5015611b3a5760035490607842014211611b2857908c918a519b8c9262e8e33760e81b8452878b8501528989850152806044850152816064850152608484015260a48301523060c48301524260780160e4830152815a9361010492606095f1988915611b1e578b99611ae4575b5081611a06575b50506002805460ff19166001179055855163e6a4390560e01b81529384015282015284816044817f000000000000000000000000000000000000000000000000000000000000000086165afa9485156119fc57869561199d575b505090516001600160a01b0390931683525060208201527f4db0962b68e799b508143f50800f1504d656cbd0fe6395510c0dca385bfd84079080604081015b0390a180f35b9080929550813d83116119f5575b6119b58183611f46565b810103126119f1575192831683036105c3576119977f4db0962b68e799b508143f50800f1504d656cbd0fe6395510c0dca385bfd840738611958565b8480fd5b503d6119ab565b83513d88823e3d90fd5b875163a9059cbb60e01b81526001600160a01b038216878201908152602081018490528b908290819003604001818f8a5af1908115611ada578c91611abd575b5015611a83577fefc7f1f15becfaec7a3c17eec78be3fa7adb45698f26fcfd25efe1754c242331918789928351928352168b820152a138806118fe565b875162461bcd60e51b81528087018b905260158186015274115cd8dc9bddc81c995b19585cd94819985a5b1959605a1b6044820152606490fd5b611ad491508b3d8d11610507576104f98183611f46565b38611a46565b89513d8e823e3d90fd5b9098506060813d606011611b16575b81611b0060609383611f46565b81010312611b125787015197386118f7565b8a80fd5b3d9150611af3565b88513d8d823e3d90fd5b634e487b7160e01b8d5260118852858dfd5b885162461bcd60e51b81528088018c90526016818701527514185e5b595b9d08185c1c1c9bdd994819985a5b195960521b6044820152606490fd5b611b8c91508c8d3d10610507576104f98183611f46565b3861188a565b8a513d8f823e3d90fd5b895162461bcd60e51b81528089018d905260148188015273151bdad95b88185c1c1c9bdd994819985a5b195960621b6044820152606490fd5b611bec91508d803d10610507576104f98183611f46565b38611848565b8c51903d90823e3d90fd5b885162461bcd60e51b81528088018c9052601b818701527f496e73756666696369656e74207061796d656e7420746f6b656e7300000000006044820152606490fd5b90508c81813d8311611c69575b611c568183611f46565b81010312611c655751386117d9565b8d80fd5b503d611c4c565b9091508b81813d8311611c9c575b611c888183611f46565b81010312611c9857519038611786565b8c80fd5b503d611c7e565b815162461bcd60e51b8152602081860152601060248201526f105b1c9958591e4819195c1b1bde595960821b6044820152606490fd5b825162461bcd60e51b8152602081870152601260248201527115185c99d95d081b9bdd081c995858da195960721b6044820152606490fd5b815162461bcd60e51b8152602081860152601860248201527f4f6e6c7920666f756e646572732063616e206465706c6f7900000000000000006044820152606490fd5b508234610fd6576020366003190112610fd6575061031660209235612090565b503461025957826003193601126102595780516370a0823160e01b815230928101929092526020826024817f00000000000000000000000000000000000000000000000000000000000000006001600160a01b03165afa918215610265578392610229576020838351908152f35b91849150346102aa576020938460031936011261025957611e01611ef9565b6001600160a01b03908116845260098652828420805480875290855286852091929185918790818a0190845b8b828210611ee357505050611e4492500387611f46565b805b8651811015611eda57878160051b88010151825260088852848220855190611e6d82611f14565b8054825260018101548a830152600281015491828882015260c086600384015493898516606085015260ff60a0908087831c1615968715608088015260a81c161515908501520154910152611ec6575b50600101611e46565b611ed39060019297611fdf565b9590611ebd565b87868651908152f35b855484526001958601958c955093019201611e2d565b600435906001600160a01b0382168203611f0f57565b600080fd5b60e0810190811067ffffffffffffffff821117611f3057604052565b634e487b7160e01b600052604160045260246000fd5b90601f8019910116810190811067ffffffffffffffff821117611f3057604052565b6020808252825181830181905290939260005b828110611f9d57505060409293506000838284010152601f8019910116010190565b818101860151848201604001528501611f7b565b8054821015611fc95760005260206000200190600090565b634e487b7160e01b600052603260045260246000fd5b91908201809211611fec57565b634e487b7160e01b600052601160045260246000fd5b81810292918115918404141715611fec57565b811561201f570490565b634e487b7160e01b600052601260045260246000fd5b91908203918211611fec57565b1561204957565b60405162461bcd60e51b815260206004820152600e60248201526d115e18d959591cc81d185c99d95d60921b6044820152606490fd5b60ff16604d8111611fec57600a0a90565b606481029080820460641481151715611fec576121c76121d261211f61222c946106c6612710809204916106c66120ec848361068a7f00000000000000000000000000000000000000000000000000000000000000008c612002565b916121177f00000000000000000000000000000000000000000000000000000000000000008a612002565b049188612035565b6121cc600454916121cc6121338285611fdf565b6121607f000000000000000000000000000000000000000000000000000000000000000080921115612042565b6121c761216b612592565b956121c17f0000000000000000000000000000000000000000000000000000000000000000956121bb877f0000000000000000000000000000000000000000000000000000000000000000612035565b92611fdf565b90612002565b612015565b90611fdf565b60011c916121c16122267f000000000000000000000000000000000000000000000000000000000000000080937f000000000000000000000000000000000000000000000000000000000000000090612654565b9161207f565b90565b1561223657565b60405162461bcd60e51b815260206004820152601860248201527f496e73756666696369656e742073616c6520746f6b656e7300000000000000006044820152606490fd5b90816020910312611f0f57518015158103611f0f5790565b6040516370a0823160e01b81523060048201526020816024817f00000000000000000000000000000000000000000000000000000000000000006001600160a01b03165afa908115612327576000916122f5575b506122f0612434565b111590565b90506020813d60201161231f575b8161231060209383611f46565b81010312611f0f5751386122e7565b3d9150612303565b6040513d6000823e3d90fd5b1561233a57565b60405162461bcd60e51b815260206004820152600e60248201526d14d85b194818dbdb5c1b195d195960921b6044820152606490fd5b1561237757565b60405162461bcd60e51b815260206004820152601660248201527515185c99d95d08185b1c9958591e481c995858da195960521b6044820152606490fd5b156123bc57565b60405162461bcd60e51b81526020600482015260116024820152702737ba103a343290383ab931b430b9b2b960791b6044820152606490fd5b156123fc57565b60405162461bcd60e51b815260206004820152601060248201526f105b1c9958591e481c995919595b595960821b6044820152606490fd5b6127107f00000000000000000000000000000000000000000000000000000000000000008103818111611fec5761248c907f000000000000000000000000000000000000000000000000000000000000000090612035565b7f000000000000000000000000000000000000000000000000000000000000000090828202928284041482151715611fec576124ce6121cc9161222c94612015565b916121c77f0000000000000000000000000000000000000000000000000000000000000000916121c161258c7f0000000000000000000000000000000000000000000000000000000000000000966121c761257f6125788a612551818b7f0000000000000000000000000000000000000000000000000000000000000000612654565b997f0000000000000000000000000000000000000000000000000000000000000000612654565b8098611fdf565b60011c916121c18a61207f565b9561207f565b6004547f0000000000000000000000000000000000000000000000000000000000000000908181101561261a576121cc61222c926121c77f000000000000000000000000000000000000000000000000000000000000000093612615857f0000000000000000000000000000000000000000000000000000000000000000612035565b612002565b50507f000000000000000000000000000000000000000000000000000000000000000090565b9060ff8091169116039060ff8211611fec57565b9060ff831660ff821681811461269457106126845761267961222c9361267e92612640565b61207f565b90612015565b6126796121c19161222c94612640565b505050905090565b6002600054146126ad576002600055565b604051633ee5aeb560e01b8152600490fdfea26469706673582212203628a837d67ec8577ca5d6d16c1afa27e289bad25b05528b7f2717f27a615b5564736f6c63430008180033a66cc928b5edb82af9bd49922954155ab7b0942694bea4ce44661d9a8736c688f652222313e28459528d920b65115c16c04f3efc82aaedc97be59f3f377c0d3f",
          "opcodes": "PUSH2 0x200 DUP1 PUSH1 0x40 MSTORE CALLVALUE PUSH3 0x98F JUMPI PUSH3 0x3194 DUP1 CODESIZE SUB DUP1 SWAP2 PUSH3 0x21 DUP3 DUP6 PUSH3 0x994 JUMP JUMPDEST DUP4 CODECOPY DUP2 ADD SWAP1 PUSH2 0x180 DUP2 DUP4 SUB SLT PUSH3 0x98F JUMPI DUP1 MLOAD PUSH1 0x1 PUSH1 0x1 PUSH1 0x40 SHL SUB DUP2 GT PUSH3 0x98F JUMPI DUP3 PUSH3 0x51 SWAP2 DUP4 ADD PUSH3 0x9B8 JUMP JUMPDEST PUSH1 0x20 DUP3 ADD MLOAD SWAP1 SWAP3 PUSH1 0x1 PUSH1 0x1 PUSH1 0x40 SHL SUB DUP3 GT PUSH3 0x98F JUMPI PUSH3 0x74 SWAP2 DUP4 ADD PUSH3 0x9B8 JUMP JUMPDEST SWAP2 PUSH3 0x83 PUSH1 0x40 DUP4 ADD PUSH3 0xA2E JUMP JUMPDEST PUSH3 0x91 PUSH1 0x60 DUP5 ADD PUSH3 0xA2E JUMP JUMPDEST SWAP1 PUSH3 0xA0 PUSH1 0x80 DUP6 ADD PUSH3 0xA2E JUMP JUMPDEST SWAP4 PUSH3 0xAF PUSH1 0xA0 DUP3 ADD PUSH3 0xA2E JUMP JUMPDEST SWAP6 PUSH1 0xC0 DUP3 ADD MLOAD SWAP7 PUSH1 0xE0 DUP4 ADD MLOAD PUSH2 0x100 SWAP9 DUP10 DUP6 ADD MLOAD SWAP3 PUSH2 0x120 SWAP10 DUP11 DUP8 ADD MLOAD SWAP6 PUSH3 0xE2 PUSH2 0x160 PUSH2 0x140 DUP11 ADD MLOAD SWAP10 ADD PUSH3 0xA2E JUMP JUMPDEST SWAP11 PUSH1 0x1 PUSH1 0x0 SSTORE DUP1 MLOAD ISZERO PUSH3 0x95A JUMPI DUP5 ISZERO ISZERO DUP1 PUSH3 0x950 JUMPI JUMPDEST DUP1 PUSH3 0x946 JUMPI JUMPDEST ISZERO PUSH3 0x910 JUMPI DUP7 ISZERO PUSH3 0x8CB JUMPI PUSH1 0x64 DUP9 LT PUSH3 0x87A JUMPI DUP9 DUP9 ADD DUP1 DUP10 GT PUSH3 0x864 JUMPI PUSH2 0x1B58 LT PUSH3 0x81F JUMPI PUSH1 0x1 PUSH1 0x1 PUSH1 0xA0 SHL SUB DUP13 AND ISZERO PUSH3 0x7DA JUMPI PUSH1 0x1 PUSH1 0x1 PUSH1 0xA0 SHL SUB DUP11 AND ISZERO ISZERO DUP1 PUSH3 0x7C7 JUMPI JUMPDEST ISZERO PUSH3 0x782 JUMPI PUSH1 0x1 PUSH1 0x1 PUSH1 0xA0 SHL SUB DUP11 DUP2 AND SWAP1 DUP13 AND EQ PUSH3 0x73D JUMPI PUSH1 0x1 PUSH1 0x1 PUSH1 0xA0 SHL SUB DUP4 AND ISZERO ISZERO DUP1 PUSH3 0x72A JUMPI JUMPDEST ISZERO PUSH3 0x6E5 JUMPI DUP1 MLOAD SWAP1 PUSH1 0x1 PUSH1 0x1 PUSH1 0x40 SHL SUB DUP3 GT PUSH3 0x5DD JUMPI PUSH1 0x6 SLOAD SWAP1 PUSH1 0x1 DUP3 DUP2 SHR SWAP3 AND DUP1 ISZERO PUSH3 0x6DA JUMPI JUMPDEST PUSH1 0x20 DUP4 LT EQ PUSH3 0x5BC JUMPI DUP2 PUSH1 0x1F DUP5 SWAP4 GT PUSH3 0x679 JUMPI JUMPDEST POP PUSH1 0x20 SWAP1 PUSH1 0x1F DUP4 GT PUSH1 0x1 EQ PUSH3 0x5FF JUMPI PUSH1 0x0 SWAP3 PUSH3 0x5F3 JUMPI JUMPDEST POP POP DUP2 PUSH1 0x1 SHL SWAP2 PUSH1 0x0 NOT SWAP1 PUSH1 0x3 SHL SHR NOT AND OR PUSH1 0x6 SSTORE JUMPDEST DUP1 MLOAD SWAP1 PUSH1 0x1 PUSH1 0x1 PUSH1 0x40 SHL SUB DUP3 GT PUSH3 0x5DD JUMPI PUSH1 0x7 SLOAD SWAP1 PUSH1 0x1 DUP3 DUP2 SHR SWAP3 AND DUP1 ISZERO PUSH3 0x5D2 JUMPI JUMPDEST PUSH1 0x20 DUP4 LT EQ PUSH3 0x5BC JUMPI DUP2 PUSH1 0x1F DUP5 SWAP4 GT PUSH3 0x55B JUMPI JUMPDEST POP PUSH1 0x20 SWAP1 PUSH1 0x1F DUP4 GT PUSH1 0x1 EQ PUSH3 0x4DD JUMPI PUSH1 0x0 SWAP3 PUSH3 0x4D1 JUMPI JUMPDEST POP POP DUP2 PUSH1 0x1 SHL SWAP2 PUSH1 0x0 NOT SWAP1 PUSH1 0x3 SHL SHR NOT AND OR PUSH1 0x7 SSTORE JUMPDEST PUSH1 0x1 PUSH1 0x1 PUSH1 0xA0 SHL SUB SWAP8 DUP9 AND PUSH1 0x80 DUP2 SWAP1 MSTORE DUP10 DUP10 AND PUSH1 0xA0 MSTORE SWAP1 DUP9 AND PUSH1 0xC0 MSTORE SWAP7 AND PUSH1 0xE0 MSTORE PUSH1 0x40 MLOAD PUSH4 0x313CE567 PUSH1 0xE0 SHL DUP1 DUP3 MSTORE SWAP1 SWAP7 PUSH1 0x20 SWAP1 DUP9 SWAP1 PUSH1 0x4 SWAP1 DUP3 SWAP1 GAS STATICCALL SWAP7 DUP8 ISZERO PUSH3 0x49E JUMPI PUSH1 0x0 SWAP8 PUSH3 0x4AA JUMPI JUMPDEST POP PUSH2 0x1A0 SWAP7 DUP8 MSTORE PUSH1 0x40 MLOAD SWAP1 DUP2 MSTORE SWAP7 PUSH1 0x20 SWAP1 DUP9 SWAP1 PUSH1 0x4 SWAP1 DUP3 SWAP1 PUSH1 0x1 PUSH1 0x1 PUSH1 0xA0 SHL SUB AND GAS STATICCALL SWAP7 DUP8 ISZERO PUSH3 0x49E JUMPI PUSH1 0x0 SWAP8 PUSH3 0x466 JUMPI JUMPDEST POP PUSH2 0x1C0 SWAP7 DUP8 MSTORE DUP10 MSTORE DUP8 MSTORE PUSH2 0x140 MSTORE PUSH2 0x160 MSTORE PUSH2 0x180 MSTORE PUSH2 0x1E0 SWAP3 DUP4 MSTORE PUSH1 0x40 MLOAD SWAP4 PUSH2 0x26F5 SWAP6 DUP7 PUSH3 0xA5F DUP8 CODECOPY PUSH1 0x80 MLOAD DUP7 DUP2 DUP2 PUSH2 0x1E7 ADD MSTORE DUP2 DUP2 PUSH2 0x332 ADD MSTORE DUP2 DUP2 PUSH2 0x43C ADD MSTORE DUP2 DUP2 PUSH2 0xCC2 ADD MSTORE DUP2 DUP2 PUSH2 0x1737 ADD MSTORE PUSH2 0x22AE ADD MSTORE PUSH1 0xA0 MLOAD DUP7 DUP2 DUP2 PUSH2 0x6F7 ADD MSTORE DUP2 DUP2 PUSH2 0x13F9 ADD MSTORE DUP2 DUP2 PUSH2 0x150C ADD MSTORE DUP2 DUP2 PUSH2 0x179A ADD MSTORE PUSH2 0x1DA1 ADD MSTORE PUSH1 0xC0 MLOAD DUP7 DUP2 DUP2 PUSH2 0x1221 ADD MSTORE PUSH2 0x17EE ADD MSTORE PUSH1 0xE0 MLOAD DUP7 DUP2 DUP2 PUSH2 0x111C ADD MSTORE PUSH2 0x1927 ADD MSTORE MLOAD DUP6 DUP2 DUP2 PUSH2 0x287 ADD MSTORE DUP2 DUP2 PUSH2 0x2171 ADD MSTORE DUP2 DUP2 PUSH2 0x252D ADD MSTORE PUSH2 0x25CB ADD MSTORE MLOAD DUP5 DUP2 DUP2 PUSH2 0xFF1 ADD MSTORE DUP2 DUP2 PUSH2 0x2197 ADD MSTORE DUP2 DUP2 PUSH2 0x2554 ADD MSTORE DUP2 DUP2 PUSH2 0x25F1 ADD MSTORE PUSH2 0x261E ADD MSTORE PUSH2 0x140 MLOAD DUP5 DUP2 DUP2 PUSH2 0x605 ADD MSTORE DUP2 DUP2 PUSH2 0x108A ADD MSTORE DUP2 DUP2 PUSH2 0x10E4 ADD MSTORE DUP2 DUP2 PUSH2 0x2138 ADD MSTORE DUP2 DUP2 PUSH2 0x248E ADD MSTORE PUSH2 0x2597 ADD MSTORE PUSH2 0x160 MLOAD DUP5 DUP2 DUP2 PUSH2 0x665 ADD MSTORE DUP2 DUP2 PUSH2 0x12DB ADD MSTORE DUP2 DUP2 PUSH2 0x20C7 ADD MSTORE PUSH2 0x2439 ADD MSTORE PUSH2 0x180 MLOAD DUP5 DUP2 DUP2 PUSH2 0x697 ADD MSTORE DUP2 DUP2 PUSH2 0x104B ADD MSTORE DUP2 DUP2 PUSH2 0x116B ADD MSTORE DUP2 DUP2 PUSH2 0x16EF ADD MSTORE DUP2 DUP2 PUSH2 0x20F2 ADD MSTORE PUSH2 0x2467 ADD MSTORE MLOAD DUP4 DUP2 DUP2 PUSH2 0x21DE ADD MSTORE PUSH2 0x24FC ADD MSTORE MLOAD DUP3 DUP2 DUP2 PUSH2 0x2201 ADD MSTORE PUSH2 0x24D4 ADD MSTORE MLOAD DUP2 DUP2 DUP2 PUSH2 0x7F5 ADD MSTORE DUP2 DUP2 PUSH2 0xC80 ADD MSTORE DUP2 DUP2 PUSH2 0x1635 ADD MSTORE PUSH2 0x169D ADD MSTORE RETURN JUMPDEST PUSH3 0x48E SWAP2 SWAP8 POP PUSH1 0x20 RETURNDATASIZE PUSH1 0x20 GT PUSH3 0x496 JUMPI JUMPDEST PUSH3 0x485 DUP2 DUP4 PUSH3 0x994 JUMP JUMPDEST DUP2 ADD SWAP1 PUSH3 0xA43 JUMP JUMPDEST SWAP6 CODESIZE PUSH3 0x2D7 JUMP JUMPDEST POP RETURNDATASIZE PUSH3 0x479 JUMP JUMPDEST PUSH1 0x40 MLOAD RETURNDATASIZE PUSH1 0x0 DUP3 RETURNDATACOPY RETURNDATASIZE SWAP1 REVERT JUMPDEST PUSH1 0x20 SWAP2 SWAP8 POP PUSH3 0x4C9 SWAP1 DUP3 RETURNDATASIZE DUP5 GT PUSH3 0x496 JUMPI PUSH3 0x485 DUP2 DUP4 PUSH3 0x994 JUMP JUMPDEST SWAP7 SWAP1 PUSH3 0x2A3 JUMP JUMPDEST ADD MLOAD SWAP1 POP CODESIZE DUP1 PUSH3 0x23F JUMP JUMPDEST PUSH1 0x7 PUSH1 0x0 SWAP1 DUP2 MSTORE SWAP4 POP PUSH1 0x0 DUP1 MLOAD PUSH1 0x20 PUSH3 0x3154 DUP4 CODECOPY DUP2 MLOAD SWAP2 MSTORE SWAP2 SWAP1 JUMPDEST PUSH1 0x1F NOT DUP5 AND DUP6 LT PUSH3 0x53F JUMPI PUSH1 0x1 SWAP5 POP DUP4 PUSH1 0x1F NOT DUP2 AND LT PUSH3 0x525 JUMPI JUMPDEST POP POP POP DUP2 SHL ADD PUSH1 0x7 SSTORE PUSH3 0x255 JUMP JUMPDEST ADD MLOAD PUSH1 0x0 NOT PUSH1 0xF8 DUP5 PUSH1 0x3 SHL AND SHR NOT AND SWAP1 SSTORE CODESIZE DUP1 DUP1 PUSH3 0x516 JUMP JUMPDEST DUP2 DUP2 ADD MLOAD DUP4 SSTORE PUSH1 0x20 SWAP5 DUP6 ADD SWAP5 PUSH1 0x1 SWAP1 SWAP4 ADD SWAP3 SWAP1 SWAP2 ADD SWAP1 PUSH3 0x4F9 JUMP JUMPDEST PUSH1 0x7 PUSH1 0x0 MSTORE SWAP1 SWAP2 POP PUSH1 0x0 DUP1 MLOAD PUSH1 0x20 PUSH3 0x3154 DUP4 CODECOPY DUP2 MLOAD SWAP2 MSTORE PUSH1 0x1F DUP5 ADD PUSH1 0x5 SHR DUP2 ADD PUSH1 0x20 DUP6 LT PUSH3 0x5B4 JUMPI JUMPDEST SWAP1 DUP5 SWAP4 SWAP3 SWAP2 JUMPDEST PUSH1 0x1F DUP4 ADD PUSH1 0x5 SHR DUP3 ADD DUP2 LT PUSH3 0x5A4 JUMPI POP POP PUSH3 0x226 JUMP JUMPDEST PUSH1 0x0 DUP2 SSTORE DUP6 SWAP5 POP PUSH1 0x1 ADD PUSH3 0x58C JUMP JUMPDEST POP DUP1 PUSH3 0x586 JUMP JUMPDEST PUSH4 0x4E487B71 PUSH1 0xE0 SHL PUSH1 0x0 MSTORE PUSH1 0x22 PUSH1 0x4 MSTORE PUSH1 0x24 PUSH1 0x0 REVERT JUMPDEST SWAP2 PUSH1 0x7F AND SWAP2 PUSH3 0x210 JUMP JUMPDEST PUSH4 0x4E487B71 PUSH1 0xE0 SHL PUSH1 0x0 MSTORE PUSH1 0x41 PUSH1 0x4 MSTORE PUSH1 0x24 PUSH1 0x0 REVERT JUMPDEST ADD MLOAD SWAP1 POP CODESIZE DUP1 PUSH3 0x1D5 JUMP JUMPDEST PUSH1 0x6 PUSH1 0x0 SWAP1 DUP2 MSTORE PUSH1 0x0 DUP1 MLOAD PUSH1 0x20 PUSH3 0x3174 DUP4 CODECOPY DUP2 MLOAD SWAP2 MSTORE SWAP4 POP PUSH1 0x1F NOT DUP6 AND SWAP1 JUMPDEST DUP2 DUP2 LT PUSH3 0x660 JUMPI POP SWAP1 DUP5 PUSH1 0x1 SWAP6 SWAP5 SWAP4 SWAP3 LT PUSH3 0x646 JUMPI JUMPDEST POP POP POP DUP2 SHL ADD PUSH1 0x6 SSTORE PUSH3 0x1EB JUMP JUMPDEST ADD MLOAD PUSH1 0x0 NOT PUSH1 0xF8 DUP5 PUSH1 0x3 SHL AND SHR NOT AND SWAP1 SSTORE CODESIZE DUP1 DUP1 PUSH3 0x637 JUMP JUMPDEST SWAP3 SWAP4 PUSH1 0x20 PUSH1 0x1 DUP2 SWAP3 DUP8 DUP7 ADD MLOAD DUP2 SSTORE ADD SWAP6 ADD SWAP4 ADD PUSH3 0x61F JUMP JUMPDEST PUSH1 0x6 PUSH1 0x0 MSTORE SWAP1 SWAP2 POP PUSH1 0x0 DUP1 MLOAD PUSH1 0x20 PUSH3 0x3174 DUP4 CODECOPY DUP2 MLOAD SWAP2 MSTORE PUSH1 0x1F DUP5 ADD PUSH1 0x5 SHR DUP2 ADD PUSH1 0x20 DUP6 LT PUSH3 0x6D2 JUMPI JUMPDEST SWAP1 DUP5 SWAP4 SWAP3 SWAP2 JUMPDEST PUSH1 0x1F DUP4 ADD PUSH1 0x5 SHR DUP3 ADD DUP2 LT PUSH3 0x6C2 JUMPI POP POP PUSH3 0x1BC JUMP JUMPDEST PUSH1 0x0 DUP2 SSTORE DUP6 SWAP5 POP PUSH1 0x1 ADD PUSH3 0x6AA JUMP JUMPDEST POP DUP1 PUSH3 0x6A4 JUMP JUMPDEST SWAP2 PUSH1 0x7F AND SWAP2 PUSH3 0x1A6 JUMP JUMPDEST PUSH1 0x40 MLOAD PUSH3 0x461BCD PUSH1 0xE5 SHL DUP2 MSTORE PUSH1 0x20 PUSH1 0x4 DUP3 ADD MSTORE PUSH1 0x19 PUSH1 0x24 DUP3 ADD MSTORE PUSH32 0x496E76616C696420556E69737761702061646472657373657300000000000000 PUSH1 0x44 DUP3 ADD MSTORE PUSH1 0x64 SWAP1 REVERT JUMPDEST POP PUSH1 0x1 PUSH1 0x1 PUSH1 0xA0 SHL SUB DUP5 AND ISZERO ISZERO PUSH3 0x17B JUMP JUMPDEST PUSH1 0x40 MLOAD PUSH3 0x461BCD PUSH1 0xE5 SHL DUP2 MSTORE PUSH1 0x20 PUSH1 0x4 DUP3 ADD MSTORE PUSH1 0x18 PUSH1 0x24 DUP3 ADD MSTORE PUSH32 0x546F6B656E73206D75737420626520646966666572656E740000000000000000 PUSH1 0x44 DUP3 ADD MSTORE PUSH1 0x64 SWAP1 REVERT JUMPDEST PUSH1 0x40 MLOAD PUSH3 0x461BCD PUSH1 0xE5 SHL DUP2 MSTORE PUSH1 0x20 PUSH1 0x4 DUP3 ADD MSTORE PUSH1 0x17 PUSH1 0x24 DUP3 ADD MSTORE PUSH32 0x496E76616C696420746F6B656E20616464726573736573000000000000000000 PUSH1 0x44 DUP3 ADD MSTORE PUSH1 0x64 SWAP1 REVERT JUMPDEST POP PUSH1 0x1 PUSH1 0x1 PUSH1 0xA0 SHL SUB DUP12 AND ISZERO ISZERO PUSH3 0x14E JUMP JUMPDEST PUSH1 0x40 MLOAD PUSH3 0x461BCD PUSH1 0xE5 SHL DUP2 MSTORE PUSH1 0x20 PUSH1 0x4 DUP3 ADD MSTORE PUSH1 0x17 PUSH1 0x24 DUP3 ADD MSTORE PUSH32 0x496E76616C696420666F756E646572732077616C6C6574000000000000000000 PUSH1 0x44 DUP3 ADD MSTORE PUSH1 0x64 SWAP1 REVERT JUMPDEST PUSH1 0x40 MLOAD PUSH3 0x461BCD PUSH1 0xE5 SHL DUP2 MSTORE PUSH1 0x20 PUSH1 0x4 DUP3 ADD MSTORE PUSH1 0x1A PUSH1 0x24 DUP3 ADD MSTORE PUSH32 0x436F6D62696E65642072616B6520373025206578636565646564000000000000 PUSH1 0x44 DUP3 ADD MSTORE PUSH1 0x64 SWAP1 REVERT JUMPDEST PUSH4 0x4E487B71 PUSH1 0xE0 SHL PUSH1 0x0 MSTORE PUSH1 0x11 PUSH1 0x4 MSTORE PUSH1 0x24 PUSH1 0x0 REVERT JUMPDEST PUSH1 0x40 MLOAD PUSH3 0x461BCD PUSH1 0xE5 SHL DUP2 MSTORE PUSH1 0x20 PUSH1 0x4 DUP3 ADD MSTORE PUSH1 0x24 DUP1 DUP3 ADD MSTORE PUSH32 0x557066726F6E742072616B65206D757374206265203E3D204F74746572506164 PUSH1 0x44 DUP3 ADD MSTORE PUSH4 0x20666565 PUSH1 0xE0 SHL PUSH1 0x64 DUP3 ADD MSTORE PUSH1 0x84 SWAP1 REVERT JUMPDEST PUSH1 0x40 MLOAD PUSH3 0x461BCD PUSH1 0xE5 SHL DUP2 MSTORE PUSH1 0x20 PUSH1 0x4 DUP3 ADD MSTORE PUSH1 0x16 PUSH1 0x24 DUP3 ADD MSTORE PUSH32 0x496E76616C6964207461726765742066756E64696E6700000000000000000000 PUSH1 0x44 DUP3 ADD MSTORE PUSH1 0x64 SWAP1 REVERT JUMPDEST PUSH1 0x40 MLOAD PUSH3 0x461BCD PUSH1 0xE5 SHL DUP2 MSTORE PUSH1 0x20 PUSH1 0x4 DUP3 ADD MSTORE PUSH1 0xE PUSH1 0x24 DUP3 ADD MSTORE PUSH14 0x496E76616C696420707269636573 PUSH1 0x90 SHL PUSH1 0x44 DUP3 ADD MSTORE PUSH1 0x64 SWAP1 REVERT JUMPDEST POP DUP5 DUP7 GT PUSH3 0x101 JUMP JUMPDEST POP DUP6 ISZERO ISZERO PUSH3 0xFA JUMP JUMPDEST PUSH1 0x40 MLOAD PUSH3 0x461BCD PUSH1 0xE5 SHL DUP2 MSTORE PUSH1 0x20 PUSH1 0x4 DUP3 ADD MSTORE PUSH1 0xD PUSH1 0x24 DUP3 ADD MSTORE PUSH13 0x496E76616C6964207469746C65 PUSH1 0x98 SHL PUSH1 0x44 DUP3 ADD MSTORE PUSH1 0x64 SWAP1 REVERT JUMPDEST PUSH1 0x0 DUP1 REVERT JUMPDEST PUSH1 0x1F SWAP1 SWAP2 ADD PUSH1 0x1F NOT AND DUP2 ADD SWAP1 PUSH1 0x1 PUSH1 0x1 PUSH1 0x40 SHL SUB DUP3 GT SWAP1 DUP3 LT OR PUSH3 0x5DD JUMPI PUSH1 0x40 MSTORE JUMP JUMPDEST SWAP2 SWAP1 DUP1 PUSH1 0x1F DUP5 ADD SLT ISZERO PUSH3 0x98F JUMPI DUP3 MLOAD PUSH1 0x1 PUSH1 0x1 PUSH1 0x40 SHL SUB DUP2 GT PUSH3 0x5DD JUMPI PUSH1 0x20 SWAP1 PUSH1 0x40 MLOAD SWAP3 PUSH3 0x9F3 DUP4 PUSH1 0x1F NOT PUSH1 0x1F DUP6 ADD AND ADD DUP6 PUSH3 0x994 JUMP JUMPDEST DUP2 DUP5 MSTORE DUP3 DUP3 DUP8 ADD ADD GT PUSH3 0x98F JUMPI PUSH1 0x0 JUMPDEST DUP2 DUP2 LT PUSH3 0xA1A JUMPI POP DUP3 PUSH1 0x0 SWAP4 SWAP5 SWAP6 POP ADD ADD MSTORE SWAP1 JUMP JUMPDEST DUP6 DUP2 ADD DUP4 ADD MLOAD DUP5 DUP3 ADD DUP5 ADD MSTORE DUP3 ADD PUSH3 0xA04 JUMP JUMPDEST MLOAD SWAP1 PUSH1 0x1 PUSH1 0x1 PUSH1 0xA0 SHL SUB DUP3 AND DUP3 SUB PUSH3 0x98F JUMPI JUMP JUMPDEST SWAP1 DUP2 PUSH1 0x20 SWAP2 SUB SLT PUSH3 0x98F JUMPI MLOAD PUSH1 0xFF DUP2 AND DUP2 SUB PUSH3 0x98F JUMPI SWAP1 JUMP INVALID PUSH1 0x80 PUSH1 0x40 DUP2 DUP2 MSTORE PUSH1 0x4 SWAP1 DUP2 CALLDATASIZE LT ISZERO PUSH2 0x16 JUMPI PUSH1 0x0 DUP1 REVERT JUMPDEST PUSH1 0x0 SWAP3 DUP4 CALLDATALOAD PUSH1 0xE0 SHR SWAP1 DUP2 PUSH4 0xE022923 EQ PUSH2 0x1DE2 JUMPI POP DUP1 PUSH4 0xF8C2798 EQ PUSH2 0x1D74 JUMPI DUP1 PUSH4 0x10D0FFDD EQ PUSH2 0x1D54 JUMPI DUP1 PUSH4 0x12EFF12C EQ PUSH2 0x168A JUMPI DUP1 PUSH4 0x16C04948 EQ PUSH2 0x1664 JUMPI DUP1 PUSH4 0x1BFAF155 EQ PUSH2 0x1620 JUMPI DUP1 PUSH4 0x25F97FB9 EQ PUSH2 0x15FC JUMPI DUP1 PUSH4 0x278ECDE1 EQ PUSH2 0x1428 JUMPI DUP1 PUSH4 0x3013CE29 EQ PUSH2 0x13E4 JUMPI DUP1 PUSH4 0x3BDE5BA8 EQ PUSH2 0x13BD JUMPI DUP1 PUSH4 0x4A79D50C EQ PUSH2 0x12FE JUMPI DUP1 PUSH4 0x560B842C EQ PUSH2 0x12C3 JUMPI DUP1 PUSH4 0x5A59C551 EQ PUSH2 0x126D JUMPI DUP1 PUSH4 0x5F655EA7 EQ PUSH2 0x1250 JUMPI DUP1 PUSH4 0x735DE9F7 EQ PUSH2 0x120C JUMPI DUP1 PUSH4 0x8392FE31 EQ PUSH2 0x1198 JUMPI DUP1 PUSH4 0x8A19ECEF EQ PUSH2 0x114B JUMPI DUP1 PUSH4 0x8BDB2AFA EQ PUSH2 0x1107 JUMPI DUP1 PUSH4 0x92258EC8 EQ PUSH2 0x10CC JUMPI DUP1 PUSH4 0x9513A0FD EQ PUSH2 0x10AE JUMPI DUP1 PUSH4 0xAF5B065A EQ PUSH2 0x106E JUMPI DUP1 PUSH4 0xB704A0C4 EQ PUSH2 0x1033 JUMPI DUP1 PUSH4 0xB789BF52 EQ PUSH2 0x1014 JUMPI DUP1 PUSH4 0xB868723E EQ PUSH2 0xFD9 JUMPI DUP1 PUSH4 0xBEF08860 EQ PUSH2 0xF29 JUMPI DUP1 PUSH4 0xC07F773A EQ PUSH2 0xF0A JUMPI DUP1 PUSH4 0xC596F3FE EQ PUSH2 0xC58 JUMPI DUP1 PUSH4 0xC7C8B437 EQ PUSH2 0xB55 JUMPI DUP1 PUSH4 0xD96A094A EQ PUSH2 0x5C7 JUMPI DUP1 PUSH4 0xDB006A75 EQ PUSH2 0x380 JUMPI DUP1 PUSH4 0xDE7E3310 EQ PUSH2 0x361 JUMPI DUP1 PUSH4 0xE985E367 EQ PUSH2 0x31D JUMPI DUP1 PUSH4 0xEB91D37E EQ PUSH2 0x2F9 JUMPI DUP1 PUSH4 0xEDAFC9AF EQ PUSH2 0x2CA JUMPI DUP1 PUSH4 0xEF5EE995 EQ PUSH2 0x2AE JUMPI DUP1 PUSH4 0xF1A9AF89 EQ PUSH2 0x26F JUMPI PUSH4 0xF6A55A29 EQ PUSH2 0x1BB JUMPI PUSH1 0x0 DUP1 REVERT JUMPDEST CALLVALUE PUSH2 0x259 JUMPI DUP3 PUSH1 0x3 NOT CALLDATASIZE ADD SLT PUSH2 0x259 JUMPI DUP1 MLOAD PUSH4 0x70A08231 PUSH1 0xE0 SHL DUP2 MSTORE ADDRESS SWAP3 DUP2 ADD SWAP3 SWAP1 SWAP3 MSTORE PUSH1 0x20 DUP3 PUSH1 0x24 DUP2 PUSH32 0x0 PUSH1 0x1 PUSH1 0x1 PUSH1 0xA0 SHL SUB AND GAS STATICCALL SWAP2 DUP3 ISZERO PUSH2 0x265 JUMPI DUP4 SWAP3 PUSH2 0x229 JUMPI JUMPDEST PUSH1 0x20 DUP4 DUP4 MLOAD SWAP1 DUP2 MSTORE RETURN JUMPDEST SWAP1 SWAP2 POP PUSH1 0x20 DUP2 RETURNDATASIZE PUSH1 0x20 GT PUSH2 0x25D JUMPI JUMPDEST DUP2 PUSH2 0x245 PUSH1 0x20 SWAP4 DUP4 PUSH2 0x1F46 JUMP JUMPDEST DUP2 ADD SUB SLT PUSH2 0x259 JUMPI PUSH1 0x20 SWAP3 POP MLOAD SWAP1 CODESIZE PUSH2 0x21F JUMP JUMPDEST DUP3 DUP1 REVERT JUMPDEST RETURNDATASIZE SWAP2 POP PUSH2 0x238 JUMP JUMPDEST DUP2 MLOAD RETURNDATASIZE DUP6 DUP3 RETURNDATACOPY RETURNDATASIZE SWAP1 REVERT JUMPDEST DUP4 DUP3 CALLVALUE PUSH2 0x2AA JUMPI DUP2 PUSH1 0x3 NOT CALLDATASIZE ADD SLT PUSH2 0x2AA JUMPI PUSH1 0x20 SWAP1 MLOAD PUSH32 0x0 DUP2 MSTORE RETURN JUMPDEST POP DUP1 REVERT JUMPDEST DUP4 DUP3 CALLVALUE PUSH2 0x2AA JUMPI DUP2 PUSH1 0x3 NOT CALLDATASIZE ADD SLT PUSH2 0x2AA JUMPI PUSH1 0x20 SWAP1 MLOAD PUSH1 0x64 DUP2 MSTORE RETURN JUMPDEST DUP4 DUP3 CALLVALUE PUSH2 0x2AA JUMPI DUP2 PUSH1 0x3 NOT CALLDATASIZE ADD SLT PUSH2 0x2AA JUMPI PUSH1 0x20 SWAP1 MLOAD PUSH20 0x6C83E86E05697C995D718C1CFA3F9045A38C7CD4 DUP2 MSTORE RETURN JUMPDEST DUP4 DUP3 CALLVALUE PUSH2 0x2AA JUMPI DUP2 PUSH1 0x3 NOT CALLDATASIZE ADD SLT PUSH2 0x2AA JUMPI PUSH1 0x20 SWAP1 PUSH2 0x316 PUSH2 0x2592 JUMP JUMPDEST SWAP1 MLOAD SWAP1 DUP2 MSTORE RETURN JUMPDEST DUP4 DUP3 CALLVALUE PUSH2 0x2AA JUMPI DUP2 PUSH1 0x3 NOT CALLDATASIZE ADD SLT PUSH2 0x2AA JUMPI MLOAD PUSH32 0x0 PUSH1 0x1 PUSH1 0x1 PUSH1 0xA0 SHL SUB AND DUP2 MSTORE PUSH1 0x20 SWAP1 RETURN JUMPDEST DUP4 DUP3 CALLVALUE PUSH2 0x2AA JUMPI DUP2 PUSH1 0x3 NOT CALLDATASIZE ADD SLT PUSH2 0x2AA JUMPI PUSH1 0x20 SWAP1 PUSH1 0x5 SLOAD SWAP1 MLOAD SWAP1 DUP2 MSTORE RETURN JUMPDEST POP CALLVALUE PUSH2 0x259 JUMPI PUSH1 0x20 DUP1 PUSH1 0x3 NOT CALLDATASIZE ADD SLT PUSH2 0x5C3 JUMPI DUP3 CALLDATALOAD SWAP3 PUSH2 0x39E PUSH2 0x269C JUMP JUMPDEST PUSH1 0xFF PUSH1 0x2 SLOAD PUSH1 0x8 SHR AND ISZERO PUSH2 0x589 JUMPI DUP4 DUP6 MSTORE PUSH1 0x8 DUP3 MSTORE DUP3 DUP6 KECCAK256 PUSH1 0x3 DUP2 ADD DUP1 SLOAD SWAP1 SWAP3 SWAP2 PUSH1 0x1 PUSH1 0x1 PUSH1 0xA0 SHL SUB SWAP2 SWAP1 PUSH2 0x3D6 DUP4 DUP4 AND CALLER EQ PUSH2 0x23B5 JUMP JUMPDEST PUSH1 0xFF DUP3 PUSH1 0xA0 SHR AND PUSH2 0x551 JUMPI PUSH1 0x2 SWAP1 PUSH2 0x3F4 PUSH1 0xFF DUP5 PUSH1 0xA8 SHR AND ISZERO PUSH2 0x23F5 JUMP JUMPDEST ADD SWAP4 DUP5 SLOAD SWAP2 DUP3 ISZERO PUSH2 0x518 JUMPI PUSH1 0xFF PUSH1 0xA8 SHL NOT AND PUSH1 0x1 PUSH1 0xA8 SHL OR SWAP1 SSTORE DUP6 MLOAD PUSH4 0xA9059CBB PUSH1 0xE0 SHL DUP2 MSTORE CALLER DUP5 DUP3 ADD SWAP1 DUP2 MSTORE PUSH1 0x20 DUP2 ADD SWAP3 SWAP1 SWAP3 MSTORE SWAP2 DUP6 SWAP2 DUP4 SWAP2 SWAP1 DUP3 SWAP1 DUP12 SWAP1 DUP3 SWAP1 PUSH1 0x40 ADD SUB SWAP3 PUSH32 0x0 AND GAS CALL SWAP1 DUP2 ISZERO PUSH2 0x50E JUMPI DUP8 SWAP2 PUSH2 0x4E1 JUMPI JUMPDEST POP ISZERO PUSH2 0x4A6 JUMPI POP SWAP1 PUSH32 0xD171FB179B26C49E23FE46EDDD44D3048A1AD277B62144AC0725FBCF1DBF6D52 SWAP2 SLOAD SWAP3 MLOAD SWAP3 DUP4 MSTORE CALLER SWAP3 LOG3 PUSH1 0x1 DUP2 SSTORE DUP1 RETURN JUMPDEST DUP4 MLOAD PUSH3 0x461BCD PUSH1 0xE5 SHL DUP2 MSTORE SWAP1 DUP2 ADD DUP4 SWAP1 MSTORE PUSH1 0x15 PUSH1 0x24 DUP3 ADD MSTORE PUSH21 0x151BDAD95B881D1C985B9CD9995C8819985A5B1959 PUSH1 0x5A SHL PUSH1 0x44 DUP3 ADD MSTORE PUSH1 0x64 SWAP1 REVERT JUMPDEST PUSH2 0x501 SWAP2 POP DUP5 RETURNDATASIZE DUP7 GT PUSH2 0x507 JUMPI JUMPDEST PUSH2 0x4F9 DUP2 DUP4 PUSH2 0x1F46 JUMP JUMPDEST DUP2 ADD SWAP1 PUSH2 0x227B JUMP JUMPDEST CODESIZE PUSH2 0x46C JUMP JUMPDEST POP RETURNDATASIZE PUSH2 0x4EF JUMP JUMPDEST DUP6 MLOAD RETURNDATASIZE DUP10 DUP3 RETURNDATACOPY RETURNDATASIZE SWAP1 REVERT JUMPDEST DUP8 MLOAD PUSH3 0x461BCD PUSH1 0xE5 SHL DUP2 MSTORE DUP1 DUP7 ADD DUP9 SWAP1 MSTORE PUSH1 0x13 PUSH1 0x24 DUP3 ADD MSTORE PUSH19 0x4E6F20746F6B656E7320746F2072656465656D PUSH1 0x68 SHL PUSH1 0x44 DUP3 ADD MSTORE PUSH1 0x64 SWAP1 REVERT JUMPDEST DUP7 MLOAD PUSH3 0x461BCD PUSH1 0xE5 SHL DUP2 MSTORE DUP1 DUP6 ADD DUP8 SWAP1 MSTORE PUSH1 0x12 PUSH1 0x24 DUP3 ADD MSTORE PUSH18 0x13DC99195C881DD85CC81C99599D5B991959 PUSH1 0x72 SHL PUSH1 0x44 DUP3 ADD MSTORE PUSH1 0x64 SWAP1 REVERT JUMPDEST SWAP2 MLOAD PUSH3 0x461BCD PUSH1 0xE5 SHL DUP2 MSTORE SWAP2 DUP3 ADD MSTORE PUSH1 0x16 PUSH1 0x24 DUP3 ADD MSTORE PUSH22 0x15185C99D95D081B9BDD081C995858DA1959081E595D PUSH1 0x52 SHL PUSH1 0x44 DUP3 ADD MSTORE PUSH1 0x64 SWAP1 REVERT JUMPDEST DUP4 DUP1 REVERT JUMPDEST POP CALLVALUE PUSH2 0x259 JUMPI PUSH1 0x20 SWAP2 DUP3 PUSH1 0x3 NOT CALLDATASIZE ADD SLT PUSH2 0x5C3 JUMPI DUP1 CALLDATALOAD PUSH2 0x5E5 PUSH2 0x269C JUMP JUMPDEST PUSH2 0x603 PUSH1 0xFF PUSH1 0x2 SLOAD PUSH2 0x5F9 DUP3 DUP3 AND ISZERO PUSH2 0x2333 JUMP JUMPDEST PUSH1 0x8 SHR AND ISZERO PUSH2 0x2370 JUMP JUMPDEST PUSH32 0x0 SWAP3 PUSH3 0xF4240 DUP5 DIV DUP3 LT PUSH2 0xB1A JUMPI PUSH1 0x64 SWAP5 DUP6 DUP4 MUL SWAP1 DUP4 DUP3 DIV DUP8 EQ DUP5 ISZERO OR ISZERO PUSH2 0xB07 JUMPI SWAP2 PUSH2 0x6C6 SWAP2 DUP9 SWAP5 SWAP4 PUSH2 0x2710 DUP1 SWAP3 DIV SWAP9 PUSH2 0x6CB DUP11 PUSH2 0x6C6 PUSH2 0x690 DUP3 DUP8 PUSH2 0x68A PUSH32 0x0 DUP14 PUSH2 0x2002 JUMP JUMPDEST DIV PUSH2 0x2035 JUMP JUMPDEST DUP1 SWAP7 PUSH2 0x6BC PUSH32 0x0 DUP13 PUSH2 0x2002 JUMP JUMPDEST DIV SWAP9 DUP10 SWAP4 DUP12 PUSH2 0x2035 JUMP JUMPDEST PUSH2 0x2035 JUMP JUMPDEST SWAP3 PUSH2 0x6E2 DUP11 PUSH2 0x6DB DUP7 DUP13 SLOAD PUSH2 0x1FDF JUMP JUMPDEST GT ISZERO PUSH2 0x2042 JUMP JUMPDEST PUSH2 0x6EB DUP8 PUSH2 0x2090 JUMP JUMPDEST SWAP6 PUSH1 0x1 DUP1 PUSH1 0xA0 SHL SUB SWAP12 DUP13 PUSH32 0x0 AND SWAP2 DUP8 MLOAD SWAP11 PUSH4 0x23B872DD PUSH1 0xE0 SHL DUP13 MSTORE CALLER DUP14 DUP14 ADD MSTORE PUSH1 0x24 SWAP12 ADDRESS DUP14 DUP3 ADD MSTORE DUP12 PUSH1 0x44 DUP3 ADD MSTORE DUP8 DUP2 DUP9 DUP2 DUP6 DUP10 GAS CALL SWAP2 DUP3 ISZERO PUSH2 0xAFC JUMPI SWAP2 PUSH2 0xADF JUMPI JUMPDEST POP ISZERO PUSH2 0xA9E JUMPI DUP12 SWAP2 DUP16 SWAP2 DUP10 MLOAD SWAP1 DUP13 DUP3 MSTORE DUP3 DUP10 DUP4 ADD MSTORE DUP7 DUP12 DUP4 ADD MSTORE PUSH1 0x60 DUP3 ADD MSTORE DUP9 PUSH1 0x80 DUP3 ADD MSTORE PUSH32 0xBEFB6E85B11F40EE4D9E3E8BB0BEDBC3D1EEE123B1328C0EA0A4B842CBFFF749 PUSH1 0xA0 CALLER SWAP3 LOG2 DUP9 MLOAD SWAP1 PUSH20 0x6C83E86E05697C995D718C1CFA3F9045A38C7CD4 PUSH4 0xA9059CBB PUSH1 0xE0 SHL SWAP5 DUP6 DUP5 MSTORE DUP4 ADD MSTORE DUP13 DUP3 ADD MSTORE DUP7 DUP2 PUSH1 0x44 DUP2 DUP6 DUP9 GAS CALL SWAP2 DUP3 ISZERO PUSH2 0xA93 JUMPI SWAP2 PUSH2 0xA76 JUMPI JUMPDEST POP ISZERO PUSH2 0xA3F JUMPI SWAP2 DUP5 SWAP2 DUP12 DUP16 PUSH2 0x831 SWAP6 DUP11 MLOAD SWAP7 DUP8 SWAP6 DUP7 SWAP5 DUP6 SWAP4 DUP5 MSTORE PUSH32 0x0 SWAP1 DUP5 ADD PUSH1 0x20 SWAP1 SWAP4 SWAP3 SWAP2 SWAP4 PUSH1 0x40 DUP2 ADD SWAP5 PUSH1 0x1 DUP1 PUSH1 0xA0 SHL SUB AND DUP2 MSTORE ADD MSTORE JUMP JUMPDEST SUB SWAP3 GAS CALL SWAP1 DUP2 ISZERO PUSH2 0xA35 JUMPI DUP13 SWAP2 PUSH2 0xA18 JUMPI JUMPDEST POP ISZERO PUSH2 0x9D9 JUMPI POP PUSH1 0x1 SWAP9 DUP10 SLOAD SWAP7 PUSH1 0x0 NOT SWAP2 DUP3 DUP10 EQ PUSH2 0x9C7 JUMPI DUP10 DUP10 DUP15 DUP7 DUP16 DUP11 SWAP6 DUP13 DUP3 DUP16 SWAP4 DUP8 ADD DUP2 SSTORE DUP13 DUP10 MLOAD SWAP10 DUP11 SWAP6 PUSH2 0x879 DUP8 PUSH2 0x1F14 JUMP JUMPDEST DUP7 MSTORE DUP7 DUP7 ADD SWAP2 DUP3 MSTORE DUP1 DUP7 ADD SWAP4 DUP5 MSTORE PUSH1 0x60 DUP7 ADD SWAP8 CALLER DUP10 MSTORE PUSH1 0x8 PUSH1 0x80 DUP9 ADD SWAP9 DUP3 DUP11 MSTORE PUSH1 0xC0 PUSH1 0xA0 DUP11 ADD SWAP10 DUP5 DUP12 MSTORE ADD SWAP12 NUMBER DUP14 MSTORE DUP4 MSTORE MSTORE KECCAK256 SWAP10 MLOAD DUP11 SSTORE MLOAD SWAP1 DUP10 ADD SSTORE MLOAD PUSH1 0x2 DUP9 ADD SSTORE PUSH1 0x3 DUP8 ADD SWAP4 MLOAD AND DUP4 SLOAD SWAP3 PUSH1 0xFF PUSH1 0xA0 SHL SWAP1 MLOAD ISZERO ISZERO PUSH1 0xA0 SHL AND SWAP2 PUSH1 0xFF PUSH1 0xA8 SHL SWAP1 MLOAD ISZERO ISZERO PUSH1 0xA8 SHL AND SWAP3 PUSH10 0xFFFFFFFFFFFFFFFFFFFF PUSH1 0xB0 SHL AND OR OR OR SWAP1 SSTORE MLOAD SWAP2 ADD SSTORE CALLER DUP13 MSTORE PUSH1 0x9 DUP4 MSTORE DUP5 DUP13 KECCAK256 DUP1 SLOAD SWAP2 PUSH9 0x10000000000000000 DUP4 LT ISZERO PUSH2 0x9B6 JUMPI POP SWAP1 PUSH2 0x927 SWAP2 DUP13 DUP3 ADD DUP2 SSTORE PUSH2 0x1FB1 JUMP JUMPDEST DUP2 SWAP3 SWAP2 SLOAD SWAP1 PUSH1 0x3 SHL SWAP2 DUP10 DUP4 SHL SWAP3 SHL NOT AND OR SWAP1 SSTORE PUSH2 0x946 DUP5 PUSH1 0x3 SLOAD PUSH2 0x1FDF JUMP JUMPDEST PUSH1 0x3 SSTORE PUSH2 0x954 DUP3 DUP9 SLOAD PUSH2 0x1FDF JUMP JUMPDEST DUP1 SWAP8 SSTORE PUSH2 0x963 DUP6 PUSH1 0x5 SLOAD PUSH2 0x1FDF JUMP JUMPDEST PUSH1 0x5 SSTORE DUP3 MLOAD SWAP5 DUP6 MSTORE DUP5 ADD MSTORE DUP3 ADD MSTORE PUSH32 0x34987D73948B60CFBA9BEEB35760C345A3BE430F3540605113911EAD78A0830E PUSH1 0x60 CALLER SWAP3 LOG3 LT ISZERO PUSH2 0x9A2 JUMPI DUP2 SSTORE DUP1 RETURN JUMPDEST PUSH2 0x100 PUSH2 0xFF00 NOT PUSH1 0x2 SLOAD AND OR PUSH1 0x2 SSTORE DUP2 SSTORE DUP1 RETURN JUMPDEST PUSH4 0x4E487B71 PUSH1 0xE0 SHL DUP15 MSTORE PUSH1 0x41 DUP12 MSTORE DUP14 REVERT JUMPDEST POP PUSH4 0x4E487B71 PUSH1 0xE0 SHL DUP13 MSTORE PUSH1 0x11 DUP10 MSTORE DUP12 REVERT JUMPDEST DUP4 MLOAD PUSH3 0x461BCD PUSH1 0xE5 SHL DUP2 MSTORE DUP1 DUP10 ADD DUP4 SWAP1 MSTORE PUSH1 0x17 DUP2 DUP10 ADD MSTORE PUSH32 0x557066726F6E74207472616E73666572206661696C6564000000000000000000 PUSH1 0x44 DUP3 ADD MSTORE REVERT JUMPDEST PUSH2 0xA2F SWAP2 POP DUP4 RETURNDATASIZE DUP6 GT PUSH2 0x507 JUMPI PUSH2 0x4F9 DUP2 DUP4 PUSH2 0x1F46 JUMP JUMPDEST CODESIZE PUSH2 0x843 JUMP JUMPDEST DUP6 MLOAD RETURNDATASIZE DUP15 DUP3 RETURNDATACOPY RETURNDATASIZE SWAP1 REVERT JUMPDEST DUP7 MLOAD PUSH3 0x461BCD PUSH1 0xE5 SHL DUP2 MSTORE DUP1 DUP13 ADD DUP7 SWAP1 MSTORE PUSH1 0x13 DUP2 DUP13 ADD MSTORE PUSH19 0x119959481D1C985B9CD9995C8819985A5B1959 PUSH1 0x6A SHL PUSH1 0x44 DUP3 ADD MSTORE DUP5 SWAP1 REVERT JUMPDEST PUSH2 0xA8D SWAP2 POP DUP7 RETURNDATASIZE DUP9 GT PUSH2 0x507 JUMPI PUSH2 0x4F9 DUP2 DUP4 PUSH2 0x1F46 JUMP JUMPDEST CODESIZE PUSH2 0x7D9 JUMP JUMPDEST DUP10 MLOAD SWAP1 RETURNDATASIZE SWAP1 DUP3 RETURNDATACOPY RETURNDATASIZE SWAP1 REVERT JUMPDEST DUP8 MLOAD PUSH3 0x461BCD PUSH1 0xE5 SHL DUP2 MSTORE DUP1 DUP14 ADD DUP8 SWAP1 MSTORE PUSH1 0x17 DUP2 DUP14 ADD MSTORE PUSH32 0x5061796D656E74207472616E73666572206661696C6564000000000000000000 PUSH1 0x44 DUP3 ADD MSTORE DUP6 SWAP1 REVERT JUMPDEST PUSH2 0xAF6 SWAP2 POP DUP8 RETURNDATASIZE DUP10 GT PUSH2 0x507 JUMPI PUSH2 0x4F9 DUP2 DUP4 PUSH2 0x1F46 JUMP JUMPDEST CODESIZE PUSH2 0x74D JUMP JUMPDEST DUP11 MLOAD SWAP1 RETURNDATASIZE SWAP1 DUP3 RETURNDATACOPY RETURNDATASIZE SWAP1 REVERT JUMPDEST PUSH4 0x4E487B71 PUSH1 0xE0 SHL DUP9 MSTORE PUSH1 0x11 DUP6 MSTORE PUSH1 0x24 DUP9 REVERT JUMPDEST MLOAD PUSH3 0x461BCD PUSH1 0xE5 SHL DUP2 MSTORE DUP1 DUP4 ADD DUP6 SWAP1 MSTORE PUSH1 0x16 PUSH1 0x24 DUP3 ADD MSTORE PUSH22 0x42656C6F77206D696E696D756D207075726368617365 PUSH1 0x50 SHL PUSH1 0x44 DUP3 ADD MSTORE PUSH1 0x64 SWAP1 REVERT JUMPDEST POP CALLVALUE PUSH2 0x259 JUMPI DUP3 PUSH1 0x3 NOT CALLDATASIZE ADD SLT PUSH2 0x259 JUMPI DUP1 MLOAD SWAP2 DUP4 PUSH1 0x7 SLOAD SWAP1 PUSH1 0x1 SWAP1 DUP3 PUSH1 0x1 SHR SWAP3 PUSH1 0x1 DUP2 AND DUP1 ISZERO PUSH2 0xC4E JUMPI JUMPDEST PUSH1 0x20 SWAP6 DUP7 DUP7 LT DUP3 EQ PUSH2 0xC3B JUMPI POP DUP5 DUP9 MSTORE SWAP1 DUP2 ISZERO PUSH2 0xC19 JUMPI POP PUSH1 0x1 EQ PUSH2 0xBC0 JUMPI JUMPDEST PUSH2 0xBBC DUP7 DUP7 PUSH2 0xBB2 DUP3 DUP12 SUB DUP4 PUSH2 0x1F46 JUMP JUMPDEST MLOAD SWAP2 DUP3 SWAP2 DUP3 PUSH2 0x1F68 JUMP JUMPDEST SUB SWAP1 RETURN JUMPDEST SWAP3 SWAP6 POP PUSH1 0x7 DUP4 MSTORE PUSH32 0xA66CC928B5EDB82AF9BD49922954155AB7B0942694BEA4CE44661D9A8736C688 JUMPDEST DUP3 DUP5 LT PUSH2 0xC06 JUMPI POP POP POP DUP3 PUSH2 0xBBC SWAP5 PUSH2 0xBB2 SWAP3 DUP3 ADD ADD SWAP5 CODESIZE PUSH2 0xBA1 JUMP JUMPDEST DUP1 SLOAD DUP7 DUP6 ADD DUP9 ADD MSTORE SWAP3 DUP7 ADD SWAP3 DUP2 ADD PUSH2 0xBE9 JUMP JUMPDEST PUSH1 0xFF NOT AND DUP8 DUP7 ADD MSTORE POP POP POP ISZERO ISZERO PUSH1 0x5 SHL DUP4 ADD ADD SWAP3 POP PUSH2 0xBB2 DUP3 PUSH2 0xBBC CODESIZE PUSH2 0xBA1 JUMP JUMPDEST PUSH4 0x4E487B71 PUSH1 0xE0 SHL DUP5 MSTORE PUSH1 0x22 SWAP1 MSTORE PUSH1 0x24 DUP4 REVERT JUMPDEST SWAP4 PUSH1 0x7F AND SWAP4 PUSH2 0xB81 JUMP JUMPDEST POP CALLVALUE PUSH2 0x259 JUMPI DUP1 PUSH1 0x3 NOT CALLDATASIZE ADD SLT PUSH2 0x259 JUMPI PUSH2 0xC71 PUSH2 0x1EF9 JUMP JUMPDEST PUSH1 0x24 SWAP2 DUP3 CALLDATALOAD PUSH2 0xC7E PUSH2 0x269C JUMP JUMPDEST PUSH32 0x0 SWAP3 PUSH1 0x1 PUSH1 0x1 PUSH1 0xA0 SHL SUB SWAP1 DUP2 DUP6 AND CALLER SUB PUSH2 0xEC8 JUMPI PUSH1 0xFF PUSH1 0x2 SLOAD AND ISZERO PUSH2 0xE86 JUMPI DUP2 AND SWAP1 PUSH32 0x0 AND DUP2 EQ PUSH2 0xE44 JUMPI DUP3 MLOAD PUSH4 0x70A08231 PUSH1 0xE0 SHL DUP2 MSTORE ADDRESS DUP8 DUP3 ADD MSTORE PUSH1 0x20 SWAP5 SWAP1 DUP6 DUP2 DUP9 DUP2 DUP7 GAS STATICCALL SWAP1 DUP2 ISZERO PUSH2 0xE3A JUMPI SWAP1 DUP5 SWAP2 DUP11 SWAP2 PUSH2 0xE05 JUMPI JUMPDEST POP LT PUSH2 0xDCC JUMPI DUP4 MLOAD PUSH4 0xA9059CBB PUSH1 0xE0 SHL DUP2 MSTORE PUSH1 0x1 PUSH1 0x1 PUSH1 0xA0 SHL SUB SWAP1 SWAP2 AND DUP8 DUP3 ADD SWAP1 DUP2 MSTORE PUSH1 0x20 DUP2 ADD SWAP4 SWAP1 SWAP4 MSTORE SWAP2 DUP5 SWAP2 DUP4 SWAP2 DUP3 SWAP1 DUP11 SWAP1 DUP3 SWAP1 PUSH1 0x40 ADD SUB SWAP3 GAS CALL SWAP1 DUP2 ISZERO PUSH2 0xDC2 JUMPI DUP7 SWAP2 PUSH2 0xDA5 JUMPI JUMPDEST POP ISZERO PUSH2 0xD6E JUMPI DUP5 PUSH1 0x1 DUP2 SSTORE DUP1 RETURN JUMPDEST MLOAD PUSH3 0x461BCD PUSH1 0xE5 SHL DUP2 MSTORE SWAP3 DUP4 ADD MSTORE PUSH1 0x15 SWAP1 DUP3 ADD MSTORE PUSH21 0x151BDAD95B881C9958DBDD995C9E4819985A5B1959 PUSH1 0x5A SHL PUSH1 0x44 DUP3 ADD MSTORE PUSH1 0x64 SWAP1 REVERT JUMPDEST PUSH2 0xDBC SWAP2 POP DUP4 RETURNDATASIZE DUP6 GT PUSH2 0x507 JUMPI PUSH2 0x4F9 DUP2 DUP4 PUSH2 0x1F46 JUMP JUMPDEST CODESIZE PUSH2 0xD60 JUMP JUMPDEST DUP3 MLOAD RETURNDATASIZE DUP9 DUP3 RETURNDATACOPY RETURNDATASIZE SWAP1 REVERT JUMPDEST DUP4 MLOAD PUSH3 0x461BCD PUSH1 0xE5 SHL DUP2 MSTORE DUP1 DUP9 ADD DUP7 SWAP1 MSTORE PUSH1 0x14 DUP2 DUP9 ADD MSTORE PUSH20 0x496E73756666696369656E742062616C616E6365 PUSH1 0x60 SHL PUSH1 0x44 DUP3 ADD MSTORE PUSH1 0x64 SWAP1 REVERT JUMPDEST DUP1 SWAP3 POP DUP8 DUP1 SWAP3 POP RETURNDATASIZE DUP4 GT PUSH2 0xE33 JUMPI JUMPDEST PUSH2 0xE1E DUP2 DUP4 PUSH2 0x1F46 JUMP JUMPDEST DUP2 ADD SUB SLT PUSH2 0xE2F JUMPI DUP4 SWAP1 MLOAD CODESIZE PUSH2 0xD15 JUMP JUMPDEST DUP9 DUP1 REVERT JUMPDEST POP RETURNDATASIZE PUSH2 0xE14 JUMP JUMPDEST DUP6 MLOAD RETURNDATASIZE DUP12 DUP3 RETURNDATACOPY RETURNDATASIZE SWAP1 REVERT JUMPDEST DUP3 MLOAD PUSH3 0x461BCD PUSH1 0xE5 SHL DUP2 MSTORE PUSH1 0x20 DUP2 DUP9 ADD MSTORE PUSH1 0x19 DUP2 DUP8 ADD MSTORE PUSH32 0x43616E6E6F74207265636F7665722073616C6520746F6B656E00000000000000 PUSH1 0x44 DUP3 ADD MSTORE PUSH1 0x64 SWAP1 REVERT JUMPDEST DUP4 MLOAD PUSH3 0x461BCD PUSH1 0xE5 SHL DUP2 MSTORE PUSH1 0x20 DUP2 DUP10 ADD MSTORE PUSH1 0x1B DUP2 DUP9 ADD MSTORE PUSH32 0x4E6F7420796574206465706C6F79656420746F20556E69737761700000000000 PUSH1 0x44 DUP3 ADD MSTORE PUSH1 0x64 SWAP1 REVERT JUMPDEST DUP4 MLOAD PUSH3 0x461BCD PUSH1 0xE5 SHL DUP2 MSTORE PUSH1 0x20 DUP2 DUP10 ADD MSTORE PUSH1 0x19 DUP2 DUP9 ADD MSTORE PUSH32 0x4F6E6C7920666F756E646572732063616E207265636F76657200000000000000 PUSH1 0x44 DUP3 ADD MSTORE PUSH1 0x64 SWAP1 REVERT JUMPDEST DUP4 DUP3 CALLVALUE PUSH2 0x2AA JUMPI DUP2 PUSH1 0x3 NOT CALLDATASIZE ADD SLT PUSH2 0x2AA JUMPI PUSH1 0x20 SWAP1 PUSH1 0x3 SLOAD SWAP1 MLOAD SWAP1 DUP2 MSTORE RETURN JUMPDEST POP DUP3 CALLVALUE PUSH2 0xFD6 JUMPI PUSH1 0x20 SWAP1 DUP2 PUSH1 0x3 NOT CALLDATASIZE ADD SLT PUSH2 0xFD6 JUMPI DUP3 SWAP1 PUSH1 0x1 PUSH1 0x1 PUSH1 0xA0 SHL SUB PUSH2 0xF50 PUSH2 0x1EF9 JUMP JUMPDEST AND DUP2 MSTORE PUSH1 0x9 DUP4 MSTORE DUP2 DUP2 KECCAK256 SWAP1 DUP3 MLOAD DUP1 DUP6 DUP5 SLOAD SWAP2 DUP3 DUP2 MSTORE ADD SWAP1 DUP2 SWAP5 DUP5 MSTORE DUP7 DUP5 KECCAK256 SWAP1 DUP5 JUMPDEST DUP2 DUP2 LT PUSH2 0xFC2 JUMPI POP POP POP DUP2 PUSH2 0xF87 SWAP2 SUB DUP3 PUSH2 0x1F46 JUMP JUMPDEST DUP4 MLOAD SWAP5 DUP6 SWAP5 DUP2 DUP7 ADD SWAP3 DUP3 DUP8 MSTORE MLOAD DUP1 SWAP4 MSTORE DUP6 ADD SWAP4 SWAP3 JUMPDEST DUP3 DUP2 LT PUSH2 0xFAB JUMPI POP POP POP POP SUB SWAP1 RETURN JUMPDEST DUP4 MLOAD DUP6 MSTORE DUP7 SWAP6 POP SWAP4 DUP2 ADD SWAP4 SWAP3 DUP2 ADD SWAP3 PUSH1 0x1 ADD PUSH2 0xF9C JUMP JUMPDEST DUP3 SLOAD DUP5 MSTORE SWAP3 DUP9 ADD SWAP3 PUSH1 0x1 SWAP3 DUP4 ADD SWAP3 ADD PUSH2 0xF71 JUMP JUMPDEST DUP1 REVERT JUMPDEST DUP4 DUP3 CALLVALUE PUSH2 0x2AA JUMPI DUP2 PUSH1 0x3 NOT CALLDATASIZE ADD SLT PUSH2 0x2AA JUMPI PUSH1 0x20 SWAP1 MLOAD PUSH32 0x0 DUP2 MSTORE RETURN JUMPDEST DUP4 DUP3 CALLVALUE PUSH2 0x2AA JUMPI DUP2 PUSH1 0x3 NOT CALLDATASIZE ADD SLT PUSH2 0x2AA JUMPI PUSH1 0x20 SWAP1 PUSH1 0x1 SLOAD SWAP1 MLOAD SWAP1 DUP2 MSTORE RETURN JUMPDEST DUP4 DUP3 CALLVALUE PUSH2 0x2AA JUMPI DUP2 PUSH1 0x3 NOT CALLDATASIZE ADD SLT PUSH2 0x2AA JUMPI PUSH1 0x20 SWAP1 MLOAD PUSH32 0x0 DUP2 MSTORE RETURN JUMPDEST DUP4 DUP3 CALLVALUE PUSH2 0x2AA JUMPI DUP2 PUSH1 0x3 NOT CALLDATASIZE ADD SLT PUSH2 0x2AA JUMPI PUSH1 0x20 SWAP1 MLOAD PUSH3 0xF4240 PUSH32 0x0 DIV DUP2 MSTORE RETURN JUMPDEST POP SWAP1 CALLVALUE PUSH2 0x259 JUMPI DUP3 PUSH1 0x3 NOT CALLDATASIZE ADD SLT PUSH2 0x259 JUMPI PUSH1 0x20 SWAP3 POP SLOAD SWAP1 MLOAD SWAP1 DUP2 MSTORE RETURN JUMPDEST DUP4 DUP3 CALLVALUE PUSH2 0x2AA JUMPI DUP2 PUSH1 0x3 NOT CALLDATASIZE ADD SLT PUSH2 0x2AA JUMPI PUSH1 0x20 SWAP1 MLOAD PUSH32 0x0 DUP2 MSTORE RETURN JUMPDEST DUP4 DUP3 CALLVALUE PUSH2 0x2AA JUMPI DUP2 PUSH1 0x3 NOT CALLDATASIZE ADD SLT PUSH2 0x2AA JUMPI MLOAD PUSH32 0x0 PUSH1 0x1 PUSH1 0x1 PUSH1 0xA0 SHL SUB AND DUP2 MSTORE PUSH1 0x20 SWAP1 RETURN JUMPDEST DUP4 DUP3 CALLVALUE PUSH2 0x2AA JUMPI DUP2 PUSH1 0x3 NOT CALLDATASIZE ADD SLT PUSH2 0x2AA JUMPI PUSH1 0x20 SWAP1 PUSH2 0x2710 PUSH2 0x1190 PUSH1 0x5 SLOAD PUSH32 0x0 SWAP1 PUSH2 0x2002 JUMP JUMPDEST DIV SWAP1 MLOAD SWAP1 DUP2 MSTORE RETURN JUMPDEST POP CALLVALUE PUSH2 0x259 JUMPI PUSH1 0x20 CALLDATASIZE PUSH1 0x3 NOT ADD SLT PUSH2 0x259 JUMPI PUSH1 0xFF DUP2 PUSH1 0xE0 SWAP5 DUP5 CALLDATALOAD DUP2 MSTORE PUSH1 0x8 PUSH1 0x20 MSTORE KECCAK256 DUP1 SLOAD SWAP4 PUSH1 0x1 DUP3 ADD SLOAD SWAP4 PUSH1 0x2 DUP4 ADD SLOAD SWAP2 PUSH1 0x3 DUP5 ADD SLOAD SWAP4 ADD SLOAD SWAP5 DUP2 MLOAD SWAP7 DUP8 MSTORE PUSH1 0x20 DUP8 ADD MSTORE DUP6 ADD MSTORE PUSH1 0x1 DUP1 PUSH1 0xA0 SHL SUB DUP2 AND PUSH1 0x60 DUP6 ADD MSTORE DUP2 DUP2 PUSH1 0xA0 SHR AND ISZERO ISZERO PUSH1 0x80 DUP6 ADD MSTORE PUSH1 0xA8 SHR AND ISZERO ISZERO PUSH1 0xA0 DUP4 ADD MSTORE PUSH1 0xC0 DUP3 ADD MSTORE RETURN JUMPDEST DUP4 DUP3 CALLVALUE PUSH2 0x2AA JUMPI DUP2 PUSH1 0x3 NOT CALLDATASIZE ADD SLT PUSH2 0x2AA JUMPI MLOAD PUSH32 0x0 PUSH1 0x1 PUSH1 0x1 PUSH1 0xA0 SHL SUB AND DUP2 MSTORE PUSH1 0x20 SWAP1 RETURN JUMPDEST DUP4 DUP3 CALLVALUE PUSH2 0x2AA JUMPI DUP2 PUSH1 0x3 NOT CALLDATASIZE ADD SLT PUSH2 0x2AA JUMPI PUSH1 0x20 SWAP1 PUSH2 0x316 PUSH2 0x2434 JUMP JUMPDEST DUP4 DUP3 CALLVALUE PUSH2 0x2AA JUMPI DUP1 PUSH1 0x3 NOT CALLDATASIZE ADD SLT PUSH2 0x2AA JUMPI PUSH2 0x1287 PUSH2 0x1EF9 JUMP JUMPDEST PUSH1 0x1 PUSH1 0x1 PUSH1 0xA0 SHL SUB AND DUP3 MSTORE PUSH1 0x9 PUSH1 0x20 MSTORE DUP1 DUP3 KECCAK256 DUP1 SLOAD PUSH1 0x24 CALLDATALOAD SWAP4 SWAP1 DUP5 LT ISZERO PUSH2 0xFD6 JUMPI POP PUSH1 0x20 SWAP3 PUSH2 0x12B5 SWAP2 PUSH2 0x1FB1 JUMP JUMPDEST SWAP2 SWAP1 SLOAD SWAP1 MLOAD SWAP2 PUSH1 0x3 SHL SHR DUP2 MSTORE RETURN JUMPDEST DUP4 DUP3 CALLVALUE PUSH2 0x2AA JUMPI DUP2 PUSH1 0x3 NOT CALLDATASIZE ADD SLT PUSH2 0x2AA JUMPI PUSH1 0x20 SWAP1 MLOAD PUSH32 0x0 DUP2 MSTORE RETURN JUMPDEST POP CALLVALUE PUSH2 0x259 JUMPI DUP3 PUSH1 0x3 NOT CALLDATASIZE ADD SLT PUSH2 0x259 JUMPI DUP1 MLOAD SWAP2 DUP4 PUSH1 0x6 SLOAD SWAP1 PUSH1 0x1 SWAP1 DUP3 PUSH1 0x1 SHR SWAP3 PUSH1 0x1 DUP2 AND DUP1 ISZERO PUSH2 0x13B3 JUMPI JUMPDEST PUSH1 0x20 SWAP6 DUP7 DUP7 LT DUP3 EQ PUSH2 0xC3B JUMPI POP DUP5 DUP9 MSTORE SWAP1 DUP2 ISZERO PUSH2 0xC19 JUMPI POP PUSH1 0x1 EQ PUSH2 0x135A JUMPI PUSH2 0xBBC DUP7 DUP7 PUSH2 0xBB2 DUP3 DUP12 SUB DUP4 PUSH2 0x1F46 JUMP JUMPDEST SWAP3 SWAP6 POP PUSH1 0x6 DUP4 MSTORE PUSH32 0xF652222313E28459528D920B65115C16C04F3EFC82AAEDC97BE59F3F377C0D3F JUMPDEST DUP3 DUP5 LT PUSH2 0x13A0 JUMPI POP POP POP DUP3 PUSH2 0xBBC SWAP5 PUSH2 0xBB2 SWAP3 DUP3 ADD ADD SWAP5 CODESIZE PUSH2 0xBA1 JUMP JUMPDEST DUP1 SLOAD DUP7 DUP6 ADD DUP9 ADD MSTORE SWAP3 DUP7 ADD SWAP3 DUP2 ADD PUSH2 0x1383 JUMP JUMPDEST SWAP4 PUSH1 0x7F AND SWAP4 PUSH2 0x132A JUMP JUMPDEST DUP4 DUP3 CALLVALUE PUSH2 0x2AA JUMPI DUP2 PUSH1 0x3 NOT CALLDATASIZE ADD SLT PUSH2 0x2AA JUMPI PUSH1 0x20 SWAP1 PUSH1 0xFF PUSH1 0x2 SLOAD PUSH1 0x8 SHR AND SWAP1 MLOAD SWAP1 ISZERO ISZERO DUP2 MSTORE RETURN JUMPDEST DUP4 DUP3 CALLVALUE PUSH2 0x2AA JUMPI DUP2 PUSH1 0x3 NOT CALLDATASIZE ADD SLT PUSH2 0x2AA JUMPI MLOAD PUSH32 0x0 PUSH1 0x1 PUSH1 0x1 PUSH1 0xA0 SHL SUB AND DUP2 MSTORE PUSH1 0x20 SWAP1 RETURN JUMPDEST POP CALLVALUE PUSH2 0x259 JUMPI PUSH1 0x20 DUP1 PUSH1 0x3 NOT CALLDATASIZE ADD SLT PUSH2 0x5C3 JUMPI DUP3 CALLDATALOAD SWAP3 PUSH2 0x1446 PUSH2 0x269C JUMP JUMPDEST PUSH2 0x145A PUSH1 0xFF PUSH1 0x2 SLOAD PUSH2 0x5F9 DUP3 DUP3 AND ISZERO PUSH2 0x2333 JUMP JUMPDEST DUP4 DUP6 MSTORE PUSH1 0x8 DUP3 MSTORE DUP3 DUP6 KECCAK256 PUSH1 0x3 DUP2 ADD DUP1 SLOAD PUSH1 0x1 PUSH1 0x1 PUSH1 0xA0 SHL SUB SWAP4 SWAP3 SWAP2 SWAP1 PUSH2 0x1483 DUP6 DUP3 AND CALLER EQ PUSH2 0x23B5 JUMP JUMPDEST PUSH1 0xFF DUP2 PUSH1 0xA0 SHR AND PUSH2 0x15C6 JUMPI PUSH1 0x1 DUP10 SWAP4 DUP8 SWAP4 DUP4 PUSH2 0x14A8 PUSH1 0xFF PUSH2 0x1508 SWAP7 PUSH1 0xA8 SHR AND ISZERO PUSH2 0x23F5 JUMP JUMPDEST PUSH1 0xFF PUSH1 0xA0 SHL NOT AND PUSH1 0xA0 DUP5 SWAP1 SHL OR SWAP1 SSTORE PUSH1 0x2 DUP2 ADD SLOAD PUSH1 0x3 SLOAD PUSH2 0x14C9 SWAP2 SWAP1 PUSH2 0x2035 JUMP JUMPDEST PUSH1 0x3 SSTORE ADD SWAP5 PUSH2 0x14DA DUP7 SLOAD DUP7 SLOAD PUSH2 0x2035 JUMP JUMPDEST DUP6 SSTORE DUP6 SLOAD DUP9 MLOAD PUSH4 0xA9059CBB PUSH1 0xE0 SHL DUP2 MSTORE CALLER DUP2 DUP9 ADD SWAP1 DUP2 MSTORE PUSH1 0x20 DUP2 ADD SWAP3 SWAP1 SWAP3 MSTORE SWAP5 DUP6 SWAP4 DUP5 SWAP3 DUP4 SWAP2 PUSH1 0x40 SWAP1 SWAP2 ADD SWAP1 JUMP JUMPDEST SUB SWAP3 PUSH32 0x0 AND GAS CALL SWAP1 DUP2 ISZERO PUSH2 0x50E JUMPI DUP8 SWAP2 PUSH2 0x15A9 JUMPI JUMPDEST POP ISZERO PUSH2 0x1576 JUMPI POP SWAP1 PUSH32 0x2DC8E290002F06FC0085BBCA9DFB8B415CF4D1178950C72FF9EE8F4D8878EE66 SWAP2 SLOAD SWAP3 MLOAD SWAP3 DUP4 MSTORE CALLER SWAP3 LOG3 PUSH1 0x1 DUP2 SSTORE DUP1 RETURN JUMPDEST DUP4 MLOAD PUSH3 0x461BCD PUSH1 0xE5 SHL DUP2 MSTORE SWAP1 DUP2 ADD DUP4 SWAP1 MSTORE PUSH1 0xD PUSH1 0x24 DUP3 ADD MSTORE PUSH13 0x1499599D5B990819985A5B1959 PUSH1 0x9A SHL PUSH1 0x44 DUP3 ADD MSTORE PUSH1 0x64 SWAP1 REVERT JUMPDEST PUSH2 0x15C0 SWAP2 POP DUP5 RETURNDATASIZE DUP7 GT PUSH2 0x507 JUMPI PUSH2 0x4F9 DUP2 DUP4 PUSH2 0x1F46 JUMP JUMPDEST CODESIZE PUSH2 0x153C JUMP JUMPDEST DUP7 MLOAD PUSH3 0x461BCD PUSH1 0xE5 SHL DUP2 MSTORE DUP1 DUP6 ADD DUP8 SWAP1 MSTORE PUSH1 0x10 PUSH1 0x24 DUP3 ADD MSTORE PUSH16 0x105B1C9958591E481C99599D5B991959 PUSH1 0x82 SHL PUSH1 0x44 DUP3 ADD MSTORE PUSH1 0x64 SWAP1 REVERT JUMPDEST DUP4 DUP3 CALLVALUE PUSH2 0x2AA JUMPI DUP2 PUSH1 0x3 NOT CALLDATASIZE ADD SLT PUSH2 0x2AA JUMPI PUSH1 0x20 SWAP1 PUSH1 0xFF PUSH1 0x2 SLOAD AND SWAP1 MLOAD SWAP1 ISZERO ISZERO DUP2 MSTORE RETURN JUMPDEST DUP4 DUP3 CALLVALUE PUSH2 0x2AA JUMPI DUP2 PUSH1 0x3 NOT CALLDATASIZE ADD SLT PUSH2 0x2AA JUMPI MLOAD PUSH32 0x0 PUSH1 0x1 PUSH1 0x1 PUSH1 0xA0 SHL SUB AND DUP2 MSTORE PUSH1 0x20 SWAP1 RETURN JUMPDEST DUP4 DUP3 CALLVALUE PUSH2 0x2AA JUMPI DUP2 PUSH1 0x3 NOT CALLDATASIZE ADD SLT PUSH2 0x2AA JUMPI PUSH1 0x20 SWAP1 PUSH2 0x1681 PUSH2 0x2293 JUMP JUMPDEST SWAP1 MLOAD SWAP1 ISZERO ISZERO DUP2 MSTORE RETURN JUMPDEST POP CALLVALUE PUSH2 0x259 JUMPI DUP3 PUSH1 0x3 NOT CALLDATASIZE ADD SLT PUSH2 0x259 JUMPI PUSH32 0x0 SWAP1 PUSH1 0x1 PUSH1 0x1 PUSH1 0xA0 SHL SUB DUP1 DUP4 AND CALLER SUB PUSH2 0x1D11 JUMPI PUSH1 0x2 SLOAD PUSH1 0xFF DUP2 PUSH1 0x8 SHR AND ISZERO PUSH2 0x1CD9 JUMPI PUSH1 0xFF AND PUSH2 0x1CA3 JUMPI PUSH2 0x2710 PUSH2 0x1714 PUSH1 0x5 SLOAD PUSH32 0x0 SWAP1 PUSH2 0x2002 JUMP JUMPDEST DIV SWAP4 DUP1 SLOAD SWAP4 PUSH2 0x1723 DUP7 DUP7 PUSH2 0x2035 JUMP JUMPDEST SWAP5 PUSH2 0x1734 PUSH2 0x172F PUSH2 0x2293 JUMP JUMPDEST PUSH2 0x222F JUMP JUMPDEST DUP4 PUSH32 0x0 AND DUP6 MLOAD SWAP8 PUSH4 0x70A08231 PUSH1 0xE0 SHL SWAP4 DUP5 DUP11 MSTORE ADDRESS DUP7 DUP12 ADD MSTORE PUSH1 0x20 SWAP10 PUSH1 0x24 SWAP5 DUP12 DUP3 DUP8 DUP2 DUP9 GAS STATICCALL SWAP2 DUP3 ISZERO PUSH2 0x1B92 JUMPI DUP14 SWAP3 PUSH2 0x1C70 JUMPI JUMPDEST POP PUSH2 0x1796 PUSH1 0x3 SLOAD DUP1 SWAP4 LT ISZERO PUSH2 0x222F JUMP JUMPDEST DUP13 DUP10 PUSH32 0x0 AND SWAP8 DUP12 MLOAD SWAP1 DUP2 MSTORE ADDRESS DUP11 DUP3 ADD MSTORE DUP14 DUP2 DUP10 DUP2 DUP13 GAS STATICCALL SWAP2 DUP3 ISZERO PUSH2 0x1BF2 JUMPI SWAP2 PUSH2 0x1C3F JUMPI JUMPDEST POP LT PUSH2 0x1BFD JUMPI DUP9 MLOAD PUSH4 0x95EA7B3 PUSH1 0xE0 SHL DUP1 DUP3 MSTORE PUSH32 0x0 DUP11 AND PUSH1 0x1 PUSH1 0x1 PUSH1 0xA0 SHL SUB DUP2 AND DUP11 DUP5 ADD SWAP1 DUP2 MSTORE PUSH1 0x20 DUP2 ADD SWAP5 SWAP1 SWAP5 MSTORE SWAP3 SWAP1 SWAP2 DUP15 SWAP2 DUP15 SWAP1 DUP3 SWAP1 DUP2 SWAP1 PUSH1 0x40 ADD SUB DUP2 DUP6 DUP12 GAS CALL SWAP2 DUP3 ISZERO PUSH2 0x1BF2 JUMPI SWAP2 PUSH2 0x1BD5 JUMPI JUMPDEST POP ISZERO PUSH2 0x1B9C JUMPI DUP10 MLOAD SWAP1 DUP2 MSTORE PUSH1 0x1 PUSH1 0x1 PUSH1 0xA0 SHL SUB DUP3 AND DUP2 DUP10 ADD SWAP1 DUP2 MSTORE PUSH1 0x20 DUP2 ADD DUP13 SWAP1 MSTORE DUP13 SWAP1 DUP3 SWAP1 DUP16 SWAP1 DUP3 SWAP1 DUP2 SWAP1 PUSH1 0x40 ADD SUB SWAP2 DUP12 GAS CALL SWAP1 DUP2 ISZERO PUSH2 0x1B92 JUMPI DUP14 SWAP2 PUSH2 0x1B75 JUMPI JUMPDEST POP ISZERO PUSH2 0x1B3A JUMPI PUSH1 0x3 SLOAD SWAP1 PUSH1 0x78 TIMESTAMP ADD TIMESTAMP GT PUSH2 0x1B28 JUMPI SWAP1 DUP13 SWAP2 DUP11 MLOAD SWAP12 DUP13 SWAP3 PUSH3 0xE8E337 PUSH1 0xE8 SHL DUP5 MSTORE DUP8 DUP12 DUP6 ADD MSTORE DUP10 DUP10 DUP6 ADD MSTORE DUP1 PUSH1 0x44 DUP6 ADD MSTORE DUP2 PUSH1 0x64 DUP6 ADD MSTORE PUSH1 0x84 DUP5 ADD MSTORE PUSH1 0xA4 DUP4 ADD MSTORE ADDRESS PUSH1 0xC4 DUP4 ADD MSTORE TIMESTAMP PUSH1 0x78 ADD PUSH1 0xE4 DUP4 ADD MSTORE DUP2 GAS SWAP4 PUSH2 0x104 SWAP3 PUSH1 0x60 SWAP6 CALL SWAP9 DUP10 ISZERO PUSH2 0x1B1E JUMPI DUP12 SWAP10 PUSH2 0x1AE4 JUMPI JUMPDEST POP DUP2 PUSH2 0x1A06 JUMPI JUMPDEST POP POP PUSH1 0x2 DUP1 SLOAD PUSH1 0xFF NOT AND PUSH1 0x1 OR SWAP1 SSTORE DUP6 MLOAD PUSH4 0xE6A43905 PUSH1 0xE0 SHL DUP2 MSTORE SWAP4 DUP5 ADD MSTORE DUP3 ADD MSTORE DUP5 DUP2 PUSH1 0x44 DUP2 PUSH32 0x0 DUP7 AND GAS STATICCALL SWAP5 DUP6 ISZERO PUSH2 0x19FC JUMPI DUP7 SWAP6 PUSH2 0x199D JUMPI JUMPDEST POP POP SWAP1 MLOAD PUSH1 0x1 PUSH1 0x1 PUSH1 0xA0 SHL SUB SWAP1 SWAP4 AND DUP4 MSTORE POP PUSH1 0x20 DUP3 ADD MSTORE PUSH32 0x4DB0962B68E799B508143F50800F1504D656CBD0FE6395510C0DCA385BFD8407 SWAP1 DUP1 PUSH1 0x40 DUP2 ADD JUMPDEST SUB SWAP1 LOG1 DUP1 RETURN JUMPDEST SWAP1 DUP1 SWAP3 SWAP6 POP DUP2 RETURNDATASIZE DUP4 GT PUSH2 0x19F5 JUMPI JUMPDEST PUSH2 0x19B5 DUP2 DUP4 PUSH2 0x1F46 JUMP JUMPDEST DUP2 ADD SUB SLT PUSH2 0x19F1 JUMPI MLOAD SWAP3 DUP4 AND DUP4 SUB PUSH2 0x5C3 JUMPI PUSH2 0x1997 PUSH32 0x4DB0962B68E799B508143F50800F1504D656CBD0FE6395510C0DCA385BFD8407 CODESIZE PUSH2 0x1958 JUMP JUMPDEST DUP5 DUP1 REVERT JUMPDEST POP RETURNDATASIZE PUSH2 0x19AB JUMP JUMPDEST DUP4 MLOAD RETURNDATASIZE DUP9 DUP3 RETURNDATACOPY RETURNDATASIZE SWAP1 REVERT JUMPDEST DUP8 MLOAD PUSH4 0xA9059CBB PUSH1 0xE0 SHL DUP2 MSTORE PUSH1 0x1 PUSH1 0x1 PUSH1 0xA0 SHL SUB DUP3 AND DUP8 DUP3 ADD SWAP1 DUP2 MSTORE PUSH1 0x20 DUP2 ADD DUP5 SWAP1 MSTORE DUP12 SWAP1 DUP3 SWAP1 DUP2 SWAP1 SUB PUSH1 0x40 ADD DUP2 DUP16 DUP11 GAS CALL SWAP1 DUP2 ISZERO PUSH2 0x1ADA JUMPI DUP13 SWAP2 PUSH2 0x1ABD JUMPI JUMPDEST POP ISZERO PUSH2 0x1A83 JUMPI PUSH32 0xEFC7F1F15BECFAEC7A3C17EEC78BE3FA7ADB45698F26FCFD25EFE1754C242331 SWAP2 DUP8 DUP10 SWAP3 DUP4 MLOAD SWAP3 DUP4 MSTORE AND DUP12 DUP3 ADD MSTORE LOG1 CODESIZE DUP1 PUSH2 0x18FE JUMP JUMPDEST DUP8 MLOAD PUSH3 0x461BCD PUSH1 0xE5 SHL DUP2 MSTORE DUP1 DUP8 ADD DUP12 SWAP1 MSTORE PUSH1 0x15 DUP2 DUP7 ADD MSTORE PUSH21 0x115CD8DC9BDDC81C995B19585CD94819985A5B1959 PUSH1 0x5A SHL PUSH1 0x44 DUP3 ADD MSTORE PUSH1 0x64 SWAP1 REVERT JUMPDEST PUSH2 0x1AD4 SWAP2 POP DUP12 RETURNDATASIZE DUP14 GT PUSH2 0x507 JUMPI PUSH2 0x4F9 DUP2 DUP4 PUSH2 0x1F46 JUMP JUMPDEST CODESIZE PUSH2 0x1A46 JUMP JUMPDEST DUP10 MLOAD RETURNDATASIZE DUP15 DUP3 RETURNDATACOPY RETURNDATASIZE SWAP1 REVERT JUMPDEST SWAP1 SWAP9 POP PUSH1 0x60 DUP2 RETURNDATASIZE PUSH1 0x60 GT PUSH2 0x1B16 JUMPI JUMPDEST DUP2 PUSH2 0x1B00 PUSH1 0x60 SWAP4 DUP4 PUSH2 0x1F46 JUMP JUMPDEST DUP2 ADD SUB SLT PUSH2 0x1B12 JUMPI DUP8 ADD MLOAD SWAP8 CODESIZE PUSH2 0x18F7 JUMP JUMPDEST DUP11 DUP1 REVERT JUMPDEST RETURNDATASIZE SWAP2 POP PUSH2 0x1AF3 JUMP JUMPDEST DUP9 MLOAD RETURNDATASIZE DUP14 DUP3 RETURNDATACOPY RETURNDATASIZE SWAP1 REVERT JUMPDEST PUSH4 0x4E487B71 PUSH1 0xE0 SHL DUP14 MSTORE PUSH1 0x11 DUP9 MSTORE DUP6 DUP14 REVERT JUMPDEST DUP9 MLOAD PUSH3 0x461BCD PUSH1 0xE5 SHL DUP2 MSTORE DUP1 DUP9 ADD DUP13 SWAP1 MSTORE PUSH1 0x16 DUP2 DUP8 ADD MSTORE PUSH22 0x14185E5B595B9D08185C1C1C9BDD994819985A5B1959 PUSH1 0x52 SHL PUSH1 0x44 DUP3 ADD MSTORE PUSH1 0x64 SWAP1 REVERT JUMPDEST PUSH2 0x1B8C SWAP2 POP DUP13 DUP14 RETURNDATASIZE LT PUSH2 0x507 JUMPI PUSH2 0x4F9 DUP2 DUP4 PUSH2 0x1F46 JUMP JUMPDEST CODESIZE PUSH2 0x188A JUMP JUMPDEST DUP11 MLOAD RETURNDATASIZE DUP16 DUP3 RETURNDATACOPY RETURNDATASIZE SWAP1 REVERT JUMPDEST DUP10 MLOAD PUSH3 0x461BCD PUSH1 0xE5 SHL DUP2 MSTORE DUP1 DUP10 ADD DUP14 SWAP1 MSTORE PUSH1 0x14 DUP2 DUP9 ADD MSTORE PUSH20 0x151BDAD95B88185C1C1C9BDD994819985A5B1959 PUSH1 0x62 SHL PUSH1 0x44 DUP3 ADD MSTORE PUSH1 0x64 SWAP1 REVERT JUMPDEST PUSH2 0x1BEC SWAP2 POP DUP14 DUP1 RETURNDATASIZE LT PUSH2 0x507 JUMPI PUSH2 0x4F9 DUP2 DUP4 PUSH2 0x1F46 JUMP JUMPDEST CODESIZE PUSH2 0x1848 JUMP JUMPDEST DUP13 MLOAD SWAP1 RETURNDATASIZE SWAP1 DUP3 RETURNDATACOPY RETURNDATASIZE SWAP1 REVERT JUMPDEST DUP9 MLOAD PUSH3 0x461BCD PUSH1 0xE5 SHL DUP2 MSTORE DUP1 DUP9 ADD DUP13 SWAP1 MSTORE PUSH1 0x1B DUP2 DUP8 ADD MSTORE PUSH32 0x496E73756666696369656E74207061796D656E7420746F6B656E730000000000 PUSH1 0x44 DUP3 ADD MSTORE PUSH1 0x64 SWAP1 REVERT JUMPDEST SWAP1 POP DUP13 DUP2 DUP2 RETURNDATASIZE DUP4 GT PUSH2 0x1C69 JUMPI JUMPDEST PUSH2 0x1C56 DUP2 DUP4 PUSH2 0x1F46 JUMP JUMPDEST DUP2 ADD SUB SLT PUSH2 0x1C65 JUMPI MLOAD CODESIZE PUSH2 0x17D9 JUMP JUMPDEST DUP14 DUP1 REVERT JUMPDEST POP RETURNDATASIZE PUSH2 0x1C4C JUMP JUMPDEST SWAP1 SWAP2 POP DUP12 DUP2 DUP2 RETURNDATASIZE DUP4 GT PUSH2 0x1C9C JUMPI JUMPDEST PUSH2 0x1C88 DUP2 DUP4 PUSH2 0x1F46 JUMP JUMPDEST DUP2 ADD SUB SLT PUSH2 0x1C98 JUMPI MLOAD SWAP1 CODESIZE PUSH2 0x1786 JUMP JUMPDEST DUP13 DUP1 REVERT JUMPDEST POP RETURNDATASIZE PUSH2 0x1C7E JUMP JUMPDEST DUP2 MLOAD PUSH3 0x461BCD PUSH1 0xE5 SHL DUP2 MSTORE PUSH1 0x20 DUP2 DUP7 ADD MSTORE PUSH1 0x10 PUSH1 0x24 DUP3 ADD MSTORE PUSH16 0x105B1C9958591E4819195C1B1BDE5959 PUSH1 0x82 SHL PUSH1 0x44 DUP3 ADD MSTORE PUSH1 0x64 SWAP1 REVERT JUMPDEST DUP3 MLOAD PUSH3 0x461BCD PUSH1 0xE5 SHL DUP2 MSTORE PUSH1 0x20 DUP2 DUP8 ADD MSTORE PUSH1 0x12 PUSH1 0x24 DUP3 ADD MSTORE PUSH18 0x15185C99D95D081B9BDD081C995858DA1959 PUSH1 0x72 SHL PUSH1 0x44 DUP3 ADD MSTORE PUSH1 0x64 SWAP1 REVERT JUMPDEST DUP2 MLOAD PUSH3 0x461BCD PUSH1 0xE5 SHL DUP2 MSTORE PUSH1 0x20 DUP2 DUP7 ADD MSTORE PUSH1 0x18 PUSH1 0x24 DUP3 ADD MSTORE PUSH32 0x4F6E6C7920666F756E646572732063616E206465706C6F790000000000000000 PUSH1 0x44 DUP3 ADD MSTORE PUSH1 0x64 SWAP1 REVERT JUMPDEST POP DUP3 CALLVALUE PUSH2 0xFD6 JUMPI PUSH1 0x20 CALLDATASIZE PUSH1 0x3 NOT ADD SLT PUSH2 0xFD6 JUMPI POP PUSH2 0x316 PUSH1 0x20 SWAP3 CALLDATALOAD PUSH2 0x2090 JUMP JUMPDEST POP CALLVALUE PUSH2 0x259 JUMPI DUP3 PUSH1 0x3 NOT CALLDATASIZE ADD SLT PUSH2 0x259 JUMPI DUP1 MLOAD PUSH4 0x70A08231 PUSH1 0xE0 SHL DUP2 MSTORE ADDRESS SWAP3 DUP2 ADD SWAP3 SWAP1 SWAP3 MSTORE PUSH1 0x20 DUP3 PUSH1 0x24 DUP2 PUSH32 0x0 PUSH1 0x1 PUSH1 0x1 PUSH1 0xA0 SHL SUB AND GAS STATICCALL SWAP2 DUP3 ISZERO PUSH2 0x265 JUMPI DUP4 SWAP3 PUSH2 0x229 JUMPI PUSH1 0x20 DUP4 DUP4 MLOAD SWAP1 DUP2 MSTORE RETURN JUMPDEST SWAP2 DUP5 SWAP2 POP CALLVALUE PUSH2 0x2AA JUMPI PUSH1 0x20 SWAP4 DUP5 PUSH1 0x3 NOT CALLDATASIZE ADD SLT PUSH2 0x259 JUMPI PUSH2 0x1E01 PUSH2 0x1EF9 JUMP JUMPDEST PUSH1 0x1 PUSH1 0x1 PUSH1 0xA0 SHL SUB SWAP1 DUP2 AND DUP5 MSTORE PUSH1 0x9 DUP7 MSTORE DUP3 DUP5 KECCAK256 DUP1 SLOAD DUP1 DUP8 MSTORE SWAP1 DUP6 MSTORE DUP7 DUP6 KECCAK256 SWAP2 SWAP3 SWAP2 DUP6 SWAP2 DUP8 SWAP1 DUP2 DUP11 ADD SWAP1 DUP5 JUMPDEST DUP12 DUP3 DUP3 LT PUSH2 0x1EE3 JUMPI POP POP POP PUSH2 0x1E44 SWAP3 POP SUB DUP8 PUSH2 0x1F46 JUMP JUMPDEST DUP1 JUMPDEST DUP7 MLOAD DUP2 LT ISZERO PUSH2 0x1EDA JUMPI DUP8 DUP2 PUSH1 0x5 SHL DUP9 ADD ADD MLOAD DUP3 MSTORE PUSH1 0x8 DUP9 MSTORE DUP5 DUP3 KECCAK256 DUP6 MLOAD SWAP1 PUSH2 0x1E6D DUP3 PUSH2 0x1F14 JUMP JUMPDEST DUP1 SLOAD DUP3 MSTORE PUSH1 0x1 DUP2 ADD SLOAD DUP11 DUP4 ADD MSTORE PUSH1 0x2 DUP2 ADD SLOAD SWAP2 DUP3 DUP9 DUP3 ADD MSTORE PUSH1 0xC0 DUP7 PUSH1 0x3 DUP5 ADD SLOAD SWAP4 DUP10 DUP6 AND PUSH1 0x60 DUP6 ADD MSTORE PUSH1 0xFF PUSH1 0xA0 SWAP1 DUP1 DUP8 DUP4 SHR AND ISZERO SWAP7 DUP8 ISZERO PUSH1 0x80 DUP9 ADD MSTORE PUSH1 0xA8 SHR AND ISZERO ISZERO SWAP1 DUP6 ADD MSTORE ADD SLOAD SWAP2 ADD MSTORE PUSH2 0x1EC6 JUMPI JUMPDEST POP PUSH1 0x1 ADD PUSH2 0x1E46 JUMP JUMPDEST PUSH2 0x1ED3 SWAP1 PUSH1 0x1 SWAP3 SWAP8 PUSH2 0x1FDF JUMP JUMPDEST SWAP6 SWAP1 PUSH2 0x1EBD JUMP JUMPDEST DUP8 DUP7 DUP7 MLOAD SWAP1 DUP2 MSTORE RETURN JUMPDEST DUP6 SLOAD DUP5 MSTORE PUSH1 0x1 SWAP6 DUP7 ADD SWAP6 DUP13 SWAP6 POP SWAP4 ADD SWAP3 ADD PUSH2 0x1E2D JUMP JUMPDEST PUSH1 0x4 CALLDATALOAD SWAP1 PUSH1 0x1 PUSH1 0x1 PUSH1 0xA0 SHL SUB DUP3 AND DUP3 SUB PUSH2 0x1F0F JUMPI JUMP JUMPDEST PUSH1 0x0 DUP1 REVERT JUMPDEST PUSH1 0xE0 DUP2 ADD SWAP1 DUP2 LT PUSH8 0xFFFFFFFFFFFFFFFF DUP3 GT OR PUSH2 0x1F30 JUMPI PUSH1 0x40 MSTORE JUMP JUMPDEST PUSH4 0x4E487B71 PUSH1 0xE0 SHL PUSH1 0x0 MSTORE PUSH1 0x41 PUSH1 0x4 MSTORE PUSH1 0x24 PUSH1 0x0 REVERT JUMPDEST SWAP1 PUSH1 0x1F DUP1 NOT SWAP2 ADD AND DUP2 ADD SWAP1 DUP2 LT PUSH8 0xFFFFFFFFFFFFFFFF DUP3 GT OR PUSH2 0x1F30 JUMPI PUSH1 0x40 MSTORE JUMP JUMPDEST PUSH1 0x20 DUP1 DUP3 MSTORE DUP3 MLOAD DUP2 DUP4 ADD DUP2 SWAP1 MSTORE SWAP1 SWAP4 SWAP3 PUSH1 0x0 JUMPDEST DUP3 DUP2 LT PUSH2 0x1F9D JUMPI POP POP PUSH1 0x40 SWAP3 SWAP4 POP PUSH1 0x0 DUP4 DUP3 DUP5 ADD ADD MSTORE PUSH1 0x1F DUP1 NOT SWAP2 ADD AND ADD ADD SWAP1 JUMP JUMPDEST DUP2 DUP2 ADD DUP7 ADD MLOAD DUP5 DUP3 ADD PUSH1 0x40 ADD MSTORE DUP6 ADD PUSH2 0x1F7B JUMP JUMPDEST DUP1 SLOAD DUP3 LT ISZERO PUSH2 0x1FC9 JUMPI PUSH1 0x0 MSTORE PUSH1 0x20 PUSH1 0x0 KECCAK256 ADD SWAP1 PUSH1 0x0 SWAP1 JUMP JUMPDEST PUSH4 0x4E487B71 PUSH1 0xE0 SHL PUSH1 0x0 MSTORE PUSH1 0x32 PUSH1 0x4 MSTORE PUSH1 0x24 PUSH1 0x0 REVERT JUMPDEST SWAP2 SWAP1 DUP3 ADD DUP1 SWAP3 GT PUSH2 0x1FEC JUMPI JUMP JUMPDEST PUSH4 0x4E487B71 PUSH1 0xE0 SHL PUSH1 0x0 MSTORE PUSH1 0x11 PUSH1 0x4 MSTORE PUSH1 0x24 PUSH1 0x0 REVERT JUMPDEST DUP2 DUP2 MUL SWAP3 SWAP2 DUP2 ISZERO SWAP2 DUP5 DIV EQ OR ISZERO PUSH2 0x1FEC JUMPI JUMP JUMPDEST DUP2 ISZERO PUSH2 0x201F JUMPI DIV SWAP1 JUMP JUMPDEST PUSH4 0x4E487B71 PUSH1 0xE0 SHL PUSH1 0x0 MSTORE PUSH1 0x12 PUSH1 0x4 MSTORE PUSH1 0x24 PUSH1 0x0 REVERT JUMPDEST SWAP2 SWAP1 DUP3 SUB SWAP2 DUP3 GT PUSH2 0x1FEC JUMPI JUMP JUMPDEST ISZERO PUSH2 0x2049 JUMPI JUMP JUMPDEST PUSH1 0x40 MLOAD PUSH3 0x461BCD PUSH1 0xE5 SHL DUP2 MSTORE PUSH1 0x20 PUSH1 0x4 DUP3 ADD MSTORE PUSH1 0xE PUSH1 0x24 DUP3 ADD MSTORE PUSH14 0x115E18D959591CC81D185C99D95D PUSH1 0x92 SHL PUSH1 0x44 DUP3 ADD MSTORE PUSH1 0x64 SWAP1 REVERT JUMPDEST PUSH1 0xFF AND PUSH1 0x4D DUP2 GT PUSH2 0x1FEC JUMPI PUSH1 0xA EXP SWAP1 JUMP JUMPDEST PUSH1 0x64 DUP2 MUL SWAP1 DUP1 DUP3 DIV PUSH1 0x64 EQ DUP2 ISZERO OR ISZERO PUSH2 0x1FEC JUMPI PUSH2 0x21C7 PUSH2 0x21D2 PUSH2 0x211F PUSH2 0x222C SWAP5 PUSH2 0x6C6 PUSH2 0x2710 DUP1 SWAP3 DIV SWAP2 PUSH2 0x6C6 PUSH2 0x20EC DUP5 DUP4 PUSH2 0x68A PUSH32 0x0 DUP13 PUSH2 0x2002 JUMP JUMPDEST SWAP2 PUSH2 0x2117 PUSH32 0x0 DUP11 PUSH2 0x2002 JUMP JUMPDEST DIV SWAP2 DUP9 PUSH2 0x2035 JUMP JUMPDEST PUSH2 0x21CC PUSH1 0x4 SLOAD SWAP2 PUSH2 0x21CC PUSH2 0x2133 DUP3 DUP6 PUSH2 0x1FDF JUMP JUMPDEST PUSH2 0x2160 PUSH32 0x0 DUP1 SWAP3 GT ISZERO PUSH2 0x2042 JUMP JUMPDEST PUSH2 0x21C7 PUSH2 0x216B PUSH2 0x2592 JUMP JUMPDEST SWAP6 PUSH2 0x21C1 PUSH32 0x0 SWAP6 PUSH2 0x21BB DUP8 PUSH32 0x0 PUSH2 0x2035 JUMP JUMPDEST SWAP3 PUSH2 0x1FDF JUMP JUMPDEST SWAP1 PUSH2 0x2002 JUMP JUMPDEST PUSH2 0x2015 JUMP JUMPDEST SWAP1 PUSH2 0x1FDF JUMP JUMPDEST PUSH1 0x1 SHR SWAP2 PUSH2 0x21C1 PUSH2 0x2226 PUSH32 0x0 DUP1 SWAP4 PUSH32 0x0 SWAP1 PUSH2 0x2654 JUMP JUMPDEST SWAP2 PUSH2 0x207F JUMP JUMPDEST SWAP1 JUMP JUMPDEST ISZERO PUSH2 0x2236 JUMPI JUMP JUMPDEST PUSH1 0x40 MLOAD PUSH3 0x461BCD PUSH1 0xE5 SHL DUP2 MSTORE PUSH1 0x20 PUSH1 0x4 DUP3 ADD MSTORE PUSH1 0x18 PUSH1 0x24 DUP3 ADD MSTORE PUSH32 0x496E73756666696369656E742073616C6520746F6B656E730000000000000000 PUSH1 0x44 DUP3 ADD MSTORE PUSH1 0x64 SWAP1 REVERT JUMPDEST SWAP1 DUP2 PUSH1 0x20 SWAP2 SUB SLT PUSH2 0x1F0F JUMPI MLOAD DUP1 ISZERO ISZERO DUP2 SUB PUSH2 0x1F0F JUMPI SWAP1 JUMP JUMPDEST PUSH1 0x40 MLOAD PUSH4 0x70A08231 PUSH1 0xE0 SHL DUP2 MSTORE ADDRESS PUSH1 0x4 DUP3 ADD MSTORE PUSH1 0x20 DUP2 PUSH1 0x24 DUP2 PUSH32 0x0 PUSH1 0x1 PUSH1 0x1 PUSH1 0xA0 SHL SUB AND GAS STATICCALL SWAP1 DUP2 ISZERO PUSH2 0x2327 JUMPI PUSH1 0x0 SWAP2 PUSH2 0x22F5 JUMPI JUMPDEST POP PUSH2 0x22F0 PUSH2 0x2434 JUMP JUMPDEST GT ISZERO SWAP1 JUMP JUMPDEST SWAP1 POP PUSH1 0x20 DUP2 RETURNDATASIZE PUSH1 0x20 GT PUSH2 0x231F JUMPI JUMPDEST DUP2 PUSH2 0x2310 PUSH1 0x20 SWAP4 DUP4 PUSH2 0x1F46 JUMP JUMPDEST DUP2 ADD SUB SLT PUSH2 0x1F0F JUMPI MLOAD CODESIZE PUSH2 0x22E7 JUMP JUMPDEST RETURNDATASIZE SWAP2 POP PUSH2 0x2303 JUMP JUMPDEST PUSH1 0x40 MLOAD RETURNDATASIZE PUSH1 0x0 DUP3 RETURNDATACOPY RETURNDATASIZE SWAP1 REVERT JUMPDEST ISZERO PUSH2 0x233A JUMPI JUMP JUMPDEST PUSH1 0x40 MLOAD PUSH3 0x461BCD PUSH1 0xE5 SHL DUP2 MSTORE PUSH1 0x20 PUSH1 0x4 DUP3 ADD MSTORE PUSH1 0xE PUSH1 0x24 DUP3 ADD MSTORE PUSH14 0x14D85B194818DBDB5C1B195D1959 PUSH1 0x92 SHL PUSH1 0x44 DUP3 ADD MSTORE PUSH1 0x64 SWAP1 REVERT JUMPDEST ISZERO PUSH2 0x2377 JUMPI JUMP JUMPDEST PUSH1 0x40 MLOAD PUSH3 0x461BCD PUSH1 0xE5 SHL DUP2 MSTORE PUSH1 0x20 PUSH1 0x4 DUP3 ADD MSTORE PUSH1 0x16 PUSH1 0x24 DUP3 ADD MSTORE PUSH22 0x15185C99D95D08185B1C9958591E481C995858DA1959 PUSH1 0x52 SHL PUSH1 0x44 DUP3 ADD MSTORE PUSH1 0x64 SWAP1 REVERT JUMPDEST ISZERO PUSH2 0x23BC JUMPI JUMP JUMPDEST PUSH1 0x40 MLOAD PUSH3 0x461BCD PUSH1 0xE5 SHL DUP2 MSTORE PUSH1 0x20 PUSH1 0x4 DUP3 ADD MSTORE PUSH1 0x11 PUSH1 0x24 DUP3 ADD MSTORE PUSH17 0x2737BA103A343290383AB931B430B9B2B9 PUSH1 0x79 SHL PUSH1 0x44 DUP3 ADD MSTORE PUSH1 0x64 SWAP1 REVERT JUMPDEST ISZERO PUSH2 0x23FC JUMPI JUMP JUMPDEST PUSH1 0x40 MLOAD PUSH3 0x461BCD PUSH1 0xE5 SHL DUP2 MSTORE PUSH1 0x20 PUSH1 0x4 DUP3 ADD MSTORE PUSH1 0x10 PUSH1 0x24 DUP3 ADD MSTORE PUSH16 0x105B1C9958591E481C995919595B5959 PUSH1 0x82 SHL PUSH1 0x44 DUP3 ADD MSTORE PUSH1 0x64 SWAP1 REVERT JUMPDEST PUSH2 0x2710 PUSH32 0x0 DUP2 SUB DUP2 DUP2 GT PUSH2 0x1FEC JUMPI PUSH2 0x248C SWAP1 PUSH32 0x0 SWAP1 PUSH2 0x2035 JUMP JUMPDEST PUSH32 0x0 SWAP1 DUP3 DUP3 MUL SWAP3 DUP3 DUP5 DIV EQ DUP3 ISZERO OR ISZERO PUSH2 0x1FEC JUMPI PUSH2 0x24CE PUSH2 0x21CC SWAP2 PUSH2 0x222C SWAP5 PUSH2 0x2015 JUMP JUMPDEST SWAP2 PUSH2 0x21C7 PUSH32 0x0 SWAP2 PUSH2 0x21C1 PUSH2 0x258C PUSH32 0x0 SWAP7 PUSH2 0x21C7 PUSH2 0x257F PUSH2 0x2578 DUP11 PUSH2 0x2551 DUP2 DUP12 PUSH32 0x0 PUSH2 0x2654 JUMP JUMPDEST SWAP10 PUSH32 0x0 PUSH2 0x2654 JUMP JUMPDEST DUP1 SWAP9 PUSH2 0x1FDF JUMP JUMPDEST PUSH1 0x1 SHR SWAP2 PUSH2 0x21C1 DUP11 PUSH2 0x207F JUMP JUMPDEST SWAP6 PUSH2 0x207F JUMP JUMPDEST PUSH1 0x4 SLOAD PUSH32 0x0 SWAP1 DUP2 DUP2 LT ISZERO PUSH2 0x261A JUMPI PUSH2 0x21CC PUSH2 0x222C SWAP3 PUSH2 0x21C7 PUSH32 0x0 SWAP4 PUSH2 0x2615 DUP6 PUSH32 0x0 PUSH2 0x2035 JUMP JUMPDEST PUSH2 0x2002 JUMP JUMPDEST POP POP PUSH32 0x0 SWAP1 JUMP JUMPDEST SWAP1 PUSH1 0xFF DUP1 SWAP2 AND SWAP2 AND SUB SWAP1 PUSH1 0xFF DUP3 GT PUSH2 0x1FEC JUMPI JUMP JUMPDEST SWAP1 PUSH1 0xFF DUP4 AND PUSH1 0xFF DUP3 AND DUP2 DUP2 EQ PUSH2 0x2694 JUMPI LT PUSH2 0x2684 JUMPI PUSH2 0x2679 PUSH2 0x222C SWAP4 PUSH2 0x267E SWAP3 PUSH2 0x2640 JUMP JUMPDEST PUSH2 0x207F JUMP JUMPDEST SWAP1 PUSH2 0x2015 JUMP JUMPDEST PUSH2 0x2679 PUSH2 0x21C1 SWAP2 PUSH2 0x222C SWAP5 PUSH2 0x2640 JUMP JUMPDEST POP POP POP SWAP1 POP SWAP1 JUMP JUMPDEST PUSH1 0x2 PUSH1 0x0 SLOAD EQ PUSH2 0x26AD JUMPI PUSH1 0x2 PUSH1 0x0 SSTORE JUMP JUMPDEST PUSH1 0x40 MLOAD PUSH4 0x3EE5AEB5 PUSH1 0xE0 SHL DUP2 MSTORE PUSH1 0x4 SWAP1 REVERT INVALID LOG2 PUSH5 0x6970667358 0x22 SLT KECCAK256 CALLDATASIZE 0x28 0xA8 CALLDATACOPY 0xD6 PUSH31 0xC8577CA5D6D16C1AFA27E289BAD25B05528B7F2717F27A615B5564736F6C63 NUMBER STOP ADDMOD XOR STOP CALLER 0xA6 PUSH13 0xC928B5EDB82AF9BD4992295415 GAS 0xB7 0xB0 SWAP5 0x26 SWAP5 0xBE LOG4 0xCE PREVRANDAO PUSH7 0x1D9A8736C688F6 MSTORE 0x22 0x23 SGT 0xE2 DUP5 MSIZE MSTORE DUP14 SWAP3 SIGNEXTEND PUSH6 0x115C16C04F3E 0xFC DUP3 0xAA 0xED 0xC9 PUSH28 0xE59F3F377C0D3F000000000000000000000000000000000000000000 "
        },
        "methodIdentifiers": {
          "OTTERPAD_DAO()": "edafc9af",
          "OTTERPAD_FEE_BPS()": "ef5ee995",
          "buy(uint256)": "d96a094a",
          "calculateTokensReceived(uint256)": "10d0ffdd",
          "checkSaleTokensRequired()": "5f655ea7",
          "deployToUniswap()": "12eff12c",
          "endPrice()": "b868723e",
          "escrowRakeBPS()": "b704a0c4",
          "foundersWallet()": "1bfaf155",
          "getAllocation(address)": "0e022923",
          "getCurrentPrice()": "eb91d37e",
          "getEscrowedAmount()": "8a19ecef",
          "getMinimumPurchase()": "af5b065a",
          "getPaymentTokenBalance()": "0f8c2798",
          "getSaleTokenBalance()": "f6a55a29",
          "getUserOrderIndices(address)": "bef08860",
          "hasSufficientSaleTokens()": "16c04948",
          "isDeployedToUniswap()": "25f97fb9",
          "orderCounter()": "b789bf52",
          "paymentToken()": "3013ce29",
          "purchases(uint256)": "8392fe31",
          "recoverStuckTokens(address,uint256)": "c596f3fe",
          "redeem(uint256)": "db006a75",
          "refund(uint256)": "278ecde1",
          "richInfoUrl()": "c7c8b437",
          "saleToken()": "e985e367",
          "startPrice()": "f1a9af89",
          "targetLiquidity()": "92258ec8",
          "targetReached()": "3bde5ba8",
          "title()": "4a79d50c",
          "totalActiveContributions()": "9513a0fd",
          "totalPaymentsIn()": "de7e3310",
          "totalTokensAllocated()": "c07f773a",
          "uniswapFactory()": "8bdb2afa",
          "uniswapRouter()": "735de9f7",
          "upfrontRakeBPS()": "560b842c",
          "userOrderIndices(address,uint256)": "5a59c551"
        }
      }
    }
  }
}