{
  "contracts/OtterPadFund.sol": {
    "OtterPadFund": {
      "abi": [
        {
          "inputs": [
            {
              "internalType": "string",
              "name": "_title",
              "type": "string"
            },
            {
              "internalType": "string",
              "name": "_richInfoUrl",
              "type": "string"
            },
            {
              "internalType": "address",
              "name": "_saleToken",
              "type": "address"
            },
            {
              "internalType": "address",
              "name": "_paymentToken",
              "type": "address"
            },
            {
              "internalType": "address",
              "name": "_uniswapRouter",
              "type": "address"
            },
            {
              "internalType": "address",
              "name": "_uniswapFactory",
              "type": "address"
            },
            {
              "internalType": "uint256",
              "name": "_startPrice",
              "type": "uint256"
            },
            {
              "internalType": "uint256",
              "name": "_endPrice",
              "type": "uint256"
            },
            {
              "internalType": "uint256",
              "name": "_targetLiquidity",
              "type": "uint256"
            },
            {
              "internalType": "uint256",
              "name": "_upfrontRakeBPS",
              "type": "uint256"
            },
            {
              "internalType": "uint256",
              "name": "_escrowRakeBPS",
              "type": "uint256"
            },
            {
              "internalType": "address",
              "name": "_foundersWallet",
              "type": "address"
            },
            {
              "internalType": "address",
              "name": "_lockLPTokenWallet",
              "type": "address"
            }
          ],
          "stateMutability": "nonpayable",
          "type": "constructor"
        },
        {
          "inputs": [],
          "name": "ReentrancyGuardReentrantCall",
          "type": "error"
        },
        {
          "anonymous": false,
          "inputs": [
            {
              "indexed": false,
              "internalType": "address",
              "name": "pair",
              "type": "address"
            },
            {
              "indexed": false,
              "internalType": "uint256",
              "name": "liquidity",
              "type": "uint256"
            }
          ],
          "name": "DeployedToUniswap",
          "type": "event"
        },
        {
          "anonymous": false,
          "inputs": [
            {
              "indexed": false,
              "internalType": "uint256",
              "name": "amount",
              "type": "uint256"
            },
            {
              "indexed": false,
              "internalType": "address",
              "name": "foundersWallet",
              "type": "address"
            }
          ],
          "name": "EscrowReleased",
          "type": "event"
        },
        {
          "anonymous": false,
          "inputs": [
            {
              "indexed": true,
              "internalType": "address",
              "name": "purchaser",
              "type": "address"
            },
            {
              "indexed": false,
              "internalType": "uint256",
              "name": "totalAmount",
              "type": "uint256"
            },
            {
              "indexed": false,
              "internalType": "uint256",
              "name": "otterpadFee",
              "type": "uint256"
            },
            {
              "indexed": false,
              "internalType": "uint256",
              "name": "upfrontAmount",
              "type": "uint256"
            },
            {
              "indexed": false,
              "internalType": "uint256",
              "name": "escrowAmount",
              "type": "uint256"
            },
            {
              "indexed": false,
              "internalType": "uint256",
              "name": "contributionAmount",
              "type": "uint256"
            }
          ],
          "name": "PaymentReceived",
          "type": "event"
        },
        {
          "anonymous": false,
          "inputs": [
            {
              "indexed": true,
              "internalType": "address",
              "name": "purchaser",
              "type": "address"
            },
            {
              "indexed": false,
              "internalType": "uint256",
              "name": "contributionAmount",
              "type": "uint256"
            },
            {
              "indexed": true,
              "internalType": "uint256",
              "name": "orderIndex",
              "type": "uint256"
            },
            {
              "indexed": false,
              "internalType": "uint256",
              "name": "netActiveContributions",
              "type": "uint256"
            },
            {
              "indexed": false,
              "internalType": "uint256",
              "name": "timestamp",
              "type": "uint256"
            }
          ],
          "name": "Refunded",
          "type": "event"
        },
        {
          "anonymous": false,
          "inputs": [
            {
              "indexed": true,
              "internalType": "address",
              "name": "purchaser",
              "type": "address"
            },
            {
              "indexed": false,
              "internalType": "uint256",
              "name": "paymentAmount",
              "type": "uint256"
            },
            {
              "indexed": false,
              "internalType": "uint256",
              "name": "contributionAmount",
              "type": "uint256"
            },
            {
              "indexed": false,
              "internalType": "uint256",
              "name": "tokenAmount",
              "type": "uint256"
            },
            {
              "indexed": true,
              "internalType": "uint256",
              "name": "orderIndex",
              "type": "uint256"
            },
            {
              "indexed": false,
              "internalType": "uint256",
              "name": "netActiveContributions",
              "type": "uint256"
            },
            {
              "indexed": false,
              "internalType": "uint256",
              "name": "timestamp",
              "type": "uint256"
            }
          ],
          "name": "TokensPurchased",
          "type": "event"
        },
        {
          "anonymous": false,
          "inputs": [
            {
              "indexed": true,
              "internalType": "address",
              "name": "purchaser",
              "type": "address"
            },
            {
              "indexed": false,
              "internalType": "uint256",
              "name": "tokenAmount",
              "type": "uint256"
            },
            {
              "indexed": true,
              "internalType": "uint256",
              "name": "orderIndex",
              "type": "uint256"
            }
          ],
          "name": "TokensRedeemed",
          "type": "event"
        },
        {
          "inputs": [],
          "name": "OTTERPAD_DAO",
          "outputs": [
            {
              "internalType": "address",
              "name": "",
              "type": "address"
            }
          ],
          "stateMutability": "view",
          "type": "function"
        },
        {
          "inputs": [],
          "name": "OTTERPAD_FEE_BPS",
          "outputs": [
            {
              "internalType": "uint256",
              "name": "",
              "type": "uint256"
            }
          ],
          "stateMutability": "view",
          "type": "function"
        },
        {
          "inputs": [
            {
              "internalType": "uint256",
              "name": "paymentAmount",
              "type": "uint256"
            }
          ],
          "name": "buy",
          "outputs": [],
          "stateMutability": "nonpayable",
          "type": "function"
        },
        {
          "inputs": [
            {
              "internalType": "uint256",
              "name": "paymentAmount",
              "type": "uint256"
            }
          ],
          "name": "calculateTokensReceived",
          "outputs": [
            {
              "internalType": "uint256",
              "name": "",
              "type": "uint256"
            }
          ],
          "stateMutability": "view",
          "type": "function"
        },
        {
          "inputs": [],
          "name": "checkSaleTokensRequired",
          "outputs": [
            {
              "internalType": "uint256",
              "name": "",
              "type": "uint256"
            }
          ],
          "stateMutability": "view",
          "type": "function"
        },
        {
          "inputs": [],
          "name": "deployToUniswap",
          "outputs": [
            {
              "internalType": "address",
              "name": "pool",
              "type": "address"
            }
          ],
          "stateMutability": "nonpayable",
          "type": "function"
        },
        {
          "inputs": [],
          "name": "endPrice",
          "outputs": [
            {
              "internalType": "uint256",
              "name": "",
              "type": "uint256"
            }
          ],
          "stateMutability": "view",
          "type": "function"
        },
        {
          "inputs": [],
          "name": "escrowRakeBPS",
          "outputs": [
            {
              "internalType": "uint256",
              "name": "",
              "type": "uint256"
            }
          ],
          "stateMutability": "view",
          "type": "function"
        },
        {
          "inputs": [],
          "name": "foundersWallet",
          "outputs": [
            {
              "internalType": "address",
              "name": "",
              "type": "address"
            }
          ],
          "stateMutability": "view",
          "type": "function"
        },
        {
          "inputs": [
            {
              "internalType": "address",
              "name": "user",
              "type": "address"
            }
          ],
          "name": "getAllocation",
          "outputs": [
            {
              "internalType": "uint256",
              "name": "totalTokens",
              "type": "uint256"
            }
          ],
          "stateMutability": "view",
          "type": "function"
        },
        {
          "inputs": [],
          "name": "getCurrentPrice",
          "outputs": [
            {
              "internalType": "uint256",
              "name": "",
              "type": "uint256"
            }
          ],
          "stateMutability": "view",
          "type": "function"
        },
        {
          "inputs": [],
          "name": "getEscrowedAmount",
          "outputs": [
            {
              "internalType": "uint256",
              "name": "",
              "type": "uint256"
            }
          ],
          "stateMutability": "view",
          "type": "function"
        },
        {
          "inputs": [],
          "name": "getMinimumPurchase",
          "outputs": [
            {
              "internalType": "uint256",
              "name": "",
              "type": "uint256"
            }
          ],
          "stateMutability": "view",
          "type": "function"
        },
        {
          "inputs": [],
          "name": "getPaymentTokenBalance",
          "outputs": [
            {
              "internalType": "uint256",
              "name": "",
              "type": "uint256"
            }
          ],
          "stateMutability": "view",
          "type": "function"
        },
        {
          "inputs": [],
          "name": "getSaleTokenBalance",
          "outputs": [
            {
              "internalType": "uint256",
              "name": "",
              "type": "uint256"
            }
          ],
          "stateMutability": "view",
          "type": "function"
        },
        {
          "inputs": [
            {
              "internalType": "address",
              "name": "user",
              "type": "address"
            }
          ],
          "name": "getUserOrderIndices",
          "outputs": [
            {
              "internalType": "uint256[]",
              "name": "",
              "type": "uint256[]"
            }
          ],
          "stateMutability": "view",
          "type": "function"
        },
        {
          "inputs": [],
          "name": "hasSufficientSaleTokens",
          "outputs": [
            {
              "internalType": "bool",
              "name": "",
              "type": "bool"
            }
          ],
          "stateMutability": "view",
          "type": "function"
        },
        {
          "inputs": [],
          "name": "isDeployedToUniswap",
          "outputs": [
            {
              "internalType": "bool",
              "name": "",
              "type": "bool"
            }
          ],
          "stateMutability": "view",
          "type": "function"
        },
        {
          "inputs": [],
          "name": "lockLPTokenWallet",
          "outputs": [
            {
              "internalType": "address",
              "name": "",
              "type": "address"
            }
          ],
          "stateMutability": "view",
          "type": "function"
        },
        {
          "inputs": [],
          "name": "orderCounter",
          "outputs": [
            {
              "internalType": "uint256",
              "name": "",
              "type": "uint256"
            }
          ],
          "stateMutability": "view",
          "type": "function"
        },
        {
          "inputs": [],
          "name": "paymentToken",
          "outputs": [
            {
              "internalType": "contract IERC20Metadata",
              "name": "",
              "type": "address"
            }
          ],
          "stateMutability": "view",
          "type": "function"
        },
        {
          "inputs": [
            {
              "internalType": "uint256",
              "name": "",
              "type": "uint256"
            }
          ],
          "name": "purchases",
          "outputs": [
            {
              "internalType": "uint256",
              "name": "paymentAmount",
              "type": "uint256"
            },
            {
              "internalType": "uint256",
              "name": "contributionAmount",
              "type": "uint256"
            },
            {
              "internalType": "uint256",
              "name": "tokenAmount",
              "type": "uint256"
            },
            {
              "internalType": "address",
              "name": "purchaser",
              "type": "address"
            },
            {
              "internalType": "bool",
              "name": "isRefunded",
              "type": "bool"
            },
            {
              "internalType": "bool",
              "name": "isRedeemed",
              "type": "bool"
            },
            {
              "internalType": "uint256",
              "name": "purchaseBlock",
              "type": "uint256"
            }
          ],
          "stateMutability": "view",
          "type": "function"
        },
        {
          "inputs": [
            {
              "internalType": "address",
              "name": "tokenAddress",
              "type": "address"
            },
            {
              "internalType": "uint256",
              "name": "amount",
              "type": "uint256"
            }
          ],
          "name": "recoverStuckTokens",
          "outputs": [],
          "stateMutability": "nonpayable",
          "type": "function"
        },
        {
          "inputs": [
            {
              "internalType": "uint256",
              "name": "orderIndex",
              "type": "uint256"
            }
          ],
          "name": "redeem",
          "outputs": [],
          "stateMutability": "nonpayable",
          "type": "function"
        },
        {
          "inputs": [
            {
              "internalType": "uint256",
              "name": "orderIndex",
              "type": "uint256"
            }
          ],
          "name": "refund",
          "outputs": [],
          "stateMutability": "nonpayable",
          "type": "function"
        },
        {
          "inputs": [],
          "name": "richInfoUrl",
          "outputs": [
            {
              "internalType": "string",
              "name": "",
              "type": "string"
            }
          ],
          "stateMutability": "view",
          "type": "function"
        },
        {
          "inputs": [],
          "name": "saleToken",
          "outputs": [
            {
              "internalType": "contract IERC20Metadata",
              "name": "",
              "type": "address"
            }
          ],
          "stateMutability": "view",
          "type": "function"
        },
        {
          "inputs": [],
          "name": "startPrice",
          "outputs": [
            {
              "internalType": "uint256",
              "name": "",
              "type": "uint256"
            }
          ],
          "stateMutability": "view",
          "type": "function"
        },
        {
          "inputs": [],
          "name": "targetLiquidity",
          "outputs": [
            {
              "internalType": "uint256",
              "name": "",
              "type": "uint256"
            }
          ],
          "stateMutability": "view",
          "type": "function"
        },
        {
          "inputs": [],
          "name": "targetReached",
          "outputs": [
            {
              "internalType": "bool",
              "name": "",
              "type": "bool"
            }
          ],
          "stateMutability": "view",
          "type": "function"
        },
        {
          "inputs": [],
          "name": "title",
          "outputs": [
            {
              "internalType": "string",
              "name": "",
              "type": "string"
            }
          ],
          "stateMutability": "view",
          "type": "function"
        },
        {
          "inputs": [],
          "name": "totalActiveContributions",
          "outputs": [
            {
              "internalType": "uint256",
              "name": "",
              "type": "uint256"
            }
          ],
          "stateMutability": "view",
          "type": "function"
        },
        {
          "inputs": [],
          "name": "totalPaymentsIn",
          "outputs": [
            {
              "internalType": "uint256",
              "name": "",
              "type": "uint256"
            }
          ],
          "stateMutability": "view",
          "type": "function"
        },
        {
          "inputs": [],
          "name": "totalTokensAllocated",
          "outputs": [
            {
              "internalType": "uint256",
              "name": "",
              "type": "uint256"
            }
          ],
          "stateMutability": "view",
          "type": "function"
        },
        {
          "inputs": [],
          "name": "uniswapFactory",
          "outputs": [
            {
              "internalType": "contract IUniswapV2Factory",
              "name": "",
              "type": "address"
            }
          ],
          "stateMutability": "view",
          "type": "function"
        },
        {
          "inputs": [],
          "name": "uniswapPool",
          "outputs": [
            {
              "internalType": "address",
              "name": "",
              "type": "address"
            }
          ],
          "stateMutability": "view",
          "type": "function"
        },
        {
          "inputs": [],
          "name": "uniswapRouter",
          "outputs": [
            {
              "internalType": "contract IUniswapV2Router02",
              "name": "",
              "type": "address"
            }
          ],
          "stateMutability": "view",
          "type": "function"
        },
        {
          "inputs": [],
          "name": "upfrontRakeBPS",
          "outputs": [
            {
              "internalType": "uint256",
              "name": "",
              "type": "uint256"
            }
          ],
          "stateMutability": "view",
          "type": "function"
        },
        {
          "inputs": [
            {
              "internalType": "address",
              "name": "",
              "type": "address"
            },
            {
              "internalType": "uint256",
              "name": "",
              "type": "uint256"
            }
          ],
          "name": "userOrderIndices",
          "outputs": [
            {
              "internalType": "uint256",
              "name": "",
              "type": "uint256"
            }
          ],
          "stateMutability": "view",
          "type": "function"
        }
      ],
      "evm": {
        "bytecode": {
          "linkReferences": {},
          "object": "61022060405234620009c5576200335880380380916200002282610220620009ca565b61022039610220016101a0610220820312620009c557610220516001600160401b038111620009c557816200005b9161022001620009ee565b6102405190916001600160401b038211620009c5576200007f9161022001620009ee565b6200008c61026062000a64565b916200009a61028062000a64565b92620000a86102a062000a64565b90620000b66102c062000a64565b6102e05161030051610320516103405161036051969095919492939290620000e061038062000a64565b99620000ee6103a062000a64565b99600160005580511562000990578515158062000986575b806200097c575b1562000946578715620009015760c88910620008b057898901808a116200089a57611b581062000855576001600160a01b038c161562000810576001600160a01b038516151580620007fd575b15620007b8576001600160a01b03858116908e161462000773576001600160a01b03831615158062000760575b156200071b578051906001600160401b038211620006135760075490600182811c9216801562000710575b6020831014620005f25781601f849311620006af575b50602090601f8311600114620006355760009262000629575b50508160011b916000199060031b1c1916176007555b8051906001600160401b038211620006135760085490600182811c9216801562000608575b6020831014620005f25781601f84931162000591575b50602090601f831160011462000517576000926200050b575b50508160011b916000199060031b1c1916176008555b6001600160a01b0392831660808190528b841660a05290831660c052911660e05260405163313ce56760e01b8082529091602090839060049082905afa8015620004dd57602092600091620004e9575b506101a05260405190815298899060049082906001600160a01b03165afa978815620004dd57600098620004a5575b506101c097885261020095865261010052610120526101405261016052610180526101e091825260405191612883938462000a9585396080518481816101fd015281816103480152818161045b01528181610d810152818161180d01526123f2015260a05184818161074d015281816114b1015281816115c0015281816118590152611eea015260c0518481816112d901526118ae015260e0518481816112040152611a8501526101005184818161029d015281816122ba01528181612635015261275e0152610120518481816110d80152818161199e015281816122e00152818161265c0152818161278401526127ac01526101405184818161066201528181611171015281816111cc015281816122810152818161258d015261272a0152610160518481816106b101528181611393015281816122100152818161253801526126a70152610180518481816106e2015281816111320152818161223b0152818161256501526126d401526101a05184818161195201528181612322015261261001525183818161197d0152818161234501526125e401525182818161084c01528181610d3f015281816117000152611b880152518181816117440152611a1c0152f35b620004cd91985060203d602011620004d5575b620004c48183620009ca565b81019062000a79565b9638620002e0565b503d620004b8565b6040513d6000823e3d90fd5b620005049150833d8511620004d557620004c48183620009ca565b38620002b1565b0151905038806200024b565b60086000908152600080516020620033388339815191529350601f198516905b8181106200057857509084600195949392106200055e575b505050811b0160085562000261565b015160001960f88460031b161c191690553880806200054f565b9293602060018192878601518155019501930162000537565b600860005290915060008051602062003338833981519152601f840160051c810160208510620005ea575b90849392915b601f830160051c82018110620005da57505062000232565b60008155859450600101620005c2565b5080620005bc565b634e487b7160e01b600052602260045260246000fd5b91607f16916200021c565b634e487b7160e01b600052604160045260246000fd5b015190503880620001e1565b60076000908152600080516020620033188339815191529350601f198516905b8181106200069657509084600195949392106200067c575b505050811b01600755620001f7565b015160001960f88460031b161c191690553880806200066d565b9293602060018192878601518155019501930162000655565b600760005290915060008051602062003318833981519152601f840160051c81016020851062000708575b90849392915b601f830160051c82018110620006f8575050620001c8565b60008155859450600101620006e0565b5080620006da565b91607f1691620001b2565b60405162461bcd60e51b815260206004820152601960248201527f496e76616c696420556e697377617020616464726573736573000000000000006044820152606490fd5b506001600160a01b038416151562000187565b60405162461bcd60e51b815260206004820152601860248201527f546f6b656e73206d75737420626520646966666572656e7400000000000000006044820152606490fd5b60405162461bcd60e51b815260206004820152601760248201527f496e76616c696420746f6b656e206164647265737365730000000000000000006044820152606490fd5b506001600160a01b038d1615156200015a565b60405162461bcd60e51b815260206004820152601760248201527f496e76616c696420666f756e646572732077616c6c65740000000000000000006044820152606490fd5b60405162461bcd60e51b815260206004820152601a60248201527f436f6d62696e65642072616b65203730252065786365656465640000000000006044820152606490fd5b634e487b7160e01b600052601160045260246000fd5b60405162461bcd60e51b8152602060048201526024808201527f557066726f6e742072616b65206d757374206265203e3d204f747465725061646044820152632066656560e01b6064820152608490fd5b60405162461bcd60e51b815260206004820152601660248201527f496e76616c6964207461726765742066756e64696e67000000000000000000006044820152606490fd5b60405162461bcd60e51b815260206004820152600e60248201526d496e76616c69642070726963657360901b6044820152606490fd5b508587116200010d565b5086151562000106565b60405162461bcd60e51b815260206004820152600d60248201526c496e76616c6964207469746c6560981b6044820152606490fd5b600080fd5b601f909101601f19168101906001600160401b038211908210176200061357604052565b919080601f84011215620009c55782516001600160401b03811162000613576020906040519262000a2983601f19601f8501160185620009ca565b818452828287010111620009c55760005b81811062000a5057508260009394955001015290565b858101830151848201840152820162000a3a565b51906001600160a01b0382168203620009c557565b90816020910312620009c5575160ff81168103620009c5579056fe608060408181526004908136101561001657600080fd5b600092833560e01c9081630e02292314611f2b575080630f8c279814611ebd57806310d0ffdd14611e9d57806312eff12c1461179957806316c049481461177357806316c94b381461172f5780631bfaf155146116eb57806325f97fb9146116c7578063278ecde1146114e05780633013ce291461149c5780633bde5ba8146114755780634a79d50c146113b6578063560b842c1461137b5780635a59c551146113255780635f655ea714611308578063735de9f7146112c45780638392fe31146112505780638a19ecef146112335780638bdb2afa146111ef57806392258ec8146111b45780639513a0fd14611195578063af5b065a14611155578063b704a0c41461111a578063b789bf52146110fb578063b868723e146110c0578063bdd3d82514611097578063bef0886014610fe7578063c07f773a14610fc9578063c596f3fe14610d17578063c7c8b43714610c14578063d96a094a14610628578063db006a7514610396578063de7e331014610377578063e985e36714610333578063eb91d37e1461030f578063edafc9af146102e0578063ef5ee995146102c4578063f1a9af89146102855763f6a55a29146101d157600080fd5b3461026f578260031936011261026f5780516370a0823160e01b815230928101929092526020826024817f00000000000000000000000000000000000000000000000000000000000000006001600160a01b03165afa91821561027b57839261023f575b6020838351908152f35b9091506020813d602011610273575b8161025b6020938361208f565b8101031261026f5760209250519038610235565b8280fd5b3d915061024e565b81513d85823e3d90fd5b8382346102c057816003193601126102c057602090517f00000000000000000000000000000000000000000000000000000000000000008152f35b5080fd5b8382346102c057816003193601126102c0576020905160c88152f35b8382346102c057816003193601126102c05760209051736c83e86e05697c995d718c1cfa3f9045a38c7cd48152f35b8382346102c057816003193601126102c05760209061032c612725565b9051908152f35b8382346102c057816003193601126102c057517f00000000000000000000000000000000000000000000000000000000000000006001600160a01b03168152602090f35b8382346102c057816003193601126102c0576020906006549051908152f35b503461026f57602080600319360112610624578235926103b461282a565b60035460ff8160081c16156105e95760ff16156105a857838552600982528285206003810180549092916001600160a01b0391906103f583831633146124b4565b60ff8260a01c166105705760029061041360ff8460a81c16156124f4565b019384549182156105375760ff60a81b1916600160a81b179055855163a9059cbb60e01b815233848201908152602081019290925291859183919082908b90829060400103927f0000000000000000000000000000000000000000000000000000000000000000165af190811561052d578791610500575b50156104c55750907fd171fb179b26c49e23fe46eddd44d3048a1ad277b62144ac0725fbcf1dbf6d52915492519283523392a36001815580f35b835162461bcd60e51b81529081018390526015602482015274151bdad95b881d1c985b9cd9995c8819985a5b1959605a1b6044820152606490fd5b6105209150843d8611610526575b610518818361208f565b8101906123bf565b3861048b565b503d61050e565b85513d89823e3d90fd5b875162461bcd60e51b815280860188905260136024820152724e6f20746f6b656e7320746f2072656465656d60681b6044820152606490fd5b865162461bcd60e51b8152808501879052601260248201527113dc99195c881dd85cc81c99599d5b99195960721b6044820152606490fd5b915162461bcd60e51b815291820152601760248201527f4e6f7420796574206465706c6f79656420746f204445580000000000000000006044820152606490fd5b50915162461bcd60e51b815291820152601660248201527515185c99d95d081b9bdd081c995858da1959081e595d60521b6044820152606490fd5b8380fd5b50903461026f576020806003193601126106245781359161064761282a565b60ff60035461065882821615612477565b60081c16610bda577f000000000000000000000000000000000000000000000000000000000000000093620f424085048410610ba05760c8840284810460c81485151715610b8d57612710809104926106dc84836106d67f00000000000000000000000000000000000000000000000000000000000000008a61214b565b0461217e565b916107077f00000000000000000000000000000000000000000000000000000000000000008861214b565b04936107208561071b8561071b858c61217e565b61217e565b946107388961073188600554612128565b111561218b565b610741886121d9565b9360018060a01b0392837f000000000000000000000000000000000000000000000000000000000000000016908751936323b872dd60e01b855233878601528d60249530878201528d60448201528c8160648185895af1918215610b825791610b65575b5015610b235788518c815260208101839052604081018590526060810191909152608081018a905233907fbefb6e85b11f40ee4d9e3e8bb0bedbc3d1eee123b1328c0ea0a4b842cbfff7499060a090a28c885163a9059cbb60e01b92838252736c83e86e05697c995d718c1cfa3f9045a38c7cd489830152868201528b8160448185885af1918215610b185791610afb575b5015610ac35787519081526001600160a01b037f0000000000000000000000000000000000000000000000000000000000000000168682019081526020810193909352918991839182908f90829060400103925af1908115610ab9578b91610a9c575b5015610a5b576002549660001992838914610a49579089858a8a8f8b90600a97600185016002558251966108cd8861205d565b87528787019384528287018d81526060880194338652608089019484865260a08a019480865260c08b0198438a52815260098c5220985189555160018901555160028801556003870193511683549260ff60a01b9051151560a01b169160ff60a81b9051151560a81b169269ffffffffffffffffffff60b01b16171717905551910155338c5252848a2080549168010000000000000000831015610a385750816109a19160017fb176b33ad40225c8f67dc6ef0cba96c0c88f67afd36396e2198a3f48a44fc7a098979695940181556120fa565b819291549060031b9189831b921b19161790556109bf828254612128565b9055610a136109d085600554612128565b968793846005556109e382600654612128565b6006555193849333974293869192608093969594919660a084019784526020840152604083015260608201520152565b0390a31015610a24575b6001815580f35b61010061ff00196003541617600355610a1d565b634e487b7160e01b8c52604185528bfd5b634e487b7160e01b8c5260118552828cfd5b8260176064928988519362461bcd60e51b85528401528201527f557066726f6e74207472616e73666572206661696c65640000000000000000006044820152fd5b610ab39150883d8a1161052657610518818361208f565b3861089a565b86513d8d823e3d90fd5b875162461bcd60e51b81528087018b905260138186015272119959481d1c985b9cd9995c8819985a5b1959606a1b6044820152606490fd5b610b1291508b3d8d1161052657610518818361208f565b38610837565b8a51903d90823e3d90fd5b885162461bcd60e51b81528088018c90526017818701527f5061796d656e74207472616e73666572206661696c65640000000000000000006044820152606490fd5b610b7c91508c8d3d1061052657610518818361208f565b386107a5565b8b51903d90823e3d90fd5b634e487b7160e01b875260118352602487fd5b91606492519162461bcd60e51b8352820152601660248201527542656c6f77206d696e696d756d20707572636861736560501b6044820152fd5b60649184519162461bcd60e51b8352820152601660248201527515185c99d95d08185b1c9958591e481c995858da195960521b6044820152fd5b503461026f578260031936011261026f5780519183600854906001908260011c92600181168015610d0d575b6020958686108214610cfa5750848852908115610cd85750600114610c7f575b610c7b8686610c71828b038361208f565b51918291826120b1565b0390f35b929550600883527ff3f7a9fe364faab93b216da50a3214154f22a0a2b415b23a84c8169e8b636ee35b828410610cc55750505082610c7b94610c71928201019438610c60565b8054868501880152928601928101610ca8565b60ff191687860152505050151560051b8301019250610c7182610c7b38610c60565b634e487b7160e01b845260229052602483fd5b93607f1693610c40565b503461026f578060031936011261026f57610d30612042565b6024918235610d3d61282a565b7f0000000000000000000000000000000000000000000000000000000000000000926001600160a01b03908185163303610f875760ff6003541615610f45578116907f0000000000000000000000000000000000000000000000000000000000000000168114610f035782516370a0823160e01b815230878201526020949085818881865afa908115610ef9579084918a91610ec4575b5010610e8b57835163a9059cbb60e01b81526001600160a01b039091168782019081526020810193909352918491839182908a90829060400103925af1908115610e81578691610e64575b5015610e2d57846001815580f35b5162461bcd60e51b81529283015260159082015274151bdad95b881c9958dbdd995c9e4819985a5b1959605a1b6044820152606490fd5b610e7b9150833d851161052657610518818361208f565b38610e1f565b82513d88823e3d90fd5b835162461bcd60e51b815280880186905260148188015273496e73756666696369656e742062616c616e636560601b6044820152606490fd5b809250878092503d8311610ef2575b610edd818361208f565b81010312610eee5783905138610dd4565b8880fd5b503d610ed3565b85513d8b823e3d90fd5b825162461bcd60e51b81526020818801526019818701527f43616e6e6f74207265636f7665722073616c6520746f6b656e000000000000006044820152606490fd5b835162461bcd60e51b8152602081890152601b818801527f4e6f7420796574206465706c6f79656420746f20556e697377617000000000006044820152606490fd5b835162461bcd60e51b81526020818901526019818801527f4f6e6c7920666f756e646572732063616e207265636f766572000000000000006044820152606490fd5b50903461026f578260031936011261026f5760209250549051908152f35b50823461109457602090816003193601126110945782906001600160a01b0361100e612042565b168152600a8352818120908251808584549182815201908194845286842090845b818110611080575050508161104591038261208f565b83519485948186019282875251809352850193925b82811061106957505050500390f35b83518552869550938101939281019260010161105a565b82548452928801926001928301920161102f565b80fd5b8382346102c057816003193601126102c05760015490516001600160a01b039091168152602090f35b8382346102c057816003193601126102c057602090517f00000000000000000000000000000000000000000000000000000000000000008152f35b8382346102c057816003193601126102c0576020906002549051908152f35b8382346102c057816003193601126102c057602090517f00000000000000000000000000000000000000000000000000000000000000008152f35b8382346102c057816003193601126102c05760209051620f42407f0000000000000000000000000000000000000000000000000000000000000000048152f35b8382346102c057816003193601126102c0576020906005549051908152f35b8382346102c057816003193601126102c057602090517f00000000000000000000000000000000000000000000000000000000000000008152f35b8382346102c057816003193601126102c057517f00000000000000000000000000000000000000000000000000000000000000006001600160a01b03168152602090f35b8382346102c057816003193601126102c05760209061032c6126a2565b503461026f57602036600319011261026f5760ff8160e094843581526009602052208054936001820154936002830154916003840154930154948151968752602087015285015260018060a01b0381166060850152818160a01c161515608085015260a81c16151560a083015260c0820152f35b8382346102c057816003193601126102c057517f00000000000000000000000000000000000000000000000000000000000000006001600160a01b03168152602090f35b8382346102c057816003193601126102c05760209061032c612533565b8382346102c057806003193601126102c05761133f612042565b6001600160a01b03168252600a60205280822080546024359390841015611094575060209261136d916120fa565b91905490519160031b1c8152f35b8382346102c057816003193601126102c057602090517f00000000000000000000000000000000000000000000000000000000000000008152f35b503461026f578260031936011261026f5780519183600754906001908260011c9260018116801561146b575b6020958686108214610cfa5750848852908115610cd8575060011461141257610c7b8686610c71828b038361208f565b929550600783527fa66cc928b5edb82af9bd49922954155ab7b0942694bea4ce44661d9a8736c6885b8284106114585750505082610c7b94610c71928201019438610c60565b805486850188015292860192810161143b565b93607f16936113e2565b8382346102c057816003193601126102c05760209060ff60035460081c1690519015158152f35b8382346102c057816003193601126102c057517f00000000000000000000000000000000000000000000000000000000000000006001600160a01b03168152602090f35b503461026f5760209081600319360112610624578235926114ff61282a565b61150e60ff6003541615612477565b838552600983528185206003810180546001600160a01b039392919061153785821633146124b4565b60ff8160a01c16611691576001899388938361155c60ff6115bc9660a81c16156124f4565b60ff60a01b191660a084901b1790556002810154865461157c919061217e565b8655019461158d865460055461217e565b6005558554875163a9059cbb60e01b815233878201908152602081019290925294859384928391604090910190565b03927f0000000000000000000000000000000000000000000000000000000000000000165af190811561168757879161166a575b50156116375750549160055490825193845283015242908201527f40afc61aabce83a502901d9dc66b15d1ee92bfcc1f4f56923b8434dcd041e19f60603392a36001815580f35b825162461bcd60e51b8152908101849052600d60248201526c1499599d5b990819985a5b1959609a1b6044820152606490fd5b6116819150853d871161052657610518818361208f565b386115f0565b84513d89823e3d90fd5b855162461bcd60e51b8152808501889052601060248201526f105b1c9958591e481c99599d5b99195960821b6044820152606490fd5b8382346102c057816003193601126102c05760209060ff6003541690519015158152f35b8382346102c057816003193601126102c057517f00000000000000000000000000000000000000000000000000000000000000006001600160a01b03168152602090f35b8382346102c057816003193601126102c057517f00000000000000000000000000000000000000000000000000000000000000006001600160a01b03168152602090f35b8382346102c057816003193601126102c0576020906117906123d7565b90519015158152f35b503461026f578260031936011261026f5760035460ff8160081c1615611e655760ff16611e2f576117c86126a2565b92600554936117d7818661217e565b916117e86117e36123d7565b612373565b83516370a0823160e01b80825230878301526020976001600160a01b039491926024927f00000000000000000000000000000000000000000000000000000000000000008716929091908b828681875afa918215611c71578792611dfc575b506118568b5480931015612373565b877f000000000000000000000000000000000000000000000000000000000000000016958a51908152308c8201528c8187818a5afa908115611d7f578891611dcb575b5010611d8957885163095ea7b360e01b8082527f000000000000000000000000000000000000000000000000000000000000000089166001600160a01b0381168d84019081526020810194909452929091908d908290819060400103818b895af1908115611d7f578891611d62575b5015611d295789519081526001600160a01b038216818c01908152602081018a90528c908290819060400103818a8a5af1908115611c71578791611d0c575b5015611cd1576119d37f00000000000000000000000000000000000000000000000000000000000000006119ce6119c86119c2837f00000000000000000000000000000000000000000000000000000000000000007f00000000000000000000000000000000000000000000000000000000000000006127e2565b926121c8565b8b61214b565b61215e565b976078420190814211611cbf578b886060948794610104948f519e8f97889662e8e33760e81b88528701528c8c870152806044870152816064870152608486015260a48501528c7f00000000000000000000000000000000000000000000000000000000000000001660c485015260e48401525af1968715611cb5578597611c7b575b5080611b7a575b506003805460ff19166001179055865163e6a4390560e01b81529788015286015285856044817f000000000000000000000000000000000000000000000000000000000000000086165afa948515611b6e578195611b12575b5050600180546001600160a01b031916918516918217905582516001600160a01b0390941684526020840191909152917f4db0962b68e799b508143f50800f1504d656cbd0fe6395510c0dca385bfd840790604090a151908152f35b909194508581813d8311611b67575b611b2b818361208f565b810103126102c057519084821682036110945750927f4db0962b68e799b508143f50800f1504d656cbd0fe6395510c0dca385bfd840738611ab6565b503d611b21565b508351903d90823e3d90fd5b875163a9059cbb60e01b81527f00000000000000000000000000000000000000000000000000000000000000006001600160a01b0381168b8301908152602081018490529091908c908290819060400103818a8a5af1908115611c71578791611c54575b5015611c1a577fefc7f1f15becfaec7a3c17eec78be3fa7adb45698f26fcfd25efe1754c24233191878a928351928352168c820152a138611a5d565b885162461bcd60e51b8152808b018c905260158186015274115cd8dc9bddc81c995b19585cd94819985a5b1959605a1b6044820152606490fd5b611c6b91508c8d3d1061052657610518818361208f565b38611bde565b8a513d89823e3d90fd5b9096506060813d606011611cad575b81611c976060938361208f565b81010312611ca9578701519538611a56565b8480fd5b3d9150611c8a565b88513d87823e3d90fd5b634e487b7160e01b885260118c528588fd5b885162461bcd60e51b8152808b018c90526016818601527514185e5b595b9d08185c1c1c9bdd994819985a5b195960521b6044820152606490fd5b611d2391508c8d3d1061052657610518818361208f565b38611947565b895162461bcd60e51b8152808c018d905260148187015273151bdad95b88185c1c1c9bdd994819985a5b195960621b6044820152606490fd5b611d7991508d803d1061052657610518818361208f565b38611908565b8b513d8a823e3d90fd5b885162461bcd60e51b8152808b018c9052601b818601527f496e73756666696369656e74207061796d656e7420746f6b656e7300000000006044820152606490fd5b90508c81813d8311611df5575b611de2818361208f565b81010312611df1575138611899565b8780fd5b503d611dd8565b9091508b81813d8311611e28575b611e14818361208f565b81010312611e2457519038611847565b8680fd5b503d611e0a565b906020606492519162461bcd60e51b8352820152601060248201526f105b1c9958591e4819195c1b1bde595960821b6044820152fd5b815162461bcd60e51b8152602081850152601260248201527115185c99d95d081b9bdd081c995858da195960721b6044820152606490fd5b508234611094576020366003190112611094575061032c602092356121d9565b503461026f578260031936011261026f5780516370a0823160e01b815230928101929092526020826024817f00000000000000000000000000000000000000000000000000000000000000006001600160a01b03165afa91821561027b57839261023f576020838351908152f35b91849150346102c0576020938460031936011261026f57611f4a612042565b6001600160a01b039081168452600a8652828420805480875290855286852091929185918790818a0190845b8b82821061202c57505050611f8d9250038761208f565b805b865181101561202357878160051b88010151825260098852848220855190611fb68261205d565b8054825260018101548a830152600281015491828882015260c086600384015493898516606085015260ff60a0908087831c1615968715608088015260a81c16151590850152015491015261200f575b50600101611f8f565b61201c9060019297612128565b9590612006565b87868651908152f35b855484526001958601958c955093019201611f76565b600435906001600160a01b038216820361205857565b600080fd5b60e0810190811067ffffffffffffffff82111761207957604052565b634e487b7160e01b600052604160045260246000fd5b90601f8019910116810190811067ffffffffffffffff82111761207957604052565b6020808252825181830181905290939260005b8281106120e657505060409293506000838284010152601f8019910116010190565b8181018601518482016040015285016120c4565b80548210156121125760005260206000200190600090565b634e487b7160e01b600052603260045260246000fd5b9190820180921161213557565b634e487b7160e01b600052601160045260246000fd5b8181029291811591840414171561213557565b8115612168570490565b634e487b7160e01b600052601260045260246000fd5b9190820391821161213557565b1561219257565b60405162461bcd60e51b815260206004820152600e60248201526d115e18d959591cc81d185c99d95d60921b6044820152606490fd5b60ff16604d811161213557600a0a90565b60c881029080820460c81481151715612135576119ce6123166122686123709461071b6127108092049161071b61223584836106d67f00000000000000000000000000000000000000000000000000000000000000008c61214b565b916122607f00000000000000000000000000000000000000000000000000000000000000008a61214b565b04918861217e565b6123106005549161231061227c8285612128565b6122a97f00000000000000000000000000000000000000000000000000000000000000008092111561218b565b6119ce6122b4612725565b9561230a7f000000000000000000000000000000000000000000000000000000000000000095612304877f000000000000000000000000000000000000000000000000000000000000000061217e565b92612128565b9061214b565b90612128565b60011c9161230a61236a7f000000000000000000000000000000000000000000000000000000000000000080937f0000000000000000000000000000000000000000000000000000000000000000906127e2565b916121c8565b90565b1561237a57565b60405162461bcd60e51b815260206004820152601860248201527f496e73756666696369656e742073616c6520746f6b656e7300000000000000006044820152606490fd5b90816020910312612058575180151581036120585790565b6040516370a0823160e01b81523060048201526020816024817f00000000000000000000000000000000000000000000000000000000000000006001600160a01b03165afa90811561246b57600091612439575b50612434612533565b111590565b90506020813d602011612463575b816124546020938361208f565b8101031261205857513861242b565b3d9150612447565b6040513d6000823e3d90fd5b1561247e57565b60405162461bcd60e51b815260206004820152600e60248201526d14d85b194818dbdb5c1b195d195960921b6044820152606490fd5b156124bb57565b60405162461bcd60e51b81526020600482015260116024820152702737ba103a343290383ab931b430b9b2b960791b6044820152606490fd5b156124fb57565b60405162461bcd60e51b815260206004820152601060248201526f105b1c9958591e481c995919595b595960821b6044820152606490fd5b6127107f000000000000000000000000000000000000000000000000000000000000000081038181116121355761258b7f0000000000000000000000000000000000000000000000000000000000000000809261217e565b7f000000000000000000000000000000000000000000000000000000000000000092808402918483048214851517156121355761265961230a61236a612370976125db6119ce956123109861215e565b9561269b6126947f0000000000000000000000000000000000000000000000000000000000000000986119ce6126876126808c7f00000000000000000000000000000000000000000000000000000000000000009b8c80927f00000000000000000000000000000000000000000000000000000000000000006127e2565b9d7f00000000000000000000000000000000000000000000000000000000000000006127e2565b809c612128565b60011c9161230a8a6121c8565b998361214b565b049061217e565b6127107f00000000000000000000000000000000000000000000000000000000000000008103818111612135576126fa7f0000000000000000000000000000000000000000000000000000000000000000809261217e565b9060055483810290808204851490151715612135576127219261271c9161215e565b61214b565b0490565b6005547f000000000000000000000000000000000000000000000000000000000000000090818110156127a857612310612370926119ce7f00000000000000000000000000000000000000000000000000000000000000009361271c857f000000000000000000000000000000000000000000000000000000000000000061217e565b50507f000000000000000000000000000000000000000000000000000000000000000090565b9060ff8091169116039060ff821161213557565b9060ff831660ff82168181146128225710612812576128076123709361280c926127ce565b6121c8565b9061215e565b61280761230a91612370946127ce565b505050905090565b60026000541461283b576002600055565b604051633ee5aeb560e01b8152600490fdfea2646970667358221220cdd711bd4804e42645fd59d848b1faecb2fff386768f54064f2b9b948cdf0c3d64736f6c63430008180033a66cc928b5edb82af9bd49922954155ab7b0942694bea4ce44661d9a8736c688f3f7a9fe364faab93b216da50a3214154f22a0a2b415b23a84c8169e8b636ee3",
          "opcodes": "PUSH2 0x220 PUSH1 0x40 MSTORE CALLVALUE PUSH3 0x9C5 JUMPI PUSH3 0x3358 DUP1 CODESIZE SUB DUP1 SWAP2 PUSH3 0x22 DUP3 PUSH2 0x220 PUSH3 0x9CA JUMP JUMPDEST PUSH2 0x220 CODECOPY PUSH2 0x220 ADD PUSH2 0x1A0 PUSH2 0x220 DUP3 SUB SLT PUSH3 0x9C5 JUMPI PUSH2 0x220 MLOAD PUSH1 0x1 PUSH1 0x1 PUSH1 0x40 SHL SUB DUP2 GT PUSH3 0x9C5 JUMPI DUP2 PUSH3 0x5B SWAP2 PUSH2 0x220 ADD PUSH3 0x9EE JUMP JUMPDEST PUSH2 0x240 MLOAD SWAP1 SWAP2 PUSH1 0x1 PUSH1 0x1 PUSH1 0x40 SHL SUB DUP3 GT PUSH3 0x9C5 JUMPI PUSH3 0x7F SWAP2 PUSH2 0x220 ADD PUSH3 0x9EE JUMP JUMPDEST PUSH3 0x8C PUSH2 0x260 PUSH3 0xA64 JUMP JUMPDEST SWAP2 PUSH3 0x9A PUSH2 0x280 PUSH3 0xA64 JUMP JUMPDEST SWAP3 PUSH3 0xA8 PUSH2 0x2A0 PUSH3 0xA64 JUMP JUMPDEST SWAP1 PUSH3 0xB6 PUSH2 0x2C0 PUSH3 0xA64 JUMP JUMPDEST PUSH2 0x2E0 MLOAD PUSH2 0x300 MLOAD PUSH2 0x320 MLOAD PUSH2 0x340 MLOAD PUSH2 0x360 MLOAD SWAP7 SWAP1 SWAP6 SWAP2 SWAP5 SWAP3 SWAP4 SWAP3 SWAP1 PUSH3 0xE0 PUSH2 0x380 PUSH3 0xA64 JUMP JUMPDEST SWAP10 PUSH3 0xEE PUSH2 0x3A0 PUSH3 0xA64 JUMP JUMPDEST SWAP10 PUSH1 0x1 PUSH1 0x0 SSTORE DUP1 MLOAD ISZERO PUSH3 0x990 JUMPI DUP6 ISZERO ISZERO DUP1 PUSH3 0x986 JUMPI JUMPDEST DUP1 PUSH3 0x97C JUMPI JUMPDEST ISZERO PUSH3 0x946 JUMPI DUP8 ISZERO PUSH3 0x901 JUMPI PUSH1 0xC8 DUP10 LT PUSH3 0x8B0 JUMPI DUP10 DUP10 ADD DUP1 DUP11 GT PUSH3 0x89A JUMPI PUSH2 0x1B58 LT PUSH3 0x855 JUMPI PUSH1 0x1 PUSH1 0x1 PUSH1 0xA0 SHL SUB DUP13 AND ISZERO PUSH3 0x810 JUMPI PUSH1 0x1 PUSH1 0x1 PUSH1 0xA0 SHL SUB DUP6 AND ISZERO ISZERO DUP1 PUSH3 0x7FD JUMPI JUMPDEST ISZERO PUSH3 0x7B8 JUMPI PUSH1 0x1 PUSH1 0x1 PUSH1 0xA0 SHL SUB DUP6 DUP2 AND SWAP1 DUP15 AND EQ PUSH3 0x773 JUMPI PUSH1 0x1 PUSH1 0x1 PUSH1 0xA0 SHL SUB DUP4 AND ISZERO ISZERO DUP1 PUSH3 0x760 JUMPI JUMPDEST ISZERO PUSH3 0x71B JUMPI DUP1 MLOAD SWAP1 PUSH1 0x1 PUSH1 0x1 PUSH1 0x40 SHL SUB DUP3 GT PUSH3 0x613 JUMPI PUSH1 0x7 SLOAD SWAP1 PUSH1 0x1 DUP3 DUP2 SHR SWAP3 AND DUP1 ISZERO PUSH3 0x710 JUMPI JUMPDEST PUSH1 0x20 DUP4 LT EQ PUSH3 0x5F2 JUMPI DUP2 PUSH1 0x1F DUP5 SWAP4 GT PUSH3 0x6AF JUMPI JUMPDEST POP PUSH1 0x20 SWAP1 PUSH1 0x1F DUP4 GT PUSH1 0x1 EQ PUSH3 0x635 JUMPI PUSH1 0x0 SWAP3 PUSH3 0x629 JUMPI JUMPDEST POP POP DUP2 PUSH1 0x1 SHL SWAP2 PUSH1 0x0 NOT SWAP1 PUSH1 0x3 SHL SHR NOT AND OR PUSH1 0x7 SSTORE JUMPDEST DUP1 MLOAD SWAP1 PUSH1 0x1 PUSH1 0x1 PUSH1 0x40 SHL SUB DUP3 GT PUSH3 0x613 JUMPI PUSH1 0x8 SLOAD SWAP1 PUSH1 0x1 DUP3 DUP2 SHR SWAP3 AND DUP1 ISZERO PUSH3 0x608 JUMPI JUMPDEST PUSH1 0x20 DUP4 LT EQ PUSH3 0x5F2 JUMPI DUP2 PUSH1 0x1F DUP5 SWAP4 GT PUSH3 0x591 JUMPI JUMPDEST POP PUSH1 0x20 SWAP1 PUSH1 0x1F DUP4 GT PUSH1 0x1 EQ PUSH3 0x517 JUMPI PUSH1 0x0 SWAP3 PUSH3 0x50B JUMPI JUMPDEST POP POP DUP2 PUSH1 0x1 SHL SWAP2 PUSH1 0x0 NOT SWAP1 PUSH1 0x3 SHL SHR NOT AND OR PUSH1 0x8 SSTORE JUMPDEST PUSH1 0x1 PUSH1 0x1 PUSH1 0xA0 SHL SUB SWAP3 DUP4 AND PUSH1 0x80 DUP2 SWAP1 MSTORE DUP12 DUP5 AND PUSH1 0xA0 MSTORE SWAP1 DUP4 AND PUSH1 0xC0 MSTORE SWAP2 AND PUSH1 0xE0 MSTORE PUSH1 0x40 MLOAD PUSH4 0x313CE567 PUSH1 0xE0 SHL DUP1 DUP3 MSTORE SWAP1 SWAP2 PUSH1 0x20 SWAP1 DUP4 SWAP1 PUSH1 0x4 SWAP1 DUP3 SWAP1 GAS STATICCALL DUP1 ISZERO PUSH3 0x4DD JUMPI PUSH1 0x20 SWAP3 PUSH1 0x0 SWAP2 PUSH3 0x4E9 JUMPI JUMPDEST POP PUSH2 0x1A0 MSTORE PUSH1 0x40 MLOAD SWAP1 DUP2 MSTORE SWAP9 DUP10 SWAP1 PUSH1 0x4 SWAP1 DUP3 SWAP1 PUSH1 0x1 PUSH1 0x1 PUSH1 0xA0 SHL SUB AND GAS STATICCALL SWAP8 DUP9 ISZERO PUSH3 0x4DD JUMPI PUSH1 0x0 SWAP9 PUSH3 0x4A5 JUMPI JUMPDEST POP PUSH2 0x1C0 SWAP8 DUP9 MSTORE PUSH2 0x200 SWAP6 DUP7 MSTORE PUSH2 0x100 MSTORE PUSH2 0x120 MSTORE PUSH2 0x140 MSTORE PUSH2 0x160 MSTORE PUSH2 0x180 MSTORE PUSH2 0x1E0 SWAP2 DUP3 MSTORE PUSH1 0x40 MLOAD SWAP2 PUSH2 0x2883 SWAP4 DUP5 PUSH3 0xA95 DUP6 CODECOPY PUSH1 0x80 MLOAD DUP5 DUP2 DUP2 PUSH2 0x1FD ADD MSTORE DUP2 DUP2 PUSH2 0x348 ADD MSTORE DUP2 DUP2 PUSH2 0x45B ADD MSTORE DUP2 DUP2 PUSH2 0xD81 ADD MSTORE DUP2 DUP2 PUSH2 0x180D ADD MSTORE PUSH2 0x23F2 ADD MSTORE PUSH1 0xA0 MLOAD DUP5 DUP2 DUP2 PUSH2 0x74D ADD MSTORE DUP2 DUP2 PUSH2 0x14B1 ADD MSTORE DUP2 DUP2 PUSH2 0x15C0 ADD MSTORE DUP2 DUP2 PUSH2 0x1859 ADD MSTORE PUSH2 0x1EEA ADD MSTORE PUSH1 0xC0 MLOAD DUP5 DUP2 DUP2 PUSH2 0x12D9 ADD MSTORE PUSH2 0x18AE ADD MSTORE PUSH1 0xE0 MLOAD DUP5 DUP2 DUP2 PUSH2 0x1204 ADD MSTORE PUSH2 0x1A85 ADD MSTORE PUSH2 0x100 MLOAD DUP5 DUP2 DUP2 PUSH2 0x29D ADD MSTORE DUP2 DUP2 PUSH2 0x22BA ADD MSTORE DUP2 DUP2 PUSH2 0x2635 ADD MSTORE PUSH2 0x275E ADD MSTORE PUSH2 0x120 MLOAD DUP5 DUP2 DUP2 PUSH2 0x10D8 ADD MSTORE DUP2 DUP2 PUSH2 0x199E ADD MSTORE DUP2 DUP2 PUSH2 0x22E0 ADD MSTORE DUP2 DUP2 PUSH2 0x265C ADD MSTORE DUP2 DUP2 PUSH2 0x2784 ADD MSTORE PUSH2 0x27AC ADD MSTORE PUSH2 0x140 MLOAD DUP5 DUP2 DUP2 PUSH2 0x662 ADD MSTORE DUP2 DUP2 PUSH2 0x1171 ADD MSTORE DUP2 DUP2 PUSH2 0x11CC ADD MSTORE DUP2 DUP2 PUSH2 0x2281 ADD MSTORE DUP2 DUP2 PUSH2 0x258D ADD MSTORE PUSH2 0x272A ADD MSTORE PUSH2 0x160 MLOAD DUP5 DUP2 DUP2 PUSH2 0x6B1 ADD MSTORE DUP2 DUP2 PUSH2 0x1393 ADD MSTORE DUP2 DUP2 PUSH2 0x2210 ADD MSTORE DUP2 DUP2 PUSH2 0x2538 ADD MSTORE PUSH2 0x26A7 ADD MSTORE PUSH2 0x180 MLOAD DUP5 DUP2 DUP2 PUSH2 0x6E2 ADD MSTORE DUP2 DUP2 PUSH2 0x1132 ADD MSTORE DUP2 DUP2 PUSH2 0x223B ADD MSTORE DUP2 DUP2 PUSH2 0x2565 ADD MSTORE PUSH2 0x26D4 ADD MSTORE PUSH2 0x1A0 MLOAD DUP5 DUP2 DUP2 PUSH2 0x1952 ADD MSTORE DUP2 DUP2 PUSH2 0x2322 ADD MSTORE PUSH2 0x2610 ADD MSTORE MLOAD DUP4 DUP2 DUP2 PUSH2 0x197D ADD MSTORE DUP2 DUP2 PUSH2 0x2345 ADD MSTORE PUSH2 0x25E4 ADD MSTORE MLOAD DUP3 DUP2 DUP2 PUSH2 0x84C ADD MSTORE DUP2 DUP2 PUSH2 0xD3F ADD MSTORE DUP2 DUP2 PUSH2 0x1700 ADD MSTORE PUSH2 0x1B88 ADD MSTORE MLOAD DUP2 DUP2 DUP2 PUSH2 0x1744 ADD MSTORE PUSH2 0x1A1C ADD MSTORE RETURN JUMPDEST PUSH3 0x4CD SWAP2 SWAP9 POP PUSH1 0x20 RETURNDATASIZE PUSH1 0x20 GT PUSH3 0x4D5 JUMPI JUMPDEST PUSH3 0x4C4 DUP2 DUP4 PUSH3 0x9CA JUMP JUMPDEST DUP2 ADD SWAP1 PUSH3 0xA79 JUMP JUMPDEST SWAP7 CODESIZE PUSH3 0x2E0 JUMP JUMPDEST POP RETURNDATASIZE PUSH3 0x4B8 JUMP JUMPDEST PUSH1 0x40 MLOAD RETURNDATASIZE PUSH1 0x0 DUP3 RETURNDATACOPY RETURNDATASIZE SWAP1 REVERT JUMPDEST PUSH3 0x504 SWAP2 POP DUP4 RETURNDATASIZE DUP6 GT PUSH3 0x4D5 JUMPI PUSH3 0x4C4 DUP2 DUP4 PUSH3 0x9CA JUMP JUMPDEST CODESIZE PUSH3 0x2B1 JUMP JUMPDEST ADD MLOAD SWAP1 POP CODESIZE DUP1 PUSH3 0x24B JUMP JUMPDEST PUSH1 0x8 PUSH1 0x0 SWAP1 DUP2 MSTORE PUSH1 0x0 DUP1 MLOAD PUSH1 0x20 PUSH3 0x3338 DUP4 CODECOPY DUP2 MLOAD SWAP2 MSTORE SWAP4 POP PUSH1 0x1F NOT DUP6 AND SWAP1 JUMPDEST DUP2 DUP2 LT PUSH3 0x578 JUMPI POP SWAP1 DUP5 PUSH1 0x1 SWAP6 SWAP5 SWAP4 SWAP3 LT PUSH3 0x55E JUMPI JUMPDEST POP POP POP DUP2 SHL ADD PUSH1 0x8 SSTORE PUSH3 0x261 JUMP JUMPDEST ADD MLOAD PUSH1 0x0 NOT PUSH1 0xF8 DUP5 PUSH1 0x3 SHL AND SHR NOT AND SWAP1 SSTORE CODESIZE DUP1 DUP1 PUSH3 0x54F JUMP JUMPDEST SWAP3 SWAP4 PUSH1 0x20 PUSH1 0x1 DUP2 SWAP3 DUP8 DUP7 ADD MLOAD DUP2 SSTORE ADD SWAP6 ADD SWAP4 ADD PUSH3 0x537 JUMP JUMPDEST PUSH1 0x8 PUSH1 0x0 MSTORE SWAP1 SWAP2 POP PUSH1 0x0 DUP1 MLOAD PUSH1 0x20 PUSH3 0x3338 DUP4 CODECOPY DUP2 MLOAD SWAP2 MSTORE PUSH1 0x1F DUP5 ADD PUSH1 0x5 SHR DUP2 ADD PUSH1 0x20 DUP6 LT PUSH3 0x5EA JUMPI JUMPDEST SWAP1 DUP5 SWAP4 SWAP3 SWAP2 JUMPDEST PUSH1 0x1F DUP4 ADD PUSH1 0x5 SHR DUP3 ADD DUP2 LT PUSH3 0x5DA JUMPI POP POP PUSH3 0x232 JUMP JUMPDEST PUSH1 0x0 DUP2 SSTORE DUP6 SWAP5 POP PUSH1 0x1 ADD PUSH3 0x5C2 JUMP JUMPDEST POP DUP1 PUSH3 0x5BC JUMP JUMPDEST PUSH4 0x4E487B71 PUSH1 0xE0 SHL PUSH1 0x0 MSTORE PUSH1 0x22 PUSH1 0x4 MSTORE PUSH1 0x24 PUSH1 0x0 REVERT JUMPDEST SWAP2 PUSH1 0x7F AND SWAP2 PUSH3 0x21C JUMP JUMPDEST PUSH4 0x4E487B71 PUSH1 0xE0 SHL PUSH1 0x0 MSTORE PUSH1 0x41 PUSH1 0x4 MSTORE PUSH1 0x24 PUSH1 0x0 REVERT JUMPDEST ADD MLOAD SWAP1 POP CODESIZE DUP1 PUSH3 0x1E1 JUMP JUMPDEST PUSH1 0x7 PUSH1 0x0 SWAP1 DUP2 MSTORE PUSH1 0x0 DUP1 MLOAD PUSH1 0x20 PUSH3 0x3318 DUP4 CODECOPY DUP2 MLOAD SWAP2 MSTORE SWAP4 POP PUSH1 0x1F NOT DUP6 AND SWAP1 JUMPDEST DUP2 DUP2 LT PUSH3 0x696 JUMPI POP SWAP1 DUP5 PUSH1 0x1 SWAP6 SWAP5 SWAP4 SWAP3 LT PUSH3 0x67C JUMPI JUMPDEST POP POP POP DUP2 SHL ADD PUSH1 0x7 SSTORE PUSH3 0x1F7 JUMP JUMPDEST ADD MLOAD PUSH1 0x0 NOT PUSH1 0xF8 DUP5 PUSH1 0x3 SHL AND SHR NOT AND SWAP1 SSTORE CODESIZE DUP1 DUP1 PUSH3 0x66D JUMP JUMPDEST SWAP3 SWAP4 PUSH1 0x20 PUSH1 0x1 DUP2 SWAP3 DUP8 DUP7 ADD MLOAD DUP2 SSTORE ADD SWAP6 ADD SWAP4 ADD PUSH3 0x655 JUMP JUMPDEST PUSH1 0x7 PUSH1 0x0 MSTORE SWAP1 SWAP2 POP PUSH1 0x0 DUP1 MLOAD PUSH1 0x20 PUSH3 0x3318 DUP4 CODECOPY DUP2 MLOAD SWAP2 MSTORE PUSH1 0x1F DUP5 ADD PUSH1 0x5 SHR DUP2 ADD PUSH1 0x20 DUP6 LT PUSH3 0x708 JUMPI JUMPDEST SWAP1 DUP5 SWAP4 SWAP3 SWAP2 JUMPDEST PUSH1 0x1F DUP4 ADD PUSH1 0x5 SHR DUP3 ADD DUP2 LT PUSH3 0x6F8 JUMPI POP POP PUSH3 0x1C8 JUMP JUMPDEST PUSH1 0x0 DUP2 SSTORE DUP6 SWAP5 POP PUSH1 0x1 ADD PUSH3 0x6E0 JUMP JUMPDEST POP DUP1 PUSH3 0x6DA JUMP JUMPDEST SWAP2 PUSH1 0x7F AND SWAP2 PUSH3 0x1B2 JUMP JUMPDEST PUSH1 0x40 MLOAD PUSH3 0x461BCD PUSH1 0xE5 SHL DUP2 MSTORE PUSH1 0x20 PUSH1 0x4 DUP3 ADD MSTORE PUSH1 0x19 PUSH1 0x24 DUP3 ADD MSTORE PUSH32 0x496E76616C696420556E69737761702061646472657373657300000000000000 PUSH1 0x44 DUP3 ADD MSTORE PUSH1 0x64 SWAP1 REVERT JUMPDEST POP PUSH1 0x1 PUSH1 0x1 PUSH1 0xA0 SHL SUB DUP5 AND ISZERO ISZERO PUSH3 0x187 JUMP JUMPDEST PUSH1 0x40 MLOAD PUSH3 0x461BCD PUSH1 0xE5 SHL DUP2 MSTORE PUSH1 0x20 PUSH1 0x4 DUP3 ADD MSTORE PUSH1 0x18 PUSH1 0x24 DUP3 ADD MSTORE PUSH32 0x546F6B656E73206D75737420626520646966666572656E740000000000000000 PUSH1 0x44 DUP3 ADD MSTORE PUSH1 0x64 SWAP1 REVERT JUMPDEST PUSH1 0x40 MLOAD PUSH3 0x461BCD PUSH1 0xE5 SHL DUP2 MSTORE PUSH1 0x20 PUSH1 0x4 DUP3 ADD MSTORE PUSH1 0x17 PUSH1 0x24 DUP3 ADD MSTORE PUSH32 0x496E76616C696420746F6B656E20616464726573736573000000000000000000 PUSH1 0x44 DUP3 ADD MSTORE PUSH1 0x64 SWAP1 REVERT JUMPDEST POP PUSH1 0x1 PUSH1 0x1 PUSH1 0xA0 SHL SUB DUP14 AND ISZERO ISZERO PUSH3 0x15A JUMP JUMPDEST PUSH1 0x40 MLOAD PUSH3 0x461BCD PUSH1 0xE5 SHL DUP2 MSTORE PUSH1 0x20 PUSH1 0x4 DUP3 ADD MSTORE PUSH1 0x17 PUSH1 0x24 DUP3 ADD MSTORE PUSH32 0x496E76616C696420666F756E646572732077616C6C6574000000000000000000 PUSH1 0x44 DUP3 ADD MSTORE PUSH1 0x64 SWAP1 REVERT JUMPDEST PUSH1 0x40 MLOAD PUSH3 0x461BCD PUSH1 0xE5 SHL DUP2 MSTORE PUSH1 0x20 PUSH1 0x4 DUP3 ADD MSTORE PUSH1 0x1A PUSH1 0x24 DUP3 ADD MSTORE PUSH32 0x436F6D62696E65642072616B6520373025206578636565646564000000000000 PUSH1 0x44 DUP3 ADD MSTORE PUSH1 0x64 SWAP1 REVERT JUMPDEST PUSH4 0x4E487B71 PUSH1 0xE0 SHL PUSH1 0x0 MSTORE PUSH1 0x11 PUSH1 0x4 MSTORE PUSH1 0x24 PUSH1 0x0 REVERT JUMPDEST PUSH1 0x40 MLOAD PUSH3 0x461BCD PUSH1 0xE5 SHL DUP2 MSTORE PUSH1 0x20 PUSH1 0x4 DUP3 ADD MSTORE PUSH1 0x24 DUP1 DUP3 ADD MSTORE PUSH32 0x557066726F6E742072616B65206D757374206265203E3D204F74746572506164 PUSH1 0x44 DUP3 ADD MSTORE PUSH4 0x20666565 PUSH1 0xE0 SHL PUSH1 0x64 DUP3 ADD MSTORE PUSH1 0x84 SWAP1 REVERT JUMPDEST PUSH1 0x40 MLOAD PUSH3 0x461BCD PUSH1 0xE5 SHL DUP2 MSTORE PUSH1 0x20 PUSH1 0x4 DUP3 ADD MSTORE PUSH1 0x16 PUSH1 0x24 DUP3 ADD MSTORE PUSH32 0x496E76616C6964207461726765742066756E64696E6700000000000000000000 PUSH1 0x44 DUP3 ADD MSTORE PUSH1 0x64 SWAP1 REVERT JUMPDEST PUSH1 0x40 MLOAD PUSH3 0x461BCD PUSH1 0xE5 SHL DUP2 MSTORE PUSH1 0x20 PUSH1 0x4 DUP3 ADD MSTORE PUSH1 0xE PUSH1 0x24 DUP3 ADD MSTORE PUSH14 0x496E76616C696420707269636573 PUSH1 0x90 SHL PUSH1 0x44 DUP3 ADD MSTORE PUSH1 0x64 SWAP1 REVERT JUMPDEST POP DUP6 DUP8 GT PUSH3 0x10D JUMP JUMPDEST POP DUP7 ISZERO ISZERO PUSH3 0x106 JUMP JUMPDEST PUSH1 0x40 MLOAD PUSH3 0x461BCD PUSH1 0xE5 SHL DUP2 MSTORE PUSH1 0x20 PUSH1 0x4 DUP3 ADD MSTORE PUSH1 0xD PUSH1 0x24 DUP3 ADD MSTORE PUSH13 0x496E76616C6964207469746C65 PUSH1 0x98 SHL PUSH1 0x44 DUP3 ADD MSTORE PUSH1 0x64 SWAP1 REVERT JUMPDEST PUSH1 0x0 DUP1 REVERT JUMPDEST PUSH1 0x1F SWAP1 SWAP2 ADD PUSH1 0x1F NOT AND DUP2 ADD SWAP1 PUSH1 0x1 PUSH1 0x1 PUSH1 0x40 SHL SUB DUP3 GT SWAP1 DUP3 LT OR PUSH3 0x613 JUMPI PUSH1 0x40 MSTORE JUMP JUMPDEST SWAP2 SWAP1 DUP1 PUSH1 0x1F DUP5 ADD SLT ISZERO PUSH3 0x9C5 JUMPI DUP3 MLOAD PUSH1 0x1 PUSH1 0x1 PUSH1 0x40 SHL SUB DUP2 GT PUSH3 0x613 JUMPI PUSH1 0x20 SWAP1 PUSH1 0x40 MLOAD SWAP3 PUSH3 0xA29 DUP4 PUSH1 0x1F NOT PUSH1 0x1F DUP6 ADD AND ADD DUP6 PUSH3 0x9CA JUMP JUMPDEST DUP2 DUP5 MSTORE DUP3 DUP3 DUP8 ADD ADD GT PUSH3 0x9C5 JUMPI PUSH1 0x0 JUMPDEST DUP2 DUP2 LT PUSH3 0xA50 JUMPI POP DUP3 PUSH1 0x0 SWAP4 SWAP5 SWAP6 POP ADD ADD MSTORE SWAP1 JUMP JUMPDEST DUP6 DUP2 ADD DUP4 ADD MLOAD DUP5 DUP3 ADD DUP5 ADD MSTORE DUP3 ADD PUSH3 0xA3A JUMP JUMPDEST MLOAD SWAP1 PUSH1 0x1 PUSH1 0x1 PUSH1 0xA0 SHL SUB DUP3 AND DUP3 SUB PUSH3 0x9C5 JUMPI JUMP JUMPDEST SWAP1 DUP2 PUSH1 0x20 SWAP2 SUB SLT PUSH3 0x9C5 JUMPI MLOAD PUSH1 0xFF DUP2 AND DUP2 SUB PUSH3 0x9C5 JUMPI SWAP1 JUMP INVALID PUSH1 0x80 PUSH1 0x40 DUP2 DUP2 MSTORE PUSH1 0x4 SWAP1 DUP2 CALLDATASIZE LT ISZERO PUSH2 0x16 JUMPI PUSH1 0x0 DUP1 REVERT JUMPDEST PUSH1 0x0 SWAP3 DUP4 CALLDATALOAD PUSH1 0xE0 SHR SWAP1 DUP2 PUSH4 0xE022923 EQ PUSH2 0x1F2B JUMPI POP DUP1 PUSH4 0xF8C2798 EQ PUSH2 0x1EBD JUMPI DUP1 PUSH4 0x10D0FFDD EQ PUSH2 0x1E9D JUMPI DUP1 PUSH4 0x12EFF12C EQ PUSH2 0x1799 JUMPI DUP1 PUSH4 0x16C04948 EQ PUSH2 0x1773 JUMPI DUP1 PUSH4 0x16C94B38 EQ PUSH2 0x172F JUMPI DUP1 PUSH4 0x1BFAF155 EQ PUSH2 0x16EB JUMPI DUP1 PUSH4 0x25F97FB9 EQ PUSH2 0x16C7 JUMPI DUP1 PUSH4 0x278ECDE1 EQ PUSH2 0x14E0 JUMPI DUP1 PUSH4 0x3013CE29 EQ PUSH2 0x149C JUMPI DUP1 PUSH4 0x3BDE5BA8 EQ PUSH2 0x1475 JUMPI DUP1 PUSH4 0x4A79D50C EQ PUSH2 0x13B6 JUMPI DUP1 PUSH4 0x560B842C EQ PUSH2 0x137B JUMPI DUP1 PUSH4 0x5A59C551 EQ PUSH2 0x1325 JUMPI DUP1 PUSH4 0x5F655EA7 EQ PUSH2 0x1308 JUMPI DUP1 PUSH4 0x735DE9F7 EQ PUSH2 0x12C4 JUMPI DUP1 PUSH4 0x8392FE31 EQ PUSH2 0x1250 JUMPI DUP1 PUSH4 0x8A19ECEF EQ PUSH2 0x1233 JUMPI DUP1 PUSH4 0x8BDB2AFA EQ PUSH2 0x11EF JUMPI DUP1 PUSH4 0x92258EC8 EQ PUSH2 0x11B4 JUMPI DUP1 PUSH4 0x9513A0FD EQ PUSH2 0x1195 JUMPI DUP1 PUSH4 0xAF5B065A EQ PUSH2 0x1155 JUMPI DUP1 PUSH4 0xB704A0C4 EQ PUSH2 0x111A JUMPI DUP1 PUSH4 0xB789BF52 EQ PUSH2 0x10FB JUMPI DUP1 PUSH4 0xB868723E EQ PUSH2 0x10C0 JUMPI DUP1 PUSH4 0xBDD3D825 EQ PUSH2 0x1097 JUMPI DUP1 PUSH4 0xBEF08860 EQ PUSH2 0xFE7 JUMPI DUP1 PUSH4 0xC07F773A EQ PUSH2 0xFC9 JUMPI DUP1 PUSH4 0xC596F3FE EQ PUSH2 0xD17 JUMPI DUP1 PUSH4 0xC7C8B437 EQ PUSH2 0xC14 JUMPI DUP1 PUSH4 0xD96A094A EQ PUSH2 0x628 JUMPI DUP1 PUSH4 0xDB006A75 EQ PUSH2 0x396 JUMPI DUP1 PUSH4 0xDE7E3310 EQ PUSH2 0x377 JUMPI DUP1 PUSH4 0xE985E367 EQ PUSH2 0x333 JUMPI DUP1 PUSH4 0xEB91D37E EQ PUSH2 0x30F JUMPI DUP1 PUSH4 0xEDAFC9AF EQ PUSH2 0x2E0 JUMPI DUP1 PUSH4 0xEF5EE995 EQ PUSH2 0x2C4 JUMPI DUP1 PUSH4 0xF1A9AF89 EQ PUSH2 0x285 JUMPI PUSH4 0xF6A55A29 EQ PUSH2 0x1D1 JUMPI PUSH1 0x0 DUP1 REVERT JUMPDEST CALLVALUE PUSH2 0x26F JUMPI DUP3 PUSH1 0x3 NOT CALLDATASIZE ADD SLT PUSH2 0x26F JUMPI DUP1 MLOAD PUSH4 0x70A08231 PUSH1 0xE0 SHL DUP2 MSTORE ADDRESS SWAP3 DUP2 ADD SWAP3 SWAP1 SWAP3 MSTORE PUSH1 0x20 DUP3 PUSH1 0x24 DUP2 PUSH32 0x0 PUSH1 0x1 PUSH1 0x1 PUSH1 0xA0 SHL SUB AND GAS STATICCALL SWAP2 DUP3 ISZERO PUSH2 0x27B JUMPI DUP4 SWAP3 PUSH2 0x23F JUMPI JUMPDEST PUSH1 0x20 DUP4 DUP4 MLOAD SWAP1 DUP2 MSTORE RETURN JUMPDEST SWAP1 SWAP2 POP PUSH1 0x20 DUP2 RETURNDATASIZE PUSH1 0x20 GT PUSH2 0x273 JUMPI JUMPDEST DUP2 PUSH2 0x25B PUSH1 0x20 SWAP4 DUP4 PUSH2 0x208F JUMP JUMPDEST DUP2 ADD SUB SLT PUSH2 0x26F JUMPI PUSH1 0x20 SWAP3 POP MLOAD SWAP1 CODESIZE PUSH2 0x235 JUMP JUMPDEST DUP3 DUP1 REVERT JUMPDEST RETURNDATASIZE SWAP2 POP PUSH2 0x24E JUMP JUMPDEST DUP2 MLOAD RETURNDATASIZE DUP6 DUP3 RETURNDATACOPY RETURNDATASIZE SWAP1 REVERT JUMPDEST DUP4 DUP3 CALLVALUE PUSH2 0x2C0 JUMPI DUP2 PUSH1 0x3 NOT CALLDATASIZE ADD SLT PUSH2 0x2C0 JUMPI PUSH1 0x20 SWAP1 MLOAD PUSH32 0x0 DUP2 MSTORE RETURN JUMPDEST POP DUP1 REVERT JUMPDEST DUP4 DUP3 CALLVALUE PUSH2 0x2C0 JUMPI DUP2 PUSH1 0x3 NOT CALLDATASIZE ADD SLT PUSH2 0x2C0 JUMPI PUSH1 0x20 SWAP1 MLOAD PUSH1 0xC8 DUP2 MSTORE RETURN JUMPDEST DUP4 DUP3 CALLVALUE PUSH2 0x2C0 JUMPI DUP2 PUSH1 0x3 NOT CALLDATASIZE ADD SLT PUSH2 0x2C0 JUMPI PUSH1 0x20 SWAP1 MLOAD PUSH20 0x6C83E86E05697C995D718C1CFA3F9045A38C7CD4 DUP2 MSTORE RETURN JUMPDEST DUP4 DUP3 CALLVALUE PUSH2 0x2C0 JUMPI DUP2 PUSH1 0x3 NOT CALLDATASIZE ADD SLT PUSH2 0x2C0 JUMPI PUSH1 0x20 SWAP1 PUSH2 0x32C PUSH2 0x2725 JUMP JUMPDEST SWAP1 MLOAD SWAP1 DUP2 MSTORE RETURN JUMPDEST DUP4 DUP3 CALLVALUE PUSH2 0x2C0 JUMPI DUP2 PUSH1 0x3 NOT CALLDATASIZE ADD SLT PUSH2 0x2C0 JUMPI MLOAD PUSH32 0x0 PUSH1 0x1 PUSH1 0x1 PUSH1 0xA0 SHL SUB AND DUP2 MSTORE PUSH1 0x20 SWAP1 RETURN JUMPDEST DUP4 DUP3 CALLVALUE PUSH2 0x2C0 JUMPI DUP2 PUSH1 0x3 NOT CALLDATASIZE ADD SLT PUSH2 0x2C0 JUMPI PUSH1 0x20 SWAP1 PUSH1 0x6 SLOAD SWAP1 MLOAD SWAP1 DUP2 MSTORE RETURN JUMPDEST POP CALLVALUE PUSH2 0x26F JUMPI PUSH1 0x20 DUP1 PUSH1 0x3 NOT CALLDATASIZE ADD SLT PUSH2 0x624 JUMPI DUP3 CALLDATALOAD SWAP3 PUSH2 0x3B4 PUSH2 0x282A JUMP JUMPDEST PUSH1 0x3 SLOAD PUSH1 0xFF DUP2 PUSH1 0x8 SHR AND ISZERO PUSH2 0x5E9 JUMPI PUSH1 0xFF AND ISZERO PUSH2 0x5A8 JUMPI DUP4 DUP6 MSTORE PUSH1 0x9 DUP3 MSTORE DUP3 DUP6 KECCAK256 PUSH1 0x3 DUP2 ADD DUP1 SLOAD SWAP1 SWAP3 SWAP2 PUSH1 0x1 PUSH1 0x1 PUSH1 0xA0 SHL SUB SWAP2 SWAP1 PUSH2 0x3F5 DUP4 DUP4 AND CALLER EQ PUSH2 0x24B4 JUMP JUMPDEST PUSH1 0xFF DUP3 PUSH1 0xA0 SHR AND PUSH2 0x570 JUMPI PUSH1 0x2 SWAP1 PUSH2 0x413 PUSH1 0xFF DUP5 PUSH1 0xA8 SHR AND ISZERO PUSH2 0x24F4 JUMP JUMPDEST ADD SWAP4 DUP5 SLOAD SWAP2 DUP3 ISZERO PUSH2 0x537 JUMPI PUSH1 0xFF PUSH1 0xA8 SHL NOT AND PUSH1 0x1 PUSH1 0xA8 SHL OR SWAP1 SSTORE DUP6 MLOAD PUSH4 0xA9059CBB PUSH1 0xE0 SHL DUP2 MSTORE CALLER DUP5 DUP3 ADD SWAP1 DUP2 MSTORE PUSH1 0x20 DUP2 ADD SWAP3 SWAP1 SWAP3 MSTORE SWAP2 DUP6 SWAP2 DUP4 SWAP2 SWAP1 DUP3 SWAP1 DUP12 SWAP1 DUP3 SWAP1 PUSH1 0x40 ADD SUB SWAP3 PUSH32 0x0 AND GAS CALL SWAP1 DUP2 ISZERO PUSH2 0x52D JUMPI DUP8 SWAP2 PUSH2 0x500 JUMPI JUMPDEST POP ISZERO PUSH2 0x4C5 JUMPI POP SWAP1 PUSH32 0xD171FB179B26C49E23FE46EDDD44D3048A1AD277B62144AC0725FBCF1DBF6D52 SWAP2 SLOAD SWAP3 MLOAD SWAP3 DUP4 MSTORE CALLER SWAP3 LOG3 PUSH1 0x1 DUP2 SSTORE DUP1 RETURN JUMPDEST DUP4 MLOAD PUSH3 0x461BCD PUSH1 0xE5 SHL DUP2 MSTORE SWAP1 DUP2 ADD DUP4 SWAP1 MSTORE PUSH1 0x15 PUSH1 0x24 DUP3 ADD MSTORE PUSH21 0x151BDAD95B881D1C985B9CD9995C8819985A5B1959 PUSH1 0x5A SHL PUSH1 0x44 DUP3 ADD MSTORE PUSH1 0x64 SWAP1 REVERT JUMPDEST PUSH2 0x520 SWAP2 POP DUP5 RETURNDATASIZE DUP7 GT PUSH2 0x526 JUMPI JUMPDEST PUSH2 0x518 DUP2 DUP4 PUSH2 0x208F JUMP JUMPDEST DUP2 ADD SWAP1 PUSH2 0x23BF JUMP JUMPDEST CODESIZE PUSH2 0x48B JUMP JUMPDEST POP RETURNDATASIZE PUSH2 0x50E JUMP JUMPDEST DUP6 MLOAD RETURNDATASIZE DUP10 DUP3 RETURNDATACOPY RETURNDATASIZE SWAP1 REVERT JUMPDEST DUP8 MLOAD PUSH3 0x461BCD PUSH1 0xE5 SHL DUP2 MSTORE DUP1 DUP7 ADD DUP9 SWAP1 MSTORE PUSH1 0x13 PUSH1 0x24 DUP3 ADD MSTORE PUSH19 0x4E6F20746F6B656E7320746F2072656465656D PUSH1 0x68 SHL PUSH1 0x44 DUP3 ADD MSTORE PUSH1 0x64 SWAP1 REVERT JUMPDEST DUP7 MLOAD PUSH3 0x461BCD PUSH1 0xE5 SHL DUP2 MSTORE DUP1 DUP6 ADD DUP8 SWAP1 MSTORE PUSH1 0x12 PUSH1 0x24 DUP3 ADD MSTORE PUSH18 0x13DC99195C881DD85CC81C99599D5B991959 PUSH1 0x72 SHL PUSH1 0x44 DUP3 ADD MSTORE PUSH1 0x64 SWAP1 REVERT JUMPDEST SWAP2 MLOAD PUSH3 0x461BCD PUSH1 0xE5 SHL DUP2 MSTORE SWAP2 DUP3 ADD MSTORE PUSH1 0x17 PUSH1 0x24 DUP3 ADD MSTORE PUSH32 0x4E6F7420796574206465706C6F79656420746F20444558000000000000000000 PUSH1 0x44 DUP3 ADD MSTORE PUSH1 0x64 SWAP1 REVERT JUMPDEST POP SWAP2 MLOAD PUSH3 0x461BCD PUSH1 0xE5 SHL DUP2 MSTORE SWAP2 DUP3 ADD MSTORE PUSH1 0x16 PUSH1 0x24 DUP3 ADD MSTORE PUSH22 0x15185C99D95D081B9BDD081C995858DA1959081E595D PUSH1 0x52 SHL PUSH1 0x44 DUP3 ADD MSTORE PUSH1 0x64 SWAP1 REVERT JUMPDEST DUP4 DUP1 REVERT JUMPDEST POP SWAP1 CALLVALUE PUSH2 0x26F JUMPI PUSH1 0x20 DUP1 PUSH1 0x3 NOT CALLDATASIZE ADD SLT PUSH2 0x624 JUMPI DUP2 CALLDATALOAD SWAP2 PUSH2 0x647 PUSH2 0x282A JUMP JUMPDEST PUSH1 0xFF PUSH1 0x3 SLOAD PUSH2 0x658 DUP3 DUP3 AND ISZERO PUSH2 0x2477 JUMP JUMPDEST PUSH1 0x8 SHR AND PUSH2 0xBDA JUMPI PUSH32 0x0 SWAP4 PUSH3 0xF4240 DUP6 DIV DUP5 LT PUSH2 0xBA0 JUMPI PUSH1 0xC8 DUP5 MUL DUP5 DUP2 DIV PUSH1 0xC8 EQ DUP6 ISZERO OR ISZERO PUSH2 0xB8D JUMPI PUSH2 0x2710 DUP1 SWAP2 DIV SWAP3 PUSH2 0x6DC DUP5 DUP4 PUSH2 0x6D6 PUSH32 0x0 DUP11 PUSH2 0x214B JUMP JUMPDEST DIV PUSH2 0x217E JUMP JUMPDEST SWAP2 PUSH2 0x707 PUSH32 0x0 DUP9 PUSH2 0x214B JUMP JUMPDEST DIV SWAP4 PUSH2 0x720 DUP6 PUSH2 0x71B DUP6 PUSH2 0x71B DUP6 DUP13 PUSH2 0x217E JUMP JUMPDEST PUSH2 0x217E JUMP JUMPDEST SWAP5 PUSH2 0x738 DUP10 PUSH2 0x731 DUP9 PUSH1 0x5 SLOAD PUSH2 0x2128 JUMP JUMPDEST GT ISZERO PUSH2 0x218B JUMP JUMPDEST PUSH2 0x741 DUP9 PUSH2 0x21D9 JUMP JUMPDEST SWAP4 PUSH1 0x1 DUP1 PUSH1 0xA0 SHL SUB SWAP3 DUP4 PUSH32 0x0 AND SWAP1 DUP8 MLOAD SWAP4 PUSH4 0x23B872DD PUSH1 0xE0 SHL DUP6 MSTORE CALLER DUP8 DUP7 ADD MSTORE DUP14 PUSH1 0x24 SWAP6 ADDRESS DUP8 DUP3 ADD MSTORE DUP14 PUSH1 0x44 DUP3 ADD MSTORE DUP13 DUP2 PUSH1 0x64 DUP2 DUP6 DUP10 GAS CALL SWAP2 DUP3 ISZERO PUSH2 0xB82 JUMPI SWAP2 PUSH2 0xB65 JUMPI JUMPDEST POP ISZERO PUSH2 0xB23 JUMPI DUP9 MLOAD DUP13 DUP2 MSTORE PUSH1 0x20 DUP2 ADD DUP4 SWAP1 MSTORE PUSH1 0x40 DUP2 ADD DUP6 SWAP1 MSTORE PUSH1 0x60 DUP2 ADD SWAP2 SWAP1 SWAP2 MSTORE PUSH1 0x80 DUP2 ADD DUP11 SWAP1 MSTORE CALLER SWAP1 PUSH32 0xBEFB6E85B11F40EE4D9E3E8BB0BEDBC3D1EEE123B1328C0EA0A4B842CBFFF749 SWAP1 PUSH1 0xA0 SWAP1 LOG2 DUP13 DUP9 MLOAD PUSH4 0xA9059CBB PUSH1 0xE0 SHL SWAP3 DUP4 DUP3 MSTORE PUSH20 0x6C83E86E05697C995D718C1CFA3F9045A38C7CD4 DUP10 DUP4 ADD MSTORE DUP7 DUP3 ADD MSTORE DUP12 DUP2 PUSH1 0x44 DUP2 DUP6 DUP9 GAS CALL SWAP2 DUP3 ISZERO PUSH2 0xB18 JUMPI SWAP2 PUSH2 0xAFB JUMPI JUMPDEST POP ISZERO PUSH2 0xAC3 JUMPI DUP8 MLOAD SWAP1 DUP2 MSTORE PUSH1 0x1 PUSH1 0x1 PUSH1 0xA0 SHL SUB PUSH32 0x0 AND DUP7 DUP3 ADD SWAP1 DUP2 MSTORE PUSH1 0x20 DUP2 ADD SWAP4 SWAP1 SWAP4 MSTORE SWAP2 DUP10 SWAP2 DUP4 SWAP2 DUP3 SWAP1 DUP16 SWAP1 DUP3 SWAP1 PUSH1 0x40 ADD SUB SWAP3 GAS CALL SWAP1 DUP2 ISZERO PUSH2 0xAB9 JUMPI DUP12 SWAP2 PUSH2 0xA9C JUMPI JUMPDEST POP ISZERO PUSH2 0xA5B JUMPI PUSH1 0x2 SLOAD SWAP7 PUSH1 0x0 NOT SWAP3 DUP4 DUP10 EQ PUSH2 0xA49 JUMPI SWAP1 DUP10 DUP6 DUP11 DUP11 DUP16 DUP12 SWAP1 PUSH1 0xA SWAP8 PUSH1 0x1 DUP6 ADD PUSH1 0x2 SSTORE DUP3 MLOAD SWAP7 PUSH2 0x8CD DUP9 PUSH2 0x205D JUMP JUMPDEST DUP8 MSTORE DUP8 DUP8 ADD SWAP4 DUP5 MSTORE DUP3 DUP8 ADD DUP14 DUP2 MSTORE PUSH1 0x60 DUP9 ADD SWAP5 CALLER DUP7 MSTORE PUSH1 0x80 DUP10 ADD SWAP5 DUP5 DUP7 MSTORE PUSH1 0xA0 DUP11 ADD SWAP5 DUP1 DUP7 MSTORE PUSH1 0xC0 DUP12 ADD SWAP9 NUMBER DUP11 MSTORE DUP2 MSTORE PUSH1 0x9 DUP13 MSTORE KECCAK256 SWAP9 MLOAD DUP10 SSTORE MLOAD PUSH1 0x1 DUP10 ADD SSTORE MLOAD PUSH1 0x2 DUP9 ADD SSTORE PUSH1 0x3 DUP8 ADD SWAP4 MLOAD AND DUP4 SLOAD SWAP3 PUSH1 0xFF PUSH1 0xA0 SHL SWAP1 MLOAD ISZERO ISZERO PUSH1 0xA0 SHL AND SWAP2 PUSH1 0xFF PUSH1 0xA8 SHL SWAP1 MLOAD ISZERO ISZERO PUSH1 0xA8 SHL AND SWAP3 PUSH10 0xFFFFFFFFFFFFFFFFFFFF PUSH1 0xB0 SHL AND OR OR OR SWAP1 SSTORE MLOAD SWAP2 ADD SSTORE CALLER DUP13 MSTORE MSTORE DUP5 DUP11 KECCAK256 DUP1 SLOAD SWAP2 PUSH9 0x10000000000000000 DUP4 LT ISZERO PUSH2 0xA38 JUMPI POP DUP2 PUSH2 0x9A1 SWAP2 PUSH1 0x1 PUSH32 0xB176B33AD40225C8F67DC6EF0CBA96C0C88F67AFD36396E2198A3F48A44FC7A0 SWAP9 SWAP8 SWAP7 SWAP6 SWAP5 ADD DUP2 SSTORE PUSH2 0x20FA JUMP JUMPDEST DUP2 SWAP3 SWAP2 SLOAD SWAP1 PUSH1 0x3 SHL SWAP2 DUP10 DUP4 SHL SWAP3 SHL NOT AND OR SWAP1 SSTORE PUSH2 0x9BF DUP3 DUP3 SLOAD PUSH2 0x2128 JUMP JUMPDEST SWAP1 SSTORE PUSH2 0xA13 PUSH2 0x9D0 DUP6 PUSH1 0x5 SLOAD PUSH2 0x2128 JUMP JUMPDEST SWAP7 DUP8 SWAP4 DUP5 PUSH1 0x5 SSTORE PUSH2 0x9E3 DUP3 PUSH1 0x6 SLOAD PUSH2 0x2128 JUMP JUMPDEST PUSH1 0x6 SSTORE MLOAD SWAP4 DUP5 SWAP4 CALLER SWAP8 TIMESTAMP SWAP4 DUP7 SWAP2 SWAP3 PUSH1 0x80 SWAP4 SWAP7 SWAP6 SWAP5 SWAP2 SWAP7 PUSH1 0xA0 DUP5 ADD SWAP8 DUP5 MSTORE PUSH1 0x20 DUP5 ADD MSTORE PUSH1 0x40 DUP4 ADD MSTORE PUSH1 0x60 DUP3 ADD MSTORE ADD MSTORE JUMP JUMPDEST SUB SWAP1 LOG3 LT ISZERO PUSH2 0xA24 JUMPI JUMPDEST PUSH1 0x1 DUP2 SSTORE DUP1 RETURN JUMPDEST PUSH2 0x100 PUSH2 0xFF00 NOT PUSH1 0x3 SLOAD AND OR PUSH1 0x3 SSTORE PUSH2 0xA1D JUMP JUMPDEST PUSH4 0x4E487B71 PUSH1 0xE0 SHL DUP13 MSTORE PUSH1 0x41 DUP6 MSTORE DUP12 REVERT JUMPDEST PUSH4 0x4E487B71 PUSH1 0xE0 SHL DUP13 MSTORE PUSH1 0x11 DUP6 MSTORE DUP3 DUP13 REVERT JUMPDEST DUP3 PUSH1 0x17 PUSH1 0x64 SWAP3 DUP10 DUP9 MLOAD SWAP4 PUSH3 0x461BCD PUSH1 0xE5 SHL DUP6 MSTORE DUP5 ADD MSTORE DUP3 ADD MSTORE PUSH32 0x557066726F6E74207472616E73666572206661696C6564000000000000000000 PUSH1 0x44 DUP3 ADD MSTORE REVERT JUMPDEST PUSH2 0xAB3 SWAP2 POP DUP9 RETURNDATASIZE DUP11 GT PUSH2 0x526 JUMPI PUSH2 0x518 DUP2 DUP4 PUSH2 0x208F JUMP JUMPDEST CODESIZE PUSH2 0x89A JUMP JUMPDEST DUP7 MLOAD RETURNDATASIZE DUP14 DUP3 RETURNDATACOPY RETURNDATASIZE SWAP1 REVERT JUMPDEST DUP8 MLOAD PUSH3 0x461BCD PUSH1 0xE5 SHL DUP2 MSTORE DUP1 DUP8 ADD DUP12 SWAP1 MSTORE PUSH1 0x13 DUP2 DUP7 ADD MSTORE PUSH19 0x119959481D1C985B9CD9995C8819985A5B1959 PUSH1 0x6A SHL PUSH1 0x44 DUP3 ADD MSTORE PUSH1 0x64 SWAP1 REVERT JUMPDEST PUSH2 0xB12 SWAP2 POP DUP12 RETURNDATASIZE DUP14 GT PUSH2 0x526 JUMPI PUSH2 0x518 DUP2 DUP4 PUSH2 0x208F JUMP JUMPDEST CODESIZE PUSH2 0x837 JUMP JUMPDEST DUP11 MLOAD SWAP1 RETURNDATASIZE SWAP1 DUP3 RETURNDATACOPY RETURNDATASIZE SWAP1 REVERT JUMPDEST DUP9 MLOAD PUSH3 0x461BCD PUSH1 0xE5 SHL DUP2 MSTORE DUP1 DUP9 ADD DUP13 SWAP1 MSTORE PUSH1 0x17 DUP2 DUP8 ADD MSTORE PUSH32 0x5061796D656E74207472616E73666572206661696C6564000000000000000000 PUSH1 0x44 DUP3 ADD MSTORE PUSH1 0x64 SWAP1 REVERT JUMPDEST PUSH2 0xB7C SWAP2 POP DUP13 DUP14 RETURNDATASIZE LT PUSH2 0x526 JUMPI PUSH2 0x518 DUP2 DUP4 PUSH2 0x208F JUMP JUMPDEST CODESIZE PUSH2 0x7A5 JUMP JUMPDEST DUP12 MLOAD SWAP1 RETURNDATASIZE SWAP1 DUP3 RETURNDATACOPY RETURNDATASIZE SWAP1 REVERT JUMPDEST PUSH4 0x4E487B71 PUSH1 0xE0 SHL DUP8 MSTORE PUSH1 0x11 DUP4 MSTORE PUSH1 0x24 DUP8 REVERT JUMPDEST SWAP2 PUSH1 0x64 SWAP3 MLOAD SWAP2 PUSH3 0x461BCD PUSH1 0xE5 SHL DUP4 MSTORE DUP3 ADD MSTORE PUSH1 0x16 PUSH1 0x24 DUP3 ADD MSTORE PUSH22 0x42656C6F77206D696E696D756D207075726368617365 PUSH1 0x50 SHL PUSH1 0x44 DUP3 ADD MSTORE REVERT JUMPDEST PUSH1 0x64 SWAP2 DUP5 MLOAD SWAP2 PUSH3 0x461BCD PUSH1 0xE5 SHL DUP4 MSTORE DUP3 ADD MSTORE PUSH1 0x16 PUSH1 0x24 DUP3 ADD MSTORE PUSH22 0x15185C99D95D08185B1C9958591E481C995858DA1959 PUSH1 0x52 SHL PUSH1 0x44 DUP3 ADD MSTORE REVERT JUMPDEST POP CALLVALUE PUSH2 0x26F JUMPI DUP3 PUSH1 0x3 NOT CALLDATASIZE ADD SLT PUSH2 0x26F JUMPI DUP1 MLOAD SWAP2 DUP4 PUSH1 0x8 SLOAD SWAP1 PUSH1 0x1 SWAP1 DUP3 PUSH1 0x1 SHR SWAP3 PUSH1 0x1 DUP2 AND DUP1 ISZERO PUSH2 0xD0D JUMPI JUMPDEST PUSH1 0x20 SWAP6 DUP7 DUP7 LT DUP3 EQ PUSH2 0xCFA JUMPI POP DUP5 DUP9 MSTORE SWAP1 DUP2 ISZERO PUSH2 0xCD8 JUMPI POP PUSH1 0x1 EQ PUSH2 0xC7F JUMPI JUMPDEST PUSH2 0xC7B DUP7 DUP7 PUSH2 0xC71 DUP3 DUP12 SUB DUP4 PUSH2 0x208F JUMP JUMPDEST MLOAD SWAP2 DUP3 SWAP2 DUP3 PUSH2 0x20B1 JUMP JUMPDEST SUB SWAP1 RETURN JUMPDEST SWAP3 SWAP6 POP PUSH1 0x8 DUP4 MSTORE PUSH32 0xF3F7A9FE364FAAB93B216DA50A3214154F22A0A2B415B23A84C8169E8B636EE3 JUMPDEST DUP3 DUP5 LT PUSH2 0xCC5 JUMPI POP POP POP DUP3 PUSH2 0xC7B SWAP5 PUSH2 0xC71 SWAP3 DUP3 ADD ADD SWAP5 CODESIZE PUSH2 0xC60 JUMP JUMPDEST DUP1 SLOAD DUP7 DUP6 ADD DUP9 ADD MSTORE SWAP3 DUP7 ADD SWAP3 DUP2 ADD PUSH2 0xCA8 JUMP JUMPDEST PUSH1 0xFF NOT AND DUP8 DUP7 ADD MSTORE POP POP POP ISZERO ISZERO PUSH1 0x5 SHL DUP4 ADD ADD SWAP3 POP PUSH2 0xC71 DUP3 PUSH2 0xC7B CODESIZE PUSH2 0xC60 JUMP JUMPDEST PUSH4 0x4E487B71 PUSH1 0xE0 SHL DUP5 MSTORE PUSH1 0x22 SWAP1 MSTORE PUSH1 0x24 DUP4 REVERT JUMPDEST SWAP4 PUSH1 0x7F AND SWAP4 PUSH2 0xC40 JUMP JUMPDEST POP CALLVALUE PUSH2 0x26F JUMPI DUP1 PUSH1 0x3 NOT CALLDATASIZE ADD SLT PUSH2 0x26F JUMPI PUSH2 0xD30 PUSH2 0x2042 JUMP JUMPDEST PUSH1 0x24 SWAP2 DUP3 CALLDATALOAD PUSH2 0xD3D PUSH2 0x282A JUMP JUMPDEST PUSH32 0x0 SWAP3 PUSH1 0x1 PUSH1 0x1 PUSH1 0xA0 SHL SUB SWAP1 DUP2 DUP6 AND CALLER SUB PUSH2 0xF87 JUMPI PUSH1 0xFF PUSH1 0x3 SLOAD AND ISZERO PUSH2 0xF45 JUMPI DUP2 AND SWAP1 PUSH32 0x0 AND DUP2 EQ PUSH2 0xF03 JUMPI DUP3 MLOAD PUSH4 0x70A08231 PUSH1 0xE0 SHL DUP2 MSTORE ADDRESS DUP8 DUP3 ADD MSTORE PUSH1 0x20 SWAP5 SWAP1 DUP6 DUP2 DUP9 DUP2 DUP7 GAS STATICCALL SWAP1 DUP2 ISZERO PUSH2 0xEF9 JUMPI SWAP1 DUP5 SWAP2 DUP11 SWAP2 PUSH2 0xEC4 JUMPI JUMPDEST POP LT PUSH2 0xE8B JUMPI DUP4 MLOAD PUSH4 0xA9059CBB PUSH1 0xE0 SHL DUP2 MSTORE PUSH1 0x1 PUSH1 0x1 PUSH1 0xA0 SHL SUB SWAP1 SWAP2 AND DUP8 DUP3 ADD SWAP1 DUP2 MSTORE PUSH1 0x20 DUP2 ADD SWAP4 SWAP1 SWAP4 MSTORE SWAP2 DUP5 SWAP2 DUP4 SWAP2 DUP3 SWAP1 DUP11 SWAP1 DUP3 SWAP1 PUSH1 0x40 ADD SUB SWAP3 GAS CALL SWAP1 DUP2 ISZERO PUSH2 0xE81 JUMPI DUP7 SWAP2 PUSH2 0xE64 JUMPI JUMPDEST POP ISZERO PUSH2 0xE2D JUMPI DUP5 PUSH1 0x1 DUP2 SSTORE DUP1 RETURN JUMPDEST MLOAD PUSH3 0x461BCD PUSH1 0xE5 SHL DUP2 MSTORE SWAP3 DUP4 ADD MSTORE PUSH1 0x15 SWAP1 DUP3 ADD MSTORE PUSH21 0x151BDAD95B881C9958DBDD995C9E4819985A5B1959 PUSH1 0x5A SHL PUSH1 0x44 DUP3 ADD MSTORE PUSH1 0x64 SWAP1 REVERT JUMPDEST PUSH2 0xE7B SWAP2 POP DUP4 RETURNDATASIZE DUP6 GT PUSH2 0x526 JUMPI PUSH2 0x518 DUP2 DUP4 PUSH2 0x208F JUMP JUMPDEST CODESIZE PUSH2 0xE1F JUMP JUMPDEST DUP3 MLOAD RETURNDATASIZE DUP9 DUP3 RETURNDATACOPY RETURNDATASIZE SWAP1 REVERT JUMPDEST DUP4 MLOAD PUSH3 0x461BCD PUSH1 0xE5 SHL DUP2 MSTORE DUP1 DUP9 ADD DUP7 SWAP1 MSTORE PUSH1 0x14 DUP2 DUP9 ADD MSTORE PUSH20 0x496E73756666696369656E742062616C616E6365 PUSH1 0x60 SHL PUSH1 0x44 DUP3 ADD MSTORE PUSH1 0x64 SWAP1 REVERT JUMPDEST DUP1 SWAP3 POP DUP8 DUP1 SWAP3 POP RETURNDATASIZE DUP4 GT PUSH2 0xEF2 JUMPI JUMPDEST PUSH2 0xEDD DUP2 DUP4 PUSH2 0x208F JUMP JUMPDEST DUP2 ADD SUB SLT PUSH2 0xEEE JUMPI DUP4 SWAP1 MLOAD CODESIZE PUSH2 0xDD4 JUMP JUMPDEST DUP9 DUP1 REVERT JUMPDEST POP RETURNDATASIZE PUSH2 0xED3 JUMP JUMPDEST DUP6 MLOAD RETURNDATASIZE DUP12 DUP3 RETURNDATACOPY RETURNDATASIZE SWAP1 REVERT JUMPDEST DUP3 MLOAD PUSH3 0x461BCD PUSH1 0xE5 SHL DUP2 MSTORE PUSH1 0x20 DUP2 DUP9 ADD MSTORE PUSH1 0x19 DUP2 DUP8 ADD MSTORE PUSH32 0x43616E6E6F74207265636F7665722073616C6520746F6B656E00000000000000 PUSH1 0x44 DUP3 ADD MSTORE PUSH1 0x64 SWAP1 REVERT JUMPDEST DUP4 MLOAD PUSH3 0x461BCD PUSH1 0xE5 SHL DUP2 MSTORE PUSH1 0x20 DUP2 DUP10 ADD MSTORE PUSH1 0x1B DUP2 DUP9 ADD MSTORE PUSH32 0x4E6F7420796574206465706C6F79656420746F20556E69737761700000000000 PUSH1 0x44 DUP3 ADD MSTORE PUSH1 0x64 SWAP1 REVERT JUMPDEST DUP4 MLOAD PUSH3 0x461BCD PUSH1 0xE5 SHL DUP2 MSTORE PUSH1 0x20 DUP2 DUP10 ADD MSTORE PUSH1 0x19 DUP2 DUP9 ADD MSTORE PUSH32 0x4F6E6C7920666F756E646572732063616E207265636F76657200000000000000 PUSH1 0x44 DUP3 ADD MSTORE PUSH1 0x64 SWAP1 REVERT JUMPDEST POP SWAP1 CALLVALUE PUSH2 0x26F JUMPI DUP3 PUSH1 0x3 NOT CALLDATASIZE ADD SLT PUSH2 0x26F JUMPI PUSH1 0x20 SWAP3 POP SLOAD SWAP1 MLOAD SWAP1 DUP2 MSTORE RETURN JUMPDEST POP DUP3 CALLVALUE PUSH2 0x1094 JUMPI PUSH1 0x20 SWAP1 DUP2 PUSH1 0x3 NOT CALLDATASIZE ADD SLT PUSH2 0x1094 JUMPI DUP3 SWAP1 PUSH1 0x1 PUSH1 0x1 PUSH1 0xA0 SHL SUB PUSH2 0x100E PUSH2 0x2042 JUMP JUMPDEST AND DUP2 MSTORE PUSH1 0xA DUP4 MSTORE DUP2 DUP2 KECCAK256 SWAP1 DUP3 MLOAD DUP1 DUP6 DUP5 SLOAD SWAP2 DUP3 DUP2 MSTORE ADD SWAP1 DUP2 SWAP5 DUP5 MSTORE DUP7 DUP5 KECCAK256 SWAP1 DUP5 JUMPDEST DUP2 DUP2 LT PUSH2 0x1080 JUMPI POP POP POP DUP2 PUSH2 0x1045 SWAP2 SUB DUP3 PUSH2 0x208F JUMP JUMPDEST DUP4 MLOAD SWAP5 DUP6 SWAP5 DUP2 DUP7 ADD SWAP3 DUP3 DUP8 MSTORE MLOAD DUP1 SWAP4 MSTORE DUP6 ADD SWAP4 SWAP3 JUMPDEST DUP3 DUP2 LT PUSH2 0x1069 JUMPI POP POP POP POP SUB SWAP1 RETURN JUMPDEST DUP4 MLOAD DUP6 MSTORE DUP7 SWAP6 POP SWAP4 DUP2 ADD SWAP4 SWAP3 DUP2 ADD SWAP3 PUSH1 0x1 ADD PUSH2 0x105A JUMP JUMPDEST DUP3 SLOAD DUP5 MSTORE SWAP3 DUP9 ADD SWAP3 PUSH1 0x1 SWAP3 DUP4 ADD SWAP3 ADD PUSH2 0x102F JUMP JUMPDEST DUP1 REVERT JUMPDEST DUP4 DUP3 CALLVALUE PUSH2 0x2C0 JUMPI DUP2 PUSH1 0x3 NOT CALLDATASIZE ADD SLT PUSH2 0x2C0 JUMPI PUSH1 0x1 SLOAD SWAP1 MLOAD PUSH1 0x1 PUSH1 0x1 PUSH1 0xA0 SHL SUB SWAP1 SWAP2 AND DUP2 MSTORE PUSH1 0x20 SWAP1 RETURN JUMPDEST DUP4 DUP3 CALLVALUE PUSH2 0x2C0 JUMPI DUP2 PUSH1 0x3 NOT CALLDATASIZE ADD SLT PUSH2 0x2C0 JUMPI PUSH1 0x20 SWAP1 MLOAD PUSH32 0x0 DUP2 MSTORE RETURN JUMPDEST DUP4 DUP3 CALLVALUE PUSH2 0x2C0 JUMPI DUP2 PUSH1 0x3 NOT CALLDATASIZE ADD SLT PUSH2 0x2C0 JUMPI PUSH1 0x20 SWAP1 PUSH1 0x2 SLOAD SWAP1 MLOAD SWAP1 DUP2 MSTORE RETURN JUMPDEST DUP4 DUP3 CALLVALUE PUSH2 0x2C0 JUMPI DUP2 PUSH1 0x3 NOT CALLDATASIZE ADD SLT PUSH2 0x2C0 JUMPI PUSH1 0x20 SWAP1 MLOAD PUSH32 0x0 DUP2 MSTORE RETURN JUMPDEST DUP4 DUP3 CALLVALUE PUSH2 0x2C0 JUMPI DUP2 PUSH1 0x3 NOT CALLDATASIZE ADD SLT PUSH2 0x2C0 JUMPI PUSH1 0x20 SWAP1 MLOAD PUSH3 0xF4240 PUSH32 0x0 DIV DUP2 MSTORE RETURN JUMPDEST DUP4 DUP3 CALLVALUE PUSH2 0x2C0 JUMPI DUP2 PUSH1 0x3 NOT CALLDATASIZE ADD SLT PUSH2 0x2C0 JUMPI PUSH1 0x20 SWAP1 PUSH1 0x5 SLOAD SWAP1 MLOAD SWAP1 DUP2 MSTORE RETURN JUMPDEST DUP4 DUP3 CALLVALUE PUSH2 0x2C0 JUMPI DUP2 PUSH1 0x3 NOT CALLDATASIZE ADD SLT PUSH2 0x2C0 JUMPI PUSH1 0x20 SWAP1 MLOAD PUSH32 0x0 DUP2 MSTORE RETURN JUMPDEST DUP4 DUP3 CALLVALUE PUSH2 0x2C0 JUMPI DUP2 PUSH1 0x3 NOT CALLDATASIZE ADD SLT PUSH2 0x2C0 JUMPI MLOAD PUSH32 0x0 PUSH1 0x1 PUSH1 0x1 PUSH1 0xA0 SHL SUB AND DUP2 MSTORE PUSH1 0x20 SWAP1 RETURN JUMPDEST DUP4 DUP3 CALLVALUE PUSH2 0x2C0 JUMPI DUP2 PUSH1 0x3 NOT CALLDATASIZE ADD SLT PUSH2 0x2C0 JUMPI PUSH1 0x20 SWAP1 PUSH2 0x32C PUSH2 0x26A2 JUMP JUMPDEST POP CALLVALUE PUSH2 0x26F JUMPI PUSH1 0x20 CALLDATASIZE PUSH1 0x3 NOT ADD SLT PUSH2 0x26F JUMPI PUSH1 0xFF DUP2 PUSH1 0xE0 SWAP5 DUP5 CALLDATALOAD DUP2 MSTORE PUSH1 0x9 PUSH1 0x20 MSTORE KECCAK256 DUP1 SLOAD SWAP4 PUSH1 0x1 DUP3 ADD SLOAD SWAP4 PUSH1 0x2 DUP4 ADD SLOAD SWAP2 PUSH1 0x3 DUP5 ADD SLOAD SWAP4 ADD SLOAD SWAP5 DUP2 MLOAD SWAP7 DUP8 MSTORE PUSH1 0x20 DUP8 ADD MSTORE DUP6 ADD MSTORE PUSH1 0x1 DUP1 PUSH1 0xA0 SHL SUB DUP2 AND PUSH1 0x60 DUP6 ADD MSTORE DUP2 DUP2 PUSH1 0xA0 SHR AND ISZERO ISZERO PUSH1 0x80 DUP6 ADD MSTORE PUSH1 0xA8 SHR AND ISZERO ISZERO PUSH1 0xA0 DUP4 ADD MSTORE PUSH1 0xC0 DUP3 ADD MSTORE RETURN JUMPDEST DUP4 DUP3 CALLVALUE PUSH2 0x2C0 JUMPI DUP2 PUSH1 0x3 NOT CALLDATASIZE ADD SLT PUSH2 0x2C0 JUMPI MLOAD PUSH32 0x0 PUSH1 0x1 PUSH1 0x1 PUSH1 0xA0 SHL SUB AND DUP2 MSTORE PUSH1 0x20 SWAP1 RETURN JUMPDEST DUP4 DUP3 CALLVALUE PUSH2 0x2C0 JUMPI DUP2 PUSH1 0x3 NOT CALLDATASIZE ADD SLT PUSH2 0x2C0 JUMPI PUSH1 0x20 SWAP1 PUSH2 0x32C PUSH2 0x2533 JUMP JUMPDEST DUP4 DUP3 CALLVALUE PUSH2 0x2C0 JUMPI DUP1 PUSH1 0x3 NOT CALLDATASIZE ADD SLT PUSH2 0x2C0 JUMPI PUSH2 0x133F PUSH2 0x2042 JUMP JUMPDEST PUSH1 0x1 PUSH1 0x1 PUSH1 0xA0 SHL SUB AND DUP3 MSTORE PUSH1 0xA PUSH1 0x20 MSTORE DUP1 DUP3 KECCAK256 DUP1 SLOAD PUSH1 0x24 CALLDATALOAD SWAP4 SWAP1 DUP5 LT ISZERO PUSH2 0x1094 JUMPI POP PUSH1 0x20 SWAP3 PUSH2 0x136D SWAP2 PUSH2 0x20FA JUMP JUMPDEST SWAP2 SWAP1 SLOAD SWAP1 MLOAD SWAP2 PUSH1 0x3 SHL SHR DUP2 MSTORE RETURN JUMPDEST DUP4 DUP3 CALLVALUE PUSH2 0x2C0 JUMPI DUP2 PUSH1 0x3 NOT CALLDATASIZE ADD SLT PUSH2 0x2C0 JUMPI PUSH1 0x20 SWAP1 MLOAD PUSH32 0x0 DUP2 MSTORE RETURN JUMPDEST POP CALLVALUE PUSH2 0x26F JUMPI DUP3 PUSH1 0x3 NOT CALLDATASIZE ADD SLT PUSH2 0x26F JUMPI DUP1 MLOAD SWAP2 DUP4 PUSH1 0x7 SLOAD SWAP1 PUSH1 0x1 SWAP1 DUP3 PUSH1 0x1 SHR SWAP3 PUSH1 0x1 DUP2 AND DUP1 ISZERO PUSH2 0x146B JUMPI JUMPDEST PUSH1 0x20 SWAP6 DUP7 DUP7 LT DUP3 EQ PUSH2 0xCFA JUMPI POP DUP5 DUP9 MSTORE SWAP1 DUP2 ISZERO PUSH2 0xCD8 JUMPI POP PUSH1 0x1 EQ PUSH2 0x1412 JUMPI PUSH2 0xC7B DUP7 DUP7 PUSH2 0xC71 DUP3 DUP12 SUB DUP4 PUSH2 0x208F JUMP JUMPDEST SWAP3 SWAP6 POP PUSH1 0x7 DUP4 MSTORE PUSH32 0xA66CC928B5EDB82AF9BD49922954155AB7B0942694BEA4CE44661D9A8736C688 JUMPDEST DUP3 DUP5 LT PUSH2 0x1458 JUMPI POP POP POP DUP3 PUSH2 0xC7B SWAP5 PUSH2 0xC71 SWAP3 DUP3 ADD ADD SWAP5 CODESIZE PUSH2 0xC60 JUMP JUMPDEST DUP1 SLOAD DUP7 DUP6 ADD DUP9 ADD MSTORE SWAP3 DUP7 ADD SWAP3 DUP2 ADD PUSH2 0x143B JUMP JUMPDEST SWAP4 PUSH1 0x7F AND SWAP4 PUSH2 0x13E2 JUMP JUMPDEST DUP4 DUP3 CALLVALUE PUSH2 0x2C0 JUMPI DUP2 PUSH1 0x3 NOT CALLDATASIZE ADD SLT PUSH2 0x2C0 JUMPI PUSH1 0x20 SWAP1 PUSH1 0xFF PUSH1 0x3 SLOAD PUSH1 0x8 SHR AND SWAP1 MLOAD SWAP1 ISZERO ISZERO DUP2 MSTORE RETURN JUMPDEST DUP4 DUP3 CALLVALUE PUSH2 0x2C0 JUMPI DUP2 PUSH1 0x3 NOT CALLDATASIZE ADD SLT PUSH2 0x2C0 JUMPI MLOAD PUSH32 0x0 PUSH1 0x1 PUSH1 0x1 PUSH1 0xA0 SHL SUB AND DUP2 MSTORE PUSH1 0x20 SWAP1 RETURN JUMPDEST POP CALLVALUE PUSH2 0x26F JUMPI PUSH1 0x20 SWAP1 DUP2 PUSH1 0x3 NOT CALLDATASIZE ADD SLT PUSH2 0x624 JUMPI DUP3 CALLDATALOAD SWAP3 PUSH2 0x14FF PUSH2 0x282A JUMP JUMPDEST PUSH2 0x150E PUSH1 0xFF PUSH1 0x3 SLOAD AND ISZERO PUSH2 0x2477 JUMP JUMPDEST DUP4 DUP6 MSTORE PUSH1 0x9 DUP4 MSTORE DUP2 DUP6 KECCAK256 PUSH1 0x3 DUP2 ADD DUP1 SLOAD PUSH1 0x1 PUSH1 0x1 PUSH1 0xA0 SHL SUB SWAP4 SWAP3 SWAP2 SWAP1 PUSH2 0x1537 DUP6 DUP3 AND CALLER EQ PUSH2 0x24B4 JUMP JUMPDEST PUSH1 0xFF DUP2 PUSH1 0xA0 SHR AND PUSH2 0x1691 JUMPI PUSH1 0x1 DUP10 SWAP4 DUP9 SWAP4 DUP4 PUSH2 0x155C PUSH1 0xFF PUSH2 0x15BC SWAP7 PUSH1 0xA8 SHR AND ISZERO PUSH2 0x24F4 JUMP JUMPDEST PUSH1 0xFF PUSH1 0xA0 SHL NOT AND PUSH1 0xA0 DUP5 SWAP1 SHL OR SWAP1 SSTORE PUSH1 0x2 DUP2 ADD SLOAD DUP7 SLOAD PUSH2 0x157C SWAP2 SWAP1 PUSH2 0x217E JUMP JUMPDEST DUP7 SSTORE ADD SWAP5 PUSH2 0x158D DUP7 SLOAD PUSH1 0x5 SLOAD PUSH2 0x217E JUMP JUMPDEST PUSH1 0x5 SSTORE DUP6 SLOAD DUP8 MLOAD PUSH4 0xA9059CBB PUSH1 0xE0 SHL DUP2 MSTORE CALLER DUP8 DUP3 ADD SWAP1 DUP2 MSTORE PUSH1 0x20 DUP2 ADD SWAP3 SWAP1 SWAP3 MSTORE SWAP5 DUP6 SWAP4 DUP5 SWAP3 DUP4 SWAP2 PUSH1 0x40 SWAP1 SWAP2 ADD SWAP1 JUMP JUMPDEST SUB SWAP3 PUSH32 0x0 AND GAS CALL SWAP1 DUP2 ISZERO PUSH2 0x1687 JUMPI DUP8 SWAP2 PUSH2 0x166A JUMPI JUMPDEST POP ISZERO PUSH2 0x1637 JUMPI POP SLOAD SWAP2 PUSH1 0x5 SLOAD SWAP1 DUP3 MLOAD SWAP4 DUP5 MSTORE DUP4 ADD MSTORE TIMESTAMP SWAP1 DUP3 ADD MSTORE PUSH32 0x40AFC61AABCE83A502901D9DC66B15D1EE92BFCC1F4F56923B8434DCD041E19F PUSH1 0x60 CALLER SWAP3 LOG3 PUSH1 0x1 DUP2 SSTORE DUP1 RETURN JUMPDEST DUP3 MLOAD PUSH3 0x461BCD PUSH1 0xE5 SHL DUP2 MSTORE SWAP1 DUP2 ADD DUP5 SWAP1 MSTORE PUSH1 0xD PUSH1 0x24 DUP3 ADD MSTORE PUSH13 0x1499599D5B990819985A5B1959 PUSH1 0x9A SHL PUSH1 0x44 DUP3 ADD MSTORE PUSH1 0x64 SWAP1 REVERT JUMPDEST PUSH2 0x1681 SWAP2 POP DUP6 RETURNDATASIZE DUP8 GT PUSH2 0x526 JUMPI PUSH2 0x518 DUP2 DUP4 PUSH2 0x208F JUMP JUMPDEST CODESIZE PUSH2 0x15F0 JUMP JUMPDEST DUP5 MLOAD RETURNDATASIZE DUP10 DUP3 RETURNDATACOPY RETURNDATASIZE SWAP1 REVERT JUMPDEST DUP6 MLOAD PUSH3 0x461BCD PUSH1 0xE5 SHL DUP2 MSTORE DUP1 DUP6 ADD DUP9 SWAP1 MSTORE PUSH1 0x10 PUSH1 0x24 DUP3 ADD MSTORE PUSH16 0x105B1C9958591E481C99599D5B991959 PUSH1 0x82 SHL PUSH1 0x44 DUP3 ADD MSTORE PUSH1 0x64 SWAP1 REVERT JUMPDEST DUP4 DUP3 CALLVALUE PUSH2 0x2C0 JUMPI DUP2 PUSH1 0x3 NOT CALLDATASIZE ADD SLT PUSH2 0x2C0 JUMPI PUSH1 0x20 SWAP1 PUSH1 0xFF PUSH1 0x3 SLOAD AND SWAP1 MLOAD SWAP1 ISZERO ISZERO DUP2 MSTORE RETURN JUMPDEST DUP4 DUP3 CALLVALUE PUSH2 0x2C0 JUMPI DUP2 PUSH1 0x3 NOT CALLDATASIZE ADD SLT PUSH2 0x2C0 JUMPI MLOAD PUSH32 0x0 PUSH1 0x1 PUSH1 0x1 PUSH1 0xA0 SHL SUB AND DUP2 MSTORE PUSH1 0x20 SWAP1 RETURN JUMPDEST DUP4 DUP3 CALLVALUE PUSH2 0x2C0 JUMPI DUP2 PUSH1 0x3 NOT CALLDATASIZE ADD SLT PUSH2 0x2C0 JUMPI MLOAD PUSH32 0x0 PUSH1 0x1 PUSH1 0x1 PUSH1 0xA0 SHL SUB AND DUP2 MSTORE PUSH1 0x20 SWAP1 RETURN JUMPDEST DUP4 DUP3 CALLVALUE PUSH2 0x2C0 JUMPI DUP2 PUSH1 0x3 NOT CALLDATASIZE ADD SLT PUSH2 0x2C0 JUMPI PUSH1 0x20 SWAP1 PUSH2 0x1790 PUSH2 0x23D7 JUMP JUMPDEST SWAP1 MLOAD SWAP1 ISZERO ISZERO DUP2 MSTORE RETURN JUMPDEST POP CALLVALUE PUSH2 0x26F JUMPI DUP3 PUSH1 0x3 NOT CALLDATASIZE ADD SLT PUSH2 0x26F JUMPI PUSH1 0x3 SLOAD PUSH1 0xFF DUP2 PUSH1 0x8 SHR AND ISZERO PUSH2 0x1E65 JUMPI PUSH1 0xFF AND PUSH2 0x1E2F JUMPI PUSH2 0x17C8 PUSH2 0x26A2 JUMP JUMPDEST SWAP3 PUSH1 0x5 SLOAD SWAP4 PUSH2 0x17D7 DUP2 DUP7 PUSH2 0x217E JUMP JUMPDEST SWAP2 PUSH2 0x17E8 PUSH2 0x17E3 PUSH2 0x23D7 JUMP JUMPDEST PUSH2 0x2373 JUMP JUMPDEST DUP4 MLOAD PUSH4 0x70A08231 PUSH1 0xE0 SHL DUP1 DUP3 MSTORE ADDRESS DUP8 DUP4 ADD MSTORE PUSH1 0x20 SWAP8 PUSH1 0x1 PUSH1 0x1 PUSH1 0xA0 SHL SUB SWAP5 SWAP2 SWAP3 PUSH1 0x24 SWAP3 PUSH32 0x0 DUP8 AND SWAP3 SWAP1 SWAP2 SWAP1 DUP12 DUP3 DUP7 DUP2 DUP8 GAS STATICCALL SWAP2 DUP3 ISZERO PUSH2 0x1C71 JUMPI DUP8 SWAP3 PUSH2 0x1DFC JUMPI JUMPDEST POP PUSH2 0x1856 DUP12 SLOAD DUP1 SWAP4 LT ISZERO PUSH2 0x2373 JUMP JUMPDEST DUP8 PUSH32 0x0 AND SWAP6 DUP11 MLOAD SWAP1 DUP2 MSTORE ADDRESS DUP13 DUP3 ADD MSTORE DUP13 DUP2 DUP8 DUP2 DUP11 GAS STATICCALL SWAP1 DUP2 ISZERO PUSH2 0x1D7F JUMPI DUP9 SWAP2 PUSH2 0x1DCB JUMPI JUMPDEST POP LT PUSH2 0x1D89 JUMPI DUP9 MLOAD PUSH4 0x95EA7B3 PUSH1 0xE0 SHL DUP1 DUP3 MSTORE PUSH32 0x0 DUP10 AND PUSH1 0x1 PUSH1 0x1 PUSH1 0xA0 SHL SUB DUP2 AND DUP14 DUP5 ADD SWAP1 DUP2 MSTORE PUSH1 0x20 DUP2 ADD SWAP5 SWAP1 SWAP5 MSTORE SWAP3 SWAP1 SWAP2 SWAP1 DUP14 SWAP1 DUP3 SWAP1 DUP2 SWAP1 PUSH1 0x40 ADD SUB DUP2 DUP12 DUP10 GAS CALL SWAP1 DUP2 ISZERO PUSH2 0x1D7F JUMPI DUP9 SWAP2 PUSH2 0x1D62 JUMPI JUMPDEST POP ISZERO PUSH2 0x1D29 JUMPI DUP10 MLOAD SWAP1 DUP2 MSTORE PUSH1 0x1 PUSH1 0x1 PUSH1 0xA0 SHL SUB DUP3 AND DUP2 DUP13 ADD SWAP1 DUP2 MSTORE PUSH1 0x20 DUP2 ADD DUP11 SWAP1 MSTORE DUP13 SWAP1 DUP3 SWAP1 DUP2 SWAP1 PUSH1 0x40 ADD SUB DUP2 DUP11 DUP11 GAS CALL SWAP1 DUP2 ISZERO PUSH2 0x1C71 JUMPI DUP8 SWAP2 PUSH2 0x1D0C JUMPI JUMPDEST POP ISZERO PUSH2 0x1CD1 JUMPI PUSH2 0x19D3 PUSH32 0x0 PUSH2 0x19CE PUSH2 0x19C8 PUSH2 0x19C2 DUP4 PUSH32 0x0 PUSH32 0x0 PUSH2 0x27E2 JUMP JUMPDEST SWAP3 PUSH2 0x21C8 JUMP JUMPDEST DUP12 PUSH2 0x214B JUMP JUMPDEST PUSH2 0x215E JUMP JUMPDEST SWAP8 PUSH1 0x78 TIMESTAMP ADD SWAP1 DUP2 TIMESTAMP GT PUSH2 0x1CBF JUMPI DUP12 DUP9 PUSH1 0x60 SWAP5 DUP8 SWAP5 PUSH2 0x104 SWAP5 DUP16 MLOAD SWAP15 DUP16 SWAP8 DUP9 SWAP7 PUSH3 0xE8E337 PUSH1 0xE8 SHL DUP9 MSTORE DUP8 ADD MSTORE DUP13 DUP13 DUP8 ADD MSTORE DUP1 PUSH1 0x44 DUP8 ADD MSTORE DUP2 PUSH1 0x64 DUP8 ADD MSTORE PUSH1 0x84 DUP7 ADD MSTORE PUSH1 0xA4 DUP6 ADD MSTORE DUP13 PUSH32 0x0 AND PUSH1 0xC4 DUP6 ADD MSTORE PUSH1 0xE4 DUP5 ADD MSTORE GAS CALL SWAP7 DUP8 ISZERO PUSH2 0x1CB5 JUMPI DUP6 SWAP8 PUSH2 0x1C7B JUMPI JUMPDEST POP DUP1 PUSH2 0x1B7A JUMPI JUMPDEST POP PUSH1 0x3 DUP1 SLOAD PUSH1 0xFF NOT AND PUSH1 0x1 OR SWAP1 SSTORE DUP7 MLOAD PUSH4 0xE6A43905 PUSH1 0xE0 SHL DUP2 MSTORE SWAP8 DUP9 ADD MSTORE DUP7 ADD MSTORE DUP6 DUP6 PUSH1 0x44 DUP2 PUSH32 0x0 DUP7 AND GAS STATICCALL SWAP5 DUP6 ISZERO PUSH2 0x1B6E JUMPI DUP2 SWAP6 PUSH2 0x1B12 JUMPI JUMPDEST POP POP PUSH1 0x1 DUP1 SLOAD PUSH1 0x1 PUSH1 0x1 PUSH1 0xA0 SHL SUB NOT AND SWAP2 DUP6 AND SWAP2 DUP3 OR SWAP1 SSTORE DUP3 MLOAD PUSH1 0x1 PUSH1 0x1 PUSH1 0xA0 SHL SUB SWAP1 SWAP5 AND DUP5 MSTORE PUSH1 0x20 DUP5 ADD SWAP2 SWAP1 SWAP2 MSTORE SWAP2 PUSH32 0x4DB0962B68E799B508143F50800F1504D656CBD0FE6395510C0DCA385BFD8407 SWAP1 PUSH1 0x40 SWAP1 LOG1 MLOAD SWAP1 DUP2 MSTORE RETURN JUMPDEST SWAP1 SWAP2 SWAP5 POP DUP6 DUP2 DUP2 RETURNDATASIZE DUP4 GT PUSH2 0x1B67 JUMPI JUMPDEST PUSH2 0x1B2B DUP2 DUP4 PUSH2 0x208F JUMP JUMPDEST DUP2 ADD SUB SLT PUSH2 0x2C0 JUMPI MLOAD SWAP1 DUP5 DUP3 AND DUP3 SUB PUSH2 0x1094 JUMPI POP SWAP3 PUSH32 0x4DB0962B68E799B508143F50800F1504D656CBD0FE6395510C0DCA385BFD8407 CODESIZE PUSH2 0x1AB6 JUMP JUMPDEST POP RETURNDATASIZE PUSH2 0x1B21 JUMP JUMPDEST POP DUP4 MLOAD SWAP1 RETURNDATASIZE SWAP1 DUP3 RETURNDATACOPY RETURNDATASIZE SWAP1 REVERT JUMPDEST DUP8 MLOAD PUSH4 0xA9059CBB PUSH1 0xE0 SHL DUP2 MSTORE PUSH32 0x0 PUSH1 0x1 PUSH1 0x1 PUSH1 0xA0 SHL SUB DUP2 AND DUP12 DUP4 ADD SWAP1 DUP2 MSTORE PUSH1 0x20 DUP2 ADD DUP5 SWAP1 MSTORE SWAP1 SWAP2 SWAP1 DUP13 SWAP1 DUP3 SWAP1 DUP2 SWAP1 PUSH1 0x40 ADD SUB DUP2 DUP11 DUP11 GAS CALL SWAP1 DUP2 ISZERO PUSH2 0x1C71 JUMPI DUP8 SWAP2 PUSH2 0x1C54 JUMPI JUMPDEST POP ISZERO PUSH2 0x1C1A JUMPI PUSH32 0xEFC7F1F15BECFAEC7A3C17EEC78BE3FA7ADB45698F26FCFD25EFE1754C242331 SWAP2 DUP8 DUP11 SWAP3 DUP4 MLOAD SWAP3 DUP4 MSTORE AND DUP13 DUP3 ADD MSTORE LOG1 CODESIZE PUSH2 0x1A5D JUMP JUMPDEST DUP9 MLOAD PUSH3 0x461BCD PUSH1 0xE5 SHL DUP2 MSTORE DUP1 DUP12 ADD DUP13 SWAP1 MSTORE PUSH1 0x15 DUP2 DUP7 ADD MSTORE PUSH21 0x115CD8DC9BDDC81C995B19585CD94819985A5B1959 PUSH1 0x5A SHL PUSH1 0x44 DUP3 ADD MSTORE PUSH1 0x64 SWAP1 REVERT JUMPDEST PUSH2 0x1C6B SWAP2 POP DUP13 DUP14 RETURNDATASIZE LT PUSH2 0x526 JUMPI PUSH2 0x518 DUP2 DUP4 PUSH2 0x208F JUMP JUMPDEST CODESIZE PUSH2 0x1BDE JUMP JUMPDEST DUP11 MLOAD RETURNDATASIZE DUP10 DUP3 RETURNDATACOPY RETURNDATASIZE SWAP1 REVERT JUMPDEST SWAP1 SWAP7 POP PUSH1 0x60 DUP2 RETURNDATASIZE PUSH1 0x60 GT PUSH2 0x1CAD JUMPI JUMPDEST DUP2 PUSH2 0x1C97 PUSH1 0x60 SWAP4 DUP4 PUSH2 0x208F JUMP JUMPDEST DUP2 ADD SUB SLT PUSH2 0x1CA9 JUMPI DUP8 ADD MLOAD SWAP6 CODESIZE PUSH2 0x1A56 JUMP JUMPDEST DUP5 DUP1 REVERT JUMPDEST RETURNDATASIZE SWAP2 POP PUSH2 0x1C8A JUMP JUMPDEST DUP9 MLOAD RETURNDATASIZE DUP8 DUP3 RETURNDATACOPY RETURNDATASIZE SWAP1 REVERT JUMPDEST PUSH4 0x4E487B71 PUSH1 0xE0 SHL DUP9 MSTORE PUSH1 0x11 DUP13 MSTORE DUP6 DUP9 REVERT JUMPDEST DUP9 MLOAD PUSH3 0x461BCD PUSH1 0xE5 SHL DUP2 MSTORE DUP1 DUP12 ADD DUP13 SWAP1 MSTORE PUSH1 0x16 DUP2 DUP7 ADD MSTORE PUSH22 0x14185E5B595B9D08185C1C1C9BDD994819985A5B1959 PUSH1 0x52 SHL PUSH1 0x44 DUP3 ADD MSTORE PUSH1 0x64 SWAP1 REVERT JUMPDEST PUSH2 0x1D23 SWAP2 POP DUP13 DUP14 RETURNDATASIZE LT PUSH2 0x526 JUMPI PUSH2 0x518 DUP2 DUP4 PUSH2 0x208F JUMP JUMPDEST CODESIZE PUSH2 0x1947 JUMP JUMPDEST DUP10 MLOAD PUSH3 0x461BCD PUSH1 0xE5 SHL DUP2 MSTORE DUP1 DUP13 ADD DUP14 SWAP1 MSTORE PUSH1 0x14 DUP2 DUP8 ADD MSTORE PUSH20 0x151BDAD95B88185C1C1C9BDD994819985A5B1959 PUSH1 0x62 SHL PUSH1 0x44 DUP3 ADD MSTORE PUSH1 0x64 SWAP1 REVERT JUMPDEST PUSH2 0x1D79 SWAP2 POP DUP14 DUP1 RETURNDATASIZE LT PUSH2 0x526 JUMPI PUSH2 0x518 DUP2 DUP4 PUSH2 0x208F JUMP JUMPDEST CODESIZE PUSH2 0x1908 JUMP JUMPDEST DUP12 MLOAD RETURNDATASIZE DUP11 DUP3 RETURNDATACOPY RETURNDATASIZE SWAP1 REVERT JUMPDEST DUP9 MLOAD PUSH3 0x461BCD PUSH1 0xE5 SHL DUP2 MSTORE DUP1 DUP12 ADD DUP13 SWAP1 MSTORE PUSH1 0x1B DUP2 DUP7 ADD MSTORE PUSH32 0x496E73756666696369656E74207061796D656E7420746F6B656E730000000000 PUSH1 0x44 DUP3 ADD MSTORE PUSH1 0x64 SWAP1 REVERT JUMPDEST SWAP1 POP DUP13 DUP2 DUP2 RETURNDATASIZE DUP4 GT PUSH2 0x1DF5 JUMPI JUMPDEST PUSH2 0x1DE2 DUP2 DUP4 PUSH2 0x208F JUMP JUMPDEST DUP2 ADD SUB SLT PUSH2 0x1DF1 JUMPI MLOAD CODESIZE PUSH2 0x1899 JUMP JUMPDEST DUP8 DUP1 REVERT JUMPDEST POP RETURNDATASIZE PUSH2 0x1DD8 JUMP JUMPDEST SWAP1 SWAP2 POP DUP12 DUP2 DUP2 RETURNDATASIZE DUP4 GT PUSH2 0x1E28 JUMPI JUMPDEST PUSH2 0x1E14 DUP2 DUP4 PUSH2 0x208F JUMP JUMPDEST DUP2 ADD SUB SLT PUSH2 0x1E24 JUMPI MLOAD SWAP1 CODESIZE PUSH2 0x1847 JUMP JUMPDEST DUP7 DUP1 REVERT JUMPDEST POP RETURNDATASIZE PUSH2 0x1E0A JUMP JUMPDEST SWAP1 PUSH1 0x20 PUSH1 0x64 SWAP3 MLOAD SWAP2 PUSH3 0x461BCD PUSH1 0xE5 SHL DUP4 MSTORE DUP3 ADD MSTORE PUSH1 0x10 PUSH1 0x24 DUP3 ADD MSTORE PUSH16 0x105B1C9958591E4819195C1B1BDE5959 PUSH1 0x82 SHL PUSH1 0x44 DUP3 ADD MSTORE REVERT JUMPDEST DUP2 MLOAD PUSH3 0x461BCD PUSH1 0xE5 SHL DUP2 MSTORE PUSH1 0x20 DUP2 DUP6 ADD MSTORE PUSH1 0x12 PUSH1 0x24 DUP3 ADD MSTORE PUSH18 0x15185C99D95D081B9BDD081C995858DA1959 PUSH1 0x72 SHL PUSH1 0x44 DUP3 ADD MSTORE PUSH1 0x64 SWAP1 REVERT JUMPDEST POP DUP3 CALLVALUE PUSH2 0x1094 JUMPI PUSH1 0x20 CALLDATASIZE PUSH1 0x3 NOT ADD SLT PUSH2 0x1094 JUMPI POP PUSH2 0x32C PUSH1 0x20 SWAP3 CALLDATALOAD PUSH2 0x21D9 JUMP JUMPDEST POP CALLVALUE PUSH2 0x26F JUMPI DUP3 PUSH1 0x3 NOT CALLDATASIZE ADD SLT PUSH2 0x26F JUMPI DUP1 MLOAD PUSH4 0x70A08231 PUSH1 0xE0 SHL DUP2 MSTORE ADDRESS SWAP3 DUP2 ADD SWAP3 SWAP1 SWAP3 MSTORE PUSH1 0x20 DUP3 PUSH1 0x24 DUP2 PUSH32 0x0 PUSH1 0x1 PUSH1 0x1 PUSH1 0xA0 SHL SUB AND GAS STATICCALL SWAP2 DUP3 ISZERO PUSH2 0x27B JUMPI DUP4 SWAP3 PUSH2 0x23F JUMPI PUSH1 0x20 DUP4 DUP4 MLOAD SWAP1 DUP2 MSTORE RETURN JUMPDEST SWAP2 DUP5 SWAP2 POP CALLVALUE PUSH2 0x2C0 JUMPI PUSH1 0x20 SWAP4 DUP5 PUSH1 0x3 NOT CALLDATASIZE ADD SLT PUSH2 0x26F JUMPI PUSH2 0x1F4A PUSH2 0x2042 JUMP JUMPDEST PUSH1 0x1 PUSH1 0x1 PUSH1 0xA0 SHL SUB SWAP1 DUP2 AND DUP5 MSTORE PUSH1 0xA DUP7 MSTORE DUP3 DUP5 KECCAK256 DUP1 SLOAD DUP1 DUP8 MSTORE SWAP1 DUP6 MSTORE DUP7 DUP6 KECCAK256 SWAP2 SWAP3 SWAP2 DUP6 SWAP2 DUP8 SWAP1 DUP2 DUP11 ADD SWAP1 DUP5 JUMPDEST DUP12 DUP3 DUP3 LT PUSH2 0x202C JUMPI POP POP POP PUSH2 0x1F8D SWAP3 POP SUB DUP8 PUSH2 0x208F JUMP JUMPDEST DUP1 JUMPDEST DUP7 MLOAD DUP2 LT ISZERO PUSH2 0x2023 JUMPI DUP8 DUP2 PUSH1 0x5 SHL DUP9 ADD ADD MLOAD DUP3 MSTORE PUSH1 0x9 DUP9 MSTORE DUP5 DUP3 KECCAK256 DUP6 MLOAD SWAP1 PUSH2 0x1FB6 DUP3 PUSH2 0x205D JUMP JUMPDEST DUP1 SLOAD DUP3 MSTORE PUSH1 0x1 DUP2 ADD SLOAD DUP11 DUP4 ADD MSTORE PUSH1 0x2 DUP2 ADD SLOAD SWAP2 DUP3 DUP9 DUP3 ADD MSTORE PUSH1 0xC0 DUP7 PUSH1 0x3 DUP5 ADD SLOAD SWAP4 DUP10 DUP6 AND PUSH1 0x60 DUP6 ADD MSTORE PUSH1 0xFF PUSH1 0xA0 SWAP1 DUP1 DUP8 DUP4 SHR AND ISZERO SWAP7 DUP8 ISZERO PUSH1 0x80 DUP9 ADD MSTORE PUSH1 0xA8 SHR AND ISZERO ISZERO SWAP1 DUP6 ADD MSTORE ADD SLOAD SWAP2 ADD MSTORE PUSH2 0x200F JUMPI JUMPDEST POP PUSH1 0x1 ADD PUSH2 0x1F8F JUMP JUMPDEST PUSH2 0x201C SWAP1 PUSH1 0x1 SWAP3 SWAP8 PUSH2 0x2128 JUMP JUMPDEST SWAP6 SWAP1 PUSH2 0x2006 JUMP JUMPDEST DUP8 DUP7 DUP7 MLOAD SWAP1 DUP2 MSTORE RETURN JUMPDEST DUP6 SLOAD DUP5 MSTORE PUSH1 0x1 SWAP6 DUP7 ADD SWAP6 DUP13 SWAP6 POP SWAP4 ADD SWAP3 ADD PUSH2 0x1F76 JUMP JUMPDEST PUSH1 0x4 CALLDATALOAD SWAP1 PUSH1 0x1 PUSH1 0x1 PUSH1 0xA0 SHL SUB DUP3 AND DUP3 SUB PUSH2 0x2058 JUMPI JUMP JUMPDEST PUSH1 0x0 DUP1 REVERT JUMPDEST PUSH1 0xE0 DUP2 ADD SWAP1 DUP2 LT PUSH8 0xFFFFFFFFFFFFFFFF DUP3 GT OR PUSH2 0x2079 JUMPI PUSH1 0x40 MSTORE JUMP JUMPDEST PUSH4 0x4E487B71 PUSH1 0xE0 SHL PUSH1 0x0 MSTORE PUSH1 0x41 PUSH1 0x4 MSTORE PUSH1 0x24 PUSH1 0x0 REVERT JUMPDEST SWAP1 PUSH1 0x1F DUP1 NOT SWAP2 ADD AND DUP2 ADD SWAP1 DUP2 LT PUSH8 0xFFFFFFFFFFFFFFFF DUP3 GT OR PUSH2 0x2079 JUMPI PUSH1 0x40 MSTORE JUMP JUMPDEST PUSH1 0x20 DUP1 DUP3 MSTORE DUP3 MLOAD DUP2 DUP4 ADD DUP2 SWAP1 MSTORE SWAP1 SWAP4 SWAP3 PUSH1 0x0 JUMPDEST DUP3 DUP2 LT PUSH2 0x20E6 JUMPI POP POP PUSH1 0x40 SWAP3 SWAP4 POP PUSH1 0x0 DUP4 DUP3 DUP5 ADD ADD MSTORE PUSH1 0x1F DUP1 NOT SWAP2 ADD AND ADD ADD SWAP1 JUMP JUMPDEST DUP2 DUP2 ADD DUP7 ADD MLOAD DUP5 DUP3 ADD PUSH1 0x40 ADD MSTORE DUP6 ADD PUSH2 0x20C4 JUMP JUMPDEST DUP1 SLOAD DUP3 LT ISZERO PUSH2 0x2112 JUMPI PUSH1 0x0 MSTORE PUSH1 0x20 PUSH1 0x0 KECCAK256 ADD SWAP1 PUSH1 0x0 SWAP1 JUMP JUMPDEST PUSH4 0x4E487B71 PUSH1 0xE0 SHL PUSH1 0x0 MSTORE PUSH1 0x32 PUSH1 0x4 MSTORE PUSH1 0x24 PUSH1 0x0 REVERT JUMPDEST SWAP2 SWAP1 DUP3 ADD DUP1 SWAP3 GT PUSH2 0x2135 JUMPI JUMP JUMPDEST PUSH4 0x4E487B71 PUSH1 0xE0 SHL PUSH1 0x0 MSTORE PUSH1 0x11 PUSH1 0x4 MSTORE PUSH1 0x24 PUSH1 0x0 REVERT JUMPDEST DUP2 DUP2 MUL SWAP3 SWAP2 DUP2 ISZERO SWAP2 DUP5 DIV EQ OR ISZERO PUSH2 0x2135 JUMPI JUMP JUMPDEST DUP2 ISZERO PUSH2 0x2168 JUMPI DIV SWAP1 JUMP JUMPDEST PUSH4 0x4E487B71 PUSH1 0xE0 SHL PUSH1 0x0 MSTORE PUSH1 0x12 PUSH1 0x4 MSTORE PUSH1 0x24 PUSH1 0x0 REVERT JUMPDEST SWAP2 SWAP1 DUP3 SUB SWAP2 DUP3 GT PUSH2 0x2135 JUMPI JUMP JUMPDEST ISZERO PUSH2 0x2192 JUMPI JUMP JUMPDEST PUSH1 0x40 MLOAD PUSH3 0x461BCD PUSH1 0xE5 SHL DUP2 MSTORE PUSH1 0x20 PUSH1 0x4 DUP3 ADD MSTORE PUSH1 0xE PUSH1 0x24 DUP3 ADD MSTORE PUSH14 0x115E18D959591CC81D185C99D95D PUSH1 0x92 SHL PUSH1 0x44 DUP3 ADD MSTORE PUSH1 0x64 SWAP1 REVERT JUMPDEST PUSH1 0xFF AND PUSH1 0x4D DUP2 GT PUSH2 0x2135 JUMPI PUSH1 0xA EXP SWAP1 JUMP JUMPDEST PUSH1 0xC8 DUP2 MUL SWAP1 DUP1 DUP3 DIV PUSH1 0xC8 EQ DUP2 ISZERO OR ISZERO PUSH2 0x2135 JUMPI PUSH2 0x19CE PUSH2 0x2316 PUSH2 0x2268 PUSH2 0x2370 SWAP5 PUSH2 0x71B PUSH2 0x2710 DUP1 SWAP3 DIV SWAP2 PUSH2 0x71B PUSH2 0x2235 DUP5 DUP4 PUSH2 0x6D6 PUSH32 0x0 DUP13 PUSH2 0x214B JUMP JUMPDEST SWAP2 PUSH2 0x2260 PUSH32 0x0 DUP11 PUSH2 0x214B JUMP JUMPDEST DIV SWAP2 DUP9 PUSH2 0x217E JUMP JUMPDEST PUSH2 0x2310 PUSH1 0x5 SLOAD SWAP2 PUSH2 0x2310 PUSH2 0x227C DUP3 DUP6 PUSH2 0x2128 JUMP JUMPDEST PUSH2 0x22A9 PUSH32 0x0 DUP1 SWAP3 GT ISZERO PUSH2 0x218B JUMP JUMPDEST PUSH2 0x19CE PUSH2 0x22B4 PUSH2 0x2725 JUMP JUMPDEST SWAP6 PUSH2 0x230A PUSH32 0x0 SWAP6 PUSH2 0x2304 DUP8 PUSH32 0x0 PUSH2 0x217E JUMP JUMPDEST SWAP3 PUSH2 0x2128 JUMP JUMPDEST SWAP1 PUSH2 0x214B JUMP JUMPDEST SWAP1 PUSH2 0x2128 JUMP JUMPDEST PUSH1 0x1 SHR SWAP2 PUSH2 0x230A PUSH2 0x236A PUSH32 0x0 DUP1 SWAP4 PUSH32 0x0 SWAP1 PUSH2 0x27E2 JUMP JUMPDEST SWAP2 PUSH2 0x21C8 JUMP JUMPDEST SWAP1 JUMP JUMPDEST ISZERO PUSH2 0x237A JUMPI JUMP JUMPDEST PUSH1 0x40 MLOAD PUSH3 0x461BCD PUSH1 0xE5 SHL DUP2 MSTORE PUSH1 0x20 PUSH1 0x4 DUP3 ADD MSTORE PUSH1 0x18 PUSH1 0x24 DUP3 ADD MSTORE PUSH32 0x496E73756666696369656E742073616C6520746F6B656E730000000000000000 PUSH1 0x44 DUP3 ADD MSTORE PUSH1 0x64 SWAP1 REVERT JUMPDEST SWAP1 DUP2 PUSH1 0x20 SWAP2 SUB SLT PUSH2 0x2058 JUMPI MLOAD DUP1 ISZERO ISZERO DUP2 SUB PUSH2 0x2058 JUMPI SWAP1 JUMP JUMPDEST PUSH1 0x40 MLOAD PUSH4 0x70A08231 PUSH1 0xE0 SHL DUP2 MSTORE ADDRESS PUSH1 0x4 DUP3 ADD MSTORE PUSH1 0x20 DUP2 PUSH1 0x24 DUP2 PUSH32 0x0 PUSH1 0x1 PUSH1 0x1 PUSH1 0xA0 SHL SUB AND GAS STATICCALL SWAP1 DUP2 ISZERO PUSH2 0x246B JUMPI PUSH1 0x0 SWAP2 PUSH2 0x2439 JUMPI JUMPDEST POP PUSH2 0x2434 PUSH2 0x2533 JUMP JUMPDEST GT ISZERO SWAP1 JUMP JUMPDEST SWAP1 POP PUSH1 0x20 DUP2 RETURNDATASIZE PUSH1 0x20 GT PUSH2 0x2463 JUMPI JUMPDEST DUP2 PUSH2 0x2454 PUSH1 0x20 SWAP4 DUP4 PUSH2 0x208F JUMP JUMPDEST DUP2 ADD SUB SLT PUSH2 0x2058 JUMPI MLOAD CODESIZE PUSH2 0x242B JUMP JUMPDEST RETURNDATASIZE SWAP2 POP PUSH2 0x2447 JUMP JUMPDEST PUSH1 0x40 MLOAD RETURNDATASIZE PUSH1 0x0 DUP3 RETURNDATACOPY RETURNDATASIZE SWAP1 REVERT JUMPDEST ISZERO PUSH2 0x247E JUMPI JUMP JUMPDEST PUSH1 0x40 MLOAD PUSH3 0x461BCD PUSH1 0xE5 SHL DUP2 MSTORE PUSH1 0x20 PUSH1 0x4 DUP3 ADD MSTORE PUSH1 0xE PUSH1 0x24 DUP3 ADD MSTORE PUSH14 0x14D85B194818DBDB5C1B195D1959 PUSH1 0x92 SHL PUSH1 0x44 DUP3 ADD MSTORE PUSH1 0x64 SWAP1 REVERT JUMPDEST ISZERO PUSH2 0x24BB JUMPI JUMP JUMPDEST PUSH1 0x40 MLOAD PUSH3 0x461BCD PUSH1 0xE5 SHL DUP2 MSTORE PUSH1 0x20 PUSH1 0x4 DUP3 ADD MSTORE PUSH1 0x11 PUSH1 0x24 DUP3 ADD MSTORE PUSH17 0x2737BA103A343290383AB931B430B9B2B9 PUSH1 0x79 SHL PUSH1 0x44 DUP3 ADD MSTORE PUSH1 0x64 SWAP1 REVERT JUMPDEST ISZERO PUSH2 0x24FB JUMPI JUMP JUMPDEST PUSH1 0x40 MLOAD PUSH3 0x461BCD PUSH1 0xE5 SHL DUP2 MSTORE PUSH1 0x20 PUSH1 0x4 DUP3 ADD MSTORE PUSH1 0x10 PUSH1 0x24 DUP3 ADD MSTORE PUSH16 0x105B1C9958591E481C995919595B5959 PUSH1 0x82 SHL PUSH1 0x44 DUP3 ADD MSTORE PUSH1 0x64 SWAP1 REVERT JUMPDEST PUSH2 0x2710 PUSH32 0x0 DUP2 SUB DUP2 DUP2 GT PUSH2 0x2135 JUMPI PUSH2 0x258B PUSH32 0x0 DUP1 SWAP3 PUSH2 0x217E JUMP JUMPDEST PUSH32 0x0 SWAP3 DUP1 DUP5 MUL SWAP2 DUP5 DUP4 DIV DUP3 EQ DUP6 ISZERO OR ISZERO PUSH2 0x2135 JUMPI PUSH2 0x2659 PUSH2 0x230A PUSH2 0x236A PUSH2 0x2370 SWAP8 PUSH2 0x25DB PUSH2 0x19CE SWAP6 PUSH2 0x2310 SWAP9 PUSH2 0x215E JUMP JUMPDEST SWAP6 PUSH2 0x269B PUSH2 0x2694 PUSH32 0x0 SWAP9 PUSH2 0x19CE PUSH2 0x2687 PUSH2 0x2680 DUP13 PUSH32 0x0 SWAP12 DUP13 DUP1 SWAP3 PUSH32 0x0 PUSH2 0x27E2 JUMP JUMPDEST SWAP14 PUSH32 0x0 PUSH2 0x27E2 JUMP JUMPDEST DUP1 SWAP13 PUSH2 0x2128 JUMP JUMPDEST PUSH1 0x1 SHR SWAP2 PUSH2 0x230A DUP11 PUSH2 0x21C8 JUMP JUMPDEST SWAP10 DUP4 PUSH2 0x214B JUMP JUMPDEST DIV SWAP1 PUSH2 0x217E JUMP JUMPDEST PUSH2 0x2710 PUSH32 0x0 DUP2 SUB DUP2 DUP2 GT PUSH2 0x2135 JUMPI PUSH2 0x26FA PUSH32 0x0 DUP1 SWAP3 PUSH2 0x217E JUMP JUMPDEST SWAP1 PUSH1 0x5 SLOAD DUP4 DUP2 MUL SWAP1 DUP1 DUP3 DIV DUP6 EQ SWAP1 ISZERO OR ISZERO PUSH2 0x2135 JUMPI PUSH2 0x2721 SWAP3 PUSH2 0x271C SWAP2 PUSH2 0x215E JUMP JUMPDEST PUSH2 0x214B JUMP JUMPDEST DIV SWAP1 JUMP JUMPDEST PUSH1 0x5 SLOAD PUSH32 0x0 SWAP1 DUP2 DUP2 LT ISZERO PUSH2 0x27A8 JUMPI PUSH2 0x2310 PUSH2 0x2370 SWAP3 PUSH2 0x19CE PUSH32 0x0 SWAP4 PUSH2 0x271C DUP6 PUSH32 0x0 PUSH2 0x217E JUMP JUMPDEST POP POP PUSH32 0x0 SWAP1 JUMP JUMPDEST SWAP1 PUSH1 0xFF DUP1 SWAP2 AND SWAP2 AND SUB SWAP1 PUSH1 0xFF DUP3 GT PUSH2 0x2135 JUMPI JUMP JUMPDEST SWAP1 PUSH1 0xFF DUP4 AND PUSH1 0xFF DUP3 AND DUP2 DUP2 EQ PUSH2 0x2822 JUMPI LT PUSH2 0x2812 JUMPI PUSH2 0x2807 PUSH2 0x2370 SWAP4 PUSH2 0x280C SWAP3 PUSH2 0x27CE JUMP JUMPDEST PUSH2 0x21C8 JUMP JUMPDEST SWAP1 PUSH2 0x215E JUMP JUMPDEST PUSH2 0x2807 PUSH2 0x230A SWAP2 PUSH2 0x2370 SWAP5 PUSH2 0x27CE JUMP JUMPDEST POP POP POP SWAP1 POP SWAP1 JUMP JUMPDEST PUSH1 0x2 PUSH1 0x0 SLOAD EQ PUSH2 0x283B JUMPI PUSH1 0x2 PUSH1 0x0 SSTORE JUMP JUMPDEST PUSH1 0x40 MLOAD PUSH4 0x3EE5AEB5 PUSH1 0xE0 SHL DUP2 MSTORE PUSH1 0x4 SWAP1 REVERT INVALID LOG2 PUSH5 0x6970667358 0x22 SLT KECCAK256 0xCD 0xD7 GT 0xBD BASEFEE DIV 0xE4 0x26 GASLIMIT REVERT MSIZE 0xD8 BASEFEE 0xB1 STATICCALL 0xEC 0xB2 SELFDESTRUCT RETURN DUP7 PUSH23 0x8F54064F2B9B948CDF0C3D64736F6C63430008180033A6 PUSH13 0xC928B5EDB82AF9BD4992295415 GAS 0xB7 0xB0 SWAP5 0x26 SWAP5 0xBE LOG4 0xCE PREVRANDAO PUSH7 0x1D9A8736C688F3 0xF7 0xA9 INVALID CALLDATASIZE 0x4F 0xAA 0xB9 EXTCODESIZE 0x21 PUSH14 0xA50A3214154F22A0A2B415B23A84 0xC8 AND SWAP15 DUP12 PUSH4 0x6EE30000 "
        },
        "methodIdentifiers": {
          "OTTERPAD_DAO()": "edafc9af",
          "OTTERPAD_FEE_BPS()": "ef5ee995",
          "buy(uint256)": "d96a094a",
          "calculateTokensReceived(uint256)": "10d0ffdd",
          "checkSaleTokensRequired()": "5f655ea7",
          "deployToUniswap()": "12eff12c",
          "endPrice()": "b868723e",
          "escrowRakeBPS()": "b704a0c4",
          "foundersWallet()": "1bfaf155",
          "getAllocation(address)": "0e022923",
          "getCurrentPrice()": "eb91d37e",
          "getEscrowedAmount()": "8a19ecef",
          "getMinimumPurchase()": "af5b065a",
          "getPaymentTokenBalance()": "0f8c2798",
          "getSaleTokenBalance()": "f6a55a29",
          "getUserOrderIndices(address)": "bef08860",
          "hasSufficientSaleTokens()": "16c04948",
          "isDeployedToUniswap()": "25f97fb9",
          "lockLPTokenWallet()": "16c94b38",
          "orderCounter()": "b789bf52",
          "paymentToken()": "3013ce29",
          "purchases(uint256)": "8392fe31",
          "recoverStuckTokens(address,uint256)": "c596f3fe",
          "redeem(uint256)": "db006a75",
          "refund(uint256)": "278ecde1",
          "richInfoUrl()": "c7c8b437",
          "saleToken()": "e985e367",
          "startPrice()": "f1a9af89",
          "targetLiquidity()": "92258ec8",
          "targetReached()": "3bde5ba8",
          "title()": "4a79d50c",
          "totalActiveContributions()": "9513a0fd",
          "totalPaymentsIn()": "de7e3310",
          "totalTokensAllocated()": "c07f773a",
          "uniswapFactory()": "8bdb2afa",
          "uniswapPool()": "bdd3d825",
          "uniswapRouter()": "735de9f7",
          "upfrontRakeBPS()": "560b842c",
          "userOrderIndices(address,uint256)": "5a59c551"
        }
      }
    }
  }
}