{
  "contracts/MockERC20.sol": {
    "MockUniswapV2Factory": {
      "abi": [
        {
          "inputs": [
            {
              "internalType": "address",
              "name": "tokenA",
              "type": "address"
            },
            {
              "internalType": "address",
              "name": "tokenB",
              "type": "address"
            }
          ],
          "name": "createPair",
          "outputs": [
            {
              "internalType": "address",
              "name": "pair",
              "type": "address"
            }
          ],
          "stateMutability": "pure",
          "type": "function"
        },
        {
          "inputs": [
            {
              "internalType": "address",
              "name": "tokenA",
              "type": "address"
            },
            {
              "internalType": "address",
              "name": "tokenB",
              "type": "address"
            }
          ],
          "name": "getPair",
          "outputs": [
            {
              "internalType": "address",
              "name": "pair",
              "type": "address"
            }
          ],
          "stateMutability": "pure",
          "type": "function"
        }
      ],
      "evm": {
        "bytecode": {
          "linkReferences": {},
          "object": "6080806040523460145760a1908161001a8239f35b600080fdfe60806040526004361015601157600080fd5b60003560e01c8063c9c6539614602f5763e6a4390514602f57600080fd5b3460665760403660031901126066576001600160a01b03600435818116036066576024359081160360665760206040516112348152f35b600080fdfea2646970667358221220c22b1d26a35ac76d0e4503cd6efafe647d0c920dd438725e097970c7e0a1b2d764736f6c63430008180033",
          "opcodes": "PUSH1 0x80 DUP1 PUSH1 0x40 MSTORE CALLVALUE PUSH1 0x14 JUMPI PUSH1 0xA1 SWAP1 DUP2 PUSH2 0x1A DUP3 CODECOPY RETURN JUMPDEST PUSH1 0x0 DUP1 REVERT INVALID PUSH1 0x80 PUSH1 0x40 MSTORE PUSH1 0x4 CALLDATASIZE LT ISZERO PUSH1 0x11 JUMPI PUSH1 0x0 DUP1 REVERT JUMPDEST PUSH1 0x0 CALLDATALOAD PUSH1 0xE0 SHR DUP1 PUSH4 0xC9C65396 EQ PUSH1 0x2F JUMPI PUSH4 0xE6A43905 EQ PUSH1 0x2F JUMPI PUSH1 0x0 DUP1 REVERT JUMPDEST CALLVALUE PUSH1 0x66 JUMPI PUSH1 0x40 CALLDATASIZE PUSH1 0x3 NOT ADD SLT PUSH1 0x66 JUMPI PUSH1 0x1 PUSH1 0x1 PUSH1 0xA0 SHL SUB PUSH1 0x4 CALLDATALOAD DUP2 DUP2 AND SUB PUSH1 0x66 JUMPI PUSH1 0x24 CALLDATALOAD SWAP1 DUP2 AND SUB PUSH1 0x66 JUMPI PUSH1 0x20 PUSH1 0x40 MLOAD PUSH2 0x1234 DUP2 MSTORE RETURN JUMPDEST PUSH1 0x0 DUP1 REVERT INVALID LOG2 PUSH5 0x6970667358 0x22 SLT KECCAK256 0xC2 0x2B SAR 0x26 LOG3 GAS 0xC7 PUSH14 0xE4503CD6EFAFE647D0C920DD438 PUSH19 0x5E097970C7E0A1B2D764736F6C634300081800 CALLER "
        },
        "methodIdentifiers": {
          "createPair(address,address)": "c9c65396",
          "getPair(address,address)": "e6a43905"
        }
      }
    }
  }
}