{
  "contracts/OtterPadFactory.sol": {
    "OtterPadFactory": {
      "abi": [
        {
          "inputs": [
            {
              "internalType": "address",
              "name": "_uniswapRouter",
              "type": "address"
            },
            {
              "internalType": "address",
              "name": "_uniswapFactory",
              "type": "address"
            }
          ],
          "stateMutability": "nonpayable",
          "type": "constructor"
        },
        {
          "anonymous": false,
          "inputs": [
            {
              "indexed": true,
              "internalType": "uint256",
              "name": "fundIndex",
              "type": "uint256"
            },
            {
              "indexed": true,
              "internalType": "address",
              "name": "fund",
              "type": "address"
            },
            {
              "indexed": true,
              "internalType": "address",
              "name": "saleToken",
              "type": "address"
            },
            {
              "indexed": false,
              "internalType": "address",
              "name": "paymentToken",
              "type": "address"
            },
            {
              "indexed": false,
              "internalType": "string",
              "name": "title",
              "type": "string"
            },
            {
              "indexed": false,
              "internalType": "uint256",
              "name": "targetLiquidity",
              "type": "uint256"
            },
            {
              "indexed": false,
              "internalType": "uint256",
              "name": "upfrontRakeBPS",
              "type": "uint256"
            },
            {
              "indexed": false,
              "internalType": "uint256",
              "name": "escrowRakeBPS",
              "type": "uint256"
            },
            {
              "indexed": false,
              "internalType": "address",
              "name": "foundersWallet",
              "type": "address"
            },
            {
              "indexed": false,
              "internalType": "address",
              "name": "lockLPTokenWallet",
              "type": "address"
            }
          ],
          "name": "FundCreated",
          "type": "event"
        },
        {
          "inputs": [
            {
              "internalType": "uint256",
              "name": "upfrontRakeBPS",
              "type": "uint256"
            },
            {
              "internalType": "uint256",
              "name": "escrowRakeBPS",
              "type": "uint256"
            },
            {
              "internalType": "uint256",
              "name": "startPrice",
              "type": "uint256"
            },
            {
              "internalType": "uint256",
              "name": "endPrice",
              "type": "uint256"
            },
            {
              "internalType": "uint256",
              "name": "targetLiquidity",
              "type": "uint256"
            },
            {
              "internalType": "address",
              "name": "saleToken",
              "type": "address"
            },
            {
              "internalType": "address",
              "name": "paymentToken",
              "type": "address"
            },
            {
              "internalType": "address",
              "name": "foundersWallet",
              "type": "address"
            },
            {
              "internalType": "string",
              "name": "title",
              "type": "string"
            },
            {
              "internalType": "string",
              "name": "richInfoUrl",
              "type": "string"
            },
            {
              "internalType": "address",
              "name": "lockLPTokenWallet",
              "type": "address"
            }
          ],
          "name": "createFundraiser",
          "outputs": [
            {
              "internalType": "address",
              "name": "",
              "type": "address"
            }
          ],
          "stateMutability": "nonpayable",
          "type": "function"
        },
        {
          "inputs": [],
          "name": "fundCounterIndex",
          "outputs": [
            {
              "internalType": "uint256",
              "name": "",
              "type": "uint256"
            }
          ],
          "stateMutability": "view",
          "type": "function"
        },
        {
          "inputs": [
            {
              "internalType": "uint256",
              "name": "",
              "type": "uint256"
            }
          ],
          "name": "funds",
          "outputs": [
            {
              "internalType": "address",
              "name": "",
              "type": "address"
            }
          ],
          "stateMutability": "view",
          "type": "function"
        },
        {
          "inputs": [],
          "name": "uniswapFactory",
          "outputs": [
            {
              "internalType": "contract IUniswapV2Factory",
              "name": "",
              "type": "address"
            }
          ],
          "stateMutability": "view",
          "type": "function"
        },
        {
          "inputs": [],
          "name": "uniswapRouter",
          "outputs": [
            {
              "internalType": "contract IUniswapV2Router02",
              "name": "",
              "type": "address"
            }
          ],
          "stateMutability": "view",
          "type": "function"
        }
      ],
      "evm": {
        "bytecode": {
          "linkReferences": {},
          "object": "60c03461012f57601f61408538819003918201601f19168301916001600160401b0383118484101761013457808492604094855283398101031261012f57610052602061004b8361014a565b920161014a565b6001600160a01b03918216919082156100ea57169081156100a55760805260a0526003600055604051613f26908161015f823960805181818160f301526102ca015260a051818181607101526102f20152f35b60405162461bcd60e51b815260206004820152601760248201527f496e76616c696420666163746f727920616464726573730000000000000000006044820152606490fd5b60405162461bcd60e51b815260206004820152601660248201527f496e76616c696420726f757465722061646472657373000000000000000000006044820152606490fd5b600080fd5b634e487b7160e01b600052604160045260246000fd5b51906001600160a01b038216820361012f5756fe608060405260043610156200001357600080fd5b60003560e01c806334ad67f914620001425780634a64a9441462000122578063735de9f714620000db5780637b8e889514620000a557638bdb2afa146200005957600080fd5b34620000a0576000366003190112620000a0576040517f00000000000000000000000000000000000000000000000000000000000000006001600160a01b03168152602090f35b600080fd5b34620000a0576020366003190112620000a0576004356000526001602052602060018060a01b0360406000205416604051908152f35b34620000a0576000366003190112620000a0576040517f00000000000000000000000000000000000000000000000000000000000000006001600160a01b03168152602090f35b34620000a0576000366003190112620000a0576020600054604051908152f35b34620000a057610160366003190112620000a05760a4356001600160a01b0381168103620000a05760c4356001600160a01b0381168103620000a05760e4356001600160a01b0381168103620000a0576101043567ffffffffffffffff8111620000a057620001b690369060040162000626565b9167ffffffffffffffff6101243511620000a057620001dc366101243560040162000626565b6101443591906001600160a01b0383168303620000a0576001600160a01b03861615620005ec576001600160a01b03821615620005af576001600160a01b038416156200056a57845115620005375760443515620004fc576044356064351115620004ad57608435156200046857604051908161382181011067ffffffffffffffff613821840111176200045257620002a88291613821620006d084396101a06138218401818152620002919101896200068d565b90613821840182036020613821860101526200068d565b6001600160a01b038881166138218401604081019190915285821660608201527f0000000000000000000000000000000000000000000000000000000000000000821660808201527f0000000000000000000000000000000000000000000000000000000000000000821660a082015260443560c082015260643560e08201526084356101008201526004356101208201526024356101408201528782166101608201529086166101809091015203906000f090811562000446576000805480825260016020526040822080546001600160a01b0319166001600160a01b0390951694851790559054929590929160001983146200043057602097879560017fedb17e77a06c771f21ea1b2969a042eb427ec97720eea62b924476588115ab849501600055620003f260405194859460018060a01b0316855260e08c86015260e08501906200068d565b6084356040850152600435606085015260243560808501526001600160a01b0398891660a085015290881660c08401529616950390a4604051908152f35b634e487b7160e01b600052601160045260246000fd5b6040513d6000823e3d90fd5b634e487b7160e01b600052604160045260246000fd5b60405162461bcd60e51b815260206004820152601860248201527f496e76616c696420746172676574206c697175696469747900000000000000006044820152606490fd5b60405162461bcd60e51b815260206004820152602160248201527f456e64207072696365206d7573742065786365656420737461727420707269636044820152606560f81b6064820152608490fd5b60405162461bcd60e51b8152602060048201526013602482015272496e76616c696420737461727420707269636560681b6044820152606490fd5b60405162461bcd60e51b815260206004820152600b60248201526a456d707479207469746c6560a81b6044820152606490fd5b60405162461bcd60e51b815260206004820152601760248201527f496e76616c696420666f756e646572732077616c6c65740000000000000000006044820152606490fd5b60405162461bcd60e51b815260206004820152601560248201527424b73b30b634b2103830bcb6b2b73a103a37b5b2b760591b6044820152606490fd5b60405162461bcd60e51b815260206004820152601260248201527124b73b30b634b21039b0b632903a37b5b2b760711b6044820152606490fd5b81601f82011215620000a05780359067ffffffffffffffff92838311620004525760405193601f8401601f19908116603f0116850190811185821017620004525760405282845260208383010111620000a057816000926020809301838601378301015290565b919082519283825260005b848110620006ba575050826000602080949584010152601f8019910116010190565b6020818301810151848301820152016200069856fe6101e06040523462000cd45762003821803803809162000022826101e062000cd9565b6101e0396101e0016101a06101e082031262000cd4576101e0516001600160401b03811162000cd457816200005b916101e00162000cfd565b6102005190916001600160401b03821162000cd4576200007f916101e00162000cfd565b906200008d61022062000d73565b916200009b61024062000d73565b90620000a961026062000d73565b93620000b761028062000d73565b6102a0516102c0516102e05161030051610320516101009a9598909791969295939493929091620000ea61034062000d73565b99620000f861036062000d73565b9b600160005580511562000c9f578615158062000c95575b8062000c8b575b1562000c5557881562000c105760c88a1062000bbf578a8a01808b1162000ba957611b581062000b64576001600160a01b03958c87161562000b1f5786851615158062000b13575b1562000ace578686168786161462000a89578616908115158062000a7d575b1562000a38578051906001600160401b0382116200068857600a5490600182811c9216801562000a2d575b6020831014620006675781601f849311620009c9575b50602090601f83116001146200094f5760009262000943575b50508160011b916000199060031b1c191617600a555b82516001600160401b0381116200068857600b5493600185811c9516801562000938575b6020861014620006675784601f899611620008d9575b50602090601f8311600114620008475760009190836200083b575b50508160011b916000199060031b1c191617600b555b83831660805284831660a05260c0521660e05260405163313ce56760e01b81526020816004818786165afa8015620006c65760ff9160009162000817575b501660ff1960025416176002556040519063313ce56760e01b82526020826004818787165afa908115620006c65760ff60009286948491620007e1575b501660ff1960045416176004556004604051809481936395d89b4160e01b8352165afa908115620006c657600091620007c2575b508051906001600160401b0382116200068857600154600181811c91168015620007b7575b60208210146200066757601f811162000751575b50602090601f8311600114620006de576000939291849183620006d2575b50508160011b9184199060031b1c1916176001555b6004604051809481936395d89b4160e01b8352165afa908115620006c6576000916200069e575b5080516001600160401b0381116200068857600391825490600182811c921680156200067d575b6020831014620006675781601f8493116200060f575b50602090601f8311600114620005a55760009262000599575b50508160011b9160001990841b1c19161790555b6101c09687528752610120526101405261016052610180526101a05260405190612a31928362000dd08439608051838181610229015281816103740152818161048701528181610db001528181611a6101526125ff015260a051838181610778015281816116810152818161179201528181611ab201526120d3015260c0518381816113cb0152611b11015260e0518381816112370152611c680152518281816102c9015281816124d20152818161281a015261296801526101205182818161110b01528181611a18015281816124f8015281816127f40152818161298e01526129b601526101405182818161068e015281816111a4015281816111ff015281816119cd015281816124990152818161279a01526129340152610160518281816106dc01528181611485015281816124280152818161274501526128b601526101805182818161070d01528181611165015281816124530152818161277201526128e301526101a05182818161087701528181610d6e015281816118d20152611d590152518181816119160152611bfd0152f35b015190503880620003f1565b6000858152602081209350601f198516905b818110620005f65750908460019594939210620005dd575b505050811b01905562000405565b015160001983861b60f8161c19169055388080620005cf565b92936020600181928786015181550195019301620005b7565b909150836000526020600020601f840160051c810191602085106200065c575b90601f859493920160051c01905b8181106200064c5750620003d8565b600081558493506001016200063d565b90915081906200062f565b634e487b7160e01b600052602260045260246000fd5b91607f1691620003c2565b634e487b7160e01b600052604160045260246000fd5b620006bf91503d806000833e620006b6818362000cd9565b81019062000da3565b386200039b565b6040513d6000823e3d90fd5b0151905038806200035f565b90600160005260206000209160005b601f198516811062000738575091839160019360009695601f198116106200071f575b505050811b0160015562000374565b0151851960f88460031b161c1916905538808062000710565b91926020600181928685015181550194019201620006ed565b60016000527fb10e2d527612073b26eecdfd717e6a320cf44b4afac2b0732d9fcbe2b7fa0cf6601f840160051c810160208510620007af575b601f830160051c82018110620007a257505062000341565b600081556001016200078a565b50806200078a565b90607f16906200032d565b620007da91503d806000833e620006b6818362000cd9565b3862000308565b62000808915060203d6020116200080f575b620007ff818362000cd9565b81019062000d88565b38620002d4565b503d620007f3565b62000834915060203d6020116200080f57620007ff818362000cd9565b3862000297565b01519050388062000243565b600b6000908152601f19841696959493927f0175b7a638427703f0dbe7bb9bbf987a2551717b34e79f33b5b1008d1fa01db99290915b888110620008bd57508360019596979810620008a3575b505050811b01600b5562000259565b015160001960f88460031b161c1916905538808062000894565b8183015184558b9750600190930192602092830192016200087d565b909192939450600b6000526020600020601f840160051c810191602085106200092d575b90601f8a9796959493920160051c01905b8181106200091d575062000228565b600081558996506001016200090e565b9091508190620008fd565b94607f169462000212565b015190503880620001d8565b600a6000908152600080516020620038018339815191529350601f198516905b818110620009b0575090846001959493921062000996575b505050811b01600a55620001ee565b015160001960f88460031b161c1916905538808062000987565b929360206001819287860151815501950193016200096f565b600a60005290915060008051602062003801833981519152601f840160051c8101916020851062000a22575b90601f859493920160051c01905b81811062000a125750620001bf565b6000815584935060010162000a03565b9091508190620009f5565b91607f1691620001a9565b60405162461bcd60e51b815260206004820152601960248201527f496e76616c696420556e697377617020616464726573736573000000000000006044820152606490fd5b5086831615156200017e565b60405162461bcd60e51b815260206004820152601860248201527f546f6b656e73206d75737420626520646966666572656e7400000000000000006044820152606490fd5b60405162461bcd60e51b815260206004820152601760248201527f496e76616c696420746f6b656e206164647265737365730000000000000000006044820152606490fd5b5086861615156200015f565b60405162461bcd60e51b815260206004820152601760248201527f496e76616c696420666f756e646572732077616c6c65740000000000000000006044820152606490fd5b60405162461bcd60e51b815260206004820152601a60248201527f436f6d62696e65642072616b65203730252065786365656465640000000000006044820152606490fd5b634e487b7160e01b600052601160045260246000fd5b60405162461bcd60e51b8152602060048201526024808201527f557066726f6e742072616b65206d757374206265203e3d204f747465725061646044820152632066656560e01b6064820152608490fd5b60405162461bcd60e51b815260206004820152601660248201527f496e76616c6964207461726765742066756e64696e67000000000000000000006044820152606490fd5b60405162461bcd60e51b815260206004820152600e60248201526d496e76616c69642070726963657360901b6044820152606490fd5b5086881162000117565b5087151562000110565b60405162461bcd60e51b815260206004820152600d60248201526c496e76616c6964207469746c6560981b6044820152606490fd5b600080fd5b601f909101601f19168101906001600160401b038211908210176200068857604052565b919080601f8401121562000cd45782516001600160401b03811162000688576020906040519262000d3883601f19601f850116018562000cd9565b81845282828701011162000cd45760005b81811062000d5f57508260009394955001015290565b858101830151848201840152820162000d49565b51906001600160a01b038216820362000cd457565b9081602091031262000cd4575160ff8116810362000cd45790565b9060208282031262000cd45781516001600160401b03811162000cd45762000dcc920162000cfd565b9056fe608060408181526004908136101561001657600080fd5b600092833560e01c90816302a9e7141461222e575080630e022923146121145780630f8c2798146120a657806310d0ffdd1461208657806312eff12c1461196b57806316c049481461194557806316c94b38146119015780631bfaf155146118bd57806325f97fb914611899578063278ecde1146116b05780633013ce291461166c578063325cd7961461164b5780633bde5ba81461162457806344af14a8146115675780634a79d50c146114a8578063560b842c1461146d5780635a59c551146114175780635f655ea7146113fa578063735de9f7146113b657806373ee6084146112f75780638392fe31146112835780638a19ecef146112665780638bdb2afa1461122257806392258ec8146111e75780639513a0fd146111c8578063af5b065a14611188578063b704a0c41461114d578063b789bf521461112e578063b868723e146110f3578063bdd3d825146110c7578063bef0886014611017578063c07f773a14610ff8578063c596f3fe14610d46578063c7c8b43714610c43578063d96a094a14610654578063db006a75146103c2578063de7e3310146103a3578063e985e3671461035f578063eb91d37e1461033b578063edafc9af1461030c578063ef5ee995146102f0578063f1a9af89146102b15763f6a55a29146101fd57600080fd5b3461029b578260031936011261029b5780516370a0823160e01b815230928101929092526020826024817f00000000000000000000000000000000000000000000000000000000000000006001600160a01b03165afa9182156102a757839261026b575b6020838351908152f35b9091506020813d60201161029f575b816102876020938361229a565b8101031261029b5760209250519038610261565b8280fd5b3d915061027a565b81513d85823e3d90fd5b8382346102ec57816003193601126102ec57602090517f00000000000000000000000000000000000000000000000000000000000000008152f35b5080fd5b8382346102ec57816003193601126102ec576020905160c88152f35b8382346102ec57816003193601126102ec5760209051736c83e86e05697c995d718c1cfa3f9045a38c7cd48152f35b8382346102ec57816003193601126102ec5760209061035861292f565b9051908152f35b8382346102ec57816003193601126102ec57517f00000000000000000000000000000000000000000000000000000000000000006001600160a01b03168152602090f35b8382346102ec57816003193601126102ec576020906009549051908152f35b503461029b57602080600319360112610650578235926103e06129d8565b60065460ff8160081c16156106155760ff16156105d457838552600c82528285206003810180549092916001600160a01b03919061042183831633146126c1565b60ff8260a01c1661059c5760029061043f60ff8460a81c1615612701565b019384549182156105635760ff60a81b1916600160a81b179055855163a9059cbb60e01b815233848201908152602081019290925291859183919082908b90829060400103927f0000000000000000000000000000000000000000000000000000000000000000165af190811561055957879161052c575b50156104f15750907fd171fb179b26c49e23fe46eddd44d3048a1ad277b62144ac0725fbcf1dbf6d52915492519283523392a36001815580f35b835162461bcd60e51b81529081018390526015602482015274151bdad95b881d1c985b9cd9995c8819985a5b1959605a1b6044820152606490fd5b61054c9150843d8611610552575b610544818361229a565b8101906125cc565b386104b7565b503d61053a565b85513d89823e3d90fd5b875162461bcd60e51b815280860188905260136024820152724e6f20746f6b656e7320746f2072656465656d60681b6044820152606490fd5b865162461bcd60e51b8152808501879052601260248201527113dc99195c881dd85cc81c99599d5b99195960721b6044820152606490fd5b915162461bcd60e51b815291820152601760248201527f4e6f7420796574206465706c6f79656420746f204445580000000000000000006044820152606490fd5b50915162461bcd60e51b815291820152601660248201527515185c99d95d081b9bdd081c995858da1959081e595d60521b6044820152606490fd5b8380fd5b50903461029b57602080600319360112610650578135916106736129d8565b60ff60065461068482821615612684565b60081c16610c09577f000000000000000000000000000000000000000000000000000000000000000093620f424085048410610bcf5760c8840284810460c81485151715610bbc5761271080910461070781836107017f00000000000000000000000000000000000000000000000000000000000000008a612356565b04612389565b916107327f000000000000000000000000000000000000000000000000000000000000000088612356565b049361074b8561074685610746868c612389565b612389565b946107638961075c88600854612333565b1115612396565b61076c886123f8565b9360018060a01b0393847f000000000000000000000000000000000000000000000000000000000000000016908751936323b872dd60e01b855233868601528d60249530878201528d60448201528c8160648185895af1918215610bb15791610b94575b5015610b525788518c815260208101839052604081018590526060810191909152608081018a905233907fbefb6e85b11f40ee4d9e3e8bb0bedbc3d1eee123b1328c0ea0a4b842cbfff7499060a090a28c885163a9059cbb60e01b92838252736c83e86e05697c995d718c1cfa3f9045a38c7cd488830152868201528b8160448185885af1918215610b475791610b2a575b5015610af25787519081526001600160a01b037f0000000000000000000000000000000000000000000000000000000000000000168582019081526020810193909352918991839182908f90829060400103925af1908115610ae8578b91610acb575b5015610a89576005549660001993848914610a77579089848a8a8f8b90600d97600185016005558251966108f888612268565b87528787019384528287018d81526060880194338652608089019484865260a08a019480865260c08b0198438a528152600c8c5220985189555160018901555160028801556003870193511683549260ff60a01b9051151560a01b169160ff60a81b9051151560a81b169269ffffffffffffffffffff60b01b16171717905551910155338c5252848a209081549268010000000000000000841015610a66575050816109cd9160017fb176b33ad40225c8f67dc6ef0cba96c0c88f67afd36396e2198a3f48a44fc7a097969594018155612305565b819291549060031b9188831b921b19161790556109ec81600754612333565b600755610a416109fe85600854612333565b96879384600855610a1182600954612333565b6009555193849333974293869192608093969594919660a084019784526020840152604083015260608201520152565b0390a31015610a52575b6001815580f35b61010061ff00196006541617600655610a4b565b634e487b7160e01b8c52604190528afd5b634e487b7160e01b8c5260118452828cfd5b845162461bcd60e51b81529182018790526017908201527f557066726f6e74207472616e73666572206661696c65640000000000000000006044820152606490fd5b610ae29150883d8a1161055257610544818361229a565b386108c5565b86513d8d823e3d90fd5b875162461bcd60e51b81528086018b905260138186015272119959481d1c985b9cd9995c8819985a5b1959606a1b6044820152606490fd5b610b4191508b3d8d1161055257610544818361229a565b38610862565b8a51903d90823e3d90fd5b885162461bcd60e51b81528087018c90526017818701527f5061796d656e74207472616e73666572206661696c65640000000000000000006044820152606490fd5b610bab91508c8d3d1061055257610544818361229a565b386107d0565b8b51903d90823e3d90fd5b634e487b7160e01b875260118352602487fd5b91606492519162461bcd60e51b8352820152601660248201527542656c6f77206d696e696d756d20707572636861736560501b6044820152fd5b60649184519162461bcd60e51b8352820152601660248201527515185c99d95d08185b1c9958591e481c995858da195960521b6044820152fd5b503461029b578260031936011261029b5780519183600b54906001908260011c92600181168015610d3c575b6020958686108214610d295750848852908115610d075750600114610cae575b610caa8686610ca0828b038361229a565b51918291826122bc565b0390f35b929550600b83527f0175b7a638427703f0dbe7bb9bbf987a2551717b34e79f33b5b1008d1fa01db95b828410610cf45750505082610caa94610ca0928201019438610c8f565b8054868501880152928601928101610cd7565b60ff191687860152505050151560051b8301019250610ca082610caa38610c8f565b634e487b7160e01b845260229052602483fd5b93607f1693610c6f565b503461029b578060031936011261029b57610d5f61224d565b6024918235610d6c6129d8565b7f0000000000000000000000000000000000000000000000000000000000000000926001600160a01b03908185163303610fb65760ff6006541615610f74578116907f0000000000000000000000000000000000000000000000000000000000000000168114610f325782516370a0823160e01b815230878201526020949085818881865afa908115610f28579084918a91610ef3575b5010610eba57835163a9059cbb60e01b81526001600160a01b039091168782019081526020810193909352918491839182908a90829060400103925af1908115610eb0578691610e93575b5015610e5c57846001815580f35b5162461bcd60e51b81529283015260159082015274151bdad95b881c9958dbdd995c9e4819985a5b1959605a1b6044820152606490fd5b610eaa9150833d851161055257610544818361229a565b38610e4e565b82513d88823e3d90fd5b835162461bcd60e51b815280880186905260148188015273496e73756666696369656e742062616c616e636560601b6044820152606490fd5b809250878092503d8311610f21575b610f0c818361229a565b81010312610f1d5783905138610e03565b8880fd5b503d610f02565b85513d8b823e3d90fd5b825162461bcd60e51b81526020818801526019818701527f43616e6e6f74207265636f7665722073616c6520746f6b656e000000000000006044820152606490fd5b835162461bcd60e51b8152602081890152601b818801527f4e6f7420796574206465706c6f79656420746f20556e697377617000000000006044820152606490fd5b835162461bcd60e51b81526020818901526019818801527f4f6e6c7920666f756e646572732063616e207265636f766572000000000000006044820152606490fd5b8382346102ec57816003193601126102ec576020906007549051908152f35b5082346110c457602090816003193601126110c45782906001600160a01b0361103e61224d565b168152600d8352818120908251808584549182815201908194845286842090845b8181106110b0575050508161107591038261229a565b83519485948186019282875251809352850193925b82811061109957505050500390f35b83518552869550938101939281019260010161108a565b82548452928801926001928301920161105f565b80fd5b50903461029b578260031936011261029b5754905160089190911c6001600160a01b0316815260209150f35b8382346102ec57816003193601126102ec57602090517f00000000000000000000000000000000000000000000000000000000000000008152f35b8382346102ec57816003193601126102ec576020906005549051908152f35b8382346102ec57816003193601126102ec57602090517f00000000000000000000000000000000000000000000000000000000000000008152f35b8382346102ec57816003193601126102ec5760209051620f42407f0000000000000000000000000000000000000000000000000000000000000000048152f35b8382346102ec57816003193601126102ec576020906008549051908152f35b8382346102ec57816003193601126102ec57602090517f00000000000000000000000000000000000000000000000000000000000000008152f35b8382346102ec57816003193601126102ec57517f00000000000000000000000000000000000000000000000000000000000000006001600160a01b03168152602090f35b8382346102ec57816003193601126102ec576020906103586128b1565b503461029b57602036600319011261029b5760ff8160e09484358152600c602052208054936001820154936002830154916003840154930154948151968752602087015285015260018060a01b0381166060850152818160a01c161515608085015260a81c16151560a083015260c0820152f35b503461029b578260031936011261029b5780519183600354906001908260011c926001811680156113ac575b6020958686108214610d295750848852908115610d07575060011461135357610caa8686610ca0828b038361229a565b929550600383527fc2575a0e9e593c00f959f8c92f12db2869c3395a3b0502d05e2516446f71f85b5b8284106113995750505082610caa94610ca0928201019438610c8f565b805486850188015292860192810161137c565b93607f1693611323565b8382346102ec57816003193601126102ec57517f00000000000000000000000000000000000000000000000000000000000000006001600160a01b03168152602090f35b8382346102ec57816003193601126102ec57602090610358612740565b8382346102ec57806003193601126102ec5761143161224d565b6001600160a01b03168252600d602052808220805460243593908410156110c4575060209261145f91612305565b91905490519160031b1c8152f35b8382346102ec57816003193601126102ec57602090517f00000000000000000000000000000000000000000000000000000000000000008152f35b503461029b578260031936011261029b5780519183600a54906001908260011c9260018116801561155d575b6020958686108214610d295750848852908115610d07575060011461150457610caa8686610ca0828b038361229a565b929550600a83527fc65a7bb8d6351c1cf70c95a316cc6a92839c986682d98bc35f958f4883f9d2a85b82841061154a5750505082610caa94610ca0928201019438610c8f565b805486850188015292860192810161152d565b93607f16936114d4565b503461029b578260031936011261029b578051918360018054918260011c9260018116801561161a575b6020958686108214610d295750848852908115610d0757506001146115c157610caa8686610ca0828b038361229a565b929550600183527fb10e2d527612073b26eecdfd717e6a320cf44b4afac2b0732d9fcbe2b7fa0cf65b8284106116075750505082610caa94610ca0928201019438610c8f565b80548685018801529286019281016115ea565b93607f1693611591565b8382346102ec57816003193601126102ec5760209060ff60065460081c1690519015158152f35b5082346110c457806003193601126110c4575060ff60209254169051908152f35b8382346102ec57816003193601126102ec57517f00000000000000000000000000000000000000000000000000000000000000006001600160a01b03168152602090f35b503461029b5760209081600319360112610650578235926116cf6129d8565b6116de60ff6006541615612684565b838552600c83528185206003810180546001600160a01b039392919061170785821633146126c1565b60ff8160a01c16611863576001899388938361172c60ff61178e9660a81c1615612701565b60ff60a01b191660a084901b179055600281015460075461174d9190612389565b600755019461175f8654600854612389565b6008558554875163a9059cbb60e01b815233878201908152602081019290925294859384928391604090910190565b03927f0000000000000000000000000000000000000000000000000000000000000000165af190811561185957879161183c575b50156118095750549160085490825193845283015242908201527f40afc61aabce83a502901d9dc66b15d1ee92bfcc1f4f56923b8434dcd041e19f60603392a36001815580f35b825162461bcd60e51b8152908101849052600d60248201526c1499599d5b990819985a5b1959609a1b6044820152606490fd5b6118539150853d871161055257610544818361229a565b386117c2565b84513d89823e3d90fd5b855162461bcd60e51b8152808501889052601060248201526f105b1c9958591e481c99599d5b99195960821b6044820152606490fd5b8382346102ec57816003193601126102ec5760209060ff6006541690519015158152f35b8382346102ec57816003193601126102ec57517f00000000000000000000000000000000000000000000000000000000000000006001600160a01b03168152602090f35b8382346102ec57816003193601126102ec57517f00000000000000000000000000000000000000000000000000000000000000006001600160a01b03168152602090f35b8382346102ec57816003193601126102ec576020906119626125e4565b90519015158152f35b5082346110c457806003193601126110c45760065460ff8160081c161561204e5760ff166120185761199b6128b1565b916119ac6119a76125e4565b612580565b6119ba60ff600254166123e7565b936119c860ff8254166123e7565b6119f37f00000000000000000000000000000000000000000000000000000000000000009687612356565b90670de0b6b3a7640000918281029281840414901517156120055790611a3c611a42927f0000000000000000000000000000000000000000000000000000000000000000612356565b90612369565b82516370a0823160e01b80825230848301526020976001600160a01b037f0000000000000000000000000000000000000000000000000000000000000000811698909794959493602492908b8185818e5afa8015611e425788908790611fd4575b611aaf92501015612580565b887f00000000000000000000000000000000000000000000000000000000000000001693885190815230878201528b818581885afa908115611e42578691611fa3575b50611afd8383612333565b11611f6157875163095ea7b360e01b8082527f00000000000000000000000000000000000000000000000000000000000000008b166001600160a01b038116898401908152602081018b9052909392908e9082908f9082908c90829060400103925af1908115611f57578e8992611f3a575b505015611f005789519081526001600160a01b038316888201908152602081018390528d908290819060400103818a8a5af1908115611ef6578791611ed9575b5015611e9e576078420190814211611e8c5787876060948e948e610104958f519e8f98899762e8e33760e81b89528801528c8c880152806044880152816064880152608487015260a48601527f00000000000000000000000000000000000000000000000000000000000000001660c485015260e48401525af1958615611e82578496611e4c575b5080611d4b575b50600160ff19600654161760065585519763e6a4390560e01b8952848901528701528686604481887f0000000000000000000000000000000000000000000000000000000000000000165afa958615611d3f578196611d01575b50508054610100600160a81b031916600886901b610100600160a81b031617905581516001600160a01b038516815260208101919091527f4db0962b68e799b508143f50800f1504d656cbd0fe6395510c0dca385bfd84079080604081015b0390a15191168152f35b909195508681813d8311611d38575b611d1a818361229a565b810103126102ec57519084821682036110c457509381611cf7611c98565b503d611d10565b508351903d90823e3d90fd5b865163a9059cbb60e01b81527f00000000000000000000000000000000000000000000000000000000000000006001600160a01b038116878301908152602081018490529091908c9082908190604001038189895af1908115611e42578691611e25575b5015611deb577fefc7f1f15becfaec7a3c17eec78be3fa7adb45698f26fcfd25efe1754c242331918989928351928352168c820152a189611c3e565b875162461bcd60e51b81528087018c905260158185015274115cd8dc9bddc81c995b19585cd94819985a5b1959605a1b6044820152606490fd5b611e3c91508c8d3d1061055257610544818361229a565b8c611daf565b89513d88823e3d90fd5b9095506060813d606011611e7a575b81611e686060938361229a565b8101031261065057860151948a611c37565b3d9150611e5b565b87513d86823e3d90fd5b634e487b7160e01b8752601188528487fd5b885162461bcd60e51b81528088018d90526016818601527514185e5b595b9d08185c1c1c9bdd994819985a5b195960521b6044820152606490fd5b611ef091508d803d1061055257610544818361229a565b8d611baf565b8a513d89823e3d90fd5b50885162461bcd60e51b81528088018d905260148186015273151bdad95b88185c1c1c9bdd994819985a5b195960621b6044820152606490fd5b611f509250803d1061055257610544818361229a565b8e8e611b6f565b8b513d8a823e3d90fd5b875162461bcd60e51b81528087018c9052601b818501527f496e73756666696369656e74207061796d656e7420746f6b656e7300000000006044820152606490fd5b90508b81813d8311611fcd575b611fba818361229a565b81010312611fc957518c611af2565b8580fd5b503d611fb0565b50508b81813d8311611ffe575b611feb818361229a565b81010312611fc95787611aaf9151611aa3565b503d611fe1565b634e487b7160e01b855260118352602485fd5b815162461bcd60e51b8152602081850152601060248201526f105b1c9958591e4819195c1b1bde595960821b6044820152606490fd5b825162461bcd60e51b8152602081860152601260248201527115185c99d95d081b9bdd081c995858da195960721b6044820152606490fd5b5082346110c45760203660031901126110c45750610358602092356123f8565b503461029b578260031936011261029b5780516370a0823160e01b815230928101929092526020826024817f00000000000000000000000000000000000000000000000000000000000000006001600160a01b03165afa9182156102a757839261026b576020838351908152f35b509190346102ec576020928360031936011261029b5761213261224d565b6001600160a01b039081168452600d855281842082518154808252918652868620909594918591908790818a0190845b8b828210612218575050506121799250038761229a565b805b865181101561220f57878160051b880101518252600c88528482208551906121a282612268565b8054825260018101548a830152600281015491828882015260c086600384015493898516606085015260ff60a0908087831c1615968715608088015260a81c1615159085015201549101526121fb575b5060010161217b565b6122089060019297612333565b95906121f2565b87868651908152f35b855484526001958601958c955093019201612162565b8490346102ec57816003193601126102ec5760209060ff600254168152f35b600435906001600160a01b038216820361226357565b600080fd5b60e0810190811067ffffffffffffffff82111761228457604052565b634e487b7160e01b600052604160045260246000fd5b90601f8019910116810190811067ffffffffffffffff82111761228457604052565b6020808252825181830181905290939260005b8281106122f157505060409293506000838284010152601f8019910116010190565b8181018601518482016040015285016122cf565b805482101561231d5760005260206000200190600090565b634e487b7160e01b600052603260045260246000fd5b9190820180921161234057565b634e487b7160e01b600052601160045260246000fd5b8181029291811591840414171561234057565b8115612373570490565b634e487b7160e01b600052601260045260246000fd5b9190820391821161234057565b1561239d57565b60405162461bcd60e51b815260206004820152600e60248201526d115e18d959591cc81d185c99d95d60921b6044820152606490fd5b9060ff8091169116039060ff821161234057565b60ff16604d811161234057600a0a90565b60c8810281810460c8148215171561234057612480612533916107466127108092049161074661244d84836107017f00000000000000000000000000000000000000000000000000000000000000008b612356565b916124787f000000000000000000000000000000000000000000000000000000000000000089612356565b049187612389565b61252d6008549161252d6124948285612333565b6124c17f000000000000000000000000000000000000000000000000000000000000000080921115612396565b6125286124cc61292f565b956125227f00000000000000000000000000000000000000000000000000000000000000009561251c877f0000000000000000000000000000000000000000000000000000000000000000612389565b92612333565b90612356565b612369565b90612333565b60011c9060ff6002541660ff60045416908181101560001461256c57916125226125646125289361256996956123d3565b6123e7565b90565b9261252261256461256995611a3c946123d3565b1561258757565b60405162461bcd60e51b815260206004820152601860248201527f496e73756666696369656e742073616c6520746f6b656e7300000000000000006044820152606490fd5b90816020910312612263575180151581036122635790565b6040516370a0823160e01b81523060048201526020816024817f00000000000000000000000000000000000000000000000000000000000000006001600160a01b03165afa90811561267857600091612646575b50612641612740565b111590565b90506020813d602011612670575b816126616020938361229a565b81010312612263575138612638565b3d9150612654565b6040513d6000823e3d90fd5b1561268b57565b60405162461bcd60e51b815260206004820152600e60248201526d14d85b194818dbdb5c1b195d195960921b6044820152606490fd5b156126c857565b60405162461bcd60e51b81526020600482015260116024820152702737ba103a343290383ab931b430b9b2b960791b6044820152606490fd5b1561270857565b60405162461bcd60e51b815260206004820152601060248201526f105b1c9958591e481c995919595b595960821b6044820152606490fd5b6127107f00000000000000000000000000000000000000000000000000000000000000008103818111612340576127987f00000000000000000000000000000000000000000000000000000000000000008092612389565b7f00000000000000000000000000000000000000000000000000000000000000009083820291808304851490151715612340576127d491612369565b6127e260ff600254166123e7565b926127f160ff600454166123e7565b917f00000000000000000000000000000000000000000000000000000000000000009461283e867f0000000000000000000000000000000000000000000000000000000000000000612333565b60011c61284b8284612356565b92670de0b6b3a764000094858502948086048714901517156123405761288561287e61289196611a3c8a61288c97612356565b9883612356565b0490612389565b612356565b81810291818304149015171561234057611a3c61252d9261256995612356565b6127107f00000000000000000000000000000000000000000000000000000000000000008103818111612340576129097f00000000000000000000000000000000000000000000000000000000000000008092612389565b90600854838102908082048514901517156123405761292b9261288c91612369565b0490565b6008547f000000000000000000000000000000000000000000000000000000000000000090818110156129b25761252d612569926125287f00000000000000000000000000000000000000000000000000000000000000009361288c857f0000000000000000000000000000000000000000000000000000000000000000612389565b50507f000000000000000000000000000000000000000000000000000000000000000090565b6002600054146129e9576002600055565b604051633ee5aeb560e01b8152600490fdfea2646970667358221220ae3d8c9e985d4f999e845d77f200a753797002971b59580135513119e2befc2164736f6c63430008180033c65a7bb8d6351c1cf70c95a316cc6a92839c986682d98bc35f958f4883f9d2a8a2646970667358221220033fe3001724c45421e65b25cb9822c8c24a1d85494c1080ab644d7f67d71d8264736f6c63430008180033",
          "opcodes": "PUSH1 0xC0 CALLVALUE PUSH2 0x12F JUMPI PUSH1 0x1F PUSH2 0x4085 CODESIZE DUP2 SWAP1 SUB SWAP2 DUP3 ADD PUSH1 0x1F NOT AND DUP4 ADD SWAP2 PUSH1 0x1 PUSH1 0x1 PUSH1 0x40 SHL SUB DUP4 GT DUP5 DUP5 LT OR PUSH2 0x134 JUMPI DUP1 DUP5 SWAP3 PUSH1 0x40 SWAP5 DUP6 MSTORE DUP4 CODECOPY DUP2 ADD SUB SLT PUSH2 0x12F JUMPI PUSH2 0x52 PUSH1 0x20 PUSH2 0x4B DUP4 PUSH2 0x14A JUMP JUMPDEST SWAP3 ADD PUSH2 0x14A JUMP JUMPDEST PUSH1 0x1 PUSH1 0x1 PUSH1 0xA0 SHL SUB SWAP2 DUP3 AND SWAP2 SWAP1 DUP3 ISZERO PUSH2 0xEA JUMPI AND SWAP1 DUP2 ISZERO PUSH2 0xA5 JUMPI PUSH1 0x80 MSTORE PUSH1 0xA0 MSTORE PUSH1 0x3 PUSH1 0x0 SSTORE PUSH1 0x40 MLOAD PUSH2 0x3F26 SWAP1 DUP2 PUSH2 0x15F DUP3 CODECOPY PUSH1 0x80 MLOAD DUP2 DUP2 DUP2 PUSH1 0xF3 ADD MSTORE PUSH2 0x2CA ADD MSTORE PUSH1 0xA0 MLOAD DUP2 DUP2 DUP2 PUSH1 0x71 ADD MSTORE PUSH2 0x2F2 ADD MSTORE RETURN JUMPDEST PUSH1 0x40 MLOAD PUSH3 0x461BCD PUSH1 0xE5 SHL DUP2 MSTORE PUSH1 0x20 PUSH1 0x4 DUP3 ADD MSTORE PUSH1 0x17 PUSH1 0x24 DUP3 ADD MSTORE PUSH32 0x496E76616C696420666163746F72792061646472657373000000000000000000 PUSH1 0x44 DUP3 ADD MSTORE PUSH1 0x64 SWAP1 REVERT JUMPDEST PUSH1 0x40 MLOAD PUSH3 0x461BCD PUSH1 0xE5 SHL DUP2 MSTORE PUSH1 0x20 PUSH1 0x4 DUP3 ADD MSTORE PUSH1 0x16 PUSH1 0x24 DUP3 ADD MSTORE PUSH32 0x496E76616C696420726F75746572206164647265737300000000000000000000 PUSH1 0x44 DUP3 ADD MSTORE PUSH1 0x64 SWAP1 REVERT JUMPDEST PUSH1 0x0 DUP1 REVERT JUMPDEST PUSH4 0x4E487B71 PUSH1 0xE0 SHL PUSH1 0x0 MSTORE PUSH1 0x41 PUSH1 0x4 MSTORE PUSH1 0x24 PUSH1 0x0 REVERT JUMPDEST MLOAD SWAP1 PUSH1 0x1 PUSH1 0x1 PUSH1 0xA0 SHL SUB DUP3 AND DUP3 SUB PUSH2 0x12F JUMPI JUMP INVALID PUSH1 0x80 PUSH1 0x40 MSTORE PUSH1 0x4 CALLDATASIZE LT ISZERO PUSH3 0x13 JUMPI PUSH1 0x0 DUP1 REVERT JUMPDEST PUSH1 0x0 CALLDATALOAD PUSH1 0xE0 SHR DUP1 PUSH4 0x34AD67F9 EQ PUSH3 0x142 JUMPI DUP1 PUSH4 0x4A64A944 EQ PUSH3 0x122 JUMPI DUP1 PUSH4 0x735DE9F7 EQ PUSH3 0xDB JUMPI DUP1 PUSH4 0x7B8E8895 EQ PUSH3 0xA5 JUMPI PUSH4 0x8BDB2AFA EQ PUSH3 0x59 JUMPI PUSH1 0x0 DUP1 REVERT JUMPDEST CALLVALUE PUSH3 0xA0 JUMPI PUSH1 0x0 CALLDATASIZE PUSH1 0x3 NOT ADD SLT PUSH3 0xA0 JUMPI PUSH1 0x40 MLOAD PUSH32 0x0 PUSH1 0x1 PUSH1 0x1 PUSH1 0xA0 SHL SUB AND DUP2 MSTORE PUSH1 0x20 SWAP1 RETURN JUMPDEST PUSH1 0x0 DUP1 REVERT JUMPDEST CALLVALUE PUSH3 0xA0 JUMPI PUSH1 0x20 CALLDATASIZE PUSH1 0x3 NOT ADD SLT PUSH3 0xA0 JUMPI PUSH1 0x4 CALLDATALOAD PUSH1 0x0 MSTORE PUSH1 0x1 PUSH1 0x20 MSTORE PUSH1 0x20 PUSH1 0x1 DUP1 PUSH1 0xA0 SHL SUB PUSH1 0x40 PUSH1 0x0 KECCAK256 SLOAD AND PUSH1 0x40 MLOAD SWAP1 DUP2 MSTORE RETURN JUMPDEST CALLVALUE PUSH3 0xA0 JUMPI PUSH1 0x0 CALLDATASIZE PUSH1 0x3 NOT ADD SLT PUSH3 0xA0 JUMPI PUSH1 0x40 MLOAD PUSH32 0x0 PUSH1 0x1 PUSH1 0x1 PUSH1 0xA0 SHL SUB AND DUP2 MSTORE PUSH1 0x20 SWAP1 RETURN JUMPDEST CALLVALUE PUSH3 0xA0 JUMPI PUSH1 0x0 CALLDATASIZE PUSH1 0x3 NOT ADD SLT PUSH3 0xA0 JUMPI PUSH1 0x20 PUSH1 0x0 SLOAD PUSH1 0x40 MLOAD SWAP1 DUP2 MSTORE RETURN JUMPDEST CALLVALUE PUSH3 0xA0 JUMPI PUSH2 0x160 CALLDATASIZE PUSH1 0x3 NOT ADD SLT PUSH3 0xA0 JUMPI PUSH1 0xA4 CALLDATALOAD PUSH1 0x1 PUSH1 0x1 PUSH1 0xA0 SHL SUB DUP2 AND DUP2 SUB PUSH3 0xA0 JUMPI PUSH1 0xC4 CALLDATALOAD PUSH1 0x1 PUSH1 0x1 PUSH1 0xA0 SHL SUB DUP2 AND DUP2 SUB PUSH3 0xA0 JUMPI PUSH1 0xE4 CALLDATALOAD PUSH1 0x1 PUSH1 0x1 PUSH1 0xA0 SHL SUB DUP2 AND DUP2 SUB PUSH3 0xA0 JUMPI PUSH2 0x104 CALLDATALOAD PUSH8 0xFFFFFFFFFFFFFFFF DUP2 GT PUSH3 0xA0 JUMPI PUSH3 0x1B6 SWAP1 CALLDATASIZE SWAP1 PUSH1 0x4 ADD PUSH3 0x626 JUMP JUMPDEST SWAP2 PUSH8 0xFFFFFFFFFFFFFFFF PUSH2 0x124 CALLDATALOAD GT PUSH3 0xA0 JUMPI PUSH3 0x1DC CALLDATASIZE PUSH2 0x124 CALLDATALOAD PUSH1 0x4 ADD PUSH3 0x626 JUMP JUMPDEST PUSH2 0x144 CALLDATALOAD SWAP2 SWAP1 PUSH1 0x1 PUSH1 0x1 PUSH1 0xA0 SHL SUB DUP4 AND DUP4 SUB PUSH3 0xA0 JUMPI PUSH1 0x1 PUSH1 0x1 PUSH1 0xA0 SHL SUB DUP7 AND ISZERO PUSH3 0x5EC JUMPI PUSH1 0x1 PUSH1 0x1 PUSH1 0xA0 SHL SUB DUP3 AND ISZERO PUSH3 0x5AF JUMPI PUSH1 0x1 PUSH1 0x1 PUSH1 0xA0 SHL SUB DUP5 AND ISZERO PUSH3 0x56A JUMPI DUP5 MLOAD ISZERO PUSH3 0x537 JUMPI PUSH1 0x44 CALLDATALOAD ISZERO PUSH3 0x4FC JUMPI PUSH1 0x44 CALLDATALOAD PUSH1 0x64 CALLDATALOAD GT ISZERO PUSH3 0x4AD JUMPI PUSH1 0x84 CALLDATALOAD ISZERO PUSH3 0x468 JUMPI PUSH1 0x40 MLOAD SWAP1 DUP2 PUSH2 0x3821 DUP2 ADD LT PUSH8 0xFFFFFFFFFFFFFFFF PUSH2 0x3821 DUP5 ADD GT OR PUSH3 0x452 JUMPI PUSH3 0x2A8 DUP3 SWAP2 PUSH2 0x3821 PUSH3 0x6D0 DUP5 CODECOPY PUSH2 0x1A0 PUSH2 0x3821 DUP5 ADD DUP2 DUP2 MSTORE PUSH3 0x291 SWAP2 ADD DUP10 PUSH3 0x68D JUMP JUMPDEST SWAP1 PUSH2 0x3821 DUP5 ADD DUP3 SUB PUSH1 0x20 PUSH2 0x3821 DUP7 ADD ADD MSTORE PUSH3 0x68D JUMP JUMPDEST PUSH1 0x1 PUSH1 0x1 PUSH1 0xA0 SHL SUB DUP9 DUP2 AND PUSH2 0x3821 DUP5 ADD PUSH1 0x40 DUP2 ADD SWAP2 SWAP1 SWAP2 MSTORE DUP6 DUP3 AND PUSH1 0x60 DUP3 ADD MSTORE PUSH32 0x0 DUP3 AND PUSH1 0x80 DUP3 ADD MSTORE PUSH32 0x0 DUP3 AND PUSH1 0xA0 DUP3 ADD MSTORE PUSH1 0x44 CALLDATALOAD PUSH1 0xC0 DUP3 ADD MSTORE PUSH1 0x64 CALLDATALOAD PUSH1 0xE0 DUP3 ADD MSTORE PUSH1 0x84 CALLDATALOAD PUSH2 0x100 DUP3 ADD MSTORE PUSH1 0x4 CALLDATALOAD PUSH2 0x120 DUP3 ADD MSTORE PUSH1 0x24 CALLDATALOAD PUSH2 0x140 DUP3 ADD MSTORE DUP8 DUP3 AND PUSH2 0x160 DUP3 ADD MSTORE SWAP1 DUP7 AND PUSH2 0x180 SWAP1 SWAP2 ADD MSTORE SUB SWAP1 PUSH1 0x0 CREATE SWAP1 DUP2 ISZERO PUSH3 0x446 JUMPI PUSH1 0x0 DUP1 SLOAD DUP1 DUP3 MSTORE PUSH1 0x1 PUSH1 0x20 MSTORE PUSH1 0x40 DUP3 KECCAK256 DUP1 SLOAD PUSH1 0x1 PUSH1 0x1 PUSH1 0xA0 SHL SUB NOT AND PUSH1 0x1 PUSH1 0x1 PUSH1 0xA0 SHL SUB SWAP1 SWAP6 AND SWAP5 DUP6 OR SWAP1 SSTORE SWAP1 SLOAD SWAP3 SWAP6 SWAP1 SWAP3 SWAP2 PUSH1 0x0 NOT DUP4 EQ PUSH3 0x430 JUMPI PUSH1 0x20 SWAP8 DUP8 SWAP6 PUSH1 0x1 PUSH32 0xEDB17E77A06C771F21EA1B2969A042EB427EC97720EEA62B924476588115AB84 SWAP6 ADD PUSH1 0x0 SSTORE PUSH3 0x3F2 PUSH1 0x40 MLOAD SWAP5 DUP6 SWAP5 PUSH1 0x1 DUP1 PUSH1 0xA0 SHL SUB AND DUP6 MSTORE PUSH1 0xE0 DUP13 DUP7 ADD MSTORE PUSH1 0xE0 DUP6 ADD SWAP1 PUSH3 0x68D JUMP JUMPDEST PUSH1 0x84 CALLDATALOAD PUSH1 0x40 DUP6 ADD MSTORE PUSH1 0x4 CALLDATALOAD PUSH1 0x60 DUP6 ADD MSTORE PUSH1 0x24 CALLDATALOAD PUSH1 0x80 DUP6 ADD MSTORE PUSH1 0x1 PUSH1 0x1 PUSH1 0xA0 SHL SUB SWAP9 DUP10 AND PUSH1 0xA0 DUP6 ADD MSTORE SWAP1 DUP9 AND PUSH1 0xC0 DUP5 ADD MSTORE SWAP7 AND SWAP6 SUB SWAP1 LOG4 PUSH1 0x40 MLOAD SWAP1 DUP2 MSTORE RETURN JUMPDEST PUSH4 0x4E487B71 PUSH1 0xE0 SHL PUSH1 0x0 MSTORE PUSH1 0x11 PUSH1 0x4 MSTORE PUSH1 0x24 PUSH1 0x0 REVERT JUMPDEST PUSH1 0x40 MLOAD RETURNDATASIZE PUSH1 0x0 DUP3 RETURNDATACOPY RETURNDATASIZE SWAP1 REVERT JUMPDEST PUSH4 0x4E487B71 PUSH1 0xE0 SHL PUSH1 0x0 MSTORE PUSH1 0x41 PUSH1 0x4 MSTORE PUSH1 0x24 PUSH1 0x0 REVERT JUMPDEST PUSH1 0x40 MLOAD PUSH3 0x461BCD PUSH1 0xE5 SHL DUP2 MSTORE PUSH1 0x20 PUSH1 0x4 DUP3 ADD MSTORE PUSH1 0x18 PUSH1 0x24 DUP3 ADD MSTORE PUSH32 0x496E76616C696420746172676574206C69717569646974790000000000000000 PUSH1 0x44 DUP3 ADD MSTORE PUSH1 0x64 SWAP1 REVERT JUMPDEST PUSH1 0x40 MLOAD PUSH3 0x461BCD PUSH1 0xE5 SHL DUP2 MSTORE PUSH1 0x20 PUSH1 0x4 DUP3 ADD MSTORE PUSH1 0x21 PUSH1 0x24 DUP3 ADD MSTORE PUSH32 0x456E64207072696365206D757374206578636565642073746172742070726963 PUSH1 0x44 DUP3 ADD MSTORE PUSH1 0x65 PUSH1 0xF8 SHL PUSH1 0x64 DUP3 ADD MSTORE PUSH1 0x84 SWAP1 REVERT JUMPDEST PUSH1 0x40 MLOAD PUSH3 0x461BCD PUSH1 0xE5 SHL DUP2 MSTORE PUSH1 0x20 PUSH1 0x4 DUP3 ADD MSTORE PUSH1 0x13 PUSH1 0x24 DUP3 ADD MSTORE PUSH19 0x496E76616C6964207374617274207072696365 PUSH1 0x68 SHL PUSH1 0x44 DUP3 ADD MSTORE PUSH1 0x64 SWAP1 REVERT JUMPDEST PUSH1 0x40 MLOAD PUSH3 0x461BCD PUSH1 0xE5 SHL DUP2 MSTORE PUSH1 0x20 PUSH1 0x4 DUP3 ADD MSTORE PUSH1 0xB PUSH1 0x24 DUP3 ADD MSTORE PUSH11 0x456D707479207469746C65 PUSH1 0xA8 SHL PUSH1 0x44 DUP3 ADD MSTORE PUSH1 0x64 SWAP1 REVERT JUMPDEST PUSH1 0x40 MLOAD PUSH3 0x461BCD PUSH1 0xE5 SHL DUP2 MSTORE PUSH1 0x20 PUSH1 0x4 DUP3 ADD MSTORE PUSH1 0x17 PUSH1 0x24 DUP3 ADD MSTORE PUSH32 0x496E76616C696420666F756E646572732077616C6C6574000000000000000000 PUSH1 0x44 DUP3 ADD MSTORE PUSH1 0x64 SWAP1 REVERT JUMPDEST PUSH1 0x40 MLOAD PUSH3 0x461BCD PUSH1 0xE5 SHL DUP2 MSTORE PUSH1 0x20 PUSH1 0x4 DUP3 ADD MSTORE PUSH1 0x15 PUSH1 0x24 DUP3 ADD MSTORE PUSH21 0x24B73B30B634B2103830BCB6B2B73A103A37B5B2B7 PUSH1 0x59 SHL PUSH1 0x44 DUP3 ADD MSTORE PUSH1 0x64 SWAP1 REVERT JUMPDEST PUSH1 0x40 MLOAD PUSH3 0x461BCD PUSH1 0xE5 SHL DUP2 MSTORE PUSH1 0x20 PUSH1 0x4 DUP3 ADD MSTORE PUSH1 0x12 PUSH1 0x24 DUP3 ADD MSTORE PUSH18 0x24B73B30B634B21039B0B632903A37B5B2B7 PUSH1 0x71 SHL PUSH1 0x44 DUP3 ADD MSTORE PUSH1 0x64 SWAP1 REVERT JUMPDEST DUP2 PUSH1 0x1F DUP3 ADD SLT ISZERO PUSH3 0xA0 JUMPI DUP1 CALLDATALOAD SWAP1 PUSH8 0xFFFFFFFFFFFFFFFF SWAP3 DUP4 DUP4 GT PUSH3 0x452 JUMPI PUSH1 0x40 MLOAD SWAP4 PUSH1 0x1F DUP5 ADD PUSH1 0x1F NOT SWAP1 DUP2 AND PUSH1 0x3F ADD AND DUP6 ADD SWAP1 DUP2 GT DUP6 DUP3 LT OR PUSH3 0x452 JUMPI PUSH1 0x40 MSTORE DUP3 DUP5 MSTORE PUSH1 0x20 DUP4 DUP4 ADD ADD GT PUSH3 0xA0 JUMPI DUP2 PUSH1 0x0 SWAP3 PUSH1 0x20 DUP1 SWAP4 ADD DUP4 DUP7 ADD CALLDATACOPY DUP4 ADD ADD MSTORE SWAP1 JUMP JUMPDEST SWAP2 SWAP1 DUP3 MLOAD SWAP3 DUP4 DUP3 MSTORE PUSH1 0x0 JUMPDEST DUP5 DUP2 LT PUSH3 0x6BA JUMPI POP POP DUP3 PUSH1 0x0 PUSH1 0x20 DUP1 SWAP5 SWAP6 DUP5 ADD ADD MSTORE PUSH1 0x1F DUP1 NOT SWAP2 ADD AND ADD ADD SWAP1 JUMP JUMPDEST PUSH1 0x20 DUP2 DUP4 ADD DUP2 ADD MLOAD DUP5 DUP4 ADD DUP3 ADD MSTORE ADD PUSH3 0x698 JUMP INVALID PUSH2 0x1E0 PUSH1 0x40 MSTORE CALLVALUE PUSH3 0xCD4 JUMPI PUSH3 0x3821 DUP1 CODESIZE SUB DUP1 SWAP2 PUSH3 0x22 DUP3 PUSH2 0x1E0 PUSH3 0xCD9 JUMP JUMPDEST PUSH2 0x1E0 CODECOPY PUSH2 0x1E0 ADD PUSH2 0x1A0 PUSH2 0x1E0 DUP3 SUB SLT PUSH3 0xCD4 JUMPI PUSH2 0x1E0 MLOAD PUSH1 0x1 PUSH1 0x1 PUSH1 0x40 SHL SUB DUP2 GT PUSH3 0xCD4 JUMPI DUP2 PUSH3 0x5B SWAP2 PUSH2 0x1E0 ADD PUSH3 0xCFD JUMP JUMPDEST PUSH2 0x200 MLOAD SWAP1 SWAP2 PUSH1 0x1 PUSH1 0x1 PUSH1 0x40 SHL SUB DUP3 GT PUSH3 0xCD4 JUMPI PUSH3 0x7F SWAP2 PUSH2 0x1E0 ADD PUSH3 0xCFD JUMP JUMPDEST SWAP1 PUSH3 0x8D PUSH2 0x220 PUSH3 0xD73 JUMP JUMPDEST SWAP2 PUSH3 0x9B PUSH2 0x240 PUSH3 0xD73 JUMP JUMPDEST SWAP1 PUSH3 0xA9 PUSH2 0x260 PUSH3 0xD73 JUMP JUMPDEST SWAP4 PUSH3 0xB7 PUSH2 0x280 PUSH3 0xD73 JUMP JUMPDEST PUSH2 0x2A0 MLOAD PUSH2 0x2C0 MLOAD PUSH2 0x2E0 MLOAD PUSH2 0x300 MLOAD PUSH2 0x320 MLOAD PUSH2 0x100 SWAP11 SWAP6 SWAP9 SWAP1 SWAP8 SWAP2 SWAP7 SWAP3 SWAP6 SWAP4 SWAP5 SWAP4 SWAP3 SWAP1 SWAP2 PUSH3 0xEA PUSH2 0x340 PUSH3 0xD73 JUMP JUMPDEST SWAP10 PUSH3 0xF8 PUSH2 0x360 PUSH3 0xD73 JUMP JUMPDEST SWAP12 PUSH1 0x1 PUSH1 0x0 SSTORE DUP1 MLOAD ISZERO PUSH3 0xC9F JUMPI DUP7 ISZERO ISZERO DUP1 PUSH3 0xC95 JUMPI JUMPDEST DUP1 PUSH3 0xC8B JUMPI JUMPDEST ISZERO PUSH3 0xC55 JUMPI DUP9 ISZERO PUSH3 0xC10 JUMPI PUSH1 0xC8 DUP11 LT PUSH3 0xBBF JUMPI DUP11 DUP11 ADD DUP1 DUP12 GT PUSH3 0xBA9 JUMPI PUSH2 0x1B58 LT PUSH3 0xB64 JUMPI PUSH1 0x1 PUSH1 0x1 PUSH1 0xA0 SHL SUB SWAP6 DUP13 DUP8 AND ISZERO PUSH3 0xB1F JUMPI DUP7 DUP6 AND ISZERO ISZERO DUP1 PUSH3 0xB13 JUMPI JUMPDEST ISZERO PUSH3 0xACE JUMPI DUP7 DUP7 AND DUP8 DUP7 AND EQ PUSH3 0xA89 JUMPI DUP7 AND SWAP1 DUP2 ISZERO ISZERO DUP1 PUSH3 0xA7D JUMPI JUMPDEST ISZERO PUSH3 0xA38 JUMPI DUP1 MLOAD SWAP1 PUSH1 0x1 PUSH1 0x1 PUSH1 0x40 SHL SUB DUP3 GT PUSH3 0x688 JUMPI PUSH1 0xA SLOAD SWAP1 PUSH1 0x1 DUP3 DUP2 SHR SWAP3 AND DUP1 ISZERO PUSH3 0xA2D JUMPI JUMPDEST PUSH1 0x20 DUP4 LT EQ PUSH3 0x667 JUMPI DUP2 PUSH1 0x1F DUP5 SWAP4 GT PUSH3 0x9C9 JUMPI JUMPDEST POP PUSH1 0x20 SWAP1 PUSH1 0x1F DUP4 GT PUSH1 0x1 EQ PUSH3 0x94F JUMPI PUSH1 0x0 SWAP3 PUSH3 0x943 JUMPI JUMPDEST POP POP DUP2 PUSH1 0x1 SHL SWAP2 PUSH1 0x0 NOT SWAP1 PUSH1 0x3 SHL SHR NOT AND OR PUSH1 0xA SSTORE JUMPDEST DUP3 MLOAD PUSH1 0x1 PUSH1 0x1 PUSH1 0x40 SHL SUB DUP2 GT PUSH3 0x688 JUMPI PUSH1 0xB SLOAD SWAP4 PUSH1 0x1 DUP6 DUP2 SHR SWAP6 AND DUP1 ISZERO PUSH3 0x938 JUMPI JUMPDEST PUSH1 0x20 DUP7 LT EQ PUSH3 0x667 JUMPI DUP5 PUSH1 0x1F DUP10 SWAP7 GT PUSH3 0x8D9 JUMPI JUMPDEST POP PUSH1 0x20 SWAP1 PUSH1 0x1F DUP4 GT PUSH1 0x1 EQ PUSH3 0x847 JUMPI PUSH1 0x0 SWAP2 SWAP1 DUP4 PUSH3 0x83B JUMPI JUMPDEST POP POP DUP2 PUSH1 0x1 SHL SWAP2 PUSH1 0x0 NOT SWAP1 PUSH1 0x3 SHL SHR NOT AND OR PUSH1 0xB SSTORE JUMPDEST DUP4 DUP4 AND PUSH1 0x80 MSTORE DUP5 DUP4 AND PUSH1 0xA0 MSTORE PUSH1 0xC0 MSTORE AND PUSH1 0xE0 MSTORE PUSH1 0x40 MLOAD PUSH4 0x313CE567 PUSH1 0xE0 SHL DUP2 MSTORE PUSH1 0x20 DUP2 PUSH1 0x4 DUP2 DUP8 DUP7 AND GAS STATICCALL DUP1 ISZERO PUSH3 0x6C6 JUMPI PUSH1 0xFF SWAP2 PUSH1 0x0 SWAP2 PUSH3 0x817 JUMPI JUMPDEST POP AND PUSH1 0xFF NOT PUSH1 0x2 SLOAD AND OR PUSH1 0x2 SSTORE PUSH1 0x40 MLOAD SWAP1 PUSH4 0x313CE567 PUSH1 0xE0 SHL DUP3 MSTORE PUSH1 0x20 DUP3 PUSH1 0x4 DUP2 DUP8 DUP8 AND GAS STATICCALL SWAP1 DUP2 ISZERO PUSH3 0x6C6 JUMPI PUSH1 0xFF PUSH1 0x0 SWAP3 DUP7 SWAP5 DUP5 SWAP2 PUSH3 0x7E1 JUMPI JUMPDEST POP AND PUSH1 0xFF NOT PUSH1 0x4 SLOAD AND OR PUSH1 0x4 SSTORE PUSH1 0x4 PUSH1 0x40 MLOAD DUP1 SWAP5 DUP2 SWAP4 PUSH4 0x95D89B41 PUSH1 0xE0 SHL DUP4 MSTORE AND GAS STATICCALL SWAP1 DUP2 ISZERO PUSH3 0x6C6 JUMPI PUSH1 0x0 SWAP2 PUSH3 0x7C2 JUMPI JUMPDEST POP DUP1 MLOAD SWAP1 PUSH1 0x1 PUSH1 0x1 PUSH1 0x40 SHL SUB DUP3 GT PUSH3 0x688 JUMPI PUSH1 0x1 SLOAD PUSH1 0x1 DUP2 DUP2 SHR SWAP2 AND DUP1 ISZERO PUSH3 0x7B7 JUMPI JUMPDEST PUSH1 0x20 DUP3 LT EQ PUSH3 0x667 JUMPI PUSH1 0x1F DUP2 GT PUSH3 0x751 JUMPI JUMPDEST POP PUSH1 0x20 SWAP1 PUSH1 0x1F DUP4 GT PUSH1 0x1 EQ PUSH3 0x6DE JUMPI PUSH1 0x0 SWAP4 SWAP3 SWAP2 DUP5 SWAP2 DUP4 PUSH3 0x6D2 JUMPI JUMPDEST POP POP DUP2 PUSH1 0x1 SHL SWAP2 DUP5 NOT SWAP1 PUSH1 0x3 SHL SHR NOT AND OR PUSH1 0x1 SSTORE JUMPDEST PUSH1 0x4 PUSH1 0x40 MLOAD DUP1 SWAP5 DUP2 SWAP4 PUSH4 0x95D89B41 PUSH1 0xE0 SHL DUP4 MSTORE AND GAS STATICCALL SWAP1 DUP2 ISZERO PUSH3 0x6C6 JUMPI PUSH1 0x0 SWAP2 PUSH3 0x69E JUMPI JUMPDEST POP DUP1 MLOAD PUSH1 0x1 PUSH1 0x1 PUSH1 0x40 SHL SUB DUP2 GT PUSH3 0x688 JUMPI PUSH1 0x3 SWAP2 DUP3 SLOAD SWAP1 PUSH1 0x1 DUP3 DUP2 SHR SWAP3 AND DUP1 ISZERO PUSH3 0x67D JUMPI JUMPDEST PUSH1 0x20 DUP4 LT EQ PUSH3 0x667 JUMPI DUP2 PUSH1 0x1F DUP5 SWAP4 GT PUSH3 0x60F JUMPI JUMPDEST POP PUSH1 0x20 SWAP1 PUSH1 0x1F DUP4 GT PUSH1 0x1 EQ PUSH3 0x5A5 JUMPI PUSH1 0x0 SWAP3 PUSH3 0x599 JUMPI JUMPDEST POP POP DUP2 PUSH1 0x1 SHL SWAP2 PUSH1 0x0 NOT SWAP1 DUP5 SHL SHR NOT AND OR SWAP1 SSTORE JUMPDEST PUSH2 0x1C0 SWAP7 DUP8 MSTORE DUP8 MSTORE PUSH2 0x120 MSTORE PUSH2 0x140 MSTORE PUSH2 0x160 MSTORE PUSH2 0x180 MSTORE PUSH2 0x1A0 MSTORE PUSH1 0x40 MLOAD SWAP1 PUSH2 0x2A31 SWAP3 DUP4 PUSH3 0xDD0 DUP5 CODECOPY PUSH1 0x80 MLOAD DUP4 DUP2 DUP2 PUSH2 0x229 ADD MSTORE DUP2 DUP2 PUSH2 0x374 ADD MSTORE DUP2 DUP2 PUSH2 0x487 ADD MSTORE DUP2 DUP2 PUSH2 0xDB0 ADD MSTORE DUP2 DUP2 PUSH2 0x1A61 ADD MSTORE PUSH2 0x25FF ADD MSTORE PUSH1 0xA0 MLOAD DUP4 DUP2 DUP2 PUSH2 0x778 ADD MSTORE DUP2 DUP2 PUSH2 0x1681 ADD MSTORE DUP2 DUP2 PUSH2 0x1792 ADD MSTORE DUP2 DUP2 PUSH2 0x1AB2 ADD MSTORE PUSH2 0x20D3 ADD MSTORE PUSH1 0xC0 MLOAD DUP4 DUP2 DUP2 PUSH2 0x13CB ADD MSTORE PUSH2 0x1B11 ADD MSTORE PUSH1 0xE0 MLOAD DUP4 DUP2 DUP2 PUSH2 0x1237 ADD MSTORE PUSH2 0x1C68 ADD MSTORE MLOAD DUP3 DUP2 DUP2 PUSH2 0x2C9 ADD MSTORE DUP2 DUP2 PUSH2 0x24D2 ADD MSTORE DUP2 DUP2 PUSH2 0x281A ADD MSTORE PUSH2 0x2968 ADD MSTORE PUSH2 0x120 MLOAD DUP3 DUP2 DUP2 PUSH2 0x110B ADD MSTORE DUP2 DUP2 PUSH2 0x1A18 ADD MSTORE DUP2 DUP2 PUSH2 0x24F8 ADD MSTORE DUP2 DUP2 PUSH2 0x27F4 ADD MSTORE DUP2 DUP2 PUSH2 0x298E ADD MSTORE PUSH2 0x29B6 ADD MSTORE PUSH2 0x140 MLOAD DUP3 DUP2 DUP2 PUSH2 0x68E ADD MSTORE DUP2 DUP2 PUSH2 0x11A4 ADD MSTORE DUP2 DUP2 PUSH2 0x11FF ADD MSTORE DUP2 DUP2 PUSH2 0x19CD ADD MSTORE DUP2 DUP2 PUSH2 0x2499 ADD MSTORE DUP2 DUP2 PUSH2 0x279A ADD MSTORE PUSH2 0x2934 ADD MSTORE PUSH2 0x160 MLOAD DUP3 DUP2 DUP2 PUSH2 0x6DC ADD MSTORE DUP2 DUP2 PUSH2 0x1485 ADD MSTORE DUP2 DUP2 PUSH2 0x2428 ADD MSTORE DUP2 DUP2 PUSH2 0x2745 ADD MSTORE PUSH2 0x28B6 ADD MSTORE PUSH2 0x180 MLOAD DUP3 DUP2 DUP2 PUSH2 0x70D ADD MSTORE DUP2 DUP2 PUSH2 0x1165 ADD MSTORE DUP2 DUP2 PUSH2 0x2453 ADD MSTORE DUP2 DUP2 PUSH2 0x2772 ADD MSTORE PUSH2 0x28E3 ADD MSTORE PUSH2 0x1A0 MLOAD DUP3 DUP2 DUP2 PUSH2 0x877 ADD MSTORE DUP2 DUP2 PUSH2 0xD6E ADD MSTORE DUP2 DUP2 PUSH2 0x18D2 ADD MSTORE PUSH2 0x1D59 ADD MSTORE MLOAD DUP2 DUP2 DUP2 PUSH2 0x1916 ADD MSTORE PUSH2 0x1BFD ADD MSTORE RETURN JUMPDEST ADD MLOAD SWAP1 POP CODESIZE DUP1 PUSH3 0x3F1 JUMP JUMPDEST PUSH1 0x0 DUP6 DUP2 MSTORE PUSH1 0x20 DUP2 KECCAK256 SWAP4 POP PUSH1 0x1F NOT DUP6 AND SWAP1 JUMPDEST DUP2 DUP2 LT PUSH3 0x5F6 JUMPI POP SWAP1 DUP5 PUSH1 0x1 SWAP6 SWAP5 SWAP4 SWAP3 LT PUSH3 0x5DD JUMPI JUMPDEST POP POP POP DUP2 SHL ADD SWAP1 SSTORE PUSH3 0x405 JUMP JUMPDEST ADD MLOAD PUSH1 0x0 NOT DUP4 DUP7 SHL PUSH1 0xF8 AND SHR NOT AND SWAP1 SSTORE CODESIZE DUP1 DUP1 PUSH3 0x5CF JUMP JUMPDEST SWAP3 SWAP4 PUSH1 0x20 PUSH1 0x1 DUP2 SWAP3 DUP8 DUP7 ADD MLOAD DUP2 SSTORE ADD SWAP6 ADD SWAP4 ADD PUSH3 0x5B7 JUMP JUMPDEST SWAP1 SWAP2 POP DUP4 PUSH1 0x0 MSTORE PUSH1 0x20 PUSH1 0x0 KECCAK256 PUSH1 0x1F DUP5 ADD PUSH1 0x5 SHR DUP2 ADD SWAP2 PUSH1 0x20 DUP6 LT PUSH3 0x65C JUMPI JUMPDEST SWAP1 PUSH1 0x1F DUP6 SWAP5 SWAP4 SWAP3 ADD PUSH1 0x5 SHR ADD SWAP1 JUMPDEST DUP2 DUP2 LT PUSH3 0x64C JUMPI POP PUSH3 0x3D8 JUMP JUMPDEST PUSH1 0x0 DUP2 SSTORE DUP5 SWAP4 POP PUSH1 0x1 ADD PUSH3 0x63D JUMP JUMPDEST SWAP1 SWAP2 POP DUP2 SWAP1 PUSH3 0x62F JUMP JUMPDEST PUSH4 0x4E487B71 PUSH1 0xE0 SHL PUSH1 0x0 MSTORE PUSH1 0x22 PUSH1 0x4 MSTORE PUSH1 0x24 PUSH1 0x0 REVERT JUMPDEST SWAP2 PUSH1 0x7F AND SWAP2 PUSH3 0x3C2 JUMP JUMPDEST PUSH4 0x4E487B71 PUSH1 0xE0 SHL PUSH1 0x0 MSTORE PUSH1 0x41 PUSH1 0x4 MSTORE PUSH1 0x24 PUSH1 0x0 REVERT JUMPDEST PUSH3 0x6BF SWAP2 POP RETURNDATASIZE DUP1 PUSH1 0x0 DUP4 RETURNDATACOPY PUSH3 0x6B6 DUP2 DUP4 PUSH3 0xCD9 JUMP JUMPDEST DUP2 ADD SWAP1 PUSH3 0xDA3 JUMP JUMPDEST CODESIZE PUSH3 0x39B JUMP JUMPDEST PUSH1 0x40 MLOAD RETURNDATASIZE PUSH1 0x0 DUP3 RETURNDATACOPY RETURNDATASIZE SWAP1 REVERT JUMPDEST ADD MLOAD SWAP1 POP CODESIZE DUP1 PUSH3 0x35F JUMP JUMPDEST SWAP1 PUSH1 0x1 PUSH1 0x0 MSTORE PUSH1 0x20 PUSH1 0x0 KECCAK256 SWAP2 PUSH1 0x0 JUMPDEST PUSH1 0x1F NOT DUP6 AND DUP2 LT PUSH3 0x738 JUMPI POP SWAP2 DUP4 SWAP2 PUSH1 0x1 SWAP4 PUSH1 0x0 SWAP7 SWAP6 PUSH1 0x1F NOT DUP2 AND LT PUSH3 0x71F JUMPI JUMPDEST POP POP POP DUP2 SHL ADD PUSH1 0x1 SSTORE PUSH3 0x374 JUMP JUMPDEST ADD MLOAD DUP6 NOT PUSH1 0xF8 DUP5 PUSH1 0x3 SHL AND SHR NOT AND SWAP1 SSTORE CODESIZE DUP1 DUP1 PUSH3 0x710 JUMP JUMPDEST SWAP2 SWAP3 PUSH1 0x20 PUSH1 0x1 DUP2 SWAP3 DUP7 DUP6 ADD MLOAD DUP2 SSTORE ADD SWAP5 ADD SWAP3 ADD PUSH3 0x6ED JUMP JUMPDEST PUSH1 0x1 PUSH1 0x0 MSTORE PUSH32 0xB10E2D527612073B26EECDFD717E6A320CF44B4AFAC2B0732D9FCBE2B7FA0CF6 PUSH1 0x1F DUP5 ADD PUSH1 0x5 SHR DUP2 ADD PUSH1 0x20 DUP6 LT PUSH3 0x7AF JUMPI JUMPDEST PUSH1 0x1F DUP4 ADD PUSH1 0x5 SHR DUP3 ADD DUP2 LT PUSH3 0x7A2 JUMPI POP POP PUSH3 0x341 JUMP JUMPDEST PUSH1 0x0 DUP2 SSTORE PUSH1 0x1 ADD PUSH3 0x78A JUMP JUMPDEST POP DUP1 PUSH3 0x78A JUMP JUMPDEST SWAP1 PUSH1 0x7F AND SWAP1 PUSH3 0x32D JUMP JUMPDEST PUSH3 0x7DA SWAP2 POP RETURNDATASIZE DUP1 PUSH1 0x0 DUP4 RETURNDATACOPY PUSH3 0x6B6 DUP2 DUP4 PUSH3 0xCD9 JUMP JUMPDEST CODESIZE PUSH3 0x308 JUMP JUMPDEST PUSH3 0x808 SWAP2 POP PUSH1 0x20 RETURNDATASIZE PUSH1 0x20 GT PUSH3 0x80F JUMPI JUMPDEST PUSH3 0x7FF DUP2 DUP4 PUSH3 0xCD9 JUMP JUMPDEST DUP2 ADD SWAP1 PUSH3 0xD88 JUMP JUMPDEST CODESIZE PUSH3 0x2D4 JUMP JUMPDEST POP RETURNDATASIZE PUSH3 0x7F3 JUMP JUMPDEST PUSH3 0x834 SWAP2 POP PUSH1 0x20 RETURNDATASIZE PUSH1 0x20 GT PUSH3 0x80F JUMPI PUSH3 0x7FF DUP2 DUP4 PUSH3 0xCD9 JUMP JUMPDEST CODESIZE PUSH3 0x297 JUMP JUMPDEST ADD MLOAD SWAP1 POP CODESIZE DUP1 PUSH3 0x243 JUMP JUMPDEST PUSH1 0xB PUSH1 0x0 SWAP1 DUP2 MSTORE PUSH1 0x1F NOT DUP5 AND SWAP7 SWAP6 SWAP5 SWAP4 SWAP3 PUSH32 0x175B7A638427703F0DBE7BB9BBF987A2551717B34E79F33B5B1008D1FA01DB9 SWAP3 SWAP1 SWAP2 JUMPDEST DUP9 DUP2 LT PUSH3 0x8BD JUMPI POP DUP4 PUSH1 0x1 SWAP6 SWAP7 SWAP8 SWAP9 LT PUSH3 0x8A3 JUMPI JUMPDEST POP POP POP DUP2 SHL ADD PUSH1 0xB SSTORE PUSH3 0x259 JUMP JUMPDEST ADD MLOAD PUSH1 0x0 NOT PUSH1 0xF8 DUP5 PUSH1 0x3 SHL AND SHR NOT AND SWAP1 SSTORE CODESIZE DUP1 DUP1 PUSH3 0x894 JUMP JUMPDEST DUP2 DUP4 ADD MLOAD DUP5 SSTORE DUP12 SWAP8 POP PUSH1 0x1 SWAP1 SWAP4 ADD SWAP3 PUSH1 0x20 SWAP3 DUP4 ADD SWAP3 ADD PUSH3 0x87D JUMP JUMPDEST SWAP1 SWAP2 SWAP3 SWAP4 SWAP5 POP PUSH1 0xB PUSH1 0x0 MSTORE PUSH1 0x20 PUSH1 0x0 KECCAK256 PUSH1 0x1F DUP5 ADD PUSH1 0x5 SHR DUP2 ADD SWAP2 PUSH1 0x20 DUP6 LT PUSH3 0x92D JUMPI JUMPDEST SWAP1 PUSH1 0x1F DUP11 SWAP8 SWAP7 SWAP6 SWAP5 SWAP4 SWAP3 ADD PUSH1 0x5 SHR ADD SWAP1 JUMPDEST DUP2 DUP2 LT PUSH3 0x91D JUMPI POP PUSH3 0x228 JUMP JUMPDEST PUSH1 0x0 DUP2 SSTORE DUP10 SWAP7 POP PUSH1 0x1 ADD PUSH3 0x90E JUMP JUMPDEST SWAP1 SWAP2 POP DUP2 SWAP1 PUSH3 0x8FD JUMP JUMPDEST SWAP5 PUSH1 0x7F AND SWAP5 PUSH3 0x212 JUMP JUMPDEST ADD MLOAD SWAP1 POP CODESIZE DUP1 PUSH3 0x1D8 JUMP JUMPDEST PUSH1 0xA PUSH1 0x0 SWAP1 DUP2 MSTORE PUSH1 0x0 DUP1 MLOAD PUSH1 0x20 PUSH3 0x3801 DUP4 CODECOPY DUP2 MLOAD SWAP2 MSTORE SWAP4 POP PUSH1 0x1F NOT DUP6 AND SWAP1 JUMPDEST DUP2 DUP2 LT PUSH3 0x9B0 JUMPI POP SWAP1 DUP5 PUSH1 0x1 SWAP6 SWAP5 SWAP4 SWAP3 LT PUSH3 0x996 JUMPI JUMPDEST POP POP POP DUP2 SHL ADD PUSH1 0xA SSTORE PUSH3 0x1EE JUMP JUMPDEST ADD MLOAD PUSH1 0x0 NOT PUSH1 0xF8 DUP5 PUSH1 0x3 SHL AND SHR NOT AND SWAP1 SSTORE CODESIZE DUP1 DUP1 PUSH3 0x987 JUMP JUMPDEST SWAP3 SWAP4 PUSH1 0x20 PUSH1 0x1 DUP2 SWAP3 DUP8 DUP7 ADD MLOAD DUP2 SSTORE ADD SWAP6 ADD SWAP4 ADD PUSH3 0x96F JUMP JUMPDEST PUSH1 0xA PUSH1 0x0 MSTORE SWAP1 SWAP2 POP PUSH1 0x0 DUP1 MLOAD PUSH1 0x20 PUSH3 0x3801 DUP4 CODECOPY DUP2 MLOAD SWAP2 MSTORE PUSH1 0x1F DUP5 ADD PUSH1 0x5 SHR DUP2 ADD SWAP2 PUSH1 0x20 DUP6 LT PUSH3 0xA22 JUMPI JUMPDEST SWAP1 PUSH1 0x1F DUP6 SWAP5 SWAP4 SWAP3 ADD PUSH1 0x5 SHR ADD SWAP1 JUMPDEST DUP2 DUP2 LT PUSH3 0xA12 JUMPI POP PUSH3 0x1BF JUMP JUMPDEST PUSH1 0x0 DUP2 SSTORE DUP5 SWAP4 POP PUSH1 0x1 ADD PUSH3 0xA03 JUMP JUMPDEST SWAP1 SWAP2 POP DUP2 SWAP1 PUSH3 0x9F5 JUMP JUMPDEST SWAP2 PUSH1 0x7F AND SWAP2 PUSH3 0x1A9 JUMP JUMPDEST PUSH1 0x40 MLOAD PUSH3 0x461BCD PUSH1 0xE5 SHL DUP2 MSTORE PUSH1 0x20 PUSH1 0x4 DUP3 ADD MSTORE PUSH1 0x19 PUSH1 0x24 DUP3 ADD MSTORE PUSH32 0x496E76616C696420556E69737761702061646472657373657300000000000000 PUSH1 0x44 DUP3 ADD MSTORE PUSH1 0x64 SWAP1 REVERT JUMPDEST POP DUP7 DUP4 AND ISZERO ISZERO PUSH3 0x17E JUMP JUMPDEST PUSH1 0x40 MLOAD PUSH3 0x461BCD PUSH1 0xE5 SHL DUP2 MSTORE PUSH1 0x20 PUSH1 0x4 DUP3 ADD MSTORE PUSH1 0x18 PUSH1 0x24 DUP3 ADD MSTORE PUSH32 0x546F6B656E73206D75737420626520646966666572656E740000000000000000 PUSH1 0x44 DUP3 ADD MSTORE PUSH1 0x64 SWAP1 REVERT JUMPDEST PUSH1 0x40 MLOAD PUSH3 0x461BCD PUSH1 0xE5 SHL DUP2 MSTORE PUSH1 0x20 PUSH1 0x4 DUP3 ADD MSTORE PUSH1 0x17 PUSH1 0x24 DUP3 ADD MSTORE PUSH32 0x496E76616C696420746F6B656E20616464726573736573000000000000000000 PUSH1 0x44 DUP3 ADD MSTORE PUSH1 0x64 SWAP1 REVERT JUMPDEST POP DUP7 DUP7 AND ISZERO ISZERO PUSH3 0x15F JUMP JUMPDEST PUSH1 0x40 MLOAD PUSH3 0x461BCD PUSH1 0xE5 SHL DUP2 MSTORE PUSH1 0x20 PUSH1 0x4 DUP3 ADD MSTORE PUSH1 0x17 PUSH1 0x24 DUP3 ADD MSTORE PUSH32 0x496E76616C696420666F756E646572732077616C6C6574000000000000000000 PUSH1 0x44 DUP3 ADD MSTORE PUSH1 0x64 SWAP1 REVERT JUMPDEST PUSH1 0x40 MLOAD PUSH3 0x461BCD PUSH1 0xE5 SHL DUP2 MSTORE PUSH1 0x20 PUSH1 0x4 DUP3 ADD MSTORE PUSH1 0x1A PUSH1 0x24 DUP3 ADD MSTORE PUSH32 0x436F6D62696E65642072616B6520373025206578636565646564000000000000 PUSH1 0x44 DUP3 ADD MSTORE PUSH1 0x64 SWAP1 REVERT JUMPDEST PUSH4 0x4E487B71 PUSH1 0xE0 SHL PUSH1 0x0 MSTORE PUSH1 0x11 PUSH1 0x4 MSTORE PUSH1 0x24 PUSH1 0x0 REVERT JUMPDEST PUSH1 0x40 MLOAD PUSH3 0x461BCD PUSH1 0xE5 SHL DUP2 MSTORE PUSH1 0x20 PUSH1 0x4 DUP3 ADD MSTORE PUSH1 0x24 DUP1 DUP3 ADD MSTORE PUSH32 0x557066726F6E742072616B65206D757374206265203E3D204F74746572506164 PUSH1 0x44 DUP3 ADD MSTORE PUSH4 0x20666565 PUSH1 0xE0 SHL PUSH1 0x64 DUP3 ADD MSTORE PUSH1 0x84 SWAP1 REVERT JUMPDEST PUSH1 0x40 MLOAD PUSH3 0x461BCD PUSH1 0xE5 SHL DUP2 MSTORE PUSH1 0x20 PUSH1 0x4 DUP3 ADD MSTORE PUSH1 0x16 PUSH1 0x24 DUP3 ADD MSTORE PUSH32 0x496E76616C6964207461726765742066756E64696E6700000000000000000000 PUSH1 0x44 DUP3 ADD MSTORE PUSH1 0x64 SWAP1 REVERT JUMPDEST PUSH1 0x40 MLOAD PUSH3 0x461BCD PUSH1 0xE5 SHL DUP2 MSTORE PUSH1 0x20 PUSH1 0x4 DUP3 ADD MSTORE PUSH1 0xE PUSH1 0x24 DUP3 ADD MSTORE PUSH14 0x496E76616C696420707269636573 PUSH1 0x90 SHL PUSH1 0x44 DUP3 ADD MSTORE PUSH1 0x64 SWAP1 REVERT JUMPDEST POP DUP7 DUP9 GT PUSH3 0x117 JUMP JUMPDEST POP DUP8 ISZERO ISZERO PUSH3 0x110 JUMP JUMPDEST PUSH1 0x40 MLOAD PUSH3 0x461BCD PUSH1 0xE5 SHL DUP2 MSTORE PUSH1 0x20 PUSH1 0x4 DUP3 ADD MSTORE PUSH1 0xD PUSH1 0x24 DUP3 ADD MSTORE PUSH13 0x496E76616C6964207469746C65 PUSH1 0x98 SHL PUSH1 0x44 DUP3 ADD MSTORE PUSH1 0x64 SWAP1 REVERT JUMPDEST PUSH1 0x0 DUP1 REVERT JUMPDEST PUSH1 0x1F SWAP1 SWAP2 ADD PUSH1 0x1F NOT AND DUP2 ADD SWAP1 PUSH1 0x1 PUSH1 0x1 PUSH1 0x40 SHL SUB DUP3 GT SWAP1 DUP3 LT OR PUSH3 0x688 JUMPI PUSH1 0x40 MSTORE JUMP JUMPDEST SWAP2 SWAP1 DUP1 PUSH1 0x1F DUP5 ADD SLT ISZERO PUSH3 0xCD4 JUMPI DUP3 MLOAD PUSH1 0x1 PUSH1 0x1 PUSH1 0x40 SHL SUB DUP2 GT PUSH3 0x688 JUMPI PUSH1 0x20 SWAP1 PUSH1 0x40 MLOAD SWAP3 PUSH3 0xD38 DUP4 PUSH1 0x1F NOT PUSH1 0x1F DUP6 ADD AND ADD DUP6 PUSH3 0xCD9 JUMP JUMPDEST DUP2 DUP5 MSTORE DUP3 DUP3 DUP8 ADD ADD GT PUSH3 0xCD4 JUMPI PUSH1 0x0 JUMPDEST DUP2 DUP2 LT PUSH3 0xD5F JUMPI POP DUP3 PUSH1 0x0 SWAP4 SWAP5 SWAP6 POP ADD ADD MSTORE SWAP1 JUMP JUMPDEST DUP6 DUP2 ADD DUP4 ADD MLOAD DUP5 DUP3 ADD DUP5 ADD MSTORE DUP3 ADD PUSH3 0xD49 JUMP JUMPDEST MLOAD SWAP1 PUSH1 0x1 PUSH1 0x1 PUSH1 0xA0 SHL SUB DUP3 AND DUP3 SUB PUSH3 0xCD4 JUMPI JUMP JUMPDEST SWAP1 DUP2 PUSH1 0x20 SWAP2 SUB SLT PUSH3 0xCD4 JUMPI MLOAD PUSH1 0xFF DUP2 AND DUP2 SUB PUSH3 0xCD4 JUMPI SWAP1 JUMP JUMPDEST SWAP1 PUSH1 0x20 DUP3 DUP3 SUB SLT PUSH3 0xCD4 JUMPI DUP2 MLOAD PUSH1 0x1 PUSH1 0x1 PUSH1 0x40 SHL SUB DUP2 GT PUSH3 0xCD4 JUMPI PUSH3 0xDCC SWAP3 ADD PUSH3 0xCFD JUMP JUMPDEST SWAP1 JUMP INVALID PUSH1 0x80 PUSH1 0x40 DUP2 DUP2 MSTORE PUSH1 0x4 SWAP1 DUP2 CALLDATASIZE LT ISZERO PUSH2 0x16 JUMPI PUSH1 0x0 DUP1 REVERT JUMPDEST PUSH1 0x0 SWAP3 DUP4 CALLDATALOAD PUSH1 0xE0 SHR SWAP1 DUP2 PUSH4 0x2A9E714 EQ PUSH2 0x222E JUMPI POP DUP1 PUSH4 0xE022923 EQ PUSH2 0x2114 JUMPI DUP1 PUSH4 0xF8C2798 EQ PUSH2 0x20A6 JUMPI DUP1 PUSH4 0x10D0FFDD EQ PUSH2 0x2086 JUMPI DUP1 PUSH4 0x12EFF12C EQ PUSH2 0x196B JUMPI DUP1 PUSH4 0x16C04948 EQ PUSH2 0x1945 JUMPI DUP1 PUSH4 0x16C94B38 EQ PUSH2 0x1901 JUMPI DUP1 PUSH4 0x1BFAF155 EQ PUSH2 0x18BD JUMPI DUP1 PUSH4 0x25F97FB9 EQ PUSH2 0x1899 JUMPI DUP1 PUSH4 0x278ECDE1 EQ PUSH2 0x16B0 JUMPI DUP1 PUSH4 0x3013CE29 EQ PUSH2 0x166C JUMPI DUP1 PUSH4 0x325CD796 EQ PUSH2 0x164B JUMPI DUP1 PUSH4 0x3BDE5BA8 EQ PUSH2 0x1624 JUMPI DUP1 PUSH4 0x44AF14A8 EQ PUSH2 0x1567 JUMPI DUP1 PUSH4 0x4A79D50C EQ PUSH2 0x14A8 JUMPI DUP1 PUSH4 0x560B842C EQ PUSH2 0x146D JUMPI DUP1 PUSH4 0x5A59C551 EQ PUSH2 0x1417 JUMPI DUP1 PUSH4 0x5F655EA7 EQ PUSH2 0x13FA JUMPI DUP1 PUSH4 0x735DE9F7 EQ PUSH2 0x13B6 JUMPI DUP1 PUSH4 0x73EE6084 EQ PUSH2 0x12F7 JUMPI DUP1 PUSH4 0x8392FE31 EQ PUSH2 0x1283 JUMPI DUP1 PUSH4 0x8A19ECEF EQ PUSH2 0x1266 JUMPI DUP1 PUSH4 0x8BDB2AFA EQ PUSH2 0x1222 JUMPI DUP1 PUSH4 0x92258EC8 EQ PUSH2 0x11E7 JUMPI DUP1 PUSH4 0x9513A0FD EQ PUSH2 0x11C8 JUMPI DUP1 PUSH4 0xAF5B065A EQ PUSH2 0x1188 JUMPI DUP1 PUSH4 0xB704A0C4 EQ PUSH2 0x114D JUMPI DUP1 PUSH4 0xB789BF52 EQ PUSH2 0x112E JUMPI DUP1 PUSH4 0xB868723E EQ PUSH2 0x10F3 JUMPI DUP1 PUSH4 0xBDD3D825 EQ PUSH2 0x10C7 JUMPI DUP1 PUSH4 0xBEF08860 EQ PUSH2 0x1017 JUMPI DUP1 PUSH4 0xC07F773A EQ PUSH2 0xFF8 JUMPI DUP1 PUSH4 0xC596F3FE EQ PUSH2 0xD46 JUMPI DUP1 PUSH4 0xC7C8B437 EQ PUSH2 0xC43 JUMPI DUP1 PUSH4 0xD96A094A EQ PUSH2 0x654 JUMPI DUP1 PUSH4 0xDB006A75 EQ PUSH2 0x3C2 JUMPI DUP1 PUSH4 0xDE7E3310 EQ PUSH2 0x3A3 JUMPI DUP1 PUSH4 0xE985E367 EQ PUSH2 0x35F JUMPI DUP1 PUSH4 0xEB91D37E EQ PUSH2 0x33B JUMPI DUP1 PUSH4 0xEDAFC9AF EQ PUSH2 0x30C JUMPI DUP1 PUSH4 0xEF5EE995 EQ PUSH2 0x2F0 JUMPI DUP1 PUSH4 0xF1A9AF89 EQ PUSH2 0x2B1 JUMPI PUSH4 0xF6A55A29 EQ PUSH2 0x1FD JUMPI PUSH1 0x0 DUP1 REVERT JUMPDEST CALLVALUE PUSH2 0x29B JUMPI DUP3 PUSH1 0x3 NOT CALLDATASIZE ADD SLT PUSH2 0x29B JUMPI DUP1 MLOAD PUSH4 0x70A08231 PUSH1 0xE0 SHL DUP2 MSTORE ADDRESS SWAP3 DUP2 ADD SWAP3 SWAP1 SWAP3 MSTORE PUSH1 0x20 DUP3 PUSH1 0x24 DUP2 PUSH32 0x0 PUSH1 0x1 PUSH1 0x1 PUSH1 0xA0 SHL SUB AND GAS STATICCALL SWAP2 DUP3 ISZERO PUSH2 0x2A7 JUMPI DUP4 SWAP3 PUSH2 0x26B JUMPI JUMPDEST PUSH1 0x20 DUP4 DUP4 MLOAD SWAP1 DUP2 MSTORE RETURN JUMPDEST SWAP1 SWAP2 POP PUSH1 0x20 DUP2 RETURNDATASIZE PUSH1 0x20 GT PUSH2 0x29F JUMPI JUMPDEST DUP2 PUSH2 0x287 PUSH1 0x20 SWAP4 DUP4 PUSH2 0x229A JUMP JUMPDEST DUP2 ADD SUB SLT PUSH2 0x29B JUMPI PUSH1 0x20 SWAP3 POP MLOAD SWAP1 CODESIZE PUSH2 0x261 JUMP JUMPDEST DUP3 DUP1 REVERT JUMPDEST RETURNDATASIZE SWAP2 POP PUSH2 0x27A JUMP JUMPDEST DUP2 MLOAD RETURNDATASIZE DUP6 DUP3 RETURNDATACOPY RETURNDATASIZE SWAP1 REVERT JUMPDEST DUP4 DUP3 CALLVALUE PUSH2 0x2EC JUMPI DUP2 PUSH1 0x3 NOT CALLDATASIZE ADD SLT PUSH2 0x2EC JUMPI PUSH1 0x20 SWAP1 MLOAD PUSH32 0x0 DUP2 MSTORE RETURN JUMPDEST POP DUP1 REVERT JUMPDEST DUP4 DUP3 CALLVALUE PUSH2 0x2EC JUMPI DUP2 PUSH1 0x3 NOT CALLDATASIZE ADD SLT PUSH2 0x2EC JUMPI PUSH1 0x20 SWAP1 MLOAD PUSH1 0xC8 DUP2 MSTORE RETURN JUMPDEST DUP4 DUP3 CALLVALUE PUSH2 0x2EC JUMPI DUP2 PUSH1 0x3 NOT CALLDATASIZE ADD SLT PUSH2 0x2EC JUMPI PUSH1 0x20 SWAP1 MLOAD PUSH20 0x6C83E86E05697C995D718C1CFA3F9045A38C7CD4 DUP2 MSTORE RETURN JUMPDEST DUP4 DUP3 CALLVALUE PUSH2 0x2EC JUMPI DUP2 PUSH1 0x3 NOT CALLDATASIZE ADD SLT PUSH2 0x2EC JUMPI PUSH1 0x20 SWAP1 PUSH2 0x358 PUSH2 0x292F JUMP JUMPDEST SWAP1 MLOAD SWAP1 DUP2 MSTORE RETURN JUMPDEST DUP4 DUP3 CALLVALUE PUSH2 0x2EC JUMPI DUP2 PUSH1 0x3 NOT CALLDATASIZE ADD SLT PUSH2 0x2EC JUMPI MLOAD PUSH32 0x0 PUSH1 0x1 PUSH1 0x1 PUSH1 0xA0 SHL SUB AND DUP2 MSTORE PUSH1 0x20 SWAP1 RETURN JUMPDEST DUP4 DUP3 CALLVALUE PUSH2 0x2EC JUMPI DUP2 PUSH1 0x3 NOT CALLDATASIZE ADD SLT PUSH2 0x2EC JUMPI PUSH1 0x20 SWAP1 PUSH1 0x9 SLOAD SWAP1 MLOAD SWAP1 DUP2 MSTORE RETURN JUMPDEST POP CALLVALUE PUSH2 0x29B JUMPI PUSH1 0x20 DUP1 PUSH1 0x3 NOT CALLDATASIZE ADD SLT PUSH2 0x650 JUMPI DUP3 CALLDATALOAD SWAP3 PUSH2 0x3E0 PUSH2 0x29D8 JUMP JUMPDEST PUSH1 0x6 SLOAD PUSH1 0xFF DUP2 PUSH1 0x8 SHR AND ISZERO PUSH2 0x615 JUMPI PUSH1 0xFF AND ISZERO PUSH2 0x5D4 JUMPI DUP4 DUP6 MSTORE PUSH1 0xC DUP3 MSTORE DUP3 DUP6 KECCAK256 PUSH1 0x3 DUP2 ADD DUP1 SLOAD SWAP1 SWAP3 SWAP2 PUSH1 0x1 PUSH1 0x1 PUSH1 0xA0 SHL SUB SWAP2 SWAP1 PUSH2 0x421 DUP4 DUP4 AND CALLER EQ PUSH2 0x26C1 JUMP JUMPDEST PUSH1 0xFF DUP3 PUSH1 0xA0 SHR AND PUSH2 0x59C JUMPI PUSH1 0x2 SWAP1 PUSH2 0x43F PUSH1 0xFF DUP5 PUSH1 0xA8 SHR AND ISZERO PUSH2 0x2701 JUMP JUMPDEST ADD SWAP4 DUP5 SLOAD SWAP2 DUP3 ISZERO PUSH2 0x563 JUMPI PUSH1 0xFF PUSH1 0xA8 SHL NOT AND PUSH1 0x1 PUSH1 0xA8 SHL OR SWAP1 SSTORE DUP6 MLOAD PUSH4 0xA9059CBB PUSH1 0xE0 SHL DUP2 MSTORE CALLER DUP5 DUP3 ADD SWAP1 DUP2 MSTORE PUSH1 0x20 DUP2 ADD SWAP3 SWAP1 SWAP3 MSTORE SWAP2 DUP6 SWAP2 DUP4 SWAP2 SWAP1 DUP3 SWAP1 DUP12 SWAP1 DUP3 SWAP1 PUSH1 0x40 ADD SUB SWAP3 PUSH32 0x0 AND GAS CALL SWAP1 DUP2 ISZERO PUSH2 0x559 JUMPI DUP8 SWAP2 PUSH2 0x52C JUMPI JUMPDEST POP ISZERO PUSH2 0x4F1 JUMPI POP SWAP1 PUSH32 0xD171FB179B26C49E23FE46EDDD44D3048A1AD277B62144AC0725FBCF1DBF6D52 SWAP2 SLOAD SWAP3 MLOAD SWAP3 DUP4 MSTORE CALLER SWAP3 LOG3 PUSH1 0x1 DUP2 SSTORE DUP1 RETURN JUMPDEST DUP4 MLOAD PUSH3 0x461BCD PUSH1 0xE5 SHL DUP2 MSTORE SWAP1 DUP2 ADD DUP4 SWAP1 MSTORE PUSH1 0x15 PUSH1 0x24 DUP3 ADD MSTORE PUSH21 0x151BDAD95B881D1C985B9CD9995C8819985A5B1959 PUSH1 0x5A SHL PUSH1 0x44 DUP3 ADD MSTORE PUSH1 0x64 SWAP1 REVERT JUMPDEST PUSH2 0x54C SWAP2 POP DUP5 RETURNDATASIZE DUP7 GT PUSH2 0x552 JUMPI JUMPDEST PUSH2 0x544 DUP2 DUP4 PUSH2 0x229A JUMP JUMPDEST DUP2 ADD SWAP1 PUSH2 0x25CC JUMP JUMPDEST CODESIZE PUSH2 0x4B7 JUMP JUMPDEST POP RETURNDATASIZE PUSH2 0x53A JUMP JUMPDEST DUP6 MLOAD RETURNDATASIZE DUP10 DUP3 RETURNDATACOPY RETURNDATASIZE SWAP1 REVERT JUMPDEST DUP8 MLOAD PUSH3 0x461BCD PUSH1 0xE5 SHL DUP2 MSTORE DUP1 DUP7 ADD DUP9 SWAP1 MSTORE PUSH1 0x13 PUSH1 0x24 DUP3 ADD MSTORE PUSH19 0x4E6F20746F6B656E7320746F2072656465656D PUSH1 0x68 SHL PUSH1 0x44 DUP3 ADD MSTORE PUSH1 0x64 SWAP1 REVERT JUMPDEST DUP7 MLOAD PUSH3 0x461BCD PUSH1 0xE5 SHL DUP2 MSTORE DUP1 DUP6 ADD DUP8 SWAP1 MSTORE PUSH1 0x12 PUSH1 0x24 DUP3 ADD MSTORE PUSH18 0x13DC99195C881DD85CC81C99599D5B991959 PUSH1 0x72 SHL PUSH1 0x44 DUP3 ADD MSTORE PUSH1 0x64 SWAP1 REVERT JUMPDEST SWAP2 MLOAD PUSH3 0x461BCD PUSH1 0xE5 SHL DUP2 MSTORE SWAP2 DUP3 ADD MSTORE PUSH1 0x17 PUSH1 0x24 DUP3 ADD MSTORE PUSH32 0x4E6F7420796574206465706C6F79656420746F20444558000000000000000000 PUSH1 0x44 DUP3 ADD MSTORE PUSH1 0x64 SWAP1 REVERT JUMPDEST POP SWAP2 MLOAD PUSH3 0x461BCD PUSH1 0xE5 SHL DUP2 MSTORE SWAP2 DUP3 ADD MSTORE PUSH1 0x16 PUSH1 0x24 DUP3 ADD MSTORE PUSH22 0x15185C99D95D081B9BDD081C995858DA1959081E595D PUSH1 0x52 SHL PUSH1 0x44 DUP3 ADD MSTORE PUSH1 0x64 SWAP1 REVERT JUMPDEST DUP4 DUP1 REVERT JUMPDEST POP SWAP1 CALLVALUE PUSH2 0x29B JUMPI PUSH1 0x20 DUP1 PUSH1 0x3 NOT CALLDATASIZE ADD SLT PUSH2 0x650 JUMPI DUP2 CALLDATALOAD SWAP2 PUSH2 0x673 PUSH2 0x29D8 JUMP JUMPDEST PUSH1 0xFF PUSH1 0x6 SLOAD PUSH2 0x684 DUP3 DUP3 AND ISZERO PUSH2 0x2684 JUMP JUMPDEST PUSH1 0x8 SHR AND PUSH2 0xC09 JUMPI PUSH32 0x0 SWAP4 PUSH3 0xF4240 DUP6 DIV DUP5 LT PUSH2 0xBCF JUMPI PUSH1 0xC8 DUP5 MUL DUP5 DUP2 DIV PUSH1 0xC8 EQ DUP6 ISZERO OR ISZERO PUSH2 0xBBC JUMPI PUSH2 0x2710 DUP1 SWAP2 DIV PUSH2 0x707 DUP2 DUP4 PUSH2 0x701 PUSH32 0x0 DUP11 PUSH2 0x2356 JUMP JUMPDEST DIV PUSH2 0x2389 JUMP JUMPDEST SWAP2 PUSH2 0x732 PUSH32 0x0 DUP9 PUSH2 0x2356 JUMP JUMPDEST DIV SWAP4 PUSH2 0x74B DUP6 PUSH2 0x746 DUP6 PUSH2 0x746 DUP7 DUP13 PUSH2 0x2389 JUMP JUMPDEST PUSH2 0x2389 JUMP JUMPDEST SWAP5 PUSH2 0x763 DUP10 PUSH2 0x75C DUP9 PUSH1 0x8 SLOAD PUSH2 0x2333 JUMP JUMPDEST GT ISZERO PUSH2 0x2396 JUMP JUMPDEST PUSH2 0x76C DUP9 PUSH2 0x23F8 JUMP JUMPDEST SWAP4 PUSH1 0x1 DUP1 PUSH1 0xA0 SHL SUB SWAP4 DUP5 PUSH32 0x0 AND SWAP1 DUP8 MLOAD SWAP4 PUSH4 0x23B872DD PUSH1 0xE0 SHL DUP6 MSTORE CALLER DUP7 DUP7 ADD MSTORE DUP14 PUSH1 0x24 SWAP6 ADDRESS DUP8 DUP3 ADD MSTORE DUP14 PUSH1 0x44 DUP3 ADD MSTORE DUP13 DUP2 PUSH1 0x64 DUP2 DUP6 DUP10 GAS CALL SWAP2 DUP3 ISZERO PUSH2 0xBB1 JUMPI SWAP2 PUSH2 0xB94 JUMPI JUMPDEST POP ISZERO PUSH2 0xB52 JUMPI DUP9 MLOAD DUP13 DUP2 MSTORE PUSH1 0x20 DUP2 ADD DUP4 SWAP1 MSTORE PUSH1 0x40 DUP2 ADD DUP6 SWAP1 MSTORE PUSH1 0x60 DUP2 ADD SWAP2 SWAP1 SWAP2 MSTORE PUSH1 0x80 DUP2 ADD DUP11 SWAP1 MSTORE CALLER SWAP1 PUSH32 0xBEFB6E85B11F40EE4D9E3E8BB0BEDBC3D1EEE123B1328C0EA0A4B842CBFFF749 SWAP1 PUSH1 0xA0 SWAP1 LOG2 DUP13 DUP9 MLOAD PUSH4 0xA9059CBB PUSH1 0xE0 SHL SWAP3 DUP4 DUP3 MSTORE PUSH20 0x6C83E86E05697C995D718C1CFA3F9045A38C7CD4 DUP9 DUP4 ADD MSTORE DUP7 DUP3 ADD MSTORE DUP12 DUP2 PUSH1 0x44 DUP2 DUP6 DUP9 GAS CALL SWAP2 DUP3 ISZERO PUSH2 0xB47 JUMPI SWAP2 PUSH2 0xB2A JUMPI JUMPDEST POP ISZERO PUSH2 0xAF2 JUMPI DUP8 MLOAD SWAP1 DUP2 MSTORE PUSH1 0x1 PUSH1 0x1 PUSH1 0xA0 SHL SUB PUSH32 0x0 AND DUP6 DUP3 ADD SWAP1 DUP2 MSTORE PUSH1 0x20 DUP2 ADD SWAP4 SWAP1 SWAP4 MSTORE SWAP2 DUP10 SWAP2 DUP4 SWAP2 DUP3 SWAP1 DUP16 SWAP1 DUP3 SWAP1 PUSH1 0x40 ADD SUB SWAP3 GAS CALL SWAP1 DUP2 ISZERO PUSH2 0xAE8 JUMPI DUP12 SWAP2 PUSH2 0xACB JUMPI JUMPDEST POP ISZERO PUSH2 0xA89 JUMPI PUSH1 0x5 SLOAD SWAP7 PUSH1 0x0 NOT SWAP4 DUP5 DUP10 EQ PUSH2 0xA77 JUMPI SWAP1 DUP10 DUP5 DUP11 DUP11 DUP16 DUP12 SWAP1 PUSH1 0xD SWAP8 PUSH1 0x1 DUP6 ADD PUSH1 0x5 SSTORE DUP3 MLOAD SWAP7 PUSH2 0x8F8 DUP9 PUSH2 0x2268 JUMP JUMPDEST DUP8 MSTORE DUP8 DUP8 ADD SWAP4 DUP5 MSTORE DUP3 DUP8 ADD DUP14 DUP2 MSTORE PUSH1 0x60 DUP9 ADD SWAP5 CALLER DUP7 MSTORE PUSH1 0x80 DUP10 ADD SWAP5 DUP5 DUP7 MSTORE PUSH1 0xA0 DUP11 ADD SWAP5 DUP1 DUP7 MSTORE PUSH1 0xC0 DUP12 ADD SWAP9 NUMBER DUP11 MSTORE DUP2 MSTORE PUSH1 0xC DUP13 MSTORE KECCAK256 SWAP9 MLOAD DUP10 SSTORE MLOAD PUSH1 0x1 DUP10 ADD SSTORE MLOAD PUSH1 0x2 DUP9 ADD SSTORE PUSH1 0x3 DUP8 ADD SWAP4 MLOAD AND DUP4 SLOAD SWAP3 PUSH1 0xFF PUSH1 0xA0 SHL SWAP1 MLOAD ISZERO ISZERO PUSH1 0xA0 SHL AND SWAP2 PUSH1 0xFF PUSH1 0xA8 SHL SWAP1 MLOAD ISZERO ISZERO PUSH1 0xA8 SHL AND SWAP3 PUSH10 0xFFFFFFFFFFFFFFFFFFFF PUSH1 0xB0 SHL AND OR OR OR SWAP1 SSTORE MLOAD SWAP2 ADD SSTORE CALLER DUP13 MSTORE MSTORE DUP5 DUP11 KECCAK256 SWAP1 DUP2 SLOAD SWAP3 PUSH9 0x10000000000000000 DUP5 LT ISZERO PUSH2 0xA66 JUMPI POP POP DUP2 PUSH2 0x9CD SWAP2 PUSH1 0x1 PUSH32 0xB176B33AD40225C8F67DC6EF0CBA96C0C88F67AFD36396E2198A3F48A44FC7A0 SWAP8 SWAP7 SWAP6 SWAP5 ADD DUP2 SSTORE PUSH2 0x2305 JUMP JUMPDEST DUP2 SWAP3 SWAP2 SLOAD SWAP1 PUSH1 0x3 SHL SWAP2 DUP9 DUP4 SHL SWAP3 SHL NOT AND OR SWAP1 SSTORE PUSH2 0x9EC DUP2 PUSH1 0x7 SLOAD PUSH2 0x2333 JUMP JUMPDEST PUSH1 0x7 SSTORE PUSH2 0xA41 PUSH2 0x9FE DUP6 PUSH1 0x8 SLOAD PUSH2 0x2333 JUMP JUMPDEST SWAP7 DUP8 SWAP4 DUP5 PUSH1 0x8 SSTORE PUSH2 0xA11 DUP3 PUSH1 0x9 SLOAD PUSH2 0x2333 JUMP JUMPDEST PUSH1 0x9 SSTORE MLOAD SWAP4 DUP5 SWAP4 CALLER SWAP8 TIMESTAMP SWAP4 DUP7 SWAP2 SWAP3 PUSH1 0x80 SWAP4 SWAP7 SWAP6 SWAP5 SWAP2 SWAP7 PUSH1 0xA0 DUP5 ADD SWAP8 DUP5 MSTORE PUSH1 0x20 DUP5 ADD MSTORE PUSH1 0x40 DUP4 ADD MSTORE PUSH1 0x60 DUP3 ADD MSTORE ADD MSTORE JUMP JUMPDEST SUB SWAP1 LOG3 LT ISZERO PUSH2 0xA52 JUMPI JUMPDEST PUSH1 0x1 DUP2 SSTORE DUP1 RETURN JUMPDEST PUSH2 0x100 PUSH2 0xFF00 NOT PUSH1 0x6 SLOAD AND OR PUSH1 0x6 SSTORE PUSH2 0xA4B JUMP JUMPDEST PUSH4 0x4E487B71 PUSH1 0xE0 SHL DUP13 MSTORE PUSH1 0x41 SWAP1 MSTORE DUP11 REVERT JUMPDEST PUSH4 0x4E487B71 PUSH1 0xE0 SHL DUP13 MSTORE PUSH1 0x11 DUP5 MSTORE DUP3 DUP13 REVERT JUMPDEST DUP5 MLOAD PUSH3 0x461BCD PUSH1 0xE5 SHL DUP2 MSTORE SWAP2 DUP3 ADD DUP8 SWAP1 MSTORE PUSH1 0x17 SWAP1 DUP3 ADD MSTORE PUSH32 0x557066726F6E74207472616E73666572206661696C6564000000000000000000 PUSH1 0x44 DUP3 ADD MSTORE PUSH1 0x64 SWAP1 REVERT JUMPDEST PUSH2 0xAE2 SWAP2 POP DUP9 RETURNDATASIZE DUP11 GT PUSH2 0x552 JUMPI PUSH2 0x544 DUP2 DUP4 PUSH2 0x229A JUMP JUMPDEST CODESIZE PUSH2 0x8C5 JUMP JUMPDEST DUP7 MLOAD RETURNDATASIZE DUP14 DUP3 RETURNDATACOPY RETURNDATASIZE SWAP1 REVERT JUMPDEST DUP8 MLOAD PUSH3 0x461BCD PUSH1 0xE5 SHL DUP2 MSTORE DUP1 DUP7 ADD DUP12 SWAP1 MSTORE PUSH1 0x13 DUP2 DUP7 ADD MSTORE PUSH19 0x119959481D1C985B9CD9995C8819985A5B1959 PUSH1 0x6A SHL PUSH1 0x44 DUP3 ADD MSTORE PUSH1 0x64 SWAP1 REVERT JUMPDEST PUSH2 0xB41 SWAP2 POP DUP12 RETURNDATASIZE DUP14 GT PUSH2 0x552 JUMPI PUSH2 0x544 DUP2 DUP4 PUSH2 0x229A JUMP JUMPDEST CODESIZE PUSH2 0x862 JUMP JUMPDEST DUP11 MLOAD SWAP1 RETURNDATASIZE SWAP1 DUP3 RETURNDATACOPY RETURNDATASIZE SWAP1 REVERT JUMPDEST DUP9 MLOAD PUSH3 0x461BCD PUSH1 0xE5 SHL DUP2 MSTORE DUP1 DUP8 ADD DUP13 SWAP1 MSTORE PUSH1 0x17 DUP2 DUP8 ADD MSTORE PUSH32 0x5061796D656E74207472616E73666572206661696C6564000000000000000000 PUSH1 0x44 DUP3 ADD MSTORE PUSH1 0x64 SWAP1 REVERT JUMPDEST PUSH2 0xBAB SWAP2 POP DUP13 DUP14 RETURNDATASIZE LT PUSH2 0x552 JUMPI PUSH2 0x544 DUP2 DUP4 PUSH2 0x229A JUMP JUMPDEST CODESIZE PUSH2 0x7D0 JUMP JUMPDEST DUP12 MLOAD SWAP1 RETURNDATASIZE SWAP1 DUP3 RETURNDATACOPY RETURNDATASIZE SWAP1 REVERT JUMPDEST PUSH4 0x4E487B71 PUSH1 0xE0 SHL DUP8 MSTORE PUSH1 0x11 DUP4 MSTORE PUSH1 0x24 DUP8 REVERT JUMPDEST SWAP2 PUSH1 0x64 SWAP3 MLOAD SWAP2 PUSH3 0x461BCD PUSH1 0xE5 SHL DUP4 MSTORE DUP3 ADD MSTORE PUSH1 0x16 PUSH1 0x24 DUP3 ADD MSTORE PUSH22 0x42656C6F77206D696E696D756D207075726368617365 PUSH1 0x50 SHL PUSH1 0x44 DUP3 ADD MSTORE REVERT JUMPDEST PUSH1 0x64 SWAP2 DUP5 MLOAD SWAP2 PUSH3 0x461BCD PUSH1 0xE5 SHL DUP4 MSTORE DUP3 ADD MSTORE PUSH1 0x16 PUSH1 0x24 DUP3 ADD MSTORE PUSH22 0x15185C99D95D08185B1C9958591E481C995858DA1959 PUSH1 0x52 SHL PUSH1 0x44 DUP3 ADD MSTORE REVERT JUMPDEST POP CALLVALUE PUSH2 0x29B JUMPI DUP3 PUSH1 0x3 NOT CALLDATASIZE ADD SLT PUSH2 0x29B JUMPI DUP1 MLOAD SWAP2 DUP4 PUSH1 0xB SLOAD SWAP1 PUSH1 0x1 SWAP1 DUP3 PUSH1 0x1 SHR SWAP3 PUSH1 0x1 DUP2 AND DUP1 ISZERO PUSH2 0xD3C JUMPI JUMPDEST PUSH1 0x20 SWAP6 DUP7 DUP7 LT DUP3 EQ PUSH2 0xD29 JUMPI POP DUP5 DUP9 MSTORE SWAP1 DUP2 ISZERO PUSH2 0xD07 JUMPI POP PUSH1 0x1 EQ PUSH2 0xCAE JUMPI JUMPDEST PUSH2 0xCAA DUP7 DUP7 PUSH2 0xCA0 DUP3 DUP12 SUB DUP4 PUSH2 0x229A JUMP JUMPDEST MLOAD SWAP2 DUP3 SWAP2 DUP3 PUSH2 0x22BC JUMP JUMPDEST SUB SWAP1 RETURN JUMPDEST SWAP3 SWAP6 POP PUSH1 0xB DUP4 MSTORE PUSH32 0x175B7A638427703F0DBE7BB9BBF987A2551717B34E79F33B5B1008D1FA01DB9 JUMPDEST DUP3 DUP5 LT PUSH2 0xCF4 JUMPI POP POP POP DUP3 PUSH2 0xCAA SWAP5 PUSH2 0xCA0 SWAP3 DUP3 ADD ADD SWAP5 CODESIZE PUSH2 0xC8F JUMP JUMPDEST DUP1 SLOAD DUP7 DUP6 ADD DUP9 ADD MSTORE SWAP3 DUP7 ADD SWAP3 DUP2 ADD PUSH2 0xCD7 JUMP JUMPDEST PUSH1 0xFF NOT AND DUP8 DUP7 ADD MSTORE POP POP POP ISZERO ISZERO PUSH1 0x5 SHL DUP4 ADD ADD SWAP3 POP PUSH2 0xCA0 DUP3 PUSH2 0xCAA CODESIZE PUSH2 0xC8F JUMP JUMPDEST PUSH4 0x4E487B71 PUSH1 0xE0 SHL DUP5 MSTORE PUSH1 0x22 SWAP1 MSTORE PUSH1 0x24 DUP4 REVERT JUMPDEST SWAP4 PUSH1 0x7F AND SWAP4 PUSH2 0xC6F JUMP JUMPDEST POP CALLVALUE PUSH2 0x29B JUMPI DUP1 PUSH1 0x3 NOT CALLDATASIZE ADD SLT PUSH2 0x29B JUMPI PUSH2 0xD5F PUSH2 0x224D JUMP JUMPDEST PUSH1 0x24 SWAP2 DUP3 CALLDATALOAD PUSH2 0xD6C PUSH2 0x29D8 JUMP JUMPDEST PUSH32 0x0 SWAP3 PUSH1 0x1 PUSH1 0x1 PUSH1 0xA0 SHL SUB SWAP1 DUP2 DUP6 AND CALLER SUB PUSH2 0xFB6 JUMPI PUSH1 0xFF PUSH1 0x6 SLOAD AND ISZERO PUSH2 0xF74 JUMPI DUP2 AND SWAP1 PUSH32 0x0 AND DUP2 EQ PUSH2 0xF32 JUMPI DUP3 MLOAD PUSH4 0x70A08231 PUSH1 0xE0 SHL DUP2 MSTORE ADDRESS DUP8 DUP3 ADD MSTORE PUSH1 0x20 SWAP5 SWAP1 DUP6 DUP2 DUP9 DUP2 DUP7 GAS STATICCALL SWAP1 DUP2 ISZERO PUSH2 0xF28 JUMPI SWAP1 DUP5 SWAP2 DUP11 SWAP2 PUSH2 0xEF3 JUMPI JUMPDEST POP LT PUSH2 0xEBA JUMPI DUP4 MLOAD PUSH4 0xA9059CBB PUSH1 0xE0 SHL DUP2 MSTORE PUSH1 0x1 PUSH1 0x1 PUSH1 0xA0 SHL SUB SWAP1 SWAP2 AND DUP8 DUP3 ADD SWAP1 DUP2 MSTORE PUSH1 0x20 DUP2 ADD SWAP4 SWAP1 SWAP4 MSTORE SWAP2 DUP5 SWAP2 DUP4 SWAP2 DUP3 SWAP1 DUP11 SWAP1 DUP3 SWAP1 PUSH1 0x40 ADD SUB SWAP3 GAS CALL SWAP1 DUP2 ISZERO PUSH2 0xEB0 JUMPI DUP7 SWAP2 PUSH2 0xE93 JUMPI JUMPDEST POP ISZERO PUSH2 0xE5C JUMPI DUP5 PUSH1 0x1 DUP2 SSTORE DUP1 RETURN JUMPDEST MLOAD PUSH3 0x461BCD PUSH1 0xE5 SHL DUP2 MSTORE SWAP3 DUP4 ADD MSTORE PUSH1 0x15 SWAP1 DUP3 ADD MSTORE PUSH21 0x151BDAD95B881C9958DBDD995C9E4819985A5B1959 PUSH1 0x5A SHL PUSH1 0x44 DUP3 ADD MSTORE PUSH1 0x64 SWAP1 REVERT JUMPDEST PUSH2 0xEAA SWAP2 POP DUP4 RETURNDATASIZE DUP6 GT PUSH2 0x552 JUMPI PUSH2 0x544 DUP2 DUP4 PUSH2 0x229A JUMP JUMPDEST CODESIZE PUSH2 0xE4E JUMP JUMPDEST DUP3 MLOAD RETURNDATASIZE DUP9 DUP3 RETURNDATACOPY RETURNDATASIZE SWAP1 REVERT JUMPDEST DUP4 MLOAD PUSH3 0x461BCD PUSH1 0xE5 SHL DUP2 MSTORE DUP1 DUP9 ADD DUP7 SWAP1 MSTORE PUSH1 0x14 DUP2 DUP9 ADD MSTORE PUSH20 0x496E73756666696369656E742062616C616E6365 PUSH1 0x60 SHL PUSH1 0x44 DUP3 ADD MSTORE PUSH1 0x64 SWAP1 REVERT JUMPDEST DUP1 SWAP3 POP DUP8 DUP1 SWAP3 POP RETURNDATASIZE DUP4 GT PUSH2 0xF21 JUMPI JUMPDEST PUSH2 0xF0C DUP2 DUP4 PUSH2 0x229A JUMP JUMPDEST DUP2 ADD SUB SLT PUSH2 0xF1D JUMPI DUP4 SWAP1 MLOAD CODESIZE PUSH2 0xE03 JUMP JUMPDEST DUP9 DUP1 REVERT JUMPDEST POP RETURNDATASIZE PUSH2 0xF02 JUMP JUMPDEST DUP6 MLOAD RETURNDATASIZE DUP12 DUP3 RETURNDATACOPY RETURNDATASIZE SWAP1 REVERT JUMPDEST DUP3 MLOAD PUSH3 0x461BCD PUSH1 0xE5 SHL DUP2 MSTORE PUSH1 0x20 DUP2 DUP9 ADD MSTORE PUSH1 0x19 DUP2 DUP8 ADD MSTORE PUSH32 0x43616E6E6F74207265636F7665722073616C6520746F6B656E00000000000000 PUSH1 0x44 DUP3 ADD MSTORE PUSH1 0x64 SWAP1 REVERT JUMPDEST DUP4 MLOAD PUSH3 0x461BCD PUSH1 0xE5 SHL DUP2 MSTORE PUSH1 0x20 DUP2 DUP10 ADD MSTORE PUSH1 0x1B DUP2 DUP9 ADD MSTORE PUSH32 0x4E6F7420796574206465706C6F79656420746F20556E69737761700000000000 PUSH1 0x44 DUP3 ADD MSTORE PUSH1 0x64 SWAP1 REVERT JUMPDEST DUP4 MLOAD PUSH3 0x461BCD PUSH1 0xE5 SHL DUP2 MSTORE PUSH1 0x20 DUP2 DUP10 ADD MSTORE PUSH1 0x19 DUP2 DUP9 ADD MSTORE PUSH32 0x4F6E6C7920666F756E646572732063616E207265636F76657200000000000000 PUSH1 0x44 DUP3 ADD MSTORE PUSH1 0x64 SWAP1 REVERT JUMPDEST DUP4 DUP3 CALLVALUE PUSH2 0x2EC JUMPI DUP2 PUSH1 0x3 NOT CALLDATASIZE ADD SLT PUSH2 0x2EC JUMPI PUSH1 0x20 SWAP1 PUSH1 0x7 SLOAD SWAP1 MLOAD SWAP1 DUP2 MSTORE RETURN JUMPDEST POP DUP3 CALLVALUE PUSH2 0x10C4 JUMPI PUSH1 0x20 SWAP1 DUP2 PUSH1 0x3 NOT CALLDATASIZE ADD SLT PUSH2 0x10C4 JUMPI DUP3 SWAP1 PUSH1 0x1 PUSH1 0x1 PUSH1 0xA0 SHL SUB PUSH2 0x103E PUSH2 0x224D JUMP JUMPDEST AND DUP2 MSTORE PUSH1 0xD DUP4 MSTORE DUP2 DUP2 KECCAK256 SWAP1 DUP3 MLOAD DUP1 DUP6 DUP5 SLOAD SWAP2 DUP3 DUP2 MSTORE ADD SWAP1 DUP2 SWAP5 DUP5 MSTORE DUP7 DUP5 KECCAK256 SWAP1 DUP5 JUMPDEST DUP2 DUP2 LT PUSH2 0x10B0 JUMPI POP POP POP DUP2 PUSH2 0x1075 SWAP2 SUB DUP3 PUSH2 0x229A JUMP JUMPDEST DUP4 MLOAD SWAP5 DUP6 SWAP5 DUP2 DUP7 ADD SWAP3 DUP3 DUP8 MSTORE MLOAD DUP1 SWAP4 MSTORE DUP6 ADD SWAP4 SWAP3 JUMPDEST DUP3 DUP2 LT PUSH2 0x1099 JUMPI POP POP POP POP SUB SWAP1 RETURN JUMPDEST DUP4 MLOAD DUP6 MSTORE DUP7 SWAP6 POP SWAP4 DUP2 ADD SWAP4 SWAP3 DUP2 ADD SWAP3 PUSH1 0x1 ADD PUSH2 0x108A JUMP JUMPDEST DUP3 SLOAD DUP5 MSTORE SWAP3 DUP9 ADD SWAP3 PUSH1 0x1 SWAP3 DUP4 ADD SWAP3 ADD PUSH2 0x105F JUMP JUMPDEST DUP1 REVERT JUMPDEST POP SWAP1 CALLVALUE PUSH2 0x29B JUMPI DUP3 PUSH1 0x3 NOT CALLDATASIZE ADD SLT PUSH2 0x29B JUMPI SLOAD SWAP1 MLOAD PUSH1 0x8 SWAP2 SWAP1 SWAP2 SHR PUSH1 0x1 PUSH1 0x1 PUSH1 0xA0 SHL SUB AND DUP2 MSTORE PUSH1 0x20 SWAP2 POP RETURN JUMPDEST DUP4 DUP3 CALLVALUE PUSH2 0x2EC JUMPI DUP2 PUSH1 0x3 NOT CALLDATASIZE ADD SLT PUSH2 0x2EC JUMPI PUSH1 0x20 SWAP1 MLOAD PUSH32 0x0 DUP2 MSTORE RETURN JUMPDEST DUP4 DUP3 CALLVALUE PUSH2 0x2EC JUMPI DUP2 PUSH1 0x3 NOT CALLDATASIZE ADD SLT PUSH2 0x2EC JUMPI PUSH1 0x20 SWAP1 PUSH1 0x5 SLOAD SWAP1 MLOAD SWAP1 DUP2 MSTORE RETURN JUMPDEST DUP4 DUP3 CALLVALUE PUSH2 0x2EC JUMPI DUP2 PUSH1 0x3 NOT CALLDATASIZE ADD SLT PUSH2 0x2EC JUMPI PUSH1 0x20 SWAP1 MLOAD PUSH32 0x0 DUP2 MSTORE RETURN JUMPDEST DUP4 DUP3 CALLVALUE PUSH2 0x2EC JUMPI DUP2 PUSH1 0x3 NOT CALLDATASIZE ADD SLT PUSH2 0x2EC JUMPI PUSH1 0x20 SWAP1 MLOAD PUSH3 0xF4240 PUSH32 0x0 DIV DUP2 MSTORE RETURN JUMPDEST DUP4 DUP3 CALLVALUE PUSH2 0x2EC JUMPI DUP2 PUSH1 0x3 NOT CALLDATASIZE ADD SLT PUSH2 0x2EC JUMPI PUSH1 0x20 SWAP1 PUSH1 0x8 SLOAD SWAP1 MLOAD SWAP1 DUP2 MSTORE RETURN JUMPDEST DUP4 DUP3 CALLVALUE PUSH2 0x2EC JUMPI DUP2 PUSH1 0x3 NOT CALLDATASIZE ADD SLT PUSH2 0x2EC JUMPI PUSH1 0x20 SWAP1 MLOAD PUSH32 0x0 DUP2 MSTORE RETURN JUMPDEST DUP4 DUP3 CALLVALUE PUSH2 0x2EC JUMPI DUP2 PUSH1 0x3 NOT CALLDATASIZE ADD SLT PUSH2 0x2EC JUMPI MLOAD PUSH32 0x0 PUSH1 0x1 PUSH1 0x1 PUSH1 0xA0 SHL SUB AND DUP2 MSTORE PUSH1 0x20 SWAP1 RETURN JUMPDEST DUP4 DUP3 CALLVALUE PUSH2 0x2EC JUMPI DUP2 PUSH1 0x3 NOT CALLDATASIZE ADD SLT PUSH2 0x2EC JUMPI PUSH1 0x20 SWAP1 PUSH2 0x358 PUSH2 0x28B1 JUMP JUMPDEST POP CALLVALUE PUSH2 0x29B JUMPI PUSH1 0x20 CALLDATASIZE PUSH1 0x3 NOT ADD SLT PUSH2 0x29B JUMPI PUSH1 0xFF DUP2 PUSH1 0xE0 SWAP5 DUP5 CALLDATALOAD DUP2 MSTORE PUSH1 0xC PUSH1 0x20 MSTORE KECCAK256 DUP1 SLOAD SWAP4 PUSH1 0x1 DUP3 ADD SLOAD SWAP4 PUSH1 0x2 DUP4 ADD SLOAD SWAP2 PUSH1 0x3 DUP5 ADD SLOAD SWAP4 ADD SLOAD SWAP5 DUP2 MLOAD SWAP7 DUP8 MSTORE PUSH1 0x20 DUP8 ADD MSTORE DUP6 ADD MSTORE PUSH1 0x1 DUP1 PUSH1 0xA0 SHL SUB DUP2 AND PUSH1 0x60 DUP6 ADD MSTORE DUP2 DUP2 PUSH1 0xA0 SHR AND ISZERO ISZERO PUSH1 0x80 DUP6 ADD MSTORE PUSH1 0xA8 SHR AND ISZERO ISZERO PUSH1 0xA0 DUP4 ADD MSTORE PUSH1 0xC0 DUP3 ADD MSTORE RETURN JUMPDEST POP CALLVALUE PUSH2 0x29B JUMPI DUP3 PUSH1 0x3 NOT CALLDATASIZE ADD SLT PUSH2 0x29B JUMPI DUP1 MLOAD SWAP2 DUP4 PUSH1 0x3 SLOAD SWAP1 PUSH1 0x1 SWAP1 DUP3 PUSH1 0x1 SHR SWAP3 PUSH1 0x1 DUP2 AND DUP1 ISZERO PUSH2 0x13AC JUMPI JUMPDEST PUSH1 0x20 SWAP6 DUP7 DUP7 LT DUP3 EQ PUSH2 0xD29 JUMPI POP DUP5 DUP9 MSTORE SWAP1 DUP2 ISZERO PUSH2 0xD07 JUMPI POP PUSH1 0x1 EQ PUSH2 0x1353 JUMPI PUSH2 0xCAA DUP7 DUP7 PUSH2 0xCA0 DUP3 DUP12 SUB DUP4 PUSH2 0x229A JUMP JUMPDEST SWAP3 SWAP6 POP PUSH1 0x3 DUP4 MSTORE PUSH32 0xC2575A0E9E593C00F959F8C92F12DB2869C3395A3B0502D05E2516446F71F85B JUMPDEST DUP3 DUP5 LT PUSH2 0x1399 JUMPI POP POP POP DUP3 PUSH2 0xCAA SWAP5 PUSH2 0xCA0 SWAP3 DUP3 ADD ADD SWAP5 CODESIZE PUSH2 0xC8F JUMP JUMPDEST DUP1 SLOAD DUP7 DUP6 ADD DUP9 ADD MSTORE SWAP3 DUP7 ADD SWAP3 DUP2 ADD PUSH2 0x137C JUMP JUMPDEST SWAP4 PUSH1 0x7F AND SWAP4 PUSH2 0x1323 JUMP JUMPDEST DUP4 DUP3 CALLVALUE PUSH2 0x2EC JUMPI DUP2 PUSH1 0x3 NOT CALLDATASIZE ADD SLT PUSH2 0x2EC JUMPI MLOAD PUSH32 0x0 PUSH1 0x1 PUSH1 0x1 PUSH1 0xA0 SHL SUB AND DUP2 MSTORE PUSH1 0x20 SWAP1 RETURN JUMPDEST DUP4 DUP3 CALLVALUE PUSH2 0x2EC JUMPI DUP2 PUSH1 0x3 NOT CALLDATASIZE ADD SLT PUSH2 0x2EC JUMPI PUSH1 0x20 SWAP1 PUSH2 0x358 PUSH2 0x2740 JUMP JUMPDEST DUP4 DUP3 CALLVALUE PUSH2 0x2EC JUMPI DUP1 PUSH1 0x3 NOT CALLDATASIZE ADD SLT PUSH2 0x2EC JUMPI PUSH2 0x1431 PUSH2 0x224D JUMP JUMPDEST PUSH1 0x1 PUSH1 0x1 PUSH1 0xA0 SHL SUB AND DUP3 MSTORE PUSH1 0xD PUSH1 0x20 MSTORE DUP1 DUP3 KECCAK256 DUP1 SLOAD PUSH1 0x24 CALLDATALOAD SWAP4 SWAP1 DUP5 LT ISZERO PUSH2 0x10C4 JUMPI POP PUSH1 0x20 SWAP3 PUSH2 0x145F SWAP2 PUSH2 0x2305 JUMP JUMPDEST SWAP2 SWAP1 SLOAD SWAP1 MLOAD SWAP2 PUSH1 0x3 SHL SHR DUP2 MSTORE RETURN JUMPDEST DUP4 DUP3 CALLVALUE PUSH2 0x2EC JUMPI DUP2 PUSH1 0x3 NOT CALLDATASIZE ADD SLT PUSH2 0x2EC JUMPI PUSH1 0x20 SWAP1 MLOAD PUSH32 0x0 DUP2 MSTORE RETURN JUMPDEST POP CALLVALUE PUSH2 0x29B JUMPI DUP3 PUSH1 0x3 NOT CALLDATASIZE ADD SLT PUSH2 0x29B JUMPI DUP1 MLOAD SWAP2 DUP4 PUSH1 0xA SLOAD SWAP1 PUSH1 0x1 SWAP1 DUP3 PUSH1 0x1 SHR SWAP3 PUSH1 0x1 DUP2 AND DUP1 ISZERO PUSH2 0x155D JUMPI JUMPDEST PUSH1 0x20 SWAP6 DUP7 DUP7 LT DUP3 EQ PUSH2 0xD29 JUMPI POP DUP5 DUP9 MSTORE SWAP1 DUP2 ISZERO PUSH2 0xD07 JUMPI POP PUSH1 0x1 EQ PUSH2 0x1504 JUMPI PUSH2 0xCAA DUP7 DUP7 PUSH2 0xCA0 DUP3 DUP12 SUB DUP4 PUSH2 0x229A JUMP JUMPDEST SWAP3 SWAP6 POP PUSH1 0xA DUP4 MSTORE PUSH32 0xC65A7BB8D6351C1CF70C95A316CC6A92839C986682D98BC35F958F4883F9D2A8 JUMPDEST DUP3 DUP5 LT PUSH2 0x154A JUMPI POP POP POP DUP3 PUSH2 0xCAA SWAP5 PUSH2 0xCA0 SWAP3 DUP3 ADD ADD SWAP5 CODESIZE PUSH2 0xC8F JUMP JUMPDEST DUP1 SLOAD DUP7 DUP6 ADD DUP9 ADD MSTORE SWAP3 DUP7 ADD SWAP3 DUP2 ADD PUSH2 0x152D JUMP JUMPDEST SWAP4 PUSH1 0x7F AND SWAP4 PUSH2 0x14D4 JUMP JUMPDEST POP CALLVALUE PUSH2 0x29B JUMPI DUP3 PUSH1 0x3 NOT CALLDATASIZE ADD SLT PUSH2 0x29B JUMPI DUP1 MLOAD SWAP2 DUP4 PUSH1 0x1 DUP1 SLOAD SWAP2 DUP3 PUSH1 0x1 SHR SWAP3 PUSH1 0x1 DUP2 AND DUP1 ISZERO PUSH2 0x161A JUMPI JUMPDEST PUSH1 0x20 SWAP6 DUP7 DUP7 LT DUP3 EQ PUSH2 0xD29 JUMPI POP DUP5 DUP9 MSTORE SWAP1 DUP2 ISZERO PUSH2 0xD07 JUMPI POP PUSH1 0x1 EQ PUSH2 0x15C1 JUMPI PUSH2 0xCAA DUP7 DUP7 PUSH2 0xCA0 DUP3 DUP12 SUB DUP4 PUSH2 0x229A JUMP JUMPDEST SWAP3 SWAP6 POP PUSH1 0x1 DUP4 MSTORE PUSH32 0xB10E2D527612073B26EECDFD717E6A320CF44B4AFAC2B0732D9FCBE2B7FA0CF6 JUMPDEST DUP3 DUP5 LT PUSH2 0x1607 JUMPI POP POP POP DUP3 PUSH2 0xCAA SWAP5 PUSH2 0xCA0 SWAP3 DUP3 ADD ADD SWAP5 CODESIZE PUSH2 0xC8F JUMP JUMPDEST DUP1 SLOAD DUP7 DUP6 ADD DUP9 ADD MSTORE SWAP3 DUP7 ADD SWAP3 DUP2 ADD PUSH2 0x15EA JUMP JUMPDEST SWAP4 PUSH1 0x7F AND SWAP4 PUSH2 0x1591 JUMP JUMPDEST DUP4 DUP3 CALLVALUE PUSH2 0x2EC JUMPI DUP2 PUSH1 0x3 NOT CALLDATASIZE ADD SLT PUSH2 0x2EC JUMPI PUSH1 0x20 SWAP1 PUSH1 0xFF PUSH1 0x6 SLOAD PUSH1 0x8 SHR AND SWAP1 MLOAD SWAP1 ISZERO ISZERO DUP2 MSTORE RETURN JUMPDEST POP DUP3 CALLVALUE PUSH2 0x10C4 JUMPI DUP1 PUSH1 0x3 NOT CALLDATASIZE ADD SLT PUSH2 0x10C4 JUMPI POP PUSH1 0xFF PUSH1 0x20 SWAP3 SLOAD AND SWAP1 MLOAD SWAP1 DUP2 MSTORE RETURN JUMPDEST DUP4 DUP3 CALLVALUE PUSH2 0x2EC JUMPI DUP2 PUSH1 0x3 NOT CALLDATASIZE ADD SLT PUSH2 0x2EC JUMPI MLOAD PUSH32 0x0 PUSH1 0x1 PUSH1 0x1 PUSH1 0xA0 SHL SUB AND DUP2 MSTORE PUSH1 0x20 SWAP1 RETURN JUMPDEST POP CALLVALUE PUSH2 0x29B JUMPI PUSH1 0x20 SWAP1 DUP2 PUSH1 0x3 NOT CALLDATASIZE ADD SLT PUSH2 0x650 JUMPI DUP3 CALLDATALOAD SWAP3 PUSH2 0x16CF PUSH2 0x29D8 JUMP JUMPDEST PUSH2 0x16DE PUSH1 0xFF PUSH1 0x6 SLOAD AND ISZERO PUSH2 0x2684 JUMP JUMPDEST DUP4 DUP6 MSTORE PUSH1 0xC DUP4 MSTORE DUP2 DUP6 KECCAK256 PUSH1 0x3 DUP2 ADD DUP1 SLOAD PUSH1 0x1 PUSH1 0x1 PUSH1 0xA0 SHL SUB SWAP4 SWAP3 SWAP2 SWAP1 PUSH2 0x1707 DUP6 DUP3 AND CALLER EQ PUSH2 0x26C1 JUMP JUMPDEST PUSH1 0xFF DUP2 PUSH1 0xA0 SHR AND PUSH2 0x1863 JUMPI PUSH1 0x1 DUP10 SWAP4 DUP9 SWAP4 DUP4 PUSH2 0x172C PUSH1 0xFF PUSH2 0x178E SWAP7 PUSH1 0xA8 SHR AND ISZERO PUSH2 0x2701 JUMP JUMPDEST PUSH1 0xFF PUSH1 0xA0 SHL NOT AND PUSH1 0xA0 DUP5 SWAP1 SHL OR SWAP1 SSTORE PUSH1 0x2 DUP2 ADD SLOAD PUSH1 0x7 SLOAD PUSH2 0x174D SWAP2 SWAP1 PUSH2 0x2389 JUMP JUMPDEST PUSH1 0x7 SSTORE ADD SWAP5 PUSH2 0x175F DUP7 SLOAD PUSH1 0x8 SLOAD PUSH2 0x2389 JUMP JUMPDEST PUSH1 0x8 SSTORE DUP6 SLOAD DUP8 MLOAD PUSH4 0xA9059CBB PUSH1 0xE0 SHL DUP2 MSTORE CALLER DUP8 DUP3 ADD SWAP1 DUP2 MSTORE PUSH1 0x20 DUP2 ADD SWAP3 SWAP1 SWAP3 MSTORE SWAP5 DUP6 SWAP4 DUP5 SWAP3 DUP4 SWAP2 PUSH1 0x40 SWAP1 SWAP2 ADD SWAP1 JUMP JUMPDEST SUB SWAP3 PUSH32 0x0 AND GAS CALL SWAP1 DUP2 ISZERO PUSH2 0x1859 JUMPI DUP8 SWAP2 PUSH2 0x183C JUMPI JUMPDEST POP ISZERO PUSH2 0x1809 JUMPI POP SLOAD SWAP2 PUSH1 0x8 SLOAD SWAP1 DUP3 MLOAD SWAP4 DUP5 MSTORE DUP4 ADD MSTORE TIMESTAMP SWAP1 DUP3 ADD MSTORE PUSH32 0x40AFC61AABCE83A502901D9DC66B15D1EE92BFCC1F4F56923B8434DCD041E19F PUSH1 0x60 CALLER SWAP3 LOG3 PUSH1 0x1 DUP2 SSTORE DUP1 RETURN JUMPDEST DUP3 MLOAD PUSH3 0x461BCD PUSH1 0xE5 SHL DUP2 MSTORE SWAP1 DUP2 ADD DUP5 SWAP1 MSTORE PUSH1 0xD PUSH1 0x24 DUP3 ADD MSTORE PUSH13 0x1499599D5B990819985A5B1959 PUSH1 0x9A SHL PUSH1 0x44 DUP3 ADD MSTORE PUSH1 0x64 SWAP1 REVERT JUMPDEST PUSH2 0x1853 SWAP2 POP DUP6 RETURNDATASIZE DUP8 GT PUSH2 0x552 JUMPI PUSH2 0x544 DUP2 DUP4 PUSH2 0x229A JUMP JUMPDEST CODESIZE PUSH2 0x17C2 JUMP JUMPDEST DUP5 MLOAD RETURNDATASIZE DUP10 DUP3 RETURNDATACOPY RETURNDATASIZE SWAP1 REVERT JUMPDEST DUP6 MLOAD PUSH3 0x461BCD PUSH1 0xE5 SHL DUP2 MSTORE DUP1 DUP6 ADD DUP9 SWAP1 MSTORE PUSH1 0x10 PUSH1 0x24 DUP3 ADD MSTORE PUSH16 0x105B1C9958591E481C99599D5B991959 PUSH1 0x82 SHL PUSH1 0x44 DUP3 ADD MSTORE PUSH1 0x64 SWAP1 REVERT JUMPDEST DUP4 DUP3 CALLVALUE PUSH2 0x2EC JUMPI DUP2 PUSH1 0x3 NOT CALLDATASIZE ADD SLT PUSH2 0x2EC JUMPI PUSH1 0x20 SWAP1 PUSH1 0xFF PUSH1 0x6 SLOAD AND SWAP1 MLOAD SWAP1 ISZERO ISZERO DUP2 MSTORE RETURN JUMPDEST DUP4 DUP3 CALLVALUE PUSH2 0x2EC JUMPI DUP2 PUSH1 0x3 NOT CALLDATASIZE ADD SLT PUSH2 0x2EC JUMPI MLOAD PUSH32 0x0 PUSH1 0x1 PUSH1 0x1 PUSH1 0xA0 SHL SUB AND DUP2 MSTORE PUSH1 0x20 SWAP1 RETURN JUMPDEST DUP4 DUP3 CALLVALUE PUSH2 0x2EC JUMPI DUP2 PUSH1 0x3 NOT CALLDATASIZE ADD SLT PUSH2 0x2EC JUMPI MLOAD PUSH32 0x0 PUSH1 0x1 PUSH1 0x1 PUSH1 0xA0 SHL SUB AND DUP2 MSTORE PUSH1 0x20 SWAP1 RETURN JUMPDEST DUP4 DUP3 CALLVALUE PUSH2 0x2EC JUMPI DUP2 PUSH1 0x3 NOT CALLDATASIZE ADD SLT PUSH2 0x2EC JUMPI PUSH1 0x20 SWAP1 PUSH2 0x1962 PUSH2 0x25E4 JUMP JUMPDEST SWAP1 MLOAD SWAP1 ISZERO ISZERO DUP2 MSTORE RETURN JUMPDEST POP DUP3 CALLVALUE PUSH2 0x10C4 JUMPI DUP1 PUSH1 0x3 NOT CALLDATASIZE ADD SLT PUSH2 0x10C4 JUMPI PUSH1 0x6 SLOAD PUSH1 0xFF DUP2 PUSH1 0x8 SHR AND ISZERO PUSH2 0x204E JUMPI PUSH1 0xFF AND PUSH2 0x2018 JUMPI PUSH2 0x199B PUSH2 0x28B1 JUMP JUMPDEST SWAP2 PUSH2 0x19AC PUSH2 0x19A7 PUSH2 0x25E4 JUMP JUMPDEST PUSH2 0x2580 JUMP JUMPDEST PUSH2 0x19BA PUSH1 0xFF PUSH1 0x2 SLOAD AND PUSH2 0x23E7 JUMP JUMPDEST SWAP4 PUSH2 0x19C8 PUSH1 0xFF DUP3 SLOAD AND PUSH2 0x23E7 JUMP JUMPDEST PUSH2 0x19F3 PUSH32 0x0 SWAP7 DUP8 PUSH2 0x2356 JUMP JUMPDEST SWAP1 PUSH8 0xDE0B6B3A7640000 SWAP2 DUP3 DUP2 MUL SWAP3 DUP2 DUP5 DIV EQ SWAP1 ISZERO OR ISZERO PUSH2 0x2005 JUMPI SWAP1 PUSH2 0x1A3C PUSH2 0x1A42 SWAP3 PUSH32 0x0 PUSH2 0x2356 JUMP JUMPDEST SWAP1 PUSH2 0x2369 JUMP JUMPDEST DUP3 MLOAD PUSH4 0x70A08231 PUSH1 0xE0 SHL DUP1 DUP3 MSTORE ADDRESS DUP5 DUP4 ADD MSTORE PUSH1 0x20 SWAP8 PUSH1 0x1 PUSH1 0x1 PUSH1 0xA0 SHL SUB PUSH32 0x0 DUP2 AND SWAP9 SWAP1 SWAP8 SWAP5 SWAP6 SWAP5 SWAP4 PUSH1 0x24 SWAP3 SWAP1 DUP12 DUP2 DUP6 DUP2 DUP15 GAS STATICCALL DUP1 ISZERO PUSH2 0x1E42 JUMPI DUP9 SWAP1 DUP8 SWAP1 PUSH2 0x1FD4 JUMPI JUMPDEST PUSH2 0x1AAF SWAP3 POP LT ISZERO PUSH2 0x2580 JUMP JUMPDEST DUP9 PUSH32 0x0 AND SWAP4 DUP9 MLOAD SWAP1 DUP2 MSTORE ADDRESS DUP8 DUP3 ADD MSTORE DUP12 DUP2 DUP6 DUP2 DUP9 GAS STATICCALL SWAP1 DUP2 ISZERO PUSH2 0x1E42 JUMPI DUP7 SWAP2 PUSH2 0x1FA3 JUMPI JUMPDEST POP PUSH2 0x1AFD DUP4 DUP4 PUSH2 0x2333 JUMP JUMPDEST GT PUSH2 0x1F61 JUMPI DUP8 MLOAD PUSH4 0x95EA7B3 PUSH1 0xE0 SHL DUP1 DUP3 MSTORE PUSH32 0x0 DUP12 AND PUSH1 0x1 PUSH1 0x1 PUSH1 0xA0 SHL SUB DUP2 AND DUP10 DUP5 ADD SWAP1 DUP2 MSTORE PUSH1 0x20 DUP2 ADD DUP12 SWAP1 MSTORE SWAP1 SWAP4 SWAP3 SWAP1 DUP15 SWAP1 DUP3 SWAP1 DUP16 SWAP1 DUP3 SWAP1 DUP13 SWAP1 DUP3 SWAP1 PUSH1 0x40 ADD SUB SWAP3 GAS CALL SWAP1 DUP2 ISZERO PUSH2 0x1F57 JUMPI DUP15 DUP10 SWAP3 PUSH2 0x1F3A JUMPI JUMPDEST POP POP ISZERO PUSH2 0x1F00 JUMPI DUP10 MLOAD SWAP1 DUP2 MSTORE PUSH1 0x1 PUSH1 0x1 PUSH1 0xA0 SHL SUB DUP4 AND DUP9 DUP3 ADD SWAP1 DUP2 MSTORE PUSH1 0x20 DUP2 ADD DUP4 SWAP1 MSTORE DUP14 SWAP1 DUP3 SWAP1 DUP2 SWAP1 PUSH1 0x40 ADD SUB DUP2 DUP11 DUP11 GAS CALL SWAP1 DUP2 ISZERO PUSH2 0x1EF6 JUMPI DUP8 SWAP2 PUSH2 0x1ED9 JUMPI JUMPDEST POP ISZERO PUSH2 0x1E9E JUMPI PUSH1 0x78 TIMESTAMP ADD SWAP1 DUP2 TIMESTAMP GT PUSH2 0x1E8C JUMPI DUP8 DUP8 PUSH1 0x60 SWAP5 DUP15 SWAP5 DUP15 PUSH2 0x104 SWAP6 DUP16 MLOAD SWAP15 DUP16 SWAP9 DUP10 SWAP8 PUSH3 0xE8E337 PUSH1 0xE8 SHL DUP10 MSTORE DUP9 ADD MSTORE DUP13 DUP13 DUP9 ADD MSTORE DUP1 PUSH1 0x44 DUP9 ADD MSTORE DUP2 PUSH1 0x64 DUP9 ADD MSTORE PUSH1 0x84 DUP8 ADD MSTORE PUSH1 0xA4 DUP7 ADD MSTORE PUSH32 0x0 AND PUSH1 0xC4 DUP6 ADD MSTORE PUSH1 0xE4 DUP5 ADD MSTORE GAS CALL SWAP6 DUP7 ISZERO PUSH2 0x1E82 JUMPI DUP5 SWAP7 PUSH2 0x1E4C JUMPI JUMPDEST POP DUP1 PUSH2 0x1D4B JUMPI JUMPDEST POP PUSH1 0x1 PUSH1 0xFF NOT PUSH1 0x6 SLOAD AND OR PUSH1 0x6 SSTORE DUP6 MLOAD SWAP8 PUSH4 0xE6A43905 PUSH1 0xE0 SHL DUP10 MSTORE DUP5 DUP10 ADD MSTORE DUP8 ADD MSTORE DUP7 DUP7 PUSH1 0x44 DUP2 DUP9 PUSH32 0x0 AND GAS STATICCALL SWAP6 DUP7 ISZERO PUSH2 0x1D3F JUMPI DUP2 SWAP7 PUSH2 0x1D01 JUMPI JUMPDEST POP POP DUP1 SLOAD PUSH2 0x100 PUSH1 0x1 PUSH1 0xA8 SHL SUB NOT AND PUSH1 0x8 DUP7 SWAP1 SHL PUSH2 0x100 PUSH1 0x1 PUSH1 0xA8 SHL SUB AND OR SWAP1 SSTORE DUP2 MLOAD PUSH1 0x1 PUSH1 0x1 PUSH1 0xA0 SHL SUB DUP6 AND DUP2 MSTORE PUSH1 0x20 DUP2 ADD SWAP2 SWAP1 SWAP2 MSTORE PUSH32 0x4DB0962B68E799B508143F50800F1504D656CBD0FE6395510C0DCA385BFD8407 SWAP1 DUP1 PUSH1 0x40 DUP2 ADD JUMPDEST SUB SWAP1 LOG1 MLOAD SWAP2 AND DUP2 MSTORE RETURN JUMPDEST SWAP1 SWAP2 SWAP6 POP DUP7 DUP2 DUP2 RETURNDATASIZE DUP4 GT PUSH2 0x1D38 JUMPI JUMPDEST PUSH2 0x1D1A DUP2 DUP4 PUSH2 0x229A JUMP JUMPDEST DUP2 ADD SUB SLT PUSH2 0x2EC JUMPI MLOAD SWAP1 DUP5 DUP3 AND DUP3 SUB PUSH2 0x10C4 JUMPI POP SWAP4 DUP2 PUSH2 0x1CF7 PUSH2 0x1C98 JUMP JUMPDEST POP RETURNDATASIZE PUSH2 0x1D10 JUMP JUMPDEST POP DUP4 MLOAD SWAP1 RETURNDATASIZE SWAP1 DUP3 RETURNDATACOPY RETURNDATASIZE SWAP1 REVERT JUMPDEST DUP7 MLOAD PUSH4 0xA9059CBB PUSH1 0xE0 SHL DUP2 MSTORE PUSH32 0x0 PUSH1 0x1 PUSH1 0x1 PUSH1 0xA0 SHL SUB DUP2 AND DUP8 DUP4 ADD SWAP1 DUP2 MSTORE PUSH1 0x20 DUP2 ADD DUP5 SWAP1 MSTORE SWAP1 SWAP2 SWAP1 DUP13 SWAP1 DUP3 SWAP1 DUP2 SWAP1 PUSH1 0x40 ADD SUB DUP2 DUP10 DUP10 GAS CALL SWAP1 DUP2 ISZERO PUSH2 0x1E42 JUMPI DUP7 SWAP2 PUSH2 0x1E25 JUMPI JUMPDEST POP ISZERO PUSH2 0x1DEB JUMPI PUSH32 0xEFC7F1F15BECFAEC7A3C17EEC78BE3FA7ADB45698F26FCFD25EFE1754C242331 SWAP2 DUP10 DUP10 SWAP3 DUP4 MLOAD SWAP3 DUP4 MSTORE AND DUP13 DUP3 ADD MSTORE LOG1 DUP10 PUSH2 0x1C3E JUMP JUMPDEST DUP8 MLOAD PUSH3 0x461BCD PUSH1 0xE5 SHL DUP2 MSTORE DUP1 DUP8 ADD DUP13 SWAP1 MSTORE PUSH1 0x15 DUP2 DUP6 ADD MSTORE PUSH21 0x115CD8DC9BDDC81C995B19585CD94819985A5B1959 PUSH1 0x5A SHL PUSH1 0x44 DUP3 ADD MSTORE PUSH1 0x64 SWAP1 REVERT JUMPDEST PUSH2 0x1E3C SWAP2 POP DUP13 DUP14 RETURNDATASIZE LT PUSH2 0x552 JUMPI PUSH2 0x544 DUP2 DUP4 PUSH2 0x229A JUMP JUMPDEST DUP13 PUSH2 0x1DAF JUMP JUMPDEST DUP10 MLOAD RETURNDATASIZE DUP9 DUP3 RETURNDATACOPY RETURNDATASIZE SWAP1 REVERT JUMPDEST SWAP1 SWAP6 POP PUSH1 0x60 DUP2 RETURNDATASIZE PUSH1 0x60 GT PUSH2 0x1E7A JUMPI JUMPDEST DUP2 PUSH2 0x1E68 PUSH1 0x60 SWAP4 DUP4 PUSH2 0x229A JUMP JUMPDEST DUP2 ADD SUB SLT PUSH2 0x650 JUMPI DUP7 ADD MLOAD SWAP5 DUP11 PUSH2 0x1C37 JUMP JUMPDEST RETURNDATASIZE SWAP2 POP PUSH2 0x1E5B JUMP JUMPDEST DUP8 MLOAD RETURNDATASIZE DUP7 DUP3 RETURNDATACOPY RETURNDATASIZE SWAP1 REVERT JUMPDEST PUSH4 0x4E487B71 PUSH1 0xE0 SHL DUP8 MSTORE PUSH1 0x11 DUP9 MSTORE DUP5 DUP8 REVERT JUMPDEST DUP9 MLOAD PUSH3 0x461BCD PUSH1 0xE5 SHL DUP2 MSTORE DUP1 DUP9 ADD DUP14 SWAP1 MSTORE PUSH1 0x16 DUP2 DUP7 ADD MSTORE PUSH22 0x14185E5B595B9D08185C1C1C9BDD994819985A5B1959 PUSH1 0x52 SHL PUSH1 0x44 DUP3 ADD MSTORE PUSH1 0x64 SWAP1 REVERT JUMPDEST PUSH2 0x1EF0 SWAP2 POP DUP14 DUP1 RETURNDATASIZE LT PUSH2 0x552 JUMPI PUSH2 0x544 DUP2 DUP4 PUSH2 0x229A JUMP JUMPDEST DUP14 PUSH2 0x1BAF JUMP JUMPDEST DUP11 MLOAD RETURNDATASIZE DUP10 DUP3 RETURNDATACOPY RETURNDATASIZE SWAP1 REVERT JUMPDEST POP DUP9 MLOAD PUSH3 0x461BCD PUSH1 0xE5 SHL DUP2 MSTORE DUP1 DUP9 ADD DUP14 SWAP1 MSTORE PUSH1 0x14 DUP2 DUP7 ADD MSTORE PUSH20 0x151BDAD95B88185C1C1C9BDD994819985A5B1959 PUSH1 0x62 SHL PUSH1 0x44 DUP3 ADD MSTORE PUSH1 0x64 SWAP1 REVERT JUMPDEST PUSH2 0x1F50 SWAP3 POP DUP1 RETURNDATASIZE LT PUSH2 0x552 JUMPI PUSH2 0x544 DUP2 DUP4 PUSH2 0x229A JUMP JUMPDEST DUP15 DUP15 PUSH2 0x1B6F JUMP JUMPDEST DUP12 MLOAD RETURNDATASIZE DUP11 DUP3 RETURNDATACOPY RETURNDATASIZE SWAP1 REVERT JUMPDEST DUP8 MLOAD PUSH3 0x461BCD PUSH1 0xE5 SHL DUP2 MSTORE DUP1 DUP8 ADD DUP13 SWAP1 MSTORE PUSH1 0x1B DUP2 DUP6 ADD MSTORE PUSH32 0x496E73756666696369656E74207061796D656E7420746F6B656E730000000000 PUSH1 0x44 DUP3 ADD MSTORE PUSH1 0x64 SWAP1 REVERT JUMPDEST SWAP1 POP DUP12 DUP2 DUP2 RETURNDATASIZE DUP4 GT PUSH2 0x1FCD JUMPI JUMPDEST PUSH2 0x1FBA DUP2 DUP4 PUSH2 0x229A JUMP JUMPDEST DUP2 ADD SUB SLT PUSH2 0x1FC9 JUMPI MLOAD DUP13 PUSH2 0x1AF2 JUMP JUMPDEST DUP6 DUP1 REVERT JUMPDEST POP RETURNDATASIZE PUSH2 0x1FB0 JUMP JUMPDEST POP POP DUP12 DUP2 DUP2 RETURNDATASIZE DUP4 GT PUSH2 0x1FFE JUMPI JUMPDEST PUSH2 0x1FEB DUP2 DUP4 PUSH2 0x229A JUMP JUMPDEST DUP2 ADD SUB SLT PUSH2 0x1FC9 JUMPI DUP8 PUSH2 0x1AAF SWAP2 MLOAD PUSH2 0x1AA3 JUMP JUMPDEST POP RETURNDATASIZE PUSH2 0x1FE1 JUMP JUMPDEST PUSH4 0x4E487B71 PUSH1 0xE0 SHL DUP6 MSTORE PUSH1 0x11 DUP4 MSTORE PUSH1 0x24 DUP6 REVERT JUMPDEST DUP2 MLOAD PUSH3 0x461BCD PUSH1 0xE5 SHL DUP2 MSTORE PUSH1 0x20 DUP2 DUP6 ADD MSTORE PUSH1 0x10 PUSH1 0x24 DUP3 ADD MSTORE PUSH16 0x105B1C9958591E4819195C1B1BDE5959 PUSH1 0x82 SHL PUSH1 0x44 DUP3 ADD MSTORE PUSH1 0x64 SWAP1 REVERT JUMPDEST DUP3 MLOAD PUSH3 0x461BCD PUSH1 0xE5 SHL DUP2 MSTORE PUSH1 0x20 DUP2 DUP7 ADD MSTORE PUSH1 0x12 PUSH1 0x24 DUP3 ADD MSTORE PUSH18 0x15185C99D95D081B9BDD081C995858DA1959 PUSH1 0x72 SHL PUSH1 0x44 DUP3 ADD MSTORE PUSH1 0x64 SWAP1 REVERT JUMPDEST POP DUP3 CALLVALUE PUSH2 0x10C4 JUMPI PUSH1 0x20 CALLDATASIZE PUSH1 0x3 NOT ADD SLT PUSH2 0x10C4 JUMPI POP PUSH2 0x358 PUSH1 0x20 SWAP3 CALLDATALOAD PUSH2 0x23F8 JUMP JUMPDEST POP CALLVALUE PUSH2 0x29B JUMPI DUP3 PUSH1 0x3 NOT CALLDATASIZE ADD SLT PUSH2 0x29B JUMPI DUP1 MLOAD PUSH4 0x70A08231 PUSH1 0xE0 SHL DUP2 MSTORE ADDRESS SWAP3 DUP2 ADD SWAP3 SWAP1 SWAP3 MSTORE PUSH1 0x20 DUP3 PUSH1 0x24 DUP2 PUSH32 0x0 PUSH1 0x1 PUSH1 0x1 PUSH1 0xA0 SHL SUB AND GAS STATICCALL SWAP2 DUP3 ISZERO PUSH2 0x2A7 JUMPI DUP4 SWAP3 PUSH2 0x26B JUMPI PUSH1 0x20 DUP4 DUP4 MLOAD SWAP1 DUP2 MSTORE RETURN JUMPDEST POP SWAP2 SWAP1 CALLVALUE PUSH2 0x2EC JUMPI PUSH1 0x20 SWAP3 DUP4 PUSH1 0x3 NOT CALLDATASIZE ADD SLT PUSH2 0x29B JUMPI PUSH2 0x2132 PUSH2 0x224D JUMP JUMPDEST PUSH1 0x1 PUSH1 0x1 PUSH1 0xA0 SHL SUB SWAP1 DUP2 AND DUP5 MSTORE PUSH1 0xD DUP6 MSTORE DUP2 DUP5 KECCAK256 DUP3 MLOAD DUP2 SLOAD DUP1 DUP3 MSTORE SWAP2 DUP7 MSTORE DUP7 DUP7 KECCAK256 SWAP1 SWAP6 SWAP5 SWAP2 DUP6 SWAP2 SWAP1 DUP8 SWAP1 DUP2 DUP11 ADD SWAP1 DUP5 JUMPDEST DUP12 DUP3 DUP3 LT PUSH2 0x2218 JUMPI POP POP POP PUSH2 0x2179 SWAP3 POP SUB DUP8 PUSH2 0x229A JUMP JUMPDEST DUP1 JUMPDEST DUP7 MLOAD DUP2 LT ISZERO PUSH2 0x220F JUMPI DUP8 DUP2 PUSH1 0x5 SHL DUP9 ADD ADD MLOAD DUP3 MSTORE PUSH1 0xC DUP9 MSTORE DUP5 DUP3 KECCAK256 DUP6 MLOAD SWAP1 PUSH2 0x21A2 DUP3 PUSH2 0x2268 JUMP JUMPDEST DUP1 SLOAD DUP3 MSTORE PUSH1 0x1 DUP2 ADD SLOAD DUP11 DUP4 ADD MSTORE PUSH1 0x2 DUP2 ADD SLOAD SWAP2 DUP3 DUP9 DUP3 ADD MSTORE PUSH1 0xC0 DUP7 PUSH1 0x3 DUP5 ADD SLOAD SWAP4 DUP10 DUP6 AND PUSH1 0x60 DUP6 ADD MSTORE PUSH1 0xFF PUSH1 0xA0 SWAP1 DUP1 DUP8 DUP4 SHR AND ISZERO SWAP7 DUP8 ISZERO PUSH1 0x80 DUP9 ADD MSTORE PUSH1 0xA8 SHR AND ISZERO ISZERO SWAP1 DUP6 ADD MSTORE ADD SLOAD SWAP2 ADD MSTORE PUSH2 0x21FB JUMPI JUMPDEST POP PUSH1 0x1 ADD PUSH2 0x217B JUMP JUMPDEST PUSH2 0x2208 SWAP1 PUSH1 0x1 SWAP3 SWAP8 PUSH2 0x2333 JUMP JUMPDEST SWAP6 SWAP1 PUSH2 0x21F2 JUMP JUMPDEST DUP8 DUP7 DUP7 MLOAD SWAP1 DUP2 MSTORE RETURN JUMPDEST DUP6 SLOAD DUP5 MSTORE PUSH1 0x1 SWAP6 DUP7 ADD SWAP6 DUP13 SWAP6 POP SWAP4 ADD SWAP3 ADD PUSH2 0x2162 JUMP JUMPDEST DUP5 SWAP1 CALLVALUE PUSH2 0x2EC JUMPI DUP2 PUSH1 0x3 NOT CALLDATASIZE ADD SLT PUSH2 0x2EC JUMPI PUSH1 0x20 SWAP1 PUSH1 0xFF PUSH1 0x2 SLOAD AND DUP2 MSTORE RETURN JUMPDEST PUSH1 0x4 CALLDATALOAD SWAP1 PUSH1 0x1 PUSH1 0x1 PUSH1 0xA0 SHL SUB DUP3 AND DUP3 SUB PUSH2 0x2263 JUMPI JUMP JUMPDEST PUSH1 0x0 DUP1 REVERT JUMPDEST PUSH1 0xE0 DUP2 ADD SWAP1 DUP2 LT PUSH8 0xFFFFFFFFFFFFFFFF DUP3 GT OR PUSH2 0x2284 JUMPI PUSH1 0x40 MSTORE JUMP JUMPDEST PUSH4 0x4E487B71 PUSH1 0xE0 SHL PUSH1 0x0 MSTORE PUSH1 0x41 PUSH1 0x4 MSTORE PUSH1 0x24 PUSH1 0x0 REVERT JUMPDEST SWAP1 PUSH1 0x1F DUP1 NOT SWAP2 ADD AND DUP2 ADD SWAP1 DUP2 LT PUSH8 0xFFFFFFFFFFFFFFFF DUP3 GT OR PUSH2 0x2284 JUMPI PUSH1 0x40 MSTORE JUMP JUMPDEST PUSH1 0x20 DUP1 DUP3 MSTORE DUP3 MLOAD DUP2 DUP4 ADD DUP2 SWAP1 MSTORE SWAP1 SWAP4 SWAP3 PUSH1 0x0 JUMPDEST DUP3 DUP2 LT PUSH2 0x22F1 JUMPI POP POP PUSH1 0x40 SWAP3 SWAP4 POP PUSH1 0x0 DUP4 DUP3 DUP5 ADD ADD MSTORE PUSH1 0x1F DUP1 NOT SWAP2 ADD AND ADD ADD SWAP1 JUMP JUMPDEST DUP2 DUP2 ADD DUP7 ADD MLOAD DUP5 DUP3 ADD PUSH1 0x40 ADD MSTORE DUP6 ADD PUSH2 0x22CF JUMP JUMPDEST DUP1 SLOAD DUP3 LT ISZERO PUSH2 0x231D JUMPI PUSH1 0x0 MSTORE PUSH1 0x20 PUSH1 0x0 KECCAK256 ADD SWAP1 PUSH1 0x0 SWAP1 JUMP JUMPDEST PUSH4 0x4E487B71 PUSH1 0xE0 SHL PUSH1 0x0 MSTORE PUSH1 0x32 PUSH1 0x4 MSTORE PUSH1 0x24 PUSH1 0x0 REVERT JUMPDEST SWAP2 SWAP1 DUP3 ADD DUP1 SWAP3 GT PUSH2 0x2340 JUMPI JUMP JUMPDEST PUSH4 0x4E487B71 PUSH1 0xE0 SHL PUSH1 0x0 MSTORE PUSH1 0x11 PUSH1 0x4 MSTORE PUSH1 0x24 PUSH1 0x0 REVERT JUMPDEST DUP2 DUP2 MUL SWAP3 SWAP2 DUP2 ISZERO SWAP2 DUP5 DIV EQ OR ISZERO PUSH2 0x2340 JUMPI JUMP JUMPDEST DUP2 ISZERO PUSH2 0x2373 JUMPI DIV SWAP1 JUMP JUMPDEST PUSH4 0x4E487B71 PUSH1 0xE0 SHL PUSH1 0x0 MSTORE PUSH1 0x12 PUSH1 0x4 MSTORE PUSH1 0x24 PUSH1 0x0 REVERT JUMPDEST SWAP2 SWAP1 DUP3 SUB SWAP2 DUP3 GT PUSH2 0x2340 JUMPI JUMP JUMPDEST ISZERO PUSH2 0x239D JUMPI JUMP JUMPDEST PUSH1 0x40 MLOAD PUSH3 0x461BCD PUSH1 0xE5 SHL DUP2 MSTORE PUSH1 0x20 PUSH1 0x4 DUP3 ADD MSTORE PUSH1 0xE PUSH1 0x24 DUP3 ADD MSTORE PUSH14 0x115E18D959591CC81D185C99D95D PUSH1 0x92 SHL PUSH1 0x44 DUP3 ADD MSTORE PUSH1 0x64 SWAP1 REVERT JUMPDEST SWAP1 PUSH1 0xFF DUP1 SWAP2 AND SWAP2 AND SUB SWAP1 PUSH1 0xFF DUP3 GT PUSH2 0x2340 JUMPI JUMP JUMPDEST PUSH1 0xFF AND PUSH1 0x4D DUP2 GT PUSH2 0x2340 JUMPI PUSH1 0xA EXP SWAP1 JUMP JUMPDEST PUSH1 0xC8 DUP2 MUL DUP2 DUP2 DIV PUSH1 0xC8 EQ DUP3 ISZERO OR ISZERO PUSH2 0x2340 JUMPI PUSH2 0x2480 PUSH2 0x2533 SWAP2 PUSH2 0x746 PUSH2 0x2710 DUP1 SWAP3 DIV SWAP2 PUSH2 0x746 PUSH2 0x244D DUP5 DUP4 PUSH2 0x701 PUSH32 0x0 DUP12 PUSH2 0x2356 JUMP JUMPDEST SWAP2 PUSH2 0x2478 PUSH32 0x0 DUP10 PUSH2 0x2356 JUMP JUMPDEST DIV SWAP2 DUP8 PUSH2 0x2389 JUMP JUMPDEST PUSH2 0x252D PUSH1 0x8 SLOAD SWAP2 PUSH2 0x252D PUSH2 0x2494 DUP3 DUP6 PUSH2 0x2333 JUMP JUMPDEST PUSH2 0x24C1 PUSH32 0x0 DUP1 SWAP3 GT ISZERO PUSH2 0x2396 JUMP JUMPDEST PUSH2 0x2528 PUSH2 0x24CC PUSH2 0x292F JUMP JUMPDEST SWAP6 PUSH2 0x2522 PUSH32 0x0 SWAP6 PUSH2 0x251C DUP8 PUSH32 0x0 PUSH2 0x2389 JUMP JUMPDEST SWAP3 PUSH2 0x2333 JUMP JUMPDEST SWAP1 PUSH2 0x2356 JUMP JUMPDEST PUSH2 0x2369 JUMP JUMPDEST SWAP1 PUSH2 0x2333 JUMP JUMPDEST PUSH1 0x1 SHR SWAP1 PUSH1 0xFF PUSH1 0x2 SLOAD AND PUSH1 0xFF PUSH1 0x4 SLOAD AND SWAP1 DUP2 DUP2 LT ISZERO PUSH1 0x0 EQ PUSH2 0x256C JUMPI SWAP2 PUSH2 0x2522 PUSH2 0x2564 PUSH2 0x2528 SWAP4 PUSH2 0x2569 SWAP7 SWAP6 PUSH2 0x23D3 JUMP JUMPDEST PUSH2 0x23E7 JUMP JUMPDEST SWAP1 JUMP JUMPDEST SWAP3 PUSH2 0x2522 PUSH2 0x2564 PUSH2 0x2569 SWAP6 PUSH2 0x1A3C SWAP5 PUSH2 0x23D3 JUMP JUMPDEST ISZERO PUSH2 0x2587 JUMPI JUMP JUMPDEST PUSH1 0x40 MLOAD PUSH3 0x461BCD PUSH1 0xE5 SHL DUP2 MSTORE PUSH1 0x20 PUSH1 0x4 DUP3 ADD MSTORE PUSH1 0x18 PUSH1 0x24 DUP3 ADD MSTORE PUSH32 0x496E73756666696369656E742073616C6520746F6B656E730000000000000000 PUSH1 0x44 DUP3 ADD MSTORE PUSH1 0x64 SWAP1 REVERT JUMPDEST SWAP1 DUP2 PUSH1 0x20 SWAP2 SUB SLT PUSH2 0x2263 JUMPI MLOAD DUP1 ISZERO ISZERO DUP2 SUB PUSH2 0x2263 JUMPI SWAP1 JUMP JUMPDEST PUSH1 0x40 MLOAD PUSH4 0x70A08231 PUSH1 0xE0 SHL DUP2 MSTORE ADDRESS PUSH1 0x4 DUP3 ADD MSTORE PUSH1 0x20 DUP2 PUSH1 0x24 DUP2 PUSH32 0x0 PUSH1 0x1 PUSH1 0x1 PUSH1 0xA0 SHL SUB AND GAS STATICCALL SWAP1 DUP2 ISZERO PUSH2 0x2678 JUMPI PUSH1 0x0 SWAP2 PUSH2 0x2646 JUMPI JUMPDEST POP PUSH2 0x2641 PUSH2 0x2740 JUMP JUMPDEST GT ISZERO SWAP1 JUMP JUMPDEST SWAP1 POP PUSH1 0x20 DUP2 RETURNDATASIZE PUSH1 0x20 GT PUSH2 0x2670 JUMPI JUMPDEST DUP2 PUSH2 0x2661 PUSH1 0x20 SWAP4 DUP4 PUSH2 0x229A JUMP JUMPDEST DUP2 ADD SUB SLT PUSH2 0x2263 JUMPI MLOAD CODESIZE PUSH2 0x2638 JUMP JUMPDEST RETURNDATASIZE SWAP2 POP PUSH2 0x2654 JUMP JUMPDEST PUSH1 0x40 MLOAD RETURNDATASIZE PUSH1 0x0 DUP3 RETURNDATACOPY RETURNDATASIZE SWAP1 REVERT JUMPDEST ISZERO PUSH2 0x268B JUMPI JUMP JUMPDEST PUSH1 0x40 MLOAD PUSH3 0x461BCD PUSH1 0xE5 SHL DUP2 MSTORE PUSH1 0x20 PUSH1 0x4 DUP3 ADD MSTORE PUSH1 0xE PUSH1 0x24 DUP3 ADD MSTORE PUSH14 0x14D85B194818DBDB5C1B195D1959 PUSH1 0x92 SHL PUSH1 0x44 DUP3 ADD MSTORE PUSH1 0x64 SWAP1 REVERT JUMPDEST ISZERO PUSH2 0x26C8 JUMPI JUMP JUMPDEST PUSH1 0x40 MLOAD PUSH3 0x461BCD PUSH1 0xE5 SHL DUP2 MSTORE PUSH1 0x20 PUSH1 0x4 DUP3 ADD MSTORE PUSH1 0x11 PUSH1 0x24 DUP3 ADD MSTORE PUSH17 0x2737BA103A343290383AB931B430B9B2B9 PUSH1 0x79 SHL PUSH1 0x44 DUP3 ADD MSTORE PUSH1 0x64 SWAP1 REVERT JUMPDEST ISZERO PUSH2 0x2708 JUMPI JUMP JUMPDEST PUSH1 0x40 MLOAD PUSH3 0x461BCD PUSH1 0xE5 SHL DUP2 MSTORE PUSH1 0x20 PUSH1 0x4 DUP3 ADD MSTORE PUSH1 0x10 PUSH1 0x24 DUP3 ADD MSTORE PUSH16 0x105B1C9958591E481C995919595B5959 PUSH1 0x82 SHL PUSH1 0x44 DUP3 ADD MSTORE PUSH1 0x64 SWAP1 REVERT JUMPDEST PUSH2 0x2710 PUSH32 0x0 DUP2 SUB DUP2 DUP2 GT PUSH2 0x2340 JUMPI PUSH2 0x2798 PUSH32 0x0 DUP1 SWAP3 PUSH2 0x2389 JUMP JUMPDEST PUSH32 0x0 SWAP1 DUP4 DUP3 MUL SWAP2 DUP1 DUP4 DIV DUP6 EQ SWAP1 ISZERO OR ISZERO PUSH2 0x2340 JUMPI PUSH2 0x27D4 SWAP2 PUSH2 0x2369 JUMP JUMPDEST PUSH2 0x27E2 PUSH1 0xFF PUSH1 0x2 SLOAD AND PUSH2 0x23E7 JUMP JUMPDEST SWAP3 PUSH2 0x27F1 PUSH1 0xFF PUSH1 0x4 SLOAD AND PUSH2 0x23E7 JUMP JUMPDEST SWAP2 PUSH32 0x0 SWAP5 PUSH2 0x283E DUP7 PUSH32 0x0 PUSH2 0x2333 JUMP JUMPDEST PUSH1 0x1 SHR PUSH2 0x284B DUP3 DUP5 PUSH2 0x2356 JUMP JUMPDEST SWAP3 PUSH8 0xDE0B6B3A7640000 SWAP5 DUP6 DUP6 MUL SWAP5 DUP1 DUP7 DIV DUP8 EQ SWAP1 ISZERO OR ISZERO PUSH2 0x2340 JUMPI PUSH2 0x2885 PUSH2 0x287E PUSH2 0x2891 SWAP7 PUSH2 0x1A3C DUP11 PUSH2 0x288C SWAP8 PUSH2 0x2356 JUMP JUMPDEST SWAP9 DUP4 PUSH2 0x2356 JUMP JUMPDEST DIV SWAP1 PUSH2 0x2389 JUMP JUMPDEST PUSH2 0x2356 JUMP JUMPDEST DUP2 DUP2 MUL SWAP2 DUP2 DUP4 DIV EQ SWAP1 ISZERO OR ISZERO PUSH2 0x2340 JUMPI PUSH2 0x1A3C PUSH2 0x252D SWAP3 PUSH2 0x2569 SWAP6 PUSH2 0x2356 JUMP JUMPDEST PUSH2 0x2710 PUSH32 0x0 DUP2 SUB DUP2 DUP2 GT PUSH2 0x2340 JUMPI PUSH2 0x2909 PUSH32 0x0 DUP1 SWAP3 PUSH2 0x2389 JUMP JUMPDEST SWAP1 PUSH1 0x8 SLOAD DUP4 DUP2 MUL SWAP1 DUP1 DUP3 DIV DUP6 EQ SWAP1 ISZERO OR ISZERO PUSH2 0x2340 JUMPI PUSH2 0x292B SWAP3 PUSH2 0x288C SWAP2 PUSH2 0x2369 JUMP JUMPDEST DIV SWAP1 JUMP JUMPDEST PUSH1 0x8 SLOAD PUSH32 0x0 SWAP1 DUP2 DUP2 LT ISZERO PUSH2 0x29B2 JUMPI PUSH2 0x252D PUSH2 0x2569 SWAP3 PUSH2 0x2528 PUSH32 0x0 SWAP4 PUSH2 0x288C DUP6 PUSH32 0x0 PUSH2 0x2389 JUMP JUMPDEST POP POP PUSH32 0x0 SWAP1 JUMP JUMPDEST PUSH1 0x2 PUSH1 0x0 SLOAD EQ PUSH2 0x29E9 JUMPI PUSH1 0x2 PUSH1 0x0 SSTORE JUMP JUMPDEST PUSH1 0x40 MLOAD PUSH4 0x3EE5AEB5 PUSH1 0xE0 SHL DUP2 MSTORE PUSH1 0x4 SWAP1 REVERT INVALID LOG2 PUSH5 0x6970667358 0x22 SLT KECCAK256 0xAE RETURNDATASIZE DUP13 SWAP15 SWAP9 TSTORE 0x4F SWAP10 SWAP15 DUP5 TSTORE PUSH24 0xF200A753797002971B59580135513119E2BEFC2164736F6C PUSH4 0x43000818 STOP CALLER 0xC6 GAS PUSH28 0xB8D6351C1CF70C95A316CC6A92839C986682D98BC35F958F4883F9D2 0xA8 LOG2 PUSH5 0x6970667358 0x22 SLT KECCAK256 SUB EXTCODEHASH 0xE3 STOP OR 0x24 0xC4 SLOAD 0x21 0xE6 JUMPDEST 0x25 0xCB SWAP9 0x22 0xC8 0xC2 BLOBBASEFEE SAR DUP6 BLOBHASH 0x4C LT DUP1 0xAB PUSH5 0x4D7F67D71D DUP3 PUSH5 0x736F6C6343 STOP ADDMOD XOR STOP CALLER "
        },
        "methodIdentifiers": {
          "createFundraiser(uint256,uint256,uint256,uint256,uint256,address,address,address,string,string,address)": "34ad67f9",
          "fundCounterIndex()": "4a64a944",
          "funds(uint256)": "7b8e8895",
          "uniswapFactory()": "8bdb2afa",
          "uniswapRouter()": "735de9f7"
        }
      }
    }
  }
}