{
  "_format": "hh-sol-artifact-1",
  "contractName": "OtterPadFactory",
  "sourceName": "contracts/OtterPadFactory.sol",
  "abi": [
    {
      "inputs": [
        {
          "internalType": "address",
          "name": "_uniswapRouter",
          "type": "address"
        },
        {
          "internalType": "address",
          "name": "_uniswapFactory",
          "type": "address"
        }
      ],
      "stateMutability": "nonpayable",
      "type": "constructor"
    },
    {
      "anonymous": false,
      "inputs": [
        {
          "indexed": true,
          "internalType": "uint256",
          "name": "fundIndex",
          "type": "uint256"
        },
        {
          "indexed": true,
          "internalType": "address",
          "name": "fund",
          "type": "address"
        },
        {
          "indexed": true,
          "internalType": "address",
          "name": "saleToken",
          "type": "address"
        },
        {
          "indexed": false,
          "internalType": "address",
          "name": "paymentToken",
          "type": "address"
        },
        {
          "indexed": false,
          "internalType": "string",
          "name": "title",
          "type": "string"
        },
        {
          "indexed": false,
          "internalType": "uint256",
          "name": "targetLiquidity",
          "type": "uint256"
        },
        {
          "indexed": false,
          "internalType": "uint256",
          "name": "upfrontRakeBPS",
          "type": "uint256"
        },
        {
          "indexed": false,
          "internalType": "uint256",
          "name": "escrowRakeBPS",
          "type": "uint256"
        },
        {
          "indexed": false,
          "internalType": "address",
          "name": "foundersWallet",
          "type": "address"
        },
        {
          "indexed": false,
          "internalType": "address",
          "name": "lockLPTokenWallet",
          "type": "address"
        }
      ],
      "name": "FundCreated",
      "type": "event"
    },
    {
      "inputs": [
        {
          "internalType": "uint256",
          "name": "upfrontRakeBPS",
          "type": "uint256"
        },
        {
          "internalType": "uint256",
          "name": "escrowRakeBPS",
          "type": "uint256"
        },
        {
          "internalType": "uint256",
          "name": "startPrice",
          "type": "uint256"
        },
        {
          "internalType": "uint256",
          "name": "endPrice",
          "type": "uint256"
        },
        {
          "internalType": "uint256",
          "name": "targetLiquidity",
          "type": "uint256"
        },
        {
          "internalType": "address",
          "name": "saleToken",
          "type": "address"
        },
        {
          "internalType": "address",
          "name": "paymentToken",
          "type": "address"
        },
        {
          "internalType": "address",
          "name": "foundersWallet",
          "type": "address"
        },
        {
          "internalType": "string",
          "name": "title",
          "type": "string"
        },
        {
          "internalType": "string",
          "name": "richInfoUrl",
          "type": "string"
        },
        {
          "internalType": "address",
          "name": "lockLPTokenWallet",
          "type": "address"
        }
      ],
      "name": "createFundraiser",
      "outputs": [
        {
          "internalType": "address",
          "name": "",
          "type": "address"
        }
      ],
      "stateMutability": "nonpayable",
      "type": "function"
    },
    {
      "inputs": [],
      "name": "fundCounterIndex",
      "outputs": [
        {
          "internalType": "uint256",
          "name": "",
          "type": "uint256"
        }
      ],
      "stateMutability": "view",
      "type": "function"
    },
    {
      "inputs": [
        {
          "internalType": "uint256",
          "name": "",
          "type": "uint256"
        }
      ],
      "name": "funds",
      "outputs": [
        {
          "internalType": "address",
          "name": "",
          "type": "address"
        }
      ],
      "stateMutability": "view",
      "type": "function"
    },
    {
      "inputs": [],
      "name": "uniswapFactory",
      "outputs": [
        {
          "internalType": "contract IUniswapV2Factory",
          "name": "",
          "type": "address"
        }
      ],
      "stateMutability": "view",
      "type": "function"
    },
    {
      "inputs": [],
      "name": "uniswapRouter",
      "outputs": [
        {
          "internalType": "contract IUniswapV2Router02",
          "name": "",
          "type": "address"
        }
      ],
      "stateMutability": "view",
      "type": "function"
    }
  ],
  "bytecode": "0x60c03461012e57601f61479638819003918201601f19168301916001600160401b0383118484101761013357808492604094855283398101031261012e57610052602061004b83610149565b9201610149565b6001600160a01b03918216919082156100e957169081156100a45760805260a05260008055604051614638908161015e823960805181818160f301526102ca015260a051818181607101526102f20152f35b60405162461bcd60e51b815260206004820152601760248201527f496e76616c696420666163746f727920616464726573730000000000000000006044820152606490fd5b60405162461bcd60e51b815260206004820152601660248201527f496e76616c696420726f757465722061646472657373000000000000000000006044820152606490fd5b600080fd5b634e487b7160e01b600052604160045260246000fd5b51906001600160a01b038216820361012e5756fe608060405260043610156200001357600080fd5b60003560e01c806334ad67f914620001425780634a64a9441462000122578063735de9f714620000db5780637b8e889514620000a557638bdb2afa146200005957600080fd5b34620000a0576000366003190112620000a0576040517f00000000000000000000000000000000000000000000000000000000000000006001600160a01b03168152602090f35b600080fd5b34620000a0576020366003190112620000a0576004356000526001602052602060018060a01b0360406000205416604051908152f35b34620000a0576000366003190112620000a0576040517f00000000000000000000000000000000000000000000000000000000000000006001600160a01b03168152602090f35b34620000a0576000366003190112620000a0576020600054604051908152f35b34620000a057610160366003190112620000a05760a4356001600160a01b0381168103620000a05760c4356001600160a01b0381168103620000a05760e4356001600160a01b0381168103620000a0576101043567ffffffffffffffff8111620000a057620001b690369060040162000626565b9167ffffffffffffffff6101243511620000a057620001dc366101243560040162000626565b6101443591906001600160a01b0383168303620000a0576001600160a01b03861615620005ec576001600160a01b03821615620005af576001600160a01b038416156200056a57845115620005375760443515620004fc576044356064351115620004ad576084351562000468576040519081613f3381011067ffffffffffffffff613f33840111176200045257620002a88291613f33620006d084396101a0613f338401818152620002919101896200068d565b90613f33840182036020613f33860101526200068d565b6001600160a01b03888116613f338401604081019190915285821660608201527f0000000000000000000000000000000000000000000000000000000000000000821660808201527f0000000000000000000000000000000000000000000000000000000000000000821660a082015260443560c082015260643560e08201526084356101008201526004356101208201526024356101408201528782166101608201529086166101809091015203906000f090811562000446576000805480825260016020526040822080546001600160a01b0319166001600160a01b0390951694851790559054929590929160001983146200043057602097879560017fedb17e77a06c771f21ea1b2969a042eb427ec97720eea62b924476588115ab849501600055620003f260405194859460018060a01b0316855260e08c86015260e08501906200068d565b6084356040850152600435606085015260243560808501526001600160a01b0398891660a085015290881660c08401529616950390a4604051908152f35b634e487b7160e01b600052601160045260246000fd5b6040513d6000823e3d90fd5b634e487b7160e01b600052604160045260246000fd5b60405162461bcd60e51b815260206004820152601860248201527f496e76616c696420746172676574206c697175696469747900000000000000006044820152606490fd5b60405162461bcd60e51b815260206004820152602160248201527f456e64207072696365206d7573742065786365656420737461727420707269636044820152606560f81b6064820152608490fd5b60405162461bcd60e51b8152602060048201526013602482015272496e76616c696420737461727420707269636560681b6044820152606490fd5b60405162461bcd60e51b815260206004820152600b60248201526a456d707479207469746c6560a81b6044820152606490fd5b60405162461bcd60e51b815260206004820152601760248201527f496e76616c696420666f756e646572732077616c6c65740000000000000000006044820152606490fd5b60405162461bcd60e51b815260206004820152601560248201527424b73b30b634b2103830bcb6b2b73a103a37b5b2b760591b6044820152606490fd5b60405162461bcd60e51b815260206004820152601260248201527124b73b30b634b21039b0b632903a37b5b2b760711b6044820152606490fd5b81601f82011215620000a05780359067ffffffffffffffff92838311620004525760405193601f8401601f19908116603f0116850190811185821017620004525760405282845260208383010111620000a057816000926020809301838601378301015290565b919082519283825260005b848110620006ba575050826000602080949584010152601f8019910116010190565b6020818301810151848301820152016200069856fe6102206040523462000e475762003f338038038091620000228261022062000e4c565b61022039610220016101a061022082031262000e4757610220516001600160401b03811162000e4757816200005b916102200162000e70565b6102405190916001600160401b03821162000e47576200007f916102200162000e70565b906200008d61026062000ee6565b6200009a61028062000ee6565b620000a76102a062000ee6565b91620000b56102c062000ee6565b6102e051610300516103205161034051610360519790969195929491929190620000e161038062000ee6565b9a620000ef6103a062000ee6565b9a6001600055670de0b6b3a76400006101a05260646101c05280511562000e12578615158062000e08575b8062000dfe575b1562000dc857881562000d8357621e84808a1062000d32578a8a01808b1162000b9d5763042c1d801062000ced576001600160a01b038d161562000ca8576001600160a01b03851615158062000c95575b1562000c50576001600160a01b038581169087161462000c0b576001600160a01b03831615158062000bf8575b1562000bb357610160516305f5e1008181031162000b9d57610180518101906305f5e10003816305f5e100031162000b9d576305f5e1001462000b58578051906001600160401b0382116200079757600a5490600182811c9216801562000b4d575b6020831014620007765781601f84931162000ae9575b50602090601f831160011462000a6f5760009262000a63575b50508160011b916000199060031b1c191617600a555b8051906001600160401b0382116200079757600b5490600182811c9216801562000a58575b6020831014620007765781601f849311620009e3575b50602090601f831160011462000958576000926200094c575b50508160011b916000199060031b1c191617600b555b6001600160a01b03838116608081905285821660a05291811660c0529190911660e05260405163313ce56760e01b815290602090829060049082905afa908115620007d55760009162000928575b5060ff801991168160025416176002556040519163313ce56760e01b835260208360048160018060a01b0388165afa918215620007d55760ff6000936004958591620008f2575b508554911691161783556040516395d89b4160e01b815292839182906001600160a01b03165afa908115620007d557600091620008d3575b508051906001600160401b0382116200079757600154600181811c91168015620008c8575b60208210146200077657601f811162000862575b50602090601f8311600114620007ed579180600494926000948592620007e1575b50508160011b9184199060031b1c1916176001555b6040516395d89b4160e01b815292839182906001600160a01b03165afa908115620007d557600091620007ad575b508051906001600160401b038211620007975760035490600182811c921680156200078c575b6020831014620007765781601f84931162000704575b50602090601f8311600114620006755760009262000669575b50508160011b916000199060031b1c1916176003555b61020095865261010052610120526101405261016052610180526101e091825260405190612fd0928362000f43843960805183818161023f01528181610490015281816105920152818161135401528181611bb401526127c9015260a05183818161087e0152818161173c015281816118c801528181611c05015261232e015260c05183818161120f0152611cbb015260e0518381816110230152611e1a0152610100518381816102df0152818161043a015281816129dc01528181612ab90152612d53015261012051838181610f1801528181611b70015281816129080152612ae101526101405183818161083e01528181610feb01528181611b48015281816126cf015281816128d20152612a20015261016051838181610382015281816107ba015281816112c90152818161182c0152818161264e0152818161296801528181612a570152612b720152610180518381816103c5015281816107eb01528181610f720152818161186701528181612686015281816129b401528181612a8c0152612b9f01526101a051838181610413015281816110fb01528181612b460152612d2d01526101c051838181610b560152611c550152518281816109880152818161131b01528181611a570152611f0b015251818181611a9b0152611daf0152f35b0151905038806200046f565b6003600090815293507fc2575a0e9e593c00f959f8c92f12db2869c3395a3b0502d05e2516446f71f85b91905b601f1984168510620006e8576001945083601f19811610620006ce575b505050811b0160035562000485565b015160001960f88460031b161c19169055388080620006bf565b81810151835560209485019460019093019290910190620006a2565b60036000529091507fc2575a0e9e593c00f959f8c92f12db2869c3395a3b0502d05e2516446f71f85b601f840160051c8101602085106200076e575b90849392915b601f830160051c820181106200075e57505062000456565b6000815585945060010162000746565b508062000740565b634e487b7160e01b600052602260045260246000fd5b91607f169162000440565b634e487b7160e01b600052604160045260246000fd5b620007ce91503d806000833e620007c5818362000e4c565b81019062000f16565b386200041a565b6040513d6000823e3d90fd5b015190503880620003d7565b90600160005260206000209160005b601f1985168110620008495750926004949260019260009583601f1981161062000830575b505050811b01600155620003ec565b0151851960f88460031b161c1916905538808062000821565b91926020600181928685015181550194019201620007fc565b60016000527fb10e2d527612073b26eecdfd717e6a320cf44b4afac2b0732d9fcbe2b7fa0cf6601f840160051c810160208510620008c0575b601f830160051c82018110620008b3575050620003b6565b600081556001016200089b565b50806200089b565b90607f1690620003a2565b620008eb91503d806000833e620007c5818362000e4c565b386200037d565b62000919915060203d60201162000920575b62000910818362000e4c565b81019062000efb565b3862000345565b503d62000904565b62000945915060203d602011620009205762000910818362000e4c565b38620002fe565b0151905038806200029a565b600b60009081527f0175b7a638427703f0dbe7bb9bbf987a2551717b34e79f33b5b1008d1fa01db99350601f198516905b818110620009ca5750908460019594939210620009b0575b505050811b01600b55620002b0565b015160001960f88460031b161c19169055388080620009a1565b9293602060018192878601518155019501930162000989565b600b6000529091507f0175b7a638427703f0dbe7bb9bbf987a2551717b34e79f33b5b1008d1fa01db9601f840160051c8101916020851062000a4d575b90601f859493920160051c01905b81811062000a3d575062000281565b6000815584935060010162000a2e565b909150819062000a20565b91607f16916200026b565b01519050388062000230565b600a600090815260008051602062003f138339815191529350601f198516905b81811062000ad0575090846001959493921062000ab6575b505050811b01600a5562000246565b015160001960f88460031b161c1916905538808062000aa7565b9293602060018192878601518155019501930162000a8f565b600a60005290915060008051602062003f13833981519152601f840160051c8101916020851062000b42575b90601f859493920160051c01905b81811062000b32575062000217565b6000815584935060010162000b23565b909150819062000b15565b91607f169162000201565b60405162461bcd60e51b815260206004820152601760248201527f496e76616c69642072616b6520706172616d65746572730000000000000000006044820152606490fd5b634e487b7160e01b600052601160045260246000fd5b60405162461bcd60e51b815260206004820152601960248201527f496e76616c696420556e697377617020616464726573736573000000000000006044820152606490fd5b506001600160a01b03841615156200019f565b60405162461bcd60e51b815260206004820152601860248201527f546f6b656e73206d75737420626520646966666572656e7400000000000000006044820152606490fd5b60405162461bcd60e51b815260206004820152601760248201527f496e76616c696420746f6b656e206164647265737365730000000000000000006044820152606490fd5b506001600160a01b038616151562000172565b60405162461bcd60e51b815260206004820152601760248201527f496e76616c696420666f756e646572732077616c6c65740000000000000000006044820152606490fd5b60405162461bcd60e51b815260206004820152601a60248201527f436f6d62696e65642072616b65203730252065786365656465640000000000006044820152606490fd5b60405162461bcd60e51b8152602060048201526024808201527f557066726f6e742072616b65206d757374206265203e3d204f747465725061646044820152632066656560e01b6064820152608490fd5b60405162461bcd60e51b815260206004820152601660248201527f496e76616c6964207461726765742066756e64696e67000000000000000000006044820152606490fd5b60405162461bcd60e51b815260206004820152600e60248201526d496e76616c69642070726963657360901b6044820152606490fd5b5086881162000121565b508715156200011a565b60405162461bcd60e51b815260206004820152600d60248201526c496e76616c6964207469746c6560981b6044820152606490fd5b600080fd5b601f909101601f19168101906001600160401b038211908210176200079757604052565b919080601f8401121562000e475782516001600160401b03811162000797576020906040519262000eab83601f19601f850116018562000e4c565b81845282828701011162000e475760005b81811062000ed257508260009394955001015290565b858101830151848201840152820162000ebc565b51906001600160a01b038216820362000e4757565b9081602091031262000e47575160ff8116810362000e475790565b9060208282031262000e475781516001600160401b03811162000e475762000f3f920162000e70565b9056fe608060408181526004908136101561001657600080fd5b600092833560e01c90816302a9e71414612489575080630e0229231461236f5780630f8c27981461230157806310d0ffdd146122e157806312eff12c14611af057806316c0494814611aca57806316c94b3814611a865780631bfaf15514611a4257806325f97fb914611a1e578063278ecde11461176b5780633013ce2914611727578063325cd796146117065780633bde5ba8146116df57806344af14a8146116225780634a79d50c146115635780634be55d1f146112ec578063560b842c146112b15780635a59c5511461125b5780635f655ea71461123e578063735de9f7146111fa57806373ee60841461113b57806379c84f9c1461111e578063835b82b4146110e35780638392fe311461106f5780638a19ecef146110525780638bdb2afa1461100e57806392258ec814610fd35780639513a0fd14610fb45780639c51e74214610f95578063b704a0c414610f5a578063b789bf5214610f3b578063b868723e14610f00578063bdd3d82514610ed4578063bef0886014610e27578063c07f773a14610e08578063c7c8b43714610d05578063d96a094a14610762578063db006a75146104de578063de7e3310146104bf578063e985e3671461047b578063eb91d37e14610353578063edafc9af14610324578063ef5ee99514610306578063f1a9af89146102c75763f6a55a291461021357600080fd5b346102b157826003193601126102b15780516370a0823160e01b815230928101929092526020826024817f00000000000000000000000000000000000000000000000000000000000000006001600160a01b03165afa9182156102bd578392610281575b6020838351908152f35b9091506020813d6020116102b5575b8161029d602093836124f5565b810103126102b15760209250519038610277565b8280fd5b3d9150610290565b81513d85823e3d90fd5b838234610302578160031936011261030257602090517f00000000000000000000000000000000000000000000000000000000000000008152f35b5080fd5b83823461030257816003193601126103025760209051621e84808152f35b8382346103025781600319360112610302576020905173c6f778fb08f40c0305c3c056c42406614492de448152f35b508234610478578060031936011261047857600854906305f5e1009081830292808404831490151715610465577f000000000000000000000000000000000000000000000000000000000000000082039182116104655760208461045e6104386104116104036103f56103f08a6103ea7f00000000000000000000000000000000000000000000000000000000000000008c6125e4565b906125c4565b612d2b565b6103fd612a1e565b906125b1565b6103ea60ff60025416612785565b7f0000000000000000000000000000000000000000000000000000000000000000906125c4565b7f000000000000000000000000000000000000000000000000000000000000000061258e565b9051908152f35b634e487b7160e01b815260118552602490fd5b80fd5b838234610302578160031936011261030257517f00000000000000000000000000000000000000000000000000000000000000006001600160a01b03168152602090f35b8382346103025781600319360112610302576020906009549051908152f35b5090346102b15760208060031936011261075e578135926104fd612e57565b60065460ff8160081c16156107235760ff16156106e257838552600c82528085206003810180549160ff8360a01c166106aa5760029061054360ff8560a81c161561288b565b0194855480156106715760ff60a81b198416600160a81b178355845163a9059cbb60e01b81526001600160a01b0394851683820190815260208101929092529086908290819060400103818c887f0000000000000000000000000000000000000000000000000000000000000000165af190811561066757899161063a575b50156105ff5750907fd171fb179b26c49e23fe46eddd44d3048a1ad277b62144ac0725fbcf1dbf6d52939291541693549051908152a36001815580f35b835162461bcd60e51b81529081018590526015602482015274151bdad95b881d1c985b9cd9995c8819985a5b1959605a1b6044820152606490fd5b61065a9150863d8811610660575b61065281836124f5565b810190612796565b386105c2565b503d610648565b85513d8b823e3d90fd5b845162461bcd60e51b815280830187905260136024820152724e6f20746f6b656e7320746f2072656465656d60681b6044820152606490fd5b835162461bcd60e51b8152808701869052601260248201527113dc99195c881dd85cc81c99599d5b99195960721b6044820152606490fd5b5162461bcd60e51b815291820152601760248201527f4e6f7420796574206465706c6f79656420746f20444558000000000000000000604482015260649150fd5b505162461bcd60e51b815291820152601660248201527515185c99d95d081b9bdd081c995858da1959081e595d60521b604482015260649150fd5b8380fd5b5091903461030257602090816003193601126102b157803591610783612e57565b61079260ff600654161561284e565b621e8480808402908482041484151715610cf2576305f5e10080910492856107e585846107df7f00000000000000000000000000000000000000000000000000000000000000008a6125b1565b046125e4565b926108107f0000000000000000000000000000000000000000000000000000000000000000886125b1565b04918661082a84610825876108258b866125e4565b6125e4565b948a6108388760085461258e565b986108667f0000000000000000000000000000000000000000000000000000000000000000809b11156125f1565b61086f8461262e565b9660648a60018060a01b0398897f0000000000000000000000000000000000000000000000000000000000000000169551928380926323b872dd60e01b8252338c83015260249a308c8401526044830152885af1908115610ce7578e91610cca575b5015610c8857898d8f8e7fbefb6e85b11f40ee4d9e3e8bb0bedbc3d1eee123b1328c0ea0a4b842cbfff7498d60449661093185519283928d8c3398869192608093969594919660a084019784526020840152604083015260608201520152565b0390a2519283809263a9059cbb60e01b9687835273c6f778fb08f40c0305c3c056c42406614492de448c8401528a830152875af1908115610c7e578d91610c61575b5015610c29578c519081526001600160a01b037f0000000000000000000000000000000000000000000000000000000000000000168582019081526020810193909352918891839182908e90829060400103925af1908115610c1f578a91610c02575b5015610bc0576005549560001993848814610bae5790898489600d948f8f60018401600555815195610a07876124c3565b8652868601928d84528287018d81526060880194338652608089019484865260a08a019480865260c08b0198438a528152600c8c5220985189555160018901555160028801556003870193511683549260ff60a01b9051151560a01b169160ff60a81b9051151560a81b169269ffffffffffffffffffff60b01b16171717905551910155338b525289892090815492600160401b841015610b9d57505091610add82610b7b999a9b9460017fb176b33ad40225c8f67dc6ef0cba96c0c88f67afd36396e2198a3f48a44fc7a09795018155612560565b819291549060031b9188831b921b1916179055610afc8160075461258e565b600755610b51610b0e8560085461258e565b98899384600855610b218260095461258e565b6009555193849333974293869192608093969594919660a084019784526020840152604083015260608201520152565b0390a37f0000000000000000000000000000000000000000000000000000000000000000906125e4565b1115610b89575b6001815580f35b61010061ff00196006541617600655610b82565b634e487b7160e01b8b526041905289fd5b634e487b7160e01b8b5260118452828bfd5b895162461bcd60e51b81529182018690526017908201527f557066726f6e74207472616e73666572206661696c65640000000000000000006044820152606490fd5b610c199150873d89116106605761065281836124f5565b386109d6565b8b513d8c823e3d90fd5b8c5162461bcd60e51b81528086018a905260138186015272119959481d1c985b9cd9995c8819985a5b1959606a1b6044820152606490fd5b610c7891508a3d8c116106605761065281836124f5565b38610973565b8e513d8f823e3d90fd5b8d5162461bcd60e51b81528087018b90526017818701527f5061796d656e74207472616e73666572206661696c65640000000000000000006044820152606490fd5b610ce191508b3d8d116106605761065281836124f5565b386108d1565b508e513d8f823e3d90fd5b634e487b7160e01b855260118352602485fd5b50346102b157826003193601126102b15780519183600b54906001908260011c92600181168015610dfe575b6020958686108214610deb5750848852908115610dc95750600114610d70575b610d6c8686610d62828b03836124f5565b5191829182612517565b0390f35b929550600b83527f0175b7a638427703f0dbe7bb9bbf987a2551717b34e79f33b5b1008d1fa01db95b828410610db65750505082610d6c94610d62928201019438610d51565b8054868501880152928601928101610d99565b60ff191687860152505050151560051b8301019250610d6282610d6c38610d51565b634e487b7160e01b845260229052602483fd5b93607f1693610d31565b8382346103025781600319360112610302576020906007549051908152f35b50823461047857602090816003193601126104785782906001600160a01b03610e4e6124a8565b168152600d8352818120908251808584549182815201908194845286842090845b818110610ec05750505081610e859103826124f5565b83519485948186019282875251809352850193925b828110610ea957505050500390f35b835185528695509381019392810192600101610e9a565b825484529288019260019283019201610e6f565b5090346102b157826003193601126102b15754905160089190911c6001600160a01b0316815260209150f35b838234610302578160031936011261030257602090517f00000000000000000000000000000000000000000000000000000000000000008152f35b8382346103025781600319360112610302576020906005549051908152f35b838234610302578160031936011261030257602090517f00000000000000000000000000000000000000000000000000000000000000008152f35b838234610302578160031936011261030257602090516305f5e1008152f35b8382346103025781600319360112610302576020906008549051908152f35b838234610302578160031936011261030257602090517f00000000000000000000000000000000000000000000000000000000000000008152f35b838234610302578160031936011261030257517f00000000000000000000000000000000000000000000000000000000000000006001600160a01b03168152602090f35b83823461030257816003193601126103025760209061045e612b6b565b50346102b15760203660031901126102b15760ff8160e09484358152600c602052208054936001820154936002830154916003840154930154948151968752602087015285015260018060a01b0381166060850152818160a01c161515608085015260a81c16151560a083015260c0820152f35b838234610302578160031936011261030257602090517f00000000000000000000000000000000000000000000000000000000000000008152f35b83823461030257816003193601126103025760209061045e612a1e565b50346102b157826003193601126102b15780519183600354906001908260011c926001811680156111f0575b6020958686108214610deb5750848852908115610dc9575060011461119757610d6c8686610d62828b03836124f5565b929550600383527fc2575a0e9e593c00f959f8c92f12db2869c3395a3b0502d05e2516446f71f85b5b8284106111dd5750505082610d6c94610d62928201019438610d51565b80548685018801529286019281016111c0565b93607f1693611167565b838234610302578160031936011261030257517f00000000000000000000000000000000000000000000000000000000000000006001600160a01b03168152602090f35b83823461030257816003193601126103025760209061045e6128ca565b8382346103025780600319360112610302576112756124a8565b6001600160a01b03168252600d6020528082208054602435939084101561047857506020926112a391612560565b91905490519160031b1c8152f35b838234610302578160031936011261030257602090517f00000000000000000000000000000000000000000000000000000000000000008152f35b50346102b1576020908160031936011261075e576113086124a8565b611310612e57565b6001600160a01b03907f00000000000000000000000000000000000000000000000000000000000000009082821633036115205760ff60065416156114dd578216917f000000000000000000000000000000000000000000000000000000000000000016821461149a5782516370a0823160e01b81523086820152908482602481865afa91821561149057908592918892611459575b50845163a9059cbb60e01b81526001600160a01b0390911687820190815260208101929092529283918290899082906040015b03925af190811561144f578591611432575b50156113f957836001815580f35b5162461bcd60e51b8152918201526015602482015274151bdad95b881c9958dbdd995c9e4819985a5b1959605a1b604482015260649150fd5b6114499150833d85116106605761065281836124f5565b386113eb565b82513d87823e3d90fd5b8381949293503d8311611489575b61147181836124f5565b8101031261148557905184916113d96113a6565b8680fd5b503d611467565b84513d89823e3d90fd5b50505162461bcd60e51b815291820152601960248201527f43616e6e6f74207265636f7665722073616c6520746f6b656e00000000000000604482015260649150fd5b835162461bcd60e51b8152808701869052601b60248201527f4e6f7420796574206465706c6f79656420746f20556e697377617000000000006044820152606490fd5b835162461bcd60e51b8152808701869052601960248201527f4f6e6c7920666f756e646572732063616e207265636f766572000000000000006044820152606490fd5b50346102b157826003193601126102b15780519183600a54906001908260011c92600181168015611618575b6020958686108214610deb5750848852908115610dc957506001146115bf57610d6c8686610d62828b03836124f5565b929550600a83527fc65a7bb8d6351c1cf70c95a316cc6a92839c986682d98bc35f958f4883f9d2a85b8284106116055750505082610d6c94610d62928201019438610d51565b80548685018801529286019281016115e8565b93607f169361158f565b50346102b157826003193601126102b1578051918360018054918260011c926001811680156116d5575b6020958686108214610deb5750848852908115610dc9575060011461167c57610d6c8686610d62828b03836124f5565b929550600183527fb10e2d527612073b26eecdfd717e6a320cf44b4afac2b0732d9fcbe2b7fa0cf65b8284106116c25750505082610d6c94610d62928201019438610d51565b80548685018801529286019281016116a5565b93607f169361164c565b83823461030257816003193601126103025760209060ff60065460081c1690519015158152f35b5082346104785780600319360112610478575060ff60209254169051908152f35b838234610302578160031936011261030257517f00000000000000000000000000000000000000000000000000000000000000006001600160a01b03168152602090f35b5090346102b1576020918260031936011261075e5781359261178b612e57565b61179a60ff600654161561284e565b838552600c81528185206003810180546001600160a01b039592919033878216036119e75760ff8160a01c166119b15790816117df60ff6001959460a81c161561288b565b60ff60a01b191660a084901b179055600281015460075461180091906125e4565b6007550161181181546008546125e4565b600855546305f5e10080820282810482148315171561199e577f000000000000000000000000000000000000000000000000000000000000000082039082821161198b5761189993929161188d611892926103ea7f000000000000000000000000000000000000000000000000000000000000000080946125e4565b6125b1565b049061258e565b835163a9059cbb60e01b81523383820190815260208101839052919590918491839182908b90829060400103927f0000000000000000000000000000000000000000000000000000000000000000165af190811561149057879161196e575b501561193d575060085490825193845283015242908201527f40afc61aabce83a502901d9dc66b15d1ee92bfcc1f4f56923b8434dcd041e19f60603392a36001815580f35b915162461bcd60e51b815291820152600d60248201526c1499599d5b990819985a5b1959609a1b6044820152606490fd5b6119859150833d85116106605761065281836124f5565b386118f8565b634e487b7160e01b8a526011855260248afd5b634e487b7160e01b895260118452602489fd5b855162461bcd60e51b8152808501869052601060248201526f105b1c9958591e481c99599d5b99195960821b6044820152606490fd5b855162461bcd60e51b815280850186905260116024820152702737ba103a343290383ab931b430b9b2b960791b6044820152606490fd5b83823461030257816003193601126103025760209060ff6006541690519015158152f35b838234610302578160031936011261030257517f00000000000000000000000000000000000000000000000000000000000000006001600160a01b03168152602090f35b838234610302578160031936011261030257517f00000000000000000000000000000000000000000000000000000000000000006001600160a01b03168152602090f35b838234610302578160031936011261030257602090611ae76127ae565b90519015158152f35b50823461047857806003193601126104785760065460ff8160081c16156122a95760ff1661227357611b20612b6b565b91611b31611b2c6127ae565b612739565b611b3f60ff60025416612785565b93611b95611b6e7f000000000000000000000000000000000000000000000000000000000000000096876125b1565b7f0000000000000000000000000000000000000000000000000000000000000000906125c4565b82516370a0823160e01b80825230848301526020976001600160a01b037f0000000000000000000000000000000000000000000000000000000000000000811698909794959493602492908b8185818e5afa8015611ff45788908790612242575b611c0292501015612739565b887f00000000000000000000000000000000000000000000000000000000000000001693885181815230888201528c818681895afa9081156120a8578791612215575b50611c7a611c53858561258e565b7f0000000000000000000000000000000000000000000000000000000000000000906125e4565b116121d357885181815230888201528c818681895afa9081156120a857878e8e8e958e97958d958591612195575b508610156121125750611d0c908d86975b7f00000000000000000000000000000000000000000000000000000000000000001698519485809481938c63095ea7b360e01b9a8b8552840160209093929193604081019460018060a01b031681520152565b03925af1908115612108578f8a926120eb575b5050156120b2578a519081526001600160a01b0384168982019081526020810192909252908d908290819060400103818a8a5af19081156120a857879161208b575b501561205057607842019081421161203e5787876060948e948e610104958f519e8f98899762e8e33760e81b89528801528c8c880152806044880152816064880152608487015260a48601527f00000000000000000000000000000000000000000000000000000000000000001660c485015260e48401525af1958615612034578496611ffe575b5080611efd575b50600160ff19600654161760065585519763e6a4390560e01b8952848901528701528686604481887f0000000000000000000000000000000000000000000000000000000000000000165afa958615611ef1578196611eb3575b50508054610100600160a81b031916600886901b610100600160a81b031617905581516001600160a01b038516815260208101919091527f4db0962b68e799b508143f50800f1504d656cbd0fe6395510c0dca385bfd84079080604081015b0390a15191168152f35b909195508681813d8311611eea575b611ecc81836124f5565b81010312610302575190848216820361047857509381611ea9611e4a565b503d611ec2565b508351903d90823e3d90fd5b865163a9059cbb60e01b81527f00000000000000000000000000000000000000000000000000000000000000006001600160a01b038116878301908152602081018490529091908c9082908190604001038189895af1908115611ff4578691611fd7575b5015611f9d577fefc7f1f15becfaec7a3c17eec78be3fa7adb45698f26fcfd25efe1754c242331918989928351928352168c820152a189611df0565b875162461bcd60e51b81528087018c905260158185015274115cd8dc9bddc81c995b19585cd94819985a5b1959605a1b6044820152606490fd5b611fee91508c8d3d106106605761065281836124f5565b8c611f61565b89513d88823e3d90fd5b9095506060813d60601161202c575b8161201a606093836124f5565b8101031261075e57860151948a611de9565b3d915061200d565b87513d86823e3d90fd5b634e487b7160e01b8752601188528487fd5b885162461bcd60e51b81528088018d90526016818601527514185e5b595b9d08185c1c1c9bdd994819985a5b195960521b6044820152606490fd5b6120a291508d803d106106605761065281836124f5565b8d611d61565b8a513d89823e3d90fd5b8a5162461bcd60e51b8152808a018f905260148188015273151bdad95b88185c1c1c9bdd994819985a5b195960621b6044820152606490fd5b6121019250803d106106605761065281836124f5565b8f8f611d1f565b8c513d8b823e3d90fd5b955050505050915190815230878201528b818581885afa908115611ff4579187878e8e8c8f968f98859161214e575b5090611d0c929197611cb9565b9750505050929450505081813d831161218e575b61216c81836124f5565b8101031261218a57889187878e611d0c8f8f968e9051909192612141565b8580fd5b503d612162565b969850509550508092508391503d83116121cc575b6121b481836124f5565b81010312611485579187878e8e8e958e975138611ca8565b503d6121aa565b885162461bcd60e51b81528088018d9052601b818601527f496e73756666696369656e74207061796d656e7420746f6b656e7300000000006044820152606490fd5b90508c81813d831161223b575b61222c81836124f5565b8101031261148557518d611c45565b503d612222565b50508b81813d831161226c575b61225981836124f5565b8101031261218a5787611c029151611bf6565b503d61224f565b815162461bcd60e51b8152602081850152601060248201526f105b1c9958591e4819195c1b1bde595960821b6044820152606490fd5b825162461bcd60e51b8152602081860152601260248201527115185c99d95d081b9bdd081c995858da195960721b6044820152606490fd5b508234610478576020366003190112610478575061045e6020923561262e565b50346102b157826003193601126102b15780516370a0823160e01b815230928101929092526020826024817f00000000000000000000000000000000000000000000000000000000000000006001600160a01b03165afa9182156102bd578392610281576020838351908152f35b5091903461030257602092836003193601126102b15761238d6124a8565b6001600160a01b039081168452600d855281842082518154808252918652868620909594918591908790818a0190845b8b828210612473575050506123d4925003876124f5565b805b865181101561246a57878160051b880101518252600c88528482208551906123fd826124c3565b8054825260018101548a830152600281015491828882015260c086600384015493898516606085015260ff60a0908087831c1615968715608088015260a81c161515908501520154910152612456575b506001016123d6565b612463906001929761258e565b959061244d565b87868651908152f35b855484526001958601958c9550930192016123bd565b84903461030257816003193601126103025760209060ff600254168152f35b600435906001600160a01b03821682036124be57565b600080fd5b60e0810190811067ffffffffffffffff8211176124df57604052565b634e487b7160e01b600052604160045260246000fd5b90601f8019910116810190811067ffffffffffffffff8211176124df57604052565b6020808252825181830181905290939260005b82811061254c57505060409293506000838284010152601f8019910116010190565b81810186015184820160400152850161252a565b80548210156125785760005260206000200190600090565b634e487b7160e01b600052603260045260246000fd5b9190820180921161259b57565b634e487b7160e01b600052601160045260246000fd5b8181029291811591840414171561259b57565b81156125ce570490565b634e487b7160e01b600052601260045260246000fd5b9190820391821161259b57565b156125f857565b60405162461bcd60e51b815260206004820152600e60248201526d115e18d959591cc81d185c99d95d60921b6044820152606490fd5b621e84809081810291818304148115171561259b576305f5e100809204917f0000000000000000000000000000000000000000000000000000000000000000906126bc61268085836107df86886125b1565b946108257f000000000000000000000000000000000000000000000000000000000000000096610825856126b48a8a6125b1565b0491886125e4565b916126f56126cd600854948561258e565b7f000000000000000000000000000000000000000000000000000000000000000010156125f1565b8183029280840483149015171561259b57810390811161259b57612726610825926103ea612736966103f0946125e4565b9261273084612d2b565b9361258e565b90565b1561274057565b60405162461bcd60e51b815260206004820152601860248201527f496e73756666696369656e742073616c6520746f6b656e7300000000000000006044820152606490fd5b60ff16604d811161259b57600a0a90565b908160209103126124be575180151581036124be5790565b6040516370a0823160e01b81523060048201526020816024817f00000000000000000000000000000000000000000000000000000000000000006001600160a01b03165afa90811561284257600091612810575b5061280b6128ca565b111590565b90506020813d60201161283a575b8161282b602093836124f5565b810103126124be575138612802565b3d915061281e565b6040513d6000823e3d90fd5b1561285557565b60405162461bcd60e51b815260206004820152600e60248201526d14d85b194818dbdb5c1b195d195960921b6044820152606490fd5b1561289257565b60405162461bcd60e51b815260206004820152601060248201526f105b1c9958591e481c995919595b595960821b6044820152606490fd5b60045460ff167f00000000000000000000000000000000000000000000000000000000000000006129036128fd83612785565b826125b1565b61292e7f000000000000000000000000000000000000000000000000000000000000000080926125c4565b9261294e61294560ff60025416956103fd87612785565b6103ea83612785565b926305f5e100928382029180830485149015171561259b577f0000000000000000000000000000000000000000000000000000000000000000840393841161259b57612736956103fd612a12612a1293612a0d612a006129d96103ea986103ea612a189c7f0000000000000000000000000000000000000000000000000000000000000000906125e4565b927f000000000000000000000000000000000000000000000000000000000000000061258e565b60011c916103fd89612785565b6125c4565b91612785565b9061258e565b7f00000000000000000000000000000000000000000000000000000000000000006305f5e1008082029180830482149015171561259b577f0000000000000000000000000000000000000000000000000000000000000000810390811161259b57612736916103ea612ab1927f0000000000000000000000000000000000000000000000000000000000000000906125e4565b612a0d612b447f0000000000000000000000000000000000000000000000000000000000000000926103fd612a127f000000000000000000000000000000000000000000000000000000000000000095612b3e612b27612b11898461258e565b60011c612a0d60ff60045416976103fd89612785565b946103ea612a1260ff60025416976103fd89612785565b966125e4565b7f0000000000000000000000000000000000000000000000000000000000000000906125b1565b6305f5e1007f0000000000000000000000000000000000000000000000000000000000000000810381811161259b57612bc57f000000000000000000000000000000000000000000000000000000000000000080926125e4565b906008548381029080820485149015171561259b57612be79261188d916125c4565b0490565b8015612ce65760009081811380600114612cbf5715612c99575b800290600190815b60018111612c5657508082136001600160ff1b03849004831116612c4257808212600160ff1b849005831216612c4257500290565b634e487b7160e01b81526011600452602490fd5b926001600160ff1b038190048111612c855760018416612c7c575b80029260011c612c0d565b80920291612c71565b634e487b7160e01b82526011600452602482fd5b6001600160ff1b03819005811215612c0557634e487b7160e01b82526011600452602482fd5b506001600160ff1b03819004811115612c0557634e487b7160e01b82526011600452602482fd5b50600090565b818102929160008212600160ff1b82141661259b57818405149015171561259b57565b9190916000838201938412911290801582169115161761259b57565b7f000000000000000000000000000000000000000000000000000000000000000090612d77827f00000000000000000000000000000000000000000000000000000000000000006125b1565b916002612d82612a1e565b0592600160ff1b9283821461259b57600092612d9d83612beb565b918660021b600481058803612e4357612dcc92612dc1612dd19593612dc693612cec565b612cec565b90612d0f565b612e7a565b908460011b946002860503612e2f57612e0391612def918403612d0f565b612dfd60ff60025416612785565b90612cec565b918315612e1b578214600019841416612c4257500590565b634e487b7160e01b82526012600452602482fd5b634e487b7160e01b83526011600452602483fd5b634e487b7160e01b86526011600452602486fd5b600260005414612e68576002600055565b604051633ee5aeb560e01b8152600490fd5b600180821115612f9657612f37908083600160801b811015612f84575b80600160401b6004921015612f77575b640100000000811015612f6a575b62010000811015612f5d575b610100811015612f51575b6010811015612f45575b1015612f3e575b600302811c612eec81856125c4565b01811c612ef981856125c4565b01811c612f0681856125c4565b01811c612f1381856125c4565b01811c612f2081856125c4565b01811c612f2d81856125c4565b01901c80926125c4565b8111900390565b811b612edd565b811c9160021b91612ed6565b60081c91811b91612ecc565b60101c9160081b91612ec1565b60201c9160101b91612eb5565b60401c9160201b91612ea7565b50600160401b9050608084901c612e97565b509056fea264697066735822122054091d381b73700eb8358d20e9421530b02e9fc4d5ac891b240c3bee3bac25f964736f6c63430008180033c65a7bb8d6351c1cf70c95a316cc6a92839c986682d98bc35f958f4883f9d2a8a264697066735822122011d43389a18166f0f44d6099f28d00e4ed711b96fa1befaea7f84f2f658b855964736f6c63430008180033",
  "linkReferences": {},
  "deployedLinkReferences": {}
}