{
  "_format": "hh-sol-artifact-1",
  "contractName": "OtterPadFund",
  "sourceName": "contracts/OtterPadFund.sol",
  "abi": [
    {
      "inputs": [
        {
          "internalType": "string",
          "name": "_title",
          "type": "string"
        },
        {
          "internalType": "string",
          "name": "_richInfoUrl",
          "type": "string"
        },
        {
          "internalType": "address",
          "name": "_saleToken",
          "type": "address"
        },
        {
          "internalType": "address",
          "name": "_paymentToken",
          "type": "address"
        },
        {
          "internalType": "address",
          "name": "_uniswapRouter",
          "type": "address"
        },
        {
          "internalType": "address",
          "name": "_uniswapFactory",
          "type": "address"
        },
        {
          "internalType": "uint256",
          "name": "_startPrice",
          "type": "uint256"
        },
        {
          "internalType": "uint256",
          "name": "_endPrice",
          "type": "uint256"
        },
        {
          "internalType": "uint256",
          "name": "_targetLiquidity",
          "type": "uint256"
        },
        {
          "internalType": "uint256",
          "name": "_upfrontRakeBPS",
          "type": "uint256"
        },
        {
          "internalType": "uint256",
          "name": "_escrowRakeBPS",
          "type": "uint256"
        },
        {
          "internalType": "address",
          "name": "_foundersWallet",
          "type": "address"
        },
        {
          "internalType": "address",
          "name": "_lockLPTokenWallet",
          "type": "address"
        }
      ],
      "stateMutability": "nonpayable",
      "type": "constructor"
    },
    {
      "inputs": [],
      "name": "ReentrancyGuardReentrantCall",
      "type": "error"
    },
    {
      "anonymous": false,
      "inputs": [
        {
          "indexed": false,
          "internalType": "address",
          "name": "pair",
          "type": "address"
        },
        {
          "indexed": false,
          "internalType": "uint256",
          "name": "liquidity",
          "type": "uint256"
        }
      ],
      "name": "DeployedToUniswap",
      "type": "event"
    },
    {
      "anonymous": false,
      "inputs": [
        {
          "indexed": false,
          "internalType": "uint256",
          "name": "amount",
          "type": "uint256"
        },
        {
          "indexed": false,
          "internalType": "address",
          "name": "foundersWallet",
          "type": "address"
        }
      ],
      "name": "EscrowReleased",
      "type": "event"
    },
    {
      "anonymous": false,
      "inputs": [
        {
          "indexed": true,
          "internalType": "address",
          "name": "purchaser",
          "type": "address"
        },
        {
          "indexed": false,
          "internalType": "uint256",
          "name": "totalAmount",
          "type": "uint256"
        },
        {
          "indexed": false,
          "internalType": "uint256",
          "name": "otterpadFee",
          "type": "uint256"
        },
        {
          "indexed": false,
          "internalType": "uint256",
          "name": "upfrontAmount",
          "type": "uint256"
        },
        {
          "indexed": false,
          "internalType": "uint256",
          "name": "escrowAmount",
          "type": "uint256"
        },
        {
          "indexed": false,
          "internalType": "uint256",
          "name": "contributionAmount",
          "type": "uint256"
        }
      ],
      "name": "PaymentReceived",
      "type": "event"
    },
    {
      "anonymous": false,
      "inputs": [
        {
          "indexed": true,
          "internalType": "address",
          "name": "purchaser",
          "type": "address"
        },
        {
          "indexed": false,
          "internalType": "uint256",
          "name": "contributionAmount",
          "type": "uint256"
        },
        {
          "indexed": true,
          "internalType": "uint256",
          "name": "orderIndex",
          "type": "uint256"
        },
        {
          "indexed": false,
          "internalType": "uint256",
          "name": "netActiveContributions",
          "type": "uint256"
        },
        {
          "indexed": false,
          "internalType": "uint256",
          "name": "timestamp",
          "type": "uint256"
        }
      ],
      "name": "Refunded",
      "type": "event"
    },
    {
      "anonymous": false,
      "inputs": [
        {
          "indexed": true,
          "internalType": "address",
          "name": "purchaser",
          "type": "address"
        },
        {
          "indexed": false,
          "internalType": "uint256",
          "name": "paymentAmount",
          "type": "uint256"
        },
        {
          "indexed": false,
          "internalType": "uint256",
          "name": "contributionAmount",
          "type": "uint256"
        },
        {
          "indexed": false,
          "internalType": "uint256",
          "name": "tokenAmount",
          "type": "uint256"
        },
        {
          "indexed": true,
          "internalType": "uint256",
          "name": "orderIndex",
          "type": "uint256"
        },
        {
          "indexed": false,
          "internalType": "uint256",
          "name": "netActiveContributions",
          "type": "uint256"
        },
        {
          "indexed": false,
          "internalType": "uint256",
          "name": "timestamp",
          "type": "uint256"
        }
      ],
      "name": "TokensPurchased",
      "type": "event"
    },
    {
      "anonymous": false,
      "inputs": [
        {
          "indexed": true,
          "internalType": "address",
          "name": "purchaser",
          "type": "address"
        },
        {
          "indexed": false,
          "internalType": "uint256",
          "name": "tokenAmount",
          "type": "uint256"
        },
        {
          "indexed": true,
          "internalType": "uint256",
          "name": "orderIndex",
          "type": "uint256"
        }
      ],
      "name": "TokensRedeemed",
      "type": "event"
    },
    {
      "inputs": [],
      "name": "OTTERPAD_DAO",
      "outputs": [
        {
          "internalType": "address",
          "name": "",
          "type": "address"
        }
      ],
      "stateMutability": "view",
      "type": "function"
    },
    {
      "inputs": [],
      "name": "OTTERPAD_FEE_BPS",
      "outputs": [
        {
          "internalType": "uint256",
          "name": "",
          "type": "uint256"
        }
      ],
      "stateMutability": "view",
      "type": "function"
    },
    {
      "inputs": [
        {
          "internalType": "uint256",
          "name": "paymentAmount",
          "type": "uint256"
        }
      ],
      "name": "buy",
      "outputs": [],
      "stateMutability": "nonpayable",
      "type": "function"
    },
    {
      "inputs": [
        {
          "internalType": "uint256",
          "name": "paymentAmount",
          "type": "uint256"
        }
      ],
      "name": "calculateTokensReceived",
      "outputs": [
        {
          "internalType": "uint256",
          "name": "",
          "type": "uint256"
        }
      ],
      "stateMutability": "view",
      "type": "function"
    },
    {
      "inputs": [],
      "name": "checkSaleTokensRequired",
      "outputs": [
        {
          "internalType": "uint256",
          "name": "",
          "type": "uint256"
        }
      ],
      "stateMutability": "view",
      "type": "function"
    },
    {
      "inputs": [],
      "name": "deployToUniswap",
      "outputs": [
        {
          "internalType": "address",
          "name": "pool",
          "type": "address"
        }
      ],
      "stateMutability": "nonpayable",
      "type": "function"
    },
    {
      "inputs": [],
      "name": "endPrice",
      "outputs": [
        {
          "internalType": "uint256",
          "name": "",
          "type": "uint256"
        }
      ],
      "stateMutability": "view",
      "type": "function"
    },
    {
      "inputs": [],
      "name": "escrowRakeBPS",
      "outputs": [
        {
          "internalType": "uint256",
          "name": "",
          "type": "uint256"
        }
      ],
      "stateMutability": "view",
      "type": "function"
    },
    {
      "inputs": [],
      "name": "foundersWallet",
      "outputs": [
        {
          "internalType": "address",
          "name": "",
          "type": "address"
        }
      ],
      "stateMutability": "view",
      "type": "function"
    },
    {
      "inputs": [
        {
          "internalType": "address",
          "name": "user",
          "type": "address"
        }
      ],
      "name": "getAllocation",
      "outputs": [
        {
          "internalType": "uint256",
          "name": "totalTokens",
          "type": "uint256"
        }
      ],
      "stateMutability": "view",
      "type": "function"
    },
    {
      "inputs": [],
      "name": "getCurrentPrice",
      "outputs": [
        {
          "internalType": "uint256",
          "name": "",
          "type": "uint256"
        }
      ],
      "stateMutability": "view",
      "type": "function"
    },
    {
      "inputs": [],
      "name": "getEscrowedAmount",
      "outputs": [
        {
          "internalType": "uint256",
          "name": "",
          "type": "uint256"
        }
      ],
      "stateMutability": "view",
      "type": "function"
    },
    {
      "inputs": [],
      "name": "getMinimumPurchase",
      "outputs": [
        {
          "internalType": "uint256",
          "name": "",
          "type": "uint256"
        }
      ],
      "stateMutability": "view",
      "type": "function"
    },
    {
      "inputs": [],
      "name": "getPaymentTokenBalance",
      "outputs": [
        {
          "internalType": "uint256",
          "name": "",
          "type": "uint256"
        }
      ],
      "stateMutability": "view",
      "type": "function"
    },
    {
      "inputs": [],
      "name": "getSaleTokenBalance",
      "outputs": [
        {
          "internalType": "uint256",
          "name": "",
          "type": "uint256"
        }
      ],
      "stateMutability": "view",
      "type": "function"
    },
    {
      "inputs": [
        {
          "internalType": "address",
          "name": "user",
          "type": "address"
        }
      ],
      "name": "getUserOrderIndices",
      "outputs": [
        {
          "internalType": "uint256[]",
          "name": "",
          "type": "uint256[]"
        }
      ],
      "stateMutability": "view",
      "type": "function"
    },
    {
      "inputs": [],
      "name": "hasSufficientSaleTokens",
      "outputs": [
        {
          "internalType": "bool",
          "name": "",
          "type": "bool"
        }
      ],
      "stateMutability": "view",
      "type": "function"
    },
    {
      "inputs": [],
      "name": "isDeployedToUniswap",
      "outputs": [
        {
          "internalType": "bool",
          "name": "",
          "type": "bool"
        }
      ],
      "stateMutability": "view",
      "type": "function"
    },
    {
      "inputs": [],
      "name": "lockLPTokenWallet",
      "outputs": [
        {
          "internalType": "address",
          "name": "",
          "type": "address"
        }
      ],
      "stateMutability": "view",
      "type": "function"
    },
    {
      "inputs": [],
      "name": "orderCounter",
      "outputs": [
        {
          "internalType": "uint256",
          "name": "",
          "type": "uint256"
        }
      ],
      "stateMutability": "view",
      "type": "function"
    },
    {
      "inputs": [],
      "name": "paymentToken",
      "outputs": [
        {
          "internalType": "contract IERC20Metadata",
          "name": "",
          "type": "address"
        }
      ],
      "stateMutability": "view",
      "type": "function"
    },
    {
      "inputs": [
        {
          "internalType": "uint256",
          "name": "",
          "type": "uint256"
        }
      ],
      "name": "purchases",
      "outputs": [
        {
          "internalType": "uint256",
          "name": "paymentAmount",
          "type": "uint256"
        },
        {
          "internalType": "uint256",
          "name": "contributionAmount",
          "type": "uint256"
        },
        {
          "internalType": "uint256",
          "name": "tokenAmount",
          "type": "uint256"
        },
        {
          "internalType": "address",
          "name": "purchaser",
          "type": "address"
        },
        {
          "internalType": "bool",
          "name": "isRefunded",
          "type": "bool"
        },
        {
          "internalType": "bool",
          "name": "isRedeemed",
          "type": "bool"
        },
        {
          "internalType": "uint256",
          "name": "purchaseBlock",
          "type": "uint256"
        }
      ],
      "stateMutability": "view",
      "type": "function"
    },
    {
      "inputs": [
        {
          "internalType": "address",
          "name": "tokenAddress",
          "type": "address"
        },
        {
          "internalType": "uint256",
          "name": "amount",
          "type": "uint256"
        }
      ],
      "name": "recoverStuckTokens",
      "outputs": [],
      "stateMutability": "nonpayable",
      "type": "function"
    },
    {
      "inputs": [
        {
          "internalType": "uint256",
          "name": "orderIndex",
          "type": "uint256"
        }
      ],
      "name": "redeem",
      "outputs": [],
      "stateMutability": "nonpayable",
      "type": "function"
    },
    {
      "inputs": [
        {
          "internalType": "uint256",
          "name": "orderIndex",
          "type": "uint256"
        }
      ],
      "name": "refund",
      "outputs": [],
      "stateMutability": "nonpayable",
      "type": "function"
    },
    {
      "inputs": [],
      "name": "richInfoUrl",
      "outputs": [
        {
          "internalType": "string",
          "name": "",
          "type": "string"
        }
      ],
      "stateMutability": "view",
      "type": "function"
    },
    {
      "inputs": [],
      "name": "saleToken",
      "outputs": [
        {
          "internalType": "contract IERC20Metadata",
          "name": "",
          "type": "address"
        }
      ],
      "stateMutability": "view",
      "type": "function"
    },
    {
      "inputs": [],
      "name": "startPrice",
      "outputs": [
        {
          "internalType": "uint256",
          "name": "",
          "type": "uint256"
        }
      ],
      "stateMutability": "view",
      "type": "function"
    },
    {
      "inputs": [],
      "name": "targetLiquidity",
      "outputs": [
        {
          "internalType": "uint256",
          "name": "",
          "type": "uint256"
        }
      ],
      "stateMutability": "view",
      "type": "function"
    },
    {
      "inputs": [],
      "name": "targetReached",
      "outputs": [
        {
          "internalType": "bool",
          "name": "",
          "type": "bool"
        }
      ],
      "stateMutability": "view",
      "type": "function"
    },
    {
      "inputs": [],
      "name": "title",
      "outputs": [
        {
          "internalType": "string",
          "name": "",
          "type": "string"
        }
      ],
      "stateMutability": "view",
      "type": "function"
    },
    {
      "inputs": [],
      "name": "totalActiveContributions",
      "outputs": [
        {
          "internalType": "uint256",
          "name": "",
          "type": "uint256"
        }
      ],
      "stateMutability": "view",
      "type": "function"
    },
    {
      "inputs": [],
      "name": "totalPaymentsIn",
      "outputs": [
        {
          "internalType": "uint256",
          "name": "",
          "type": "uint256"
        }
      ],
      "stateMutability": "view",
      "type": "function"
    },
    {
      "inputs": [],
      "name": "totalTokensAllocated",
      "outputs": [
        {
          "internalType": "uint256",
          "name": "",
          "type": "uint256"
        }
      ],
      "stateMutability": "view",
      "type": "function"
    },
    {
      "inputs": [],
      "name": "uniswapFactory",
      "outputs": [
        {
          "internalType": "contract IUniswapV2Factory",
          "name": "",
          "type": "address"
        }
      ],
      "stateMutability": "view",
      "type": "function"
    },
    {
      "inputs": [],
      "name": "uniswapPool",
      "outputs": [
        {
          "internalType": "address",
          "name": "",
          "type": "address"
        }
      ],
      "stateMutability": "view",
      "type": "function"
    },
    {
      "inputs": [],
      "name": "uniswapRouter",
      "outputs": [
        {
          "internalType": "contract IUniswapV2Router02",
          "name": "",
          "type": "address"
        }
      ],
      "stateMutability": "view",
      "type": "function"
    },
    {
      "inputs": [],
      "name": "upfrontRakeBPS",
      "outputs": [
        {
          "internalType": "uint256",
          "name": "",
          "type": "uint256"
        }
      ],
      "stateMutability": "view",
      "type": "function"
    },
    {
      "inputs": [
        {
          "internalType": "address",
          "name": "",
          "type": "address"
        },
        {
          "internalType": "uint256",
          "name": "",
          "type": "uint256"
        }
      ],
      "name": "userOrderIndices",
      "outputs": [
        {
          "internalType": "uint256",
          "name": "",
          "type": "uint256"
        }
      ],
      "stateMutability": "view",
      "type": "function"
    }
  ],
  "bytecode": "0x61022060405234620009c5576200335880380380916200002282610220620009ca565b61022039610220016101a0610220820312620009c557610220516001600160401b038111620009c557816200005b9161022001620009ee565b6102405190916001600160401b038211620009c5576200007f9161022001620009ee565b6200008c61026062000a64565b916200009a61028062000a64565b92620000a86102a062000a64565b90620000b66102c062000a64565b6102e05161030051610320516103405161036051969095919492939290620000e061038062000a64565b99620000ee6103a062000a64565b99600160005580511562000990578515158062000986575b806200097c575b1562000946578715620009015760c88910620008b057898901808a116200089a57611b581062000855576001600160a01b038c161562000810576001600160a01b038516151580620007fd575b15620007b8576001600160a01b03858116908e161462000773576001600160a01b03831615158062000760575b156200071b578051906001600160401b038211620006135760075490600182811c9216801562000710575b6020831014620005f25781601f849311620006af575b50602090601f8311600114620006355760009262000629575b50508160011b916000199060031b1c1916176007555b8051906001600160401b038211620006135760085490600182811c9216801562000608575b6020831014620005f25781601f84931162000591575b50602090601f831160011462000517576000926200050b575b50508160011b916000199060031b1c1916176008555b6001600160a01b0392831660808190528b841660a05290831660c052911660e05260405163313ce56760e01b8082529091602090839060049082905afa8015620004dd57602092600091620004e9575b506101a05260405190815298899060049082906001600160a01b03165afa978815620004dd57600098620004a5575b506101c097885261020095865261010052610120526101405261016052610180526101e091825260405191612883938462000a9585396080518481816101fd015281816103480152818161045b01528181610d810152818161180d01526123f2015260a05184818161074d015281816114b1015281816115c0015281816118590152611eea015260c0518481816112d901526118ae015260e0518481816112040152611a8501526101005184818161029d015281816122ba01528181612635015261275e0152610120518481816110d80152818161199e015281816122e00152818161265c0152818161278401526127ac01526101405184818161066201528181611171015281816111cc015281816122810152818161258d015261272a0152610160518481816106b101528181611393015281816122100152818161253801526126a70152610180518481816106e2015281816111320152818161223b0152818161256501526126d401526101a05184818161195201528181612322015261261001525183818161197d0152818161234501526125e401525182818161084c01528181610d3f015281816117000152611b880152518181816117440152611a1c0152f35b620004cd91985060203d602011620004d5575b620004c48183620009ca565b81019062000a79565b9638620002e0565b503d620004b8565b6040513d6000823e3d90fd5b620005049150833d8511620004d557620004c48183620009ca565b38620002b1565b0151905038806200024b565b60086000908152600080516020620033388339815191529350601f198516905b8181106200057857509084600195949392106200055e575b505050811b0160085562000261565b015160001960f88460031b161c191690553880806200054f565b9293602060018192878601518155019501930162000537565b600860005290915060008051602062003338833981519152601f840160051c810160208510620005ea575b90849392915b601f830160051c82018110620005da57505062000232565b60008155859450600101620005c2565b5080620005bc565b634e487b7160e01b600052602260045260246000fd5b91607f16916200021c565b634e487b7160e01b600052604160045260246000fd5b015190503880620001e1565b60076000908152600080516020620033188339815191529350601f198516905b8181106200069657509084600195949392106200067c575b505050811b01600755620001f7565b015160001960f88460031b161c191690553880806200066d565b9293602060018192878601518155019501930162000655565b600760005290915060008051602062003318833981519152601f840160051c81016020851062000708575b90849392915b601f830160051c82018110620006f8575050620001c8565b60008155859450600101620006e0565b5080620006da565b91607f1691620001b2565b60405162461bcd60e51b815260206004820152601960248201527f496e76616c696420556e697377617020616464726573736573000000000000006044820152606490fd5b506001600160a01b038416151562000187565b60405162461bcd60e51b815260206004820152601860248201527f546f6b656e73206d75737420626520646966666572656e7400000000000000006044820152606490fd5b60405162461bcd60e51b815260206004820152601760248201527f496e76616c696420746f6b656e206164647265737365730000000000000000006044820152606490fd5b506001600160a01b038d1615156200015a565b60405162461bcd60e51b815260206004820152601760248201527f496e76616c696420666f756e646572732077616c6c65740000000000000000006044820152606490fd5b60405162461bcd60e51b815260206004820152601a60248201527f436f6d62696e65642072616b65203730252065786365656465640000000000006044820152606490fd5b634e487b7160e01b600052601160045260246000fd5b60405162461bcd60e51b8152602060048201526024808201527f557066726f6e742072616b65206d757374206265203e3d204f747465725061646044820152632066656560e01b6064820152608490fd5b60405162461bcd60e51b815260206004820152601660248201527f496e76616c6964207461726765742066756e64696e67000000000000000000006044820152606490fd5b60405162461bcd60e51b815260206004820152600e60248201526d496e76616c69642070726963657360901b6044820152606490fd5b508587116200010d565b5086151562000106565b60405162461bcd60e51b815260206004820152600d60248201526c496e76616c6964207469746c6560981b6044820152606490fd5b600080fd5b601f909101601f19168101906001600160401b038211908210176200061357604052565b919080601f84011215620009c55782516001600160401b03811162000613576020906040519262000a2983601f19601f8501160185620009ca565b818452828287010111620009c55760005b81811062000a5057508260009394955001015290565b858101830151848201840152820162000a3a565b51906001600160a01b0382168203620009c557565b90816020910312620009c5575160ff81168103620009c5579056fe608060408181526004908136101561001657600080fd5b600092833560e01c9081630e02292314611f2b575080630f8c279814611ebd57806310d0ffdd14611e9d57806312eff12c1461179957806316c049481461177357806316c94b381461172f5780631bfaf155146116eb57806325f97fb9146116c7578063278ecde1146114e05780633013ce291461149c5780633bde5ba8146114755780634a79d50c146113b6578063560b842c1461137b5780635a59c551146113255780635f655ea714611308578063735de9f7146112c45780638392fe31146112505780638a19ecef146112335780638bdb2afa146111ef57806392258ec8146111b45780639513a0fd14611195578063af5b065a14611155578063b704a0c41461111a578063b789bf52146110fb578063b868723e146110c0578063bdd3d82514611097578063bef0886014610fe7578063c07f773a14610fc9578063c596f3fe14610d17578063c7c8b43714610c14578063d96a094a14610628578063db006a7514610396578063de7e331014610377578063e985e36714610333578063eb91d37e1461030f578063edafc9af146102e0578063ef5ee995146102c4578063f1a9af89146102855763f6a55a29146101d157600080fd5b3461026f578260031936011261026f5780516370a0823160e01b815230928101929092526020826024817f00000000000000000000000000000000000000000000000000000000000000006001600160a01b03165afa91821561027b57839261023f575b6020838351908152f35b9091506020813d602011610273575b8161025b6020938361208f565b8101031261026f5760209250519038610235565b8280fd5b3d915061024e565b81513d85823e3d90fd5b8382346102c057816003193601126102c057602090517f00000000000000000000000000000000000000000000000000000000000000008152f35b5080fd5b8382346102c057816003193601126102c0576020905160c88152f35b8382346102c057816003193601126102c05760209051736c83e86e05697c995d718c1cfa3f9045a38c7cd48152f35b8382346102c057816003193601126102c05760209061032c612725565b9051908152f35b8382346102c057816003193601126102c057517f00000000000000000000000000000000000000000000000000000000000000006001600160a01b03168152602090f35b8382346102c057816003193601126102c0576020906006549051908152f35b503461026f57602080600319360112610624578235926103b461282a565b60035460ff8160081c16156105e95760ff16156105a857838552600982528285206003810180549092916001600160a01b0391906103f583831633146124b4565b60ff8260a01c166105705760029061041360ff8460a81c16156124f4565b019384549182156105375760ff60a81b1916600160a81b179055855163a9059cbb60e01b815233848201908152602081019290925291859183919082908b90829060400103927f0000000000000000000000000000000000000000000000000000000000000000165af190811561052d578791610500575b50156104c55750907fd171fb179b26c49e23fe46eddd44d3048a1ad277b62144ac0725fbcf1dbf6d52915492519283523392a36001815580f35b835162461bcd60e51b81529081018390526015602482015274151bdad95b881d1c985b9cd9995c8819985a5b1959605a1b6044820152606490fd5b6105209150843d8611610526575b610518818361208f565b8101906123bf565b3861048b565b503d61050e565b85513d89823e3d90fd5b875162461bcd60e51b815280860188905260136024820152724e6f20746f6b656e7320746f2072656465656d60681b6044820152606490fd5b865162461bcd60e51b8152808501879052601260248201527113dc99195c881dd85cc81c99599d5b99195960721b6044820152606490fd5b915162461bcd60e51b815291820152601760248201527f4e6f7420796574206465706c6f79656420746f204445580000000000000000006044820152606490fd5b50915162461bcd60e51b815291820152601660248201527515185c99d95d081b9bdd081c995858da1959081e595d60521b6044820152606490fd5b8380fd5b50903461026f576020806003193601126106245781359161064761282a565b60ff60035461065882821615612477565b60081c16610bda577f000000000000000000000000000000000000000000000000000000000000000093620f424085048410610ba05760c8840284810460c81485151715610b8d57612710809104926106dc84836106d67f00000000000000000000000000000000000000000000000000000000000000008a61214b565b0461217e565b916107077f00000000000000000000000000000000000000000000000000000000000000008861214b565b04936107208561071b8561071b858c61217e565b61217e565b946107388961073188600554612128565b111561218b565b610741886121d9565b9360018060a01b0392837f000000000000000000000000000000000000000000000000000000000000000016908751936323b872dd60e01b855233878601528d60249530878201528d60448201528c8160648185895af1918215610b825791610b65575b5015610b235788518c815260208101839052604081018590526060810191909152608081018a905233907fbefb6e85b11f40ee4d9e3e8bb0bedbc3d1eee123b1328c0ea0a4b842cbfff7499060a090a28c885163a9059cbb60e01b92838252736c83e86e05697c995d718c1cfa3f9045a38c7cd489830152868201528b8160448185885af1918215610b185791610afb575b5015610ac35787519081526001600160a01b037f0000000000000000000000000000000000000000000000000000000000000000168682019081526020810193909352918991839182908f90829060400103925af1908115610ab9578b91610a9c575b5015610a5b576002549660001992838914610a49579089858a8a8f8b90600a97600185016002558251966108cd8861205d565b87528787019384528287018d81526060880194338652608089019484865260a08a019480865260c08b0198438a52815260098c5220985189555160018901555160028801556003870193511683549260ff60a01b9051151560a01b169160ff60a81b9051151560a81b169269ffffffffffffffffffff60b01b16171717905551910155338c5252848a2080549168010000000000000000831015610a385750816109a19160017fb176b33ad40225c8f67dc6ef0cba96c0c88f67afd36396e2198a3f48a44fc7a098979695940181556120fa565b819291549060031b9189831b921b19161790556109bf828254612128565b9055610a136109d085600554612128565b968793846005556109e382600654612128565b6006555193849333974293869192608093969594919660a084019784526020840152604083015260608201520152565b0390a31015610a24575b6001815580f35b61010061ff00196003541617600355610a1d565b634e487b7160e01b8c52604185528bfd5b634e487b7160e01b8c5260118552828cfd5b8260176064928988519362461bcd60e51b85528401528201527f557066726f6e74207472616e73666572206661696c65640000000000000000006044820152fd5b610ab39150883d8a1161052657610518818361208f565b3861089a565b86513d8d823e3d90fd5b875162461bcd60e51b81528087018b905260138186015272119959481d1c985b9cd9995c8819985a5b1959606a1b6044820152606490fd5b610b1291508b3d8d1161052657610518818361208f565b38610837565b8a51903d90823e3d90fd5b885162461bcd60e51b81528088018c90526017818701527f5061796d656e74207472616e73666572206661696c65640000000000000000006044820152606490fd5b610b7c91508c8d3d1061052657610518818361208f565b386107a5565b8b51903d90823e3d90fd5b634e487b7160e01b875260118352602487fd5b91606492519162461bcd60e51b8352820152601660248201527542656c6f77206d696e696d756d20707572636861736560501b6044820152fd5b60649184519162461bcd60e51b8352820152601660248201527515185c99d95d08185b1c9958591e481c995858da195960521b6044820152fd5b503461026f578260031936011261026f5780519183600854906001908260011c92600181168015610d0d575b6020958686108214610cfa5750848852908115610cd85750600114610c7f575b610c7b8686610c71828b038361208f565b51918291826120b1565b0390f35b929550600883527ff3f7a9fe364faab93b216da50a3214154f22a0a2b415b23a84c8169e8b636ee35b828410610cc55750505082610c7b94610c71928201019438610c60565b8054868501880152928601928101610ca8565b60ff191687860152505050151560051b8301019250610c7182610c7b38610c60565b634e487b7160e01b845260229052602483fd5b93607f1693610c40565b503461026f578060031936011261026f57610d30612042565b6024918235610d3d61282a565b7f0000000000000000000000000000000000000000000000000000000000000000926001600160a01b03908185163303610f875760ff6003541615610f45578116907f0000000000000000000000000000000000000000000000000000000000000000168114610f035782516370a0823160e01b815230878201526020949085818881865afa908115610ef9579084918a91610ec4575b5010610e8b57835163a9059cbb60e01b81526001600160a01b039091168782019081526020810193909352918491839182908a90829060400103925af1908115610e81578691610e64575b5015610e2d57846001815580f35b5162461bcd60e51b81529283015260159082015274151bdad95b881c9958dbdd995c9e4819985a5b1959605a1b6044820152606490fd5b610e7b9150833d851161052657610518818361208f565b38610e1f565b82513d88823e3d90fd5b835162461bcd60e51b815280880186905260148188015273496e73756666696369656e742062616c616e636560601b6044820152606490fd5b809250878092503d8311610ef2575b610edd818361208f565b81010312610eee5783905138610dd4565b8880fd5b503d610ed3565b85513d8b823e3d90fd5b825162461bcd60e51b81526020818801526019818701527f43616e6e6f74207265636f7665722073616c6520746f6b656e000000000000006044820152606490fd5b835162461bcd60e51b8152602081890152601b818801527f4e6f7420796574206465706c6f79656420746f20556e697377617000000000006044820152606490fd5b835162461bcd60e51b81526020818901526019818801527f4f6e6c7920666f756e646572732063616e207265636f766572000000000000006044820152606490fd5b50903461026f578260031936011261026f5760209250549051908152f35b50823461109457602090816003193601126110945782906001600160a01b0361100e612042565b168152600a8352818120908251808584549182815201908194845286842090845b818110611080575050508161104591038261208f565b83519485948186019282875251809352850193925b82811061106957505050500390f35b83518552869550938101939281019260010161105a565b82548452928801926001928301920161102f565b80fd5b8382346102c057816003193601126102c05760015490516001600160a01b039091168152602090f35b8382346102c057816003193601126102c057602090517f00000000000000000000000000000000000000000000000000000000000000008152f35b8382346102c057816003193601126102c0576020906002549051908152f35b8382346102c057816003193601126102c057602090517f00000000000000000000000000000000000000000000000000000000000000008152f35b8382346102c057816003193601126102c05760209051620f42407f0000000000000000000000000000000000000000000000000000000000000000048152f35b8382346102c057816003193601126102c0576020906005549051908152f35b8382346102c057816003193601126102c057602090517f00000000000000000000000000000000000000000000000000000000000000008152f35b8382346102c057816003193601126102c057517f00000000000000000000000000000000000000000000000000000000000000006001600160a01b03168152602090f35b8382346102c057816003193601126102c05760209061032c6126a2565b503461026f57602036600319011261026f5760ff8160e094843581526009602052208054936001820154936002830154916003840154930154948151968752602087015285015260018060a01b0381166060850152818160a01c161515608085015260a81c16151560a083015260c0820152f35b8382346102c057816003193601126102c057517f00000000000000000000000000000000000000000000000000000000000000006001600160a01b03168152602090f35b8382346102c057816003193601126102c05760209061032c612533565b8382346102c057806003193601126102c05761133f612042565b6001600160a01b03168252600a60205280822080546024359390841015611094575060209261136d916120fa565b91905490519160031b1c8152f35b8382346102c057816003193601126102c057602090517f00000000000000000000000000000000000000000000000000000000000000008152f35b503461026f578260031936011261026f5780519183600754906001908260011c9260018116801561146b575b6020958686108214610cfa5750848852908115610cd8575060011461141257610c7b8686610c71828b038361208f565b929550600783527fa66cc928b5edb82af9bd49922954155ab7b0942694bea4ce44661d9a8736c6885b8284106114585750505082610c7b94610c71928201019438610c60565b805486850188015292860192810161143b565b93607f16936113e2565b8382346102c057816003193601126102c05760209060ff60035460081c1690519015158152f35b8382346102c057816003193601126102c057517f00000000000000000000000000000000000000000000000000000000000000006001600160a01b03168152602090f35b503461026f5760209081600319360112610624578235926114ff61282a565b61150e60ff6003541615612477565b838552600983528185206003810180546001600160a01b039392919061153785821633146124b4565b60ff8160a01c16611691576001899388938361155c60ff6115bc9660a81c16156124f4565b60ff60a01b191660a084901b1790556002810154865461157c919061217e565b8655019461158d865460055461217e565b6005558554875163a9059cbb60e01b815233878201908152602081019290925294859384928391604090910190565b03927f0000000000000000000000000000000000000000000000000000000000000000165af190811561168757879161166a575b50156116375750549160055490825193845283015242908201527f40afc61aabce83a502901d9dc66b15d1ee92bfcc1f4f56923b8434dcd041e19f60603392a36001815580f35b825162461bcd60e51b8152908101849052600d60248201526c1499599d5b990819985a5b1959609a1b6044820152606490fd5b6116819150853d871161052657610518818361208f565b386115f0565b84513d89823e3d90fd5b855162461bcd60e51b8152808501889052601060248201526f105b1c9958591e481c99599d5b99195960821b6044820152606490fd5b8382346102c057816003193601126102c05760209060ff6003541690519015158152f35b8382346102c057816003193601126102c057517f00000000000000000000000000000000000000000000000000000000000000006001600160a01b03168152602090f35b8382346102c057816003193601126102c057517f00000000000000000000000000000000000000000000000000000000000000006001600160a01b03168152602090f35b8382346102c057816003193601126102c0576020906117906123d7565b90519015158152f35b503461026f578260031936011261026f5760035460ff8160081c1615611e655760ff16611e2f576117c86126a2565b92600554936117d7818661217e565b916117e86117e36123d7565b612373565b83516370a0823160e01b80825230878301526020976001600160a01b039491926024927f00000000000000000000000000000000000000000000000000000000000000008716929091908b828681875afa918215611c71578792611dfc575b506118568b5480931015612373565b877f000000000000000000000000000000000000000000000000000000000000000016958a51908152308c8201528c8187818a5afa908115611d7f578891611dcb575b5010611d8957885163095ea7b360e01b8082527f000000000000000000000000000000000000000000000000000000000000000089166001600160a01b0381168d84019081526020810194909452929091908d908290819060400103818b895af1908115611d7f578891611d62575b5015611d295789519081526001600160a01b038216818c01908152602081018a90528c908290819060400103818a8a5af1908115611c71578791611d0c575b5015611cd1576119d37f00000000000000000000000000000000000000000000000000000000000000006119ce6119c86119c2837f00000000000000000000000000000000000000000000000000000000000000007f00000000000000000000000000000000000000000000000000000000000000006127e2565b926121c8565b8b61214b565b61215e565b976078420190814211611cbf578b886060948794610104948f519e8f97889662e8e33760e81b88528701528c8c870152806044870152816064870152608486015260a48501528c7f00000000000000000000000000000000000000000000000000000000000000001660c485015260e48401525af1968715611cb5578597611c7b575b5080611b7a575b506003805460ff19166001179055865163e6a4390560e01b81529788015286015285856044817f000000000000000000000000000000000000000000000000000000000000000086165afa948515611b6e578195611b12575b5050600180546001600160a01b031916918516918217905582516001600160a01b0390941684526020840191909152917f4db0962b68e799b508143f50800f1504d656cbd0fe6395510c0dca385bfd840790604090a151908152f35b909194508581813d8311611b67575b611b2b818361208f565b810103126102c057519084821682036110945750927f4db0962b68e799b508143f50800f1504d656cbd0fe6395510c0dca385bfd840738611ab6565b503d611b21565b508351903d90823e3d90fd5b875163a9059cbb60e01b81527f00000000000000000000000000000000000000000000000000000000000000006001600160a01b0381168b8301908152602081018490529091908c908290819060400103818a8a5af1908115611c71578791611c54575b5015611c1a577fefc7f1f15becfaec7a3c17eec78be3fa7adb45698f26fcfd25efe1754c24233191878a928351928352168c820152a138611a5d565b885162461bcd60e51b8152808b018c905260158186015274115cd8dc9bddc81c995b19585cd94819985a5b1959605a1b6044820152606490fd5b611c6b91508c8d3d1061052657610518818361208f565b38611bde565b8a513d89823e3d90fd5b9096506060813d606011611cad575b81611c976060938361208f565b81010312611ca9578701519538611a56565b8480fd5b3d9150611c8a565b88513d87823e3d90fd5b634e487b7160e01b885260118c528588fd5b885162461bcd60e51b8152808b018c90526016818601527514185e5b595b9d08185c1c1c9bdd994819985a5b195960521b6044820152606490fd5b611d2391508c8d3d1061052657610518818361208f565b38611947565b895162461bcd60e51b8152808c018d905260148187015273151bdad95b88185c1c1c9bdd994819985a5b195960621b6044820152606490fd5b611d7991508d803d1061052657610518818361208f565b38611908565b8b513d8a823e3d90fd5b885162461bcd60e51b8152808b018c9052601b818601527f496e73756666696369656e74207061796d656e7420746f6b656e7300000000006044820152606490fd5b90508c81813d8311611df5575b611de2818361208f565b81010312611df1575138611899565b8780fd5b503d611dd8565b9091508b81813d8311611e28575b611e14818361208f565b81010312611e2457519038611847565b8680fd5b503d611e0a565b906020606492519162461bcd60e51b8352820152601060248201526f105b1c9958591e4819195c1b1bde595960821b6044820152fd5b815162461bcd60e51b8152602081850152601260248201527115185c99d95d081b9bdd081c995858da195960721b6044820152606490fd5b508234611094576020366003190112611094575061032c602092356121d9565b503461026f578260031936011261026f5780516370a0823160e01b815230928101929092526020826024817f00000000000000000000000000000000000000000000000000000000000000006001600160a01b03165afa91821561027b57839261023f576020838351908152f35b91849150346102c0576020938460031936011261026f57611f4a612042565b6001600160a01b039081168452600a8652828420805480875290855286852091929185918790818a0190845b8b82821061202c57505050611f8d9250038761208f565b805b865181101561202357878160051b88010151825260098852848220855190611fb68261205d565b8054825260018101548a830152600281015491828882015260c086600384015493898516606085015260ff60a0908087831c1615968715608088015260a81c16151590850152015491015261200f575b50600101611f8f565b61201c9060019297612128565b9590612006565b87868651908152f35b855484526001958601958c955093019201611f76565b600435906001600160a01b038216820361205857565b600080fd5b60e0810190811067ffffffffffffffff82111761207957604052565b634e487b7160e01b600052604160045260246000fd5b90601f8019910116810190811067ffffffffffffffff82111761207957604052565b6020808252825181830181905290939260005b8281106120e657505060409293506000838284010152601f8019910116010190565b8181018601518482016040015285016120c4565b80548210156121125760005260206000200190600090565b634e487b7160e01b600052603260045260246000fd5b9190820180921161213557565b634e487b7160e01b600052601160045260246000fd5b8181029291811591840414171561213557565b8115612168570490565b634e487b7160e01b600052601260045260246000fd5b9190820391821161213557565b1561219257565b60405162461bcd60e51b815260206004820152600e60248201526d115e18d959591cc81d185c99d95d60921b6044820152606490fd5b60ff16604d811161213557600a0a90565b60c881029080820460c81481151715612135576119ce6123166122686123709461071b6127108092049161071b61223584836106d67f00000000000000000000000000000000000000000000000000000000000000008c61214b565b916122607f00000000000000000000000000000000000000000000000000000000000000008a61214b565b04918861217e565b6123106005549161231061227c8285612128565b6122a97f00000000000000000000000000000000000000000000000000000000000000008092111561218b565b6119ce6122b4612725565b9561230a7f000000000000000000000000000000000000000000000000000000000000000095612304877f000000000000000000000000000000000000000000000000000000000000000061217e565b92612128565b9061214b565b90612128565b60011c9161230a61236a7f000000000000000000000000000000000000000000000000000000000000000080937f0000000000000000000000000000000000000000000000000000000000000000906127e2565b916121c8565b90565b1561237a57565b60405162461bcd60e51b815260206004820152601860248201527f496e73756666696369656e742073616c6520746f6b656e7300000000000000006044820152606490fd5b90816020910312612058575180151581036120585790565b6040516370a0823160e01b81523060048201526020816024817f00000000000000000000000000000000000000000000000000000000000000006001600160a01b03165afa90811561246b57600091612439575b50612434612533565b111590565b90506020813d602011612463575b816124546020938361208f565b8101031261205857513861242b565b3d9150612447565b6040513d6000823e3d90fd5b1561247e57565b60405162461bcd60e51b815260206004820152600e60248201526d14d85b194818dbdb5c1b195d195960921b6044820152606490fd5b156124bb57565b60405162461bcd60e51b81526020600482015260116024820152702737ba103a343290383ab931b430b9b2b960791b6044820152606490fd5b156124fb57565b60405162461bcd60e51b815260206004820152601060248201526f105b1c9958591e481c995919595b595960821b6044820152606490fd5b6127107f000000000000000000000000000000000000000000000000000000000000000081038181116121355761258b7f0000000000000000000000000000000000000000000000000000000000000000809261217e565b7f000000000000000000000000000000000000000000000000000000000000000092808402918483048214851517156121355761265961230a61236a612370976125db6119ce956123109861215e565b9561269b6126947f0000000000000000000000000000000000000000000000000000000000000000986119ce6126876126808c7f00000000000000000000000000000000000000000000000000000000000000009b8c80927f00000000000000000000000000000000000000000000000000000000000000006127e2565b9d7f00000000000000000000000000000000000000000000000000000000000000006127e2565b809c612128565b60011c9161230a8a6121c8565b998361214b565b049061217e565b6127107f00000000000000000000000000000000000000000000000000000000000000008103818111612135576126fa7f0000000000000000000000000000000000000000000000000000000000000000809261217e565b9060055483810290808204851490151715612135576127219261271c9161215e565b61214b565b0490565b6005547f000000000000000000000000000000000000000000000000000000000000000090818110156127a857612310612370926119ce7f00000000000000000000000000000000000000000000000000000000000000009361271c857f000000000000000000000000000000000000000000000000000000000000000061217e565b50507f000000000000000000000000000000000000000000000000000000000000000090565b9060ff8091169116039060ff821161213557565b9060ff831660ff82168181146128225710612812576128076123709361280c926127ce565b6121c8565b9061215e565b61280761230a91612370946127ce565b505050905090565b60026000541461283b576002600055565b604051633ee5aeb560e01b8152600490fdfea2646970667358221220cdd711bd4804e42645fd59d848b1faecb2fff386768f54064f2b9b948cdf0c3d64736f6c63430008180033a66cc928b5edb82af9bd49922954155ab7b0942694bea4ce44661d9a8736c688f3f7a9fe364faab93b216da50a3214154f22a0a2b415b23a84c8169e8b636ee3",
  "linkReferences": {},
  "deployedLinkReferences": {}
}