{
  "_format": "hh-sol-artifact-1",
  "contractName": "OtterPadFund",
  "sourceName": "contracts/OtterPadFund.sol",
  "abi": [
    {
      "inputs": [
        {
          "internalType": "string",
          "name": "_title",
          "type": "string"
        },
        {
          "internalType": "string",
          "name": "_richInfoUrl",
          "type": "string"
        },
        {
          "internalType": "address",
          "name": "_saleToken",
          "type": "address"
        },
        {
          "internalType": "address",
          "name": "_paymentToken",
          "type": "address"
        },
        {
          "internalType": "address",
          "name": "_uniswapRouter",
          "type": "address"
        },
        {
          "internalType": "address",
          "name": "_uniswapFactory",
          "type": "address"
        },
        {
          "internalType": "uint256",
          "name": "_startPrice",
          "type": "uint256"
        },
        {
          "internalType": "uint256",
          "name": "_endPrice",
          "type": "uint256"
        },
        {
          "internalType": "uint256",
          "name": "_targetLiquidity",
          "type": "uint256"
        },
        {
          "internalType": "uint256",
          "name": "_upfrontRakeBPS",
          "type": "uint256"
        },
        {
          "internalType": "uint256",
          "name": "_escrowRakeBPS",
          "type": "uint256"
        },
        {
          "internalType": "address",
          "name": "_foundersWallet",
          "type": "address"
        },
        {
          "internalType": "address",
          "name": "_lockLPTokenWallet",
          "type": "address"
        }
      ],
      "stateMutability": "nonpayable",
      "type": "constructor"
    },
    {
      "inputs": [],
      "name": "ReentrancyGuardReentrantCall",
      "type": "error"
    },
    {
      "anonymous": false,
      "inputs": [
        {
          "indexed": false,
          "internalType": "address",
          "name": "pair",
          "type": "address"
        },
        {
          "indexed": false,
          "internalType": "uint256",
          "name": "liquidity",
          "type": "uint256"
        }
      ],
      "name": "DeployedToUniswap",
      "type": "event"
    },
    {
      "anonymous": false,
      "inputs": [
        {
          "indexed": false,
          "internalType": "uint256",
          "name": "amount",
          "type": "uint256"
        },
        {
          "indexed": false,
          "internalType": "address",
          "name": "foundersWallet",
          "type": "address"
        }
      ],
      "name": "EscrowReleased",
      "type": "event"
    },
    {
      "anonymous": false,
      "inputs": [
        {
          "indexed": true,
          "internalType": "address",
          "name": "purchaser",
          "type": "address"
        },
        {
          "indexed": false,
          "internalType": "uint256",
          "name": "totalAmount",
          "type": "uint256"
        },
        {
          "indexed": false,
          "internalType": "uint256",
          "name": "otterpadFee",
          "type": "uint256"
        },
        {
          "indexed": false,
          "internalType": "uint256",
          "name": "upfrontAmount",
          "type": "uint256"
        },
        {
          "indexed": false,
          "internalType": "uint256",
          "name": "escrowAmount",
          "type": "uint256"
        },
        {
          "indexed": false,
          "internalType": "uint256",
          "name": "contributionAmount",
          "type": "uint256"
        }
      ],
      "name": "PaymentReceived",
      "type": "event"
    },
    {
      "anonymous": false,
      "inputs": [
        {
          "indexed": true,
          "internalType": "address",
          "name": "purchaser",
          "type": "address"
        },
        {
          "indexed": false,
          "internalType": "uint256",
          "name": "contributionAmount",
          "type": "uint256"
        },
        {
          "indexed": true,
          "internalType": "uint256",
          "name": "orderIndex",
          "type": "uint256"
        },
        {
          "indexed": false,
          "internalType": "uint256",
          "name": "netActiveContributions",
          "type": "uint256"
        },
        {
          "indexed": false,
          "internalType": "uint256",
          "name": "timestamp",
          "type": "uint256"
        }
      ],
      "name": "Refunded",
      "type": "event"
    },
    {
      "anonymous": false,
      "inputs": [
        {
          "indexed": true,
          "internalType": "address",
          "name": "purchaser",
          "type": "address"
        },
        {
          "indexed": false,
          "internalType": "uint256",
          "name": "paymentAmount",
          "type": "uint256"
        },
        {
          "indexed": false,
          "internalType": "uint256",
          "name": "contributionAmount",
          "type": "uint256"
        },
        {
          "indexed": false,
          "internalType": "uint256",
          "name": "tokenAmount",
          "type": "uint256"
        },
        {
          "indexed": true,
          "internalType": "uint256",
          "name": "orderIndex",
          "type": "uint256"
        },
        {
          "indexed": false,
          "internalType": "uint256",
          "name": "netActiveContributions",
          "type": "uint256"
        },
        {
          "indexed": false,
          "internalType": "uint256",
          "name": "timestamp",
          "type": "uint256"
        }
      ],
      "name": "TokensPurchased",
      "type": "event"
    },
    {
      "anonymous": false,
      "inputs": [
        {
          "indexed": true,
          "internalType": "address",
          "name": "purchaser",
          "type": "address"
        },
        {
          "indexed": false,
          "internalType": "uint256",
          "name": "tokenAmount",
          "type": "uint256"
        },
        {
          "indexed": true,
          "internalType": "uint256",
          "name": "orderIndex",
          "type": "uint256"
        }
      ],
      "name": "TokensRedeemed",
      "type": "event"
    },
    {
      "inputs": [],
      "name": "BPS_FACTOR",
      "outputs": [
        {
          "internalType": "uint256",
          "name": "",
          "type": "uint256"
        }
      ],
      "stateMutability": "view",
      "type": "function"
    },
    {
      "inputs": [],
      "name": "OTTERPAD_DAO",
      "outputs": [
        {
          "internalType": "address",
          "name": "",
          "type": "address"
        }
      ],
      "stateMutability": "view",
      "type": "function"
    },
    {
      "inputs": [],
      "name": "OTTERPAD_FEE_BPS",
      "outputs": [
        {
          "internalType": "uint256",
          "name": "",
          "type": "uint256"
        }
      ],
      "stateMutability": "view",
      "type": "function"
    },
    {
      "inputs": [
        {
          "internalType": "uint256",
          "name": "paymentAmount",
          "type": "uint256"
        }
      ],
      "name": "buy",
      "outputs": [],
      "stateMutability": "nonpayable",
      "type": "function"
    },
    {
      "inputs": [
        {
          "internalType": "uint256",
          "name": "paymentAmount",
          "type": "uint256"
        }
      ],
      "name": "calculateTokensReceived",
      "outputs": [
        {
          "internalType": "uint256",
          "name": "",
          "type": "uint256"
        }
      ],
      "stateMutability": "view",
      "type": "function"
    },
    {
      "inputs": [],
      "name": "checkSaleTokensRequired",
      "outputs": [
        {
          "internalType": "uint256",
          "name": "",
          "type": "uint256"
        }
      ],
      "stateMutability": "view",
      "type": "function"
    },
    {
      "inputs": [],
      "name": "deployToUniswap",
      "outputs": [
        {
          "internalType": "address",
          "name": "pool",
          "type": "address"
        }
      ],
      "stateMutability": "nonpayable",
      "type": "function"
    },
    {
      "inputs": [],
      "name": "endPrice",
      "outputs": [
        {
          "internalType": "uint256",
          "name": "",
          "type": "uint256"
        }
      ],
      "stateMutability": "view",
      "type": "function"
    },
    {
      "inputs": [],
      "name": "escrowRakeBPS",
      "outputs": [
        {
          "internalType": "uint256",
          "name": "",
          "type": "uint256"
        }
      ],
      "stateMutability": "view",
      "type": "function"
    },
    {
      "inputs": [],
      "name": "foundersWallet",
      "outputs": [
        {
          "internalType": "address",
          "name": "",
          "type": "address"
        }
      ],
      "stateMutability": "view",
      "type": "function"
    },
    {
      "inputs": [
        {
          "internalType": "address",
          "name": "user",
          "type": "address"
        }
      ],
      "name": "getAllocation",
      "outputs": [
        {
          "internalType": "uint256",
          "name": "totalTokens",
          "type": "uint256"
        }
      ],
      "stateMutability": "view",
      "type": "function"
    },
    {
      "inputs": [],
      "name": "getCurrentPrice",
      "outputs": [
        {
          "internalType": "uint256",
          "name": "",
          "type": "uint256"
        }
      ],
      "stateMutability": "view",
      "type": "function"
    },
    {
      "inputs": [],
      "name": "getEscrowedAmount",
      "outputs": [
        {
          "internalType": "uint256",
          "name": "",
          "type": "uint256"
        }
      ],
      "stateMutability": "view",
      "type": "function"
    },
    {
      "inputs": [],
      "name": "getPaymentTokenBalance",
      "outputs": [
        {
          "internalType": "uint256",
          "name": "",
          "type": "uint256"
        }
      ],
      "stateMutability": "view",
      "type": "function"
    },
    {
      "inputs": [],
      "name": "getSaleTokenBalance",
      "outputs": [
        {
          "internalType": "uint256",
          "name": "",
          "type": "uint256"
        }
      ],
      "stateMutability": "view",
      "type": "function"
    },
    {
      "inputs": [],
      "name": "getSlope",
      "outputs": [
        {
          "internalType": "uint256",
          "name": "",
          "type": "uint256"
        }
      ],
      "stateMutability": "view",
      "type": "function"
    },
    {
      "inputs": [
        {
          "internalType": "address",
          "name": "user",
          "type": "address"
        }
      ],
      "name": "getUserOrderIndices",
      "outputs": [
        {
          "internalType": "uint256[]",
          "name": "",
          "type": "uint256[]"
        }
      ],
      "stateMutability": "view",
      "type": "function"
    },
    {
      "inputs": [],
      "name": "hasSufficientSaleTokens",
      "outputs": [
        {
          "internalType": "bool",
          "name": "",
          "type": "bool"
        }
      ],
      "stateMutability": "view",
      "type": "function"
    },
    {
      "inputs": [],
      "name": "isDeployedToUniswap",
      "outputs": [
        {
          "internalType": "bool",
          "name": "",
          "type": "bool"
        }
      ],
      "stateMutability": "view",
      "type": "function"
    },
    {
      "inputs": [],
      "name": "lockLPTokenWallet",
      "outputs": [
        {
          "internalType": "address",
          "name": "",
          "type": "address"
        }
      ],
      "stateMutability": "view",
      "type": "function"
    },
    {
      "inputs": [],
      "name": "orderCounter",
      "outputs": [
        {
          "internalType": "uint256",
          "name": "",
          "type": "uint256"
        }
      ],
      "stateMutability": "view",
      "type": "function"
    },
    {
      "inputs": [],
      "name": "paymentToken",
      "outputs": [
        {
          "internalType": "contract IERC20Metadata",
          "name": "",
          "type": "address"
        }
      ],
      "stateMutability": "view",
      "type": "function"
    },
    {
      "inputs": [],
      "name": "paymentTokenDecimals",
      "outputs": [
        {
          "internalType": "uint8",
          "name": "",
          "type": "uint8"
        }
      ],
      "stateMutability": "view",
      "type": "function"
    },
    {
      "inputs": [],
      "name": "paymentTokenSymbol",
      "outputs": [
        {
          "internalType": "string",
          "name": "",
          "type": "string"
        }
      ],
      "stateMutability": "view",
      "type": "function"
    },
    {
      "inputs": [
        {
          "internalType": "uint256",
          "name": "",
          "type": "uint256"
        }
      ],
      "name": "purchases",
      "outputs": [
        {
          "internalType": "uint256",
          "name": "paymentAmount",
          "type": "uint256"
        },
        {
          "internalType": "uint256",
          "name": "contributionAmount",
          "type": "uint256"
        },
        {
          "internalType": "uint256",
          "name": "tokenAmount",
          "type": "uint256"
        },
        {
          "internalType": "address",
          "name": "purchaser",
          "type": "address"
        },
        {
          "internalType": "bool",
          "name": "isRefunded",
          "type": "bool"
        },
        {
          "internalType": "bool",
          "name": "isRedeemed",
          "type": "bool"
        },
        {
          "internalType": "uint256",
          "name": "purchaseBlock",
          "type": "uint256"
        }
      ],
      "stateMutability": "view",
      "type": "function"
    },
    {
      "inputs": [
        {
          "internalType": "address",
          "name": "tokenAddress",
          "type": "address"
        }
      ],
      "name": "recoverStuckTokens",
      "outputs": [],
      "stateMutability": "nonpayable",
      "type": "function"
    },
    {
      "inputs": [
        {
          "internalType": "uint256",
          "name": "orderIndex",
          "type": "uint256"
        }
      ],
      "name": "redeem",
      "outputs": [],
      "stateMutability": "nonpayable",
      "type": "function"
    },
    {
      "inputs": [
        {
          "internalType": "uint256",
          "name": "orderIndex",
          "type": "uint256"
        }
      ],
      "name": "refund",
      "outputs": [],
      "stateMutability": "nonpayable",
      "type": "function"
    },
    {
      "inputs": [],
      "name": "richInfoUrl",
      "outputs": [
        {
          "internalType": "string",
          "name": "",
          "type": "string"
        }
      ],
      "stateMutability": "view",
      "type": "function"
    },
    {
      "inputs": [],
      "name": "saleToken",
      "outputs": [
        {
          "internalType": "contract IERC20Metadata",
          "name": "",
          "type": "address"
        }
      ],
      "stateMutability": "view",
      "type": "function"
    },
    {
      "inputs": [],
      "name": "saleTokenDecimals",
      "outputs": [
        {
          "internalType": "uint8",
          "name": "",
          "type": "uint8"
        }
      ],
      "stateMutability": "view",
      "type": "function"
    },
    {
      "inputs": [],
      "name": "saleTokenSymbol",
      "outputs": [
        {
          "internalType": "string",
          "name": "",
          "type": "string"
        }
      ],
      "stateMutability": "view",
      "type": "function"
    },
    {
      "inputs": [],
      "name": "slopeScalingFactor",
      "outputs": [
        {
          "internalType": "uint256",
          "name": "",
          "type": "uint256"
        }
      ],
      "stateMutability": "view",
      "type": "function"
    },
    {
      "inputs": [],
      "name": "startPrice",
      "outputs": [
        {
          "internalType": "uint256",
          "name": "",
          "type": "uint256"
        }
      ],
      "stateMutability": "view",
      "type": "function"
    },
    {
      "inputs": [],
      "name": "targetLiquidity",
      "outputs": [
        {
          "internalType": "uint256",
          "name": "",
          "type": "uint256"
        }
      ],
      "stateMutability": "view",
      "type": "function"
    },
    {
      "inputs": [],
      "name": "targetReached",
      "outputs": [
        {
          "internalType": "bool",
          "name": "",
          "type": "bool"
        }
      ],
      "stateMutability": "view",
      "type": "function"
    },
    {
      "inputs": [],
      "name": "title",
      "outputs": [
        {
          "internalType": "string",
          "name": "",
          "type": "string"
        }
      ],
      "stateMutability": "view",
      "type": "function"
    },
    {
      "inputs": [],
      "name": "totalActiveContributions",
      "outputs": [
        {
          "internalType": "uint256",
          "name": "",
          "type": "uint256"
        }
      ],
      "stateMutability": "view",
      "type": "function"
    },
    {
      "inputs": [],
      "name": "totalPaymentsIn",
      "outputs": [
        {
          "internalType": "uint256",
          "name": "",
          "type": "uint256"
        }
      ],
      "stateMutability": "view",
      "type": "function"
    },
    {
      "inputs": [],
      "name": "totalTokensAllocated",
      "outputs": [
        {
          "internalType": "uint256",
          "name": "",
          "type": "uint256"
        }
      ],
      "stateMutability": "view",
      "type": "function"
    },
    {
      "inputs": [],
      "name": "uniswapFactory",
      "outputs": [
        {
          "internalType": "contract IUniswapV2Factory",
          "name": "",
          "type": "address"
        }
      ],
      "stateMutability": "view",
      "type": "function"
    },
    {
      "inputs": [],
      "name": "uniswapPool",
      "outputs": [
        {
          "internalType": "address",
          "name": "",
          "type": "address"
        }
      ],
      "stateMutability": "view",
      "type": "function"
    },
    {
      "inputs": [],
      "name": "uniswapRouter",
      "outputs": [
        {
          "internalType": "contract IUniswapV2Router02",
          "name": "",
          "type": "address"
        }
      ],
      "stateMutability": "view",
      "type": "function"
    },
    {
      "inputs": [],
      "name": "upfrontRakeBPS",
      "outputs": [
        {
          "internalType": "uint256",
          "name": "",
          "type": "uint256"
        }
      ],
      "stateMutability": "view",
      "type": "function"
    },
    {
      "inputs": [
        {
          "internalType": "address",
          "name": "",
          "type": "address"
        },
        {
          "internalType": "uint256",
          "name": "",
          "type": "uint256"
        }
      ],
      "name": "userOrderIndices",
      "outputs": [
        {
          "internalType": "uint256",
          "name": "",
          "type": "uint256"
        }
      ],
      "stateMutability": "view",
      "type": "function"
    }
  ],
  "bytecode": "0x6102206040523462000e475762003f4e8038038091620000228261022062000e4c565b61022039610220016101a061022082031262000e4757610220516001600160401b03811162000e4757816200005b916102200162000e70565b6102405190916001600160401b03821162000e47576200007f916102200162000e70565b906200008d61026062000ee6565b6200009a61028062000ee6565b620000a76102a062000ee6565b91620000b56102c062000ee6565b6102e051610300516103205161034051610360519790969195929491929190620000e161038062000ee6565b9a620000ef6103a062000ee6565b9a6001600055670de0b6b3a76400006101a05260646101c05280511562000e12578615158062000e08575b8062000dfe575b1562000dc857881562000d8357621e84808a1062000d32578a8a01808b1162000b9d5763042c1d801062000ced576001600160a01b038d161562000ca8576001600160a01b03851615158062000c95575b1562000c50576001600160a01b038581169087161462000c0b576001600160a01b03831615158062000bf8575b1562000bb357610160516305f5e1008181031162000b9d57610180518101906305f5e10003816305f5e100031162000b9d576305f5e1001462000b58578051906001600160401b0382116200079757600a5490600182811c9216801562000b4d575b6020831014620007765781601f84931162000ae9575b50602090601f831160011462000a6f5760009262000a63575b50508160011b916000199060031b1c191617600a555b8051906001600160401b0382116200079757600b5490600182811c9216801562000a58575b6020831014620007765781601f849311620009e3575b50602090601f831160011462000958576000926200094c575b50508160011b916000199060031b1c191617600b555b6001600160a01b03838116608081905285821660a05291811660c0529190911660e05260405163313ce56760e01b815290602090829060049082905afa908115620007d55760009162000928575b5060ff801991168160025416176002556040519163313ce56760e01b835260208360048160018060a01b0388165afa918215620007d55760ff6000936004958591620008f2575b508554911691161783556040516395d89b4160e01b815292839182906001600160a01b03165afa908115620007d557600091620008d3575b508051906001600160401b0382116200079757600154600181811c91168015620008c8575b60208210146200077657601f811162000862575b50602090601f8311600114620007ed579180600494926000948592620007e1575b50508160011b9184199060031b1c1916176001555b6040516395d89b4160e01b815292839182906001600160a01b03165afa908115620007d557600091620007ad575b508051906001600160401b038211620007975760035490600182811c921680156200078c575b6020831014620007765781601f84931162000704575b50602090601f8311600114620006755760009262000669575b50508160011b916000199060031b1c1916176003555b61020095865261010052610120526101405261016052610180526101e091825260405190612feb928362000f43843960805183818161023f01528181610490015281816105a30152818161136201528181611b8f01526127a4015260a05183818161088c0152818161174a015281816118da01528181611be00152612309015260c05183818161121d0152611c96015260e0518381816110310152611df50152610100518381816102df0152818161043a015281816129f701528181612ad40152612d6e015261012051838181610f2601528181611b4b015281816129230152612afc01526101405183818161084c01528181610ff901528181611b23015281816126aa015281816128ed0152612a3b015261016051838181610382015281816107c8015281816112d70152818161183e015281816126290152818161298301528181612a720152612b8d0152610180518381816103c5015281816107f901528181610f800152818161187901528181612661015281816129cf01528181612aa70152612bba01526101a0518381816104130152818161110901528181612b610152612d4801526101c051838181610b640152611c300152518281816109960152818161132901528181611a320152611ee6015251818181611a760152611d8a0152f35b0151905038806200046f565b6003600090815293507fc2575a0e9e593c00f959f8c92f12db2869c3395a3b0502d05e2516446f71f85b91905b601f1984168510620006e8576001945083601f19811610620006ce575b505050811b0160035562000485565b015160001960f88460031b161c19169055388080620006bf565b81810151835560209485019460019093019290910190620006a2565b60036000529091507fc2575a0e9e593c00f959f8c92f12db2869c3395a3b0502d05e2516446f71f85b601f840160051c8101602085106200076e575b90849392915b601f830160051c820181106200075e57505062000456565b6000815585945060010162000746565b508062000740565b634e487b7160e01b600052602260045260246000fd5b91607f169162000440565b634e487b7160e01b600052604160045260246000fd5b620007ce91503d806000833e620007c5818362000e4c565b81019062000f16565b386200041a565b6040513d6000823e3d90fd5b015190503880620003d7565b90600160005260206000209160005b601f1985168110620008495750926004949260019260009583601f1981161062000830575b505050811b01600155620003ec565b0151851960f88460031b161c1916905538808062000821565b91926020600181928685015181550194019201620007fc565b60016000527fb10e2d527612073b26eecdfd717e6a320cf44b4afac2b0732d9fcbe2b7fa0cf6601f840160051c810160208510620008c0575b601f830160051c82018110620008b3575050620003b6565b600081556001016200089b565b50806200089b565b90607f1690620003a2565b620008eb91503d806000833e620007c5818362000e4c565b386200037d565b62000919915060203d60201162000920575b62000910818362000e4c565b81019062000efb565b3862000345565b503d62000904565b62000945915060203d602011620009205762000910818362000e4c565b38620002fe565b0151905038806200029a565b600b60009081527f0175b7a638427703f0dbe7bb9bbf987a2551717b34e79f33b5b1008d1fa01db99350601f198516905b818110620009ca5750908460019594939210620009b0575b505050811b01600b55620002b0565b015160001960f88460031b161c19169055388080620009a1565b9293602060018192878601518155019501930162000989565b600b6000529091507f0175b7a638427703f0dbe7bb9bbf987a2551717b34e79f33b5b1008d1fa01db9601f840160051c8101916020851062000a4d575b90601f859493920160051c01905b81811062000a3d575062000281565b6000815584935060010162000a2e565b909150819062000a20565b91607f16916200026b565b01519050388062000230565b600a600090815260008051602062003f2e8339815191529350601f198516905b81811062000ad0575090846001959493921062000ab6575b505050811b01600a5562000246565b015160001960f88460031b161c1916905538808062000aa7565b9293602060018192878601518155019501930162000a8f565b600a60005290915060008051602062003f2e833981519152601f840160051c8101916020851062000b42575b90601f859493920160051c01905b81811062000b32575062000217565b6000815584935060010162000b23565b909150819062000b15565b91607f169162000201565b60405162461bcd60e51b815260206004820152601760248201527f496e76616c69642072616b6520706172616d65746572730000000000000000006044820152606490fd5b634e487b7160e01b600052601160045260246000fd5b60405162461bcd60e51b815260206004820152601960248201527f496e76616c696420556e697377617020616464726573736573000000000000006044820152606490fd5b506001600160a01b03841615156200019f565b60405162461bcd60e51b815260206004820152601860248201527f546f6b656e73206d75737420626520646966666572656e7400000000000000006044820152606490fd5b60405162461bcd60e51b815260206004820152601760248201527f496e76616c696420746f6b656e206164647265737365730000000000000000006044820152606490fd5b506001600160a01b038616151562000172565b60405162461bcd60e51b815260206004820152601760248201527f496e76616c696420666f756e646572732077616c6c65740000000000000000006044820152606490fd5b60405162461bcd60e51b815260206004820152601a60248201527f436f6d62696e65642072616b65203730252065786365656465640000000000006044820152606490fd5b60405162461bcd60e51b8152602060048201526024808201527f557066726f6e742072616b65206d757374206265203e3d204f747465725061646044820152632066656560e01b6064820152608490fd5b60405162461bcd60e51b815260206004820152601660248201527f496e76616c6964207461726765742066756e64696e67000000000000000000006044820152606490fd5b60405162461bcd60e51b815260206004820152600e60248201526d496e76616c69642070726963657360901b6044820152606490fd5b5086881162000121565b508715156200011a565b60405162461bcd60e51b815260206004820152600d60248201526c496e76616c6964207469746c6560981b6044820152606490fd5b600080fd5b601f909101601f19168101906001600160401b038211908210176200079757604052565b919080601f8401121562000e475782516001600160401b03811162000797576020906040519262000eab83601f19601f850116018562000e4c565b81845282828701011162000e475760005b81811062000ed257508260009394955001015290565b858101830151848201840152820162000ebc565b51906001600160a01b038216820362000e4757565b9081602091031262000e47575160ff8116810362000e475790565b9060208282031262000e475781516001600160401b03811162000e475762000f3f920162000e70565b9056fe608060408181526004908136101561001657600080fd5b600092833560e01c90816302a9e71414612464575080630e0229231461234a5780630f8c2798146122dc57806310d0ffdd146122bc57806312eff12c14611acb57806316c0494814611aa557806316c94b3814611a615780631bfaf15514611a1d57806325f97fb9146119f9578063278ecde1146117795780633013ce2914611735578063325cd796146117145780633bde5ba8146116ed57806344af14a8146116305780634a79d50c146115715780634be55d1f146112fa578063560b842c146112bf5780635a59c551146112695780635f655ea71461124c578063735de9f71461120857806373ee60841461114957806379c84f9c1461112c578063835b82b4146110f15780638392fe311461107d5780638a19ecef146110605780638bdb2afa1461101c57806392258ec814610fe15780639513a0fd14610fc25780639c51e74214610fa3578063b704a0c414610f68578063b789bf5214610f49578063b868723e14610f0e578063bdd3d82514610ee2578063bef0886014610e35578063c07f773a14610e16578063c7c8b43714610d13578063d96a094a14610770578063db006a75146104de578063de7e3310146104bf578063e985e3671461047b578063eb91d37e14610353578063edafc9af14610324578063ef5ee99514610306578063f1a9af89146102c75763f6a55a291461021357600080fd5b346102b157826003193601126102b15780516370a0823160e01b815230928101929092526020826024817f00000000000000000000000000000000000000000000000000000000000000006001600160a01b03165afa9182156102bd578392610281575b6020838351908152f35b9091506020813d6020116102b5575b8161029d602093836124d0565b810103126102b15760209250519038610277565b8280fd5b3d9150610290565b81513d85823e3d90fd5b838234610302578160031936011261030257602090517f00000000000000000000000000000000000000000000000000000000000000008152f35b5080fd5b83823461030257816003193601126103025760209051621e84808152f35b83823461030257816003193601126103025760209051736c83e86e05697c995d718c1cfa3f9045a38c7cd48152f35b508234610478578060031936011261047857600854906305f5e1009081830292808404831490151715610465577f000000000000000000000000000000000000000000000000000000000000000082039182116104655760208461045e6104386104116104036103f56103f08a6103ea7f00000000000000000000000000000000000000000000000000000000000000008c6125bf565b9061259f565b612d46565b6103fd612a39565b9061258c565b6103ea60ff60025416612760565b7f00000000000000000000000000000000000000000000000000000000000000009061259f565b7f0000000000000000000000000000000000000000000000000000000000000000612569565b9051908152f35b634e487b7160e01b815260118552602490fd5b80fd5b838234610302578160031936011261030257517f00000000000000000000000000000000000000000000000000000000000000006001600160a01b03168152602090f35b8382346103025781600319360112610302576020906009549051908152f35b50346102b15760208060031936011261076c578235926104fc612e72565b60065460ff8160081c16156107315760ff16156106f057838552600c82528285206003810180549092916001600160a01b03919061053d8383163314612866565b60ff8260a01c166106b85760029061055b60ff8460a81c16156128a6565b0193845491821561067f5760ff60a81b1916600160a81b179055855163a9059cbb60e01b815233848201908152602081019290925291859183919082908b90829060400103927f0000000000000000000000000000000000000000000000000000000000000000165af1908115610675578791610648575b501561060d5750907fd171fb179b26c49e23fe46eddd44d3048a1ad277b62144ac0725fbcf1dbf6d52915492519283523392a36001815580f35b835162461bcd60e51b81529081018390526015602482015274151bdad95b881d1c985b9cd9995c8819985a5b1959605a1b6044820152606490fd5b6106689150843d861161066e575b61066081836124d0565b810190612771565b386105d3565b503d610656565b85513d89823e3d90fd5b875162461bcd60e51b815280860188905260136024820152724e6f20746f6b656e7320746f2072656465656d60681b6044820152606490fd5b865162461bcd60e51b8152808501879052601260248201527113dc99195c881dd85cc81c99599d5b99195960721b6044820152606490fd5b915162461bcd60e51b815291820152601760248201527f4e6f7420796574206465706c6f79656420746f204445580000000000000000006044820152606490fd5b50915162461bcd60e51b815291820152601660248201527515185c99d95d081b9bdd081c995858da1959081e595d60521b6044820152606490fd5b8380fd5b5091903461030257602090816003193601126102b157803591610791612e72565b6107a060ff6006541615612829565b621e8480808402908482041484151715610d00576305f5e10080910492856107f385846107ed7f00000000000000000000000000000000000000000000000000000000000000008a61258c565b046125bf565b9261081e7f00000000000000000000000000000000000000000000000000000000000000008861258c565b04918661083884610833876108338b866125bf565b6125bf565b948a61084687600854612569565b986108747f0000000000000000000000000000000000000000000000000000000000000000809b11156125cc565b61087d84612609565b9660648a60018060a01b0398897f0000000000000000000000000000000000000000000000000000000000000000169551928380926323b872dd60e01b8252338c83015260249a308c8401526044830152885af1908115610cf5578e91610cd8575b5015610c9657898d8f8e7fbefb6e85b11f40ee4d9e3e8bb0bedbc3d1eee123b1328c0ea0a4b842cbfff7498d60449661093f85519283928d8c3398869192608093969594919660a084019784526020840152604083015260608201520152565b0390a2519283809263a9059cbb60e01b96878352736c83e86e05697c995d718c1cfa3f9045a38c7cd48c8401528a830152875af1908115610c8c578d91610c6f575b5015610c37578c519081526001600160a01b037f0000000000000000000000000000000000000000000000000000000000000000168582019081526020810193909352918891839182908e90829060400103925af1908115610c2d578a91610c10575b5015610bce576005549560001993848814610bbc5790898489600d948f8f60018401600555815195610a158761249e565b8652868601928d84528287018d81526060880194338652608089019484865260a08a019480865260c08b0198438a528152600c8c5220985189555160018901555160028801556003870193511683549260ff60a01b9051151560a01b169160ff60a81b9051151560a81b169269ffffffffffffffffffff60b01b16171717905551910155338b525289892090815492600160401b841015610bab57505091610aeb82610b89999a9b9460017fb176b33ad40225c8f67dc6ef0cba96c0c88f67afd36396e2198a3f48a44fc7a0979501815561253b565b819291549060031b9188831b921b1916179055610b0a81600754612569565b600755610b5f610b1c85600854612569565b98899384600855610b2f82600954612569565b6009555193849333974293869192608093969594919660a084019784526020840152604083015260608201520152565b0390a37f0000000000000000000000000000000000000000000000000000000000000000906125bf565b1115610b97575b6001815580f35b61010061ff00196006541617600655610b90565b634e487b7160e01b8b526041905289fd5b634e487b7160e01b8b5260118452828bfd5b895162461bcd60e51b81529182018690526017908201527f557066726f6e74207472616e73666572206661696c65640000000000000000006044820152606490fd5b610c279150873d891161066e5761066081836124d0565b386109e4565b8b513d8c823e3d90fd5b8c5162461bcd60e51b81528086018a905260138186015272119959481d1c985b9cd9995c8819985a5b1959606a1b6044820152606490fd5b610c8691508a3d8c1161066e5761066081836124d0565b38610981565b8e513d8f823e3d90fd5b8d5162461bcd60e51b81528087018b90526017818701527f5061796d656e74207472616e73666572206661696c65640000000000000000006044820152606490fd5b610cef91508b3d8d1161066e5761066081836124d0565b386108df565b508e513d8f823e3d90fd5b634e487b7160e01b855260118352602485fd5b50346102b157826003193601126102b15780519183600b54906001908260011c92600181168015610e0c575b6020958686108214610df95750848852908115610dd75750600114610d7e575b610d7a8686610d70828b03836124d0565b51918291826124f2565b0390f35b929550600b83527f0175b7a638427703f0dbe7bb9bbf987a2551717b34e79f33b5b1008d1fa01db95b828410610dc45750505082610d7a94610d70928201019438610d5f565b8054868501880152928601928101610da7565b60ff191687860152505050151560051b8301019250610d7082610d7a38610d5f565b634e487b7160e01b845260229052602483fd5b93607f1693610d3f565b8382346103025781600319360112610302576020906007549051908152f35b50823461047857602090816003193601126104785782906001600160a01b03610e5c612483565b168152600d8352818120908251808584549182815201908194845286842090845b818110610ece5750505081610e939103826124d0565b83519485948186019282875251809352850193925b828110610eb757505050500390f35b835185528695509381019392810192600101610ea8565b825484529288019260019283019201610e7d565b5090346102b157826003193601126102b15754905160089190911c6001600160a01b0316815260209150f35b838234610302578160031936011261030257602090517f00000000000000000000000000000000000000000000000000000000000000008152f35b8382346103025781600319360112610302576020906005549051908152f35b838234610302578160031936011261030257602090517f00000000000000000000000000000000000000000000000000000000000000008152f35b838234610302578160031936011261030257602090516305f5e1008152f35b8382346103025781600319360112610302576020906008549051908152f35b838234610302578160031936011261030257602090517f00000000000000000000000000000000000000000000000000000000000000008152f35b838234610302578160031936011261030257517f00000000000000000000000000000000000000000000000000000000000000006001600160a01b03168152602090f35b83823461030257816003193601126103025760209061045e612b86565b50346102b15760203660031901126102b15760ff8160e09484358152600c602052208054936001820154936002830154916003840154930154948151968752602087015285015260018060a01b0381166060850152818160a01c161515608085015260a81c16151560a083015260c0820152f35b838234610302578160031936011261030257602090517f00000000000000000000000000000000000000000000000000000000000000008152f35b83823461030257816003193601126103025760209061045e612a39565b50346102b157826003193601126102b15780519183600354906001908260011c926001811680156111fe575b6020958686108214610df95750848852908115610dd757506001146111a557610d7a8686610d70828b03836124d0565b929550600383527fc2575a0e9e593c00f959f8c92f12db2869c3395a3b0502d05e2516446f71f85b5b8284106111eb5750505082610d7a94610d70928201019438610d5f565b80548685018801529286019281016111ce565b93607f1693611175565b838234610302578160031936011261030257517f00000000000000000000000000000000000000000000000000000000000000006001600160a01b03168152602090f35b83823461030257816003193601126103025760209061045e6128e5565b838234610302578060031936011261030257611283612483565b6001600160a01b03168252600d6020528082208054602435939084101561047857506020926112b19161253b565b91905490519160031b1c8152f35b838234610302578160031936011261030257602090517f00000000000000000000000000000000000000000000000000000000000000008152f35b50346102b1576020908160031936011261076c57611316612483565b61131e612e72565b6001600160a01b03907f000000000000000000000000000000000000000000000000000000000000000090828216330361152e5760ff60065416156114eb578216917f00000000000000000000000000000000000000000000000000000000000000001682146114a85782516370a0823160e01b81523086820152908482602481865afa91821561149e57908592918892611467575b50845163a9059cbb60e01b81526001600160a01b0390911687820190815260208101929092529283918290899082906040015b03925af190811561145d578591611440575b501561140757836001815580f35b5162461bcd60e51b8152918201526015602482015274151bdad95b881c9958dbdd995c9e4819985a5b1959605a1b604482015260649150fd5b6114579150833d851161066e5761066081836124d0565b386113f9565b82513d87823e3d90fd5b8381949293503d8311611497575b61147f81836124d0565b8101031261149357905184916113e76113b4565b8680fd5b503d611475565b84513d89823e3d90fd5b50505162461bcd60e51b815291820152601960248201527f43616e6e6f74207265636f7665722073616c6520746f6b656e00000000000000604482015260649150fd5b835162461bcd60e51b8152808701869052601b60248201527f4e6f7420796574206465706c6f79656420746f20556e697377617000000000006044820152606490fd5b835162461bcd60e51b8152808701869052601960248201527f4f6e6c7920666f756e646572732063616e207265636f766572000000000000006044820152606490fd5b50346102b157826003193601126102b15780519183600a54906001908260011c92600181168015611626575b6020958686108214610df95750848852908115610dd757506001146115cd57610d7a8686610d70828b03836124d0565b929550600a83527fc65a7bb8d6351c1cf70c95a316cc6a92839c986682d98bc35f958f4883f9d2a85b8284106116135750505082610d7a94610d70928201019438610d5f565b80548685018801529286019281016115f6565b93607f169361159d565b50346102b157826003193601126102b1578051918360018054918260011c926001811680156116e3575b6020958686108214610df95750848852908115610dd7575060011461168a57610d7a8686610d70828b03836124d0565b929550600183527fb10e2d527612073b26eecdfd717e6a320cf44b4afac2b0732d9fcbe2b7fa0cf65b8284106116d05750505082610d7a94610d70928201019438610d5f565b80548685018801529286019281016116b3565b93607f169361165a565b83823461030257816003193601126103025760209060ff60065460081c1690519015158152f35b5082346104785780600319360112610478575060ff60209254169051908152f35b838234610302578160031936011261030257517f00000000000000000000000000000000000000000000000000000000000000006001600160a01b03168152602090f35b5090346102b1576020918260031936011261076c57813592611799612e72565b6117a860ff6006541615612829565b838552600c81528185206003810180546001600160a01b03959291906117d18782163314612866565b60ff8160a01c166119c35790816117f160ff6001959460a81c16156128a6565b60ff60a01b191660a084901b179055600281015460075461181291906125bf565b6007550161182381546008546125bf565b600855546305f5e1008082028281048214831517156119b0577f000000000000000000000000000000000000000000000000000000000000000082039082821161199d576118ab93929161189f6118a4926103ea7f000000000000000000000000000000000000000000000000000000000000000080946125bf565b61258c565b0490612569565b835163a9059cbb60e01b81523383820190815260208101839052919590918491839182908b90829060400103927f0000000000000000000000000000000000000000000000000000000000000000165af190811561149e578791611980575b501561194f575060085490825193845283015242908201527f40afc61aabce83a502901d9dc66b15d1ee92bfcc1f4f56923b8434dcd041e19f60603392a36001815580f35b915162461bcd60e51b815291820152600d60248201526c1499599d5b990819985a5b1959609a1b6044820152606490fd5b6119979150833d851161066e5761066081836124d0565b3861190a565b634e487b7160e01b8a526011855260248afd5b634e487b7160e01b895260118452602489fd5b855162461bcd60e51b8152808501869052601060248201526f105b1c9958591e481c99599d5b99195960821b6044820152606490fd5b83823461030257816003193601126103025760209060ff6006541690519015158152f35b838234610302578160031936011261030257517f00000000000000000000000000000000000000000000000000000000000000006001600160a01b03168152602090f35b838234610302578160031936011261030257517f00000000000000000000000000000000000000000000000000000000000000006001600160a01b03168152602090f35b838234610302578160031936011261030257602090611ac2612789565b90519015158152f35b50823461047857806003193601126104785760065460ff8160081c16156122845760ff1661224e57611afb612b86565b91611b0c611b07612789565b612714565b611b1a60ff60025416612760565b93611b70611b497f0000000000000000000000000000000000000000000000000000000000000000968761258c565b7f00000000000000000000000000000000000000000000000000000000000000009061259f565b82516370a0823160e01b80825230848301526020976001600160a01b037f0000000000000000000000000000000000000000000000000000000000000000811698909794959493602492908b8185818e5afa8015611fcf578890879061221d575b611bdd92501015612714565b887f00000000000000000000000000000000000000000000000000000000000000001693885181815230888201528c818681895afa9081156120835787916121f0575b50611c55611c2e8585612569565b7f0000000000000000000000000000000000000000000000000000000000000000906125bf565b116121ae57885181815230888201528c818681895afa90811561208357878e8e8e958e97958d958591612170575b508610156120ed5750611ce7908d86975b7f00000000000000000000000000000000000000000000000000000000000000001698519485809481938c63095ea7b360e01b9a8b8552840160209093929193604081019460018060a01b031681520152565b03925af19081156120e3578f8a926120c6575b50501561208d578a519081526001600160a01b0384168982019081526020810192909252908d908290819060400103818a8a5af1908115612083578791612066575b501561202b5760784201908142116120195787876060948e948e610104958f519e8f98899762e8e33760e81b89528801528c8c880152806044880152816064880152608487015260a48601527f00000000000000000000000000000000000000000000000000000000000000001660c485015260e48401525af195861561200f578496611fd9575b5080611ed8575b50600160ff19600654161760065585519763e6a4390560e01b8952848901528701528686604481887f0000000000000000000000000000000000000000000000000000000000000000165afa958615611ecc578196611e8e575b50508054610100600160a81b031916600886901b610100600160a81b031617905581516001600160a01b038516815260208101919091527f4db0962b68e799b508143f50800f1504d656cbd0fe6395510c0dca385bfd84079080604081015b0390a15191168152f35b909195508681813d8311611ec5575b611ea781836124d0565b81010312610302575190848216820361047857509381611e84611e25565b503d611e9d565b508351903d90823e3d90fd5b865163a9059cbb60e01b81527f00000000000000000000000000000000000000000000000000000000000000006001600160a01b038116878301908152602081018490529091908c9082908190604001038189895af1908115611fcf578691611fb2575b5015611f78577fefc7f1f15becfaec7a3c17eec78be3fa7adb45698f26fcfd25efe1754c242331918989928351928352168c820152a189611dcb565b875162461bcd60e51b81528087018c905260158185015274115cd8dc9bddc81c995b19585cd94819985a5b1959605a1b6044820152606490fd5b611fc991508c8d3d1061066e5761066081836124d0565b8c611f3c565b89513d88823e3d90fd5b9095506060813d606011612007575b81611ff5606093836124d0565b8101031261076c57860151948a611dc4565b3d9150611fe8565b87513d86823e3d90fd5b634e487b7160e01b8752601188528487fd5b885162461bcd60e51b81528088018d90526016818601527514185e5b595b9d08185c1c1c9bdd994819985a5b195960521b6044820152606490fd5b61207d91508d803d1061066e5761066081836124d0565b8d611d3c565b8a513d89823e3d90fd5b8a5162461bcd60e51b8152808a018f905260148188015273151bdad95b88185c1c1c9bdd994819985a5b195960621b6044820152606490fd5b6120dc9250803d1061066e5761066081836124d0565b8f8f611cfa565b8c513d8b823e3d90fd5b955050505050915190815230878201528b818581885afa908115611fcf579187878e8e8c8f968f988591612129575b5090611ce7929197611c94565b9750505050929450505081813d8311612169575b61214781836124d0565b8101031261216557889187878e611ce78f8f968e905190919261211c565b8580fd5b503d61213d565b969850509550508092508391503d83116121a7575b61218f81836124d0565b81010312611493579187878e8e8e958e975138611c83565b503d612185565b885162461bcd60e51b81528088018d9052601b818601527f496e73756666696369656e74207061796d656e7420746f6b656e7300000000006044820152606490fd5b90508c81813d8311612216575b61220781836124d0565b8101031261149357518d611c20565b503d6121fd565b50508b81813d8311612247575b61223481836124d0565b810103126121655787611bdd9151611bd1565b503d61222a565b815162461bcd60e51b8152602081850152601060248201526f105b1c9958591e4819195c1b1bde595960821b6044820152606490fd5b825162461bcd60e51b8152602081860152601260248201527115185c99d95d081b9bdd081c995858da195960721b6044820152606490fd5b508234610478576020366003190112610478575061045e60209235612609565b50346102b157826003193601126102b15780516370a0823160e01b815230928101929092526020826024817f00000000000000000000000000000000000000000000000000000000000000006001600160a01b03165afa9182156102bd578392610281576020838351908152f35b5091903461030257602092836003193601126102b157612368612483565b6001600160a01b039081168452600d855281842082518154808252918652868620909594918591908790818a0190845b8b82821061244e575050506123af925003876124d0565b805b865181101561244557878160051b880101518252600c88528482208551906123d88261249e565b8054825260018101548a830152600281015491828882015260c086600384015493898516606085015260ff60a0908087831c1615968715608088015260a81c161515908501520154910152612431575b506001016123b1565b61243e9060019297612569565b9590612428565b87868651908152f35b855484526001958601958c955093019201612398565b84903461030257816003193601126103025760209060ff600254168152f35b600435906001600160a01b038216820361249957565b600080fd5b60e0810190811067ffffffffffffffff8211176124ba57604052565b634e487b7160e01b600052604160045260246000fd5b90601f8019910116810190811067ffffffffffffffff8211176124ba57604052565b6020808252825181830181905290939260005b82811061252757505060409293506000838284010152601f8019910116010190565b818101860151848201604001528501612505565b80548210156125535760005260206000200190600090565b634e487b7160e01b600052603260045260246000fd5b9190820180921161257657565b634e487b7160e01b600052601160045260246000fd5b8181029291811591840414171561257657565b81156125a9570490565b634e487b7160e01b600052601260045260246000fd5b9190820391821161257657565b156125d357565b60405162461bcd60e51b815260206004820152600e60248201526d115e18d959591cc81d185c99d95d60921b6044820152606490fd5b621e848090818102918183041481151715612576576305f5e100809204917f00000000000000000000000000000000000000000000000000000000000000009061269761265b85836107ed868861258c565b946108337f0000000000000000000000000000000000000000000000000000000000000000966108338561268f8a8a61258c565b0491886125bf565b916126d06126a86008549485612569565b7f000000000000000000000000000000000000000000000000000000000000000010156125cc565b8183029280840483149015171561257657810390811161257657612701610833926103ea612711966103f0946125bf565b9261270b84612d46565b93612569565b90565b1561271b57565b60405162461bcd60e51b815260206004820152601860248201527f496e73756666696369656e742073616c6520746f6b656e7300000000000000006044820152606490fd5b60ff16604d811161257657600a0a90565b90816020910312612499575180151581036124995790565b6040516370a0823160e01b81523060048201526020816024817f00000000000000000000000000000000000000000000000000000000000000006001600160a01b03165afa90811561281d576000916127eb575b506127e66128e5565b111590565b90506020813d602011612815575b81612806602093836124d0565b810103126124995751386127dd565b3d91506127f9565b6040513d6000823e3d90fd5b1561283057565b60405162461bcd60e51b815260206004820152600e60248201526d14d85b194818dbdb5c1b195d195960921b6044820152606490fd5b1561286d57565b60405162461bcd60e51b81526020600482015260116024820152702737ba103a343290383ab931b430b9b2b960791b6044820152606490fd5b156128ad57565b60405162461bcd60e51b815260206004820152601060248201526f105b1c9958591e481c995919595b595960821b6044820152606490fd5b60045460ff167f000000000000000000000000000000000000000000000000000000000000000061291e61291883612760565b8261258c565b6129497f0000000000000000000000000000000000000000000000000000000000000000809261259f565b9261296961296060ff60025416956103fd87612760565b6103ea83612760565b926305f5e1009283820291808304851490151715612576577f0000000000000000000000000000000000000000000000000000000000000000840393841161257657612711956103fd612a2d612a2d93612a28612a1b6129f46103ea986103ea612a339c7f0000000000000000000000000000000000000000000000000000000000000000906125bf565b927f0000000000000000000000000000000000000000000000000000000000000000612569565b60011c916103fd89612760565b61259f565b91612760565b90612569565b7f00000000000000000000000000000000000000000000000000000000000000006305f5e10080820291808304821490151715612576577f0000000000000000000000000000000000000000000000000000000000000000810390811161257657612711916103ea612acc927f0000000000000000000000000000000000000000000000000000000000000000906125bf565b612a28612b5f7f0000000000000000000000000000000000000000000000000000000000000000926103fd612a2d7f000000000000000000000000000000000000000000000000000000000000000095612b59612b42612b2c8984612569565b60011c612a2860ff60045416976103fd89612760565b946103ea612a2d60ff60025416976103fd89612760565b966125bf565b7f00000000000000000000000000000000000000000000000000000000000000009061258c565b6305f5e1007f0000000000000000000000000000000000000000000000000000000000000000810381811161257657612be07f000000000000000000000000000000000000000000000000000000000000000080926125bf565b906008548381029080820485149015171561257657612c029261189f9161259f565b0490565b8015612d015760009081811380600114612cda5715612cb4575b800290600190815b60018111612c7157508082136001600160ff1b03849004831116612c5d57808212600160ff1b849005831216612c5d57500290565b634e487b7160e01b81526011600452602490fd5b926001600160ff1b038190048111612ca05760018416612c97575b80029260011c612c28565b80920291612c8c565b634e487b7160e01b82526011600452602482fd5b6001600160ff1b03819005811215612c2057634e487b7160e01b82526011600452602482fd5b506001600160ff1b03819004811115612c2057634e487b7160e01b82526011600452602482fd5b50600090565b818102929160008212600160ff1b82141661257657818405149015171561257657565b9190916000838201938412911290801582169115161761257657565b7f000000000000000000000000000000000000000000000000000000000000000090612d92827f000000000000000000000000000000000000000000000000000000000000000061258c565b916002612d9d612a39565b0592600160ff1b9283821461257657600092612db883612c06565b918660021b600481058803612e5e57612de792612ddc612dec9593612de193612d07565b612d07565b90612d2a565b612e95565b908460011b946002860503612e4a57612e1e91612e0a918403612d2a565b612e1860ff60025416612760565b90612d07565b918315612e36578214600019841416612c5d57500590565b634e487b7160e01b82526012600452602482fd5b634e487b7160e01b83526011600452602483fd5b634e487b7160e01b86526011600452602486fd5b600260005414612e83576002600055565b604051633ee5aeb560e01b8152600490fd5b600180821115612fb157612f52908083600160801b811015612f9f575b80600160401b6004921015612f92575b640100000000811015612f85575b62010000811015612f78575b610100811015612f6c575b6010811015612f60575b1015612f59575b600302811c612f07818561259f565b01811c612f14818561259f565b01811c612f21818561259f565b01811c612f2e818561259f565b01811c612f3b818561259f565b01811c612f48818561259f565b01901c809261259f565b8111900390565b811b612ef8565b811c9160021b91612ef1565b60081c91811b91612ee7565b60101c9160081b91612edc565b60201c9160101b91612ed0565b60401c9160201b91612ec2565b50600160401b9050608084901c612eb2565b509056fea26469706673582212206e48af488c9016a80557fcec3f9413a2c19d5d259d98fe169ec02edb29930b6164736f6c63430008180033c65a7bb8d6351c1cf70c95a316cc6a92839c986682d98bc35f958f4883f9d2a8",
  "linkReferences": {},
  "deployedLinkReferences": {}
}